{
	"contracts/models/ModelLibrary.sol": {
		"ModelLibrary": {
			"abi": [
				{
					"inputs": [
						{
							"internalType": "address",
							"name": "_creditorAddress",
							"type": "address"
						},
						{
							"internalType": "uint256",
							"name": "_debtAmount",
							"type": "uint256"
						},
						{
							"internalType": "uint256",
							"name": "_interest",
							"type": "uint256"
						},
						{
							"internalType": "uint256",
							"name": "_timeOfDebt",
							"type": "uint256"
						},
						{
							"internalType": "bool",
							"name": "_validate",
							"type": "bool"
						},
						{
							"internalType": "bool",
							"name": "_alreadyGetFromDebtFund",
							"type": "bool"
						}
					],
					"name": "createCreditor",
					"outputs": [
						{
							"components": [
								{
									"internalType": "address",
									"name": "creditorAddress",
									"type": "address"
								},
								{
									"internalType": "uint256",
									"name": "debtAmount",
									"type": "uint256"
								},
								{
									"internalType": "uint256",
									"name": "interest",
									"type": "uint256"
								},
								{
									"internalType": "uint256",
									"name": "timeOfDebt",
									"type": "uint256"
								},
								{
									"internalType": "bool",
									"name": "validate",
									"type": "bool"
								},
								{
									"internalType": "bool",
									"name": "alreadyGetFromDebtFund",
									"type": "bool"
								}
							],
							"internalType": "struct ModelLibrary.Creditor",
							"name": "",
							"type": "tuple"
						}
					],
					"stateMutability": "pure",
					"type": "function"
				}
			],
			"devdoc": {
				"kind": "dev",
				"methods": {},
				"version": 1
			},
			"evm": {
				"assembly": "    /* \"contracts/models/ModelLibrary.sol\":58:2052  library ModelLibrary {... */\n  dataSize(sub_0)\n  dataOffset(sub_0)\n  0x0b\n  dup3\n  dup3\n  dup3\n  codecopy\n  dup1\n  mload\n  0x00\n  byte\n  0x73\n  eq\n  tag_1\n  jumpi\n  mstore(0x00, 0x4e487b7100000000000000000000000000000000000000000000000000000000)\n  mstore(0x04, 0x00)\n  revert(0x00, 0x24)\ntag_1:\n  mstore(0x00, address)\n  0x73\n  dup2\n  mstore8\n  dup3\n  dup2\n  return\nstop\n\nsub_0: assembly {\n        /* \"contracts/models/ModelLibrary.sol\":58:2052  library ModelLibrary {... */\n      eq(address, deployTimeAddress())\n      mstore(0x40, 0x80)\n      jumpi(tag_1, lt(calldatasize, 0x04))\n      shr(0xe0, calldataload(0x00))\n      dup1\n      0x15533aa3\n      eq\n      tag_2\n      jumpi\n    tag_1:\n      0x00\n      dup1\n      revert\n        /* \"contracts/models/ModelLibrary.sol\":303:797  function createCreditor(... */\n    tag_2:\n      tag_3\n      0x04\n      dup1\n      calldatasize\n      sub\n      dup2\n      add\n      swap1\n      tag_4\n      swap2\n      swap1\n      tag_5\n      jump\t// in\n    tag_4:\n      tag_6\n      jump\t// in\n    tag_3:\n      mload(0x40)\n      tag_7\n      swap2\n      swap1\n      tag_8\n      jump\t// in\n    tag_7:\n      mload(0x40)\n      dup1\n      swap2\n      sub\n      swap1\n      return\n    tag_6:\n        /* \"contracts/models/ModelLibrary.sol\":535:550  Creditor memory */\n      tag_9\n      tag_10\n      jump\t// in\n    tag_9:\n        /* \"contracts/models/ModelLibrary.sol\":581:790  Creditor(... */\n      mload(0x40)\n      dup1\n      0xc0\n      add\n      0x40\n      mstore\n      dup1\n        /* \"contracts/models/ModelLibrary.sol\":607:623  _creditorAddress */\n      dup9\n        /* \"contracts/models/ModelLibrary.sol\":581:790  Creditor(... */\n      0xffffffffffffffffffffffffffffffffffffffff\n      and\n      dup2\n      mstore\n      0x20\n      add\n        /* \"contracts/models/ModelLibrary.sol\":641:652  _debtAmount */\n      dup8\n        /* \"contracts/models/ModelLibrary.sol\":581:790  Creditor(... */\n      dup2\n      mstore\n      0x20\n      add\n        /* \"contracts/models/ModelLibrary.sol\":670:679  _interest */\n      dup7\n        /* \"contracts/models/ModelLibrary.sol\":581:790  Creditor(... */\n      dup2\n      mstore\n      0x20\n      add\n        /* \"contracts/models/ModelLibrary.sol\":697:708  _timeOfDebt */\n      dup6\n        /* \"contracts/models/ModelLibrary.sol\":581:790  Creditor(... */\n      dup2\n      mstore\n      0x20\n      add\n        /* \"contracts/models/ModelLibrary.sol\":726:735  _validate */\n      dup5\n        /* \"contracts/models/ModelLibrary.sol\":581:790  Creditor(... */\n      iszero\n      iszero\n      dup2\n      mstore\n      0x20\n      add\n        /* \"contracts/models/ModelLibrary.sol\":753:776  _alreadyGetFromDebtFund */\n      dup4\n        /* \"contracts/models/ModelLibrary.sol\":581:790  Creditor(... */\n      iszero\n      iszero\n      dup2\n      mstore\n      pop\n        /* \"contracts/models/ModelLibrary.sol\":562:790  return... */\n      swap1\n      pop\n        /* \"contracts/models/ModelLibrary.sol\":303:797  function createCreditor(... */\n      swap7\n      swap6\n      pop\n      pop\n      pop\n      pop\n      pop\n      pop\n      jump\t// out\n    tag_10:\n      mload(0x40)\n      dup1\n      0xc0\n      add\n      0x40\n      mstore\n      dup1\n      and(0xffffffffffffffffffffffffffffffffffffffff, 0x00)\n      dup2\n      mstore\n      0x20\n      add\n      0x00\n      dup2\n      mstore\n      0x20\n      add\n      0x00\n      dup2\n      mstore\n      0x20\n      add\n      0x00\n      dup2\n      mstore\n      0x20\n      add\n      iszero(iszero(0x00))\n      dup2\n      mstore\n      0x20\n      add\n      iszero(iszero(0x00))\n      dup2\n      mstore\n      pop\n      swap1\n      jump\t// out\n        /* \"#utility.yul\":88:205   */\n    tag_13:\n        /* \"#utility.yul\":197:198   */\n      0x00\n        /* \"#utility.yul\":194:195   */\n      dup1\n        /* \"#utility.yul\":187:199   */\n      revert\n        /* \"#utility.yul\":334:460   */\n    tag_15:\n        /* \"#utility.yul\":371:378   */\n      0x00\n        /* \"#utility.yul\":411:453   */\n      0xffffffffffffffffffffffffffffffffffffffff\n        /* \"#utility.yul\":404:409   */\n      dup3\n        /* \"#utility.yul\":400:454   */\n      and\n        /* \"#utility.yul\":389:454   */\n      swap1\n      pop\n        /* \"#utility.yul\":334:460   */\n      swap2\n      swap1\n      pop\n      jump\t// out\n        /* \"#utility.yul\":466:562   */\n    tag_16:\n        /* \"#utility.yul\":503:510   */\n      0x00\n        /* \"#utility.yul\":532:556   */\n      tag_35\n        /* \"#utility.yul\":550:555   */\n      dup3\n        /* \"#utility.yul\":532:556   */\n      tag_15\n      jump\t// in\n    tag_35:\n        /* \"#utility.yul\":521:556   */\n      swap1\n      pop\n        /* \"#utility.yul\":466:562   */\n      swap2\n      swap1\n      pop\n      jump\t// out\n        /* \"#utility.yul\":568:690   */\n    tag_17:\n        /* \"#utility.yul\":641:665   */\n      tag_37\n        /* \"#utility.yul\":659:664   */\n      dup2\n        /* \"#utility.yul\":641:665   */\n      tag_16\n      jump\t// in\n    tag_37:\n        /* \"#utility.yul\":634:639   */\n      dup2\n        /* \"#utility.yul\":631:666   */\n      eq\n        /* \"#utility.yul\":621:684   */\n      tag_38\n      jumpi\n        /* \"#utility.yul\":680:681   */\n      0x00\n        /* \"#utility.yul\":677:678   */\n      dup1\n        /* \"#utility.yul\":670:682   */\n      revert\n        /* \"#utility.yul\":621:684   */\n    tag_38:\n        /* \"#utility.yul\":568:690   */\n      pop\n      jump\t// out\n        /* \"#utility.yul\":696:835   */\n    tag_18:\n        /* \"#utility.yul\":742:747   */\n      0x00\n        /* \"#utility.yul\":780:786   */\n      dup2\n        /* \"#utility.yul\":767:787   */\n      calldataload\n        /* \"#utility.yul\":758:787   */\n      swap1\n      pop\n        /* \"#utility.yul\":796:829   */\n      tag_40\n        /* \"#utility.yul\":823:828   */\n      dup2\n        /* \"#utility.yul\":796:829   */\n      tag_17\n      jump\t// in\n    tag_40:\n        /* \"#utility.yul\":696:835   */\n      swap3\n      swap2\n      pop\n      pop\n      jump\t// out\n        /* \"#utility.yul\":841:918   */\n    tag_19:\n        /* \"#utility.yul\":878:885   */\n      0x00\n        /* \"#utility.yul\":907:912   */\n      dup2\n        /* \"#utility.yul\":896:912   */\n      swap1\n      pop\n        /* \"#utility.yul\":841:918   */\n      swap2\n      swap1\n      pop\n      jump\t// out\n        /* \"#utility.yul\":924:1046   */\n    tag_20:\n        /* \"#utility.yul\":997:1021   */\n      tag_43\n        /* \"#utility.yul\":1015:1020   */\n      dup2\n        /* \"#utility.yul\":997:1021   */\n      tag_19\n      jump\t// in\n    tag_43:\n        /* \"#utility.yul\":990:995   */\n      dup2\n        /* \"#utility.yul\":987:1022   */\n      eq\n        /* \"#utility.yul\":977:1040   */\n      tag_44\n      jumpi\n        /* \"#utility.yul\":1036:1037   */\n      0x00\n        /* \"#utility.yul\":1033:1034   */\n      dup1\n        /* \"#utility.yul\":1026:1038   */\n      revert\n        /* \"#utility.yul\":977:1040   */\n    tag_44:\n        /* \"#utility.yul\":924:1046   */\n      pop\n      jump\t// out\n        /* \"#utility.yul\":1052:1191   */\n    tag_21:\n        /* \"#utility.yul\":1098:1103   */\n      0x00\n        /* \"#utility.yul\":1136:1142   */\n      dup2\n        /* \"#utility.yul\":1123:1143   */\n      calldataload\n        /* \"#utility.yul\":1114:1143   */\n      swap1\n      pop\n        /* \"#utility.yul\":1152:1185   */\n      tag_46\n        /* \"#utility.yul\":1179:1184   */\n      dup2\n        /* \"#utility.yul\":1152:1185   */\n      tag_20\n      jump\t// in\n    tag_46:\n        /* \"#utility.yul\":1052:1191   */\n      swap3\n      swap2\n      pop\n      pop\n      jump\t// out\n        /* \"#utility.yul\":1197:1287   */\n    tag_22:\n        /* \"#utility.yul\":1231:1238   */\n      0x00\n        /* \"#utility.yul\":1274:1279   */\n      dup2\n        /* \"#utility.yul\":1267:1280   */\n      iszero\n        /* \"#utility.yul\":1260:1281   */\n      iszero\n        /* \"#utility.yul\":1249:1281   */\n      swap1\n      pop\n        /* \"#utility.yul\":1197:1287   */\n      swap2\n      swap1\n      pop\n      jump\t// out\n        /* \"#utility.yul\":1293:1409   */\n    tag_23:\n        /* \"#utility.yul\":1363:1384   */\n      tag_49\n        /* \"#utility.yul\":1378:1383   */\n      dup2\n        /* \"#utility.yul\":1363:1384   */\n      tag_22\n      jump\t// in\n    tag_49:\n        /* \"#utility.yul\":1356:1361   */\n      dup2\n        /* \"#utility.yul\":1353:1385   */\n      eq\n        /* \"#utility.yul\":1343:1403   */\n      tag_50\n      jumpi\n        /* \"#utility.yul\":1399:1400   */\n      0x00\n        /* \"#utility.yul\":1396:1397   */\n      dup1\n        /* \"#utility.yul\":1389:1401   */\n      revert\n        /* \"#utility.yul\":1343:1403   */\n    tag_50:\n        /* \"#utility.yul\":1293:1409   */\n      pop\n      jump\t// out\n        /* \"#utility.yul\":1415:1548   */\n    tag_24:\n        /* \"#utility.yul\":1458:1463   */\n      0x00\n        /* \"#utility.yul\":1496:1502   */\n      dup2\n        /* \"#utility.yul\":1483:1503   */\n      calldataload\n        /* \"#utility.yul\":1474:1503   */\n      swap1\n      pop\n        /* \"#utility.yul\":1512:1542   */\n      tag_52\n        /* \"#utility.yul\":1536:1541   */\n      dup2\n        /* \"#utility.yul\":1512:1542   */\n      tag_23\n      jump\t// in\n    tag_52:\n        /* \"#utility.yul\":1415:1548   */\n      swap3\n      swap2\n      pop\n      pop\n      jump\t// out\n        /* \"#utility.yul\":1554:2599   */\n    tag_5:\n        /* \"#utility.yul\":1652:1658   */\n      0x00\n        /* \"#utility.yul\":1660:1666   */\n      dup1\n        /* \"#utility.yul\":1668:1674   */\n      0x00\n        /* \"#utility.yul\":1676:1682   */\n      dup1\n        /* \"#utility.yul\":1684:1690   */\n      0x00\n        /* \"#utility.yul\":1692:1698   */\n      dup1\n        /* \"#utility.yul\":1741:1744   */\n      0xc0\n        /* \"#utility.yul\":1729:1738   */\n      dup8\n        /* \"#utility.yul\":1720:1727   */\n      dup10\n        /* \"#utility.yul\":1716:1739   */\n      sub\n        /* \"#utility.yul\":1712:1745   */\n      slt\n        /* \"#utility.yul\":1709:1829   */\n      iszero\n      tag_54\n      jumpi\n        /* \"#utility.yul\":1748:1827   */\n      tag_55\n      tag_13\n      jump\t// in\n    tag_55:\n        /* \"#utility.yul\":1709:1829   */\n    tag_54:\n        /* \"#utility.yul\":1868:1869   */\n      0x00\n        /* \"#utility.yul\":1893:1946   */\n      tag_56\n        /* \"#utility.yul\":1938:1945   */\n      dup10\n        /* \"#utility.yul\":1929:1935   */\n      dup3\n        /* \"#utility.yul\":1918:1927   */\n      dup11\n        /* \"#utility.yul\":1914:1936   */\n      add\n        /* \"#utility.yul\":1893:1946   */\n      tag_18\n      jump\t// in\n    tag_56:\n        /* \"#utility.yul\":1883:1946   */\n      swap7\n      pop\n        /* \"#utility.yul\":1839:1956   */\n      pop\n        /* \"#utility.yul\":1995:1997   */\n      0x20\n        /* \"#utility.yul\":2021:2074   */\n      tag_57\n        /* \"#utility.yul\":2066:2073   */\n      dup10\n        /* \"#utility.yul\":2057:2063   */\n      dup3\n        /* \"#utility.yul\":2046:2055   */\n      dup11\n        /* \"#utility.yul\":2042:2064   */\n      add\n        /* \"#utility.yul\":2021:2074   */\n      tag_21\n      jump\t// in\n    tag_57:\n        /* \"#utility.yul\":2011:2074   */\n      swap6\n      pop\n        /* \"#utility.yul\":1966:2084   */\n      pop\n        /* \"#utility.yul\":2123:2125   */\n      0x40\n        /* \"#utility.yul\":2149:2202   */\n      tag_58\n        /* \"#utility.yul\":2194:2201   */\n      dup10\n        /* \"#utility.yul\":2185:2191   */\n      dup3\n        /* \"#utility.yul\":2174:2183   */\n      dup11\n        /* \"#utility.yul\":2170:2192   */\n      add\n        /* \"#utility.yul\":2149:2202   */\n      tag_21\n      jump\t// in\n    tag_58:\n        /* \"#utility.yul\":2139:2202   */\n      swap5\n      pop\n        /* \"#utility.yul\":2094:2212   */\n      pop\n        /* \"#utility.yul\":2251:2253   */\n      0x60\n        /* \"#utility.yul\":2277:2330   */\n      tag_59\n        /* \"#utility.yul\":2322:2329   */\n      dup10\n        /* \"#utility.yul\":2313:2319   */\n      dup3\n        /* \"#utility.yul\":2302:2311   */\n      dup11\n        /* \"#utility.yul\":2298:2320   */\n      add\n        /* \"#utility.yul\":2277:2330   */\n      tag_21\n      jump\t// in\n    tag_59:\n        /* \"#utility.yul\":2267:2330   */\n      swap4\n      pop\n        /* \"#utility.yul\":2222:2340   */\n      pop\n        /* \"#utility.yul\":2379:2382   */\n      0x80\n        /* \"#utility.yul\":2406:2456   */\n      tag_60\n        /* \"#utility.yul\":2448:2455   */\n      dup10\n        /* \"#utility.yul\":2439:2445   */\n      dup3\n        /* \"#utility.yul\":2428:2437   */\n      dup11\n        /* \"#utility.yul\":2424:2446   */\n      add\n        /* \"#utility.yul\":2406:2456   */\n      tag_24\n      jump\t// in\n    tag_60:\n        /* \"#utility.yul\":2396:2456   */\n      swap3\n      pop\n        /* \"#utility.yul\":2350:2466   */\n      pop\n        /* \"#utility.yul\":2505:2508   */\n      0xa0\n        /* \"#utility.yul\":2532:2582   */\n      tag_61\n        /* \"#utility.yul\":2574:2581   */\n      dup10\n        /* \"#utility.yul\":2565:2571   */\n      dup3\n        /* \"#utility.yul\":2554:2563   */\n      dup11\n        /* \"#utility.yul\":2550:2572   */\n      add\n        /* \"#utility.yul\":2532:2582   */\n      tag_24\n      jump\t// in\n    tag_61:\n        /* \"#utility.yul\":2522:2582   */\n      swap2\n      pop\n        /* \"#utility.yul\":2476:2592   */\n      pop\n        /* \"#utility.yul\":1554:2599   */\n      swap3\n      swap6\n      pop\n      swap3\n      swap6\n      pop\n      swap3\n      swap6\n      jump\t// out\n        /* \"#utility.yul\":2605:2721   */\n    tag_25:\n        /* \"#utility.yul\":2690:2714   */\n      tag_63\n        /* \"#utility.yul\":2708:2713   */\n      dup2\n        /* \"#utility.yul\":2690:2714   */\n      tag_16\n      jump\t// in\n    tag_63:\n        /* \"#utility.yul\":2685:2688   */\n      dup3\n        /* \"#utility.yul\":2678:2715   */\n      mstore\n        /* \"#utility.yul\":2605:2721   */\n      pop\n      pop\n      jump\t// out\n        /* \"#utility.yul\":2727:2843   */\n    tag_26:\n        /* \"#utility.yul\":2812:2836   */\n      tag_65\n        /* \"#utility.yul\":2830:2835   */\n      dup2\n        /* \"#utility.yul\":2812:2836   */\n      tag_19\n      jump\t// in\n    tag_65:\n        /* \"#utility.yul\":2807:2810   */\n      dup3\n        /* \"#utility.yul\":2800:2837   */\n      mstore\n        /* \"#utility.yul\":2727:2843   */\n      pop\n      pop\n      jump\t// out\n        /* \"#utility.yul\":2849:2956   */\n    tag_27:\n        /* \"#utility.yul\":2928:2949   */\n      tag_67\n        /* \"#utility.yul\":2943:2948   */\n      dup2\n        /* \"#utility.yul\":2928:2949   */\n      tag_22\n      jump\t// in\n    tag_67:\n        /* \"#utility.yul\":2923:2926   */\n      dup3\n        /* \"#utility.yul\":2916:2950   */\n      mstore\n        /* \"#utility.yul\":2849:2956   */\n      pop\n      pop\n      jump\t// out\n        /* \"#utility.yul\":3030:4324   */\n    tag_28:\n        /* \"#utility.yul\":3183:3187   */\n      0xc0\n        /* \"#utility.yul\":3178:3181   */\n      dup3\n        /* \"#utility.yul\":3174:3188   */\n      add\n        /* \"#utility.yul\":3281:3285   */\n      0x00\n        /* \"#utility.yul\":3274:3279   */\n      dup3\n        /* \"#utility.yul\":3270:3286   */\n      add\n        /* \"#utility.yul\":3264:3287   */\n      mload\n        /* \"#utility.yul\":3300:3371   */\n      tag_69\n        /* \"#utility.yul\":3365:3369   */\n      0x00\n        /* \"#utility.yul\":3360:3363   */\n      dup6\n        /* \"#utility.yul\":3356:3370   */\n      add\n        /* \"#utility.yul\":3342:3354   */\n      dup3\n        /* \"#utility.yul\":3300:3371   */\n      tag_25\n      jump\t// in\n    tag_69:\n        /* \"#utility.yul\":3198:3381   */\n      pop\n        /* \"#utility.yul\":3469:3473   */\n      0x20\n        /* \"#utility.yul\":3462:3467   */\n      dup3\n        /* \"#utility.yul\":3458:3474   */\n      add\n        /* \"#utility.yul\":3452:3475   */\n      mload\n        /* \"#utility.yul\":3488:3559   */\n      tag_70\n        /* \"#utility.yul\":3553:3557   */\n      0x20\n        /* \"#utility.yul\":3548:3551   */\n      dup6\n        /* \"#utility.yul\":3544:3558   */\n      add\n        /* \"#utility.yul\":3530:3542   */\n      dup3\n        /* \"#utility.yul\":3488:3559   */\n      tag_26\n      jump\t// in\n    tag_70:\n        /* \"#utility.yul\":3391:3569   */\n      pop\n        /* \"#utility.yul\":3655:3659   */\n      0x40\n        /* \"#utility.yul\":3648:3653   */\n      dup3\n        /* \"#utility.yul\":3644:3660   */\n      add\n        /* \"#utility.yul\":3638:3661   */\n      mload\n        /* \"#utility.yul\":3674:3745   */\n      tag_71\n        /* \"#utility.yul\":3739:3743   */\n      0x40\n        /* \"#utility.yul\":3734:3737   */\n      dup6\n        /* \"#utility.yul\":3730:3744   */\n      add\n        /* \"#utility.yul\":3716:3728   */\n      dup3\n        /* \"#utility.yul\":3674:3745   */\n      tag_26\n      jump\t// in\n    tag_71:\n        /* \"#utility.yul\":3579:3755   */\n      pop\n        /* \"#utility.yul\":3843:3847   */\n      0x60\n        /* \"#utility.yul\":3836:3841   */\n      dup3\n        /* \"#utility.yul\":3832:3848   */\n      add\n        /* \"#utility.yul\":3826:3849   */\n      mload\n        /* \"#utility.yul\":3862:3933   */\n      tag_72\n        /* \"#utility.yul\":3927:3931   */\n      0x60\n        /* \"#utility.yul\":3922:3925   */\n      dup6\n        /* \"#utility.yul\":3918:3932   */\n      add\n        /* \"#utility.yul\":3904:3916   */\n      dup3\n        /* \"#utility.yul\":3862:3933   */\n      tag_26\n      jump\t// in\n    tag_72:\n        /* \"#utility.yul\":3765:3943   */\n      pop\n        /* \"#utility.yul\":4029:4033   */\n      0x80\n        /* \"#utility.yul\":4022:4027   */\n      dup3\n        /* \"#utility.yul\":4018:4034   */\n      add\n        /* \"#utility.yul\":4012:4035   */\n      mload\n        /* \"#utility.yul\":4048:4113   */\n      tag_73\n        /* \"#utility.yul\":4107:4111   */\n      0x80\n        /* \"#utility.yul\":4102:4105   */\n      dup6\n        /* \"#utility.yul\":4098:4112   */\n      add\n        /* \"#utility.yul\":4084:4096   */\n      dup3\n        /* \"#utility.yul\":4048:4113   */\n      tag_27\n      jump\t// in\n    tag_73:\n        /* \"#utility.yul\":3953:4123   */\n      pop\n        /* \"#utility.yul\":4223:4227   */\n      0xa0\n        /* \"#utility.yul\":4216:4221   */\n      dup3\n        /* \"#utility.yul\":4212:4228   */\n      add\n        /* \"#utility.yul\":4206:4229   */\n      mload\n        /* \"#utility.yul\":4242:4307   */\n      tag_74\n        /* \"#utility.yul\":4301:4305   */\n      0xa0\n        /* \"#utility.yul\":4296:4299   */\n      dup6\n        /* \"#utility.yul\":4292:4306   */\n      add\n        /* \"#utility.yul\":4278:4290   */\n      dup3\n        /* \"#utility.yul\":4242:4307   */\n      tag_27\n      jump\t// in\n    tag_74:\n        /* \"#utility.yul\":4133:4317   */\n      pop\n        /* \"#utility.yul\":3152:4324   */\n      pop\n        /* \"#utility.yul\":3030:4324   */\n      pop\n      pop\n      jump\t// out\n        /* \"#utility.yul\":4330:4665   */\n    tag_8:\n        /* \"#utility.yul\":4479:4483   */\n      0x00\n        /* \"#utility.yul\":4517:4520   */\n      0xc0\n        /* \"#utility.yul\":4506:4515   */\n      dup3\n        /* \"#utility.yul\":4502:4521   */\n      add\n        /* \"#utility.yul\":4494:4521   */\n      swap1\n      pop\n        /* \"#utility.yul\":4531:4658   */\n      tag_76\n        /* \"#utility.yul\":4655:4656   */\n      0x00\n        /* \"#utility.yul\":4644:4653   */\n      dup4\n        /* \"#utility.yul\":4640:4657   */\n      add\n        /* \"#utility.yul\":4631:4637   */\n      dup5\n        /* \"#utility.yul\":4531:4658   */\n      tag_28\n      jump\t// in\n    tag_76:\n        /* \"#utility.yul\":4330:4665   */\n      swap3\n      swap2\n      pop\n      pop\n      jump\t// out\n\n    auxdata: 0xa264697066735822122068a1b1bd852723f289a8d3fd29e4faaee36a223de53fa51c051f0a8dbf2af38664736f6c63430008180033\n}\n",
				"bytecode": {
					"linkReferences": {},
					"object": "61035161004e600b8282823980515f1a607314610042577f4e487b71000000000000000000000000000000000000000000000000000000005f525f60045260245ffd5b305f52607381538281f3fe7300000000000000000000000000000000000000003014608060405260043610610034575f3560e01c806315533aa314610038575b5f80fd5b610052600480360381019061004d91906101d3565b610068565b60405161005f9190610302565b60405180910390f35b6100706100c3565b6040518060c001604052808873ffffffffffffffffffffffffffffffffffffffff168152602001878152602001868152602001858152602001841515815260200183151581525090509695505050505050565b6040518060c001604052805f73ffffffffffffffffffffffffffffffffffffffff1681526020015f81526020015f81526020015f81526020015f151581526020015f151581525090565b5f80fd5b5f73ffffffffffffffffffffffffffffffffffffffff82169050919050565b5f61013a82610111565b9050919050565b61014a81610130565b8114610154575f80fd5b50565b5f8135905061016581610141565b92915050565b5f819050919050565b61017d8161016b565b8114610187575f80fd5b50565b5f8135905061019881610174565b92915050565b5f8115159050919050565b6101b28161019e565b81146101bc575f80fd5b50565b5f813590506101cd816101a9565b92915050565b5f805f805f8060c087890312156101ed576101ec61010d565b5b5f6101fa89828a01610157565b965050602061020b89828a0161018a565b955050604061021c89828a0161018a565b945050606061022d89828a0161018a565b935050608061023e89828a016101bf565b92505060a061024f89828a016101bf565b9150509295509295509295565b61026581610130565b82525050565b6102748161016b565b82525050565b6102838161019e565b82525050565b60c082015f82015161029d5f85018261025c565b5060208201516102b0602085018261026b565b5060408201516102c3604085018261026b565b5060608201516102d6606085018261026b565b5060808201516102e9608085018261027a565b5060a08201516102fc60a085018261027a565b50505050565b5f60c0820190506103155f830184610289565b9291505056fea264697066735822122068a1b1bd852723f289a8d3fd29e4faaee36a223de53fa51c051f0a8dbf2af38664736f6c63430008180033",
					"opcodes": "PUSH2 0x351 PUSH2 0x4E PUSH1 0xB DUP3 DUP3 DUP3 CODECOPY DUP1 MLOAD PUSH0 BYTE PUSH1 0x73 EQ PUSH2 0x42 JUMPI PUSH32 0x4E487B7100000000000000000000000000000000000000000000000000000000 PUSH0 MSTORE PUSH0 PUSH1 0x4 MSTORE PUSH1 0x24 PUSH0 REVERT JUMPDEST ADDRESS PUSH0 MSTORE PUSH1 0x73 DUP2 MSTORE8 DUP3 DUP2 RETURN INVALID PUSH20 0x0 ADDRESS EQ PUSH1 0x80 PUSH1 0x40 MSTORE PUSH1 0x4 CALLDATASIZE LT PUSH2 0x34 JUMPI PUSH0 CALLDATALOAD PUSH1 0xE0 SHR DUP1 PUSH4 0x15533AA3 EQ PUSH2 0x38 JUMPI JUMPDEST PUSH0 DUP1 REVERT JUMPDEST PUSH2 0x52 PUSH1 0x4 DUP1 CALLDATASIZE SUB DUP2 ADD SWAP1 PUSH2 0x4D SWAP2 SWAP1 PUSH2 0x1D3 JUMP JUMPDEST PUSH2 0x68 JUMP JUMPDEST PUSH1 0x40 MLOAD PUSH2 0x5F SWAP2 SWAP1 PUSH2 0x302 JUMP JUMPDEST PUSH1 0x40 MLOAD DUP1 SWAP2 SUB SWAP1 RETURN JUMPDEST PUSH2 0x70 PUSH2 0xC3 JUMP JUMPDEST PUSH1 0x40 MLOAD DUP1 PUSH1 0xC0 ADD PUSH1 0x40 MSTORE DUP1 DUP9 PUSH20 0xFFFFFFFFFFFFFFFFFFFFFFFFFFFFFFFFFFFFFFFF AND DUP2 MSTORE PUSH1 0x20 ADD DUP8 DUP2 MSTORE PUSH1 0x20 ADD DUP7 DUP2 MSTORE PUSH1 0x20 ADD DUP6 DUP2 MSTORE PUSH1 0x20 ADD DUP5 ISZERO ISZERO DUP2 MSTORE PUSH1 0x20 ADD DUP4 ISZERO ISZERO DUP2 MSTORE POP SWAP1 POP SWAP7 SWAP6 POP POP POP POP POP POP JUMP JUMPDEST PUSH1 0x40 MLOAD DUP1 PUSH1 0xC0 ADD PUSH1 0x40 MSTORE DUP1 PUSH0 PUSH20 0xFFFFFFFFFFFFFFFFFFFFFFFFFFFFFFFFFFFFFFFF AND DUP2 MSTORE PUSH1 0x20 ADD PUSH0 DUP2 MSTORE PUSH1 0x20 ADD PUSH0 DUP2 MSTORE PUSH1 0x20 ADD PUSH0 DUP2 MSTORE PUSH1 0x20 ADD PUSH0 ISZERO ISZERO DUP2 MSTORE PUSH1 0x20 ADD PUSH0 ISZERO ISZERO DUP2 MSTORE POP SWAP1 JUMP JUMPDEST PUSH0 DUP1 REVERT JUMPDEST PUSH0 PUSH20 0xFFFFFFFFFFFFFFFFFFFFFFFFFFFFFFFFFFFFFFFF DUP3 AND SWAP1 POP SWAP2 SWAP1 POP JUMP JUMPDEST PUSH0 PUSH2 0x13A DUP3 PUSH2 0x111 JUMP JUMPDEST SWAP1 POP SWAP2 SWAP1 POP JUMP JUMPDEST PUSH2 0x14A DUP2 PUSH2 0x130 JUMP JUMPDEST DUP2 EQ PUSH2 0x154 JUMPI PUSH0 DUP1 REVERT JUMPDEST POP JUMP JUMPDEST PUSH0 DUP2 CALLDATALOAD SWAP1 POP PUSH2 0x165 DUP2 PUSH2 0x141 JUMP JUMPDEST SWAP3 SWAP2 POP POP JUMP JUMPDEST PUSH0 DUP2 SWAP1 POP SWAP2 SWAP1 POP JUMP JUMPDEST PUSH2 0x17D DUP2 PUSH2 0x16B JUMP JUMPDEST DUP2 EQ PUSH2 0x187 JUMPI PUSH0 DUP1 REVERT JUMPDEST POP JUMP JUMPDEST PUSH0 DUP2 CALLDATALOAD SWAP1 POP PUSH2 0x198 DUP2 PUSH2 0x174 JUMP JUMPDEST SWAP3 SWAP2 POP POP JUMP JUMPDEST PUSH0 DUP2 ISZERO ISZERO SWAP1 POP SWAP2 SWAP1 POP JUMP JUMPDEST PUSH2 0x1B2 DUP2 PUSH2 0x19E JUMP JUMPDEST DUP2 EQ PUSH2 0x1BC JUMPI PUSH0 DUP1 REVERT JUMPDEST POP JUMP JUMPDEST PUSH0 DUP2 CALLDATALOAD SWAP1 POP PUSH2 0x1CD DUP2 PUSH2 0x1A9 JUMP JUMPDEST SWAP3 SWAP2 POP POP JUMP JUMPDEST PUSH0 DUP1 PUSH0 DUP1 PUSH0 DUP1 PUSH1 0xC0 DUP8 DUP10 SUB SLT ISZERO PUSH2 0x1ED JUMPI PUSH2 0x1EC PUSH2 0x10D JUMP JUMPDEST JUMPDEST PUSH0 PUSH2 0x1FA DUP10 DUP3 DUP11 ADD PUSH2 0x157 JUMP JUMPDEST SWAP7 POP POP PUSH1 0x20 PUSH2 0x20B DUP10 DUP3 DUP11 ADD PUSH2 0x18A JUMP JUMPDEST SWAP6 POP POP PUSH1 0x40 PUSH2 0x21C DUP10 DUP3 DUP11 ADD PUSH2 0x18A JUMP JUMPDEST SWAP5 POP POP PUSH1 0x60 PUSH2 0x22D DUP10 DUP3 DUP11 ADD PUSH2 0x18A JUMP JUMPDEST SWAP4 POP POP PUSH1 0x80 PUSH2 0x23E DUP10 DUP3 DUP11 ADD PUSH2 0x1BF JUMP JUMPDEST SWAP3 POP POP PUSH1 0xA0 PUSH2 0x24F DUP10 DUP3 DUP11 ADD PUSH2 0x1BF JUMP JUMPDEST SWAP2 POP POP SWAP3 SWAP6 POP SWAP3 SWAP6 POP SWAP3 SWAP6 JUMP JUMPDEST PUSH2 0x265 DUP2 PUSH2 0x130 JUMP JUMPDEST DUP3 MSTORE POP POP JUMP JUMPDEST PUSH2 0x274 DUP2 PUSH2 0x16B JUMP JUMPDEST DUP3 MSTORE POP POP JUMP JUMPDEST PUSH2 0x283 DUP2 PUSH2 0x19E JUMP JUMPDEST DUP3 MSTORE POP POP JUMP JUMPDEST PUSH1 0xC0 DUP3 ADD PUSH0 DUP3 ADD MLOAD PUSH2 0x29D PUSH0 DUP6 ADD DUP3 PUSH2 0x25C JUMP JUMPDEST POP PUSH1 0x20 DUP3 ADD MLOAD PUSH2 0x2B0 PUSH1 0x20 DUP6 ADD DUP3 PUSH2 0x26B JUMP JUMPDEST POP PUSH1 0x40 DUP3 ADD MLOAD PUSH2 0x2C3 PUSH1 0x40 DUP6 ADD DUP3 PUSH2 0x26B JUMP JUMPDEST POP PUSH1 0x60 DUP3 ADD MLOAD PUSH2 0x2D6 PUSH1 0x60 DUP6 ADD DUP3 PUSH2 0x26B JUMP JUMPDEST POP PUSH1 0x80 DUP3 ADD MLOAD PUSH2 0x2E9 PUSH1 0x80 DUP6 ADD DUP3 PUSH2 0x27A JUMP JUMPDEST POP PUSH1 0xA0 DUP3 ADD MLOAD PUSH2 0x2FC PUSH1 0xA0 DUP6 ADD DUP3 PUSH2 0x27A JUMP JUMPDEST POP POP POP POP JUMP JUMPDEST PUSH0 PUSH1 0xC0 DUP3 ADD SWAP1 POP PUSH2 0x315 PUSH0 DUP4 ADD DUP5 PUSH2 0x289 JUMP JUMPDEST SWAP3 SWAP2 POP POP JUMP INVALID LOG2 PUSH5 0x6970667358 0x22 SLT KECCAK256 PUSH9 0xA1B1BD852723F289A8 0xD3 REVERT 0x29 0xE4 STATICCALL 0xAE 0xE3 PUSH11 0x223DE53FA51C051F0A8DBF 0x2A RETURN DUP7 PUSH5 0x736F6C6343 STOP ADDMOD XOR STOP CALLER "
				},
				"gasEstimates": {
					"creation": {
						"codeDepositCost": "169800",
						"executionCost": "237",
						"totalCost": "170037"
					},
					"external": {
						"createCreditor(address,uint256,uint256,uint256,bool,bool)": "infinite"
					},
					"internal": {
						"getCreditorAddress(struct ModelLibrary.Creditor storage pointer)": "infinite",
						"getDebtAmount(struct ModelLibrary.Creditor storage pointer)": "infinite",
						"getGetAlreadyFromdebtFund(struct ModelLibrary.Creditor storage pointer)": "infinite",
						"getInterest(struct ModelLibrary.Creditor storage pointer)": "infinite",
						"getTimeOfDebt(struct ModelLibrary.Creditor storage pointer)": "infinite",
						"setDebtAmount(struct ModelLibrary.Creditor storage pointer,uint256)": "infinite",
						"setGetAlreadyFromDebtFund(struct ModelLibrary.Creditor storage pointer)": "infinite",
						"setTimeOfDebt(struct ModelLibrary.Creditor storage pointer,uint256)": "infinite",
						"setValidation(struct ModelLibrary.Creditor storage pointer)": "infinite"
					}
				},
				"methodIdentifiers": {
					"createCreditor(address,uint256,uint256,uint256,bool,bool)": "15533aa3"
				}
			},
			"storageLayout": {
				"storage": [],
				"types": null
			},
			"userdoc": {
				"kind": "user",
				"methods": {},
				"version": 1
			}
		}
	}
}