{
	"contracts/MiningContract.sol": {
		"MiningContract": {
			"abi": [
				{
					"inputs": [
						{
							"internalType": "uint8",
							"name": "exchRate",
							"type": "uint8"
						},
						{
							"internalType": "uint256",
							"name": "maxTok",
							"type": "uint256"
						},
						{
							"internalType": "string",
							"name": "symb",
							"type": "string"
						},
						{
							"internalType": "string",
							"name": "nameGet",
							"type": "string"
						},
						{
							"internalType": "uint256",
							"name": "totalSup",
							"type": "uint256"
						}
					],
					"stateMutability": "nonpayable",
					"type": "constructor"
				},
				{
					"anonymous": false,
					"inputs": [
						{
							"indexed": true,
							"internalType": "address",
							"name": "miner",
							"type": "address"
						},
						{
							"indexed": true,
							"internalType": "uint256",
							"name": "minedBlockNumber",
							"type": "uint256"
						},
						{
							"indexed": true,
							"internalType": "uint256",
							"name": "rewards",
							"type": "uint256"
						}
					],
					"name": "Mined",
					"type": "event"
				},
				{
					"anonymous": false,
					"inputs": [
						{
							"indexed": true,
							"internalType": "uint256",
							"name": "minedBlockNumber",
							"type": "uint256"
						},
						{
							"indexed": true,
							"internalType": "bytes32",
							"name": "blockHash",
							"type": "bytes32"
						},
						{
							"indexed": true,
							"internalType": "string",
							"name": "miningTask",
							"type": "string"
						}
					],
					"name": "MiningRunning",
					"type": "event"
				},
				{
					"inputs": [],
					"name": "blockHash",
					"outputs": [
						{
							"internalType": "bytes32",
							"name": "",
							"type": "bytes32"
						}
					],
					"stateMutability": "view",
					"type": "function"
				},
				{
					"inputs": [],
					"name": "blockNumber",
					"outputs": [
						{
							"internalType": "uint256",
							"name": "",
							"type": "uint256"
						}
					],
					"stateMutability": "view",
					"type": "function"
				},
				{
					"inputs": [],
					"name": "exchangeRate",
					"outputs": [
						{
							"internalType": "uint8",
							"name": "",
							"type": "uint8"
						}
					],
					"stateMutability": "view",
					"type": "function"
				},
				{
					"inputs": [],
					"name": "getMiningTask",
					"outputs": [
						{
							"internalType": "string",
							"name": "",
							"type": "string"
						}
					],
					"stateMutability": "view",
					"type": "function"
				},
				{
					"inputs": [],
					"name": "getRewards",
					"outputs": [
						{
							"internalType": "uint256",
							"name": "",
							"type": "uint256"
						}
					],
					"stateMutability": "view",
					"type": "function"
				},
				{
					"inputs": [],
					"name": "maxTokens",
					"outputs": [
						{
							"internalType": "uint256",
							"name": "",
							"type": "uint256"
						}
					],
					"stateMutability": "view",
					"type": "function"
				},
				{
					"inputs": [
						{
							"internalType": "address",
							"name": "miner",
							"type": "address"
						},
						{
							"internalType": "string",
							"name": "input",
							"type": "string"
						}
					],
					"name": "mineTokens",
					"outputs": [
						{
							"internalType": "bool",
							"name": "",
							"type": "bool"
						},
						{
							"internalType": "bytes32",
							"name": "",
							"type": "bytes32"
						}
					],
					"stateMutability": "nonpayable",
					"type": "function"
				},
				{
					"inputs": [],
					"name": "miningRewards",
					"outputs": [
						{
							"internalType": "uint256",
							"name": "",
							"type": "uint256"
						}
					],
					"stateMutability": "view",
					"type": "function"
				},
				{
					"inputs": [],
					"name": "miningTask",
					"outputs": [
						{
							"internalType": "string",
							"name": "",
							"type": "string"
						}
					],
					"stateMutability": "view",
					"type": "function"
				},
				{
					"inputs": [],
					"name": "name",
					"outputs": [
						{
							"internalType": "string",
							"name": "",
							"type": "string"
						}
					],
					"stateMutability": "view",
					"type": "function"
				},
				{
					"inputs": [],
					"name": "symbol",
					"outputs": [
						{
							"internalType": "string",
							"name": "",
							"type": "string"
						}
					],
					"stateMutability": "view",
					"type": "function"
				},
				{
					"inputs": [],
					"name": "totalSupply",
					"outputs": [
						{
							"internalType": "uint256",
							"name": "",
							"type": "uint256"
						}
					],
					"stateMutability": "view",
					"type": "function"
				}
			],
			"devdoc": {
				"kind": "dev",
				"methods": {},
				"version": 1
			},
			"evm": {
				"assembly": "    /* \"contracts/MiningContract.sol\":555:3963  contract MiningContract {... */\n  mstore(0x40, 0x80)\n    /* \"contracts/MiningContract.sol\":883:884  1 */\n  0x01\n    /* \"contracts/MiningContract.sol\":855:884  uint8 internal rewardRate = 1 */\n  0x07\n  exp(0x0100, 0x00)\n  dup2\n  sload\n  dup2\n  0xff\n  mul\n  not\n  and\n  swap1\n  dup4\n  0xff\n  and\n  mul\n  or\n  swap1\n  sstore\n  pop\n    /* \"contracts/MiningContract.sol\":982:983  0 */\n  0x00\n    /* \"contracts/MiningContract.sol\":961:983  uint8 PREFIXLENGTH = 0 */\n  0x0a\n  exp(0x0100, 0x00)\n  dup2\n  sload\n  dup2\n  0xff\n  mul\n  not\n  and\n  swap1\n  dup4\n  0xff\n  and\n  mul\n  or\n  swap1\n  sstore\n  pop\n    /* \"contracts/MiningContract.sol\":1015:1019  0x90 */\n  0x90\n    /* \"contracts/MiningContract.sol\":990:1019  bytes1 PREFIXHASHVALUE = 0x90 */\n  0xf8\n  shl\n  0x0a\n  exp(0x0100, 0x01)\n  dup2\n  sload\n  dup2\n  0xff\n  mul\n  not\n  and\n  swap1\n  dup4\n  0xf8\n  shr\n  mul\n  or\n  swap1\n  sstore\n  pop\n    /* \"contracts/MiningContract.sol\":1463:2031  constructor(... */\n  callvalue\n  dup1\n  iszero\n  tag_1\n  jumpi\n  0x00\n  dup1\n  revert\ntag_1:\n  pop\n  mload(0x40)\n  sub(codesize, bytecodeSize)\n  dup1\n  bytecodeSize\n  dup4\n  codecopy\n  dup2\n  dup2\n  add\n  0x40\n  mstore\n  dup2\n  add\n  swap1\n  tag_2\n  swap2\n  swap1\n  tag_3\n  jump\t// in\ntag_2:\n    /* \"contracts/MiningContract.sol\":1645:1657  block.number */\n  number\n    /* \"contracts/MiningContract.sol\":1631:1642  blockNumber */\n  0x05\n    /* \"contracts/MiningContract.sol\":1631:1657  blockNumber = block.number */\n  dup2\n  swap1\n  sstore\n  pop\n    /* \"contracts/MiningContract.sol\":1690:1701  blockNumber */\n  sload(0x05)\n    /* \"contracts/MiningContract.sol\":1680:1702  blockhash(blockNumber) */\n  blockhash\n    /* \"contracts/MiningContract.sol\":1668:1677  blockHash */\n  0x06\n    /* \"contracts/MiningContract.sol\":1668:1702  blockHash = blockhash(blockNumber) */\n  dup2\n  swap1\n  sstore\n  pop\n    /* \"contracts/MiningContract.sol\":1728:1736  exchRate */\n  dup5\n    /* \"contracts/MiningContract.sol\":1713:1725  exchangeRate */\n  0x04\n  0x00\n    /* \"contracts/MiningContract.sol\":1713:1736  exchangeRate = exchRate */\n  0x0100\n  exp\n  dup2\n  sload\n  dup2\n  0xff\n  mul\n  not\n  and\n  swap1\n  dup4\n  0xff\n  and\n  mul\n  or\n  swap1\n  sstore\n  pop\n    /* \"contracts/MiningContract.sol\":1759:1765  maxTok */\n  dup4\n    /* \"contracts/MiningContract.sol\":1747:1756  maxTokens */\n  0x00\n    /* \"contracts/MiningContract.sol\":1747:1765  maxTokens = maxTok */\n  dup2\n  swap1\n  sstore\n  pop\n    /* \"contracts/MiningContract.sol\":1785:1789  symb */\n  dup3\n    /* \"contracts/MiningContract.sol\":1776:1782  symbol */\n  0x02\n    /* \"contracts/MiningContract.sol\":1776:1789  symbol = symb */\n  swap1\n  dup2\n  tag_6\n  swap2\n  swap1\n  tag_7\n  jump\t// in\ntag_6:\n  pop\n    /* \"contracts/MiningContract.sol\":1808:1815  nameGet */\n  dup2\n    /* \"contracts/MiningContract.sol\":1801:1805  name */\n  0x03\n    /* \"contracts/MiningContract.sol\":1801:1815  name = nameGet */\n  swap1\n  dup2\n  tag_8\n  swap2\n  swap1\n  tag_7\n  jump\t// in\ntag_8:\n  pop\n    /* \"contracts/MiningContract.sol\":1841:1849  totalSup */\n  dup1\n    /* \"contracts/MiningContract.sol\":1827:1838  totalSupply */\n  0x01\n    /* \"contracts/MiningContract.sol\":1827:1849  totalSupply = totalSup */\n  dup2\n  swap1\n  sstore\n  pop\n    /* \"contracts/MiningContract.sol\":1873:1894  calculateMiningTask() */\n  tag_9\n    /* \"contracts/MiningContract.sol\":1873:1892  calculateMiningTask */\n  shl(0x20, tag_10)\n    /* \"contracts/MiningContract.sol\":1873:1894  calculateMiningTask() */\n  0x20\n  shr\n  jump\t// in\ntag_9:\n    /* \"contracts/MiningContract.sol\":1860:1870  miningTask */\n  0x08\n    /* \"contracts/MiningContract.sol\":1860:1894  miningTask = calculateMiningTask() */\n  swap1\n  dup2\n  tag_11\n  swap2\n  swap1\n  tag_7\n  jump\t// in\ntag_11:\n  pop\n    /* \"contracts/MiningContract.sol\":1923:1958  calculateMiningRewards(totalSupply) */\n  tag_12\n    /* \"contracts/MiningContract.sol\":1946:1957  totalSupply */\n  sload(0x01)\n    /* \"contracts/MiningContract.sol\":1923:1945  calculateMiningRewards */\n  shl(0x20, tag_13)\n    /* \"contracts/MiningContract.sol\":1923:1958  calculateMiningRewards(totalSupply) */\n  0x20\n  shr\n  jump\t// in\ntag_12:\n    /* \"contracts/MiningContract.sol\":1907:1920  miningRewards */\n  0x09\n    /* \"contracts/MiningContract.sol\":1907:1958  miningRewards = calculateMiningRewards(totalSupply) */\n  dup2\n  swap1\n  sstore\n  pop\n    /* \"contracts/MiningContract.sol\":2012:2022  miningTask */\n  0x08\n    /* \"contracts/MiningContract.sol\":1974:2023  MiningRunning(blockNumber, blockHash, miningTask) */\n  mload(0x40)\n  tag_14\n  swap2\n  swap1\n  tag_15\n  jump\t// in\ntag_14:\n  mload(0x40)\n  dup1\n  swap2\n  sub\n  swap1\n  keccak256\n    /* \"contracts/MiningContract.sol\":2001:2010  blockHash */\n  sload(0x06)\n    /* \"contracts/MiningContract.sol\":1988:1999  blockNumber */\n  sload(0x05)\n    /* \"contracts/MiningContract.sol\":1974:2023  MiningRunning(blockNumber, blockHash, miningTask) */\n  0x9f4da1eb02e98b4ab1d9b713f225d0f993b2222a21852024e9d90204be64706a\n  mload(0x40)\n  mload(0x40)\n  dup1\n  swap2\n  sub\n  swap1\n  log4\n    /* \"contracts/MiningContract.sol\":1463:2031  constructor(... */\n  pop\n  pop\n  pop\n  pop\n  pop\n    /* \"contracts/MiningContract.sol\":555:3963  contract MiningContract {... */\n  jump(tag_16)\n    /* \"contracts/MiningContract.sol\":2249:3071  function calculateMiningTask()... */\ntag_10:\n    /* \"contracts/MiningContract.sol\":2329:2357  string memory calculatedTask */\n  0x60\n    /* \"contracts/MiningContract.sol\":2375:2395  uint256 newMaxTokens */\n  0x00\n    /* \"contracts/MiningContract.sol\":2412:2425  miningRewards */\n  sload(0x09)\n    /* \"contracts/MiningContract.sol\":2398:2409  totalSupply */\n  sload(0x01)\n    /* \"contracts/MiningContract.sol\":2398:2425  totalSupply + miningRewards */\n  tag_18\n  swap2\n  swap1\n  tag_19\n  jump\t// in\ntag_18:\n    /* \"contracts/MiningContract.sol\":2375:2425  uint256 newMaxTokens = totalSupply + miningRewards */\n  swap1\n  pop\n    /* \"contracts/MiningContract.sol\":2457:2469  newMaxTokens */\n  dup1\n    /* \"contracts/MiningContract.sol\":2444:2453  maxTokens */\n  sload(0x00)\n    /* \"contracts/MiningContract.sol\":2444:2469  maxTokens >= newMaxTokens */\n  lt\n  iszero\n    /* \"contracts/MiningContract.sol\":2436:2502  require(maxTokens >= newMaxTokens, \"Not enough tokens available.\") */\n  tag_20\n  jumpi\n  mload(0x40)\n  0x08c379a000000000000000000000000000000000000000000000000000000000\n  dup2\n  mstore\n  0x04\n  add\n  tag_21\n  swap1\n  tag_22\n  jump\t// in\ntag_21:\n  mload(0x40)\n  dup1\n  swap2\n  sub\n  swap1\n  revert\ntag_20:\n    /* \"contracts/MiningContract.sol\":2607:2636  string memory stringMaxTokens */\n  0x00\n    /* \"contracts/MiningContract.sol\":2639:2666  Strings.toString(maxTokens) */\n  tag_23\n    /* \"contracts/MiningContract.sol\":2656:2665  maxTokens */\n  sload(0x00)\n    /* \"contracts/MiningContract.sol\":2639:2655  Strings.toString */\n  shl(0x20, tag_24)\n    /* \"contracts/MiningContract.sol\":2639:2666  Strings.toString(maxTokens) */\n  0x20\n  shr\n  jump\t// in\ntag_23:\n    /* \"contracts/MiningContract.sol\":2607:2666  string memory stringMaxTokens = Strings.toString(maxTokens) */\n  swap1\n  pop\n    /* \"contracts/MiningContract.sol\":2677:2708  string memory stringTotalSupply */\n  0x00\n    /* \"contracts/MiningContract.sol\":2711:2740  Strings.toString(totalSupply) */\n  tag_25\n    /* \"contracts/MiningContract.sol\":2728:2739  totalSupply */\n  sload(0x01)\n    /* \"contracts/MiningContract.sol\":2711:2727  Strings.toString */\n  shl(0x20, tag_24)\n    /* \"contracts/MiningContract.sol\":2711:2740  Strings.toString(totalSupply) */\n  0x20\n  shr\n  jump\t// in\ntag_25:\n    /* \"contracts/MiningContract.sol\":2677:2740  string memory stringTotalSupply = Strings.toString(totalSupply) */\n  swap1\n  pop\n    /* \"contracts/MiningContract.sol\":2751:2775  string memory stringName */\n  0x00\n    /* \"contracts/MiningContract.sol\":2778:2782  name */\n  0x03\n    /* \"contracts/MiningContract.sol\":2751:2782  string memory stringName = name */\n  dup1\n  sload\n  tag_26\n  swap1\n  tag_27\n  jump\t// in\ntag_26:\n  dup1\n  0x1f\n  add\n  0x20\n  dup1\n  swap2\n  div\n  mul\n  0x20\n  add\n  mload(0x40)\n  swap1\n  dup2\n  add\n  0x40\n  mstore\n  dup1\n  swap3\n  swap2\n  swap1\n  dup2\n  dup2\n  mstore\n  0x20\n  add\n  dup3\n  dup1\n  sload\n  tag_28\n  swap1\n  tag_27\n  jump\t// in\ntag_28:\n  dup1\n  iszero\n  tag_29\n  jumpi\n  dup1\n  0x1f\n  lt\n  tag_30\n  jumpi\n  0x0100\n  dup1\n  dup4\n  sload\n  div\n  mul\n  dup4\n  mstore\n  swap2\n  0x20\n  add\n  swap2\n  jump(tag_29)\ntag_30:\n  dup3\n  add\n  swap2\n  swap1\n  0x00\n  mstore\n  keccak256(0x00, 0x20)\n  swap1\ntag_31:\n  dup2\n  sload\n  dup2\n  mstore\n  swap1\n  0x01\n  add\n  swap1\n  0x20\n  add\n  dup1\n  dup4\n  gt\n  tag_31\n  jumpi\n  dup3\n  swap1\n  sub\n  0x1f\n  and\n  dup3\n  add\n  swap2\ntag_29:\n  pop\n  pop\n  pop\n  pop\n  pop\n  swap1\n  pop\n    /* \"contracts/MiningContract.sol\":2793:2822  string memory stringBlockHash */\n  0x00\n    /* \"contracts/MiningContract.sol\":2849:2858  blockHash */\n  sload(0x06)\n    /* \"contracts/MiningContract.sol\":2832:2859  abi.encodePacked(blockHash) */\n  add(0x20, mload(0x40))\n  tag_32\n  swap2\n  swap1\n  tag_33\n  jump\t// in\ntag_32:\n  mload(0x40)\n  0x20\n  dup2\n  dup4\n  sub\n  sub\n  dup2\n  mstore\n  swap1\n  0x40\n  mstore\n    /* \"contracts/MiningContract.sol\":2793:2860  string memory stringBlockHash = string(abi.encodePacked(blockHash)) */\n  swap1\n  pop\n    /* \"contracts/MiningContract.sol\":2871:2893  string memory calcTask */\n  0x00\n    /* \"contracts/MiningContract.sol\":2924:2934  stringName */\n  dup3\n    /* \"contracts/MiningContract.sol\":2949:2964  stringMaxTokens */\n  dup6\n    /* \"contracts/MiningContract.sol\":2979:2996  stringTotalSupply */\n  dup6\n    /* \"contracts/MiningContract.sol\":3011:3026  stringBlockHash */\n  dup5\n    /* \"contracts/MiningContract.sol\":2896:3037  string.concat(... */\n  add(0x20, mload(0x40))\n  tag_34\n  swap5\n  swap4\n  swap3\n  swap2\n  swap1\n  tag_35\n  jump\t// in\ntag_34:\n  mload(0x40)\n  0x20\n  dup2\n  dup4\n  sub\n  sub\n  dup2\n  mstore\n  swap1\n  0x40\n  mstore\n    /* \"contracts/MiningContract.sol\":2871:3037  string memory calcTask = string.concat(... */\n  swap1\n  pop\n    /* \"contracts/MiningContract.sol\":3055:3063  calcTask */\n  dup1\n    /* \"contracts/MiningContract.sol\":3048:3063  return calcTask */\n  swap7\n  pop\n  pop\n  pop\n  pop\n  pop\n  pop\n  pop\n    /* \"contracts/MiningContract.sol\":2249:3071  function calculateMiningTask()... */\n  swap1\n  jump\t// out\n    /* \"contracts/MiningContract.sol\":2039:2241  function calculateMiningRewards(uint256 totalSup)view ... */\ntag_13:\n    /* \"contracts/MiningContract.sol\":2129:2136  uint256 */\n  0x00\n    /* \"contracts/MiningContract.sol\":2154:2169  uint256 rewards */\n  dup1\n    /* \"contracts/MiningContract.sol\":2172:2208  Math.ceilDiv(totalSup, exchangeRate) */\n  tag_37\n    /* \"contracts/MiningContract.sol\":2185:2193  totalSup */\n  dup4\n    /* \"contracts/MiningContract.sol\":2195:2207  exchangeRate */\n  0x04\n  0x00\n  swap1\n  sload\n  swap1\n  0x0100\n  exp\n  swap1\n  div\n  0xff\n  and\n    /* \"contracts/MiningContract.sol\":2172:2208  Math.ceilDiv(totalSup, exchangeRate) */\n  0xff\n  and\n    /* \"contracts/MiningContract.sol\":2172:2184  Math.ceilDiv */\n  shl(0x20, tag_38)\n    /* \"contracts/MiningContract.sol\":2172:2208  Math.ceilDiv(totalSup, exchangeRate) */\n  0x20\n  shr\n  jump\t// in\ntag_37:\n    /* \"contracts/MiningContract.sol\":2154:2208  uint256 rewards = Math.ceilDiv(totalSup, exchangeRate) */\n  swap1\n  pop\n    /* \"contracts/MiningContract.sol\":2226:2233  rewards */\n  dup1\n    /* \"contracts/MiningContract.sol\":2219:2233  return rewards */\n  swap2\n  pop\n  pop\n    /* \"contracts/MiningContract.sol\":2039:2241  function calculateMiningRewards(uint256 totalSup)view ... */\n  swap2\n  swap1\n  pop\n  jump\t// out\n    /* \"@openzeppelin/contracts/utils/Strings.sol\":637:1335  function toString(uint256 value) internal pure returns (string memory) {... */\ntag_24:\n    /* \"@openzeppelin/contracts/utils/Strings.sol\":693:706  string memory */\n  0x60\n    /* \"@openzeppelin/contracts/utils/Strings.sol\":742:756  uint256 length */\n  0x00\n    /* \"@openzeppelin/contracts/utils/Strings.sol\":779:780  1 */\n  0x01\n    /* \"@openzeppelin/contracts/utils/Strings.sol\":759:776  Math.log10(value) */\n  tag_40\n    /* \"@openzeppelin/contracts/utils/Strings.sol\":770:775  value */\n  dup5\n    /* \"@openzeppelin/contracts/utils/Strings.sol\":759:769  Math.log10 */\n  shl(0x20, tag_41)\n    /* \"@openzeppelin/contracts/utils/Strings.sol\":759:776  Math.log10(value) */\n  0x20\n  shr\n  jump\t// in\ntag_40:\n    /* \"@openzeppelin/contracts/utils/Strings.sol\":759:780  Math.log10(value) + 1 */\n  add\n    /* \"@openzeppelin/contracts/utils/Strings.sol\":742:780  uint256 length = Math.log10(value) + 1 */\n  swap1\n  pop\n    /* \"@openzeppelin/contracts/utils/Strings.sol\":794:814  string memory buffer */\n  0x00\n    /* \"@openzeppelin/contracts/utils/Strings.sol\":828:834  length */\n  dup2\n    /* \"@openzeppelin/contracts/utils/Strings.sol\":817:835  new string(length) */\n  0xffffffffffffffff\n  dup2\n  gt\n  iszero\n  tag_42\n  jumpi\n  tag_43\n  tag_44\n  jump\t// in\ntag_43:\ntag_42:\n  mload(0x40)\n  swap1\n  dup1\n  dup3\n  mstore\n  dup1\n  0x1f\n  add\n  not(0x1f)\n  and\n  0x20\n  add\n  dup3\n  add\n  0x40\n  mstore\n  dup1\n  iszero\n  tag_45\n  jumpi\n  dup2\n  0x20\n  add\n  0x01\n  dup3\n  mul\n  dup1\n  calldatasize\n  dup4\n  calldatacopy\n  dup1\n  dup3\n  add\n  swap2\n  pop\n  pop\n  swap1\n  pop\ntag_45:\n  pop\n    /* \"@openzeppelin/contracts/utils/Strings.sol\":794:835  string memory buffer = new string(length) */\n  swap1\n  pop\n    /* \"@openzeppelin/contracts/utils/Strings.sol\":849:860  uint256 ptr */\n  0x00\n    /* \"@openzeppelin/contracts/utils/Strings.sol\":975:981  length */\n  dup3\n    /* \"@openzeppelin/contracts/utils/Strings.sol\":971:973  32 */\n  0x20\n    /* \"@openzeppelin/contracts/utils/Strings.sol\":967:982  add(32, length) */\n  add\n    /* \"@openzeppelin/contracts/utils/Strings.sol\":959:965  buffer */\n  dup3\n    /* \"@openzeppelin/contracts/utils/Strings.sol\":955:983  add(buffer, add(32, length)) */\n  add\n    /* \"@openzeppelin/contracts/utils/Strings.sol\":948:983  ptr := add(buffer, add(32, length)) */\n  swap1\n  pop\n    /* \"@openzeppelin/contracts/utils/Strings.sol\":1010:1292  while (true) {... */\ntag_46:\n    /* \"@openzeppelin/contracts/utils/Strings.sol\":1017:1021  true */\n  0x01\n    /* \"@openzeppelin/contracts/utils/Strings.sol\":1010:1292  while (true) {... */\n  iszero\n  tag_47\n  jumpi\n    /* \"@openzeppelin/contracts/utils/Strings.sol\":1041:1046  ptr-- */\n  dup1\n  dup1\n  0x01\n  swap1\n  sub\n  swap2\n  pop\n  pop\n    /* \"@openzeppelin/contracts/utils/Strings.sol\":1180:1190  HEX_DIGITS */\n  0x3031323334353637383961626364656600000000000000000000000000000000\n    /* \"@openzeppelin/contracts/utils/Strings.sol\":1175:1177  10 */\n  0x0a\n    /* \"@openzeppelin/contracts/utils/Strings.sol\":1168:1173  value */\n  dup7\n    /* \"@openzeppelin/contracts/utils/Strings.sol\":1164:1178  mod(value, 10) */\n  mod\n    /* \"@openzeppelin/contracts/utils/Strings.sol\":1159:1191  byte(mod(value, 10), HEX_DIGITS) */\n  byte\n    /* \"@openzeppelin/contracts/utils/Strings.sol\":1154:1157  ptr */\n  dup2\n    /* \"@openzeppelin/contracts/utils/Strings.sol\":1146:1192  mstore8(ptr, byte(mod(value, 10), HEX_DIGITS)) */\n  mstore8\n    /* \"@openzeppelin/contracts/utils/Strings.sol\":1236:1238  10 */\n  0x0a\n    /* \"@openzeppelin/contracts/utils/Strings.sol\":1227:1238  value /= 10 */\n  dup6\n  dup2\n  tag_48\n  jumpi\n  tag_49\n  tag_50\n  jump\t// in\ntag_49:\ntag_48:\n  div\n  swap5\n  pop\n    /* \"@openzeppelin/contracts/utils/Strings.sol\":1269:1270  0 */\n  0x00\n    /* \"@openzeppelin/contracts/utils/Strings.sol\":1260:1265  value */\n  dup6\n    /* \"@openzeppelin/contracts/utils/Strings.sol\":1260:1270  value == 0 */\n  sub\n    /* \"@openzeppelin/contracts/utils/Strings.sol\":1010:1292  while (true) {... */\n  tag_46\n    /* \"@openzeppelin/contracts/utils/Strings.sol\":1256:1277  if (value == 0) break */\n  jumpi\n    /* \"@openzeppelin/contracts/utils/Strings.sol\":1010:1292  while (true) {... */\ntag_47:\n    /* \"@openzeppelin/contracts/utils/Strings.sol\":1312:1318  buffer */\n  dup2\n    /* \"@openzeppelin/contracts/utils/Strings.sol\":1305:1318  return buffer */\n  swap4\n  pop\n  pop\n  pop\n  pop\n    /* \"@openzeppelin/contracts/utils/Strings.sol\":637:1335  function toString(uint256 value) internal pure returns (string memory) {... */\n  swap2\n  swap1\n  pop\n  jump\t// out\n    /* \"@openzeppelin/contracts/utils/math/Math.sol\":3148:3479  function ceilDiv(uint256 a, uint256 b) internal pure returns (uint256) {... */\ntag_38:\n    /* \"@openzeppelin/contracts/utils/math/Math.sol\":3210:3217  uint256 */\n  0x00\n    /* \"@openzeppelin/contracts/utils/math/Math.sol\":3238:3239  0 */\n  dup1\n    /* \"@openzeppelin/contracts/utils/math/Math.sol\":3233:3234  b */\n  dup3\n    /* \"@openzeppelin/contracts/utils/math/Math.sol\":3233:3239  b == 0 */\n  sub\n    /* \"@openzeppelin/contracts/utils/math/Math.sol\":3229:3356  if (b == 0) {... */\n  tag_53\n  jumpi\n    /* \"@openzeppelin/contracts/utils/math/Math.sol\":3344:3345  b */\n  dup2\n    /* \"@openzeppelin/contracts/utils/math/Math.sol\":3340:3341  a */\n  dup4\n    /* \"@openzeppelin/contracts/utils/math/Math.sol\":3340:3345  a / b */\n  tag_54\n  swap2\n  swap1\n  tag_55\n  jump\t// in\ntag_54:\n    /* \"@openzeppelin/contracts/utils/math/Math.sol\":3333:3345  return a / b */\n  swap1\n  pop\n  jump(tag_52)\n    /* \"@openzeppelin/contracts/utils/math/Math.sol\":3229:3356  if (b == 0) {... */\ntag_53:\n    /* \"@openzeppelin/contracts/utils/math/Math.sol\":3449:3450  0 */\n  0x00\n    /* \"@openzeppelin/contracts/utils/math/Math.sol\":3444:3445  a */\n  dup4\n    /* \"@openzeppelin/contracts/utils/math/Math.sol\":3444:3450  a == 0 */\n  eq\n    /* \"@openzeppelin/contracts/utils/math/Math.sol\":3444:3472  a == 0 ? 0 : (a - 1) / b + 1 */\n  tag_56\n  jumpi\n    /* \"@openzeppelin/contracts/utils/math/Math.sol\":3471:3472  1 */\n  0x01\n    /* \"@openzeppelin/contracts/utils/math/Math.sol\":3467:3468  b */\n  dup3\n    /* \"@openzeppelin/contracts/utils/math/Math.sol\":3462:3463  1 */\n  0x01\n    /* \"@openzeppelin/contracts/utils/math/Math.sol\":3458:3459  a */\n  dup6\n    /* \"@openzeppelin/contracts/utils/math/Math.sol\":3458:3463  a - 1 */\n  tag_57\n  swap2\n  swap1\n  tag_58\n  jump\t// in\ntag_57:\n    /* \"@openzeppelin/contracts/utils/math/Math.sol\":3457:3468  (a - 1) / b */\n  tag_59\n  swap2\n  swap1\n  tag_55\n  jump\t// in\ntag_59:\n    /* \"@openzeppelin/contracts/utils/math/Math.sol\":3457:3472  (a - 1) / b + 1 */\n  tag_60\n  swap2\n  swap1\n  tag_19\n  jump\t// in\ntag_60:\n    /* \"@openzeppelin/contracts/utils/math/Math.sol\":3444:3472  a == 0 ? 0 : (a - 1) / b + 1 */\n  jump(tag_61)\ntag_56:\n    /* \"@openzeppelin/contracts/utils/math/Math.sol\":3453:3454  0 */\n  0x00\n    /* \"@openzeppelin/contracts/utils/math/Math.sol\":3444:3472  a == 0 ? 0 : (a - 1) / b + 1 */\ntag_61:\n    /* \"@openzeppelin/contracts/utils/math/Math.sol\":3437:3472  return a == 0 ? 0 : (a - 1) / b + 1 */\n  swap1\n  pop\n    /* \"@openzeppelin/contracts/utils/math/Math.sol\":3148:3479  function ceilDiv(uint256 a, uint256 b) internal pure returns (uint256) {... */\ntag_52:\n  swap3\n  swap2\n  pop\n  pop\n  jump\t// out\n    /* \"@openzeppelin/contracts/utils/math/Math.sol\":12214:13130  function log10(uint256 value) internal pure returns (uint256) {... */\ntag_41:\n    /* \"@openzeppelin/contracts/utils/math/Math.sol\":12267:12274  uint256 */\n  0x00\n    /* \"@openzeppelin/contracts/utils/math/Math.sol\":12286:12300  uint256 result */\n  dup1\n    /* \"@openzeppelin/contracts/utils/math/Math.sol\":12303:12304  0 */\n  0x00\n    /* \"@openzeppelin/contracts/utils/math/Math.sol\":12286:12304  uint256 result = 0 */\n  swap1\n  pop\n    /* \"@openzeppelin/contracts/utils/math/Math.sol\":12351:12359  10 ** 64 */\n  0x184f03e93ff9f4daa797ed6e38ed64bf6a1f010000000000000000\n    /* \"@openzeppelin/contracts/utils/math/Math.sol\":12342:12347  value */\n  dup4\n    /* \"@openzeppelin/contracts/utils/math/Math.sol\":12342:12359  value >= 10 ** 64 */\n  lt\n    /* \"@openzeppelin/contracts/utils/math/Math.sol\":12338:12441  if (value >= 10 ** 64) {... */\n  tag_63\n  jumpi\n    /* \"@openzeppelin/contracts/utils/math/Math.sol\":12388:12396  10 ** 64 */\n  0x184f03e93ff9f4daa797ed6e38ed64bf6a1f010000000000000000\n    /* \"@openzeppelin/contracts/utils/math/Math.sol\":12379:12396  value /= 10 ** 64 */\n  dup4\n  dup2\n  tag_64\n  jumpi\n  tag_65\n  tag_50\n  jump\t// in\ntag_65:\ntag_64:\n  div\n  swap3\n  pop\n    /* \"@openzeppelin/contracts/utils/math/Math.sol\":12424:12426  64 */\n  0x40\n    /* \"@openzeppelin/contracts/utils/math/Math.sol\":12414:12426  result += 64 */\n  dup2\n  add\n  swap1\n  pop\n    /* \"@openzeppelin/contracts/utils/math/Math.sol\":12338:12441  if (value >= 10 ** 64) {... */\ntag_63:\n    /* \"@openzeppelin/contracts/utils/math/Math.sol\":12467:12475  10 ** 32 */\n  0x04ee2d6d415b85acef8100000000\n    /* \"@openzeppelin/contracts/utils/math/Math.sol\":12458:12463  value */\n  dup4\n    /* \"@openzeppelin/contracts/utils/math/Math.sol\":12458:12475  value >= 10 ** 32 */\n  lt\n    /* \"@openzeppelin/contracts/utils/math/Math.sol\":12454:12557  if (value >= 10 ** 32) {... */\n  tag_66\n  jumpi\n    /* \"@openzeppelin/contracts/utils/math/Math.sol\":12504:12512  10 ** 32 */\n  0x04ee2d6d415b85acef8100000000\n    /* \"@openzeppelin/contracts/utils/math/Math.sol\":12495:12512  value /= 10 ** 32 */\n  dup4\n  dup2\n  tag_67\n  jumpi\n  tag_68\n  tag_50\n  jump\t// in\ntag_68:\ntag_67:\n  div\n  swap3\n  pop\n    /* \"@openzeppelin/contracts/utils/math/Math.sol\":12540:12542  32 */\n  0x20\n    /* \"@openzeppelin/contracts/utils/math/Math.sol\":12530:12542  result += 32 */\n  dup2\n  add\n  swap1\n  pop\n    /* \"@openzeppelin/contracts/utils/math/Math.sol\":12454:12557  if (value >= 10 ** 32) {... */\ntag_66:\n    /* \"@openzeppelin/contracts/utils/math/Math.sol\":12583:12591  10 ** 16 */\n  0x2386f26fc10000\n    /* \"@openzeppelin/contracts/utils/math/Math.sol\":12574:12579  value */\n  dup4\n    /* \"@openzeppelin/contracts/utils/math/Math.sol\":12574:12591  value >= 10 ** 16 */\n  lt\n    /* \"@openzeppelin/contracts/utils/math/Math.sol\":12570:12673  if (value >= 10 ** 16) {... */\n  tag_69\n  jumpi\n    /* \"@openzeppelin/contracts/utils/math/Math.sol\":12620:12628  10 ** 16 */\n  0x2386f26fc10000\n    /* \"@openzeppelin/contracts/utils/math/Math.sol\":12611:12628  value /= 10 ** 16 */\n  dup4\n  dup2\n  tag_70\n  jumpi\n  tag_71\n  tag_50\n  jump\t// in\ntag_71:\ntag_70:\n  div\n  swap3\n  pop\n    /* \"@openzeppelin/contracts/utils/math/Math.sol\":12656:12658  16 */\n  0x10\n    /* \"@openzeppelin/contracts/utils/math/Math.sol\":12646:12658  result += 16 */\n  dup2\n  add\n  swap1\n  pop\n    /* \"@openzeppelin/contracts/utils/math/Math.sol\":12570:12673  if (value >= 10 ** 16) {... */\ntag_69:\n    /* \"@openzeppelin/contracts/utils/math/Math.sol\":12699:12706  10 ** 8 */\n  0x05f5e100\n    /* \"@openzeppelin/contracts/utils/math/Math.sol\":12690:12695  value */\n  dup4\n    /* \"@openzeppelin/contracts/utils/math/Math.sol\":12690:12706  value >= 10 ** 8 */\n  lt\n    /* \"@openzeppelin/contracts/utils/math/Math.sol\":12686:12786  if (value >= 10 ** 8) {... */\n  tag_72\n  jumpi\n    /* \"@openzeppelin/contracts/utils/math/Math.sol\":12735:12742  10 ** 8 */\n  0x05f5e100\n    /* \"@openzeppelin/contracts/utils/math/Math.sol\":12726:12742  value /= 10 ** 8 */\n  dup4\n  dup2\n  tag_73\n  jumpi\n  tag_74\n  tag_50\n  jump\t// in\ntag_74:\ntag_73:\n  div\n  swap3\n  pop\n    /* \"@openzeppelin/contracts/utils/math/Math.sol\":12770:12771  8 */\n  0x08\n    /* \"@openzeppelin/contracts/utils/math/Math.sol\":12760:12771  result += 8 */\n  dup2\n  add\n  swap1\n  pop\n    /* \"@openzeppelin/contracts/utils/math/Math.sol\":12686:12786  if (value >= 10 ** 8) {... */\ntag_72:\n    /* \"@openzeppelin/contracts/utils/math/Math.sol\":12812:12819  10 ** 4 */\n  0x2710\n    /* \"@openzeppelin/contracts/utils/math/Math.sol\":12803:12808  value */\n  dup4\n    /* \"@openzeppelin/contracts/utils/math/Math.sol\":12803:12819  value >= 10 ** 4 */\n  lt\n    /* \"@openzeppelin/contracts/utils/math/Math.sol\":12799:12899  if (value >= 10 ** 4) {... */\n  tag_75\n  jumpi\n    /* \"@openzeppelin/contracts/utils/math/Math.sol\":12848:12855  10 ** 4 */\n  0x2710\n    /* \"@openzeppelin/contracts/utils/math/Math.sol\":12839:12855  value /= 10 ** 4 */\n  dup4\n  dup2\n  tag_76\n  jumpi\n  tag_77\n  tag_50\n  jump\t// in\ntag_77:\ntag_76:\n  div\n  swap3\n  pop\n    /* \"@openzeppelin/contracts/utils/math/Math.sol\":12883:12884  4 */\n  0x04\n    /* \"@openzeppelin/contracts/utils/math/Math.sol\":12873:12884  result += 4 */\n  dup2\n  add\n  swap1\n  pop\n    /* \"@openzeppelin/contracts/utils/math/Math.sol\":12799:12899  if (value >= 10 ** 4) {... */\ntag_75:\n    /* \"@openzeppelin/contracts/utils/math/Math.sol\":12925:12932  10 ** 2 */\n  0x64\n    /* \"@openzeppelin/contracts/utils/math/Math.sol\":12916:12921  value */\n  dup4\n    /* \"@openzeppelin/contracts/utils/math/Math.sol\":12916:12932  value >= 10 ** 2 */\n  lt\n    /* \"@openzeppelin/contracts/utils/math/Math.sol\":12912:13012  if (value >= 10 ** 2) {... */\n  tag_78\n  jumpi\n    /* \"@openzeppelin/contracts/utils/math/Math.sol\":12961:12968  10 ** 2 */\n  0x64\n    /* \"@openzeppelin/contracts/utils/math/Math.sol\":12952:12968  value /= 10 ** 2 */\n  dup4\n  dup2\n  tag_79\n  jumpi\n  tag_80\n  tag_50\n  jump\t// in\ntag_80:\ntag_79:\n  div\n  swap3\n  pop\n    /* \"@openzeppelin/contracts/utils/math/Math.sol\":12996:12997  2 */\n  0x02\n    /* \"@openzeppelin/contracts/utils/math/Math.sol\":12986:12997  result += 2 */\n  dup2\n  add\n  swap1\n  pop\n    /* \"@openzeppelin/contracts/utils/math/Math.sol\":12912:13012  if (value >= 10 ** 2) {... */\ntag_78:\n    /* \"@openzeppelin/contracts/utils/math/Math.sol\":13038:13045  10 ** 1 */\n  0x0a\n    /* \"@openzeppelin/contracts/utils/math/Math.sol\":13029:13034  value */\n  dup4\n    /* \"@openzeppelin/contracts/utils/math/Math.sol\":13029:13045  value >= 10 ** 1 */\n  lt\n    /* \"@openzeppelin/contracts/utils/math/Math.sol\":13025:13091  if (value >= 10 ** 1) {... */\n  tag_81\n  jumpi\n    /* \"@openzeppelin/contracts/utils/math/Math.sol\":13075:13076  1 */\n  0x01\n    /* \"@openzeppelin/contracts/utils/math/Math.sol\":13065:13076  result += 1 */\n  dup2\n  add\n  swap1\n  pop\n    /* \"@openzeppelin/contracts/utils/math/Math.sol\":13025:13091  if (value >= 10 ** 1) {... */\ntag_81:\n    /* \"@openzeppelin/contracts/utils/math/Math.sol\":13117:13123  result */\n  dup1\n    /* \"@openzeppelin/contracts/utils/math/Math.sol\":13110:13123  return result */\n  swap2\n  pop\n  pop\n    /* \"@openzeppelin/contracts/utils/math/Math.sol\":12214:13130  function log10(uint256 value) internal pure returns (uint256) {... */\n  swap2\n  swap1\n  pop\n  jump\t// out\n    /* \"#utility.yul\":7:82   */\ntag_82:\n    /* \"#utility.yul\":40:46   */\n  0x00\n    /* \"#utility.yul\":73:75   */\n  0x40\n    /* \"#utility.yul\":67:76   */\n  mload\n    /* \"#utility.yul\":57:76   */\n  swap1\n  pop\n    /* \"#utility.yul\":7:82   */\n  swap1\n  jump\t// out\n    /* \"#utility.yul\":88:205   */\ntag_83:\n    /* \"#utility.yul\":197:198   */\n  0x00\n    /* \"#utility.yul\":194:195   */\n  dup1\n    /* \"#utility.yul\":187:199   */\n  revert\n    /* \"#utility.yul\":211:328   */\ntag_84:\n    /* \"#utility.yul\":320:321   */\n  0x00\n    /* \"#utility.yul\":317:318   */\n  dup1\n    /* \"#utility.yul\":310:322   */\n  revert\n    /* \"#utility.yul\":334:420   */\ntag_85:\n    /* \"#utility.yul\":369:376   */\n  0x00\n    /* \"#utility.yul\":409:413   */\n  0xff\n    /* \"#utility.yul\":402:407   */\n  dup3\n    /* \"#utility.yul\":398:414   */\n  and\n    /* \"#utility.yul\":387:414   */\n  swap1\n  pop\n    /* \"#utility.yul\":334:420   */\n  swap2\n  swap1\n  pop\n  jump\t// out\n    /* \"#utility.yul\":426:544   */\ntag_86:\n    /* \"#utility.yul\":497:519   */\n  tag_133\n    /* \"#utility.yul\":513:518   */\n  dup2\n    /* \"#utility.yul\":497:519   */\n  tag_85\n  jump\t// in\ntag_133:\n    /* \"#utility.yul\":490:495   */\n  dup2\n    /* \"#utility.yul\":487:520   */\n  eq\n    /* \"#utility.yul\":477:538   */\n  tag_134\n  jumpi\n    /* \"#utility.yul\":534:535   */\n  0x00\n    /* \"#utility.yul\":531:532   */\n  dup1\n    /* \"#utility.yul\":524:536   */\n  revert\n    /* \"#utility.yul\":477:538   */\ntag_134:\n    /* \"#utility.yul\":426:544   */\n  pop\n  jump\t// out\n    /* \"#utility.yul\":550:689   */\ntag_87:\n    /* \"#utility.yul\":605:610   */\n  0x00\n    /* \"#utility.yul\":636:642   */\n  dup2\n    /* \"#utility.yul\":630:643   */\n  mload\n    /* \"#utility.yul\":621:643   */\n  swap1\n  pop\n    /* \"#utility.yul\":652:683   */\n  tag_136\n    /* \"#utility.yul\":677:682   */\n  dup2\n    /* \"#utility.yul\":652:683   */\n  tag_86\n  jump\t// in\ntag_136:\n    /* \"#utility.yul\":550:689   */\n  swap3\n  swap2\n  pop\n  pop\n  jump\t// out\n    /* \"#utility.yul\":695:772   */\ntag_88:\n    /* \"#utility.yul\":732:739   */\n  0x00\n    /* \"#utility.yul\":761:766   */\n  dup2\n    /* \"#utility.yul\":750:766   */\n  swap1\n  pop\n    /* \"#utility.yul\":695:772   */\n  swap2\n  swap1\n  pop\n  jump\t// out\n    /* \"#utility.yul\":778:900   */\ntag_89:\n    /* \"#utility.yul\":851:875   */\n  tag_139\n    /* \"#utility.yul\":869:874   */\n  dup2\n    /* \"#utility.yul\":851:875   */\n  tag_88\n  jump\t// in\ntag_139:\n    /* \"#utility.yul\":844:849   */\n  dup2\n    /* \"#utility.yul\":841:876   */\n  eq\n    /* \"#utility.yul\":831:894   */\n  tag_140\n  jumpi\n    /* \"#utility.yul\":890:891   */\n  0x00\n    /* \"#utility.yul\":887:888   */\n  dup1\n    /* \"#utility.yul\":880:892   */\n  revert\n    /* \"#utility.yul\":831:894   */\ntag_140:\n    /* \"#utility.yul\":778:900   */\n  pop\n  jump\t// out\n    /* \"#utility.yul\":906:1049   */\ntag_90:\n    /* \"#utility.yul\":963:968   */\n  0x00\n    /* \"#utility.yul\":994:1000   */\n  dup2\n    /* \"#utility.yul\":988:1001   */\n  mload\n    /* \"#utility.yul\":979:1001   */\n  swap1\n  pop\n    /* \"#utility.yul\":1010:1043   */\n  tag_142\n    /* \"#utility.yul\":1037:1042   */\n  dup2\n    /* \"#utility.yul\":1010:1043   */\n  tag_89\n  jump\t// in\ntag_142:\n    /* \"#utility.yul\":906:1049   */\n  swap3\n  swap2\n  pop\n  pop\n  jump\t// out\n    /* \"#utility.yul\":1055:1172   */\ntag_91:\n    /* \"#utility.yul\":1164:1165   */\n  0x00\n    /* \"#utility.yul\":1161:1162   */\n  dup1\n    /* \"#utility.yul\":1154:1166   */\n  revert\n    /* \"#utility.yul\":1178:1295   */\ntag_92:\n    /* \"#utility.yul\":1287:1288   */\n  0x00\n    /* \"#utility.yul\":1284:1285   */\n  dup1\n    /* \"#utility.yul\":1277:1289   */\n  revert\n    /* \"#utility.yul\":1301:1403   */\ntag_93:\n    /* \"#utility.yul\":1342:1348   */\n  0x00\n    /* \"#utility.yul\":1393:1395   */\n  0x1f\n    /* \"#utility.yul\":1389:1396   */\n  not\n    /* \"#utility.yul\":1384:1386   */\n  0x1f\n    /* \"#utility.yul\":1377:1382   */\n  dup4\n    /* \"#utility.yul\":1373:1387   */\n  add\n    /* \"#utility.yul\":1369:1397   */\n  and\n    /* \"#utility.yul\":1359:1397   */\n  swap1\n  pop\n    /* \"#utility.yul\":1301:1403   */\n  swap2\n  swap1\n  pop\n  jump\t// out\n    /* \"#utility.yul\":1409:1589   */\ntag_44:\n    /* \"#utility.yul\":1457:1534   */\n  0x4e487b7100000000000000000000000000000000000000000000000000000000\n    /* \"#utility.yul\":1454:1455   */\n  0x00\n    /* \"#utility.yul\":1447:1535   */\n  mstore\n    /* \"#utility.yul\":1554:1558   */\n  0x41\n    /* \"#utility.yul\":1551:1552   */\n  0x04\n    /* \"#utility.yul\":1544:1559   */\n  mstore\n    /* \"#utility.yul\":1578:1582   */\n  0x24\n    /* \"#utility.yul\":1575:1576   */\n  0x00\n    /* \"#utility.yul\":1568:1583   */\n  revert\n    /* \"#utility.yul\":1595:1876   */\ntag_94:\n    /* \"#utility.yul\":1678:1705   */\n  tag_148\n    /* \"#utility.yul\":1700:1704   */\n  dup3\n    /* \"#utility.yul\":1678:1705   */\n  tag_93\n  jump\t// in\ntag_148:\n    /* \"#utility.yul\":1670:1676   */\n  dup2\n    /* \"#utility.yul\":1666:1706   */\n  add\n    /* \"#utility.yul\":1808:1814   */\n  dup2\n    /* \"#utility.yul\":1796:1806   */\n  dup2\n    /* \"#utility.yul\":1793:1815   */\n  lt\n    /* \"#utility.yul\":1772:1790   */\n  0xffffffffffffffff\n    /* \"#utility.yul\":1760:1770   */\n  dup3\n    /* \"#utility.yul\":1757:1791   */\n  gt\n    /* \"#utility.yul\":1754:1816   */\n  or\n    /* \"#utility.yul\":1751:1839   */\n  iszero\n  tag_149\n  jumpi\n    /* \"#utility.yul\":1819:1837   */\n  tag_150\n  tag_44\n  jump\t// in\ntag_150:\n    /* \"#utility.yul\":1751:1839   */\ntag_149:\n    /* \"#utility.yul\":1859:1869   */\n  dup1\n    /* \"#utility.yul\":1855:1857   */\n  0x40\n    /* \"#utility.yul\":1848:1870   */\n  mstore\n    /* \"#utility.yul\":1638:1876   */\n  pop\n    /* \"#utility.yul\":1595:1876   */\n  pop\n  pop\n  jump\t// out\n    /* \"#utility.yul\":1882:2011   */\ntag_95:\n    /* \"#utility.yul\":1916:1922   */\n  0x00\n    /* \"#utility.yul\":1943:1963   */\n  tag_152\n  tag_82\n  jump\t// in\ntag_152:\n    /* \"#utility.yul\":1933:1963   */\n  swap1\n  pop\n    /* \"#utility.yul\":1972:2005   */\n  tag_153\n    /* \"#utility.yul\":2000:2004   */\n  dup3\n    /* \"#utility.yul\":1992:1998   */\n  dup3\n    /* \"#utility.yul\":1972:2005   */\n  tag_94\n  jump\t// in\ntag_153:\n    /* \"#utility.yul\":1882:2011   */\n  swap2\n  swap1\n  pop\n  jump\t// out\n    /* \"#utility.yul\":2017:2325   */\ntag_96:\n    /* \"#utility.yul\":2079:2083   */\n  0x00\n    /* \"#utility.yul\":2169:2187   */\n  0xffffffffffffffff\n    /* \"#utility.yul\":2161:2167   */\n  dup3\n    /* \"#utility.yul\":2158:2188   */\n  gt\n    /* \"#utility.yul\":2155:2211   */\n  iszero\n  tag_155\n  jumpi\n    /* \"#utility.yul\":2191:2209   */\n  tag_156\n  tag_44\n  jump\t// in\ntag_156:\n    /* \"#utility.yul\":2155:2211   */\ntag_155:\n    /* \"#utility.yul\":2229:2258   */\n  tag_157\n    /* \"#utility.yul\":2251:2257   */\n  dup3\n    /* \"#utility.yul\":2229:2258   */\n  tag_93\n  jump\t// in\ntag_157:\n    /* \"#utility.yul\":2221:2258   */\n  swap1\n  pop\n    /* \"#utility.yul\":2313:2317   */\n  0x20\n    /* \"#utility.yul\":2307:2311   */\n  dup2\n    /* \"#utility.yul\":2303:2318   */\n  add\n    /* \"#utility.yul\":2295:2318   */\n  swap1\n  pop\n    /* \"#utility.yul\":2017:2325   */\n  swap2\n  swap1\n  pop\n  jump\t// out\n    /* \"#utility.yul\":2331:2470   */\ntag_97:\n    /* \"#utility.yul\":2420:2426   */\n  dup3\n    /* \"#utility.yul\":2415:2418   */\n  dup2\n    /* \"#utility.yul\":2410:2413   */\n  dup4\n    /* \"#utility.yul\":2404:2427   */\n  mcopy\n    /* \"#utility.yul\":2461:2462   */\n  0x00\n    /* \"#utility.yul\":2452:2458   */\n  dup4\n    /* \"#utility.yul\":2447:2450   */\n  dup4\n    /* \"#utility.yul\":2443:2459   */\n  add\n    /* \"#utility.yul\":2436:2463   */\n  mstore\n    /* \"#utility.yul\":2331:2470   */\n  pop\n  pop\n  pop\n  jump\t// out\n    /* \"#utility.yul\":2476:2910   */\ntag_98:\n    /* \"#utility.yul\":2565:2570   */\n  0x00\n    /* \"#utility.yul\":2590:2656   */\n  tag_160\n    /* \"#utility.yul\":2606:2655   */\n  tag_161\n    /* \"#utility.yul\":2648:2654   */\n  dup5\n    /* \"#utility.yul\":2606:2655   */\n  tag_96\n  jump\t// in\ntag_161:\n    /* \"#utility.yul\":2590:2656   */\n  tag_95\n  jump\t// in\ntag_160:\n    /* \"#utility.yul\":2581:2656   */\n  swap1\n  pop\n    /* \"#utility.yul\":2679:2685   */\n  dup3\n    /* \"#utility.yul\":2672:2677   */\n  dup2\n    /* \"#utility.yul\":2665:2686   */\n  mstore\n    /* \"#utility.yul\":2717:2721   */\n  0x20\n    /* \"#utility.yul\":2710:2715   */\n  dup2\n    /* \"#utility.yul\":2706:2722   */\n  add\n    /* \"#utility.yul\":2755:2758   */\n  dup5\n    /* \"#utility.yul\":2746:2752   */\n  dup5\n    /* \"#utility.yul\":2741:2744   */\n  dup5\n    /* \"#utility.yul\":2737:2753   */\n  add\n    /* \"#utility.yul\":2734:2759   */\n  gt\n    /* \"#utility.yul\":2731:2843   */\n  iszero\n  tag_162\n  jumpi\n    /* \"#utility.yul\":2762:2841   */\n  tag_163\n  tag_92\n  jump\t// in\ntag_163:\n    /* \"#utility.yul\":2731:2843   */\ntag_162:\n    /* \"#utility.yul\":2852:2904   */\n  tag_164\n    /* \"#utility.yul\":2897:2903   */\n  dup5\n    /* \"#utility.yul\":2892:2895   */\n  dup3\n    /* \"#utility.yul\":2887:2890   */\n  dup6\n    /* \"#utility.yul\":2852:2904   */\n  tag_97\n  jump\t// in\ntag_164:\n    /* \"#utility.yul\":2571:2910   */\n  pop\n    /* \"#utility.yul\":2476:2910   */\n  swap4\n  swap3\n  pop\n  pop\n  pop\n  jump\t// out\n    /* \"#utility.yul\":2930:3285   */\ntag_99:\n    /* \"#utility.yul\":2997:3002   */\n  0x00\n    /* \"#utility.yul\":3046:3049   */\n  dup3\n    /* \"#utility.yul\":3039:3043   */\n  0x1f\n    /* \"#utility.yul\":3031:3037   */\n  dup4\n    /* \"#utility.yul\":3027:3044   */\n  add\n    /* \"#utility.yul\":3023:3050   */\n  slt\n    /* \"#utility.yul\":3013:3135   */\n  tag_166\n  jumpi\n    /* \"#utility.yul\":3054:3133   */\n  tag_167\n  tag_91\n  jump\t// in\ntag_167:\n    /* \"#utility.yul\":3013:3135   */\ntag_166:\n    /* \"#utility.yul\":3164:3170   */\n  dup2\n    /* \"#utility.yul\":3158:3171   */\n  mload\n    /* \"#utility.yul\":3189:3279   */\n  tag_168\n    /* \"#utility.yul\":3275:3278   */\n  dup5\n    /* \"#utility.yul\":3267:3273   */\n  dup3\n    /* \"#utility.yul\":3260:3264   */\n  0x20\n    /* \"#utility.yul\":3252:3258   */\n  dup7\n    /* \"#utility.yul\":3248:3265   */\n  add\n    /* \"#utility.yul\":3189:3279   */\n  tag_98\n  jump\t// in\ntag_168:\n    /* \"#utility.yul\":3180:3279   */\n  swap2\n  pop\n    /* \"#utility.yul\":3003:3285   */\n  pop\n    /* \"#utility.yul\":2930:3285   */\n  swap3\n  swap2\n  pop\n  pop\n  jump\t// out\n    /* \"#utility.yul\":3291:4610   */\ntag_3:\n    /* \"#utility.yul\":3415:3421   */\n  0x00\n    /* \"#utility.yul\":3423:3429   */\n  dup1\n    /* \"#utility.yul\":3431:3437   */\n  0x00\n    /* \"#utility.yul\":3439:3445   */\n  dup1\n    /* \"#utility.yul\":3447:3453   */\n  0x00\n    /* \"#utility.yul\":3496:3499   */\n  0xa0\n    /* \"#utility.yul\":3484:3493   */\n  dup7\n    /* \"#utility.yul\":3475:3482   */\n  dup9\n    /* \"#utility.yul\":3471:3494   */\n  sub\n    /* \"#utility.yul\":3467:3500   */\n  slt\n    /* \"#utility.yul\":3464:3584   */\n  iszero\n  tag_170\n  jumpi\n    /* \"#utility.yul\":3503:3582   */\n  tag_171\n  tag_83\n  jump\t// in\ntag_171:\n    /* \"#utility.yul\":3464:3584   */\ntag_170:\n    /* \"#utility.yul\":3623:3624   */\n  0x00\n    /* \"#utility.yul\":3648:3710   */\n  tag_172\n    /* \"#utility.yul\":3702:3709   */\n  dup9\n    /* \"#utility.yul\":3693:3699   */\n  dup3\n    /* \"#utility.yul\":3682:3691   */\n  dup10\n    /* \"#utility.yul\":3678:3700   */\n  add\n    /* \"#utility.yul\":3648:3710   */\n  tag_87\n  jump\t// in\ntag_172:\n    /* \"#utility.yul\":3638:3710   */\n  swap6\n  pop\n    /* \"#utility.yul\":3594:3720   */\n  pop\n    /* \"#utility.yul\":3759:3761   */\n  0x20\n    /* \"#utility.yul\":3785:3849   */\n  tag_173\n    /* \"#utility.yul\":3841:3848   */\n  dup9\n    /* \"#utility.yul\":3832:3838   */\n  dup3\n    /* \"#utility.yul\":3821:3830   */\n  dup10\n    /* \"#utility.yul\":3817:3839   */\n  add\n    /* \"#utility.yul\":3785:3849   */\n  tag_90\n  jump\t// in\ntag_173:\n    /* \"#utility.yul\":3775:3849   */\n  swap5\n  pop\n    /* \"#utility.yul\":3730:3859   */\n  pop\n    /* \"#utility.yul\":3919:3921   */\n  0x40\n    /* \"#utility.yul\":3908:3917   */\n  dup7\n    /* \"#utility.yul\":3904:3922   */\n  add\n    /* \"#utility.yul\":3898:3923   */\n  mload\n    /* \"#utility.yul\":3950:3968   */\n  0xffffffffffffffff\n    /* \"#utility.yul\":3942:3948   */\n  dup2\n    /* \"#utility.yul\":3939:3969   */\n  gt\n    /* \"#utility.yul\":3936:4053   */\n  iszero\n  tag_174\n  jumpi\n    /* \"#utility.yul\":3972:4051   */\n  tag_175\n  tag_84\n  jump\t// in\ntag_175:\n    /* \"#utility.yul\":3936:4053   */\ntag_174:\n    /* \"#utility.yul\":4077:4151   */\n  tag_176\n    /* \"#utility.yul\":4143:4150   */\n  dup9\n    /* \"#utility.yul\":4134:4140   */\n  dup3\n    /* \"#utility.yul\":4123:4132   */\n  dup10\n    /* \"#utility.yul\":4119:4141   */\n  add\n    /* \"#utility.yul\":4077:4151   */\n  tag_99\n  jump\t// in\ntag_176:\n    /* \"#utility.yul\":4067:4151   */\n  swap4\n  pop\n    /* \"#utility.yul\":3869:4161   */\n  pop\n    /* \"#utility.yul\":4221:4223   */\n  0x60\n    /* \"#utility.yul\":4210:4219   */\n  dup7\n    /* \"#utility.yul\":4206:4224   */\n  add\n    /* \"#utility.yul\":4200:4225   */\n  mload\n    /* \"#utility.yul\":4252:4270   */\n  0xffffffffffffffff\n    /* \"#utility.yul\":4244:4250   */\n  dup2\n    /* \"#utility.yul\":4241:4271   */\n  gt\n    /* \"#utility.yul\":4238:4355   */\n  iszero\n  tag_177\n  jumpi\n    /* \"#utility.yul\":4274:4353   */\n  tag_178\n  tag_84\n  jump\t// in\ntag_178:\n    /* \"#utility.yul\":4238:4355   */\ntag_177:\n    /* \"#utility.yul\":4379:4453   */\n  tag_179\n    /* \"#utility.yul\":4445:4452   */\n  dup9\n    /* \"#utility.yul\":4436:4442   */\n  dup3\n    /* \"#utility.yul\":4425:4434   */\n  dup10\n    /* \"#utility.yul\":4421:4443   */\n  add\n    /* \"#utility.yul\":4379:4453   */\n  tag_99\n  jump\t// in\ntag_179:\n    /* \"#utility.yul\":4369:4453   */\n  swap3\n  pop\n    /* \"#utility.yul\":4171:4463   */\n  pop\n    /* \"#utility.yul\":4502:4505   */\n  0x80\n    /* \"#utility.yul\":4529:4593   */\n  tag_180\n    /* \"#utility.yul\":4585:4592   */\n  dup9\n    /* \"#utility.yul\":4576:4582   */\n  dup3\n    /* \"#utility.yul\":4565:4574   */\n  dup10\n    /* \"#utility.yul\":4561:4583   */\n  add\n    /* \"#utility.yul\":4529:4593   */\n  tag_90\n  jump\t// in\ntag_180:\n    /* \"#utility.yul\":4519:4593   */\n  swap2\n  pop\n    /* \"#utility.yul\":4473:4603   */\n  pop\n    /* \"#utility.yul\":3291:4610   */\n  swap3\n  swap6\n  pop\n  swap3\n  swap6\n  swap1\n  swap4\n  pop\n  jump\t// out\n    /* \"#utility.yul\":4616:4715   */\ntag_100:\n    /* \"#utility.yul\":4668:4674   */\n  0x00\n    /* \"#utility.yul\":4702:4707   */\n  dup2\n    /* \"#utility.yul\":4696:4708   */\n  mload\n    /* \"#utility.yul\":4686:4708   */\n  swap1\n  pop\n    /* \"#utility.yul\":4616:4715   */\n  swap2\n  swap1\n  pop\n  jump\t// out\n    /* \"#utility.yul\":4721:4901   */\ntag_101:\n    /* \"#utility.yul\":4769:4846   */\n  0x4e487b7100000000000000000000000000000000000000000000000000000000\n    /* \"#utility.yul\":4766:4767   */\n  0x00\n    /* \"#utility.yul\":4759:4847   */\n  mstore\n    /* \"#utility.yul\":4866:4870   */\n  0x22\n    /* \"#utility.yul\":4863:4864   */\n  0x04\n    /* \"#utility.yul\":4856:4871   */\n  mstore\n    /* \"#utility.yul\":4890:4894   */\n  0x24\n    /* \"#utility.yul\":4887:4888   */\n  0x00\n    /* \"#utility.yul\":4880:4895   */\n  revert\n    /* \"#utility.yul\":4907:5227   */\ntag_27:\n    /* \"#utility.yul\":4951:4957   */\n  0x00\n    /* \"#utility.yul\":4988:4989   */\n  0x02\n    /* \"#utility.yul\":4982:4986   */\n  dup3\n    /* \"#utility.yul\":4978:4990   */\n  div\n    /* \"#utility.yul\":4968:4990   */\n  swap1\n  pop\n    /* \"#utility.yul\":5035:5036   */\n  0x01\n    /* \"#utility.yul\":5029:5033   */\n  dup3\n    /* \"#utility.yul\":5025:5037   */\n  and\n    /* \"#utility.yul\":5056:5074   */\n  dup1\n    /* \"#utility.yul\":5046:5127   */\n  tag_184\n  jumpi\n    /* \"#utility.yul\":5112:5116   */\n  0x7f\n    /* \"#utility.yul\":5104:5110   */\n  dup3\n    /* \"#utility.yul\":5100:5117   */\n  and\n    /* \"#utility.yul\":5090:5117   */\n  swap2\n  pop\n    /* \"#utility.yul\":5046:5127   */\ntag_184:\n    /* \"#utility.yul\":5174:5176   */\n  0x20\n    /* \"#utility.yul\":5166:5172   */\n  dup3\n    /* \"#utility.yul\":5163:5177   */\n  lt\n    /* \"#utility.yul\":5143:5161   */\n  dup2\n    /* \"#utility.yul\":5140:5178   */\n  sub\n    /* \"#utility.yul\":5137:5221   */\n  tag_185\n  jumpi\n    /* \"#utility.yul\":5193:5211   */\n  tag_186\n  tag_101\n  jump\t// in\ntag_186:\n    /* \"#utility.yul\":5137:5221   */\ntag_185:\n    /* \"#utility.yul\":4958:5227   */\n  pop\n    /* \"#utility.yul\":4907:5227   */\n  swap2\n  swap1\n  pop\n  jump\t// out\n    /* \"#utility.yul\":5233:5374   */\ntag_102:\n    /* \"#utility.yul\":5282:5286   */\n  0x00\n    /* \"#utility.yul\":5305:5308   */\n  dup2\n    /* \"#utility.yul\":5297:5308   */\n  swap1\n  pop\n    /* \"#utility.yul\":5328:5331   */\n  dup2\n    /* \"#utility.yul\":5325:5326   */\n  0x00\n    /* \"#utility.yul\":5318:5332   */\n  mstore\n    /* \"#utility.yul\":5362:5366   */\n  0x20\n    /* \"#utility.yul\":5359:5360   */\n  0x00\n    /* \"#utility.yul\":5349:5367   */\n  keccak256\n    /* \"#utility.yul\":5341:5367   */\n  swap1\n  pop\n    /* \"#utility.yul\":5233:5374   */\n  swap2\n  swap1\n  pop\n  jump\t// out\n    /* \"#utility.yul\":5380:5473   */\ntag_103:\n    /* \"#utility.yul\":5417:5423   */\n  0x00\n    /* \"#utility.yul\":5464:5466   */\n  0x20\n    /* \"#utility.yul\":5459:5461   */\n  0x1f\n    /* \"#utility.yul\":5452:5457   */\n  dup4\n    /* \"#utility.yul\":5448:5462   */\n  add\n    /* \"#utility.yul\":5444:5467   */\n  div\n    /* \"#utility.yul\":5434:5467   */\n  swap1\n  pop\n    /* \"#utility.yul\":5380:5473   */\n  swap2\n  swap1\n  pop\n  jump\t// out\n    /* \"#utility.yul\":5479:5586   */\ntag_104:\n    /* \"#utility.yul\":5523:5531   */\n  0x00\n    /* \"#utility.yul\":5573:5578   */\n  dup3\n    /* \"#utility.yul\":5567:5571   */\n  dup3\n    /* \"#utility.yul\":5563:5579   */\n  shl\n    /* \"#utility.yul\":5542:5579   */\n  swap1\n  pop\n    /* \"#utility.yul\":5479:5586   */\n  swap3\n  swap2\n  pop\n  pop\n  jump\t// out\n    /* \"#utility.yul\":5592:5985   */\ntag_105:\n    /* \"#utility.yul\":5661:5667   */\n  0x00\n    /* \"#utility.yul\":5711:5712   */\n  0x08\n    /* \"#utility.yul\":5699:5709   */\n  dup4\n    /* \"#utility.yul\":5695:5713   */\n  mul\n    /* \"#utility.yul\":5734:5831   */\n  tag_191\n    /* \"#utility.yul\":5764:5830   */\n  0xffffffffffffffffffffffffffffffffffffffffffffffffffffffffffffffff\n    /* \"#utility.yul\":5753:5762   */\n  dup3\n    /* \"#utility.yul\":5734:5831   */\n  tag_104\n  jump\t// in\ntag_191:\n    /* \"#utility.yul\":5852:5891   */\n  tag_192\n    /* \"#utility.yul\":5882:5890   */\n  dup7\n    /* \"#utility.yul\":5871:5880   */\n  dup4\n    /* \"#utility.yul\":5852:5891   */\n  tag_104\n  jump\t// in\ntag_192:\n    /* \"#utility.yul\":5840:5891   */\n  swap6\n  pop\n    /* \"#utility.yul\":5924:5928   */\n  dup1\n    /* \"#utility.yul\":5920:5929   */\n  not\n    /* \"#utility.yul\":5913:5918   */\n  dup5\n    /* \"#utility.yul\":5909:5930   */\n  and\n    /* \"#utility.yul\":5900:5930   */\n  swap4\n  pop\n    /* \"#utility.yul\":5973:5977   */\n  dup1\n    /* \"#utility.yul\":5963:5971   */\n  dup7\n    /* \"#utility.yul\":5959:5978   */\n  and\n    /* \"#utility.yul\":5952:5957   */\n  dup5\n    /* \"#utility.yul\":5949:5979   */\n  or\n    /* \"#utility.yul\":5939:5979   */\n  swap3\n  pop\n    /* \"#utility.yul\":5668:5985   */\n  pop\n  pop\n    /* \"#utility.yul\":5592:5985   */\n  swap4\n  swap3\n  pop\n  pop\n  pop\n  jump\t// out\n    /* \"#utility.yul\":5991:6051   */\ntag_106:\n    /* \"#utility.yul\":6019:6022   */\n  0x00\n    /* \"#utility.yul\":6040:6045   */\n  dup2\n    /* \"#utility.yul\":6033:6045   */\n  swap1\n  pop\n    /* \"#utility.yul\":5991:6051   */\n  swap2\n  swap1\n  pop\n  jump\t// out\n    /* \"#utility.yul\":6057:6199   */\ntag_107:\n    /* \"#utility.yul\":6107:6116   */\n  0x00\n    /* \"#utility.yul\":6140:6193   */\n  tag_195\n    /* \"#utility.yul\":6158:6192   */\n  tag_196\n    /* \"#utility.yul\":6167:6191   */\n  tag_197\n    /* \"#utility.yul\":6185:6190   */\n  dup5\n    /* \"#utility.yul\":6167:6191   */\n  tag_88\n  jump\t// in\ntag_197:\n    /* \"#utility.yul\":6158:6192   */\n  tag_106\n  jump\t// in\ntag_196:\n    /* \"#utility.yul\":6140:6193   */\n  tag_88\n  jump\t// in\ntag_195:\n    /* \"#utility.yul\":6127:6193   */\n  swap1\n  pop\n    /* \"#utility.yul\":6057:6199   */\n  swap2\n  swap1\n  pop\n  jump\t// out\n    /* \"#utility.yul\":6205:6280   */\ntag_108:\n    /* \"#utility.yul\":6248:6251   */\n  0x00\n    /* \"#utility.yul\":6269:6274   */\n  dup2\n    /* \"#utility.yul\":6262:6274   */\n  swap1\n  pop\n    /* \"#utility.yul\":6205:6280   */\n  swap2\n  swap1\n  pop\n  jump\t// out\n    /* \"#utility.yul\":6286:6555   */\ntag_109:\n    /* \"#utility.yul\":6396:6435   */\n  tag_200\n    /* \"#utility.yul\":6427:6434   */\n  dup4\n    /* \"#utility.yul\":6396:6435   */\n  tag_107\n  jump\t// in\ntag_200:\n    /* \"#utility.yul\":6457:6548   */\n  tag_201\n    /* \"#utility.yul\":6506:6547   */\n  tag_202\n    /* \"#utility.yul\":6530:6546   */\n  dup3\n    /* \"#utility.yul\":6506:6547   */\n  tag_108\n  jump\t// in\ntag_202:\n    /* \"#utility.yul\":6498:6504   */\n  dup5\n    /* \"#utility.yul\":6491:6495   */\n  dup5\n    /* \"#utility.yul\":6485:6496   */\n  sload\n    /* \"#utility.yul\":6457:6548   */\n  tag_105\n  jump\t// in\ntag_201:\n    /* \"#utility.yul\":6451:6455   */\n  dup3\n    /* \"#utility.yul\":6444:6549   */\n  sstore\n    /* \"#utility.yul\":6362:6555   */\n  pop\n    /* \"#utility.yul\":6286:6555   */\n  pop\n  pop\n  pop\n  jump\t// out\n    /* \"#utility.yul\":6561:6634   */\ntag_110:\n    /* \"#utility.yul\":6606:6609   */\n  0x00\n    /* \"#utility.yul\":6561:6634   */\n  swap1\n  jump\t// out\n    /* \"#utility.yul\":6640:6829   */\ntag_111:\n    /* \"#utility.yul\":6717:6749   */\n  tag_205\n  tag_110\n  jump\t// in\ntag_205:\n    /* \"#utility.yul\":6758:6823   */\n  tag_206\n    /* \"#utility.yul\":6816:6822   */\n  dup2\n    /* \"#utility.yul\":6808:6814   */\n  dup5\n    /* \"#utility.yul\":6802:6806   */\n  dup5\n    /* \"#utility.yul\":6758:6823   */\n  tag_109\n  jump\t// in\ntag_206:\n    /* \"#utility.yul\":6693:6829   */\n  pop\n    /* \"#utility.yul\":6640:6829   */\n  pop\n  pop\n  jump\t// out\n    /* \"#utility.yul\":6835:7021   */\ntag_112:\n    /* \"#utility.yul\":6895:7015   */\ntag_208:\n    /* \"#utility.yul\":6912:6915   */\n  dup2\n    /* \"#utility.yul\":6905:6910   */\n  dup2\n    /* \"#utility.yul\":6902:6916   */\n  lt\n    /* \"#utility.yul\":6895:7015   */\n  iszero\n  tag_210\n  jumpi\n    /* \"#utility.yul\":6966:7005   */\n  tag_211\n    /* \"#utility.yul\":7003:7004   */\n  0x00\n    /* \"#utility.yul\":6996:7001   */\n  dup3\n    /* \"#utility.yul\":6966:7005   */\n  tag_111\n  jump\t// in\ntag_211:\n    /* \"#utility.yul\":6939:6940   */\n  0x01\n    /* \"#utility.yul\":6932:6937   */\n  dup2\n    /* \"#utility.yul\":6928:6941   */\n  add\n    /* \"#utility.yul\":6919:6941   */\n  swap1\n  pop\n    /* \"#utility.yul\":6895:7015   */\n  jump(tag_208)\ntag_210:\n    /* \"#utility.yul\":6835:7021   */\n  pop\n  pop\n  jump\t// out\n    /* \"#utility.yul\":7027:7570   */\ntag_113:\n    /* \"#utility.yul\":7128:7130   */\n  0x1f\n    /* \"#utility.yul\":7123:7126   */\n  dup3\n    /* \"#utility.yul\":7120:7131   */\n  gt\n    /* \"#utility.yul\":7117:7563   */\n  iszero\n  tag_213\n  jumpi\n    /* \"#utility.yul\":7162:7200   */\n  tag_214\n    /* \"#utility.yul\":7194:7199   */\n  dup2\n    /* \"#utility.yul\":7162:7200   */\n  tag_102\n  jump\t// in\ntag_214:\n    /* \"#utility.yul\":7246:7275   */\n  tag_215\n    /* \"#utility.yul\":7264:7274   */\n  dup5\n    /* \"#utility.yul\":7246:7275   */\n  tag_103\n  jump\t// in\ntag_215:\n    /* \"#utility.yul\":7236:7244   */\n  dup2\n    /* \"#utility.yul\":7232:7276   */\n  add\n    /* \"#utility.yul\":7429:7431   */\n  0x20\n    /* \"#utility.yul\":7417:7427   */\n  dup6\n    /* \"#utility.yul\":7414:7432   */\n  lt\n    /* \"#utility.yul\":7411:7460   */\n  iszero\n  tag_216\n  jumpi\n    /* \"#utility.yul\":7450:7458   */\n  dup2\n    /* \"#utility.yul\":7435:7458   */\n  swap1\n  pop\n    /* \"#utility.yul\":7411:7460   */\ntag_216:\n    /* \"#utility.yul\":7473:7553   */\n  tag_217\n    /* \"#utility.yul\":7529:7551   */\n  tag_218\n    /* \"#utility.yul\":7547:7550   */\n  dup6\n    /* \"#utility.yul\":7529:7551   */\n  tag_103\n  jump\t// in\ntag_218:\n    /* \"#utility.yul\":7519:7527   */\n  dup4\n    /* \"#utility.yul\":7515:7552   */\n  add\n    /* \"#utility.yul\":7502:7513   */\n  dup3\n    /* \"#utility.yul\":7473:7553   */\n  tag_112\n  jump\t// in\ntag_217:\n    /* \"#utility.yul\":7132:7563   */\n  pop\n  pop\n    /* \"#utility.yul\":7117:7563   */\ntag_213:\n    /* \"#utility.yul\":7027:7570   */\n  pop\n  pop\n  pop\n  jump\t// out\n    /* \"#utility.yul\":7576:7693   */\ntag_114:\n    /* \"#utility.yul\":7630:7638   */\n  0x00\n    /* \"#utility.yul\":7680:7685   */\n  dup3\n    /* \"#utility.yul\":7674:7678   */\n  dup3\n    /* \"#utility.yul\":7670:7686   */\n  shr\n    /* \"#utility.yul\":7649:7686   */\n  swap1\n  pop\n    /* \"#utility.yul\":7576:7693   */\n  swap3\n  swap2\n  pop\n  pop\n  jump\t// out\n    /* \"#utility.yul\":7699:7868   */\ntag_115:\n    /* \"#utility.yul\":7743:7749   */\n  0x00\n    /* \"#utility.yul\":7776:7827   */\n  tag_221\n    /* \"#utility.yul\":7824:7825   */\n  0x00\n    /* \"#utility.yul\":7820:7826   */\n  not\n    /* \"#utility.yul\":7812:7817   */\n  dup5\n    /* \"#utility.yul\":7809:7810   */\n  0x08\n    /* \"#utility.yul\":7805:7818   */\n  mul\n    /* \"#utility.yul\":7776:7827   */\n  tag_114\n  jump\t// in\ntag_221:\n    /* \"#utility.yul\":7772:7828   */\n  not\n    /* \"#utility.yul\":7857:7861   */\n  dup1\n    /* \"#utility.yul\":7851:7855   */\n  dup4\n    /* \"#utility.yul\":7847:7862   */\n  and\n    /* \"#utility.yul\":7837:7862   */\n  swap2\n  pop\n    /* \"#utility.yul\":7750:7868   */\n  pop\n    /* \"#utility.yul\":7699:7868   */\n  swap3\n  swap2\n  pop\n  pop\n  jump\t// out\n    /* \"#utility.yul\":7873:8168   */\ntag_116:\n    /* \"#utility.yul\":7949:7953   */\n  0x00\n    /* \"#utility.yul\":8095:8124   */\n  tag_223\n    /* \"#utility.yul\":8120:8123   */\n  dup4\n    /* \"#utility.yul\":8114:8118   */\n  dup4\n    /* \"#utility.yul\":8095:8124   */\n  tag_115\n  jump\t// in\ntag_223:\n    /* \"#utility.yul\":8087:8124   */\n  swap2\n  pop\n    /* \"#utility.yul\":8157:8160   */\n  dup3\n    /* \"#utility.yul\":8154:8155   */\n  0x02\n    /* \"#utility.yul\":8150:8161   */\n  mul\n    /* \"#utility.yul\":8144:8148   */\n  dup3\n    /* \"#utility.yul\":8141:8162   */\n  or\n    /* \"#utility.yul\":8133:8162   */\n  swap1\n  pop\n    /* \"#utility.yul\":7873:8168   */\n  swap3\n  swap2\n  pop\n  pop\n  jump\t// out\n    /* \"#utility.yul\":8173:9568   */\ntag_7:\n    /* \"#utility.yul\":8290:8327   */\n  tag_225\n    /* \"#utility.yul\":8323:8326   */\n  dup3\n    /* \"#utility.yul\":8290:8327   */\n  tag_100\n  jump\t// in\ntag_225:\n    /* \"#utility.yul\":8392:8410   */\n  0xffffffffffffffff\n    /* \"#utility.yul\":8384:8390   */\n  dup2\n    /* \"#utility.yul\":8381:8411   */\n  gt\n    /* \"#utility.yul\":8378:8434   */\n  iszero\n  tag_226\n  jumpi\n    /* \"#utility.yul\":8414:8432   */\n  tag_227\n  tag_44\n  jump\t// in\ntag_227:\n    /* \"#utility.yul\":8378:8434   */\ntag_226:\n    /* \"#utility.yul\":8458:8496   */\n  tag_228\n    /* \"#utility.yul\":8490:8494   */\n  dup3\n    /* \"#utility.yul\":8484:8495   */\n  sload\n    /* \"#utility.yul\":8458:8496   */\n  tag_27\n  jump\t// in\ntag_228:\n    /* \"#utility.yul\":8543:8610   */\n  tag_229\n    /* \"#utility.yul\":8603:8609   */\n  dup3\n    /* \"#utility.yul\":8595:8601   */\n  dup3\n    /* \"#utility.yul\":8589:8593   */\n  dup6\n    /* \"#utility.yul\":8543:8610   */\n  tag_113\n  jump\t// in\ntag_229:\n    /* \"#utility.yul\":8637:8638   */\n  0x00\n    /* \"#utility.yul\":8661:8665   */\n  0x20\n    /* \"#utility.yul\":8648:8665   */\n  swap1\n  pop\n    /* \"#utility.yul\":8693:8695   */\n  0x1f\n    /* \"#utility.yul\":8685:8691   */\n  dup4\n    /* \"#utility.yul\":8682:8696   */\n  gt\n    /* \"#utility.yul\":8710:8711   */\n  0x01\n    /* \"#utility.yul\":8705:9323   */\n  dup2\n  eq\n  tag_231\n  jumpi\n    /* \"#utility.yul\":9367:9368   */\n  0x00\n    /* \"#utility.yul\":9384:9390   */\n  dup5\n    /* \"#utility.yul\":9381:9458   */\n  iszero\n  tag_232\n  jumpi\n    /* \"#utility.yul\":9433:9442   */\n  dup3\n    /* \"#utility.yul\":9428:9431   */\n  dup8\n    /* \"#utility.yul\":9424:9443   */\n  add\n    /* \"#utility.yul\":9418:9444   */\n  mload\n    /* \"#utility.yul\":9409:9444   */\n  swap1\n  pop\n    /* \"#utility.yul\":9381:9458   */\ntag_232:\n    /* \"#utility.yul\":9484:9551   */\n  tag_233\n    /* \"#utility.yul\":9544:9550   */\n  dup6\n    /* \"#utility.yul\":9537:9542   */\n  dup3\n    /* \"#utility.yul\":9484:9551   */\n  tag_116\n  jump\t// in\ntag_233:\n    /* \"#utility.yul\":9478:9482   */\n  dup7\n    /* \"#utility.yul\":9471:9552   */\n  sstore\n    /* \"#utility.yul\":9340:9562   */\n  pop\n    /* \"#utility.yul\":8675:9562   */\n  jump(tag_230)\n    /* \"#utility.yul\":8705:9323   */\ntag_231:\n    /* \"#utility.yul\":8757:8761   */\n  0x1f\n    /* \"#utility.yul\":8753:8762   */\n  not\n    /* \"#utility.yul\":8745:8751   */\n  dup5\n    /* \"#utility.yul\":8741:8763   */\n  and\n    /* \"#utility.yul\":8791:8828   */\n  tag_234\n    /* \"#utility.yul\":8823:8827   */\n  dup7\n    /* \"#utility.yul\":8791:8828   */\n  tag_102\n  jump\t// in\ntag_234:\n    /* \"#utility.yul\":8850:8851   */\n  0x00\n    /* \"#utility.yul\":8864:9072   */\ntag_235:\n    /* \"#utility.yul\":8878:8885   */\n  dup3\n    /* \"#utility.yul\":8875:8876   */\n  dup2\n    /* \"#utility.yul\":8872:8886   */\n  lt\n    /* \"#utility.yul\":8864:9072   */\n  iszero\n  tag_237\n  jumpi\n    /* \"#utility.yul\":8957:8966   */\n  dup5\n    /* \"#utility.yul\":8952:8955   */\n  dup10\n    /* \"#utility.yul\":8948:8967   */\n  add\n    /* \"#utility.yul\":8942:8968   */\n  mload\n    /* \"#utility.yul\":8934:8940   */\n  dup3\n    /* \"#utility.yul\":8927:8969   */\n  sstore\n    /* \"#utility.yul\":9008:9009   */\n  0x01\n    /* \"#utility.yul\":9000:9006   */\n  dup3\n    /* \"#utility.yul\":8996:9010   */\n  add\n    /* \"#utility.yul\":8986:9010   */\n  swap2\n  pop\n    /* \"#utility.yul\":9055:9057   */\n  0x20\n    /* \"#utility.yul\":9044:9053   */\n  dup6\n    /* \"#utility.yul\":9040:9058   */\n  add\n    /* \"#utility.yul\":9027:9058   */\n  swap5\n  pop\n    /* \"#utility.yul\":8901:8905   */\n  0x20\n    /* \"#utility.yul\":8898:8899   */\n  dup2\n    /* \"#utility.yul\":8894:8906   */\n  add\n    /* \"#utility.yul\":8889:8906   */\n  swap1\n  pop\n    /* \"#utility.yul\":8864:9072   */\n  jump(tag_235)\ntag_237:\n    /* \"#utility.yul\":9100:9106   */\n  dup7\n    /* \"#utility.yul\":9091:9098   */\n  dup4\n    /* \"#utility.yul\":9088:9107   */\n  lt\n    /* \"#utility.yul\":9085:9264   */\n  iszero\n  tag_238\n  jumpi\n    /* \"#utility.yul\":9158:9167   */\n  dup5\n    /* \"#utility.yul\":9153:9156   */\n  dup10\n    /* \"#utility.yul\":9149:9168   */\n  add\n    /* \"#utility.yul\":9143:9169   */\n  mload\n    /* \"#utility.yul\":9201:9249   */\n  tag_239\n    /* \"#utility.yul\":9243:9247   */\n  0x1f\n    /* \"#utility.yul\":9235:9241   */\n  dup10\n    /* \"#utility.yul\":9231:9248   */\n  and\n    /* \"#utility.yul\":9220:9229   */\n  dup3\n    /* \"#utility.yul\":9201:9249   */\n  tag_115\n  jump\t// in\ntag_239:\n    /* \"#utility.yul\":9193:9199   */\n  dup4\n    /* \"#utility.yul\":9186:9250   */\n  sstore\n    /* \"#utility.yul\":9108:9264   */\n  pop\n    /* \"#utility.yul\":9085:9264   */\ntag_238:\n    /* \"#utility.yul\":9310:9311   */\n  0x01\n    /* \"#utility.yul\":9306:9307   */\n  0x02\n    /* \"#utility.yul\":9298:9304   */\n  dup9\n    /* \"#utility.yul\":9294:9308   */\n  mul\n    /* \"#utility.yul\":9290:9312   */\n  add\n    /* \"#utility.yul\":9284:9288   */\n  dup9\n    /* \"#utility.yul\":9277:9313   */\n  sstore\n    /* \"#utility.yul\":8712:9323   */\n  pop\n  pop\n  pop\n    /* \"#utility.yul\":8675:9562   */\ntag_230:\n  pop\n    /* \"#utility.yul\":8265:9568   */\n  pop\n  pop\n  pop\n    /* \"#utility.yul\":8173:9568   */\n  pop\n  pop\n  jump\t// out\n    /* \"#utility.yul\":9574:9722   */\ntag_117:\n    /* \"#utility.yul\":9676:9687   */\n  0x00\n    /* \"#utility.yul\":9713:9716   */\n  dup2\n    /* \"#utility.yul\":9698:9716   */\n  swap1\n  pop\n    /* \"#utility.yul\":9574:9722   */\n  swap3\n  swap2\n  pop\n  pop\n  jump\t// out\n    /* \"#utility.yul\":9752:10626   */\ntag_118:\n    /* \"#utility.yul\":9855:9858   */\n  0x00\n    /* \"#utility.yul\":9892:9897   */\n  dup2\n    /* \"#utility.yul\":9886:9898   */\n  sload\n    /* \"#utility.yul\":9921:9957   */\n  tag_242\n    /* \"#utility.yul\":9947:9956   */\n  dup2\n    /* \"#utility.yul\":9921:9957   */\n  tag_27\n  jump\t// in\ntag_242:\n    /* \"#utility.yul\":9973:10062   */\n  tag_243\n    /* \"#utility.yul\":10055:10061   */\n  dup2\n    /* \"#utility.yul\":10050:10053   */\n  dup7\n    /* \"#utility.yul\":9973:10062   */\n  tag_117\n  jump\t// in\ntag_243:\n    /* \"#utility.yul\":9966:10062   */\n  swap5\n  pop\n    /* \"#utility.yul\":10093:10094   */\n  0x01\n    /* \"#utility.yul\":10082:10091   */\n  dup3\n    /* \"#utility.yul\":10078:10095   */\n  and\n    /* \"#utility.yul\":10109:10110   */\n  0x00\n    /* \"#utility.yul\":10104:10270   */\n  dup2\n  eq\n  tag_245\n  jumpi\n    /* \"#utility.yul\":10284:10285   */\n  0x01\n    /* \"#utility.yul\":10279:10620   */\n  dup2\n  eq\n  tag_246\n  jumpi\n    /* \"#utility.yul\":10071:10620   */\n  jump(tag_244)\n    /* \"#utility.yul\":10104:10270   */\ntag_245:\n    /* \"#utility.yul\":10188:10192   */\n  0xff\n    /* \"#utility.yul\":10184:10193   */\n  not\n    /* \"#utility.yul\":10173:10182   */\n  dup4\n    /* \"#utility.yul\":10169:10194   */\n  and\n    /* \"#utility.yul\":10164:10167   */\n  dup7\n    /* \"#utility.yul\":10157:10195   */\n  mstore\n    /* \"#utility.yul\":10250:10256   */\n  dup2\n    /* \"#utility.yul\":10243:10257   */\n  iszero\n    /* \"#utility.yul\":10236:10258   */\n  iszero\n    /* \"#utility.yul\":10228:10234   */\n  dup3\n    /* \"#utility.yul\":10224:10259   */\n  mul\n    /* \"#utility.yul\":10219:10222   */\n  dup7\n    /* \"#utility.yul\":10215:10260   */\n  add\n    /* \"#utility.yul\":10208:10260   */\n  swap4\n  pop\n    /* \"#utility.yul\":10104:10270   */\n  jump(tag_244)\n    /* \"#utility.yul\":10279:10620   */\ntag_246:\n    /* \"#utility.yul\":10346:10384   */\n  tag_247\n    /* \"#utility.yul\":10378:10383   */\n  dup6\n    /* \"#utility.yul\":10346:10384   */\n  tag_102\n  jump\t// in\ntag_247:\n    /* \"#utility.yul\":10406:10407   */\n  0x00\n    /* \"#utility.yul\":10420:10574   */\ntag_248:\n    /* \"#utility.yul\":10434:10440   */\n  dup4\n    /* \"#utility.yul\":10431:10432   */\n  dup2\n    /* \"#utility.yul\":10428:10441   */\n  lt\n    /* \"#utility.yul\":10420:10574   */\n  iszero\n  tag_250\n  jumpi\n    /* \"#utility.yul\":10508:10515   */\n  dup2\n    /* \"#utility.yul\":10502:10516   */\n  sload\n    /* \"#utility.yul\":10498:10499   */\n  dup2\n    /* \"#utility.yul\":10493:10496   */\n  dup10\n    /* \"#utility.yul\":10489:10500   */\n  add\n    /* \"#utility.yul\":10482:10517   */\n  mstore\n    /* \"#utility.yul\":10558:10559   */\n  0x01\n    /* \"#utility.yul\":10549:10556   */\n  dup3\n    /* \"#utility.yul\":10545:10560   */\n  add\n    /* \"#utility.yul\":10534:10560   */\n  swap2\n  pop\n    /* \"#utility.yul\":10456:10460   */\n  0x20\n    /* \"#utility.yul\":10453:10454   */\n  dup2\n    /* \"#utility.yul\":10449:10461   */\n  add\n    /* \"#utility.yul\":10444:10461   */\n  swap1\n  pop\n    /* \"#utility.yul\":10420:10574   */\n  jump(tag_248)\ntag_250:\n    /* \"#utility.yul\":10603:10609   */\n  dup4\n    /* \"#utility.yul\":10598:10601   */\n  dup9\n    /* \"#utility.yul\":10594:10610   */\n  add\n    /* \"#utility.yul\":10587:10610   */\n  swap6\n  pop\n    /* \"#utility.yul\":10286:10620   */\n  pop\n  pop\n    /* \"#utility.yul\":10071:10620   */\ntag_244:\n  pop\n    /* \"#utility.yul\":9859:10626   */\n  pop\n  pop\n    /* \"#utility.yul\":9752:10626   */\n  swap3\n  swap2\n  pop\n  pop\n  jump\t// out\n    /* \"#utility.yul\":10632:10901   */\ntag_15:\n    /* \"#utility.yul\":10761:10764   */\n  0x00\n    /* \"#utility.yul\":10783:10875   */\n  tag_252\n    /* \"#utility.yul\":10871:10874   */\n  dup3\n    /* \"#utility.yul\":10862:10868   */\n  dup5\n    /* \"#utility.yul\":10783:10875   */\n  tag_118\n  jump\t// in\ntag_252:\n    /* \"#utility.yul\":10776:10875   */\n  swap2\n  pop\n    /* \"#utility.yul\":10892:10895   */\n  dup2\n    /* \"#utility.yul\":10885:10895   */\n  swap1\n  pop\n    /* \"#utility.yul\":10632:10901   */\n  swap3\n  swap2\n  pop\n  pop\n  jump\t// out\n    /* \"#utility.yul\":10907:11087   */\ntag_119:\n    /* \"#utility.yul\":10955:11032   */\n  0x4e487b7100000000000000000000000000000000000000000000000000000000\n    /* \"#utility.yul\":10952:10953   */\n  0x00\n    /* \"#utility.yul\":10945:11033   */\n  mstore\n    /* \"#utility.yul\":11052:11056   */\n  0x11\n    /* \"#utility.yul\":11049:11050   */\n  0x04\n    /* \"#utility.yul\":11042:11057   */\n  mstore\n    /* \"#utility.yul\":11076:11080   */\n  0x24\n    /* \"#utility.yul\":11073:11074   */\n  0x00\n    /* \"#utility.yul\":11066:11081   */\n  revert\n    /* \"#utility.yul\":11093:11284   */\ntag_19:\n    /* \"#utility.yul\":11133:11136   */\n  0x00\n    /* \"#utility.yul\":11152:11172   */\n  tag_255\n    /* \"#utility.yul\":11170:11171   */\n  dup3\n    /* \"#utility.yul\":11152:11172   */\n  tag_88\n  jump\t// in\ntag_255:\n    /* \"#utility.yul\":11147:11172   */\n  swap2\n  pop\n    /* \"#utility.yul\":11186:11206   */\n  tag_256\n    /* \"#utility.yul\":11204:11205   */\n  dup4\n    /* \"#utility.yul\":11186:11206   */\n  tag_88\n  jump\t// in\ntag_256:\n    /* \"#utility.yul\":11181:11206   */\n  swap3\n  pop\n    /* \"#utility.yul\":11229:11230   */\n  dup3\n    /* \"#utility.yul\":11226:11227   */\n  dup3\n    /* \"#utility.yul\":11222:11231   */\n  add\n    /* \"#utility.yul\":11215:11231   */\n  swap1\n  pop\n    /* \"#utility.yul\":11250:11253   */\n  dup1\n    /* \"#utility.yul\":11247:11248   */\n  dup3\n    /* \"#utility.yul\":11244:11254   */\n  gt\n    /* \"#utility.yul\":11241:11277   */\n  iszero\n  tag_257\n  jumpi\n    /* \"#utility.yul\":11257:11275   */\n  tag_258\n  tag_119\n  jump\t// in\ntag_258:\n    /* \"#utility.yul\":11241:11277   */\ntag_257:\n    /* \"#utility.yul\":11093:11284   */\n  swap3\n  swap2\n  pop\n  pop\n  jump\t// out\n    /* \"#utility.yul\":11290:11459   */\ntag_120:\n    /* \"#utility.yul\":11374:11385   */\n  0x00\n    /* \"#utility.yul\":11408:11414   */\n  dup3\n    /* \"#utility.yul\":11403:11406   */\n  dup3\n    /* \"#utility.yul\":11396:11415   */\n  mstore\n    /* \"#utility.yul\":11448:11452   */\n  0x20\n    /* \"#utility.yul\":11443:11446   */\n  dup3\n    /* \"#utility.yul\":11439:11453   */\n  add\n    /* \"#utility.yul\":11424:11453   */\n  swap1\n  pop\n    /* \"#utility.yul\":11290:11459   */\n  swap3\n  swap2\n  pop\n  pop\n  jump\t// out\n    /* \"#utility.yul\":11465:11643   */\ntag_121:\n    /* \"#utility.yul\":11605:11635   */\n  0x4e6f7420656e6f75676820746f6b656e7320617661696c61626c652e00000000\n    /* \"#utility.yul\":11601:11602   */\n  0x00\n    /* \"#utility.yul\":11593:11599   */\n  dup3\n    /* \"#utility.yul\":11589:11603   */\n  add\n    /* \"#utility.yul\":11582:11636   */\n  mstore\n    /* \"#utility.yul\":11465:11643   */\n  pop\n  jump\t// out\n    /* \"#utility.yul\":11649:12015   */\ntag_122:\n    /* \"#utility.yul\":11791:11794   */\n  0x00\n    /* \"#utility.yul\":11812:11879   */\n  tag_262\n    /* \"#utility.yul\":11876:11878   */\n  0x1c\n    /* \"#utility.yul\":11871:11874   */\n  dup4\n    /* \"#utility.yul\":11812:11879   */\n  tag_120\n  jump\t// in\ntag_262:\n    /* \"#utility.yul\":11805:11879   */\n  swap2\n  pop\n    /* \"#utility.yul\":11888:11981   */\n  tag_263\n    /* \"#utility.yul\":11977:11980   */\n  dup3\n    /* \"#utility.yul\":11888:11981   */\n  tag_121\n  jump\t// in\ntag_263:\n    /* \"#utility.yul\":12006:12008   */\n  0x20\n    /* \"#utility.yul\":12001:12004   */\n  dup3\n    /* \"#utility.yul\":11997:12009   */\n  add\n    /* \"#utility.yul\":11990:12009   */\n  swap1\n  pop\n    /* \"#utility.yul\":11649:12015   */\n  swap2\n  swap1\n  pop\n  jump\t// out\n    /* \"#utility.yul\":12021:12440   */\ntag_22:\n    /* \"#utility.yul\":12187:12191   */\n  0x00\n    /* \"#utility.yul\":12225:12227   */\n  0x20\n    /* \"#utility.yul\":12214:12223   */\n  dup3\n    /* \"#utility.yul\":12210:12228   */\n  add\n    /* \"#utility.yul\":12202:12228   */\n  swap1\n  pop\n    /* \"#utility.yul\":12274:12283   */\n  dup2\n    /* \"#utility.yul\":12268:12272   */\n  dup2\n    /* \"#utility.yul\":12264:12284   */\n  sub\n    /* \"#utility.yul\":12260:12261   */\n  0x00\n    /* \"#utility.yul\":12249:12258   */\n  dup4\n    /* \"#utility.yul\":12245:12262   */\n  add\n    /* \"#utility.yul\":12238:12285   */\n  mstore\n    /* \"#utility.yul\":12302:12433   */\n  tag_265\n    /* \"#utility.yul\":12428:12432   */\n  dup2\n    /* \"#utility.yul\":12302:12433   */\n  tag_122\n  jump\t// in\ntag_265:\n    /* \"#utility.yul\":12294:12433   */\n  swap1\n  pop\n    /* \"#utility.yul\":12021:12440   */\n  swap2\n  swap1\n  pop\n  jump\t// out\n    /* \"#utility.yul\":12446:12523   */\ntag_123:\n    /* \"#utility.yul\":12483:12490   */\n  0x00\n    /* \"#utility.yul\":12512:12517   */\n  dup2\n    /* \"#utility.yul\":12501:12517   */\n  swap1\n  pop\n    /* \"#utility.yul\":12446:12523   */\n  swap2\n  swap1\n  pop\n  jump\t// out\n    /* \"#utility.yul\":12529:12608   */\ntag_124:\n    /* \"#utility.yul\":12568:12575   */\n  0x00\n    /* \"#utility.yul\":12597:12602   */\n  dup2\n    /* \"#utility.yul\":12586:12602   */\n  swap1\n  pop\n    /* \"#utility.yul\":12529:12608   */\n  swap2\n  swap1\n  pop\n  jump\t// out\n    /* \"#utility.yul\":12614:12771   */\ntag_125:\n    /* \"#utility.yul\":12719:12764   */\n  tag_269\n    /* \"#utility.yul\":12739:12763   */\n  tag_270\n    /* \"#utility.yul\":12757:12762   */\n  dup3\n    /* \"#utility.yul\":12739:12763   */\n  tag_123\n  jump\t// in\ntag_270:\n    /* \"#utility.yul\":12719:12764   */\n  tag_124\n  jump\t// in\ntag_269:\n    /* \"#utility.yul\":12714:12717   */\n  dup3\n    /* \"#utility.yul\":12707:12765   */\n  mstore\n    /* \"#utility.yul\":12614:12771   */\n  pop\n  pop\n  jump\t// out\n    /* \"#utility.yul\":12777:13033   */\ntag_33:\n    /* \"#utility.yul\":12889:12892   */\n  0x00\n    /* \"#utility.yul\":12904:12979   */\n  tag_272\n    /* \"#utility.yul\":12975:12978   */\n  dup3\n    /* \"#utility.yul\":12966:12972   */\n  dup5\n    /* \"#utility.yul\":12904:12979   */\n  tag_125\n  jump\t// in\ntag_272:\n    /* \"#utility.yul\":13004:13006   */\n  0x20\n    /* \"#utility.yul\":12999:13002   */\n  dup3\n    /* \"#utility.yul\":12995:13007   */\n  add\n    /* \"#utility.yul\":12988:13007   */\n  swap2\n  pop\n    /* \"#utility.yul\":13024:13027   */\n  dup2\n    /* \"#utility.yul\":13017:13027   */\n  swap1\n  pop\n    /* \"#utility.yul\":12777:13033   */\n  swap3\n  swap2\n  pop\n  pop\n  jump\t// out\n    /* \"#utility.yul\":13039:13429   */\ntag_126:\n    /* \"#utility.yul\":13145:13148   */\n  0x00\n    /* \"#utility.yul\":13173:13212   */\n  tag_274\n    /* \"#utility.yul\":13206:13211   */\n  dup3\n    /* \"#utility.yul\":13173:13212   */\n  tag_100\n  jump\t// in\ntag_274:\n    /* \"#utility.yul\":13228:13317   */\n  tag_275\n    /* \"#utility.yul\":13310:13316   */\n  dup2\n    /* \"#utility.yul\":13305:13308   */\n  dup6\n    /* \"#utility.yul\":13228:13317   */\n  tag_117\n  jump\t// in\ntag_275:\n    /* \"#utility.yul\":13221:13317   */\n  swap4\n  pop\n    /* \"#utility.yul\":13326:13391   */\n  tag_276\n    /* \"#utility.yul\":13384:13390   */\n  dup2\n    /* \"#utility.yul\":13379:13382   */\n  dup6\n    /* \"#utility.yul\":13372:13376   */\n  0x20\n    /* \"#utility.yul\":13365:13370   */\n  dup7\n    /* \"#utility.yul\":13361:13377   */\n  add\n    /* \"#utility.yul\":13326:13391   */\n  tag_97\n  jump\t// in\ntag_276:\n    /* \"#utility.yul\":13416:13422   */\n  dup1\n    /* \"#utility.yul\":13411:13414   */\n  dup5\n    /* \"#utility.yul\":13407:13423   */\n  add\n    /* \"#utility.yul\":13400:13423   */\n  swap2\n  pop\n    /* \"#utility.yul\":13149:13429   */\n  pop\n    /* \"#utility.yul\":13039:13429   */\n  swap3\n  swap2\n  pop\n  pop\n  jump\t// out\n    /* \"#utility.yul\":13435:14190   */\ntag_35:\n    /* \"#utility.yul\":13711:13714   */\n  0x00\n    /* \"#utility.yul\":13733:13828   */\n  tag_278\n    /* \"#utility.yul\":13824:13827   */\n  dup3\n    /* \"#utility.yul\":13815:13821   */\n  dup8\n    /* \"#utility.yul\":13733:13828   */\n  tag_126\n  jump\t// in\ntag_278:\n    /* \"#utility.yul\":13726:13828   */\n  swap2\n  pop\n    /* \"#utility.yul\":13845:13940   */\n  tag_279\n    /* \"#utility.yul\":13936:13939   */\n  dup3\n    /* \"#utility.yul\":13927:13933   */\n  dup7\n    /* \"#utility.yul\":13845:13940   */\n  tag_126\n  jump\t// in\ntag_279:\n    /* \"#utility.yul\":13838:13940   */\n  swap2\n  pop\n    /* \"#utility.yul\":13957:14052   */\n  tag_280\n    /* \"#utility.yul\":14048:14051   */\n  dup3\n    /* \"#utility.yul\":14039:14045   */\n  dup6\n    /* \"#utility.yul\":13957:14052   */\n  tag_126\n  jump\t// in\ntag_280:\n    /* \"#utility.yul\":13950:14052   */\n  swap2\n  pop\n    /* \"#utility.yul\":14069:14164   */\n  tag_281\n    /* \"#utility.yul\":14160:14163   */\n  dup3\n    /* \"#utility.yul\":14151:14157   */\n  dup5\n    /* \"#utility.yul\":14069:14164   */\n  tag_126\n  jump\t// in\ntag_281:\n    /* \"#utility.yul\":14062:14164   */\n  swap2\n  pop\n    /* \"#utility.yul\":14181:14184   */\n  dup2\n    /* \"#utility.yul\":14174:14184   */\n  swap1\n  pop\n    /* \"#utility.yul\":13435:14190   */\n  swap6\n  swap5\n  pop\n  pop\n  pop\n  pop\n  pop\n  jump\t// out\n    /* \"#utility.yul\":14196:14376   */\ntag_50:\n    /* \"#utility.yul\":14244:14321   */\n  0x4e487b7100000000000000000000000000000000000000000000000000000000\n    /* \"#utility.yul\":14241:14242   */\n  0x00\n    /* \"#utility.yul\":14234:14322   */\n  mstore\n    /* \"#utility.yul\":14341:14345   */\n  0x12\n    /* \"#utility.yul\":14338:14339   */\n  0x04\n    /* \"#utility.yul\":14331:14346   */\n  mstore\n    /* \"#utility.yul\":14365:14369   */\n  0x24\n    /* \"#utility.yul\":14362:14363   */\n  0x00\n    /* \"#utility.yul\":14355:14370   */\n  revert\n    /* \"#utility.yul\":14382:14567   */\ntag_55:\n    /* \"#utility.yul\":14422:14423   */\n  0x00\n    /* \"#utility.yul\":14439:14459   */\n  tag_284\n    /* \"#utility.yul\":14457:14458   */\n  dup3\n    /* \"#utility.yul\":14439:14459   */\n  tag_88\n  jump\t// in\ntag_284:\n    /* \"#utility.yul\":14434:14459   */\n  swap2\n  pop\n    /* \"#utility.yul\":14473:14493   */\n  tag_285\n    /* \"#utility.yul\":14491:14492   */\n  dup4\n    /* \"#utility.yul\":14473:14493   */\n  tag_88\n  jump\t// in\ntag_285:\n    /* \"#utility.yul\":14468:14493   */\n  swap3\n  pop\n    /* \"#utility.yul\":14512:14513   */\n  dup3\n    /* \"#utility.yul\":14502:14537   */\n  tag_286\n  jumpi\n    /* \"#utility.yul\":14517:14535   */\n  tag_287\n  tag_50\n  jump\t// in\ntag_287:\n    /* \"#utility.yul\":14502:14537   */\ntag_286:\n    /* \"#utility.yul\":14559:14560   */\n  dup3\n    /* \"#utility.yul\":14556:14557   */\n  dup3\n    /* \"#utility.yul\":14552:14561   */\n  div\n    /* \"#utility.yul\":14547:14561   */\n  swap1\n  pop\n    /* \"#utility.yul\":14382:14567   */\n  swap3\n  swap2\n  pop\n  pop\n  jump\t// out\n    /* \"#utility.yul\":14573:14767   */\ntag_58:\n    /* \"#utility.yul\":14613:14617   */\n  0x00\n    /* \"#utility.yul\":14633:14653   */\n  tag_289\n    /* \"#utility.yul\":14651:14652   */\n  dup3\n    /* \"#utility.yul\":14633:14653   */\n  tag_88\n  jump\t// in\ntag_289:\n    /* \"#utility.yul\":14628:14653   */\n  swap2\n  pop\n    /* \"#utility.yul\":14667:14687   */\n  tag_290\n    /* \"#utility.yul\":14685:14686   */\n  dup4\n    /* \"#utility.yul\":14667:14687   */\n  tag_88\n  jump\t// in\ntag_290:\n    /* \"#utility.yul\":14662:14687   */\n  swap3\n  pop\n    /* \"#utility.yul\":14711:14712   */\n  dup3\n    /* \"#utility.yul\":14708:14709   */\n  dup3\n    /* \"#utility.yul\":14704:14713   */\n  sub\n    /* \"#utility.yul\":14696:14713   */\n  swap1\n  pop\n    /* \"#utility.yul\":14735:14736   */\n  dup2\n    /* \"#utility.yul\":14729:14733   */\n  dup2\n    /* \"#utility.yul\":14726:14737   */\n  gt\n    /* \"#utility.yul\":14723:14760   */\n  iszero\n  tag_291\n  jumpi\n    /* \"#utility.yul\":14740:14758   */\n  tag_292\n  tag_119\n  jump\t// in\ntag_292:\n    /* \"#utility.yul\":14723:14760   */\ntag_291:\n    /* \"#utility.yul\":14573:14767   */\n  swap3\n  swap2\n  pop\n  pop\n  jump\t// out\n    /* \"contracts/MiningContract.sol\":555:3963  contract MiningContract {... */\ntag_16:\n  dataSize(sub_0)\n  dup1\n  dataOffset(sub_0)\n  0x00\n  codecopy\n  0x00\n  return\nstop\n\nsub_0: assembly {\n        /* \"contracts/MiningContract.sol\":555:3963  contract MiningContract {... */\n      mstore(0x40, 0x80)\n      callvalue\n      dup1\n      iszero\n      tag_1\n      jumpi\n      0x00\n      dup1\n      revert\n    tag_1:\n      pop\n      jumpi(tag_2, lt(calldatasize, 0x04))\n      shr(0xe0, calldataload(0x00))\n      dup1\n      0x6a49f979\n      gt\n      tag_15\n      jumpi\n      dup1\n      0x6a49f979\n      eq\n      tag_9\n      jumpi\n      dup1\n      0x95d89b41\n      eq\n      tag_10\n      jumpi\n      dup1\n      0xb62a62ec\n      eq\n      tag_11\n      jumpi\n      dup1\n      0xe8315742\n      eq\n      tag_12\n      jumpi\n      dup1\n      0xf22a195e\n      eq\n      tag_13\n      jumpi\n      dup1\n      0xf82900b1\n      eq\n      tag_14\n      jumpi\n      jump(tag_2)\n    tag_15:\n      dup1\n      0x0572b0cc\n      eq\n      tag_3\n      jumpi\n      dup1\n      0x06fdde03\n      eq\n      tag_4\n      jumpi\n      dup1\n      0x18160ddd\n      eq\n      tag_5\n      jumpi\n      dup1\n      0x3ba0b9a9\n      eq\n      tag_6\n      jumpi\n      dup1\n      0x4fc8a991\n      eq\n      tag_7\n      jumpi\n      dup1\n      0x57e871e7\n      eq\n      tag_8\n      jumpi\n    tag_2:\n      0x00\n      dup1\n      revert\n        /* \"contracts/MiningContract.sol\":3765:3856  function getRewards() public view returns (uint256) {... */\n    tag_3:\n      tag_16\n      tag_17\n      jump\t// in\n    tag_16:\n      mload(0x40)\n      tag_18\n      swap2\n      swap1\n      tag_19\n      jump\t// in\n    tag_18:\n      mload(0x40)\n      dup1\n      swap2\n      sub\n      swap1\n      return\n        /* \"contracts/MiningContract.sol\":704:722  string public name */\n    tag_4:\n      tag_20\n      tag_21\n      jump\t// in\n    tag_20:\n      mload(0x40)\n      tag_22\n      swap2\n      swap1\n      tag_23\n      jump\t// in\n    tag_22:\n      mload(0x40)\n      dup1\n      swap2\n      sub\n      swap1\n      return\n        /* \"contracts/MiningContract.sol\":644:670  uint256 public totalSupply */\n    tag_5:\n      tag_24\n      tag_25\n      jump\t// in\n    tag_24:\n      mload(0x40)\n      tag_26\n      swap2\n      swap1\n      tag_19\n      jump\t// in\n    tag_26:\n      mload(0x40)\n      dup1\n      swap2\n      sub\n      swap1\n      return\n        /* \"contracts/MiningContract.sol\":729:754  uint8 public exchangeRate */\n    tag_6:\n      tag_27\n      tag_28\n      jump\t// in\n    tag_27:\n      mload(0x40)\n      tag_29\n      swap2\n      swap1\n      tag_30\n      jump\t// in\n    tag_29:\n      mload(0x40)\n      dup1\n      swap2\n      sub\n      swap1\n      return\n        /* \"contracts/MiningContract.sol\":3079:3757  function mineTokens(address miner, string memory input)... */\n    tag_7:\n      tag_31\n      0x04\n      dup1\n      calldatasize\n      sub\n      dup2\n      add\n      swap1\n      tag_32\n      swap2\n      swap1\n      tag_33\n      jump\t// in\n    tag_32:\n      tag_34\n      jump\t// in\n    tag_31:\n      mload(0x40)\n      tag_35\n      swap3\n      swap2\n      swap1\n      tag_36\n      jump\t// in\n    tag_35:\n      mload(0x40)\n      dup1\n      swap2\n      sub\n      swap1\n      return\n        /* \"contracts/MiningContract.sol\":791:817  uint256 public blockNumber */\n    tag_8:\n      tag_37\n      tag_38\n      jump\t// in\n    tag_37:\n      mload(0x40)\n      tag_39\n      swap2\n      swap1\n      tag_19\n      jump\t// in\n    tag_39:\n      mload(0x40)\n      dup1\n      swap2\n      sub\n      swap1\n      return\n        /* \"contracts/MiningContract.sol\":893:917  string public miningTask */\n    tag_9:\n      tag_40\n      tag_41\n      jump\t// in\n    tag_40:\n      mload(0x40)\n      tag_42\n      swap2\n      swap1\n      tag_23\n      jump\t// in\n    tag_42:\n      mload(0x40)\n      dup1\n      swap2\n      sub\n      swap1\n      return\n        /* \"contracts/MiningContract.sol\":677:697  string public symbol */\n    tag_10:\n      tag_43\n      tag_44\n      jump\t// in\n    tag_43:\n      mload(0x40)\n      tag_45\n      swap2\n      swap1\n      tag_23\n      jump\t// in\n    tag_45:\n      mload(0x40)\n      dup1\n      swap2\n      sub\n      swap1\n      return\n        /* \"contracts/MiningContract.sol\":3864:3960  function getMiningTask() public view returns (string memory){... */\n    tag_11:\n      tag_46\n      tag_47\n      jump\t// in\n    tag_46:\n      mload(0x40)\n      tag_48\n      swap2\n      swap1\n      tag_23\n      jump\t// in\n    tag_48:\n      mload(0x40)\n      dup1\n      swap2\n      sub\n      swap1\n      return\n        /* \"contracts/MiningContract.sol\":613:637  uint256 public maxTokens */\n    tag_12:\n      tag_49\n      tag_50\n      jump\t// in\n    tag_49:\n      mload(0x40)\n      tag_51\n      swap2\n      swap1\n      tag_19\n      jump\t// in\n    tag_51:\n      mload(0x40)\n      dup1\n      swap2\n      sub\n      swap1\n      return\n        /* \"contracts/MiningContract.sol\":824:848  bytes32 public blockHash */\n    tag_13:\n      tag_52\n      tag_53\n      jump\t// in\n    tag_52:\n      mload(0x40)\n      tag_54\n      swap2\n      swap1\n      tag_55\n      jump\t// in\n    tag_54:\n      mload(0x40)\n      dup1\n      swap2\n      sub\n      swap1\n      return\n        /* \"contracts/MiningContract.sol\":924:952  uint256 public miningRewards */\n    tag_14:\n      tag_56\n      tag_57\n      jump\t// in\n    tag_56:\n      mload(0x40)\n      tag_58\n      swap2\n      swap1\n      tag_19\n      jump\t// in\n    tag_58:\n      mload(0x40)\n      dup1\n      swap2\n      sub\n      swap1\n      return\n        /* \"contracts/MiningContract.sol\":3765:3856  function getRewards() public view returns (uint256) {... */\n    tag_17:\n        /* \"contracts/MiningContract.sol\":3808:3815  uint256 */\n      0x00\n        /* \"contracts/MiningContract.sol\":3835:3848  miningRewards */\n      sload(0x09)\n        /* \"contracts/MiningContract.sol\":3828:3848  return miningRewards */\n      swap1\n      pop\n        /* \"contracts/MiningContract.sol\":3765:3856  function getRewards() public view returns (uint256) {... */\n      swap1\n      jump\t// out\n        /* \"contracts/MiningContract.sol\":704:722  string public name */\n    tag_21:\n      0x03\n      dup1\n      sload\n      tag_60\n      swap1\n      tag_61\n      jump\t// in\n    tag_60:\n      dup1\n      0x1f\n      add\n      0x20\n      dup1\n      swap2\n      div\n      mul\n      0x20\n      add\n      mload(0x40)\n      swap1\n      dup2\n      add\n      0x40\n      mstore\n      dup1\n      swap3\n      swap2\n      swap1\n      dup2\n      dup2\n      mstore\n      0x20\n      add\n      dup3\n      dup1\n      sload\n      tag_62\n      swap1\n      tag_61\n      jump\t// in\n    tag_62:\n      dup1\n      iszero\n      tag_63\n      jumpi\n      dup1\n      0x1f\n      lt\n      tag_64\n      jumpi\n      0x0100\n      dup1\n      dup4\n      sload\n      div\n      mul\n      dup4\n      mstore\n      swap2\n      0x20\n      add\n      swap2\n      jump(tag_63)\n    tag_64:\n      dup3\n      add\n      swap2\n      swap1\n      0x00\n      mstore\n      keccak256(0x00, 0x20)\n      swap1\n    tag_65:\n      dup2\n      sload\n      dup2\n      mstore\n      swap1\n      0x01\n      add\n      swap1\n      0x20\n      add\n      dup1\n      dup4\n      gt\n      tag_65\n      jumpi\n      dup3\n      swap1\n      sub\n      0x1f\n      and\n      dup3\n      add\n      swap2\n    tag_63:\n      pop\n      pop\n      pop\n      pop\n      pop\n      dup2\n      jump\t// out\n        /* \"contracts/MiningContract.sol\":644:670  uint256 public totalSupply */\n    tag_25:\n      sload(0x01)\n      dup2\n      jump\t// out\n        /* \"contracts/MiningContract.sol\":729:754  uint8 public exchangeRate */\n    tag_28:\n      0x04\n      0x00\n      swap1\n      sload\n      swap1\n      0x0100\n      exp\n      swap1\n      div\n      0xff\n      and\n      dup2\n      jump\t// out\n        /* \"contracts/MiningContract.sol\":3079:3757  function mineTokens(address miner, string memory input)... */\n    tag_34:\n        /* \"contracts/MiningContract.sol\":3169:3173  bool */\n      0x00\n        /* \"contracts/MiningContract.sol\":3175:3182  bytes32 */\n      dup1\n        /* \"contracts/MiningContract.sol\":3200:3224  string memory mergedTask */\n      0x00\n        /* \"contracts/MiningContract.sol\":3241:3251  miningTask */\n      0x08\n        /* \"contracts/MiningContract.sol\":3253:3258  input */\n      dup5\n        /* \"contracts/MiningContract.sol\":3227:3259  string.concat(miningTask, input) */\n      add(0x20, mload(0x40))\n      tag_67\n      swap3\n      swap2\n      swap1\n      tag_68\n      jump\t// in\n    tag_67:\n      mload(0x40)\n      0x20\n      dup2\n      dup4\n      sub\n      sub\n      dup2\n      mstore\n      swap1\n      0x40\n      mstore\n        /* \"contracts/MiningContract.sol\":3200:3259  string memory mergedTask = string.concat(miningTask, input) */\n      swap1\n      pop\n        /* \"contracts/MiningContract.sol\":3272:3294  bytes32 mergedTaskHash */\n      0x00\n        /* \"contracts/MiningContract.sol\":3318:3328  mergedTask */\n      dup2\n        /* \"contracts/MiningContract.sol\":3307:3329  abi.encode(mergedTask) */\n      add(0x20, mload(0x40))\n      tag_69\n      swap2\n      swap1\n      tag_23\n      jump\t// in\n    tag_69:\n      mload(0x40)\n      0x20\n      dup2\n      dup4\n      sub\n      sub\n      dup2\n      mstore\n      swap1\n      0x40\n      mstore\n        /* \"contracts/MiningContract.sol\":3297:3330  keccak256(abi.encode(mergedTask)) */\n      dup1\n      mload\n      swap1\n      0x20\n      add\n      keccak256\n        /* \"contracts/MiningContract.sol\":3272:3330  bytes32 mergedTaskHash = keccak256(abi.encode(mergedTask)) */\n      swap1\n      pop\n        /* \"contracts/MiningContract.sol\":3356:3363  uint8 i */\n      0x00\n        /* \"contracts/MiningContract.sol\":3351:3709  for (uint8 i = 0; i <= 256/8; i++) {... */\n    tag_70:\n        /* \"contracts/MiningContract.sol\":3374:3379  256/8 */\n      0x20\n        /* \"contracts/MiningContract.sol\":3369:3370  i */\n      dup2\n        /* \"contracts/MiningContract.sol\":3369:3379  i <= 256/8 */\n      0xff\n      and\n      gt\n        /* \"contracts/MiningContract.sol\":3351:3709  for (uint8 i = 0; i <= 256/8; i++) {... */\n      tag_71\n      jumpi\n        /* \"contracts/MiningContract.sol\":3477:3494  bytes1 prefixHash */\n      0x00\n        /* \"contracts/MiningContract.sol\":3497:3511  mergedTaskHash */\n      dup3\n        /* \"contracts/MiningContract.sol\":3512:3513  i */\n      dup3\n        /* \"contracts/MiningContract.sol\":3497:3514  mergedTaskHash[i] */\n      0xff\n      and\n      0x20\n      dup2\n      lt\n      tag_73\n      jumpi\n      tag_74\n      tag_75\n      jump\t// in\n    tag_74:\n    tag_73:\n      byte\n      0xf8\n      shl\n        /* \"contracts/MiningContract.sol\":3477:3514  bytes1 prefixHash = mergedTaskHash[i] */\n      swap1\n      pop\n        /* \"contracts/MiningContract.sol\":3553:3568  PREFIXHASHVALUE */\n      0x0a\n      0x01\n      swap1\n      sload\n      swap1\n      0x0100\n      exp\n      swap1\n      div\n      0xf8\n      shl\n        /* \"contracts/MiningContract.sol\":3539:3568  prefixHash == PREFIXHASHVALUE */\n      not(0xffffffffffffffffffffffffffffffffffffffffffffffffffffffffffffff)\n      and\n        /* \"contracts/MiningContract.sol\":3539:3549  prefixHash */\n      dup2\n        /* \"contracts/MiningContract.sol\":3539:3568  prefixHash == PREFIXHASHVALUE */\n      not(0xffffffffffffffffffffffffffffffffffffffffffffffffffffffffffffff)\n      and\n      sub\n        /* \"contracts/MiningContract.sol\":3535:3698  if (prefixHash == PREFIXHASHVALUE) {... */\n      tag_76\n      jumpi\n        /* \"contracts/MiningContract.sol\":3620:3633  miningRewards */\n      sload(0x09)\n        /* \"contracts/MiningContract.sol\":3607:3618  blockNumber */\n      sload(0x05)\n        /* \"contracts/MiningContract.sol\":3600:3605  miner */\n      dup10\n        /* \"contracts/MiningContract.sol\":3594:3634  Mined(miner, blockNumber, miningRewards) */\n      0xffffffffffffffffffffffffffffffffffffffff\n      and\n      0x5a9ec13c12ca9563a7b3108125f74c57ed388bb313394ea50f7e4a71b01497c2\n      mload(0x40)\n      mload(0x40)\n      dup1\n      swap2\n      sub\n      swap1\n      log4\n        /* \"contracts/MiningContract.sol\":3661:3665  true */\n      0x01\n        /* \"contracts/MiningContract.sol\":3667:3681  mergedTaskHash */\n      dup4\n        /* \"contracts/MiningContract.sol\":3653:3682  return (true, mergedTaskHash) */\n      swap6\n      pop\n      swap6\n      pop\n      pop\n      pop\n      pop\n      pop\n      jump(tag_66)\n        /* \"contracts/MiningContract.sol\":3535:3698  if (prefixHash == PREFIXHASHVALUE) {... */\n    tag_76:\n        /* \"contracts/MiningContract.sol\":3386:3709  {... */\n      pop\n        /* \"contracts/MiningContract.sol\":3381:3384  i++ */\n      dup1\n      dup1\n      tag_77\n      swap1\n      tag_78\n      jump\t// in\n    tag_77:\n      swap2\n      pop\n      pop\n        /* \"contracts/MiningContract.sol\":3351:3709  for (uint8 i = 0; i <= 256/8; i++) {... */\n      jump(tag_70)\n    tag_71:\n      pop\n        /* \"contracts/MiningContract.sol\":3727:3732  false */\n      0x00\n        /* \"contracts/MiningContract.sol\":3734:3748  mergedTaskHash */\n      dup2\n        /* \"contracts/MiningContract.sol\":3719:3749  return (false, mergedTaskHash) */\n      swap4\n      pop\n      swap4\n      pop\n      pop\n      pop\n        /* \"contracts/MiningContract.sol\":3079:3757  function mineTokens(address miner, string memory input)... */\n    tag_66:\n      swap3\n      pop\n      swap3\n      swap1\n      pop\n      jump\t// out\n        /* \"contracts/MiningContract.sol\":791:817  uint256 public blockNumber */\n    tag_38:\n      sload(0x05)\n      dup2\n      jump\t// out\n        /* \"contracts/MiningContract.sol\":893:917  string public miningTask */\n    tag_41:\n      0x08\n      dup1\n      sload\n      tag_79\n      swap1\n      tag_61\n      jump\t// in\n    tag_79:\n      dup1\n      0x1f\n      add\n      0x20\n      dup1\n      swap2\n      div\n      mul\n      0x20\n      add\n      mload(0x40)\n      swap1\n      dup2\n      add\n      0x40\n      mstore\n      dup1\n      swap3\n      swap2\n      swap1\n      dup2\n      dup2\n      mstore\n      0x20\n      add\n      dup3\n      dup1\n      sload\n      tag_80\n      swap1\n      tag_61\n      jump\t// in\n    tag_80:\n      dup1\n      iszero\n      tag_81\n      jumpi\n      dup1\n      0x1f\n      lt\n      tag_82\n      jumpi\n      0x0100\n      dup1\n      dup4\n      sload\n      div\n      mul\n      dup4\n      mstore\n      swap2\n      0x20\n      add\n      swap2\n      jump(tag_81)\n    tag_82:\n      dup3\n      add\n      swap2\n      swap1\n      0x00\n      mstore\n      keccak256(0x00, 0x20)\n      swap1\n    tag_83:\n      dup2\n      sload\n      dup2\n      mstore\n      swap1\n      0x01\n      add\n      swap1\n      0x20\n      add\n      dup1\n      dup4\n      gt\n      tag_83\n      jumpi\n      dup3\n      swap1\n      sub\n      0x1f\n      and\n      dup3\n      add\n      swap2\n    tag_81:\n      pop\n      pop\n      pop\n      pop\n      pop\n      dup2\n      jump\t// out\n        /* \"contracts/MiningContract.sol\":677:697  string public symbol */\n    tag_44:\n      0x02\n      dup1\n      sload\n      tag_84\n      swap1\n      tag_61\n      jump\t// in\n    tag_84:\n      dup1\n      0x1f\n      add\n      0x20\n      dup1\n      swap2\n      div\n      mul\n      0x20\n      add\n      mload(0x40)\n      swap1\n      dup2\n      add\n      0x40\n      mstore\n      dup1\n      swap3\n      swap2\n      swap1\n      dup2\n      dup2\n      mstore\n      0x20\n      add\n      dup3\n      dup1\n      sload\n      tag_85\n      swap1\n      tag_61\n      jump\t// in\n    tag_85:\n      dup1\n      iszero\n      tag_86\n      jumpi\n      dup1\n      0x1f\n      lt\n      tag_87\n      jumpi\n      0x0100\n      dup1\n      dup4\n      sload\n      div\n      mul\n      dup4\n      mstore\n      swap2\n      0x20\n      add\n      swap2\n      jump(tag_86)\n    tag_87:\n      dup3\n      add\n      swap2\n      swap1\n      0x00\n      mstore\n      keccak256(0x00, 0x20)\n      swap1\n    tag_88:\n      dup2\n      sload\n      dup2\n      mstore\n      swap1\n      0x01\n      add\n      swap1\n      0x20\n      add\n      dup1\n      dup4\n      gt\n      tag_88\n      jumpi\n      dup3\n      swap1\n      sub\n      0x1f\n      and\n      dup3\n      add\n      swap2\n    tag_86:\n      pop\n      pop\n      pop\n      pop\n      pop\n      dup2\n      jump\t// out\n        /* \"contracts/MiningContract.sol\":3864:3960  function getMiningTask() public view returns (string memory){... */\n    tag_47:\n        /* \"contracts/MiningContract.sol\":3910:3923  string memory */\n      0x60\n        /* \"contracts/MiningContract.sol\":3942:3952  miningTask */\n      0x08\n        /* \"contracts/MiningContract.sol\":3935:3952  return miningTask */\n      dup1\n      sload\n      tag_90\n      swap1\n      tag_61\n      jump\t// in\n    tag_90:\n      dup1\n      0x1f\n      add\n      0x20\n      dup1\n      swap2\n      div\n      mul\n      0x20\n      add\n      mload(0x40)\n      swap1\n      dup2\n      add\n      0x40\n      mstore\n      dup1\n      swap3\n      swap2\n      swap1\n      dup2\n      dup2\n      mstore\n      0x20\n      add\n      dup3\n      dup1\n      sload\n      tag_91\n      swap1\n      tag_61\n      jump\t// in\n    tag_91:\n      dup1\n      iszero\n      tag_92\n      jumpi\n      dup1\n      0x1f\n      lt\n      tag_93\n      jumpi\n      0x0100\n      dup1\n      dup4\n      sload\n      div\n      mul\n      dup4\n      mstore\n      swap2\n      0x20\n      add\n      swap2\n      jump(tag_92)\n    tag_93:\n      dup3\n      add\n      swap2\n      swap1\n      0x00\n      mstore\n      keccak256(0x00, 0x20)\n      swap1\n    tag_94:\n      dup2\n      sload\n      dup2\n      mstore\n      swap1\n      0x01\n      add\n      swap1\n      0x20\n      add\n      dup1\n      dup4\n      gt\n      tag_94\n      jumpi\n      dup3\n      swap1\n      sub\n      0x1f\n      and\n      dup3\n      add\n      swap2\n    tag_92:\n      pop\n      pop\n      pop\n      pop\n      pop\n      swap1\n      pop\n        /* \"contracts/MiningContract.sol\":3864:3960  function getMiningTask() public view returns (string memory){... */\n      swap1\n      jump\t// out\n        /* \"contracts/MiningContract.sol\":613:637  uint256 public maxTokens */\n    tag_50:\n      sload(0x00)\n      dup2\n      jump\t// out\n        /* \"contracts/MiningContract.sol\":824:848  bytes32 public blockHash */\n    tag_53:\n      sload(0x06)\n      dup2\n      jump\t// out\n        /* \"contracts/MiningContract.sol\":924:952  uint256 public miningRewards */\n    tag_57:\n      sload(0x09)\n      dup2\n      jump\t// out\n        /* \"#utility.yul\":7:84   */\n    tag_95:\n        /* \"#utility.yul\":44:51   */\n      0x00\n        /* \"#utility.yul\":73:78   */\n      dup2\n        /* \"#utility.yul\":62:78   */\n      swap1\n      pop\n        /* \"#utility.yul\":7:84   */\n      swap2\n      swap1\n      pop\n      jump\t// out\n        /* \"#utility.yul\":90:208   */\n    tag_96:\n        /* \"#utility.yul\":177:201   */\n      tag_133\n        /* \"#utility.yul\":195:200   */\n      dup2\n        /* \"#utility.yul\":177:201   */\n      tag_95\n      jump\t// in\n    tag_133:\n        /* \"#utility.yul\":172:175   */\n      dup3\n        /* \"#utility.yul\":165:202   */\n      mstore\n        /* \"#utility.yul\":90:208   */\n      pop\n      pop\n      jump\t// out\n        /* \"#utility.yul\":214:436   */\n    tag_19:\n        /* \"#utility.yul\":307:311   */\n      0x00\n        /* \"#utility.yul\":345:347   */\n      0x20\n        /* \"#utility.yul\":334:343   */\n      dup3\n        /* \"#utility.yul\":330:348   */\n      add\n        /* \"#utility.yul\":322:348   */\n      swap1\n      pop\n        /* \"#utility.yul\":358:429   */\n      tag_135\n        /* \"#utility.yul\":426:427   */\n      0x00\n        /* \"#utility.yul\":415:424   */\n      dup4\n        /* \"#utility.yul\":411:428   */\n      add\n        /* \"#utility.yul\":402:408   */\n      dup5\n        /* \"#utility.yul\":358:429   */\n      tag_96\n      jump\t// in\n    tag_135:\n        /* \"#utility.yul\":214:436   */\n      swap3\n      swap2\n      pop\n      pop\n      jump\t// out\n        /* \"#utility.yul\":442:541   */\n    tag_97:\n        /* \"#utility.yul\":494:500   */\n      0x00\n        /* \"#utility.yul\":528:533   */\n      dup2\n        /* \"#utility.yul\":522:534   */\n      mload\n        /* \"#utility.yul\":512:534   */\n      swap1\n      pop\n        /* \"#utility.yul\":442:541   */\n      swap2\n      swap1\n      pop\n      jump\t// out\n        /* \"#utility.yul\":547:716   */\n    tag_98:\n        /* \"#utility.yul\":631:642   */\n      0x00\n        /* \"#utility.yul\":665:671   */\n      dup3\n        /* \"#utility.yul\":660:663   */\n      dup3\n        /* \"#utility.yul\":653:672   */\n      mstore\n        /* \"#utility.yul\":705:709   */\n      0x20\n        /* \"#utility.yul\":700:703   */\n      dup3\n        /* \"#utility.yul\":696:710   */\n      add\n        /* \"#utility.yul\":681:710   */\n      swap1\n      pop\n        /* \"#utility.yul\":547:716   */\n      swap3\n      swap2\n      pop\n      pop\n      jump\t// out\n        /* \"#utility.yul\":722:861   */\n    tag_99:\n        /* \"#utility.yul\":811:817   */\n      dup3\n        /* \"#utility.yul\":806:809   */\n      dup2\n        /* \"#utility.yul\":801:804   */\n      dup4\n        /* \"#utility.yul\":795:818   */\n      mcopy\n        /* \"#utility.yul\":852:853   */\n      0x00\n        /* \"#utility.yul\":843:849   */\n      dup4\n        /* \"#utility.yul\":838:841   */\n      dup4\n        /* \"#utility.yul\":834:850   */\n      add\n        /* \"#utility.yul\":827:854   */\n      mstore\n        /* \"#utility.yul\":722:861   */\n      pop\n      pop\n      pop\n      jump\t// out\n        /* \"#utility.yul\":867:969   */\n    tag_100:\n        /* \"#utility.yul\":908:914   */\n      0x00\n        /* \"#utility.yul\":959:961   */\n      0x1f\n        /* \"#utility.yul\":955:962   */\n      not\n        /* \"#utility.yul\":950:952   */\n      0x1f\n        /* \"#utility.yul\":943:948   */\n      dup4\n        /* \"#utility.yul\":939:953   */\n      add\n        /* \"#utility.yul\":935:963   */\n      and\n        /* \"#utility.yul\":925:963   */\n      swap1\n      pop\n        /* \"#utility.yul\":867:969   */\n      swap2\n      swap1\n      pop\n      jump\t// out\n        /* \"#utility.yul\":975:1352   */\n    tag_101:\n        /* \"#utility.yul\":1063:1066   */\n      0x00\n        /* \"#utility.yul\":1091:1130   */\n      tag_141\n        /* \"#utility.yul\":1124:1129   */\n      dup3\n        /* \"#utility.yul\":1091:1130   */\n      tag_97\n      jump\t// in\n    tag_141:\n        /* \"#utility.yul\":1146:1217   */\n      tag_142\n        /* \"#utility.yul\":1210:1216   */\n      dup2\n        /* \"#utility.yul\":1205:1208   */\n      dup6\n        /* \"#utility.yul\":1146:1217   */\n      tag_98\n      jump\t// in\n    tag_142:\n        /* \"#utility.yul\":1139:1217   */\n      swap4\n      pop\n        /* \"#utility.yul\":1226:1291   */\n      tag_143\n        /* \"#utility.yul\":1284:1290   */\n      dup2\n        /* \"#utility.yul\":1279:1282   */\n      dup6\n        /* \"#utility.yul\":1272:1276   */\n      0x20\n        /* \"#utility.yul\":1265:1270   */\n      dup7\n        /* \"#utility.yul\":1261:1277   */\n      add\n        /* \"#utility.yul\":1226:1291   */\n      tag_99\n      jump\t// in\n    tag_143:\n        /* \"#utility.yul\":1316:1345   */\n      tag_144\n        /* \"#utility.yul\":1338:1344   */\n      dup2\n        /* \"#utility.yul\":1316:1345   */\n      tag_100\n      jump\t// in\n    tag_144:\n        /* \"#utility.yul\":1311:1314   */\n      dup5\n        /* \"#utility.yul\":1307:1346   */\n      add\n        /* \"#utility.yul\":1300:1346   */\n      swap2\n      pop\n        /* \"#utility.yul\":1067:1352   */\n      pop\n        /* \"#utility.yul\":975:1352   */\n      swap3\n      swap2\n      pop\n      pop\n      jump\t// out\n        /* \"#utility.yul\":1358:1671   */\n    tag_23:\n        /* \"#utility.yul\":1471:1475   */\n      0x00\n        /* \"#utility.yul\":1509:1511   */\n      0x20\n        /* \"#utility.yul\":1498:1507   */\n      dup3\n        /* \"#utility.yul\":1494:1512   */\n      add\n        /* \"#utility.yul\":1486:1512   */\n      swap1\n      pop\n        /* \"#utility.yul\":1558:1567   */\n      dup2\n        /* \"#utility.yul\":1552:1556   */\n      dup2\n        /* \"#utility.yul\":1548:1568   */\n      sub\n        /* \"#utility.yul\":1544:1545   */\n      0x00\n        /* \"#utility.yul\":1533:1542   */\n      dup4\n        /* \"#utility.yul\":1529:1546   */\n      add\n        /* \"#utility.yul\":1522:1569   */\n      mstore\n        /* \"#utility.yul\":1586:1664   */\n      tag_146\n        /* \"#utility.yul\":1659:1663   */\n      dup2\n        /* \"#utility.yul\":1650:1656   */\n      dup5\n        /* \"#utility.yul\":1586:1664   */\n      tag_101\n      jump\t// in\n    tag_146:\n        /* \"#utility.yul\":1578:1664   */\n      swap1\n      pop\n        /* \"#utility.yul\":1358:1671   */\n      swap3\n      swap2\n      pop\n      pop\n      jump\t// out\n        /* \"#utility.yul\":1677:1763   */\n    tag_102:\n        /* \"#utility.yul\":1712:1719   */\n      0x00\n        /* \"#utility.yul\":1752:1756   */\n      0xff\n        /* \"#utility.yul\":1745:1750   */\n      dup3\n        /* \"#utility.yul\":1741:1757   */\n      and\n        /* \"#utility.yul\":1730:1757   */\n      swap1\n      pop\n        /* \"#utility.yul\":1677:1763   */\n      swap2\n      swap1\n      pop\n      jump\t// out\n        /* \"#utility.yul\":1769:1881   */\n    tag_103:\n        /* \"#utility.yul\":1852:1874   */\n      tag_149\n        /* \"#utility.yul\":1868:1873   */\n      dup2\n        /* \"#utility.yul\":1852:1874   */\n      tag_102\n      jump\t// in\n    tag_149:\n        /* \"#utility.yul\":1847:1850   */\n      dup3\n        /* \"#utility.yul\":1840:1875   */\n      mstore\n        /* \"#utility.yul\":1769:1881   */\n      pop\n      pop\n      jump\t// out\n        /* \"#utility.yul\":1887:2101   */\n    tag_30:\n        /* \"#utility.yul\":1976:1980   */\n      0x00\n        /* \"#utility.yul\":2014:2016   */\n      0x20\n        /* \"#utility.yul\":2003:2012   */\n      dup3\n        /* \"#utility.yul\":1999:2017   */\n      add\n        /* \"#utility.yul\":1991:2017   */\n      swap1\n      pop\n        /* \"#utility.yul\":2027:2094   */\n      tag_151\n        /* \"#utility.yul\":2091:2092   */\n      0x00\n        /* \"#utility.yul\":2080:2089   */\n      dup4\n        /* \"#utility.yul\":2076:2093   */\n      add\n        /* \"#utility.yul\":2067:2073   */\n      dup5\n        /* \"#utility.yul\":2027:2094   */\n      tag_103\n      jump\t// in\n    tag_151:\n        /* \"#utility.yul\":1887:2101   */\n      swap3\n      swap2\n      pop\n      pop\n      jump\t// out\n        /* \"#utility.yul\":2107:2182   */\n    tag_104:\n        /* \"#utility.yul\":2140:2146   */\n      0x00\n        /* \"#utility.yul\":2173:2175   */\n      0x40\n        /* \"#utility.yul\":2167:2176   */\n      mload\n        /* \"#utility.yul\":2157:2176   */\n      swap1\n      pop\n        /* \"#utility.yul\":2107:2182   */\n      swap1\n      jump\t// out\n        /* \"#utility.yul\":2188:2305   */\n    tag_105:\n        /* \"#utility.yul\":2297:2298   */\n      0x00\n        /* \"#utility.yul\":2294:2295   */\n      dup1\n        /* \"#utility.yul\":2287:2299   */\n      revert\n        /* \"#utility.yul\":2311:2428   */\n    tag_106:\n        /* \"#utility.yul\":2420:2421   */\n      0x00\n        /* \"#utility.yul\":2417:2418   */\n      dup1\n        /* \"#utility.yul\":2410:2422   */\n      revert\n        /* \"#utility.yul\":2434:2560   */\n    tag_107:\n        /* \"#utility.yul\":2471:2478   */\n      0x00\n        /* \"#utility.yul\":2511:2553   */\n      0xffffffffffffffffffffffffffffffffffffffff\n        /* \"#utility.yul\":2504:2509   */\n      dup3\n        /* \"#utility.yul\":2500:2554   */\n      and\n        /* \"#utility.yul\":2489:2554   */\n      swap1\n      pop\n        /* \"#utility.yul\":2434:2560   */\n      swap2\n      swap1\n      pop\n      jump\t// out\n        /* \"#utility.yul\":2566:2662   */\n    tag_108:\n        /* \"#utility.yul\":2603:2610   */\n      0x00\n        /* \"#utility.yul\":2632:2656   */\n      tag_157\n        /* \"#utility.yul\":2650:2655   */\n      dup3\n        /* \"#utility.yul\":2632:2656   */\n      tag_107\n      jump\t// in\n    tag_157:\n        /* \"#utility.yul\":2621:2656   */\n      swap1\n      pop\n        /* \"#utility.yul\":2566:2662   */\n      swap2\n      swap1\n      pop\n      jump\t// out\n        /* \"#utility.yul\":2668:2790   */\n    tag_109:\n        /* \"#utility.yul\":2741:2765   */\n      tag_159\n        /* \"#utility.yul\":2759:2764   */\n      dup2\n        /* \"#utility.yul\":2741:2765   */\n      tag_108\n      jump\t// in\n    tag_159:\n        /* \"#utility.yul\":2734:2739   */\n      dup2\n        /* \"#utility.yul\":2731:2766   */\n      eq\n        /* \"#utility.yul\":2721:2784   */\n      tag_160\n      jumpi\n        /* \"#utility.yul\":2780:2781   */\n      0x00\n        /* \"#utility.yul\":2777:2778   */\n      dup1\n        /* \"#utility.yul\":2770:2782   */\n      revert\n        /* \"#utility.yul\":2721:2784   */\n    tag_160:\n        /* \"#utility.yul\":2668:2790   */\n      pop\n      jump\t// out\n        /* \"#utility.yul\":2796:2935   */\n    tag_110:\n        /* \"#utility.yul\":2842:2847   */\n      0x00\n        /* \"#utility.yul\":2880:2886   */\n      dup2\n        /* \"#utility.yul\":2867:2887   */\n      calldataload\n        /* \"#utility.yul\":2858:2887   */\n      swap1\n      pop\n        /* \"#utility.yul\":2896:2929   */\n      tag_162\n        /* \"#utility.yul\":2923:2928   */\n      dup2\n        /* \"#utility.yul\":2896:2929   */\n      tag_109\n      jump\t// in\n    tag_162:\n        /* \"#utility.yul\":2796:2935   */\n      swap3\n      swap2\n      pop\n      pop\n      jump\t// out\n        /* \"#utility.yul\":2941:3058   */\n    tag_111:\n        /* \"#utility.yul\":3050:3051   */\n      0x00\n        /* \"#utility.yul\":3047:3048   */\n      dup1\n        /* \"#utility.yul\":3040:3052   */\n      revert\n        /* \"#utility.yul\":3064:3181   */\n    tag_112:\n        /* \"#utility.yul\":3173:3174   */\n      0x00\n        /* \"#utility.yul\":3170:3171   */\n      dup1\n        /* \"#utility.yul\":3163:3175   */\n      revert\n        /* \"#utility.yul\":3187:3367   */\n    tag_113:\n        /* \"#utility.yul\":3235:3312   */\n      0x4e487b7100000000000000000000000000000000000000000000000000000000\n        /* \"#utility.yul\":3232:3233   */\n      0x00\n        /* \"#utility.yul\":3225:3313   */\n      mstore\n        /* \"#utility.yul\":3332:3336   */\n      0x41\n        /* \"#utility.yul\":3329:3330   */\n      0x04\n        /* \"#utility.yul\":3322:3337   */\n      mstore\n        /* \"#utility.yul\":3356:3360   */\n      0x24\n        /* \"#utility.yul\":3353:3354   */\n      0x00\n        /* \"#utility.yul\":3346:3361   */\n      revert\n        /* \"#utility.yul\":3373:3654   */\n    tag_114:\n        /* \"#utility.yul\":3456:3483   */\n      tag_167\n        /* \"#utility.yul\":3478:3482   */\n      dup3\n        /* \"#utility.yul\":3456:3483   */\n      tag_100\n      jump\t// in\n    tag_167:\n        /* \"#utility.yul\":3448:3454   */\n      dup2\n        /* \"#utility.yul\":3444:3484   */\n      add\n        /* \"#utility.yul\":3586:3592   */\n      dup2\n        /* \"#utility.yul\":3574:3584   */\n      dup2\n        /* \"#utility.yul\":3571:3593   */\n      lt\n        /* \"#utility.yul\":3550:3568   */\n      0xffffffffffffffff\n        /* \"#utility.yul\":3538:3548   */\n      dup3\n        /* \"#utility.yul\":3535:3569   */\n      gt\n        /* \"#utility.yul\":3532:3594   */\n      or\n        /* \"#utility.yul\":3529:3617   */\n      iszero\n      tag_168\n      jumpi\n        /* \"#utility.yul\":3597:3615   */\n      tag_169\n      tag_113\n      jump\t// in\n    tag_169:\n        /* \"#utility.yul\":3529:3617   */\n    tag_168:\n        /* \"#utility.yul\":3637:3647   */\n      dup1\n        /* \"#utility.yul\":3633:3635   */\n      0x40\n        /* \"#utility.yul\":3626:3648   */\n      mstore\n        /* \"#utility.yul\":3416:3654   */\n      pop\n        /* \"#utility.yul\":3373:3654   */\n      pop\n      pop\n      jump\t// out\n        /* \"#utility.yul\":3660:3789   */\n    tag_115:\n        /* \"#utility.yul\":3694:3700   */\n      0x00\n        /* \"#utility.yul\":3721:3741   */\n      tag_171\n      tag_104\n      jump\t// in\n    tag_171:\n        /* \"#utility.yul\":3711:3741   */\n      swap1\n      pop\n        /* \"#utility.yul\":3750:3783   */\n      tag_172\n        /* \"#utility.yul\":3778:3782   */\n      dup3\n        /* \"#utility.yul\":3770:3776   */\n      dup3\n        /* \"#utility.yul\":3750:3783   */\n      tag_114\n      jump\t// in\n    tag_172:\n        /* \"#utility.yul\":3660:3789   */\n      swap2\n      swap1\n      pop\n      jump\t// out\n        /* \"#utility.yul\":3795:4103   */\n    tag_116:\n        /* \"#utility.yul\":3857:3861   */\n      0x00\n        /* \"#utility.yul\":3947:3965   */\n      0xffffffffffffffff\n        /* \"#utility.yul\":3939:3945   */\n      dup3\n        /* \"#utility.yul\":3936:3966   */\n      gt\n        /* \"#utility.yul\":3933:3989   */\n      iszero\n      tag_174\n      jumpi\n        /* \"#utility.yul\":3969:3987   */\n      tag_175\n      tag_113\n      jump\t// in\n    tag_175:\n        /* \"#utility.yul\":3933:3989   */\n    tag_174:\n        /* \"#utility.yul\":4007:4036   */\n      tag_176\n        /* \"#utility.yul\":4029:4035   */\n      dup3\n        /* \"#utility.yul\":4007:4036   */\n      tag_100\n      jump\t// in\n    tag_176:\n        /* \"#utility.yul\":3999:4036   */\n      swap1\n      pop\n        /* \"#utility.yul\":4091:4095   */\n      0x20\n        /* \"#utility.yul\":4085:4089   */\n      dup2\n        /* \"#utility.yul\":4081:4096   */\n      add\n        /* \"#utility.yul\":4073:4096   */\n      swap1\n      pop\n        /* \"#utility.yul\":3795:4103   */\n      swap2\n      swap1\n      pop\n      jump\t// out\n        /* \"#utility.yul\":4109:4257   */\n    tag_117:\n        /* \"#utility.yul\":4207:4213   */\n      dup3\n        /* \"#utility.yul\":4202:4205   */\n      dup2\n        /* \"#utility.yul\":4197:4200   */\n      dup4\n        /* \"#utility.yul\":4184:4214   */\n      calldatacopy\n        /* \"#utility.yul\":4248:4249   */\n      0x00\n        /* \"#utility.yul\":4239:4245   */\n      dup4\n        /* \"#utility.yul\":4234:4237   */\n      dup4\n        /* \"#utility.yul\":4230:4246   */\n      add\n        /* \"#utility.yul\":4223:4250   */\n      mstore\n        /* \"#utility.yul\":4109:4257   */\n      pop\n      pop\n      pop\n      jump\t// out\n        /* \"#utility.yul\":4263:4688   */\n    tag_118:\n        /* \"#utility.yul\":4341:4346   */\n      0x00\n        /* \"#utility.yul\":4366:4432   */\n      tag_179\n        /* \"#utility.yul\":4382:4431   */\n      tag_180\n        /* \"#utility.yul\":4424:4430   */\n      dup5\n        /* \"#utility.yul\":4382:4431   */\n      tag_116\n      jump\t// in\n    tag_180:\n        /* \"#utility.yul\":4366:4432   */\n      tag_115\n      jump\t// in\n    tag_179:\n        /* \"#utility.yul\":4357:4432   */\n      swap1\n      pop\n        /* \"#utility.yul\":4455:4461   */\n      dup3\n        /* \"#utility.yul\":4448:4453   */\n      dup2\n        /* \"#utility.yul\":4441:4462   */\n      mstore\n        /* \"#utility.yul\":4493:4497   */\n      0x20\n        /* \"#utility.yul\":4486:4491   */\n      dup2\n        /* \"#utility.yul\":4482:4498   */\n      add\n        /* \"#utility.yul\":4531:4534   */\n      dup5\n        /* \"#utility.yul\":4522:4528   */\n      dup5\n        /* \"#utility.yul\":4517:4520   */\n      dup5\n        /* \"#utility.yul\":4513:4529   */\n      add\n        /* \"#utility.yul\":4510:4535   */\n      gt\n        /* \"#utility.yul\":4507:4619   */\n      iszero\n      tag_181\n      jumpi\n        /* \"#utility.yul\":4538:4617   */\n      tag_182\n      tag_112\n      jump\t// in\n    tag_182:\n        /* \"#utility.yul\":4507:4619   */\n    tag_181:\n        /* \"#utility.yul\":4628:4682   */\n      tag_183\n        /* \"#utility.yul\":4675:4681   */\n      dup5\n        /* \"#utility.yul\":4670:4673   */\n      dup3\n        /* \"#utility.yul\":4665:4668   */\n      dup6\n        /* \"#utility.yul\":4628:4682   */\n      tag_117\n      jump\t// in\n    tag_183:\n        /* \"#utility.yul\":4347:4688   */\n      pop\n        /* \"#utility.yul\":4263:4688   */\n      swap4\n      swap3\n      pop\n      pop\n      pop\n      jump\t// out\n        /* \"#utility.yul\":4708:5048   */\n    tag_119:\n        /* \"#utility.yul\":4764:4769   */\n      0x00\n        /* \"#utility.yul\":4813:4816   */\n      dup3\n        /* \"#utility.yul\":4806:4810   */\n      0x1f\n        /* \"#utility.yul\":4798:4804   */\n      dup4\n        /* \"#utility.yul\":4794:4811   */\n      add\n        /* \"#utility.yul\":4790:4817   */\n      slt\n        /* \"#utility.yul\":4780:4902   */\n      tag_185\n      jumpi\n        /* \"#utility.yul\":4821:4900   */\n      tag_186\n      tag_111\n      jump\t// in\n    tag_186:\n        /* \"#utility.yul\":4780:4902   */\n    tag_185:\n        /* \"#utility.yul\":4938:4944   */\n      dup2\n        /* \"#utility.yul\":4925:4945   */\n      calldataload\n        /* \"#utility.yul\":4963:5042   */\n      tag_187\n        /* \"#utility.yul\":5038:5041   */\n      dup5\n        /* \"#utility.yul\":5030:5036   */\n      dup3\n        /* \"#utility.yul\":5023:5027   */\n      0x20\n        /* \"#utility.yul\":5015:5021   */\n      dup7\n        /* \"#utility.yul\":5011:5028   */\n      add\n        /* \"#utility.yul\":4963:5042   */\n      tag_118\n      jump\t// in\n    tag_187:\n        /* \"#utility.yul\":4954:5042   */\n      swap2\n      pop\n        /* \"#utility.yul\":4770:5048   */\n      pop\n        /* \"#utility.yul\":4708:5048   */\n      swap3\n      swap2\n      pop\n      pop\n      jump\t// out\n        /* \"#utility.yul\":5054:5708   */\n    tag_33:\n        /* \"#utility.yul\":5132:5138   */\n      0x00\n        /* \"#utility.yul\":5140:5146   */\n      dup1\n        /* \"#utility.yul\":5189:5191   */\n      0x40\n        /* \"#utility.yul\":5177:5186   */\n      dup4\n        /* \"#utility.yul\":5168:5175   */\n      dup6\n        /* \"#utility.yul\":5164:5187   */\n      sub\n        /* \"#utility.yul\":5160:5192   */\n      slt\n        /* \"#utility.yul\":5157:5276   */\n      iszero\n      tag_189\n      jumpi\n        /* \"#utility.yul\":5195:5274   */\n      tag_190\n      tag_105\n      jump\t// in\n    tag_190:\n        /* \"#utility.yul\":5157:5276   */\n    tag_189:\n        /* \"#utility.yul\":5315:5316   */\n      0x00\n        /* \"#utility.yul\":5340:5393   */\n      tag_191\n        /* \"#utility.yul\":5385:5392   */\n      dup6\n        /* \"#utility.yul\":5376:5382   */\n      dup3\n        /* \"#utility.yul\":5365:5374   */\n      dup7\n        /* \"#utility.yul\":5361:5383   */\n      add\n        /* \"#utility.yul\":5340:5393   */\n      tag_110\n      jump\t// in\n    tag_191:\n        /* \"#utility.yul\":5330:5393   */\n      swap3\n      pop\n        /* \"#utility.yul\":5286:5403   */\n      pop\n        /* \"#utility.yul\":5470:5472   */\n      0x20\n        /* \"#utility.yul\":5459:5468   */\n      dup4\n        /* \"#utility.yul\":5455:5473   */\n      add\n        /* \"#utility.yul\":5442:5474   */\n      calldataload\n        /* \"#utility.yul\":5501:5519   */\n      0xffffffffffffffff\n        /* \"#utility.yul\":5493:5499   */\n      dup2\n        /* \"#utility.yul\":5490:5520   */\n      gt\n        /* \"#utility.yul\":5487:5604   */\n      iszero\n      tag_192\n      jumpi\n        /* \"#utility.yul\":5523:5602   */\n      tag_193\n      tag_106\n      jump\t// in\n    tag_193:\n        /* \"#utility.yul\":5487:5604   */\n    tag_192:\n        /* \"#utility.yul\":5628:5691   */\n      tag_194\n        /* \"#utility.yul\":5683:5690   */\n      dup6\n        /* \"#utility.yul\":5674:5680   */\n      dup3\n        /* \"#utility.yul\":5663:5672   */\n      dup7\n        /* \"#utility.yul\":5659:5681   */\n      add\n        /* \"#utility.yul\":5628:5691   */\n      tag_119\n      jump\t// in\n    tag_194:\n        /* \"#utility.yul\":5618:5691   */\n      swap2\n      pop\n        /* \"#utility.yul\":5413:5701   */\n      pop\n        /* \"#utility.yul\":5054:5708   */\n      swap3\n      pop\n      swap3\n      swap1\n      pop\n      jump\t// out\n        /* \"#utility.yul\":5714:5804   */\n    tag_120:\n        /* \"#utility.yul\":5748:5755   */\n      0x00\n        /* \"#utility.yul\":5791:5796   */\n      dup2\n        /* \"#utility.yul\":5784:5797   */\n      iszero\n        /* \"#utility.yul\":5777:5798   */\n      iszero\n        /* \"#utility.yul\":5766:5798   */\n      swap1\n      pop\n        /* \"#utility.yul\":5714:5804   */\n      swap2\n      swap1\n      pop\n      jump\t// out\n        /* \"#utility.yul\":5810:5919   */\n    tag_121:\n        /* \"#utility.yul\":5891:5912   */\n      tag_197\n        /* \"#utility.yul\":5906:5911   */\n      dup2\n        /* \"#utility.yul\":5891:5912   */\n      tag_120\n      jump\t// in\n    tag_197:\n        /* \"#utility.yul\":5886:5889   */\n      dup3\n        /* \"#utility.yul\":5879:5913   */\n      mstore\n        /* \"#utility.yul\":5810:5919   */\n      pop\n      pop\n      jump\t// out\n        /* \"#utility.yul\":5925:6002   */\n    tag_122:\n        /* \"#utility.yul\":5962:5969   */\n      0x00\n        /* \"#utility.yul\":5991:5996   */\n      dup2\n        /* \"#utility.yul\":5980:5996   */\n      swap1\n      pop\n        /* \"#utility.yul\":5925:6002   */\n      swap2\n      swap1\n      pop\n      jump\t// out\n        /* \"#utility.yul\":6008:6126   */\n    tag_123:\n        /* \"#utility.yul\":6095:6119   */\n      tag_200\n        /* \"#utility.yul\":6113:6118   */\n      dup2\n        /* \"#utility.yul\":6095:6119   */\n      tag_122\n      jump\t// in\n    tag_200:\n        /* \"#utility.yul\":6090:6093   */\n      dup3\n        /* \"#utility.yul\":6083:6120   */\n      mstore\n        /* \"#utility.yul\":6008:6126   */\n      pop\n      pop\n      jump\t// out\n        /* \"#utility.yul\":6132:6452   */\n    tag_36:\n        /* \"#utility.yul\":6247:6251   */\n      0x00\n        /* \"#utility.yul\":6285:6287   */\n      0x40\n        /* \"#utility.yul\":6274:6283   */\n      dup3\n        /* \"#utility.yul\":6270:6288   */\n      add\n        /* \"#utility.yul\":6262:6288   */\n      swap1\n      pop\n        /* \"#utility.yul\":6298:6363   */\n      tag_202\n        /* \"#utility.yul\":6360:6361   */\n      0x00\n        /* \"#utility.yul\":6349:6358   */\n      dup4\n        /* \"#utility.yul\":6345:6362   */\n      add\n        /* \"#utility.yul\":6336:6342   */\n      dup6\n        /* \"#utility.yul\":6298:6363   */\n      tag_121\n      jump\t// in\n    tag_202:\n        /* \"#utility.yul\":6373:6445   */\n      tag_203\n        /* \"#utility.yul\":6441:6443   */\n      0x20\n        /* \"#utility.yul\":6430:6439   */\n      dup4\n        /* \"#utility.yul\":6426:6444   */\n      add\n        /* \"#utility.yul\":6417:6423   */\n      dup5\n        /* \"#utility.yul\":6373:6445   */\n      tag_123\n      jump\t// in\n    tag_203:\n        /* \"#utility.yul\":6132:6452   */\n      swap4\n      swap3\n      pop\n      pop\n      pop\n      jump\t// out\n        /* \"#utility.yul\":6458:6680   */\n    tag_55:\n        /* \"#utility.yul\":6551:6555   */\n      0x00\n        /* \"#utility.yul\":6589:6591   */\n      0x20\n        /* \"#utility.yul\":6578:6587   */\n      dup3\n        /* \"#utility.yul\":6574:6592   */\n      add\n        /* \"#utility.yul\":6566:6592   */\n      swap1\n      pop\n        /* \"#utility.yul\":6602:6673   */\n      tag_205\n        /* \"#utility.yul\":6670:6671   */\n      0x00\n        /* \"#utility.yul\":6659:6668   */\n      dup4\n        /* \"#utility.yul\":6655:6672   */\n      add\n        /* \"#utility.yul\":6646:6652   */\n      dup5\n        /* \"#utility.yul\":6602:6673   */\n      tag_123\n      jump\t// in\n    tag_205:\n        /* \"#utility.yul\":6458:6680   */\n      swap3\n      swap2\n      pop\n      pop\n      jump\t// out\n        /* \"#utility.yul\":6686:6866   */\n    tag_124:\n        /* \"#utility.yul\":6734:6811   */\n      0x4e487b7100000000000000000000000000000000000000000000000000000000\n        /* \"#utility.yul\":6731:6732   */\n      0x00\n        /* \"#utility.yul\":6724:6812   */\n      mstore\n        /* \"#utility.yul\":6831:6835   */\n      0x22\n        /* \"#utility.yul\":6828:6829   */\n      0x04\n        /* \"#utility.yul\":6821:6836   */\n      mstore\n        /* \"#utility.yul\":6855:6859   */\n      0x24\n        /* \"#utility.yul\":6852:6853   */\n      0x00\n        /* \"#utility.yul\":6845:6860   */\n      revert\n        /* \"#utility.yul\":6872:7192   */\n    tag_61:\n        /* \"#utility.yul\":6916:6922   */\n      0x00\n        /* \"#utility.yul\":6953:6954   */\n      0x02\n        /* \"#utility.yul\":6947:6951   */\n      dup3\n        /* \"#utility.yul\":6943:6955   */\n      div\n        /* \"#utility.yul\":6933:6955   */\n      swap1\n      pop\n        /* \"#utility.yul\":7000:7001   */\n      0x01\n        /* \"#utility.yul\":6994:6998   */\n      dup3\n        /* \"#utility.yul\":6990:7002   */\n      and\n        /* \"#utility.yul\":7021:7039   */\n      dup1\n        /* \"#utility.yul\":7011:7092   */\n      tag_208\n      jumpi\n        /* \"#utility.yul\":7077:7081   */\n      0x7f\n        /* \"#utility.yul\":7069:7075   */\n      dup3\n        /* \"#utility.yul\":7065:7082   */\n      and\n        /* \"#utility.yul\":7055:7082   */\n      swap2\n      pop\n        /* \"#utility.yul\":7011:7092   */\n    tag_208:\n        /* \"#utility.yul\":7139:7141   */\n      0x20\n        /* \"#utility.yul\":7131:7137   */\n      dup3\n        /* \"#utility.yul\":7128:7142   */\n      lt\n        /* \"#utility.yul\":7108:7126   */\n      dup2\n        /* \"#utility.yul\":7105:7143   */\n      sub\n        /* \"#utility.yul\":7102:7186   */\n      tag_209\n      jumpi\n        /* \"#utility.yul\":7158:7176   */\n      tag_210\n      tag_124\n      jump\t// in\n    tag_210:\n        /* \"#utility.yul\":7102:7186   */\n    tag_209:\n        /* \"#utility.yul\":6923:7192   */\n      pop\n        /* \"#utility.yul\":6872:7192   */\n      swap2\n      swap1\n      pop\n      jump\t// out\n        /* \"#utility.yul\":7198:7346   */\n    tag_125:\n        /* \"#utility.yul\":7300:7311   */\n      0x00\n        /* \"#utility.yul\":7337:7340   */\n      dup2\n        /* \"#utility.yul\":7322:7340   */\n      swap1\n      pop\n        /* \"#utility.yul\":7198:7346   */\n      swap3\n      swap2\n      pop\n      pop\n      jump\t// out\n        /* \"#utility.yul\":7352:7493   */\n    tag_126:\n        /* \"#utility.yul\":7401:7405   */\n      0x00\n        /* \"#utility.yul\":7424:7427   */\n      dup2\n        /* \"#utility.yul\":7416:7427   */\n      swap1\n      pop\n        /* \"#utility.yul\":7447:7450   */\n      dup2\n        /* \"#utility.yul\":7444:7445   */\n      0x00\n        /* \"#utility.yul\":7437:7451   */\n      mstore\n        /* \"#utility.yul\":7481:7485   */\n      0x20\n        /* \"#utility.yul\":7478:7479   */\n      0x00\n        /* \"#utility.yul\":7468:7486   */\n      keccak256\n        /* \"#utility.yul\":7460:7486   */\n      swap1\n      pop\n        /* \"#utility.yul\":7352:7493   */\n      swap2\n      swap1\n      pop\n      jump\t// out\n        /* \"#utility.yul\":7523:8397   */\n    tag_127:\n        /* \"#utility.yul\":7626:7629   */\n      0x00\n        /* \"#utility.yul\":7663:7668   */\n      dup2\n        /* \"#utility.yul\":7657:7669   */\n      sload\n        /* \"#utility.yul\":7692:7728   */\n      tag_214\n        /* \"#utility.yul\":7718:7727   */\n      dup2\n        /* \"#utility.yul\":7692:7728   */\n      tag_61\n      jump\t// in\n    tag_214:\n        /* \"#utility.yul\":7744:7833   */\n      tag_215\n        /* \"#utility.yul\":7826:7832   */\n      dup2\n        /* \"#utility.yul\":7821:7824   */\n      dup7\n        /* \"#utility.yul\":7744:7833   */\n      tag_125\n      jump\t// in\n    tag_215:\n        /* \"#utility.yul\":7737:7833   */\n      swap5\n      pop\n        /* \"#utility.yul\":7864:7865   */\n      0x01\n        /* \"#utility.yul\":7853:7862   */\n      dup3\n        /* \"#utility.yul\":7849:7866   */\n      and\n        /* \"#utility.yul\":7880:7881   */\n      0x00\n        /* \"#utility.yul\":7875:8041   */\n      dup2\n      eq\n      tag_217\n      jumpi\n        /* \"#utility.yul\":8055:8056   */\n      0x01\n        /* \"#utility.yul\":8050:8391   */\n      dup2\n      eq\n      tag_218\n      jumpi\n        /* \"#utility.yul\":7842:8391   */\n      jump(tag_216)\n        /* \"#utility.yul\":7875:8041   */\n    tag_217:\n        /* \"#utility.yul\":7959:7963   */\n      0xff\n        /* \"#utility.yul\":7955:7964   */\n      not\n        /* \"#utility.yul\":7944:7953   */\n      dup4\n        /* \"#utility.yul\":7940:7965   */\n      and\n        /* \"#utility.yul\":7935:7938   */\n      dup7\n        /* \"#utility.yul\":7928:7966   */\n      mstore\n        /* \"#utility.yul\":8021:8027   */\n      dup2\n        /* \"#utility.yul\":8014:8028   */\n      iszero\n        /* \"#utility.yul\":8007:8029   */\n      iszero\n        /* \"#utility.yul\":7999:8005   */\n      dup3\n        /* \"#utility.yul\":7995:8030   */\n      mul\n        /* \"#utility.yul\":7990:7993   */\n      dup7\n        /* \"#utility.yul\":7986:8031   */\n      add\n        /* \"#utility.yul\":7979:8031   */\n      swap4\n      pop\n        /* \"#utility.yul\":7875:8041   */\n      jump(tag_216)\n        /* \"#utility.yul\":8050:8391   */\n    tag_218:\n        /* \"#utility.yul\":8117:8155   */\n      tag_219\n        /* \"#utility.yul\":8149:8154   */\n      dup6\n        /* \"#utility.yul\":8117:8155   */\n      tag_126\n      jump\t// in\n    tag_219:\n        /* \"#utility.yul\":8177:8178   */\n      0x00\n        /* \"#utility.yul\":8191:8345   */\n    tag_220:\n        /* \"#utility.yul\":8205:8211   */\n      dup4\n        /* \"#utility.yul\":8202:8203   */\n      dup2\n        /* \"#utility.yul\":8199:8212   */\n      lt\n        /* \"#utility.yul\":8191:8345   */\n      iszero\n      tag_222\n      jumpi\n        /* \"#utility.yul\":8279:8286   */\n      dup2\n        /* \"#utility.yul\":8273:8287   */\n      sload\n        /* \"#utility.yul\":8269:8270   */\n      dup2\n        /* \"#utility.yul\":8264:8267   */\n      dup10\n        /* \"#utility.yul\":8260:8271   */\n      add\n        /* \"#utility.yul\":8253:8288   */\n      mstore\n        /* \"#utility.yul\":8329:8330   */\n      0x01\n        /* \"#utility.yul\":8320:8327   */\n      dup3\n        /* \"#utility.yul\":8316:8331   */\n      add\n        /* \"#utility.yul\":8305:8331   */\n      swap2\n      pop\n        /* \"#utility.yul\":8227:8231   */\n      0x20\n        /* \"#utility.yul\":8224:8225   */\n      dup2\n        /* \"#utility.yul\":8220:8232   */\n      add\n        /* \"#utility.yul\":8215:8232   */\n      swap1\n      pop\n        /* \"#utility.yul\":8191:8345   */\n      jump(tag_220)\n    tag_222:\n        /* \"#utility.yul\":8374:8380   */\n      dup4\n        /* \"#utility.yul\":8369:8372   */\n      dup9\n        /* \"#utility.yul\":8365:8381   */\n      add\n        /* \"#utility.yul\":8358:8381   */\n      swap6\n      pop\n        /* \"#utility.yul\":8057:8391   */\n      pop\n      pop\n        /* \"#utility.yul\":7842:8391   */\n    tag_216:\n      pop\n        /* \"#utility.yul\":7630:8397   */\n      pop\n      pop\n        /* \"#utility.yul\":7523:8397   */\n      swap3\n      swap2\n      pop\n      pop\n      jump\t// out\n        /* \"#utility.yul\":8403:8793   */\n    tag_128:\n        /* \"#utility.yul\":8509:8512   */\n      0x00\n        /* \"#utility.yul\":8537:8576   */\n      tag_224\n        /* \"#utility.yul\":8570:8575   */\n      dup3\n        /* \"#utility.yul\":8537:8576   */\n      tag_97\n      jump\t// in\n    tag_224:\n        /* \"#utility.yul\":8592:8681   */\n      tag_225\n        /* \"#utility.yul\":8674:8680   */\n      dup2\n        /* \"#utility.yul\":8669:8672   */\n      dup6\n        /* \"#utility.yul\":8592:8681   */\n      tag_125\n      jump\t// in\n    tag_225:\n        /* \"#utility.yul\":8585:8681   */\n      swap4\n      pop\n        /* \"#utility.yul\":8690:8755   */\n      tag_226\n        /* \"#utility.yul\":8748:8754   */\n      dup2\n        /* \"#utility.yul\":8743:8746   */\n      dup6\n        /* \"#utility.yul\":8736:8740   */\n      0x20\n        /* \"#utility.yul\":8729:8734   */\n      dup7\n        /* \"#utility.yul\":8725:8741   */\n      add\n        /* \"#utility.yul\":8690:8755   */\n      tag_99\n      jump\t// in\n    tag_226:\n        /* \"#utility.yul\":8780:8786   */\n      dup1\n        /* \"#utility.yul\":8775:8778   */\n      dup5\n        /* \"#utility.yul\":8771:8787   */\n      add\n        /* \"#utility.yul\":8764:8787   */\n      swap2\n      pop\n        /* \"#utility.yul\":8513:8793   */\n      pop\n        /* \"#utility.yul\":8403:8793   */\n      swap3\n      swap2\n      pop\n      pop\n      jump\t// out\n        /* \"#utility.yul\":8799:9228   */\n    tag_68:\n        /* \"#utility.yul\":8976:8979   */\n      0x00\n        /* \"#utility.yul\":8998:9090   */\n      tag_228\n        /* \"#utility.yul\":9086:9089   */\n      dup3\n        /* \"#utility.yul\":9077:9083   */\n      dup6\n        /* \"#utility.yul\":8998:9090   */\n      tag_127\n      jump\t// in\n    tag_228:\n        /* \"#utility.yul\":8991:9090   */\n      swap2\n      pop\n        /* \"#utility.yul\":9107:9202   */\n      tag_229\n        /* \"#utility.yul\":9198:9201   */\n      dup3\n        /* \"#utility.yul\":9189:9195   */\n      dup5\n        /* \"#utility.yul\":9107:9202   */\n      tag_128\n      jump\t// in\n    tag_229:\n        /* \"#utility.yul\":9100:9202   */\n      swap2\n      pop\n        /* \"#utility.yul\":9219:9222   */\n      dup2\n        /* \"#utility.yul\":9212:9222   */\n      swap1\n      pop\n        /* \"#utility.yul\":8799:9228   */\n      swap4\n      swap3\n      pop\n      pop\n      pop\n      jump\t// out\n        /* \"#utility.yul\":9234:9414   */\n    tag_75:\n        /* \"#utility.yul\":9282:9359   */\n      0x4e487b7100000000000000000000000000000000000000000000000000000000\n        /* \"#utility.yul\":9279:9280   */\n      0x00\n        /* \"#utility.yul\":9272:9360   */\n      mstore\n        /* \"#utility.yul\":9379:9383   */\n      0x32\n        /* \"#utility.yul\":9376:9377   */\n      0x04\n        /* \"#utility.yul\":9369:9384   */\n      mstore\n        /* \"#utility.yul\":9403:9407   */\n      0x24\n        /* \"#utility.yul\":9400:9401   */\n      0x00\n        /* \"#utility.yul\":9393:9408   */\n      revert\n        /* \"#utility.yul\":9420:9600   */\n    tag_129:\n        /* \"#utility.yul\":9468:9545   */\n      0x4e487b7100000000000000000000000000000000000000000000000000000000\n        /* \"#utility.yul\":9465:9466   */\n      0x00\n        /* \"#utility.yul\":9458:9546   */\n      mstore\n        /* \"#utility.yul\":9565:9569   */\n      0x11\n        /* \"#utility.yul\":9562:9563   */\n      0x04\n        /* \"#utility.yul\":9555:9570   */\n      mstore\n        /* \"#utility.yul\":9589:9593   */\n      0x24\n        /* \"#utility.yul\":9586:9587   */\n      0x00\n        /* \"#utility.yul\":9579:9594   */\n      revert\n        /* \"#utility.yul\":9606:9773   */\n    tag_78:\n        /* \"#utility.yul\":9643:9646   */\n      0x00\n        /* \"#utility.yul\":9666:9688   */\n      tag_233\n        /* \"#utility.yul\":9682:9687   */\n      dup3\n        /* \"#utility.yul\":9666:9688   */\n      tag_102\n      jump\t// in\n    tag_233:\n        /* \"#utility.yul\":9657:9688   */\n      swap2\n      pop\n        /* \"#utility.yul\":9710:9714   */\n      0xff\n        /* \"#utility.yul\":9703:9708   */\n      dup3\n        /* \"#utility.yul\":9700:9715   */\n      sub\n        /* \"#utility.yul\":9697:9738   */\n      tag_234\n      jumpi\n        /* \"#utility.yul\":9718:9736   */\n      tag_235\n      tag_129\n      jump\t// in\n    tag_235:\n        /* \"#utility.yul\":9697:9738   */\n    tag_234:\n        /* \"#utility.yul\":9765:9766   */\n      0x01\n        /* \"#utility.yul\":9758:9763   */\n      dup3\n        /* \"#utility.yul\":9754:9767   */\n      add\n        /* \"#utility.yul\":9747:9767   */\n      swap1\n      pop\n        /* \"#utility.yul\":9606:9773   */\n      swap2\n      swap1\n      pop\n      jump\t// out\n\n    auxdata: 0xa26469706673582212202ee99f0a55f292f0117329f20d9e897459eb6e84223f7b6467ba76b2a934f1f964736f6c63430008190033\n}\n",
				"bytecode": {
					"linkReferences": {},
					"object": "6080604052600160075f6101000a81548160ff021916908360ff1602179055505f600a5f6101000a81548160ff021916908360ff160217905550609060f81b600a60016101000a81548160ff021916908360f81c0217905550348015610063575f80fd5b506040516118b93803806118b983398181016040528101906100859190610725565b43600581905550600554406006819055508460045f6101000a81548160ff021916908360ff160217905550835f8190555082600290816100c591906109d8565b5081600390816100d591906109d8565b50806001819055506100eb61016460201b60201c565b600890816100f991906109d8565b5061010b6001546102ca60201b60201c565b60098190555060086040516101209190610b31565b60405180910390206006546005547f9f4da1eb02e98b4ab1d9b713f225d0f993b2222a21852024e9d90204be64706a60405160405180910390a45050505050610d5f565b60605f6009546001546101779190610b74565b9050805f5410156101bd576040517f08c379a00000000000000000000000000000000000000000000000000000000081526004016101b490610c01565b60405180910390fd5b5f6101ce5f546102f860201b60201c565b90505f6101e26001546102f860201b60201c565b90505f600380546101f29061080b565b80601f016020809104026020016040519081016040528092919081815260200182805461021e9061080b565b80156102695780601f1061024057610100808354040283529160200191610269565b820191905f5260205f20905b81548152906001019060200180831161024c57829003601f168201915b505050505090505f6006546040516020016102849190610c48565b60405160208183030381529060405290505f828585846040516020016102ad9493929190610c92565b604051602081830303815290604052905080965050505050505090565b5f806102ed8360045f9054906101000a900460ff1660ff166103c860201b60201c565b905080915050919050565b60605f600161030c8461041e60201b60201c565b0190505f8167ffffffffffffffff81111561032a57610329610601565b5b6040519080825280601f01601f19166020018201604052801561035c5781602001600182028036833780820191505090505b5090505f82602001820190505b6001156103bd578080600190039150507f3031323334353637383961626364656600000000000000000000000000000000600a86061a8153600a85816103b2576103b1610ccf565b5b0494505f8503610369575b819350505050919050565b5f8082036103e35781836103dc9190610cfc565b9050610418565b5f8314610413576001826001856103fa9190610d2c565b6104049190610cfc565b61040e9190610b74565b610415565b5f5b90505b92915050565b5f805f90507a184f03e93ff9f4daa797ed6e38ed64bf6a1f010000000000000000831061047a577a184f03e93ff9f4daa797ed6e38ed64bf6a1f01000000000000000083816104705761046f610ccf565b5b0492506040810190505b6d04ee2d6d415b85acef810000000083106104b7576d04ee2d6d415b85acef810000000083816104ad576104ac610ccf565b5b0492506020810190505b662386f26fc1000083106104e657662386f26fc1000083816104dc576104db610ccf565b5b0492506010810190505b6305f5e100831061050f576305f5e100838161050557610504610ccf565b5b0492506008810190505b612710831061053457612710838161052a57610529610ccf565b5b0492506004810190505b60648310610557576064838161054d5761054c610ccf565b5b0492506002810190505b600a8310610566576001810190505b80915050919050565b5f604051905090565b5f80fd5b5f80fd5b5f60ff82169050919050565b61059581610580565b811461059f575f80fd5b50565b5f815190506105b08161058c565b92915050565b5f819050919050565b6105c8816105b6565b81146105d2575f80fd5b50565b5f815190506105e3816105bf565b92915050565b5f80fd5b5f80fd5b5f601f19601f8301169050919050565b7f4e487b71000000000000000000000000000000000000000000000000000000005f52604160045260245ffd5b610637826105f1565b810181811067ffffffffffffffff8211171561065657610655610601565b5b80604052505050565b5f61066861056f565b9050610674828261062e565b919050565b5f67ffffffffffffffff82111561069357610692610601565b5b61069c826105f1565b9050602081019050919050565b8281835e5f83830152505050565b5f6106c96106c484610679565b61065f565b9050828152602081018484840111156106e5576106e46105ed565b5b6106f08482856106a9565b509392505050565b5f82601f83011261070c5761070b6105e9565b5b815161071c8482602086016106b7565b91505092915050565b5f805f805f60a0868803121561073e5761073d610578565b5b5f61074b888289016105a2565b955050602061075c888289016105d5565b945050604086015167ffffffffffffffff81111561077d5761077c61057c565b5b610789888289016106f8565b935050606086015167ffffffffffffffff8111156107aa576107a961057c565b5b6107b6888289016106f8565b92505060806107c7888289016105d5565b9150509295509295909350565b5f81519050919050565b7f4e487b71000000000000000000000000000000000000000000000000000000005f52602260045260245ffd5b5f600282049050600182168061082257607f821691505b602082108103610835576108346107de565b5b50919050565b5f819050815f5260205f209050919050565b5f6020601f8301049050919050565b5f82821b905092915050565b5f600883026108977fffffffffffffffffffffffffffffffffffffffffffffffffffffffffffffffff8261085c565b6108a1868361085c565b95508019841693508086168417925050509392505050565b5f819050919050565b5f6108dc6108d76108d2846105b6565b6108b9565b6105b6565b9050919050565b5f819050919050565b6108f5836108c2565b610909610901826108e3565b848454610868565b825550505050565b5f90565b61091d610911565b6109288184846108ec565b505050565b5b8181101561094b576109405f82610915565b60018101905061092e565b5050565b601f821115610990576109618161083b565b61096a8461084d565b81016020851015610979578190505b61098d6109858561084d565b83018261092d565b50505b505050565b5f82821c905092915050565b5f6109b05f1984600802610995565b1980831691505092915050565b5f6109c883836109a1565b9150826002028217905092915050565b6109e1826107d4565b67ffffffffffffffff8111156109fa576109f9610601565b5b610a04825461080b565b610a0f82828561094f565b5f60209050601f831160018114610a40575f8415610a2e578287015190505b610a3885826109bd565b865550610a9f565b601f198416610a4e8661083b565b5f5b82811015610a7557848901518255600182019150602085019450602081019050610a50565b86831015610a925784890151610a8e601f8916826109a1565b8355505b6001600288020188555050505b505050505050565b5f81905092915050565b5f8154610abd8161080b565b610ac78186610aa7565b9450600182165f8114610ae15760018114610af657610b28565b60ff1983168652811515820286019350610b28565b610aff8561083b565b5f5b83811015610b2057815481890152600182019150602081019050610b01565b838801955050505b50505092915050565b5f610b3c8284610ab1565b915081905092915050565b7f4e487b71000000000000000000000000000000000000000000000000000000005f52601160045260245ffd5b5f610b7e826105b6565b9150610b89836105b6565b9250828201905080821115610ba157610ba0610b47565b5b92915050565b5f82825260208201905092915050565b7f4e6f7420656e6f75676820746f6b656e7320617661696c61626c652e000000005f82015250565b5f610beb601c83610ba7565b9150610bf682610bb7565b602082019050919050565b5f6020820190508181035f830152610c1881610bdf565b9050919050565b5f819050919050565b5f819050919050565b610c42610c3d82610c1f565b610c28565b82525050565b5f610c538284610c31565b60208201915081905092915050565b5f610c6c826107d4565b610c768185610aa7565b9350610c868185602086016106a9565b80840191505092915050565b5f610c9d8287610c62565b9150610ca98286610c62565b9150610cb58285610c62565b9150610cc18284610c62565b915081905095945050505050565b7f4e487b71000000000000000000000000000000000000000000000000000000005f52601260045260245ffd5b5f610d06826105b6565b9150610d11836105b6565b925082610d2157610d20610ccf565b5b828204905092915050565b5f610d36826105b6565b9150610d41836105b6565b9250828203905081811115610d5957610d58610b47565b5b92915050565b610b4d80610d6c5f395ff3fe608060405234801561000f575f80fd5b50600436106100b2575f3560e01c80636a49f9791161006f5780636a49f9791461017d57806395d89b411461019b578063b62a62ec146101b9578063e8315742146101d7578063f22a195e146101f5578063f82900b114610213576100b2565b80630572b0cc146100b657806306fdde03146100d457806318160ddd146100f25780633ba0b9a9146101105780634fc8a9911461012e57806357e871e71461015f575b5f80fd5b6100be610231565b6040516100cb9190610609565b60405180910390f35b6100dc61023a565b6040516100e99190610692565b60405180910390f35b6100fa6102c6565b6040516101079190610609565b60405180910390f35b6101186102cc565b60405161012591906106cd565b60405180910390f35b6101486004803603810190610143919061087d565b6102de565b604051610156929190610909565b60405180910390f35b610167610432565b6040516101749190610609565b60405180910390f35b610185610438565b6040516101929190610692565b60405180910390f35b6101a36104c4565b6040516101b09190610692565b60405180910390f35b6101c1610550565b6040516101ce9190610692565b60405180910390f35b6101df6105e0565b6040516101ec9190610609565b60405180910390f35b6101fd6105e5565b60405161020a9190610930565b60405180910390f35b61021b6105eb565b6040516102289190610609565b60405180910390f35b5f600954905090565b6003805461024790610976565b80601f016020809104026020016040519081016040528092919081815260200182805461027390610976565b80156102be5780601f10610295576101008083540402835291602001916102be565b820191905f5260205f20905b8154815290600101906020018083116102a157829003601f168201915b505050505081565b60015481565b60045f9054906101000a900460ff1681565b5f805f6008846040516020016102f5929190610a72565b60405160208183030381529060405290505f816040516020016103189190610692565b6040516020818303038152906040528051906020012090505f5b60208160ff1611610421575f828260ff166020811061035457610353610a95565b5b1a60f81b9050600a60019054906101000a900460f81b7effffffffffffffffffffffffffffffffffffffffffffffffffffffffffffff1916817effffffffffffffffffffffffffffffffffffffffffffffffffffffffffffff19160361040d576009546005548973ffffffffffffffffffffffffffffffffffffffff167f5a9ec13c12ca9563a7b3108125f74c57ed388bb313394ea50f7e4a71b01497c260405160405180910390a4600183955095505050505061042b565b50808061041990610aef565b915050610332565b505f819350935050505b9250929050565b60055481565b6008805461044590610976565b80601f016020809104026020016040519081016040528092919081815260200182805461047190610976565b80156104bc5780601f10610493576101008083540402835291602001916104bc565b820191905f5260205f20905b81548152906001019060200180831161049f57829003601f168201915b505050505081565b600280546104d190610976565b80601f01602080910402602001604051908101604052809291908181526020018280546104fd90610976565b80156105485780601f1061051f57610100808354040283529160200191610548565b820191905f5260205f20905b81548152906001019060200180831161052b57829003601f168201915b505050505081565b60606008805461055f90610976565b80601f016020809104026020016040519081016040528092919081815260200182805461058b90610976565b80156105d65780601f106105ad576101008083540402835291602001916105d6565b820191905f5260205f20905b8154815290600101906020018083116105b957829003601f168201915b5050505050905090565b5f5481565b60065481565b60095481565b5f819050919050565b610603816105f1565b82525050565b5f60208201905061061c5f8301846105fa565b92915050565b5f81519050919050565b5f82825260208201905092915050565b8281835e5f83830152505050565b5f601f19601f8301169050919050565b5f61066482610622565b61066e818561062c565b935061067e81856020860161063c565b6106878161064a565b840191505092915050565b5f6020820190508181035f8301526106aa818461065a565b905092915050565b5f60ff82169050919050565b6106c7816106b2565b82525050565b5f6020820190506106e05f8301846106be565b92915050565b5f604051905090565b5f80fd5b5f80fd5b5f73ffffffffffffffffffffffffffffffffffffffff82169050919050565b5f610720826106f7565b9050919050565b61073081610716565b811461073a575f80fd5b50565b5f8135905061074b81610727565b92915050565b5f80fd5b5f80fd5b7f4e487b71000000000000000000000000000000000000000000000000000000005f52604160045260245ffd5b61078f8261064a565b810181811067ffffffffffffffff821117156107ae576107ad610759565b5b80604052505050565b5f6107c06106e6565b90506107cc8282610786565b919050565b5f67ffffffffffffffff8211156107eb576107ea610759565b5b6107f48261064a565b9050602081019050919050565b828183375f83830152505050565b5f61082161081c846107d1565b6107b7565b90508281526020810184848401111561083d5761083c610755565b5b610848848285610801565b509392505050565b5f82601f83011261086457610863610751565b5b813561087484826020860161080f565b91505092915050565b5f8060408385031215610893576108926106ef565b5b5f6108a08582860161073d565b925050602083013567ffffffffffffffff8111156108c1576108c06106f3565b5b6108cd85828601610850565b9150509250929050565b5f8115159050919050565b6108eb816108d7565b82525050565b5f819050919050565b610903816108f1565b82525050565b5f60408201905061091c5f8301856108e2565b61092960208301846108fa565b9392505050565b5f6020820190506109435f8301846108fa565b92915050565b7f4e487b71000000000000000000000000000000000000000000000000000000005f52602260045260245ffd5b5f600282049050600182168061098d57607f821691505b6020821081036109a05761099f610949565b5b50919050565b5f81905092915050565b5f819050815f5260205f209050919050565b5f81546109ce81610976565b6109d881866109a6565b9450600182165f81146109f25760018114610a0757610a39565b60ff1983168652811515820286019350610a39565b610a10856109b0565b5f5b83811015610a3157815481890152600182019150602081019050610a12565b838801955050505b50505092915050565b5f610a4c82610622565b610a5681856109a6565b9350610a6681856020860161063c565b80840191505092915050565b5f610a7d82856109c2565b9150610a898284610a42565b91508190509392505050565b7f4e487b71000000000000000000000000000000000000000000000000000000005f52603260045260245ffd5b7f4e487b71000000000000000000000000000000000000000000000000000000005f52601160045260245ffd5b5f610af9826106b2565b915060ff8203610b0c57610b0b610ac2565b5b60018201905091905056fea26469706673582212202ee99f0a55f292f0117329f20d9e897459eb6e84223f7b6467ba76b2a934f1f964736f6c63430008190033",
					"opcodes": "PUSH1 0x80 PUSH1 0x40 MSTORE PUSH1 0x1 PUSH1 0x7 PUSH0 PUSH2 0x100 EXP DUP2 SLOAD DUP2 PUSH1 0xFF MUL NOT AND SWAP1 DUP4 PUSH1 0xFF AND MUL OR SWAP1 SSTORE POP PUSH0 PUSH1 0xA PUSH0 PUSH2 0x100 EXP DUP2 SLOAD DUP2 PUSH1 0xFF MUL NOT AND SWAP1 DUP4 PUSH1 0xFF AND MUL OR SWAP1 SSTORE POP PUSH1 0x90 PUSH1 0xF8 SHL PUSH1 0xA PUSH1 0x1 PUSH2 0x100 EXP DUP2 SLOAD DUP2 PUSH1 0xFF MUL NOT AND SWAP1 DUP4 PUSH1 0xF8 SHR MUL OR SWAP1 SSTORE POP CALLVALUE DUP1 ISZERO PUSH2 0x63 JUMPI PUSH0 DUP1 REVERT JUMPDEST POP PUSH1 0x40 MLOAD PUSH2 0x18B9 CODESIZE SUB DUP1 PUSH2 0x18B9 DUP4 CODECOPY DUP2 DUP2 ADD PUSH1 0x40 MSTORE DUP2 ADD SWAP1 PUSH2 0x85 SWAP2 SWAP1 PUSH2 0x725 JUMP JUMPDEST NUMBER PUSH1 0x5 DUP2 SWAP1 SSTORE POP PUSH1 0x5 SLOAD BLOCKHASH PUSH1 0x6 DUP2 SWAP1 SSTORE POP DUP5 PUSH1 0x4 PUSH0 PUSH2 0x100 EXP DUP2 SLOAD DUP2 PUSH1 0xFF MUL NOT AND SWAP1 DUP4 PUSH1 0xFF AND MUL OR SWAP1 SSTORE POP DUP4 PUSH0 DUP2 SWAP1 SSTORE POP DUP3 PUSH1 0x2 SWAP1 DUP2 PUSH2 0xC5 SWAP2 SWAP1 PUSH2 0x9D8 JUMP JUMPDEST POP DUP2 PUSH1 0x3 SWAP1 DUP2 PUSH2 0xD5 SWAP2 SWAP1 PUSH2 0x9D8 JUMP JUMPDEST POP DUP1 PUSH1 0x1 DUP2 SWAP1 SSTORE POP PUSH2 0xEB PUSH2 0x164 PUSH1 0x20 SHL PUSH1 0x20 SHR JUMP JUMPDEST PUSH1 0x8 SWAP1 DUP2 PUSH2 0xF9 SWAP2 SWAP1 PUSH2 0x9D8 JUMP JUMPDEST POP PUSH2 0x10B PUSH1 0x1 SLOAD PUSH2 0x2CA PUSH1 0x20 SHL PUSH1 0x20 SHR JUMP JUMPDEST PUSH1 0x9 DUP2 SWAP1 SSTORE POP PUSH1 0x8 PUSH1 0x40 MLOAD PUSH2 0x120 SWAP2 SWAP1 PUSH2 0xB31 JUMP JUMPDEST PUSH1 0x40 MLOAD DUP1 SWAP2 SUB SWAP1 KECCAK256 PUSH1 0x6 SLOAD PUSH1 0x5 SLOAD PUSH32 0x9F4DA1EB02E98B4AB1D9B713F225D0F993B2222A21852024E9D90204BE64706A PUSH1 0x40 MLOAD PUSH1 0x40 MLOAD DUP1 SWAP2 SUB SWAP1 LOG4 POP POP POP POP POP PUSH2 0xD5F JUMP JUMPDEST PUSH1 0x60 PUSH0 PUSH1 0x9 SLOAD PUSH1 0x1 SLOAD PUSH2 0x177 SWAP2 SWAP1 PUSH2 0xB74 JUMP JUMPDEST SWAP1 POP DUP1 PUSH0 SLOAD LT ISZERO PUSH2 0x1BD JUMPI PUSH1 0x40 MLOAD PUSH32 0x8C379A000000000000000000000000000000000000000000000000000000000 DUP2 MSTORE PUSH1 0x4 ADD PUSH2 0x1B4 SWAP1 PUSH2 0xC01 JUMP JUMPDEST PUSH1 0x40 MLOAD DUP1 SWAP2 SUB SWAP1 REVERT JUMPDEST PUSH0 PUSH2 0x1CE PUSH0 SLOAD PUSH2 0x2F8 PUSH1 0x20 SHL PUSH1 0x20 SHR JUMP JUMPDEST SWAP1 POP PUSH0 PUSH2 0x1E2 PUSH1 0x1 SLOAD PUSH2 0x2F8 PUSH1 0x20 SHL PUSH1 0x20 SHR JUMP JUMPDEST SWAP1 POP PUSH0 PUSH1 0x3 DUP1 SLOAD PUSH2 0x1F2 SWAP1 PUSH2 0x80B JUMP JUMPDEST DUP1 PUSH1 0x1F ADD PUSH1 0x20 DUP1 SWAP2 DIV MUL PUSH1 0x20 ADD PUSH1 0x40 MLOAD SWAP1 DUP2 ADD PUSH1 0x40 MSTORE DUP1 SWAP3 SWAP2 SWAP1 DUP2 DUP2 MSTORE PUSH1 0x20 ADD DUP3 DUP1 SLOAD PUSH2 0x21E SWAP1 PUSH2 0x80B JUMP JUMPDEST DUP1 ISZERO PUSH2 0x269 JUMPI DUP1 PUSH1 0x1F LT PUSH2 0x240 JUMPI PUSH2 0x100 DUP1 DUP4 SLOAD DIV MUL DUP4 MSTORE SWAP2 PUSH1 0x20 ADD SWAP2 PUSH2 0x269 JUMP JUMPDEST DUP3 ADD SWAP2 SWAP1 PUSH0 MSTORE PUSH1 0x20 PUSH0 KECCAK256 SWAP1 JUMPDEST DUP2 SLOAD DUP2 MSTORE SWAP1 PUSH1 0x1 ADD SWAP1 PUSH1 0x20 ADD DUP1 DUP4 GT PUSH2 0x24C JUMPI DUP3 SWAP1 SUB PUSH1 0x1F AND DUP3 ADD SWAP2 JUMPDEST POP POP POP POP POP SWAP1 POP PUSH0 PUSH1 0x6 SLOAD PUSH1 0x40 MLOAD PUSH1 0x20 ADD PUSH2 0x284 SWAP2 SWAP1 PUSH2 0xC48 JUMP JUMPDEST PUSH1 0x40 MLOAD PUSH1 0x20 DUP2 DUP4 SUB SUB DUP2 MSTORE SWAP1 PUSH1 0x40 MSTORE SWAP1 POP PUSH0 DUP3 DUP6 DUP6 DUP5 PUSH1 0x40 MLOAD PUSH1 0x20 ADD PUSH2 0x2AD SWAP5 SWAP4 SWAP3 SWAP2 SWAP1 PUSH2 0xC92 JUMP JUMPDEST PUSH1 0x40 MLOAD PUSH1 0x20 DUP2 DUP4 SUB SUB DUP2 MSTORE SWAP1 PUSH1 0x40 MSTORE SWAP1 POP DUP1 SWAP7 POP POP POP POP POP POP POP SWAP1 JUMP JUMPDEST PUSH0 DUP1 PUSH2 0x2ED DUP4 PUSH1 0x4 PUSH0 SWAP1 SLOAD SWAP1 PUSH2 0x100 EXP SWAP1 DIV PUSH1 0xFF AND PUSH1 0xFF AND PUSH2 0x3C8 PUSH1 0x20 SHL PUSH1 0x20 SHR JUMP JUMPDEST SWAP1 POP DUP1 SWAP2 POP POP SWAP2 SWAP1 POP JUMP JUMPDEST PUSH1 0x60 PUSH0 PUSH1 0x1 PUSH2 0x30C DUP5 PUSH2 0x41E PUSH1 0x20 SHL PUSH1 0x20 SHR JUMP JUMPDEST ADD SWAP1 POP PUSH0 DUP2 PUSH8 0xFFFFFFFFFFFFFFFF DUP2 GT ISZERO PUSH2 0x32A JUMPI PUSH2 0x329 PUSH2 0x601 JUMP JUMPDEST JUMPDEST PUSH1 0x40 MLOAD SWAP1 DUP1 DUP3 MSTORE DUP1 PUSH1 0x1F ADD PUSH1 0x1F NOT AND PUSH1 0x20 ADD DUP3 ADD PUSH1 0x40 MSTORE DUP1 ISZERO PUSH2 0x35C JUMPI DUP2 PUSH1 0x20 ADD PUSH1 0x1 DUP3 MUL DUP1 CALLDATASIZE DUP4 CALLDATACOPY DUP1 DUP3 ADD SWAP2 POP POP SWAP1 POP JUMPDEST POP SWAP1 POP PUSH0 DUP3 PUSH1 0x20 ADD DUP3 ADD SWAP1 POP JUMPDEST PUSH1 0x1 ISZERO PUSH2 0x3BD JUMPI DUP1 DUP1 PUSH1 0x1 SWAP1 SUB SWAP2 POP POP PUSH32 0x3031323334353637383961626364656600000000000000000000000000000000 PUSH1 0xA DUP7 MOD BYTE DUP2 MSTORE8 PUSH1 0xA DUP6 DUP2 PUSH2 0x3B2 JUMPI PUSH2 0x3B1 PUSH2 0xCCF JUMP JUMPDEST JUMPDEST DIV SWAP5 POP PUSH0 DUP6 SUB PUSH2 0x369 JUMPI JUMPDEST DUP2 SWAP4 POP POP POP POP SWAP2 SWAP1 POP JUMP JUMPDEST PUSH0 DUP1 DUP3 SUB PUSH2 0x3E3 JUMPI DUP2 DUP4 PUSH2 0x3DC SWAP2 SWAP1 PUSH2 0xCFC JUMP JUMPDEST SWAP1 POP PUSH2 0x418 JUMP JUMPDEST PUSH0 DUP4 EQ PUSH2 0x413 JUMPI PUSH1 0x1 DUP3 PUSH1 0x1 DUP6 PUSH2 0x3FA SWAP2 SWAP1 PUSH2 0xD2C JUMP JUMPDEST PUSH2 0x404 SWAP2 SWAP1 PUSH2 0xCFC JUMP JUMPDEST PUSH2 0x40E SWAP2 SWAP1 PUSH2 0xB74 JUMP JUMPDEST PUSH2 0x415 JUMP JUMPDEST PUSH0 JUMPDEST SWAP1 POP JUMPDEST SWAP3 SWAP2 POP POP JUMP JUMPDEST PUSH0 DUP1 PUSH0 SWAP1 POP PUSH27 0x184F03E93FF9F4DAA797ED6E38ED64BF6A1F010000000000000000 DUP4 LT PUSH2 0x47A JUMPI PUSH27 0x184F03E93FF9F4DAA797ED6E38ED64BF6A1F010000000000000000 DUP4 DUP2 PUSH2 0x470 JUMPI PUSH2 0x46F PUSH2 0xCCF JUMP JUMPDEST JUMPDEST DIV SWAP3 POP PUSH1 0x40 DUP2 ADD SWAP1 POP JUMPDEST PUSH14 0x4EE2D6D415B85ACEF8100000000 DUP4 LT PUSH2 0x4B7 JUMPI PUSH14 0x4EE2D6D415B85ACEF8100000000 DUP4 DUP2 PUSH2 0x4AD JUMPI PUSH2 0x4AC PUSH2 0xCCF JUMP JUMPDEST JUMPDEST DIV SWAP3 POP PUSH1 0x20 DUP2 ADD SWAP1 POP JUMPDEST PUSH7 0x2386F26FC10000 DUP4 LT PUSH2 0x4E6 JUMPI PUSH7 0x2386F26FC10000 DUP4 DUP2 PUSH2 0x4DC JUMPI PUSH2 0x4DB PUSH2 0xCCF JUMP JUMPDEST JUMPDEST DIV SWAP3 POP PUSH1 0x10 DUP2 ADD SWAP1 POP JUMPDEST PUSH4 0x5F5E100 DUP4 LT PUSH2 0x50F JUMPI PUSH4 0x5F5E100 DUP4 DUP2 PUSH2 0x505 JUMPI PUSH2 0x504 PUSH2 0xCCF JUMP JUMPDEST JUMPDEST DIV SWAP3 POP PUSH1 0x8 DUP2 ADD SWAP1 POP JUMPDEST PUSH2 0x2710 DUP4 LT PUSH2 0x534 JUMPI PUSH2 0x2710 DUP4 DUP2 PUSH2 0x52A JUMPI PUSH2 0x529 PUSH2 0xCCF JUMP JUMPDEST JUMPDEST DIV SWAP3 POP PUSH1 0x4 DUP2 ADD SWAP1 POP JUMPDEST PUSH1 0x64 DUP4 LT PUSH2 0x557 JUMPI PUSH1 0x64 DUP4 DUP2 PUSH2 0x54D JUMPI PUSH2 0x54C PUSH2 0xCCF JUMP JUMPDEST JUMPDEST DIV SWAP3 POP PUSH1 0x2 DUP2 ADD SWAP1 POP JUMPDEST PUSH1 0xA DUP4 LT PUSH2 0x566 JUMPI PUSH1 0x1 DUP2 ADD SWAP1 POP JUMPDEST DUP1 SWAP2 POP POP SWAP2 SWAP1 POP JUMP JUMPDEST PUSH0 PUSH1 0x40 MLOAD SWAP1 POP SWAP1 JUMP JUMPDEST PUSH0 DUP1 REVERT JUMPDEST PUSH0 DUP1 REVERT JUMPDEST PUSH0 PUSH1 0xFF DUP3 AND SWAP1 POP SWAP2 SWAP1 POP JUMP JUMPDEST PUSH2 0x595 DUP2 PUSH2 0x580 JUMP JUMPDEST DUP2 EQ PUSH2 0x59F JUMPI PUSH0 DUP1 REVERT JUMPDEST POP JUMP JUMPDEST PUSH0 DUP2 MLOAD SWAP1 POP PUSH2 0x5B0 DUP2 PUSH2 0x58C JUMP JUMPDEST SWAP3 SWAP2 POP POP JUMP JUMPDEST PUSH0 DUP2 SWAP1 POP SWAP2 SWAP1 POP JUMP JUMPDEST PUSH2 0x5C8 DUP2 PUSH2 0x5B6 JUMP JUMPDEST DUP2 EQ PUSH2 0x5D2 JUMPI PUSH0 DUP1 REVERT JUMPDEST POP JUMP JUMPDEST PUSH0 DUP2 MLOAD SWAP1 POP PUSH2 0x5E3 DUP2 PUSH2 0x5BF JUMP JUMPDEST SWAP3 SWAP2 POP POP JUMP JUMPDEST PUSH0 DUP1 REVERT JUMPDEST PUSH0 DUP1 REVERT JUMPDEST PUSH0 PUSH1 0x1F NOT PUSH1 0x1F DUP4 ADD AND SWAP1 POP SWAP2 SWAP1 POP JUMP JUMPDEST PUSH32 0x4E487B7100000000000000000000000000000000000000000000000000000000 PUSH0 MSTORE PUSH1 0x41 PUSH1 0x4 MSTORE PUSH1 0x24 PUSH0 REVERT JUMPDEST PUSH2 0x637 DUP3 PUSH2 0x5F1 JUMP JUMPDEST DUP2 ADD DUP2 DUP2 LT PUSH8 0xFFFFFFFFFFFFFFFF DUP3 GT OR ISZERO PUSH2 0x656 JUMPI PUSH2 0x655 PUSH2 0x601 JUMP JUMPDEST JUMPDEST DUP1 PUSH1 0x40 MSTORE POP POP POP JUMP JUMPDEST PUSH0 PUSH2 0x668 PUSH2 0x56F JUMP JUMPDEST SWAP1 POP PUSH2 0x674 DUP3 DUP3 PUSH2 0x62E JUMP JUMPDEST SWAP2 SWAP1 POP JUMP JUMPDEST PUSH0 PUSH8 0xFFFFFFFFFFFFFFFF DUP3 GT ISZERO PUSH2 0x693 JUMPI PUSH2 0x692 PUSH2 0x601 JUMP JUMPDEST JUMPDEST PUSH2 0x69C DUP3 PUSH2 0x5F1 JUMP JUMPDEST SWAP1 POP PUSH1 0x20 DUP2 ADD SWAP1 POP SWAP2 SWAP1 POP JUMP JUMPDEST DUP3 DUP2 DUP4 MCOPY PUSH0 DUP4 DUP4 ADD MSTORE POP POP POP JUMP JUMPDEST PUSH0 PUSH2 0x6C9 PUSH2 0x6C4 DUP5 PUSH2 0x679 JUMP JUMPDEST PUSH2 0x65F JUMP JUMPDEST SWAP1 POP DUP3 DUP2 MSTORE PUSH1 0x20 DUP2 ADD DUP5 DUP5 DUP5 ADD GT ISZERO PUSH2 0x6E5 JUMPI PUSH2 0x6E4 PUSH2 0x5ED JUMP JUMPDEST JUMPDEST PUSH2 0x6F0 DUP5 DUP3 DUP6 PUSH2 0x6A9 JUMP JUMPDEST POP SWAP4 SWAP3 POP POP POP JUMP JUMPDEST PUSH0 DUP3 PUSH1 0x1F DUP4 ADD SLT PUSH2 0x70C JUMPI PUSH2 0x70B PUSH2 0x5E9 JUMP JUMPDEST JUMPDEST DUP2 MLOAD PUSH2 0x71C DUP5 DUP3 PUSH1 0x20 DUP7 ADD PUSH2 0x6B7 JUMP JUMPDEST SWAP2 POP POP SWAP3 SWAP2 POP POP JUMP JUMPDEST PUSH0 DUP1 PUSH0 DUP1 PUSH0 PUSH1 0xA0 DUP7 DUP9 SUB SLT ISZERO PUSH2 0x73E JUMPI PUSH2 0x73D PUSH2 0x578 JUMP JUMPDEST JUMPDEST PUSH0 PUSH2 0x74B DUP9 DUP3 DUP10 ADD PUSH2 0x5A2 JUMP JUMPDEST SWAP6 POP POP PUSH1 0x20 PUSH2 0x75C DUP9 DUP3 DUP10 ADD PUSH2 0x5D5 JUMP JUMPDEST SWAP5 POP POP PUSH1 0x40 DUP7 ADD MLOAD PUSH8 0xFFFFFFFFFFFFFFFF DUP2 GT ISZERO PUSH2 0x77D JUMPI PUSH2 0x77C PUSH2 0x57C JUMP JUMPDEST JUMPDEST PUSH2 0x789 DUP9 DUP3 DUP10 ADD PUSH2 0x6F8 JUMP JUMPDEST SWAP4 POP POP PUSH1 0x60 DUP7 ADD MLOAD PUSH8 0xFFFFFFFFFFFFFFFF DUP2 GT ISZERO PUSH2 0x7AA JUMPI PUSH2 0x7A9 PUSH2 0x57C JUMP JUMPDEST JUMPDEST PUSH2 0x7B6 DUP9 DUP3 DUP10 ADD PUSH2 0x6F8 JUMP JUMPDEST SWAP3 POP POP PUSH1 0x80 PUSH2 0x7C7 DUP9 DUP3 DUP10 ADD PUSH2 0x5D5 JUMP JUMPDEST SWAP2 POP POP SWAP3 SWAP6 POP SWAP3 SWAP6 SWAP1 SWAP4 POP JUMP JUMPDEST PUSH0 DUP2 MLOAD SWAP1 POP SWAP2 SWAP1 POP JUMP JUMPDEST PUSH32 0x4E487B7100000000000000000000000000000000000000000000000000000000 PUSH0 MSTORE PUSH1 0x22 PUSH1 0x4 MSTORE PUSH1 0x24 PUSH0 REVERT JUMPDEST PUSH0 PUSH1 0x2 DUP3 DIV SWAP1 POP PUSH1 0x1 DUP3 AND DUP1 PUSH2 0x822 JUMPI PUSH1 0x7F DUP3 AND SWAP2 POP JUMPDEST PUSH1 0x20 DUP3 LT DUP2 SUB PUSH2 0x835 JUMPI PUSH2 0x834 PUSH2 0x7DE JUMP JUMPDEST JUMPDEST POP SWAP2 SWAP1 POP JUMP JUMPDEST PUSH0 DUP2 SWAP1 POP DUP2 PUSH0 MSTORE PUSH1 0x20 PUSH0 KECCAK256 SWAP1 POP SWAP2 SWAP1 POP JUMP JUMPDEST PUSH0 PUSH1 0x20 PUSH1 0x1F DUP4 ADD DIV SWAP1 POP SWAP2 SWAP1 POP JUMP JUMPDEST PUSH0 DUP3 DUP3 SHL SWAP1 POP SWAP3 SWAP2 POP POP JUMP JUMPDEST PUSH0 PUSH1 0x8 DUP4 MUL PUSH2 0x897 PUSH32 0xFFFFFFFFFFFFFFFFFFFFFFFFFFFFFFFFFFFFFFFFFFFFFFFFFFFFFFFFFFFFFFFF DUP3 PUSH2 0x85C JUMP JUMPDEST PUSH2 0x8A1 DUP7 DUP4 PUSH2 0x85C JUMP JUMPDEST SWAP6 POP DUP1 NOT DUP5 AND SWAP4 POP DUP1 DUP7 AND DUP5 OR SWAP3 POP POP POP SWAP4 SWAP3 POP POP POP JUMP JUMPDEST PUSH0 DUP2 SWAP1 POP SWAP2 SWAP1 POP JUMP JUMPDEST PUSH0 PUSH2 0x8DC PUSH2 0x8D7 PUSH2 0x8D2 DUP5 PUSH2 0x5B6 JUMP JUMPDEST PUSH2 0x8B9 JUMP JUMPDEST PUSH2 0x5B6 JUMP JUMPDEST SWAP1 POP SWAP2 SWAP1 POP JUMP JUMPDEST PUSH0 DUP2 SWAP1 POP SWAP2 SWAP1 POP JUMP JUMPDEST PUSH2 0x8F5 DUP4 PUSH2 0x8C2 JUMP JUMPDEST PUSH2 0x909 PUSH2 0x901 DUP3 PUSH2 0x8E3 JUMP JUMPDEST DUP5 DUP5 SLOAD PUSH2 0x868 JUMP JUMPDEST DUP3 SSTORE POP POP POP POP JUMP JUMPDEST PUSH0 SWAP1 JUMP JUMPDEST PUSH2 0x91D PUSH2 0x911 JUMP JUMPDEST PUSH2 0x928 DUP2 DUP5 DUP5 PUSH2 0x8EC JUMP JUMPDEST POP POP POP JUMP JUMPDEST JUMPDEST DUP2 DUP2 LT ISZERO PUSH2 0x94B JUMPI PUSH2 0x940 PUSH0 DUP3 PUSH2 0x915 JUMP JUMPDEST PUSH1 0x1 DUP2 ADD SWAP1 POP PUSH2 0x92E JUMP JUMPDEST POP POP JUMP JUMPDEST PUSH1 0x1F DUP3 GT ISZERO PUSH2 0x990 JUMPI PUSH2 0x961 DUP2 PUSH2 0x83B JUMP JUMPDEST PUSH2 0x96A DUP5 PUSH2 0x84D JUMP JUMPDEST DUP2 ADD PUSH1 0x20 DUP6 LT ISZERO PUSH2 0x979 JUMPI DUP2 SWAP1 POP JUMPDEST PUSH2 0x98D PUSH2 0x985 DUP6 PUSH2 0x84D JUMP JUMPDEST DUP4 ADD DUP3 PUSH2 0x92D JUMP JUMPDEST POP POP JUMPDEST POP POP POP JUMP JUMPDEST PUSH0 DUP3 DUP3 SHR SWAP1 POP SWAP3 SWAP2 POP POP JUMP JUMPDEST PUSH0 PUSH2 0x9B0 PUSH0 NOT DUP5 PUSH1 0x8 MUL PUSH2 0x995 JUMP JUMPDEST NOT DUP1 DUP4 AND SWAP2 POP POP SWAP3 SWAP2 POP POP JUMP JUMPDEST PUSH0 PUSH2 0x9C8 DUP4 DUP4 PUSH2 0x9A1 JUMP JUMPDEST SWAP2 POP DUP3 PUSH1 0x2 MUL DUP3 OR SWAP1 POP SWAP3 SWAP2 POP POP JUMP JUMPDEST PUSH2 0x9E1 DUP3 PUSH2 0x7D4 JUMP JUMPDEST PUSH8 0xFFFFFFFFFFFFFFFF DUP2 GT ISZERO PUSH2 0x9FA JUMPI PUSH2 0x9F9 PUSH2 0x601 JUMP JUMPDEST JUMPDEST PUSH2 0xA04 DUP3 SLOAD PUSH2 0x80B JUMP JUMPDEST PUSH2 0xA0F DUP3 DUP3 DUP6 PUSH2 0x94F JUMP JUMPDEST PUSH0 PUSH1 0x20 SWAP1 POP PUSH1 0x1F DUP4 GT PUSH1 0x1 DUP2 EQ PUSH2 0xA40 JUMPI PUSH0 DUP5 ISZERO PUSH2 0xA2E JUMPI DUP3 DUP8 ADD MLOAD SWAP1 POP JUMPDEST PUSH2 0xA38 DUP6 DUP3 PUSH2 0x9BD JUMP JUMPDEST DUP7 SSTORE POP PUSH2 0xA9F JUMP JUMPDEST PUSH1 0x1F NOT DUP5 AND PUSH2 0xA4E DUP7 PUSH2 0x83B JUMP JUMPDEST PUSH0 JUMPDEST DUP3 DUP2 LT ISZERO PUSH2 0xA75 JUMPI DUP5 DUP10 ADD MLOAD DUP3 SSTORE PUSH1 0x1 DUP3 ADD SWAP2 POP PUSH1 0x20 DUP6 ADD SWAP5 POP PUSH1 0x20 DUP2 ADD SWAP1 POP PUSH2 0xA50 JUMP JUMPDEST DUP7 DUP4 LT ISZERO PUSH2 0xA92 JUMPI DUP5 DUP10 ADD MLOAD PUSH2 0xA8E PUSH1 0x1F DUP10 AND DUP3 PUSH2 0x9A1 JUMP JUMPDEST DUP4 SSTORE POP JUMPDEST PUSH1 0x1 PUSH1 0x2 DUP9 MUL ADD DUP9 SSTORE POP POP POP JUMPDEST POP POP POP POP POP POP JUMP JUMPDEST PUSH0 DUP2 SWAP1 POP SWAP3 SWAP2 POP POP JUMP JUMPDEST PUSH0 DUP2 SLOAD PUSH2 0xABD DUP2 PUSH2 0x80B JUMP JUMPDEST PUSH2 0xAC7 DUP2 DUP7 PUSH2 0xAA7 JUMP JUMPDEST SWAP5 POP PUSH1 0x1 DUP3 AND PUSH0 DUP2 EQ PUSH2 0xAE1 JUMPI PUSH1 0x1 DUP2 EQ PUSH2 0xAF6 JUMPI PUSH2 0xB28 JUMP JUMPDEST PUSH1 0xFF NOT DUP4 AND DUP7 MSTORE DUP2 ISZERO ISZERO DUP3 MUL DUP7 ADD SWAP4 POP PUSH2 0xB28 JUMP JUMPDEST PUSH2 0xAFF DUP6 PUSH2 0x83B JUMP JUMPDEST PUSH0 JUMPDEST DUP4 DUP2 LT ISZERO PUSH2 0xB20 JUMPI DUP2 SLOAD DUP2 DUP10 ADD MSTORE PUSH1 0x1 DUP3 ADD SWAP2 POP PUSH1 0x20 DUP2 ADD SWAP1 POP PUSH2 0xB01 JUMP JUMPDEST DUP4 DUP9 ADD SWAP6 POP POP POP JUMPDEST POP POP POP SWAP3 SWAP2 POP POP JUMP JUMPDEST PUSH0 PUSH2 0xB3C DUP3 DUP5 PUSH2 0xAB1 JUMP JUMPDEST SWAP2 POP DUP2 SWAP1 POP SWAP3 SWAP2 POP POP JUMP JUMPDEST PUSH32 0x4E487B7100000000000000000000000000000000000000000000000000000000 PUSH0 MSTORE PUSH1 0x11 PUSH1 0x4 MSTORE PUSH1 0x24 PUSH0 REVERT JUMPDEST PUSH0 PUSH2 0xB7E DUP3 PUSH2 0x5B6 JUMP JUMPDEST SWAP2 POP PUSH2 0xB89 DUP4 PUSH2 0x5B6 JUMP JUMPDEST SWAP3 POP DUP3 DUP3 ADD SWAP1 POP DUP1 DUP3 GT ISZERO PUSH2 0xBA1 JUMPI PUSH2 0xBA0 PUSH2 0xB47 JUMP JUMPDEST JUMPDEST SWAP3 SWAP2 POP POP JUMP JUMPDEST PUSH0 DUP3 DUP3 MSTORE PUSH1 0x20 DUP3 ADD SWAP1 POP SWAP3 SWAP2 POP POP JUMP JUMPDEST PUSH32 0x4E6F7420656E6F75676820746F6B656E7320617661696C61626C652E00000000 PUSH0 DUP3 ADD MSTORE POP JUMP JUMPDEST PUSH0 PUSH2 0xBEB PUSH1 0x1C DUP4 PUSH2 0xBA7 JUMP JUMPDEST SWAP2 POP PUSH2 0xBF6 DUP3 PUSH2 0xBB7 JUMP JUMPDEST PUSH1 0x20 DUP3 ADD SWAP1 POP SWAP2 SWAP1 POP JUMP JUMPDEST PUSH0 PUSH1 0x20 DUP3 ADD SWAP1 POP DUP2 DUP2 SUB PUSH0 DUP4 ADD MSTORE PUSH2 0xC18 DUP2 PUSH2 0xBDF JUMP JUMPDEST SWAP1 POP SWAP2 SWAP1 POP JUMP JUMPDEST PUSH0 DUP2 SWAP1 POP SWAP2 SWAP1 POP JUMP JUMPDEST PUSH0 DUP2 SWAP1 POP SWAP2 SWAP1 POP JUMP JUMPDEST PUSH2 0xC42 PUSH2 0xC3D DUP3 PUSH2 0xC1F JUMP JUMPDEST PUSH2 0xC28 JUMP JUMPDEST DUP3 MSTORE POP POP JUMP JUMPDEST PUSH0 PUSH2 0xC53 DUP3 DUP5 PUSH2 0xC31 JUMP JUMPDEST PUSH1 0x20 DUP3 ADD SWAP2 POP DUP2 SWAP1 POP SWAP3 SWAP2 POP POP JUMP JUMPDEST PUSH0 PUSH2 0xC6C DUP3 PUSH2 0x7D4 JUMP JUMPDEST PUSH2 0xC76 DUP2 DUP6 PUSH2 0xAA7 JUMP JUMPDEST SWAP4 POP PUSH2 0xC86 DUP2 DUP6 PUSH1 0x20 DUP7 ADD PUSH2 0x6A9 JUMP JUMPDEST DUP1 DUP5 ADD SWAP2 POP POP SWAP3 SWAP2 POP POP JUMP JUMPDEST PUSH0 PUSH2 0xC9D DUP3 DUP8 PUSH2 0xC62 JUMP JUMPDEST SWAP2 POP PUSH2 0xCA9 DUP3 DUP7 PUSH2 0xC62 JUMP JUMPDEST SWAP2 POP PUSH2 0xCB5 DUP3 DUP6 PUSH2 0xC62 JUMP JUMPDEST SWAP2 POP PUSH2 0xCC1 DUP3 DUP5 PUSH2 0xC62 JUMP JUMPDEST SWAP2 POP DUP2 SWAP1 POP SWAP6 SWAP5 POP POP POP POP POP JUMP JUMPDEST PUSH32 0x4E487B7100000000000000000000000000000000000000000000000000000000 PUSH0 MSTORE PUSH1 0x12 PUSH1 0x4 MSTORE PUSH1 0x24 PUSH0 REVERT JUMPDEST PUSH0 PUSH2 0xD06 DUP3 PUSH2 0x5B6 JUMP JUMPDEST SWAP2 POP PUSH2 0xD11 DUP4 PUSH2 0x5B6 JUMP JUMPDEST SWAP3 POP DUP3 PUSH2 0xD21 JUMPI PUSH2 0xD20 PUSH2 0xCCF JUMP JUMPDEST JUMPDEST DUP3 DUP3 DIV SWAP1 POP SWAP3 SWAP2 POP POP JUMP JUMPDEST PUSH0 PUSH2 0xD36 DUP3 PUSH2 0x5B6 JUMP JUMPDEST SWAP2 POP PUSH2 0xD41 DUP4 PUSH2 0x5B6 JUMP JUMPDEST SWAP3 POP DUP3 DUP3 SUB SWAP1 POP DUP2 DUP2 GT ISZERO PUSH2 0xD59 JUMPI PUSH2 0xD58 PUSH2 0xB47 JUMP JUMPDEST JUMPDEST SWAP3 SWAP2 POP POP JUMP JUMPDEST PUSH2 0xB4D DUP1 PUSH2 0xD6C PUSH0 CODECOPY PUSH0 RETURN INVALID PUSH1 0x80 PUSH1 0x40 MSTORE CALLVALUE DUP1 ISZERO PUSH2 0xF JUMPI PUSH0 DUP1 REVERT JUMPDEST POP PUSH1 0x4 CALLDATASIZE LT PUSH2 0xB2 JUMPI PUSH0 CALLDATALOAD PUSH1 0xE0 SHR DUP1 PUSH4 0x6A49F979 GT PUSH2 0x6F JUMPI DUP1 PUSH4 0x6A49F979 EQ PUSH2 0x17D JUMPI DUP1 PUSH4 0x95D89B41 EQ PUSH2 0x19B JUMPI DUP1 PUSH4 0xB62A62EC EQ PUSH2 0x1B9 JUMPI DUP1 PUSH4 0xE8315742 EQ PUSH2 0x1D7 JUMPI DUP1 PUSH4 0xF22A195E EQ PUSH2 0x1F5 JUMPI DUP1 PUSH4 0xF82900B1 EQ PUSH2 0x213 JUMPI PUSH2 0xB2 JUMP JUMPDEST DUP1 PUSH4 0x572B0CC EQ PUSH2 0xB6 JUMPI DUP1 PUSH4 0x6FDDE03 EQ PUSH2 0xD4 JUMPI DUP1 PUSH4 0x18160DDD EQ PUSH2 0xF2 JUMPI DUP1 PUSH4 0x3BA0B9A9 EQ PUSH2 0x110 JUMPI DUP1 PUSH4 0x4FC8A991 EQ PUSH2 0x12E JUMPI DUP1 PUSH4 0x57E871E7 EQ PUSH2 0x15F JUMPI JUMPDEST PUSH0 DUP1 REVERT JUMPDEST PUSH2 0xBE PUSH2 0x231 JUMP JUMPDEST PUSH1 0x40 MLOAD PUSH2 0xCB SWAP2 SWAP1 PUSH2 0x609 JUMP JUMPDEST PUSH1 0x40 MLOAD DUP1 SWAP2 SUB SWAP1 RETURN JUMPDEST PUSH2 0xDC PUSH2 0x23A JUMP JUMPDEST PUSH1 0x40 MLOAD PUSH2 0xE9 SWAP2 SWAP1 PUSH2 0x692 JUMP JUMPDEST PUSH1 0x40 MLOAD DUP1 SWAP2 SUB SWAP1 RETURN JUMPDEST PUSH2 0xFA PUSH2 0x2C6 JUMP JUMPDEST PUSH1 0x40 MLOAD PUSH2 0x107 SWAP2 SWAP1 PUSH2 0x609 JUMP JUMPDEST PUSH1 0x40 MLOAD DUP1 SWAP2 SUB SWAP1 RETURN JUMPDEST PUSH2 0x118 PUSH2 0x2CC JUMP JUMPDEST PUSH1 0x40 MLOAD PUSH2 0x125 SWAP2 SWAP1 PUSH2 0x6CD JUMP JUMPDEST PUSH1 0x40 MLOAD DUP1 SWAP2 SUB SWAP1 RETURN JUMPDEST PUSH2 0x148 PUSH1 0x4 DUP1 CALLDATASIZE SUB DUP2 ADD SWAP1 PUSH2 0x143 SWAP2 SWAP1 PUSH2 0x87D JUMP JUMPDEST PUSH2 0x2DE JUMP JUMPDEST PUSH1 0x40 MLOAD PUSH2 0x156 SWAP3 SWAP2 SWAP1 PUSH2 0x909 JUMP JUMPDEST PUSH1 0x40 MLOAD DUP1 SWAP2 SUB SWAP1 RETURN JUMPDEST PUSH2 0x167 PUSH2 0x432 JUMP JUMPDEST PUSH1 0x40 MLOAD PUSH2 0x174 SWAP2 SWAP1 PUSH2 0x609 JUMP JUMPDEST PUSH1 0x40 MLOAD DUP1 SWAP2 SUB SWAP1 RETURN JUMPDEST PUSH2 0x185 PUSH2 0x438 JUMP JUMPDEST PUSH1 0x40 MLOAD PUSH2 0x192 SWAP2 SWAP1 PUSH2 0x692 JUMP JUMPDEST PUSH1 0x40 MLOAD DUP1 SWAP2 SUB SWAP1 RETURN JUMPDEST PUSH2 0x1A3 PUSH2 0x4C4 JUMP JUMPDEST PUSH1 0x40 MLOAD PUSH2 0x1B0 SWAP2 SWAP1 PUSH2 0x692 JUMP JUMPDEST PUSH1 0x40 MLOAD DUP1 SWAP2 SUB SWAP1 RETURN JUMPDEST PUSH2 0x1C1 PUSH2 0x550 JUMP JUMPDEST PUSH1 0x40 MLOAD PUSH2 0x1CE SWAP2 SWAP1 PUSH2 0x692 JUMP JUMPDEST PUSH1 0x40 MLOAD DUP1 SWAP2 SUB SWAP1 RETURN JUMPDEST PUSH2 0x1DF PUSH2 0x5E0 JUMP JUMPDEST PUSH1 0x40 MLOAD PUSH2 0x1EC SWAP2 SWAP1 PUSH2 0x609 JUMP JUMPDEST PUSH1 0x40 MLOAD DUP1 SWAP2 SUB SWAP1 RETURN JUMPDEST PUSH2 0x1FD PUSH2 0x5E5 JUMP JUMPDEST PUSH1 0x40 MLOAD PUSH2 0x20A SWAP2 SWAP1 PUSH2 0x930 JUMP JUMPDEST PUSH1 0x40 MLOAD DUP1 SWAP2 SUB SWAP1 RETURN JUMPDEST PUSH2 0x21B PUSH2 0x5EB JUMP JUMPDEST PUSH1 0x40 MLOAD PUSH2 0x228 SWAP2 SWAP1 PUSH2 0x609 JUMP JUMPDEST PUSH1 0x40 MLOAD DUP1 SWAP2 SUB SWAP1 RETURN JUMPDEST PUSH0 PUSH1 0x9 SLOAD SWAP1 POP SWAP1 JUMP JUMPDEST PUSH1 0x3 DUP1 SLOAD PUSH2 0x247 SWAP1 PUSH2 0x976 JUMP JUMPDEST DUP1 PUSH1 0x1F ADD PUSH1 0x20 DUP1 SWAP2 DIV MUL PUSH1 0x20 ADD PUSH1 0x40 MLOAD SWAP1 DUP2 ADD PUSH1 0x40 MSTORE DUP1 SWAP3 SWAP2 SWAP1 DUP2 DUP2 MSTORE PUSH1 0x20 ADD DUP3 DUP1 SLOAD PUSH2 0x273 SWAP1 PUSH2 0x976 JUMP JUMPDEST DUP1 ISZERO PUSH2 0x2BE JUMPI DUP1 PUSH1 0x1F LT PUSH2 0x295 JUMPI PUSH2 0x100 DUP1 DUP4 SLOAD DIV MUL DUP4 MSTORE SWAP2 PUSH1 0x20 ADD SWAP2 PUSH2 0x2BE JUMP JUMPDEST DUP3 ADD SWAP2 SWAP1 PUSH0 MSTORE PUSH1 0x20 PUSH0 KECCAK256 SWAP1 JUMPDEST DUP2 SLOAD DUP2 MSTORE SWAP1 PUSH1 0x1 ADD SWAP1 PUSH1 0x20 ADD DUP1 DUP4 GT PUSH2 0x2A1 JUMPI DUP3 SWAP1 SUB PUSH1 0x1F AND DUP3 ADD SWAP2 JUMPDEST POP POP POP POP POP DUP2 JUMP JUMPDEST PUSH1 0x1 SLOAD DUP2 JUMP JUMPDEST PUSH1 0x4 PUSH0 SWAP1 SLOAD SWAP1 PUSH2 0x100 EXP SWAP1 DIV PUSH1 0xFF AND DUP2 JUMP JUMPDEST PUSH0 DUP1 PUSH0 PUSH1 0x8 DUP5 PUSH1 0x40 MLOAD PUSH1 0x20 ADD PUSH2 0x2F5 SWAP3 SWAP2 SWAP1 PUSH2 0xA72 JUMP JUMPDEST PUSH1 0x40 MLOAD PUSH1 0x20 DUP2 DUP4 SUB SUB DUP2 MSTORE SWAP1 PUSH1 0x40 MSTORE SWAP1 POP PUSH0 DUP2 PUSH1 0x40 MLOAD PUSH1 0x20 ADD PUSH2 0x318 SWAP2 SWAP1 PUSH2 0x692 JUMP JUMPDEST PUSH1 0x40 MLOAD PUSH1 0x20 DUP2 DUP4 SUB SUB DUP2 MSTORE SWAP1 PUSH1 0x40 MSTORE DUP1 MLOAD SWAP1 PUSH1 0x20 ADD KECCAK256 SWAP1 POP PUSH0 JUMPDEST PUSH1 0x20 DUP2 PUSH1 0xFF AND GT PUSH2 0x421 JUMPI PUSH0 DUP3 DUP3 PUSH1 0xFF AND PUSH1 0x20 DUP2 LT PUSH2 0x354 JUMPI PUSH2 0x353 PUSH2 0xA95 JUMP JUMPDEST JUMPDEST BYTE PUSH1 0xF8 SHL SWAP1 POP PUSH1 0xA PUSH1 0x1 SWAP1 SLOAD SWAP1 PUSH2 0x100 EXP SWAP1 DIV PUSH1 0xF8 SHL PUSH31 0xFFFFFFFFFFFFFFFFFFFFFFFFFFFFFFFFFFFFFFFFFFFFFFFFFFFFFFFFFFFFFF NOT AND DUP2 PUSH31 0xFFFFFFFFFFFFFFFFFFFFFFFFFFFFFFFFFFFFFFFFFFFFFFFFFFFFFFFFFFFFFF NOT AND SUB PUSH2 0x40D JUMPI PUSH1 0x9 SLOAD PUSH1 0x5 SLOAD DUP10 PUSH20 0xFFFFFFFFFFFFFFFFFFFFFFFFFFFFFFFFFFFFFFFF AND PUSH32 0x5A9EC13C12CA9563A7B3108125F74C57ED388BB313394EA50F7E4A71B01497C2 PUSH1 0x40 MLOAD PUSH1 0x40 MLOAD DUP1 SWAP2 SUB SWAP1 LOG4 PUSH1 0x1 DUP4 SWAP6 POP SWAP6 POP POP POP POP POP PUSH2 0x42B JUMP JUMPDEST POP DUP1 DUP1 PUSH2 0x419 SWAP1 PUSH2 0xAEF JUMP JUMPDEST SWAP2 POP POP PUSH2 0x332 JUMP JUMPDEST POP PUSH0 DUP2 SWAP4 POP SWAP4 POP POP POP JUMPDEST SWAP3 POP SWAP3 SWAP1 POP JUMP JUMPDEST PUSH1 0x5 SLOAD DUP2 JUMP JUMPDEST PUSH1 0x8 DUP1 SLOAD PUSH2 0x445 SWAP1 PUSH2 0x976 JUMP JUMPDEST DUP1 PUSH1 0x1F ADD PUSH1 0x20 DUP1 SWAP2 DIV MUL PUSH1 0x20 ADD PUSH1 0x40 MLOAD SWAP1 DUP2 ADD PUSH1 0x40 MSTORE DUP1 SWAP3 SWAP2 SWAP1 DUP2 DUP2 MSTORE PUSH1 0x20 ADD DUP3 DUP1 SLOAD PUSH2 0x471 SWAP1 PUSH2 0x976 JUMP JUMPDEST DUP1 ISZERO PUSH2 0x4BC JUMPI DUP1 PUSH1 0x1F LT PUSH2 0x493 JUMPI PUSH2 0x100 DUP1 DUP4 SLOAD DIV MUL DUP4 MSTORE SWAP2 PUSH1 0x20 ADD SWAP2 PUSH2 0x4BC JUMP JUMPDEST DUP3 ADD SWAP2 SWAP1 PUSH0 MSTORE PUSH1 0x20 PUSH0 KECCAK256 SWAP1 JUMPDEST DUP2 SLOAD DUP2 MSTORE SWAP1 PUSH1 0x1 ADD SWAP1 PUSH1 0x20 ADD DUP1 DUP4 GT PUSH2 0x49F JUMPI DUP3 SWAP1 SUB PUSH1 0x1F AND DUP3 ADD SWAP2 JUMPDEST POP POP POP POP POP DUP2 JUMP JUMPDEST PUSH1 0x2 DUP1 SLOAD PUSH2 0x4D1 SWAP1 PUSH2 0x976 JUMP JUMPDEST DUP1 PUSH1 0x1F ADD PUSH1 0x20 DUP1 SWAP2 DIV MUL PUSH1 0x20 ADD PUSH1 0x40 MLOAD SWAP1 DUP2 ADD PUSH1 0x40 MSTORE DUP1 SWAP3 SWAP2 SWAP1 DUP2 DUP2 MSTORE PUSH1 0x20 ADD DUP3 DUP1 SLOAD PUSH2 0x4FD SWAP1 PUSH2 0x976 JUMP JUMPDEST DUP1 ISZERO PUSH2 0x548 JUMPI DUP1 PUSH1 0x1F LT PUSH2 0x51F JUMPI PUSH2 0x100 DUP1 DUP4 SLOAD DIV MUL DUP4 MSTORE SWAP2 PUSH1 0x20 ADD SWAP2 PUSH2 0x548 JUMP JUMPDEST DUP3 ADD SWAP2 SWAP1 PUSH0 MSTORE PUSH1 0x20 PUSH0 KECCAK256 SWAP1 JUMPDEST DUP2 SLOAD DUP2 MSTORE SWAP1 PUSH1 0x1 ADD SWAP1 PUSH1 0x20 ADD DUP1 DUP4 GT PUSH2 0x52B JUMPI DUP3 SWAP1 SUB PUSH1 0x1F AND DUP3 ADD SWAP2 JUMPDEST POP POP POP POP POP DUP2 JUMP JUMPDEST PUSH1 0x60 PUSH1 0x8 DUP1 SLOAD PUSH2 0x55F SWAP1 PUSH2 0x976 JUMP JUMPDEST DUP1 PUSH1 0x1F ADD PUSH1 0x20 DUP1 SWAP2 DIV MUL PUSH1 0x20 ADD PUSH1 0x40 MLOAD SWAP1 DUP2 ADD PUSH1 0x40 MSTORE DUP1 SWAP3 SWAP2 SWAP1 DUP2 DUP2 MSTORE PUSH1 0x20 ADD DUP3 DUP1 SLOAD PUSH2 0x58B SWAP1 PUSH2 0x976 JUMP JUMPDEST DUP1 ISZERO PUSH2 0x5D6 JUMPI DUP1 PUSH1 0x1F LT PUSH2 0x5AD JUMPI PUSH2 0x100 DUP1 DUP4 SLOAD DIV MUL DUP4 MSTORE SWAP2 PUSH1 0x20 ADD SWAP2 PUSH2 0x5D6 JUMP JUMPDEST DUP3 ADD SWAP2 SWAP1 PUSH0 MSTORE PUSH1 0x20 PUSH0 KECCAK256 SWAP1 JUMPDEST DUP2 SLOAD DUP2 MSTORE SWAP1 PUSH1 0x1 ADD SWAP1 PUSH1 0x20 ADD DUP1 DUP4 GT PUSH2 0x5B9 JUMPI DUP3 SWAP1 SUB PUSH1 0x1F AND DUP3 ADD SWAP2 JUMPDEST POP POP POP POP POP SWAP1 POP SWAP1 JUMP JUMPDEST PUSH0 SLOAD DUP2 JUMP JUMPDEST PUSH1 0x6 SLOAD DUP2 JUMP JUMPDEST PUSH1 0x9 SLOAD DUP2 JUMP JUMPDEST PUSH0 DUP2 SWAP1 POP SWAP2 SWAP1 POP JUMP JUMPDEST PUSH2 0x603 DUP2 PUSH2 0x5F1 JUMP JUMPDEST DUP3 MSTORE POP POP JUMP JUMPDEST PUSH0 PUSH1 0x20 DUP3 ADD SWAP1 POP PUSH2 0x61C PUSH0 DUP4 ADD DUP5 PUSH2 0x5FA JUMP JUMPDEST SWAP3 SWAP2 POP POP JUMP JUMPDEST PUSH0 DUP2 MLOAD SWAP1 POP SWAP2 SWAP1 POP JUMP JUMPDEST PUSH0 DUP3 DUP3 MSTORE PUSH1 0x20 DUP3 ADD SWAP1 POP SWAP3 SWAP2 POP POP JUMP JUMPDEST DUP3 DUP2 DUP4 MCOPY PUSH0 DUP4 DUP4 ADD MSTORE POP POP POP JUMP JUMPDEST PUSH0 PUSH1 0x1F NOT PUSH1 0x1F DUP4 ADD AND SWAP1 POP SWAP2 SWAP1 POP JUMP JUMPDEST PUSH0 PUSH2 0x664 DUP3 PUSH2 0x622 JUMP JUMPDEST PUSH2 0x66E DUP2 DUP6 PUSH2 0x62C JUMP JUMPDEST SWAP4 POP PUSH2 0x67E DUP2 DUP6 PUSH1 0x20 DUP7 ADD PUSH2 0x63C JUMP JUMPDEST PUSH2 0x687 DUP2 PUSH2 0x64A JUMP JUMPDEST DUP5 ADD SWAP2 POP POP SWAP3 SWAP2 POP POP JUMP JUMPDEST PUSH0 PUSH1 0x20 DUP3 ADD SWAP1 POP DUP2 DUP2 SUB PUSH0 DUP4 ADD MSTORE PUSH2 0x6AA DUP2 DUP5 PUSH2 0x65A JUMP JUMPDEST SWAP1 POP SWAP3 SWAP2 POP POP JUMP JUMPDEST PUSH0 PUSH1 0xFF DUP3 AND SWAP1 POP SWAP2 SWAP1 POP JUMP JUMPDEST PUSH2 0x6C7 DUP2 PUSH2 0x6B2 JUMP JUMPDEST DUP3 MSTORE POP POP JUMP JUMPDEST PUSH0 PUSH1 0x20 DUP3 ADD SWAP1 POP PUSH2 0x6E0 PUSH0 DUP4 ADD DUP5 PUSH2 0x6BE JUMP JUMPDEST SWAP3 SWAP2 POP POP JUMP JUMPDEST PUSH0 PUSH1 0x40 MLOAD SWAP1 POP SWAP1 JUMP JUMPDEST PUSH0 DUP1 REVERT JUMPDEST PUSH0 DUP1 REVERT JUMPDEST PUSH0 PUSH20 0xFFFFFFFFFFFFFFFFFFFFFFFFFFFFFFFFFFFFFFFF DUP3 AND SWAP1 POP SWAP2 SWAP1 POP JUMP JUMPDEST PUSH0 PUSH2 0x720 DUP3 PUSH2 0x6F7 JUMP JUMPDEST SWAP1 POP SWAP2 SWAP1 POP JUMP JUMPDEST PUSH2 0x730 DUP2 PUSH2 0x716 JUMP JUMPDEST DUP2 EQ PUSH2 0x73A JUMPI PUSH0 DUP1 REVERT JUMPDEST POP JUMP JUMPDEST PUSH0 DUP2 CALLDATALOAD SWAP1 POP PUSH2 0x74B DUP2 PUSH2 0x727 JUMP JUMPDEST SWAP3 SWAP2 POP POP JUMP JUMPDEST PUSH0 DUP1 REVERT JUMPDEST PUSH0 DUP1 REVERT JUMPDEST PUSH32 0x4E487B7100000000000000000000000000000000000000000000000000000000 PUSH0 MSTORE PUSH1 0x41 PUSH1 0x4 MSTORE PUSH1 0x24 PUSH0 REVERT JUMPDEST PUSH2 0x78F DUP3 PUSH2 0x64A JUMP JUMPDEST DUP2 ADD DUP2 DUP2 LT PUSH8 0xFFFFFFFFFFFFFFFF DUP3 GT OR ISZERO PUSH2 0x7AE JUMPI PUSH2 0x7AD PUSH2 0x759 JUMP JUMPDEST JUMPDEST DUP1 PUSH1 0x40 MSTORE POP POP POP JUMP JUMPDEST PUSH0 PUSH2 0x7C0 PUSH2 0x6E6 JUMP JUMPDEST SWAP1 POP PUSH2 0x7CC DUP3 DUP3 PUSH2 0x786 JUMP JUMPDEST SWAP2 SWAP1 POP JUMP JUMPDEST PUSH0 PUSH8 0xFFFFFFFFFFFFFFFF DUP3 GT ISZERO PUSH2 0x7EB JUMPI PUSH2 0x7EA PUSH2 0x759 JUMP JUMPDEST JUMPDEST PUSH2 0x7F4 DUP3 PUSH2 0x64A JUMP JUMPDEST SWAP1 POP PUSH1 0x20 DUP2 ADD SWAP1 POP SWAP2 SWAP1 POP JUMP JUMPDEST DUP3 DUP2 DUP4 CALLDATACOPY PUSH0 DUP4 DUP4 ADD MSTORE POP POP POP JUMP JUMPDEST PUSH0 PUSH2 0x821 PUSH2 0x81C DUP5 PUSH2 0x7D1 JUMP JUMPDEST PUSH2 0x7B7 JUMP JUMPDEST SWAP1 POP DUP3 DUP2 MSTORE PUSH1 0x20 DUP2 ADD DUP5 DUP5 DUP5 ADD GT ISZERO PUSH2 0x83D JUMPI PUSH2 0x83C PUSH2 0x755 JUMP JUMPDEST JUMPDEST PUSH2 0x848 DUP5 DUP3 DUP6 PUSH2 0x801 JUMP JUMPDEST POP SWAP4 SWAP3 POP POP POP JUMP JUMPDEST PUSH0 DUP3 PUSH1 0x1F DUP4 ADD SLT PUSH2 0x864 JUMPI PUSH2 0x863 PUSH2 0x751 JUMP JUMPDEST JUMPDEST DUP2 CALLDATALOAD PUSH2 0x874 DUP5 DUP3 PUSH1 0x20 DUP7 ADD PUSH2 0x80F JUMP JUMPDEST SWAP2 POP POP SWAP3 SWAP2 POP POP JUMP JUMPDEST PUSH0 DUP1 PUSH1 0x40 DUP4 DUP6 SUB SLT ISZERO PUSH2 0x893 JUMPI PUSH2 0x892 PUSH2 0x6EF JUMP JUMPDEST JUMPDEST PUSH0 PUSH2 0x8A0 DUP6 DUP3 DUP7 ADD PUSH2 0x73D JUMP JUMPDEST SWAP3 POP POP PUSH1 0x20 DUP4 ADD CALLDATALOAD PUSH8 0xFFFFFFFFFFFFFFFF DUP2 GT ISZERO PUSH2 0x8C1 JUMPI PUSH2 0x8C0 PUSH2 0x6F3 JUMP JUMPDEST JUMPDEST PUSH2 0x8CD DUP6 DUP3 DUP7 ADD PUSH2 0x850 JUMP JUMPDEST SWAP2 POP POP SWAP3 POP SWAP3 SWAP1 POP JUMP JUMPDEST PUSH0 DUP2 ISZERO ISZERO SWAP1 POP SWAP2 SWAP1 POP JUMP JUMPDEST PUSH2 0x8EB DUP2 PUSH2 0x8D7 JUMP JUMPDEST DUP3 MSTORE POP POP JUMP JUMPDEST PUSH0 DUP2 SWAP1 POP SWAP2 SWAP1 POP JUMP JUMPDEST PUSH2 0x903 DUP2 PUSH2 0x8F1 JUMP JUMPDEST DUP3 MSTORE POP POP JUMP JUMPDEST PUSH0 PUSH1 0x40 DUP3 ADD SWAP1 POP PUSH2 0x91C PUSH0 DUP4 ADD DUP6 PUSH2 0x8E2 JUMP JUMPDEST PUSH2 0x929 PUSH1 0x20 DUP4 ADD DUP5 PUSH2 0x8FA JUMP JUMPDEST SWAP4 SWAP3 POP POP POP JUMP JUMPDEST PUSH0 PUSH1 0x20 DUP3 ADD SWAP1 POP PUSH2 0x943 PUSH0 DUP4 ADD DUP5 PUSH2 0x8FA JUMP JUMPDEST SWAP3 SWAP2 POP POP JUMP JUMPDEST PUSH32 0x4E487B7100000000000000000000000000000000000000000000000000000000 PUSH0 MSTORE PUSH1 0x22 PUSH1 0x4 MSTORE PUSH1 0x24 PUSH0 REVERT JUMPDEST PUSH0 PUSH1 0x2 DUP3 DIV SWAP1 POP PUSH1 0x1 DUP3 AND DUP1 PUSH2 0x98D JUMPI PUSH1 0x7F DUP3 AND SWAP2 POP JUMPDEST PUSH1 0x20 DUP3 LT DUP2 SUB PUSH2 0x9A0 JUMPI PUSH2 0x99F PUSH2 0x949 JUMP JUMPDEST JUMPDEST POP SWAP2 SWAP1 POP JUMP JUMPDEST PUSH0 DUP2 SWAP1 POP SWAP3 SWAP2 POP POP JUMP JUMPDEST PUSH0 DUP2 SWAP1 POP DUP2 PUSH0 MSTORE PUSH1 0x20 PUSH0 KECCAK256 SWAP1 POP SWAP2 SWAP1 POP JUMP JUMPDEST PUSH0 DUP2 SLOAD PUSH2 0x9CE DUP2 PUSH2 0x976 JUMP JUMPDEST PUSH2 0x9D8 DUP2 DUP7 PUSH2 0x9A6 JUMP JUMPDEST SWAP5 POP PUSH1 0x1 DUP3 AND PUSH0 DUP2 EQ PUSH2 0x9F2 JUMPI PUSH1 0x1 DUP2 EQ PUSH2 0xA07 JUMPI PUSH2 0xA39 JUMP JUMPDEST PUSH1 0xFF NOT DUP4 AND DUP7 MSTORE DUP2 ISZERO ISZERO DUP3 MUL DUP7 ADD SWAP4 POP PUSH2 0xA39 JUMP JUMPDEST PUSH2 0xA10 DUP6 PUSH2 0x9B0 JUMP JUMPDEST PUSH0 JUMPDEST DUP4 DUP2 LT ISZERO PUSH2 0xA31 JUMPI DUP2 SLOAD DUP2 DUP10 ADD MSTORE PUSH1 0x1 DUP3 ADD SWAP2 POP PUSH1 0x20 DUP2 ADD SWAP1 POP PUSH2 0xA12 JUMP JUMPDEST DUP4 DUP9 ADD SWAP6 POP POP POP JUMPDEST POP POP POP SWAP3 SWAP2 POP POP JUMP JUMPDEST PUSH0 PUSH2 0xA4C DUP3 PUSH2 0x622 JUMP JUMPDEST PUSH2 0xA56 DUP2 DUP6 PUSH2 0x9A6 JUMP JUMPDEST SWAP4 POP PUSH2 0xA66 DUP2 DUP6 PUSH1 0x20 DUP7 ADD PUSH2 0x63C JUMP JUMPDEST DUP1 DUP5 ADD SWAP2 POP POP SWAP3 SWAP2 POP POP JUMP JUMPDEST PUSH0 PUSH2 0xA7D DUP3 DUP6 PUSH2 0x9C2 JUMP JUMPDEST SWAP2 POP PUSH2 0xA89 DUP3 DUP5 PUSH2 0xA42 JUMP JUMPDEST SWAP2 POP DUP2 SWAP1 POP SWAP4 SWAP3 POP POP POP JUMP JUMPDEST PUSH32 0x4E487B7100000000000000000000000000000000000000000000000000000000 PUSH0 MSTORE PUSH1 0x32 PUSH1 0x4 MSTORE PUSH1 0x24 PUSH0 REVERT JUMPDEST PUSH32 0x4E487B7100000000000000000000000000000000000000000000000000000000 PUSH0 MSTORE PUSH1 0x11 PUSH1 0x4 MSTORE PUSH1 0x24 PUSH0 REVERT JUMPDEST PUSH0 PUSH2 0xAF9 DUP3 PUSH2 0x6B2 JUMP JUMPDEST SWAP2 POP PUSH1 0xFF DUP3 SUB PUSH2 0xB0C JUMPI PUSH2 0xB0B PUSH2 0xAC2 JUMP JUMPDEST JUMPDEST PUSH1 0x1 DUP3 ADD SWAP1 POP SWAP2 SWAP1 POP JUMP INVALID LOG2 PUSH5 0x6970667358 0x22 SLT KECCAK256 0x2E 0xE9 SWAP16 EXP SSTORE CALLCODE SWAP3 CREATE GT PUSH20 0x29F20D9E897459EB6E84223F7B6467BA76B2A934 CALL 0xF9 PUSH5 0x736F6C6343 STOP ADDMOD NOT STOP CALLER "
				},
				"gasEstimates": {
					"creation": {
						"codeDepositCost": "578600",
						"executionCost": "infinite",
						"totalCost": "infinite"
					},
					"external": {
						"blockHash()": "2513",
						"blockNumber()": "2536",
						"exchangeRate()": "2533",
						"getMiningTask()": "infinite",
						"getRewards()": "2433",
						"maxTokens()": "2490",
						"mineTokens(address,string)": "infinite",
						"miningRewards()": "2535",
						"miningTask()": "infinite",
						"name()": "infinite",
						"symbol()": "infinite",
						"totalSupply()": "2470"
					},
					"internal": {
						"calculateMiningRewards(uint256)": "infinite",
						"calculateMiningTask()": "infinite"
					}
				},
				"methodIdentifiers": {
					"blockHash()": "f22a195e",
					"blockNumber()": "57e871e7",
					"exchangeRate()": "3ba0b9a9",
					"getMiningTask()": "b62a62ec",
					"getRewards()": "0572b0cc",
					"maxTokens()": "e8315742",
					"mineTokens(address,string)": "4fc8a991",
					"miningRewards()": "f82900b1",
					"miningTask()": "6a49f979",
					"name()": "06fdde03",
					"symbol()": "95d89b41",
					"totalSupply()": "18160ddd"
				}
			},
			"storageLayout": {
				"storage": [
					{
						"astId": 3806,
						"contract": "contracts/MiningContract.sol:MiningContract",
						"label": "maxTokens",
						"offset": 0,
						"slot": "0",
						"type": "t_uint256"
					},
					{
						"astId": 3808,
						"contract": "contracts/MiningContract.sol:MiningContract",
						"label": "totalSupply",
						"offset": 0,
						"slot": "1",
						"type": "t_uint256"
					},
					{
						"astId": 3810,
						"contract": "contracts/MiningContract.sol:MiningContract",
						"label": "symbol",
						"offset": 0,
						"slot": "2",
						"type": "t_string_storage"
					},
					{
						"astId": 3812,
						"contract": "contracts/MiningContract.sol:MiningContract",
						"label": "name",
						"offset": 0,
						"slot": "3",
						"type": "t_string_storage"
					},
					{
						"astId": 3814,
						"contract": "contracts/MiningContract.sol:MiningContract",
						"label": "exchangeRate",
						"offset": 0,
						"slot": "4",
						"type": "t_uint8"
					},
					{
						"astId": 3816,
						"contract": "contracts/MiningContract.sol:MiningContract",
						"label": "blockNumber",
						"offset": 0,
						"slot": "5",
						"type": "t_uint256"
					},
					{
						"astId": 3818,
						"contract": "contracts/MiningContract.sol:MiningContract",
						"label": "blockHash",
						"offset": 0,
						"slot": "6",
						"type": "t_bytes32"
					},
					{
						"astId": 3821,
						"contract": "contracts/MiningContract.sol:MiningContract",
						"label": "rewardRate",
						"offset": 0,
						"slot": "7",
						"type": "t_uint8"
					},
					{
						"astId": 3823,
						"contract": "contracts/MiningContract.sol:MiningContract",
						"label": "miningTask",
						"offset": 0,
						"slot": "8",
						"type": "t_string_storage"
					},
					{
						"astId": 3825,
						"contract": "contracts/MiningContract.sol:MiningContract",
						"label": "miningRewards",
						"offset": 0,
						"slot": "9",
						"type": "t_uint256"
					},
					{
						"astId": 3828,
						"contract": "contracts/MiningContract.sol:MiningContract",
						"label": "PREFIXLENGTH",
						"offset": 0,
						"slot": "10",
						"type": "t_uint8"
					},
					{
						"astId": 3831,
						"contract": "contracts/MiningContract.sol:MiningContract",
						"label": "PREFIXHASHVALUE",
						"offset": 1,
						"slot": "10",
						"type": "t_bytes1"
					}
				],
				"types": {
					"t_bytes1": {
						"encoding": "inplace",
						"label": "bytes1",
						"numberOfBytes": "1"
					},
					"t_bytes32": {
						"encoding": "inplace",
						"label": "bytes32",
						"numberOfBytes": "32"
					},
					"t_string_storage": {
						"encoding": "bytes",
						"label": "string",
						"numberOfBytes": "32"
					},
					"t_uint256": {
						"encoding": "inplace",
						"label": "uint256",
						"numberOfBytes": "32"
					},
					"t_uint8": {
						"encoding": "inplace",
						"label": "uint8",
						"numberOfBytes": "1"
					}
				}
			},
			"userdoc": {
				"kind": "user",
				"methods": {},
				"version": 1
			}
		}
	}
}