{
	"contracts/DebtsContract.sol": {
		"DebtsContract": {
			"abi": [
				{
					"anonymous": false,
					"inputs": [
						{
							"indexed": true,
							"internalType": "uint256",
							"name": "amount",
							"type": "uint256"
						}
					],
					"name": "newDebt",
					"type": "event"
				},
				{
					"anonymous": false,
					"inputs": [
						{
							"indexed": true,
							"internalType": "uint256",
							"name": "amount",
							"type": "uint256"
						}
					],
					"name": "repayDebtsToZero",
					"type": "event"
				},
				{
					"inputs": [
						{
							"internalType": "address",
							"name": "debtor",
							"type": "address"
						},
						{
							"internalType": "address",
							"name": "creditor",
							"type": "address"
						},
						{
							"internalType": "uint256",
							"name": "amount",
							"type": "uint256"
						},
						{
							"internalType": "uint256",
							"name": "fees",
							"type": "uint256"
						},
						{
							"internalType": "uint256",
							"name": "addToDebtFund",
							"type": "uint256"
						}
					],
					"name": "createDebtsList",
					"outputs": [
						{
							"internalType": "bool",
							"name": "",
							"type": "bool"
						}
					],
					"stateMutability": "nonpayable",
					"type": "function"
				},
				{
					"inputs": [],
					"name": "debtFund",
					"outputs": [
						{
							"internalType": "uint256",
							"name": "",
							"type": "uint256"
						}
					],
					"stateMutability": "view",
					"type": "function"
				},
				{
					"inputs": [
						{
							"internalType": "address",
							"name": "",
							"type": "address"
						}
					],
					"name": "debtsList",
					"outputs": [
						{
							"internalType": "address",
							"name": "creditorAddress",
							"type": "address"
						},
						{
							"internalType": "uint256",
							"name": "debtAmount",
							"type": "uint256"
						},
						{
							"internalType": "uint256",
							"name": "interest",
							"type": "uint256"
						},
						{
							"internalType": "uint256",
							"name": "timeOfDebt",
							"type": "uint256"
						}
					],
					"stateMutability": "view",
					"type": "function"
				},
				{
					"inputs": [
						{
							"internalType": "address",
							"name": "debtor",
							"type": "address"
						}
					],
					"name": "getDebtsCreditorAndAmount",
					"outputs": [
						{
							"internalType": "address",
							"name": "",
							"type": "address"
						},
						{
							"internalType": "uint256",
							"name": "",
							"type": "uint256"
						}
					],
					"stateMutability": "view",
					"type": "function"
				},
				{
					"inputs": [
						{
							"internalType": "address",
							"name": "debtor",
							"type": "address"
						}
					],
					"name": "immediateRepayment",
					"outputs": [],
					"stateMutability": "nonpayable",
					"type": "function"
				},
				{
					"inputs": [
						{
							"internalType": "address",
							"name": "debtor",
							"type": "address"
						},
						{
							"internalType": "address",
							"name": "creditor",
							"type": "address"
						},
						{
							"internalType": "uint256",
							"name": "amount",
							"type": "uint256"
						}
					],
					"name": "repayDebts",
					"outputs": [
						{
							"internalType": "uint256",
							"name": "restDebts",
							"type": "uint256"
						}
					],
					"stateMutability": "nonpayable",
					"type": "function"
				}
			],
			"devdoc": {
				"kind": "dev",
				"methods": {},
				"version": 1
			},
			"evm": {
				"assembly": "    /* \"contracts/DebtsContract.sol\":103:5334  contract DebtsContract {... */\n  mstore(0x40, 0x80)\n  callvalue\n  dup1\n  iszero\n  tag_1\n  jumpi\n  0x00\n  dup1\n  revert\ntag_1:\n  pop\n  dataSize(sub_0)\n  dup1\n  dataOffset(sub_0)\n  0x00\n  codecopy\n  0x00\n  return\nstop\n\nsub_0: assembly {\n        /* \"contracts/DebtsContract.sol\":103:5334  contract DebtsContract {... */\n      mstore(0x40, 0x80)\n      callvalue\n      dup1\n      iszero\n      tag_1\n      jumpi\n      0x00\n      dup1\n      revert\n    tag_1:\n      pop\n      jumpi(tag_2, lt(calldatasize, 0x04))\n      shr(0xe0, calldataload(0x00))\n      dup1\n      0x53ffdc3a\n      eq\n      tag_3\n      jumpi\n      dup1\n      0x768bb81f\n      eq\n      tag_4\n      jumpi\n      dup1\n      0x7dca9692\n      eq\n      tag_5\n      jumpi\n      dup1\n      0xc184ec7b\n      eq\n      tag_6\n      jumpi\n      dup1\n      0xc8150100\n      eq\n      tag_7\n      jumpi\n      dup1\n      0xdcc9fb2d\n      eq\n      tag_8\n      jumpi\n    tag_2:\n      0x00\n      dup1\n      revert\n        /* \"contracts/DebtsContract.sol\":432:1322  function createDebtsList(... */\n    tag_3:\n      tag_9\n      0x04\n      dup1\n      calldatasize\n      sub\n      dup2\n      add\n      swap1\n      tag_10\n      swap2\n      swap1\n      tag_11\n      jump\t// in\n    tag_10:\n      tag_12\n      jump\t// in\n    tag_9:\n      mload(0x40)\n      tag_13\n      swap2\n      swap1\n      tag_14\n      jump\t// in\n    tag_13:\n      mload(0x40)\n      dup1\n      swap2\n      sub\n      swap1\n      return\n        /* \"contracts/DebtsContract.sol\":306:329  uint256 public debtFund */\n    tag_4:\n      tag_15\n      tag_16\n      jump\t// in\n    tag_15:\n      mload(0x40)\n      tag_17\n      swap2\n      swap1\n      tag_18\n      jump\t// in\n    tag_17:\n      mload(0x40)\n      dup1\n      swap2\n      sub\n      swap1\n      return\n        /* \"contracts/DebtsContract.sol\":183:241  mapping(address => ModelLibrary.Creditor) public debtsList */\n    tag_5:\n      tag_19\n      0x04\n      dup1\n      calldatasize\n      sub\n      dup2\n      add\n      swap1\n      tag_20\n      swap2\n      swap1\n      tag_21\n      jump\t// in\n    tag_20:\n      tag_22\n      jump\t// in\n    tag_19:\n      mload(0x40)\n      tag_23\n      swap5\n      swap4\n      swap3\n      swap2\n      swap1\n      tag_24\n      jump\t// in\n    tag_23:\n      mload(0x40)\n      dup1\n      swap2\n      sub\n      swap1\n      return\n        /* \"contracts/DebtsContract.sol\":4451:4702  function getDebtsCreditorAndAmount(address debtor)... */\n    tag_6:\n      tag_25\n      0x04\n      dup1\n      calldatasize\n      sub\n      dup2\n      add\n      swap1\n      tag_26\n      swap2\n      swap1\n      tag_21\n      jump\t// in\n    tag_26:\n      tag_27\n      jump\t// in\n    tag_25:\n      mload(0x40)\n      tag_28\n      swap3\n      swap2\n      swap1\n      tag_29\n      jump\t// in\n    tag_28:\n      mload(0x40)\n      dup1\n      swap2\n      sub\n      swap1\n      return\n        /* \"contracts/DebtsContract.sol\":1614:4381  function repayDebts(... */\n    tag_7:\n      tag_30\n      0x04\n      dup1\n      calldatasize\n      sub\n      dup2\n      add\n      swap1\n      tag_31\n      swap2\n      swap1\n      tag_32\n      jump\t// in\n    tag_31:\n      tag_33\n      jump\t// in\n    tag_30:\n      mload(0x40)\n      tag_34\n      swap2\n      swap1\n      tag_18\n      jump\t// in\n    tag_34:\n      mload(0x40)\n      dup1\n      swap2\n      sub\n      swap1\n      return\n        /* \"contracts/DebtsContract.sol\":4387:4445  function immediateRepayment(address debtor) public{... */\n    tag_8:\n      tag_35\n      0x04\n      dup1\n      calldatasize\n      sub\n      dup2\n      add\n      swap1\n      tag_36\n      swap2\n      swap1\n      tag_21\n      jump\t// in\n    tag_36:\n      tag_37\n      jump\t// in\n    tag_35:\n      stop\n        /* \"contracts/DebtsContract.sol\":432:1322  function createDebtsList(... */\n    tag_12:\n        /* \"contracts/DebtsContract.sol\":606:610  bool */\n      0x00\n        /* \"contracts/DebtsContract.sol\":736:737  0 */\n      dup1\n        /* \"contracts/DebtsContract.sol\":699:732  debtsList[debtor].getDebtAmount() */\n      tag_39\n        /* \"contracts/DebtsContract.sol\":699:708  debtsList */\n      0x00\n        /* \"contracts/DebtsContract.sol\":699:716  debtsList[debtor] */\n      dup1\n        /* \"contracts/DebtsContract.sol\":709:715  debtor */\n      dup10\n        /* \"contracts/DebtsContract.sol\":699:716  debtsList[debtor] */\n      0xffffffffffffffffffffffffffffffffffffffff\n      and\n      0xffffffffffffffffffffffffffffffffffffffff\n      and\n      dup2\n      mstore\n      0x20\n      add\n      swap1\n      dup2\n      mstore\n      0x20\n      add\n      0x00\n      keccak256\n        /* \"contracts/DebtsContract.sol\":699:730  debtsList[debtor].getDebtAmount */\n      tag_40\n        /* \"contracts/DebtsContract.sol\":699:732  debtsList[debtor].getDebtAmount() */\n      jump\t// in\n    tag_39:\n        /* \"contracts/DebtsContract.sol\":699:737  debtsList[debtor].getDebtAmount() == 0 */\n      eq\n        /* \"contracts/DebtsContract.sol\":678:789  require(... */\n      tag_41\n      jumpi\n      mload(0x40)\n      0x08c379a000000000000000000000000000000000000000000000000000000000\n      dup2\n      mstore\n      0x04\n      add\n      tag_42\n      swap1\n      tag_43\n      jump\t// in\n    tag_42:\n      mload(0x40)\n      dup1\n      swap2\n      sub\n      swap1\n      revert\n    tag_41:\n        /* \"contracts/DebtsContract.sol\":816:817  0 */\n      0x00\n        /* \"contracts/DebtsContract.sol\":807:813  amount */\n      dup5\n        /* \"contracts/DebtsContract.sol\":807:817  amount > 0 */\n      gt\n        /* \"contracts/DebtsContract.sol\":799:864  require(amount > 0, \"Amount of debts have to be greater than 0.\") */\n      tag_44\n      jumpi\n      mload(0x40)\n      0x08c379a000000000000000000000000000000000000000000000000000000000\n      dup2\n      mstore\n      0x04\n      add\n      tag_45\n      swap1\n      tag_46\n      jump\t// in\n    tag_45:\n      mload(0x40)\n      dup1\n      swap2\n      sub\n      swap1\n      revert\n    tag_44:\n        /* \"contracts/DebtsContract.sol\":889:890  0 */\n      0x00\n        /* \"contracts/DebtsContract.sol\":882:886  fees */\n      dup4\n        /* \"contracts/DebtsContract.sol\":882:890  fees > 0 */\n      gt\n        /* \"contracts/DebtsContract.sol\":874:929  require(fees > 0, \"Interest has to be greater than 0.\") */\n      tag_47\n      jumpi\n      mload(0x40)\n      0x08c379a000000000000000000000000000000000000000000000000000000000\n      dup2\n      mstore\n      0x04\n      add\n      tag_48\n      swap1\n      tag_49\n      jump\t// in\n    tag_48:\n      mload(0x40)\n      dup1\n      swap2\n      sub\n      swap1\n      revert\n    tag_47:\n        /* \"contracts/DebtsContract.sol\":1037:1049  ModelLibrary */\n      linkerSymbol(\"6ad00e6422a175cffb7ecfa79adae0f0edf61a259c5336d19a9f36965e96ff23\")\n        /* \"contracts/DebtsContract.sol\":1037:1064  ModelLibrary.createCreditor */\n      0xf83d18df\n        /* \"contracts/DebtsContract.sol\":1078:1086  creditor */\n      dup7\n        /* \"contracts/DebtsContract.sol\":1100:1106  amount */\n      dup7\n        /* \"contracts/DebtsContract.sol\":1120:1124  fees */\n      dup7\n        /* \"contracts/DebtsContract.sol\":1138:1153  block.timestamp */\n      timestamp\n        /* \"contracts/DebtsContract.sol\":1037:1163  ModelLibrary.createCreditor(... */\n      mload(0x40)\n      dup6\n      0xffffffff\n      and\n      0xe0\n      shl\n      dup2\n      mstore\n      0x04\n      add\n      tag_50\n      swap5\n      swap4\n      swap3\n      swap2\n      swap1\n      tag_51\n      jump\t// in\n    tag_50:\n      0x80\n      mload(0x40)\n      dup1\n      dup4\n      sub\n      dup2\n      dup7\n      gas\n      delegatecall\n      iszero\n      dup1\n      iszero\n      tag_53\n      jumpi\n      returndatasize\n      0x00\n      dup1\n      returndatacopy\n      revert(0x00, returndatasize)\n    tag_53:\n      pop\n      pop\n      pop\n      pop\n      mload(0x40)\n      returndatasize\n      not(0x1f)\n      0x1f\n      dup3\n      add\n      and\n      dup3\n      add\n      dup1\n      0x40\n      mstore\n      pop\n      dup2\n      add\n      swap1\n      tag_54\n      swap2\n      swap1\n      tag_55\n      jump\t// in\n    tag_54:\n        /* \"contracts/DebtsContract.sol\":1017:1026  debtsList */\n      0x00\n        /* \"contracts/DebtsContract.sol\":1017:1034  debtsList[debtor] */\n      dup1\n        /* \"contracts/DebtsContract.sol\":1027:1033  debtor */\n      dup9\n        /* \"contracts/DebtsContract.sol\":1017:1034  debtsList[debtor] */\n      0xffffffffffffffffffffffffffffffffffffffff\n      and\n      0xffffffffffffffffffffffffffffffffffffffff\n      and\n      dup2\n      mstore\n      0x20\n      add\n      swap1\n      dup2\n      mstore\n      0x20\n      add\n      0x00\n      keccak256\n        /* \"contracts/DebtsContract.sol\":1017:1163  debtsList[debtor] = ModelLibrary.createCreditor(... */\n      0x00\n      dup3\n      add\n      mload\n      dup2\n      0x00\n      add\n      exp(0x0100, 0x00)\n      dup2\n      sload\n      dup2\n      0xffffffffffffffffffffffffffffffffffffffff\n      mul\n      not\n      and\n      swap1\n      dup4\n      0xffffffffffffffffffffffffffffffffffffffff\n      and\n      mul\n      or\n      swap1\n      sstore\n      pop\n      0x20\n      dup3\n      add\n      mload\n      dup2\n      0x01\n      add\n      sstore\n      0x40\n      dup3\n      add\n      mload\n      dup2\n      0x02\n      add\n      sstore\n      0x60\n      dup3\n      add\n      mload\n      dup2\n      0x03\n      add\n      sstore\n      swap1\n      pop\n      pop\n        /* \"contracts/DebtsContract.sol\":1213:1219  amount */\n      dup4\n        /* \"contracts/DebtsContract.sol\":1193:1210  currentDebtAmount */\n      sload(0x01)\n        /* \"contracts/DebtsContract.sol\":1193:1219  currentDebtAmount + amount */\n      tag_56\n      swap2\n      swap1\n      tag_57\n      jump\t// in\n    tag_56:\n        /* \"contracts/DebtsContract.sol\":1173:1190  currentDebtAmount */\n      0x01\n        /* \"contracts/DebtsContract.sol\":1173:1219  currentDebtAmount = currentDebtAmount + amount */\n      dup2\n      swap1\n      sstore\n      pop\n        /* \"contracts/DebtsContract.sol\":1251:1264  addToDebtFund */\n      dup2\n        /* \"contracts/DebtsContract.sol\":1240:1248  debtFund */\n      sload(0x03)\n        /* \"contracts/DebtsContract.sol\":1240:1264  debtFund + addToDebtFund */\n      tag_58\n      swap2\n      swap1\n      tag_57\n      jump\t// in\n    tag_58:\n        /* \"contracts/DebtsContract.sol\":1229:1237  debtFund */\n      0x03\n        /* \"contracts/DebtsContract.sol\":1229:1264  debtFund = debtFund + addToDebtFund */\n      dup2\n      swap1\n      sstore\n      pop\n        /* \"contracts/DebtsContract.sol\":1287:1293  amount */\n      dup4\n        /* \"contracts/DebtsContract.sol\":1279:1294  newDebt(amount) */\n      0x5a15159ae6cc037791b91af8bdaac630acda5e3641915b25fbcb6394ae990b92\n      mload(0x40)\n      mload(0x40)\n      dup1\n      swap2\n      sub\n      swap1\n      log2\n        /* \"contracts/DebtsContract.sol\":1311:1315  true */\n      0x01\n        /* \"contracts/DebtsContract.sol\":1304:1315  return true */\n      swap1\n      pop\n        /* \"contracts/DebtsContract.sol\":432:1322  function createDebtsList(... */\n      swap6\n      swap5\n      pop\n      pop\n      pop\n      pop\n      pop\n      jump\t// out\n        /* \"contracts/DebtsContract.sol\":306:329  uint256 public debtFund */\n    tag_16:\n      sload(0x03)\n      dup2\n      jump\t// out\n        /* \"contracts/DebtsContract.sol\":183:241  mapping(address => ModelLibrary.Creditor) public debtsList */\n    tag_22:\n      mstore(0x20, 0x00)\n      dup1\n      0x00\n      mstore\n      keccak256(0x00, 0x40)\n      0x00\n      swap2\n      pop\n      swap1\n      pop\n      dup1\n      0x00\n      add\n      0x00\n      swap1\n      sload\n      swap1\n      0x0100\n      exp\n      swap1\n      div\n      0xffffffffffffffffffffffffffffffffffffffff\n      and\n      swap1\n      dup1\n      0x01\n      add\n      sload\n      swap1\n      dup1\n      0x02\n      add\n      sload\n      swap1\n      dup1\n      0x03\n      add\n      sload\n      swap1\n      pop\n      dup5\n      jump\t// out\n        /* \"contracts/DebtsContract.sol\":4451:4702  function getDebtsCreditorAndAmount(address debtor)... */\n    tag_27:\n        /* \"contracts/DebtsContract.sol\":4547:4554  address */\n      0x00\n        /* \"contracts/DebtsContract.sol\":4556:4563  uint256 */\n      dup1\n        /* \"contracts/DebtsContract.sol\":4600:4638  debtsList[debtor].getCreditorAddress() */\n      tag_60\n        /* \"contracts/DebtsContract.sol\":4600:4609  debtsList */\n      0x00\n        /* \"contracts/DebtsContract.sol\":4600:4617  debtsList[debtor] */\n      dup1\n        /* \"contracts/DebtsContract.sol\":4610:4616  debtor */\n      dup6\n        /* \"contracts/DebtsContract.sol\":4600:4617  debtsList[debtor] */\n      0xffffffffffffffffffffffffffffffffffffffff\n      and\n      0xffffffffffffffffffffffffffffffffffffffff\n      and\n      dup2\n      mstore\n      0x20\n      add\n      swap1\n      dup2\n      mstore\n      0x20\n      add\n      0x00\n      keccak256\n        /* \"contracts/DebtsContract.sol\":4600:4636  debtsList[debtor].getCreditorAddress */\n      tag_61\n        /* \"contracts/DebtsContract.sol\":4600:4638  debtsList[debtor].getCreditorAddress() */\n      jump\t// in\n    tag_60:\n        /* \"contracts/DebtsContract.sol\":4652:4685  debtsList[debtor].getDebtAmount() */\n      tag_62\n        /* \"contracts/DebtsContract.sol\":4652:4661  debtsList */\n      0x00\n        /* \"contracts/DebtsContract.sol\":4652:4669  debtsList[debtor] */\n      dup1\n        /* \"contracts/DebtsContract.sol\":4662:4668  debtor */\n      dup7\n        /* \"contracts/DebtsContract.sol\":4652:4669  debtsList[debtor] */\n      0xffffffffffffffffffffffffffffffffffffffff\n      and\n      0xffffffffffffffffffffffffffffffffffffffff\n      and\n      dup2\n      mstore\n      0x20\n      add\n      swap1\n      dup2\n      mstore\n      0x20\n      add\n      0x00\n      keccak256\n        /* \"contracts/DebtsContract.sol\":4652:4683  debtsList[debtor].getDebtAmount */\n      tag_40\n        /* \"contracts/DebtsContract.sol\":4652:4685  debtsList[debtor].getDebtAmount() */\n      jump\t// in\n    tag_62:\n        /* \"contracts/DebtsContract.sol\":4579:4695  return (... */\n      swap2\n      pop\n      swap2\n      pop\n        /* \"contracts/DebtsContract.sol\":4451:4702  function getDebtsCreditorAndAmount(address debtor)... */\n      swap2\n      pop\n      swap2\n      jump\t// out\n        /* \"contracts/DebtsContract.sol\":1614:4381  function repayDebts(... */\n    tag_33:\n        /* \"contracts/DebtsContract.sol\":1730:1747  uint256 restDebts */\n      0x00\n        /* \"contracts/DebtsContract.sol\":1878:1886  creditor */\n      dup3\n        /* \"contracts/DebtsContract.sol\":1836:1886  debtsList[debtor].getCreditorAddress() == creditor */\n      0xffffffffffffffffffffffffffffffffffffffff\n      and\n        /* \"contracts/DebtsContract.sol\":1836:1874  debtsList[debtor].getCreditorAddress() */\n      tag_64\n        /* \"contracts/DebtsContract.sol\":1836:1845  debtsList */\n      0x00\n        /* \"contracts/DebtsContract.sol\":1836:1853  debtsList[debtor] */\n      dup1\n        /* \"contracts/DebtsContract.sol\":1846:1852  debtor */\n      dup8\n        /* \"contracts/DebtsContract.sol\":1836:1853  debtsList[debtor] */\n      0xffffffffffffffffffffffffffffffffffffffff\n      and\n      0xffffffffffffffffffffffffffffffffffffffff\n      and\n      dup2\n      mstore\n      0x20\n      add\n      swap1\n      dup2\n      mstore\n      0x20\n      add\n      0x00\n      keccak256\n        /* \"contracts/DebtsContract.sol\":1836:1872  debtsList[debtor].getCreditorAddress */\n      tag_61\n        /* \"contracts/DebtsContract.sol\":1836:1874  debtsList[debtor].getCreditorAddress() */\n      jump\t// in\n    tag_64:\n        /* \"contracts/DebtsContract.sol\":1836:1886  debtsList[debtor].getCreditorAddress() == creditor */\n      0xffffffffffffffffffffffffffffffffffffffff\n      and\n      eq\n        /* \"contracts/DebtsContract.sol\":1815:1945  require(... */\n      tag_65\n      jumpi\n      mload(0x40)\n      0x08c379a000000000000000000000000000000000000000000000000000000000\n      dup2\n      mstore\n      0x04\n      add\n      tag_66\n      swap1\n      tag_67\n      jump\t// in\n    tag_66:\n      mload(0x40)\n      dup1\n      swap2\n      sub\n      swap1\n      revert\n    tag_65:\n        /* \"contracts/DebtsContract.sol\":1989:2010  uint256 debtsInterest */\n      0x00\n        /* \"contracts/DebtsContract.sol\":2013:2213  calculateInterestUntil(... */\n      tag_68\n        /* \"contracts/DebtsContract.sol\":2049:2082  debtsList[debtor].getDebtAmount() */\n      tag_69\n        /* \"contracts/DebtsContract.sol\":2049:2058  debtsList */\n      0x00\n        /* \"contracts/DebtsContract.sol\":2049:2066  debtsList[debtor] */\n      dup1\n        /* \"contracts/DebtsContract.sol\":2059:2065  debtor */\n      dup9\n        /* \"contracts/DebtsContract.sol\":2049:2066  debtsList[debtor] */\n      0xffffffffffffffffffffffffffffffffffffffff\n      and\n      0xffffffffffffffffffffffffffffffffffffffff\n      and\n      dup2\n      mstore\n      0x20\n      add\n      swap1\n      dup2\n      mstore\n      0x20\n      add\n      0x00\n      keccak256\n        /* \"contracts/DebtsContract.sol\":2049:2080  debtsList[debtor].getDebtAmount */\n      tag_40\n        /* \"contracts/DebtsContract.sol\":2049:2082  debtsList[debtor].getDebtAmount() */\n      jump\t// in\n    tag_69:\n        /* \"contracts/DebtsContract.sol\":2096:2129  debtsList[debtor].getTimeOfDebt() */\n      tag_70\n        /* \"contracts/DebtsContract.sol\":2096:2105  debtsList */\n      0x00\n        /* \"contracts/DebtsContract.sol\":2096:2113  debtsList[debtor] */\n      dup1\n        /* \"contracts/DebtsContract.sol\":2106:2112  debtor */\n      dup10\n        /* \"contracts/DebtsContract.sol\":2096:2113  debtsList[debtor] */\n      0xffffffffffffffffffffffffffffffffffffffff\n      and\n      0xffffffffffffffffffffffffffffffffffffffff\n      and\n      dup2\n      mstore\n      0x20\n      add\n      swap1\n      dup2\n      mstore\n      0x20\n      add\n      0x00\n      keccak256\n        /* \"contracts/DebtsContract.sol\":2096:2127  debtsList[debtor].getTimeOfDebt */\n      tag_71\n        /* \"contracts/DebtsContract.sol\":2096:2129  debtsList[debtor].getTimeOfDebt() */\n      jump\t// in\n    tag_70:\n        /* \"contracts/DebtsContract.sol\":2143:2158  block.timestamp */\n      timestamp\n        /* \"contracts/DebtsContract.sol\":2172:2203  debtsList[debtor].getInterest() */\n      tag_72\n        /* \"contracts/DebtsContract.sol\":2172:2181  debtsList */\n      0x00\n        /* \"contracts/DebtsContract.sol\":2172:2189  debtsList[debtor] */\n      dup1\n        /* \"contracts/DebtsContract.sol\":2182:2188  debtor */\n      dup12\n        /* \"contracts/DebtsContract.sol\":2172:2189  debtsList[debtor] */\n      0xffffffffffffffffffffffffffffffffffffffff\n      and\n      0xffffffffffffffffffffffffffffffffffffffff\n      and\n      dup2\n      mstore\n      0x20\n      add\n      swap1\n      dup2\n      mstore\n      0x20\n      add\n      0x00\n      keccak256\n        /* \"contracts/DebtsContract.sol\":2172:2201  debtsList[debtor].getInterest */\n      tag_73\n        /* \"contracts/DebtsContract.sol\":2172:2203  debtsList[debtor].getInterest() */\n      jump\t// in\n    tag_72:\n        /* \"contracts/DebtsContract.sol\":2013:2035  calculateInterestUntil */\n      tag_74\n        /* \"contracts/DebtsContract.sol\":2013:2213  calculateInterestUntil(... */\n      jump\t// in\n    tag_68:\n        /* \"contracts/DebtsContract.sol\":1989:2213  uint256 debtsInterest = calculateInterestUntil(... */\n      swap1\n      pop\n        /* \"contracts/DebtsContract.sol\":2287:2393  debtsList[debtor].setDebtAmount(... */\n      tag_75\n        /* \"contracts/DebtsContract.sol\":2369:2382  debtsInterest */\n      dup2\n        /* \"contracts/DebtsContract.sol\":2333:2366  debtsList[debtor].getDebtAmount() */\n      tag_76\n        /* \"contracts/DebtsContract.sol\":2333:2342  debtsList */\n      0x00\n        /* \"contracts/DebtsContract.sol\":2333:2350  debtsList[debtor] */\n      dup1\n        /* \"contracts/DebtsContract.sol\":2343:2349  debtor */\n      dup10\n        /* \"contracts/DebtsContract.sol\":2333:2350  debtsList[debtor] */\n      0xffffffffffffffffffffffffffffffffffffffff\n      and\n      0xffffffffffffffffffffffffffffffffffffffff\n      and\n      dup2\n      mstore\n      0x20\n      add\n      swap1\n      dup2\n      mstore\n      0x20\n      add\n      0x00\n      keccak256\n        /* \"contracts/DebtsContract.sol\":2333:2364  debtsList[debtor].getDebtAmount */\n      tag_40\n        /* \"contracts/DebtsContract.sol\":2333:2366  debtsList[debtor].getDebtAmount() */\n      jump\t// in\n    tag_76:\n        /* \"contracts/DebtsContract.sol\":2333:2382  debtsList[debtor].getDebtAmount() + debtsInterest */\n      tag_77\n      swap2\n      swap1\n      tag_57\n      jump\t// in\n    tag_77:\n        /* \"contracts/DebtsContract.sol\":2287:2296  debtsList */\n      0x00\n        /* \"contracts/DebtsContract.sol\":2287:2304  debtsList[debtor] */\n      dup1\n        /* \"contracts/DebtsContract.sol\":2297:2303  debtor */\n      dup9\n        /* \"contracts/DebtsContract.sol\":2287:2304  debtsList[debtor] */\n      0xffffffffffffffffffffffffffffffffffffffff\n      and\n      0xffffffffffffffffffffffffffffffffffffffff\n      and\n      dup2\n      mstore\n      0x20\n      add\n      swap1\n      dup2\n      mstore\n      0x20\n      add\n      0x00\n      keccak256\n        /* \"contracts/DebtsContract.sol\":2287:2318  debtsList[debtor].setDebtAmount */\n      tag_78\n      swap1\n        /* \"contracts/DebtsContract.sol\":2287:2393  debtsList[debtor].setDebtAmount(... */\n      swap2\n      swap1\n      0xffffffff\n      and\n      jump\t// in\n    tag_75:\n        /* \"contracts/DebtsContract.sol\":2439:2487  debtsList[debtor].setTimeOfDebt(block.timestamp) */\n      tag_79\n        /* \"contracts/DebtsContract.sol\":2471:2486  block.timestamp */\n      timestamp\n        /* \"contracts/DebtsContract.sol\":2439:2448  debtsList */\n      0x00\n        /* \"contracts/DebtsContract.sol\":2439:2456  debtsList[debtor] */\n      dup1\n        /* \"contracts/DebtsContract.sol\":2449:2455  debtor */\n      dup9\n        /* \"contracts/DebtsContract.sol\":2439:2456  debtsList[debtor] */\n      0xffffffffffffffffffffffffffffffffffffffff\n      and\n      0xffffffffffffffffffffffffffffffffffffffff\n      and\n      dup2\n      mstore\n      0x20\n      add\n      swap1\n      dup2\n      mstore\n      0x20\n      add\n      0x00\n      keccak256\n        /* \"contracts/DebtsContract.sol\":2439:2470  debtsList[debtor].setTimeOfDebt */\n      tag_80\n      swap1\n        /* \"contracts/DebtsContract.sol\":2439:2487  debtsList[debtor].setTimeOfDebt(block.timestamp) */\n      swap2\n      swap1\n      0xffffffff\n      and\n      jump\t// in\n    tag_79:\n        /* \"contracts/DebtsContract.sol\":2594:2621  bool debtsHigherEqualsInput */\n      0x00\n        /* \"contracts/DebtsContract.sol\":2675:2681  amount */\n      dup4\n        /* \"contracts/DebtsContract.sol\":2625:2658  debtsList[debtor].getDebtAmount() */\n      tag_81\n        /* \"contracts/DebtsContract.sol\":2625:2634  debtsList */\n      0x00\n        /* \"contracts/DebtsContract.sol\":2625:2642  debtsList[debtor] */\n      dup1\n        /* \"contracts/DebtsContract.sol\":2635:2641  debtor */\n      dup10\n        /* \"contracts/DebtsContract.sol\":2625:2642  debtsList[debtor] */\n      0xffffffffffffffffffffffffffffffffffffffff\n      and\n      0xffffffffffffffffffffffffffffffffffffffff\n      and\n      dup2\n      mstore\n      0x20\n      add\n      swap1\n      dup2\n      mstore\n      0x20\n      add\n      0x00\n      keccak256\n        /* \"contracts/DebtsContract.sol\":2625:2656  debtsList[debtor].getDebtAmount */\n      tag_40\n        /* \"contracts/DebtsContract.sol\":2625:2658  debtsList[debtor].getDebtAmount() */\n      jump\t// in\n    tag_81:\n        /* \"contracts/DebtsContract.sol\":2624:2681  (debtsList[debtor].getDebtAmount()) >=... */\n      lt\n      iszero\n        /* \"contracts/DebtsContract.sol\":2594:2681  bool debtsHigherEqualsInput = (debtsList[debtor].getDebtAmount()) >=... */\n      swap1\n      pop\n        /* \"contracts/DebtsContract.sol\":2691:2721  uint256 restAfterDebtsRepaying */\n      0x00\n        /* \"contracts/DebtsContract.sol\":2739:2761  debtsHigherEqualsInput */\n      dup2\n        /* \"contracts/DebtsContract.sol\":2735:3742  if (debtsHigherEqualsInput) {... */\n      iszero\n      tag_82\n      jumpi\n        /* \"contracts/DebtsContract.sol\":2917:3022  debtsList[debtor].setDebtAmount(... */\n      tag_83\n        /* \"contracts/DebtsContract.sol\":3002:3008  amount */\n      dup6\n        /* \"contracts/DebtsContract.sol\":2966:2999  debtsList[debtor].getDebtAmount() */\n      tag_84\n        /* \"contracts/DebtsContract.sol\":2966:2975  debtsList */\n      0x00\n        /* \"contracts/DebtsContract.sol\":2966:2983  debtsList[debtor] */\n      dup1\n        /* \"contracts/DebtsContract.sol\":2976:2982  debtor */\n      dup12\n        /* \"contracts/DebtsContract.sol\":2966:2983  debtsList[debtor] */\n      0xffffffffffffffffffffffffffffffffffffffff\n      and\n      0xffffffffffffffffffffffffffffffffffffffff\n      and\n      dup2\n      mstore\n      0x20\n      add\n      swap1\n      dup2\n      mstore\n      0x20\n      add\n      0x00\n      keccak256\n        /* \"contracts/DebtsContract.sol\":2966:2997  debtsList[debtor].getDebtAmount */\n      tag_40\n        /* \"contracts/DebtsContract.sol\":2966:2999  debtsList[debtor].getDebtAmount() */\n      jump\t// in\n    tag_84:\n        /* \"contracts/DebtsContract.sol\":2966:3008  debtsList[debtor].getDebtAmount() - amount */\n      tag_85\n      swap2\n      swap1\n      tag_86\n      jump\t// in\n    tag_85:\n        /* \"contracts/DebtsContract.sol\":2917:2926  debtsList */\n      0x00\n        /* \"contracts/DebtsContract.sol\":2917:2934  debtsList[debtor] */\n      dup1\n        /* \"contracts/DebtsContract.sol\":2927:2933  debtor */\n      dup11\n        /* \"contracts/DebtsContract.sol\":2917:2934  debtsList[debtor] */\n      0xffffffffffffffffffffffffffffffffffffffff\n      and\n      0xffffffffffffffffffffffffffffffffffffffff\n      and\n      dup2\n      mstore\n      0x20\n      add\n      swap1\n      dup2\n      mstore\n      0x20\n      add\n      0x00\n      keccak256\n        /* \"contracts/DebtsContract.sol\":2917:2948  debtsList[debtor].setDebtAmount */\n      tag_78\n      swap1\n        /* \"contracts/DebtsContract.sol\":2917:3022  debtsList[debtor].setDebtAmount(... */\n      swap2\n      swap1\n      0xffffffff\n      and\n      jump\t// in\n    tag_83:\n        /* \"contracts/DebtsContract.sol\":3076:3082  amount */\n      dup5\n        /* \"contracts/DebtsContract.sol\":3056:3073  currentDebtAmount */\n      sload(0x01)\n        /* \"contracts/DebtsContract.sol\":3056:3082  currentDebtAmount - amount */\n      tag_87\n      swap2\n      swap1\n      tag_86\n      jump\t// in\n    tag_87:\n        /* \"contracts/DebtsContract.sol\":3036:3053  currentDebtAmount */\n      0x01\n        /* \"contracts/DebtsContract.sol\":3036:3082  currentDebtAmount = currentDebtAmount - amount */\n      dup2\n      swap1\n      sstore\n      pop\n        /* \"contracts/DebtsContract.sol\":3130:3136  amount */\n      dup5\n        /* \"contracts/DebtsContract.sol\":3113:3127  allTimePayback */\n      sload(0x02)\n        /* \"contracts/DebtsContract.sol\":3113:3136  allTimePayback + amount */\n      tag_88\n      swap2\n      swap1\n      tag_57\n      jump\t// in\n    tag_88:\n        /* \"contracts/DebtsContract.sol\":3096:3110  allTimePayback */\n      0x02\n        /* \"contracts/DebtsContract.sol\":3096:3136  allTimePayback = allTimePayback + amount */\n      dup2\n      swap1\n      sstore\n      pop\n        /* \"contracts/DebtsContract.sol\":3249:3255  amount */\n      dup5\n        /* \"contracts/DebtsContract.sol\":3232:3256  repayDebtsToZero(amount) */\n      0xc171e3874b50fa60a3576f8e6f565f0579aab23c20e294a2ffdde25cdacf0fe7\n      mload(0x40)\n      mload(0x40)\n      dup1\n      swap2\n      sub\n      swap1\n      log2\n        /* \"contracts/DebtsContract.sol\":2735:3742  if (debtsHigherEqualsInput) {... */\n      jump(tag_89)\n    tag_82:\n        /* \"contracts/DebtsContract.sol\":3438:3471  debtsList[debtor].getDebtAmount() */\n      tag_90\n        /* \"contracts/DebtsContract.sol\":3438:3447  debtsList */\n      0x00\n        /* \"contracts/DebtsContract.sol\":3438:3455  debtsList[debtor] */\n      dup1\n        /* \"contracts/DebtsContract.sol\":3448:3454  debtor */\n      dup10\n        /* \"contracts/DebtsContract.sol\":3438:3455  debtsList[debtor] */\n      0xffffffffffffffffffffffffffffffffffffffff\n      and\n      0xffffffffffffffffffffffffffffffffffffffff\n      and\n      dup2\n      mstore\n      0x20\n      add\n      swap1\n      dup2\n      mstore\n      0x20\n      add\n      0x00\n      keccak256\n        /* \"contracts/DebtsContract.sol\":3438:3469  debtsList[debtor].getDebtAmount */\n      tag_40\n        /* \"contracts/DebtsContract.sol\":3438:3471  debtsList[debtor].getDebtAmount() */\n      jump\t// in\n    tag_90:\n        /* \"contracts/DebtsContract.sol\":3429:3435  amount */\n      dup6\n        /* \"contracts/DebtsContract.sol\":3429:3471  amount - debtsList[debtor].getDebtAmount() */\n      tag_91\n      swap2\n      swap1\n      tag_86\n      jump\t// in\n    tag_91:\n        /* \"contracts/DebtsContract.sol\":3404:3471  restAfterDebtsRepaying = amount - debtsList[debtor].getDebtAmount() */\n      swap1\n      pop\n        /* \"contracts/DebtsContract.sol\":3485:3519  debtsList[debtor].setDebtAmount(0) */\n      tag_92\n        /* \"contracts/DebtsContract.sol\":3517:3518  0 */\n      0x00\n        /* \"contracts/DebtsContract.sol\":3485:3494  debtsList */\n      dup1\n        /* \"contracts/DebtsContract.sol\":3485:3502  debtsList[debtor] */\n      0x00\n        /* \"contracts/DebtsContract.sol\":3495:3501  debtor */\n      dup11\n        /* \"contracts/DebtsContract.sol\":3485:3502  debtsList[debtor] */\n      0xffffffffffffffffffffffffffffffffffffffff\n      and\n      0xffffffffffffffffffffffffffffffffffffffff\n      and\n      dup2\n      mstore\n      0x20\n      add\n      swap1\n      dup2\n      mstore\n      0x20\n      add\n      0x00\n      keccak256\n        /* \"contracts/DebtsContract.sol\":3485:3516  debtsList[debtor].setDebtAmount */\n      tag_78\n      swap1\n        /* \"contracts/DebtsContract.sol\":3485:3519  debtsList[debtor].setDebtAmount(0) */\n      swap2\n      swap1\n      0xffffffff\n      and\n      jump\t// in\n    tag_92:\n        /* \"contracts/DebtsContract.sol\":3630:3652  restAfterDebtsRepaying */\n      dup1\n        /* \"contracts/DebtsContract.sol\":3605:3611  amount */\n      dup6\n        /* \"contracts/DebtsContract.sol\":3569:3586  currentDebtAmount */\n      sload(0x01)\n        /* \"contracts/DebtsContract.sol\":3569:3611  currentDebtAmount -... */\n      tag_93\n      swap2\n      swap1\n      tag_86\n      jump\t// in\n    tag_93:\n        /* \"contracts/DebtsContract.sol\":3569:3652  currentDebtAmount -... */\n      tag_94\n      swap2\n      swap1\n      tag_57\n      jump\t// in\n    tag_94:\n        /* \"contracts/DebtsContract.sol\":3533:3550  currentDebtAmount */\n      0x01\n        /* \"contracts/DebtsContract.sol\":3533:3652  currentDebtAmount =... */\n      dup2\n      swap1\n      sstore\n      pop\n        /* \"contracts/DebtsContract.sol\":3709:3731  restAfterDebtsRepaying */\n      dup1\n        /* \"contracts/DebtsContract.sol\":3700:3706  amount */\n      dup6\n        /* \"contracts/DebtsContract.sol\":3683:3697  allTimePayback */\n      sload(0x02)\n        /* \"contracts/DebtsContract.sol\":3683:3706  allTimePayback + amount */\n      tag_95\n      swap2\n      swap1\n      tag_57\n      jump\t// in\n    tag_95:\n        /* \"contracts/DebtsContract.sol\":3683:3731  allTimePayback + amount - restAfterDebtsRepaying */\n      tag_96\n      swap2\n      swap1\n      tag_86\n      jump\t// in\n    tag_96:\n        /* \"contracts/DebtsContract.sol\":3666:3680  allTimePayback */\n      0x02\n        /* \"contracts/DebtsContract.sol\":3666:3731  allTimePayback = allTimePayback + amount - restAfterDebtsRepaying */\n      dup2\n      swap1\n      sstore\n      pop\n        /* \"contracts/DebtsContract.sol\":2735:3742  if (debtsHigherEqualsInput) {... */\n    tag_89:\n        /* \"contracts/DebtsContract.sol\":4352:4374  restAfterDebtsRepaying */\n      dup1\n        /* \"contracts/DebtsContract.sol\":4345:4374  return restAfterDebtsRepaying */\n      swap4\n      pop\n      pop\n      pop\n      pop\n        /* \"contracts/DebtsContract.sol\":1614:4381  function repayDebts(... */\n      swap4\n      swap3\n      pop\n      pop\n      pop\n      jump\t// out\n        /* \"contracts/DebtsContract.sol\":4387:4445  function immediateRepayment(address debtor) public{... */\n    tag_37:\n      pop\n      jump\t// out\n        /* \"contracts/models/ModelLibrary.sol\":768:887  function getDebtAmount(Creditor storage self) internal view returns (uint256) {... */\n    tag_40:\n        /* \"contracts/models/ModelLibrary.sol\":837:844  uint256 */\n      0x00\n        /* \"contracts/models/ModelLibrary.sol\":864:868  self */\n      dup2\n        /* \"contracts/models/ModelLibrary.sol\":864:879  self.debtAmount */\n      0x01\n      add\n      sload\n        /* \"contracts/models/ModelLibrary.sol\":857:879  return self.debtAmount */\n      swap1\n      pop\n        /* \"contracts/models/ModelLibrary.sol\":768:887  function getDebtAmount(Creditor storage self) internal view returns (uint256) {... */\n      swap2\n      swap1\n      pop\n      jump\t// out\n        /* \"contracts/models/ModelLibrary.sol\":499:628  function getCreditorAddress(Creditor storage self) internal view returns (address) {... */\n    tag_61:\n        /* \"contracts/models/ModelLibrary.sol\":573:580  address */\n      0x00\n        /* \"contracts/models/ModelLibrary.sol\":600:604  self */\n      dup2\n        /* \"contracts/models/ModelLibrary.sol\":600:620  self.creditorAddress */\n      0x00\n      add\n      0x00\n      swap1\n      sload\n      swap1\n      0x0100\n      exp\n      swap1\n      div\n      0xffffffffffffffffffffffffffffffffffffffff\n      and\n        /* \"contracts/models/ModelLibrary.sol\":593:620  return self.creditorAddress */\n      swap1\n      pop\n        /* \"contracts/models/ModelLibrary.sol\":499:628  function getCreditorAddress(Creditor storage self) internal view returns (address) {... */\n      swap2\n      swap1\n      pop\n      jump\t// out\n        /* \"contracts/models/ModelLibrary.sol\":1150:1269  function getTimeOfDebt(Creditor storage self) internal view returns (uint256) {... */\n    tag_71:\n        /* \"contracts/models/ModelLibrary.sol\":1219:1226  uint256 */\n      0x00\n        /* \"contracts/models/ModelLibrary.sol\":1246:1250  self */\n      dup2\n        /* \"contracts/models/ModelLibrary.sol\":1246:1261  self.timeOfDebt */\n      0x03\n      add\n      sload\n        /* \"contracts/models/ModelLibrary.sol\":1239:1261  return self.timeOfDebt */\n      swap1\n      pop\n        /* \"contracts/models/ModelLibrary.sol\":1150:1269  function getTimeOfDebt(Creditor storage self) internal view returns (uint256) {... */\n      swap2\n      swap1\n      pop\n      jump\t// out\n        /* \"contracts/models/ModelLibrary.sol\":895:1010  function getInterest(Creditor storage self) internal view returns (uint256) {... */\n    tag_73:\n        /* \"contracts/models/ModelLibrary.sol\":962:969  uint256 */\n      0x00\n        /* \"contracts/models/ModelLibrary.sol\":989:993  self */\n      dup2\n        /* \"contracts/models/ModelLibrary.sol\":989:1002  self.interest */\n      0x02\n      add\n      sload\n        /* \"contracts/models/ModelLibrary.sol\":982:1002  return self.interest */\n      swap1\n      pop\n        /* \"contracts/models/ModelLibrary.sol\":895:1010  function getInterest(Creditor storage self) internal view returns (uint256) {... */\n      swap2\n      swap1\n      pop\n      jump\t// out\n        /* \"contracts/DebtsContract.sol\":4708:5332  function calculateInterestUntil(... */\n    tag_74:\n        /* \"contracts/DebtsContract.sol\":4893:4900  uint256 */\n      0x00\n        /* \"contracts/DebtsContract.sol\":4949:4963  startTimestamp */\n      dup4\n        /* \"contracts/DebtsContract.sol\":4933:4945  endTimestamp */\n      dup4\n        /* \"contracts/DebtsContract.sol\":4933:4963  endTimestamp >= startTimestamp */\n      lt\n      iszero\n        /* \"contracts/DebtsContract.sol\":4912:5025  require(... */\n      tag_103\n      jumpi\n      mload(0x40)\n      0x08c379a000000000000000000000000000000000000000000000000000000000\n      dup2\n      mstore\n      0x04\n      add\n      tag_104\n      swap1\n      tag_105\n      jump\t// in\n    tag_104:\n      mload(0x40)\n      dup1\n      swap2\n      sub\n      swap1\n      revert\n    tag_103:\n        /* \"contracts/DebtsContract.sol\":5036:5055  uint256 elapsedDays */\n      0x00\n        /* \"contracts/DebtsContract.sol\":5092:5098  1 days */\n      0x015180\n        /* \"contracts/DebtsContract.sol\":5074:5088  startTimestamp */\n      dup6\n        /* \"contracts/DebtsContract.sol\":5059:5071  endTimestamp */\n      dup6\n        /* \"contracts/DebtsContract.sol\":5059:5088  endTimestamp - startTimestamp */\n      tag_106\n      swap2\n      swap1\n      tag_86\n      jump\t// in\n    tag_106:\n        /* \"contracts/DebtsContract.sol\":5058:5098  (endTimestamp - startTimestamp) / 1 days */\n      tag_107\n      swap2\n      swap1\n      tag_108\n      jump\t// in\n    tag_107:\n        /* \"contracts/DebtsContract.sol\":5036:5098  uint256 elapsedDays = (endTimestamp - startTimestamp) / 1 days */\n      swap1\n      pop\n        /* \"contracts/DebtsContract.sol\":5108:5130  uint256 annualInterest */\n      0x00\n        /* \"contracts/DebtsContract.sol\":5168:5171  100 */\n      0x64\n        /* \"contracts/DebtsContract.sol\":5152:5164  interestRate */\n      dup5\n        /* \"contracts/DebtsContract.sol\":5134:5149  principalAmount */\n      dup9\n        /* \"contracts/DebtsContract.sol\":5134:5164  principalAmount * interestRate */\n      tag_109\n      swap2\n      swap1\n      tag_110\n      jump\t// in\n    tag_109:\n        /* \"contracts/DebtsContract.sol\":5133:5171  (principalAmount * interestRate) / 100 */\n      tag_111\n      swap2\n      swap1\n      tag_108\n      jump\t// in\n    tag_111:\n        /* \"contracts/DebtsContract.sol\":5108:5171  uint256 annualInterest = (principalAmount * interestRate) / 100 */\n      swap1\n      pop\n        /* \"contracts/DebtsContract.sol\":5181:5202  uint256 dailyInterest */\n      0x00\n        /* \"contracts/DebtsContract.sol\":5222:5225  365 */\n      0x016d\n        /* \"contracts/DebtsContract.sol\":5205:5219  annualInterest */\n      dup3\n        /* \"contracts/DebtsContract.sol\":5205:5225  annualInterest / 365 */\n      tag_112\n      swap2\n      swap1\n      tag_108\n      jump\t// in\n    tag_112:\n        /* \"contracts/DebtsContract.sol\":5181:5225  uint256 dailyInterest = annualInterest / 365 */\n      swap1\n      pop\n        /* \"contracts/DebtsContract.sol\":5254:5270  uint256 interest */\n      0x00\n        /* \"contracts/DebtsContract.sol\":5287:5300  dailyInterest */\n      dup2\n        /* \"contracts/DebtsContract.sol\":5273:5284  elapsedDays */\n      dup5\n        /* \"contracts/DebtsContract.sol\":5273:5300  elapsedDays * dailyInterest */\n      tag_113\n      swap2\n      swap1\n      tag_110\n      jump\t// in\n    tag_113:\n        /* \"contracts/DebtsContract.sol\":5254:5300  uint256 interest = elapsedDays * dailyInterest */\n      swap1\n      pop\n        /* \"contracts/DebtsContract.sol\":5317:5325  interest */\n      dup1\n        /* \"contracts/DebtsContract.sol\":5310:5325  return interest */\n      swap5\n      pop\n      pop\n      pop\n      pop\n      pop\n        /* \"contracts/DebtsContract.sol\":4708:5332  function calculateInterestUntil(... */\n      swap5\n      swap4\n      pop\n      pop\n      pop\n      pop\n      jump\t// out\n        /* \"contracts/models/ModelLibrary.sol\":636:760  function setDebtAmount(Creditor storage self, uint256 _debtAmount) internal {... */\n    tag_78:\n        /* \"contracts/models/ModelLibrary.sol\":741:752  _debtAmount */\n      dup1\n        /* \"contracts/models/ModelLibrary.sol\":723:727  self */\n      dup3\n        /* \"contracts/models/ModelLibrary.sol\":723:738  self.debtAmount */\n      0x01\n      add\n        /* \"contracts/models/ModelLibrary.sol\":723:752  self.debtAmount = _debtAmount */\n      dup2\n      swap1\n      sstore\n      pop\n        /* \"contracts/models/ModelLibrary.sol\":636:760  function setDebtAmount(Creditor storage self, uint256 _debtAmount) internal {... */\n      pop\n      pop\n      jump\t// out\n        /* \"contracts/models/ModelLibrary.sol\":1018:1142  function setTimeOfDebt(Creditor storage self, uint256 _timeOfDebt) internal {... */\n    tag_80:\n        /* \"contracts/models/ModelLibrary.sol\":1123:1134  _timeOfDebt */\n      dup1\n        /* \"contracts/models/ModelLibrary.sol\":1105:1109  self */\n      dup3\n        /* \"contracts/models/ModelLibrary.sol\":1105:1120  self.timeOfDebt */\n      0x03\n      add\n        /* \"contracts/models/ModelLibrary.sol\":1105:1134  self.timeOfDebt = _timeOfDebt */\n      dup2\n      swap1\n      sstore\n      pop\n        /* \"contracts/models/ModelLibrary.sol\":1018:1142  function setTimeOfDebt(Creditor storage self, uint256 _timeOfDebt) internal {... */\n      pop\n      pop\n      jump\t// out\n        /* \"#utility.yul\":7:82   */\n    tag_116:\n        /* \"#utility.yul\":40:46   */\n      0x00\n        /* \"#utility.yul\":73:75   */\n      0x40\n        /* \"#utility.yul\":67:76   */\n      mload\n        /* \"#utility.yul\":57:76   */\n      swap1\n      pop\n        /* \"#utility.yul\":7:82   */\n      swap1\n      jump\t// out\n        /* \"#utility.yul\":88:205   */\n    tag_117:\n        /* \"#utility.yul\":197:198   */\n      0x00\n        /* \"#utility.yul\":194:195   */\n      dup1\n        /* \"#utility.yul\":187:199   */\n      revert\n        /* \"#utility.yul\":334:460   */\n    tag_119:\n        /* \"#utility.yul\":371:378   */\n      0x00\n        /* \"#utility.yul\":411:453   */\n      0xffffffffffffffffffffffffffffffffffffffff\n        /* \"#utility.yul\":404:409   */\n      dup3\n        /* \"#utility.yul\":400:454   */\n      and\n        /* \"#utility.yul\":389:454   */\n      swap1\n      pop\n        /* \"#utility.yul\":334:460   */\n      swap2\n      swap1\n      pop\n      jump\t// out\n        /* \"#utility.yul\":466:562   */\n    tag_120:\n        /* \"#utility.yul\":503:510   */\n      0x00\n        /* \"#utility.yul\":532:556   */\n      tag_160\n        /* \"#utility.yul\":550:555   */\n      dup3\n        /* \"#utility.yul\":532:556   */\n      tag_119\n      jump\t// in\n    tag_160:\n        /* \"#utility.yul\":521:556   */\n      swap1\n      pop\n        /* \"#utility.yul\":466:562   */\n      swap2\n      swap1\n      pop\n      jump\t// out\n        /* \"#utility.yul\":568:690   */\n    tag_121:\n        /* \"#utility.yul\":641:665   */\n      tag_162\n        /* \"#utility.yul\":659:664   */\n      dup2\n        /* \"#utility.yul\":641:665   */\n      tag_120\n      jump\t// in\n    tag_162:\n        /* \"#utility.yul\":634:639   */\n      dup2\n        /* \"#utility.yul\":631:666   */\n      eq\n        /* \"#utility.yul\":621:684   */\n      tag_163\n      jumpi\n        /* \"#utility.yul\":680:681   */\n      0x00\n        /* \"#utility.yul\":677:678   */\n      dup1\n        /* \"#utility.yul\":670:682   */\n      revert\n        /* \"#utility.yul\":621:684   */\n    tag_163:\n        /* \"#utility.yul\":568:690   */\n      pop\n      jump\t// out\n        /* \"#utility.yul\":696:835   */\n    tag_122:\n        /* \"#utility.yul\":742:747   */\n      0x00\n        /* \"#utility.yul\":780:786   */\n      dup2\n        /* \"#utility.yul\":767:787   */\n      calldataload\n        /* \"#utility.yul\":758:787   */\n      swap1\n      pop\n        /* \"#utility.yul\":796:829   */\n      tag_165\n        /* \"#utility.yul\":823:828   */\n      dup2\n        /* \"#utility.yul\":796:829   */\n      tag_121\n      jump\t// in\n    tag_165:\n        /* \"#utility.yul\":696:835   */\n      swap3\n      swap2\n      pop\n      pop\n      jump\t// out\n        /* \"#utility.yul\":841:918   */\n    tag_123:\n        /* \"#utility.yul\":878:885   */\n      0x00\n        /* \"#utility.yul\":907:912   */\n      dup2\n        /* \"#utility.yul\":896:912   */\n      swap1\n      pop\n        /* \"#utility.yul\":841:918   */\n      swap2\n      swap1\n      pop\n      jump\t// out\n        /* \"#utility.yul\":924:1046   */\n    tag_124:\n        /* \"#utility.yul\":997:1021   */\n      tag_168\n        /* \"#utility.yul\":1015:1020   */\n      dup2\n        /* \"#utility.yul\":997:1021   */\n      tag_123\n      jump\t// in\n    tag_168:\n        /* \"#utility.yul\":990:995   */\n      dup2\n        /* \"#utility.yul\":987:1022   */\n      eq\n        /* \"#utility.yul\":977:1040   */\n      tag_169\n      jumpi\n        /* \"#utility.yul\":1036:1037   */\n      0x00\n        /* \"#utility.yul\":1033:1034   */\n      dup1\n        /* \"#utility.yul\":1026:1038   */\n      revert\n        /* \"#utility.yul\":977:1040   */\n    tag_169:\n        /* \"#utility.yul\":924:1046   */\n      pop\n      jump\t// out\n        /* \"#utility.yul\":1052:1191   */\n    tag_125:\n        /* \"#utility.yul\":1098:1103   */\n      0x00\n        /* \"#utility.yul\":1136:1142   */\n      dup2\n        /* \"#utility.yul\":1123:1143   */\n      calldataload\n        /* \"#utility.yul\":1114:1143   */\n      swap1\n      pop\n        /* \"#utility.yul\":1152:1185   */\n      tag_171\n        /* \"#utility.yul\":1179:1184   */\n      dup2\n        /* \"#utility.yul\":1152:1185   */\n      tag_124\n      jump\t// in\n    tag_171:\n        /* \"#utility.yul\":1052:1191   */\n      swap3\n      swap2\n      pop\n      pop\n      jump\t// out\n        /* \"#utility.yul\":1197:2108   */\n    tag_11:\n        /* \"#utility.yul\":1292:1298   */\n      0x00\n        /* \"#utility.yul\":1300:1306   */\n      dup1\n        /* \"#utility.yul\":1308:1314   */\n      0x00\n        /* \"#utility.yul\":1316:1322   */\n      dup1\n        /* \"#utility.yul\":1324:1330   */\n      0x00\n        /* \"#utility.yul\":1373:1376   */\n      0xa0\n        /* \"#utility.yul\":1361:1370   */\n      dup7\n        /* \"#utility.yul\":1352:1359   */\n      dup9\n        /* \"#utility.yul\":1348:1371   */\n      sub\n        /* \"#utility.yul\":1344:1377   */\n      slt\n        /* \"#utility.yul\":1341:1461   */\n      iszero\n      tag_173\n      jumpi\n        /* \"#utility.yul\":1380:1459   */\n      tag_174\n      tag_117\n      jump\t// in\n    tag_174:\n        /* \"#utility.yul\":1341:1461   */\n    tag_173:\n        /* \"#utility.yul\":1500:1501   */\n      0x00\n        /* \"#utility.yul\":1525:1578   */\n      tag_175\n        /* \"#utility.yul\":1570:1577   */\n      dup9\n        /* \"#utility.yul\":1561:1567   */\n      dup3\n        /* \"#utility.yul\":1550:1559   */\n      dup10\n        /* \"#utility.yul\":1546:1568   */\n      add\n        /* \"#utility.yul\":1525:1578   */\n      tag_122\n      jump\t// in\n    tag_175:\n        /* \"#utility.yul\":1515:1578   */\n      swap6\n      pop\n        /* \"#utility.yul\":1471:1588   */\n      pop\n        /* \"#utility.yul\":1627:1629   */\n      0x20\n        /* \"#utility.yul\":1653:1706   */\n      tag_176\n        /* \"#utility.yul\":1698:1705   */\n      dup9\n        /* \"#utility.yul\":1689:1695   */\n      dup3\n        /* \"#utility.yul\":1678:1687   */\n      dup10\n        /* \"#utility.yul\":1674:1696   */\n      add\n        /* \"#utility.yul\":1653:1706   */\n      tag_122\n      jump\t// in\n    tag_176:\n        /* \"#utility.yul\":1643:1706   */\n      swap5\n      pop\n        /* \"#utility.yul\":1598:1716   */\n      pop\n        /* \"#utility.yul\":1755:1757   */\n      0x40\n        /* \"#utility.yul\":1781:1834   */\n      tag_177\n        /* \"#utility.yul\":1826:1833   */\n      dup9\n        /* \"#utility.yul\":1817:1823   */\n      dup3\n        /* \"#utility.yul\":1806:1815   */\n      dup10\n        /* \"#utility.yul\":1802:1824   */\n      add\n        /* \"#utility.yul\":1781:1834   */\n      tag_125\n      jump\t// in\n    tag_177:\n        /* \"#utility.yul\":1771:1834   */\n      swap4\n      pop\n        /* \"#utility.yul\":1726:1844   */\n      pop\n        /* \"#utility.yul\":1883:1885   */\n      0x60\n        /* \"#utility.yul\":1909:1962   */\n      tag_178\n        /* \"#utility.yul\":1954:1961   */\n      dup9\n        /* \"#utility.yul\":1945:1951   */\n      dup3\n        /* \"#utility.yul\":1934:1943   */\n      dup10\n        /* \"#utility.yul\":1930:1952   */\n      add\n        /* \"#utility.yul\":1909:1962   */\n      tag_125\n      jump\t// in\n    tag_178:\n        /* \"#utility.yul\":1899:1962   */\n      swap3\n      pop\n        /* \"#utility.yul\":1854:1972   */\n      pop\n        /* \"#utility.yul\":2011:2014   */\n      0x80\n        /* \"#utility.yul\":2038:2091   */\n      tag_179\n        /* \"#utility.yul\":2083:2090   */\n      dup9\n        /* \"#utility.yul\":2074:2080   */\n      dup3\n        /* \"#utility.yul\":2063:2072   */\n      dup10\n        /* \"#utility.yul\":2059:2081   */\n      add\n        /* \"#utility.yul\":2038:2091   */\n      tag_125\n      jump\t// in\n    tag_179:\n        /* \"#utility.yul\":2028:2091   */\n      swap2\n      pop\n        /* \"#utility.yul\":1982:2101   */\n      pop\n        /* \"#utility.yul\":1197:2108   */\n      swap3\n      swap6\n      pop\n      swap3\n      swap6\n      swap1\n      swap4\n      pop\n      jump\t// out\n        /* \"#utility.yul\":2114:2204   */\n    tag_126:\n        /* \"#utility.yul\":2148:2155   */\n      0x00\n        /* \"#utility.yul\":2191:2196   */\n      dup2\n        /* \"#utility.yul\":2184:2197   */\n      iszero\n        /* \"#utility.yul\":2177:2198   */\n      iszero\n        /* \"#utility.yul\":2166:2198   */\n      swap1\n      pop\n        /* \"#utility.yul\":2114:2204   */\n      swap2\n      swap1\n      pop\n      jump\t// out\n        /* \"#utility.yul\":2210:2319   */\n    tag_127:\n        /* \"#utility.yul\":2291:2312   */\n      tag_182\n        /* \"#utility.yul\":2306:2311   */\n      dup2\n        /* \"#utility.yul\":2291:2312   */\n      tag_126\n      jump\t// in\n    tag_182:\n        /* \"#utility.yul\":2286:2289   */\n      dup3\n        /* \"#utility.yul\":2279:2313   */\n      mstore\n        /* \"#utility.yul\":2210:2319   */\n      pop\n      pop\n      jump\t// out\n        /* \"#utility.yul\":2325:2535   */\n    tag_14:\n        /* \"#utility.yul\":2412:2416   */\n      0x00\n        /* \"#utility.yul\":2450:2452   */\n      0x20\n        /* \"#utility.yul\":2439:2448   */\n      dup3\n        /* \"#utility.yul\":2435:2453   */\n      add\n        /* \"#utility.yul\":2427:2453   */\n      swap1\n      pop\n        /* \"#utility.yul\":2463:2528   */\n      tag_184\n        /* \"#utility.yul\":2525:2526   */\n      0x00\n        /* \"#utility.yul\":2514:2523   */\n      dup4\n        /* \"#utility.yul\":2510:2527   */\n      add\n        /* \"#utility.yul\":2501:2507   */\n      dup5\n        /* \"#utility.yul\":2463:2528   */\n      tag_127\n      jump\t// in\n    tag_184:\n        /* \"#utility.yul\":2325:2535   */\n      swap3\n      swap2\n      pop\n      pop\n      jump\t// out\n        /* \"#utility.yul\":2541:2659   */\n    tag_128:\n        /* \"#utility.yul\":2628:2652   */\n      tag_186\n        /* \"#utility.yul\":2646:2651   */\n      dup2\n        /* \"#utility.yul\":2628:2652   */\n      tag_123\n      jump\t// in\n    tag_186:\n        /* \"#utility.yul\":2623:2626   */\n      dup3\n        /* \"#utility.yul\":2616:2653   */\n      mstore\n        /* \"#utility.yul\":2541:2659   */\n      pop\n      pop\n      jump\t// out\n        /* \"#utility.yul\":2665:2887   */\n    tag_18:\n        /* \"#utility.yul\":2758:2762   */\n      0x00\n        /* \"#utility.yul\":2796:2798   */\n      0x20\n        /* \"#utility.yul\":2785:2794   */\n      dup3\n        /* \"#utility.yul\":2781:2799   */\n      add\n        /* \"#utility.yul\":2773:2799   */\n      swap1\n      pop\n        /* \"#utility.yul\":2809:2880   */\n      tag_188\n        /* \"#utility.yul\":2877:2878   */\n      0x00\n        /* \"#utility.yul\":2866:2875   */\n      dup4\n        /* \"#utility.yul\":2862:2879   */\n      add\n        /* \"#utility.yul\":2853:2859   */\n      dup5\n        /* \"#utility.yul\":2809:2880   */\n      tag_128\n      jump\t// in\n    tag_188:\n        /* \"#utility.yul\":2665:2887   */\n      swap3\n      swap2\n      pop\n      pop\n      jump\t// out\n        /* \"#utility.yul\":2893:3222   */\n    tag_21:\n        /* \"#utility.yul\":2952:2958   */\n      0x00\n        /* \"#utility.yul\":3001:3003   */\n      0x20\n        /* \"#utility.yul\":2989:2998   */\n      dup3\n        /* \"#utility.yul\":2980:2987   */\n      dup5\n        /* \"#utility.yul\":2976:2999   */\n      sub\n        /* \"#utility.yul\":2972:3004   */\n      slt\n        /* \"#utility.yul\":2969:3088   */\n      iszero\n      tag_190\n      jumpi\n        /* \"#utility.yul\":3007:3086   */\n      tag_191\n      tag_117\n      jump\t// in\n    tag_191:\n        /* \"#utility.yul\":2969:3088   */\n    tag_190:\n        /* \"#utility.yul\":3127:3128   */\n      0x00\n        /* \"#utility.yul\":3152:3205   */\n      tag_192\n        /* \"#utility.yul\":3197:3204   */\n      dup5\n        /* \"#utility.yul\":3188:3194   */\n      dup3\n        /* \"#utility.yul\":3177:3186   */\n      dup6\n        /* \"#utility.yul\":3173:3195   */\n      add\n        /* \"#utility.yul\":3152:3205   */\n      tag_122\n      jump\t// in\n    tag_192:\n        /* \"#utility.yul\":3142:3205   */\n      swap2\n      pop\n        /* \"#utility.yul\":3098:3215   */\n      pop\n        /* \"#utility.yul\":2893:3222   */\n      swap3\n      swap2\n      pop\n      pop\n      jump\t// out\n        /* \"#utility.yul\":3228:3346   */\n    tag_129:\n        /* \"#utility.yul\":3315:3339   */\n      tag_194\n        /* \"#utility.yul\":3333:3338   */\n      dup2\n        /* \"#utility.yul\":3315:3339   */\n      tag_120\n      jump\t// in\n    tag_194:\n        /* \"#utility.yul\":3310:3313   */\n      dup3\n        /* \"#utility.yul\":3303:3340   */\n      mstore\n        /* \"#utility.yul\":3228:3346   */\n      pop\n      pop\n      jump\t// out\n        /* \"#utility.yul\":3352:3905   */\n    tag_24:\n        /* \"#utility.yul\":3529:3533   */\n      0x00\n        /* \"#utility.yul\":3567:3570   */\n      0x80\n        /* \"#utility.yul\":3556:3565   */\n      dup3\n        /* \"#utility.yul\":3552:3571   */\n      add\n        /* \"#utility.yul\":3544:3571   */\n      swap1\n      pop\n        /* \"#utility.yul\":3581:3652   */\n      tag_196\n        /* \"#utility.yul\":3649:3650   */\n      0x00\n        /* \"#utility.yul\":3638:3647   */\n      dup4\n        /* \"#utility.yul\":3634:3651   */\n      add\n        /* \"#utility.yul\":3625:3631   */\n      dup8\n        /* \"#utility.yul\":3581:3652   */\n      tag_129\n      jump\t// in\n    tag_196:\n        /* \"#utility.yul\":3662:3734   */\n      tag_197\n        /* \"#utility.yul\":3730:3732   */\n      0x20\n        /* \"#utility.yul\":3719:3728   */\n      dup4\n        /* \"#utility.yul\":3715:3733   */\n      add\n        /* \"#utility.yul\":3706:3712   */\n      dup7\n        /* \"#utility.yul\":3662:3734   */\n      tag_128\n      jump\t// in\n    tag_197:\n        /* \"#utility.yul\":3744:3816   */\n      tag_198\n        /* \"#utility.yul\":3812:3814   */\n      0x40\n        /* \"#utility.yul\":3801:3810   */\n      dup4\n        /* \"#utility.yul\":3797:3815   */\n      add\n        /* \"#utility.yul\":3788:3794   */\n      dup6\n        /* \"#utility.yul\":3744:3816   */\n      tag_128\n      jump\t// in\n    tag_198:\n        /* \"#utility.yul\":3826:3898   */\n      tag_199\n        /* \"#utility.yul\":3894:3896   */\n      0x60\n        /* \"#utility.yul\":3883:3892   */\n      dup4\n        /* \"#utility.yul\":3879:3897   */\n      add\n        /* \"#utility.yul\":3870:3876   */\n      dup5\n        /* \"#utility.yul\":3826:3898   */\n      tag_128\n      jump\t// in\n    tag_199:\n        /* \"#utility.yul\":3352:3905   */\n      swap6\n      swap5\n      pop\n      pop\n      pop\n      pop\n      pop\n      jump\t// out\n        /* \"#utility.yul\":3911:4243   */\n    tag_29:\n        /* \"#utility.yul\":4032:4036   */\n      0x00\n        /* \"#utility.yul\":4070:4072   */\n      0x40\n        /* \"#utility.yul\":4059:4068   */\n      dup3\n        /* \"#utility.yul\":4055:4073   */\n      add\n        /* \"#utility.yul\":4047:4073   */\n      swap1\n      pop\n        /* \"#utility.yul\":4083:4154   */\n      tag_201\n        /* \"#utility.yul\":4151:4152   */\n      0x00\n        /* \"#utility.yul\":4140:4149   */\n      dup4\n        /* \"#utility.yul\":4136:4153   */\n      add\n        /* \"#utility.yul\":4127:4133   */\n      dup6\n        /* \"#utility.yul\":4083:4154   */\n      tag_129\n      jump\t// in\n    tag_201:\n        /* \"#utility.yul\":4164:4236   */\n      tag_202\n        /* \"#utility.yul\":4232:4234   */\n      0x20\n        /* \"#utility.yul\":4221:4230   */\n      dup4\n        /* \"#utility.yul\":4217:4235   */\n      add\n        /* \"#utility.yul\":4208:4214   */\n      dup5\n        /* \"#utility.yul\":4164:4236   */\n      tag_128\n      jump\t// in\n    tag_202:\n        /* \"#utility.yul\":3911:4243   */\n      swap4\n      swap3\n      pop\n      pop\n      pop\n      jump\t// out\n        /* \"#utility.yul\":4249:4868   */\n    tag_32:\n        /* \"#utility.yul\":4326:4332   */\n      0x00\n        /* \"#utility.yul\":4334:4340   */\n      dup1\n        /* \"#utility.yul\":4342:4348   */\n      0x00\n        /* \"#utility.yul\":4391:4393   */\n      0x60\n        /* \"#utility.yul\":4379:4388   */\n      dup5\n        /* \"#utility.yul\":4370:4377   */\n      dup7\n        /* \"#utility.yul\":4366:4389   */\n      sub\n        /* \"#utility.yul\":4362:4394   */\n      slt\n        /* \"#utility.yul\":4359:4478   */\n      iszero\n      tag_204\n      jumpi\n        /* \"#utility.yul\":4397:4476   */\n      tag_205\n      tag_117\n      jump\t// in\n    tag_205:\n        /* \"#utility.yul\":4359:4478   */\n    tag_204:\n        /* \"#utility.yul\":4517:4518   */\n      0x00\n        /* \"#utility.yul\":4542:4595   */\n      tag_206\n        /* \"#utility.yul\":4587:4594   */\n      dup7\n        /* \"#utility.yul\":4578:4584   */\n      dup3\n        /* \"#utility.yul\":4567:4576   */\n      dup8\n        /* \"#utility.yul\":4563:4585   */\n      add\n        /* \"#utility.yul\":4542:4595   */\n      tag_122\n      jump\t// in\n    tag_206:\n        /* \"#utility.yul\":4532:4595   */\n      swap4\n      pop\n        /* \"#utility.yul\":4488:4605   */\n      pop\n        /* \"#utility.yul\":4644:4646   */\n      0x20\n        /* \"#utility.yul\":4670:4723   */\n      tag_207\n        /* \"#utility.yul\":4715:4722   */\n      dup7\n        /* \"#utility.yul\":4706:4712   */\n      dup3\n        /* \"#utility.yul\":4695:4704   */\n      dup8\n        /* \"#utility.yul\":4691:4713   */\n      add\n        /* \"#utility.yul\":4670:4723   */\n      tag_122\n      jump\t// in\n    tag_207:\n        /* \"#utility.yul\":4660:4723   */\n      swap3\n      pop\n        /* \"#utility.yul\":4615:4733   */\n      pop\n        /* \"#utility.yul\":4772:4774   */\n      0x40\n        /* \"#utility.yul\":4798:4851   */\n      tag_208\n        /* \"#utility.yul\":4843:4850   */\n      dup7\n        /* \"#utility.yul\":4834:4840   */\n      dup3\n        /* \"#utility.yul\":4823:4832   */\n      dup8\n        /* \"#utility.yul\":4819:4841   */\n      add\n        /* \"#utility.yul\":4798:4851   */\n      tag_125\n      jump\t// in\n    tag_208:\n        /* \"#utility.yul\":4788:4851   */\n      swap2\n      pop\n        /* \"#utility.yul\":4743:4861   */\n      pop\n        /* \"#utility.yul\":4249:4868   */\n      swap3\n      pop\n      swap3\n      pop\n      swap3\n      jump\t// out\n        /* \"#utility.yul\":4874:5043   */\n    tag_130:\n        /* \"#utility.yul\":4958:4969   */\n      0x00\n        /* \"#utility.yul\":4992:4998   */\n      dup3\n        /* \"#utility.yul\":4987:4990   */\n      dup3\n        /* \"#utility.yul\":4980:4999   */\n      mstore\n        /* \"#utility.yul\":5032:5036   */\n      0x20\n        /* \"#utility.yul\":5027:5030   */\n      dup3\n        /* \"#utility.yul\":5023:5037   */\n      add\n        /* \"#utility.yul\":5008:5037   */\n      swap1\n      pop\n        /* \"#utility.yul\":4874:5043   */\n      swap3\n      swap2\n      pop\n      pop\n      jump\t// out\n        /* \"#utility.yul\":5049:5225   */\n    tag_131:\n        /* \"#utility.yul\":5189:5217   */\n      0x446562746f7220616c726561647920686176652064656274732e000000000000\n        /* \"#utility.yul\":5185:5186   */\n      0x00\n        /* \"#utility.yul\":5177:5183   */\n      dup3\n        /* \"#utility.yul\":5173:5187   */\n      add\n        /* \"#utility.yul\":5166:5218   */\n      mstore\n        /* \"#utility.yul\":5049:5225   */\n      pop\n      jump\t// out\n        /* \"#utility.yul\":5231:5597   */\n    tag_132:\n        /* \"#utility.yul\":5373:5376   */\n      0x00\n        /* \"#utility.yul\":5394:5461   */\n      tag_212\n        /* \"#utility.yul\":5458:5460   */\n      0x1a\n        /* \"#utility.yul\":5453:5456   */\n      dup4\n        /* \"#utility.yul\":5394:5461   */\n      tag_130\n      jump\t// in\n    tag_212:\n        /* \"#utility.yul\":5387:5461   */\n      swap2\n      pop\n        /* \"#utility.yul\":5470:5563   */\n      tag_213\n        /* \"#utility.yul\":5559:5562   */\n      dup3\n        /* \"#utility.yul\":5470:5563   */\n      tag_131\n      jump\t// in\n    tag_213:\n        /* \"#utility.yul\":5588:5590   */\n      0x20\n        /* \"#utility.yul\":5583:5586   */\n      dup3\n        /* \"#utility.yul\":5579:5591   */\n      add\n        /* \"#utility.yul\":5572:5591   */\n      swap1\n      pop\n        /* \"#utility.yul\":5231:5597   */\n      swap2\n      swap1\n      pop\n      jump\t// out\n        /* \"#utility.yul\":5603:6022   */\n    tag_43:\n        /* \"#utility.yul\":5769:5773   */\n      0x00\n        /* \"#utility.yul\":5807:5809   */\n      0x20\n        /* \"#utility.yul\":5796:5805   */\n      dup3\n        /* \"#utility.yul\":5792:5810   */\n      add\n        /* \"#utility.yul\":5784:5810   */\n      swap1\n      pop\n        /* \"#utility.yul\":5856:5865   */\n      dup2\n        /* \"#utility.yul\":5850:5854   */\n      dup2\n        /* \"#utility.yul\":5846:5866   */\n      sub\n        /* \"#utility.yul\":5842:5843   */\n      0x00\n        /* \"#utility.yul\":5831:5840   */\n      dup4\n        /* \"#utility.yul\":5827:5844   */\n      add\n        /* \"#utility.yul\":5820:5867   */\n      mstore\n        /* \"#utility.yul\":5884:6015   */\n      tag_215\n        /* \"#utility.yul\":6010:6014   */\n      dup2\n        /* \"#utility.yul\":5884:6015   */\n      tag_132\n      jump\t// in\n    tag_215:\n        /* \"#utility.yul\":5876:6015   */\n      swap1\n      pop\n        /* \"#utility.yul\":5603:6022   */\n      swap2\n      swap1\n      pop\n      jump\t// out\n        /* \"#utility.yul\":6028:6257   */\n    tag_133:\n        /* \"#utility.yul\":6168:6202   */\n      0x416d6f756e74206f66206465627473206861766520746f206265206772656174\n        /* \"#utility.yul\":6164:6165   */\n      0x00\n        /* \"#utility.yul\":6156:6162   */\n      dup3\n        /* \"#utility.yul\":6152:6166   */\n      add\n        /* \"#utility.yul\":6145:6203   */\n      mstore\n        /* \"#utility.yul\":6237:6249   */\n      0x6572207468616e20302e00000000000000000000000000000000000000000000\n        /* \"#utility.yul\":6232:6234   */\n      0x20\n        /* \"#utility.yul\":6224:6230   */\n      dup3\n        /* \"#utility.yul\":6220:6235   */\n      add\n        /* \"#utility.yul\":6213:6250   */\n      mstore\n        /* \"#utility.yul\":6028:6257   */\n      pop\n      jump\t// out\n        /* \"#utility.yul\":6263:6629   */\n    tag_134:\n        /* \"#utility.yul\":6405:6408   */\n      0x00\n        /* \"#utility.yul\":6426:6493   */\n      tag_218\n        /* \"#utility.yul\":6490:6492   */\n      0x2a\n        /* \"#utility.yul\":6485:6488   */\n      dup4\n        /* \"#utility.yul\":6426:6493   */\n      tag_130\n      jump\t// in\n    tag_218:\n        /* \"#utility.yul\":6419:6493   */\n      swap2\n      pop\n        /* \"#utility.yul\":6502:6595   */\n      tag_219\n        /* \"#utility.yul\":6591:6594   */\n      dup3\n        /* \"#utility.yul\":6502:6595   */\n      tag_133\n      jump\t// in\n    tag_219:\n        /* \"#utility.yul\":6620:6622   */\n      0x40\n        /* \"#utility.yul\":6615:6618   */\n      dup3\n        /* \"#utility.yul\":6611:6623   */\n      add\n        /* \"#utility.yul\":6604:6623   */\n      swap1\n      pop\n        /* \"#utility.yul\":6263:6629   */\n      swap2\n      swap1\n      pop\n      jump\t// out\n        /* \"#utility.yul\":6635:7054   */\n    tag_46:\n        /* \"#utility.yul\":6801:6805   */\n      0x00\n        /* \"#utility.yul\":6839:6841   */\n      0x20\n        /* \"#utility.yul\":6828:6837   */\n      dup3\n        /* \"#utility.yul\":6824:6842   */\n      add\n        /* \"#utility.yul\":6816:6842   */\n      swap1\n      pop\n        /* \"#utility.yul\":6888:6897   */\n      dup2\n        /* \"#utility.yul\":6882:6886   */\n      dup2\n        /* \"#utility.yul\":6878:6898   */\n      sub\n        /* \"#utility.yul\":6874:6875   */\n      0x00\n        /* \"#utility.yul\":6863:6872   */\n      dup4\n        /* \"#utility.yul\":6859:6876   */\n      add\n        /* \"#utility.yul\":6852:6899   */\n      mstore\n        /* \"#utility.yul\":6916:7047   */\n      tag_221\n        /* \"#utility.yul\":7042:7046   */\n      dup2\n        /* \"#utility.yul\":6916:7047   */\n      tag_134\n      jump\t// in\n    tag_221:\n        /* \"#utility.yul\":6908:7047   */\n      swap1\n      pop\n        /* \"#utility.yul\":6635:7054   */\n      swap2\n      swap1\n      pop\n      jump\t// out\n        /* \"#utility.yul\":7060:7281   */\n    tag_135:\n        /* \"#utility.yul\":7200:7234   */\n      0x496e7465726573742068617320746f2062652067726561746572207468616e20\n        /* \"#utility.yul\":7196:7197   */\n      0x00\n        /* \"#utility.yul\":7188:7194   */\n      dup3\n        /* \"#utility.yul\":7184:7198   */\n      add\n        /* \"#utility.yul\":7177:7235   */\n      mstore\n        /* \"#utility.yul\":7269:7273   */\n      0x302e000000000000000000000000000000000000000000000000000000000000\n        /* \"#utility.yul\":7264:7266   */\n      0x20\n        /* \"#utility.yul\":7256:7262   */\n      dup3\n        /* \"#utility.yul\":7252:7267   */\n      add\n        /* \"#utility.yul\":7245:7274   */\n      mstore\n        /* \"#utility.yul\":7060:7281   */\n      pop\n      jump\t// out\n        /* \"#utility.yul\":7287:7653   */\n    tag_136:\n        /* \"#utility.yul\":7429:7432   */\n      0x00\n        /* \"#utility.yul\":7450:7517   */\n      tag_224\n        /* \"#utility.yul\":7514:7516   */\n      0x22\n        /* \"#utility.yul\":7509:7512   */\n      dup4\n        /* \"#utility.yul\":7450:7517   */\n      tag_130\n      jump\t// in\n    tag_224:\n        /* \"#utility.yul\":7443:7517   */\n      swap2\n      pop\n        /* \"#utility.yul\":7526:7619   */\n      tag_225\n        /* \"#utility.yul\":7615:7618   */\n      dup3\n        /* \"#utility.yul\":7526:7619   */\n      tag_135\n      jump\t// in\n    tag_225:\n        /* \"#utility.yul\":7644:7646   */\n      0x40\n        /* \"#utility.yul\":7639:7642   */\n      dup3\n        /* \"#utility.yul\":7635:7647   */\n      add\n        /* \"#utility.yul\":7628:7647   */\n      swap1\n      pop\n        /* \"#utility.yul\":7287:7653   */\n      swap2\n      swap1\n      pop\n      jump\t// out\n        /* \"#utility.yul\":7659:8078   */\n    tag_49:\n        /* \"#utility.yul\":7825:7829   */\n      0x00\n        /* \"#utility.yul\":7863:7865   */\n      0x20\n        /* \"#utility.yul\":7852:7861   */\n      dup3\n        /* \"#utility.yul\":7848:7866   */\n      add\n        /* \"#utility.yul\":7840:7866   */\n      swap1\n      pop\n        /* \"#utility.yul\":7912:7921   */\n      dup2\n        /* \"#utility.yul\":7906:7910   */\n      dup2\n        /* \"#utility.yul\":7902:7922   */\n      sub\n        /* \"#utility.yul\":7898:7899   */\n      0x00\n        /* \"#utility.yul\":7887:7896   */\n      dup4\n        /* \"#utility.yul\":7883:7900   */\n      add\n        /* \"#utility.yul\":7876:7923   */\n      mstore\n        /* \"#utility.yul\":7940:8071   */\n      tag_227\n        /* \"#utility.yul\":8066:8070   */\n      dup2\n        /* \"#utility.yul\":7940:8071   */\n      tag_136\n      jump\t// in\n    tag_227:\n        /* \"#utility.yul\":7932:8071   */\n      swap1\n      pop\n        /* \"#utility.yul\":7659:8078   */\n      swap2\n      swap1\n      pop\n      jump\t// out\n        /* \"#utility.yul\":8084:8210   */\n    tag_137:\n        /* \"#utility.yul\":8179:8203   */\n      tag_229\n        /* \"#utility.yul\":8197:8202   */\n      dup2\n        /* \"#utility.yul\":8179:8203   */\n      tag_120\n      jump\t// in\n    tag_229:\n        /* \"#utility.yul\":8174:8177   */\n      dup3\n        /* \"#utility.yul\":8167:8204   */\n      mstore\n        /* \"#utility.yul\":8084:8210   */\n      pop\n      pop\n      jump\t// out\n        /* \"#utility.yul\":8216:8342   */\n    tag_138:\n        /* \"#utility.yul\":8311:8335   */\n      tag_231\n        /* \"#utility.yul\":8329:8334   */\n      dup2\n        /* \"#utility.yul\":8311:8335   */\n      tag_123\n      jump\t// in\n    tag_231:\n        /* \"#utility.yul\":8306:8309   */\n      dup3\n        /* \"#utility.yul\":8299:8336   */\n      mstore\n        /* \"#utility.yul\":8216:8342   */\n      pop\n      pop\n      jump\t// out\n        /* \"#utility.yul\":8348:8941   */\n    tag_51:\n        /* \"#utility.yul\":8533:8537   */\n      0x00\n        /* \"#utility.yul\":8571:8574   */\n      0x80\n        /* \"#utility.yul\":8560:8569   */\n      dup3\n        /* \"#utility.yul\":8556:8575   */\n      add\n        /* \"#utility.yul\":8548:8575   */\n      swap1\n      pop\n        /* \"#utility.yul\":8585:8664   */\n      tag_233\n        /* \"#utility.yul\":8661:8662   */\n      0x00\n        /* \"#utility.yul\":8650:8659   */\n      dup4\n        /* \"#utility.yul\":8646:8663   */\n      add\n        /* \"#utility.yul\":8637:8643   */\n      dup8\n        /* \"#utility.yul\":8585:8664   */\n      tag_137\n      jump\t// in\n    tag_233:\n        /* \"#utility.yul\":8674:8754   */\n      tag_234\n        /* \"#utility.yul\":8750:8752   */\n      0x20\n        /* \"#utility.yul\":8739:8748   */\n      dup4\n        /* \"#utility.yul\":8735:8753   */\n      add\n        /* \"#utility.yul\":8726:8732   */\n      dup7\n        /* \"#utility.yul\":8674:8754   */\n      tag_138\n      jump\t// in\n    tag_234:\n        /* \"#utility.yul\":8764:8844   */\n      tag_235\n        /* \"#utility.yul\":8840:8842   */\n      0x40\n        /* \"#utility.yul\":8829:8838   */\n      dup4\n        /* \"#utility.yul\":8825:8843   */\n      add\n        /* \"#utility.yul\":8816:8822   */\n      dup6\n        /* \"#utility.yul\":8764:8844   */\n      tag_138\n      jump\t// in\n    tag_235:\n        /* \"#utility.yul\":8854:8934   */\n      tag_236\n        /* \"#utility.yul\":8930:8932   */\n      0x60\n        /* \"#utility.yul\":8919:8928   */\n      dup4\n        /* \"#utility.yul\":8915:8933   */\n      add\n        /* \"#utility.yul\":8906:8912   */\n      dup5\n        /* \"#utility.yul\":8854:8934   */\n      tag_138\n      jump\t// in\n    tag_236:\n        /* \"#utility.yul\":8348:8941   */\n      swap6\n      swap5\n      pop\n      pop\n      pop\n      pop\n      pop\n      jump\t// out\n        /* \"#utility.yul\":8947:9064   */\n    tag_139:\n        /* \"#utility.yul\":9056:9057   */\n      0x00\n        /* \"#utility.yul\":9053:9054   */\n      dup1\n        /* \"#utility.yul\":9046:9058   */\n      revert\n        /* \"#utility.yul\":9070:9172   */\n    tag_140:\n        /* \"#utility.yul\":9111:9117   */\n      0x00\n        /* \"#utility.yul\":9162:9164   */\n      0x1f\n        /* \"#utility.yul\":9158:9165   */\n      not\n        /* \"#utility.yul\":9153:9155   */\n      0x1f\n        /* \"#utility.yul\":9146:9151   */\n      dup4\n        /* \"#utility.yul\":9142:9156   */\n      add\n        /* \"#utility.yul\":9138:9166   */\n      and\n        /* \"#utility.yul\":9128:9166   */\n      swap1\n      pop\n        /* \"#utility.yul\":9070:9172   */\n      swap2\n      swap1\n      pop\n      jump\t// out\n        /* \"#utility.yul\":9178:9358   */\n    tag_141:\n        /* \"#utility.yul\":9226:9303   */\n      0x4e487b7100000000000000000000000000000000000000000000000000000000\n        /* \"#utility.yul\":9223:9224   */\n      0x00\n        /* \"#utility.yul\":9216:9304   */\n      mstore\n        /* \"#utility.yul\":9323:9327   */\n      0x41\n        /* \"#utility.yul\":9320:9321   */\n      0x04\n        /* \"#utility.yul\":9313:9328   */\n      mstore\n        /* \"#utility.yul\":9347:9351   */\n      0x24\n        /* \"#utility.yul\":9344:9345   */\n      0x00\n        /* \"#utility.yul\":9337:9352   */\n      revert\n        /* \"#utility.yul\":9364:9645   */\n    tag_142:\n        /* \"#utility.yul\":9447:9474   */\n      tag_241\n        /* \"#utility.yul\":9469:9473   */\n      dup3\n        /* \"#utility.yul\":9447:9474   */\n      tag_140\n      jump\t// in\n    tag_241:\n        /* \"#utility.yul\":9439:9445   */\n      dup2\n        /* \"#utility.yul\":9435:9475   */\n      add\n        /* \"#utility.yul\":9577:9583   */\n      dup2\n        /* \"#utility.yul\":9565:9575   */\n      dup2\n        /* \"#utility.yul\":9562:9584   */\n      lt\n        /* \"#utility.yul\":9541:9559   */\n      0xffffffffffffffff\n        /* \"#utility.yul\":9529:9539   */\n      dup3\n        /* \"#utility.yul\":9526:9560   */\n      gt\n        /* \"#utility.yul\":9523:9585   */\n      or\n        /* \"#utility.yul\":9520:9608   */\n      iszero\n      tag_242\n      jumpi\n        /* \"#utility.yul\":9588:9606   */\n      tag_243\n      tag_141\n      jump\t// in\n    tag_243:\n        /* \"#utility.yul\":9520:9608   */\n    tag_242:\n        /* \"#utility.yul\":9628:9638   */\n      dup1\n        /* \"#utility.yul\":9624:9626   */\n      0x40\n        /* \"#utility.yul\":9617:9639   */\n      mstore\n        /* \"#utility.yul\":9407:9645   */\n      pop\n        /* \"#utility.yul\":9364:9645   */\n      pop\n      pop\n      jump\t// out\n        /* \"#utility.yul\":9651:9780   */\n    tag_143:\n        /* \"#utility.yul\":9685:9691   */\n      0x00\n        /* \"#utility.yul\":9712:9732   */\n      tag_245\n      tag_116\n      jump\t// in\n    tag_245:\n        /* \"#utility.yul\":9702:9732   */\n      swap1\n      pop\n        /* \"#utility.yul\":9741:9774   */\n      tag_246\n        /* \"#utility.yul\":9769:9773   */\n      dup3\n        /* \"#utility.yul\":9761:9767   */\n      dup3\n        /* \"#utility.yul\":9741:9774   */\n      tag_142\n      jump\t// in\n    tag_246:\n        /* \"#utility.yul\":9651:9780   */\n      swap2\n      swap1\n      pop\n      jump\t// out\n        /* \"#utility.yul\":9909:10052   */\n    tag_145:\n        /* \"#utility.yul\":9966:9971   */\n      0x00\n        /* \"#utility.yul\":9997:10003   */\n      dup2\n        /* \"#utility.yul\":9991:10004   */\n      mload\n        /* \"#utility.yul\":9982:10004   */\n      swap1\n      pop\n        /* \"#utility.yul\":10013:10046   */\n      tag_249\n        /* \"#utility.yul\":10040:10045   */\n      dup2\n        /* \"#utility.yul\":10013:10046   */\n      tag_121\n      jump\t// in\n    tag_249:\n        /* \"#utility.yul\":9909:10052   */\n      swap3\n      swap2\n      pop\n      pop\n      jump\t// out\n        /* \"#utility.yul\":10058:10201   */\n    tag_146:\n        /* \"#utility.yul\":10115:10120   */\n      0x00\n        /* \"#utility.yul\":10146:10152   */\n      dup2\n        /* \"#utility.yul\":10140:10153   */\n      mload\n        /* \"#utility.yul\":10131:10153   */\n      swap1\n      pop\n        /* \"#utility.yul\":10162:10195   */\n      tag_251\n        /* \"#utility.yul\":10189:10194   */\n      dup2\n        /* \"#utility.yul\":10162:10195   */\n      tag_124\n      jump\t// in\n    tag_251:\n        /* \"#utility.yul\":10058:10201   */\n      swap3\n      swap2\n      pop\n      pop\n      jump\t// out\n        /* \"#utility.yul\":10243:11221   */\n    tag_147:\n        /* \"#utility.yul\":10328:10333   */\n      0x00\n        /* \"#utility.yul\":10372:10376   */\n      0x80\n        /* \"#utility.yul\":10360:10369   */\n      dup3\n        /* \"#utility.yul\":10355:10358   */\n      dup5\n        /* \"#utility.yul\":10351:10370   */\n      sub\n        /* \"#utility.yul\":10347:10377   */\n      slt\n        /* \"#utility.yul\":10344:10461   */\n      iszero\n      tag_253\n      jumpi\n        /* \"#utility.yul\":10380:10459   */\n      tag_254\n      tag_139\n      jump\t// in\n    tag_254:\n        /* \"#utility.yul\":10344:10461   */\n    tag_253:\n        /* \"#utility.yul\":10479:10500   */\n      tag_255\n        /* \"#utility.yul\":10495:10499   */\n      0x80\n        /* \"#utility.yul\":10479:10500   */\n      tag_143\n      jump\t// in\n    tag_255:\n        /* \"#utility.yul\":10470:10500   */\n      swap1\n      pop\n        /* \"#utility.yul\":10570:10571   */\n      0x00\n        /* \"#utility.yul\":10610:10670   */\n      tag_256\n        /* \"#utility.yul\":10666:10669   */\n      dup5\n        /* \"#utility.yul\":10657:10663   */\n      dup3\n        /* \"#utility.yul\":10646:10655   */\n      dup6\n        /* \"#utility.yul\":10642:10664   */\n      add\n        /* \"#utility.yul\":10610:10670   */\n      tag_145\n      jump\t// in\n    tag_256:\n        /* \"#utility.yul\":10603:10607   */\n      0x00\n        /* \"#utility.yul\":10596:10601   */\n      dup4\n        /* \"#utility.yul\":10592:10608   */\n      add\n        /* \"#utility.yul\":10585:10671   */\n      mstore\n        /* \"#utility.yul\":10510:10682   */\n      pop\n        /* \"#utility.yul\":10747:10749   */\n      0x20\n        /* \"#utility.yul\":10788:10848   */\n      tag_257\n        /* \"#utility.yul\":10844:10847   */\n      dup5\n        /* \"#utility.yul\":10835:10841   */\n      dup3\n        /* \"#utility.yul\":10824:10833   */\n      dup6\n        /* \"#utility.yul\":10820:10842   */\n      add\n        /* \"#utility.yul\":10788:10848   */\n      tag_146\n      jump\t// in\n    tag_257:\n        /* \"#utility.yul\":10781:10785   */\n      0x20\n        /* \"#utility.yul\":10774:10779   */\n      dup4\n        /* \"#utility.yul\":10770:10786   */\n      add\n        /* \"#utility.yul\":10763:10849   */\n      mstore\n        /* \"#utility.yul\":10692:10860   */\n      pop\n        /* \"#utility.yul\":10923:10925   */\n      0x40\n        /* \"#utility.yul\":10964:11024   */\n      tag_258\n        /* \"#utility.yul\":11020:11023   */\n      dup5\n        /* \"#utility.yul\":11011:11017   */\n      dup3\n        /* \"#utility.yul\":11000:11009   */\n      dup6\n        /* \"#utility.yul\":10996:11018   */\n      add\n        /* \"#utility.yul\":10964:11024   */\n      tag_146\n      jump\t// in\n    tag_258:\n        /* \"#utility.yul\":10957:10961   */\n      0x40\n        /* \"#utility.yul\":10950:10955   */\n      dup4\n        /* \"#utility.yul\":10946:10962   */\n      add\n        /* \"#utility.yul\":10939:11025   */\n      mstore\n        /* \"#utility.yul\":10870:11036   */\n      pop\n        /* \"#utility.yul\":11101:11103   */\n      0x60\n        /* \"#utility.yul\":11142:11202   */\n      tag_259\n        /* \"#utility.yul\":11198:11201   */\n      dup5\n        /* \"#utility.yul\":11189:11195   */\n      dup3\n        /* \"#utility.yul\":11178:11187   */\n      dup6\n        /* \"#utility.yul\":11174:11196   */\n      add\n        /* \"#utility.yul\":11142:11202   */\n      tag_146\n      jump\t// in\n    tag_259:\n        /* \"#utility.yul\":11135:11139   */\n      0x60\n        /* \"#utility.yul\":11128:11133   */\n      dup4\n        /* \"#utility.yul\":11124:11140   */\n      add\n        /* \"#utility.yul\":11117:11203   */\n      mstore\n        /* \"#utility.yul\":11046:11214   */\n      pop\n        /* \"#utility.yul\":10243:11221   */\n      swap3\n      swap2\n      pop\n      pop\n      jump\t// out\n        /* \"#utility.yul\":11227:11629   */\n    tag_55:\n        /* \"#utility.yul\":11322:11328   */\n      0x00\n        /* \"#utility.yul\":11371:11374   */\n      0x80\n        /* \"#utility.yul\":11359:11368   */\n      dup3\n        /* \"#utility.yul\":11350:11357   */\n      dup5\n        /* \"#utility.yul\":11346:11369   */\n      sub\n        /* \"#utility.yul\":11342:11375   */\n      slt\n        /* \"#utility.yul\":11339:11459   */\n      iszero\n      tag_261\n      jumpi\n        /* \"#utility.yul\":11378:11457   */\n      tag_262\n      tag_117\n      jump\t// in\n    tag_262:\n        /* \"#utility.yul\":11339:11459   */\n    tag_261:\n        /* \"#utility.yul\":11498:11499   */\n      0x00\n        /* \"#utility.yul\":11523:11612   */\n      tag_263\n        /* \"#utility.yul\":11604:11611   */\n      dup5\n        /* \"#utility.yul\":11595:11601   */\n      dup3\n        /* \"#utility.yul\":11584:11593   */\n      dup6\n        /* \"#utility.yul\":11580:11602   */\n      add\n        /* \"#utility.yul\":11523:11612   */\n      tag_147\n      jump\t// in\n    tag_263:\n        /* \"#utility.yul\":11513:11612   */\n      swap2\n      pop\n        /* \"#utility.yul\":11469:11622   */\n      pop\n        /* \"#utility.yul\":11227:11629   */\n      swap3\n      swap2\n      pop\n      pop\n      jump\t// out\n        /* \"#utility.yul\":11635:11815   */\n    tag_148:\n        /* \"#utility.yul\":11683:11760   */\n      0x4e487b7100000000000000000000000000000000000000000000000000000000\n        /* \"#utility.yul\":11680:11681   */\n      0x00\n        /* \"#utility.yul\":11673:11761   */\n      mstore\n        /* \"#utility.yul\":11780:11784   */\n      0x11\n        /* \"#utility.yul\":11777:11778   */\n      0x04\n        /* \"#utility.yul\":11770:11785   */\n      mstore\n        /* \"#utility.yul\":11804:11808   */\n      0x24\n        /* \"#utility.yul\":11801:11802   */\n      0x00\n        /* \"#utility.yul\":11794:11809   */\n      revert\n        /* \"#utility.yul\":11821:12012   */\n    tag_57:\n        /* \"#utility.yul\":11861:11864   */\n      0x00\n        /* \"#utility.yul\":11880:11900   */\n      tag_266\n        /* \"#utility.yul\":11898:11899   */\n      dup3\n        /* \"#utility.yul\":11880:11900   */\n      tag_123\n      jump\t// in\n    tag_266:\n        /* \"#utility.yul\":11875:11900   */\n      swap2\n      pop\n        /* \"#utility.yul\":11914:11934   */\n      tag_267\n        /* \"#utility.yul\":11932:11933   */\n      dup4\n        /* \"#utility.yul\":11914:11934   */\n      tag_123\n      jump\t// in\n    tag_267:\n        /* \"#utility.yul\":11909:11934   */\n      swap3\n      pop\n        /* \"#utility.yul\":11957:11958   */\n      dup3\n        /* \"#utility.yul\":11954:11955   */\n      dup3\n        /* \"#utility.yul\":11950:11959   */\n      add\n        /* \"#utility.yul\":11943:11959   */\n      swap1\n      pop\n        /* \"#utility.yul\":11978:11981   */\n      dup1\n        /* \"#utility.yul\":11975:11976   */\n      dup3\n        /* \"#utility.yul\":11972:11982   */\n      gt\n        /* \"#utility.yul\":11969:12005   */\n      iszero\n      tag_268\n      jumpi\n        /* \"#utility.yul\":11985:12003   */\n      tag_269\n      tag_148\n      jump\t// in\n    tag_269:\n        /* \"#utility.yul\":11969:12005   */\n    tag_268:\n        /* \"#utility.yul\":11821:12012   */\n      swap3\n      swap2\n      pop\n      pop\n      jump\t// out\n        /* \"#utility.yul\":12018:12238   */\n    tag_149:\n        /* \"#utility.yul\":12158:12192   */\n      0x446562746f722d4372656469742d5061697220697320756e7661696c61626c65\n        /* \"#utility.yul\":12154:12155   */\n      0x00\n        /* \"#utility.yul\":12146:12152   */\n      dup3\n        /* \"#utility.yul\":12142:12156   */\n      add\n        /* \"#utility.yul\":12135:12193   */\n      mstore\n        /* \"#utility.yul\":12227:12230   */\n      0x2e00000000000000000000000000000000000000000000000000000000000000\n        /* \"#utility.yul\":12222:12224   */\n      0x20\n        /* \"#utility.yul\":12214:12220   */\n      dup3\n        /* \"#utility.yul\":12210:12225   */\n      add\n        /* \"#utility.yul\":12203:12231   */\n      mstore\n        /* \"#utility.yul\":12018:12238   */\n      pop\n      jump\t// out\n        /* \"#utility.yul\":12244:12610   */\n    tag_150:\n        /* \"#utility.yul\":12386:12389   */\n      0x00\n        /* \"#utility.yul\":12407:12474   */\n      tag_272\n        /* \"#utility.yul\":12471:12473   */\n      0x21\n        /* \"#utility.yul\":12466:12469   */\n      dup4\n        /* \"#utility.yul\":12407:12474   */\n      tag_130\n      jump\t// in\n    tag_272:\n        /* \"#utility.yul\":12400:12474   */\n      swap2\n      pop\n        /* \"#utility.yul\":12483:12576   */\n      tag_273\n        /* \"#utility.yul\":12572:12575   */\n      dup3\n        /* \"#utility.yul\":12483:12576   */\n      tag_149\n      jump\t// in\n    tag_273:\n        /* \"#utility.yul\":12601:12603   */\n      0x40\n        /* \"#utility.yul\":12596:12599   */\n      dup3\n        /* \"#utility.yul\":12592:12604   */\n      add\n        /* \"#utility.yul\":12585:12604   */\n      swap1\n      pop\n        /* \"#utility.yul\":12244:12610   */\n      swap2\n      swap1\n      pop\n      jump\t// out\n        /* \"#utility.yul\":12616:13035   */\n    tag_67:\n        /* \"#utility.yul\":12782:12786   */\n      0x00\n        /* \"#utility.yul\":12820:12822   */\n      0x20\n        /* \"#utility.yul\":12809:12818   */\n      dup3\n        /* \"#utility.yul\":12805:12823   */\n      add\n        /* \"#utility.yul\":12797:12823   */\n      swap1\n      pop\n        /* \"#utility.yul\":12869:12878   */\n      dup2\n        /* \"#utility.yul\":12863:12867   */\n      dup2\n        /* \"#utility.yul\":12859:12879   */\n      sub\n        /* \"#utility.yul\":12855:12856   */\n      0x00\n        /* \"#utility.yul\":12844:12853   */\n      dup4\n        /* \"#utility.yul\":12840:12857   */\n      add\n        /* \"#utility.yul\":12833:12880   */\n      mstore\n        /* \"#utility.yul\":12897:13028   */\n      tag_275\n        /* \"#utility.yul\":13023:13027   */\n      dup2\n        /* \"#utility.yul\":12897:13028   */\n      tag_150\n      jump\t// in\n    tag_275:\n        /* \"#utility.yul\":12889:13028   */\n      swap1\n      pop\n        /* \"#utility.yul\":12616:13035   */\n      swap2\n      swap1\n      pop\n      jump\t// out\n        /* \"#utility.yul\":13041:13235   */\n    tag_86:\n        /* \"#utility.yul\":13081:13085   */\n      0x00\n        /* \"#utility.yul\":13101:13121   */\n      tag_277\n        /* \"#utility.yul\":13119:13120   */\n      dup3\n        /* \"#utility.yul\":13101:13121   */\n      tag_123\n      jump\t// in\n    tag_277:\n        /* \"#utility.yul\":13096:13121   */\n      swap2\n      pop\n        /* \"#utility.yul\":13135:13155   */\n      tag_278\n        /* \"#utility.yul\":13153:13154   */\n      dup4\n        /* \"#utility.yul\":13135:13155   */\n      tag_123\n      jump\t// in\n    tag_278:\n        /* \"#utility.yul\":13130:13155   */\n      swap3\n      pop\n        /* \"#utility.yul\":13179:13180   */\n      dup3\n        /* \"#utility.yul\":13176:13177   */\n      dup3\n        /* \"#utility.yul\":13172:13181   */\n      sub\n        /* \"#utility.yul\":13164:13181   */\n      swap1\n      pop\n        /* \"#utility.yul\":13203:13204   */\n      dup2\n        /* \"#utility.yul\":13197:13201   */\n      dup2\n        /* \"#utility.yul\":13194:13205   */\n      gt\n        /* \"#utility.yul\":13191:13228   */\n      iszero\n      tag_279\n      jumpi\n        /* \"#utility.yul\":13208:13226   */\n      tag_280\n      tag_148\n      jump\t// in\n    tag_280:\n        /* \"#utility.yul\":13191:13228   */\n    tag_279:\n        /* \"#utility.yul\":13041:13235   */\n      swap3\n      swap2\n      pop\n      pop\n      jump\t// out\n        /* \"#utility.yul\":13241:13464   */\n    tag_151:\n        /* \"#utility.yul\":13381:13415   */\n      0x537461727420616e6420656e642074696d657374616d707320646f6e2774206d\n        /* \"#utility.yul\":13377:13378   */\n      0x00\n        /* \"#utility.yul\":13369:13375   */\n      dup3\n        /* \"#utility.yul\":13365:13379   */\n      add\n        /* \"#utility.yul\":13358:13416   */\n      mstore\n        /* \"#utility.yul\":13450:13456   */\n      0x6174636800000000000000000000000000000000000000000000000000000000\n        /* \"#utility.yul\":13445:13447   */\n      0x20\n        /* \"#utility.yul\":13437:13443   */\n      dup3\n        /* \"#utility.yul\":13433:13448   */\n      add\n        /* \"#utility.yul\":13426:13457   */\n      mstore\n        /* \"#utility.yul\":13241:13464   */\n      pop\n      jump\t// out\n        /* \"#utility.yul\":13470:13836   */\n    tag_152:\n        /* \"#utility.yul\":13612:13615   */\n      0x00\n        /* \"#utility.yul\":13633:13700   */\n      tag_283\n        /* \"#utility.yul\":13697:13699   */\n      0x24\n        /* \"#utility.yul\":13692:13695   */\n      dup4\n        /* \"#utility.yul\":13633:13700   */\n      tag_130\n      jump\t// in\n    tag_283:\n        /* \"#utility.yul\":13626:13700   */\n      swap2\n      pop\n        /* \"#utility.yul\":13709:13802   */\n      tag_284\n        /* \"#utility.yul\":13798:13801   */\n      dup3\n        /* \"#utility.yul\":13709:13802   */\n      tag_151\n      jump\t// in\n    tag_284:\n        /* \"#utility.yul\":13827:13829   */\n      0x40\n        /* \"#utility.yul\":13822:13825   */\n      dup3\n        /* \"#utility.yul\":13818:13830   */\n      add\n        /* \"#utility.yul\":13811:13830   */\n      swap1\n      pop\n        /* \"#utility.yul\":13470:13836   */\n      swap2\n      swap1\n      pop\n      jump\t// out\n        /* \"#utility.yul\":13842:14261   */\n    tag_105:\n        /* \"#utility.yul\":14008:14012   */\n      0x00\n        /* \"#utility.yul\":14046:14048   */\n      0x20\n        /* \"#utility.yul\":14035:14044   */\n      dup3\n        /* \"#utility.yul\":14031:14049   */\n      add\n        /* \"#utility.yul\":14023:14049   */\n      swap1\n      pop\n        /* \"#utility.yul\":14095:14104   */\n      dup2\n        /* \"#utility.yul\":14089:14093   */\n      dup2\n        /* \"#utility.yul\":14085:14105   */\n      sub\n        /* \"#utility.yul\":14081:14082   */\n      0x00\n        /* \"#utility.yul\":14070:14079   */\n      dup4\n        /* \"#utility.yul\":14066:14083   */\n      add\n        /* \"#utility.yul\":14059:14106   */\n      mstore\n        /* \"#utility.yul\":14123:14254   */\n      tag_286\n        /* \"#utility.yul\":14249:14253   */\n      dup2\n        /* \"#utility.yul\":14123:14254   */\n      tag_152\n      jump\t// in\n    tag_286:\n        /* \"#utility.yul\":14115:14254   */\n      swap1\n      pop\n        /* \"#utility.yul\":13842:14261   */\n      swap2\n      swap1\n      pop\n      jump\t// out\n        /* \"#utility.yul\":14267:14447   */\n    tag_153:\n        /* \"#utility.yul\":14315:14392   */\n      0x4e487b7100000000000000000000000000000000000000000000000000000000\n        /* \"#utility.yul\":14312:14313   */\n      0x00\n        /* \"#utility.yul\":14305:14393   */\n      mstore\n        /* \"#utility.yul\":14412:14416   */\n      0x12\n        /* \"#utility.yul\":14409:14410   */\n      0x04\n        /* \"#utility.yul\":14402:14417   */\n      mstore\n        /* \"#utility.yul\":14436:14440   */\n      0x24\n        /* \"#utility.yul\":14433:14434   */\n      0x00\n        /* \"#utility.yul\":14426:14441   */\n      revert\n        /* \"#utility.yul\":14453:14638   */\n    tag_108:\n        /* \"#utility.yul\":14493:14494   */\n      0x00\n        /* \"#utility.yul\":14510:14530   */\n      tag_289\n        /* \"#utility.yul\":14528:14529   */\n      dup3\n        /* \"#utility.yul\":14510:14530   */\n      tag_123\n      jump\t// in\n    tag_289:\n        /* \"#utility.yul\":14505:14530   */\n      swap2\n      pop\n        /* \"#utility.yul\":14544:14564   */\n      tag_290\n        /* \"#utility.yul\":14562:14563   */\n      dup4\n        /* \"#utility.yul\":14544:14564   */\n      tag_123\n      jump\t// in\n    tag_290:\n        /* \"#utility.yul\":14539:14564   */\n      swap3\n      pop\n        /* \"#utility.yul\":14583:14584   */\n      dup3\n        /* \"#utility.yul\":14573:14608   */\n      tag_291\n      jumpi\n        /* \"#utility.yul\":14588:14606   */\n      tag_292\n      tag_153\n      jump\t// in\n    tag_292:\n        /* \"#utility.yul\":14573:14608   */\n    tag_291:\n        /* \"#utility.yul\":14630:14631   */\n      dup3\n        /* \"#utility.yul\":14627:14628   */\n      dup3\n        /* \"#utility.yul\":14623:14632   */\n      div\n        /* \"#utility.yul\":14618:14632   */\n      swap1\n      pop\n        /* \"#utility.yul\":14453:14638   */\n      swap3\n      swap2\n      pop\n      pop\n      jump\t// out\n        /* \"#utility.yul\":14644:15054   */\n    tag_110:\n        /* \"#utility.yul\":14684:14691   */\n      0x00\n        /* \"#utility.yul\":14707:14727   */\n      tag_294\n        /* \"#utility.yul\":14725:14726   */\n      dup3\n        /* \"#utility.yul\":14707:14727   */\n      tag_123\n      jump\t// in\n    tag_294:\n        /* \"#utility.yul\":14702:14727   */\n      swap2\n      pop\n        /* \"#utility.yul\":14741:14761   */\n      tag_295\n        /* \"#utility.yul\":14759:14760   */\n      dup4\n        /* \"#utility.yul\":14741:14761   */\n      tag_123\n      jump\t// in\n    tag_295:\n        /* \"#utility.yul\":14736:14761   */\n      swap3\n      pop\n        /* \"#utility.yul\":14796:14797   */\n      dup3\n        /* \"#utility.yul\":14793:14794   */\n      dup3\n        /* \"#utility.yul\":14789:14798   */\n      mul\n        /* \"#utility.yul\":14818:14848   */\n      tag_296\n        /* \"#utility.yul\":14836:14847   */\n      dup2\n        /* \"#utility.yul\":14818:14848   */\n      tag_123\n      jump\t// in\n    tag_296:\n        /* \"#utility.yul\":14807:14848   */\n      swap2\n      pop\n        /* \"#utility.yul\":14997:14998   */\n      dup3\n        /* \"#utility.yul\":14988:14995   */\n      dup3\n        /* \"#utility.yul\":14984:14999   */\n      div\n        /* \"#utility.yul\":14981:14982   */\n      dup5\n        /* \"#utility.yul\":14978:15000   */\n      eq\n        /* \"#utility.yul\":14958:14959   */\n      dup4\n        /* \"#utility.yul\":14951:14960   */\n      iszero\n        /* \"#utility.yul\":14931:15014   */\n      or\n        /* \"#utility.yul\":14908:15047   */\n      tag_297\n      jumpi\n        /* \"#utility.yul\":15027:15045   */\n      tag_298\n      tag_148\n      jump\t// in\n    tag_298:\n        /* \"#utility.yul\":14908:15047   */\n    tag_297:\n        /* \"#utility.yul\":14692:15054   */\n      pop\n        /* \"#utility.yul\":14644:15054   */\n      swap3\n      swap2\n      pop\n      pop\n      jump\t// out\n\n    auxdata: 0xa26469706673582212208d47fb911c94ad52631a919a11c8ac1134387d611d3ff867665bada94a23ed6264736f6c63430008180033\n}\n",
				"bytecode": {
					"linkReferences": {
						"contracts/models/ModelLibrary.sol": {
							"ModelLibrary": [
								{
									"length": 20,
									"start": 651
								}
							]
						}
					},
					"object": "608060405234801561000f575f80fd5b506112ba8061001d5f395ff3fe608060405234801561000f575f80fd5b5060043610610060575f3560e01c806353ffdc3a14610064578063768bb81f146100945780637dca9692146100b2578063c184ec7b146100e5578063c815010014610116578063dcc9fb2d14610146575b5f80fd5b61007e60048036038101906100799190610b28565b610162565b60405161008b9190610bb9565b60405180910390f35b61009c6103eb565b6040516100a99190610be1565b60405180910390f35b6100cc60048036038101906100c79190610bfa565b6103f1565b6040516100dc9493929190610c34565b60405180910390f35b6100ff60048036038101906100fa9190610bfa565b61043b565b60405161010d929190610c77565b60405180910390f35b610130600480360381019061012b9190610c9e565b6104ce565b60405161013d9190610be1565b60405180910390f35b610160600480360381019061015b9190610bfa565b610974565b005b5f806101a85f808973ffffffffffffffffffffffffffffffffffffffff1673ffffffffffffffffffffffffffffffffffffffff1681526020019081526020015f20610977565b146101e8576040517f08c379a00000000000000000000000000000000000000000000000000000000081526004016101df90610d48565b60405180910390fd5b5f841161022a576040517f08c379a000000000000000000000000000000000000000000000000000000000815260040161022190610dd6565b60405180910390fd5b5f831161026c576040517f08c379a000000000000000000000000000000000000000000000000000000000815260040161026390610e64565b60405180910390fd5b73__$6ad00e6422a175cffb7ecfa79adae0f0ed$__63f83d18df868686426040518563ffffffff1660e01b81526004016102a99493929190610ea0565b608060405180830381865af41580156102c4573d5f803e3d5ffd5b505050506040513d601f19601f820116820180604052508101906102e8919061100c565b5f808873ffffffffffffffffffffffffffffffffffffffff1673ffffffffffffffffffffffffffffffffffffffff1681526020019081526020015f205f820151815f015f6101000a81548173ffffffffffffffffffffffffffffffffffffffff021916908373ffffffffffffffffffffffffffffffffffffffff160217905550602082015181600101556040820151816002015560608201518160030155905050836001546103979190611064565b600181905550816003546103ab9190611064565b600381905550837f5a15159ae6cc037791b91af8bdaac630acda5e3641915b25fbcb6394ae990b9260405160405180910390a26001905095945050505050565b60035481565b5f602052805f5260405f205f91509050805f015f9054906101000a900473ffffffffffffffffffffffffffffffffffffffff16908060010154908060020154908060030154905084565b5f806104815f808573ffffffffffffffffffffffffffffffffffffffff1673ffffffffffffffffffffffffffffffffffffffff1681526020019081526020015f20610984565b6104c55f808673ffffffffffffffffffffffffffffffffffffffff1673ffffffffffffffffffffffffffffffffffffffff1681526020019081526020015f20610977565b91509150915091565b5f8273ffffffffffffffffffffffffffffffffffffffff1661052a5f808773ffffffffffffffffffffffffffffffffffffffff1673ffffffffffffffffffffffffffffffffffffffff1681526020019081526020015f20610984565b73ffffffffffffffffffffffffffffffffffffffff1614610580576040517f08c379a000000000000000000000000000000000000000000000000000000000815260040161057790611107565b60405180910390fd5b5f6106566105c85f808873ffffffffffffffffffffffffffffffffffffffff1673ffffffffffffffffffffffffffffffffffffffff1681526020019081526020015f20610977565b61060c5f808973ffffffffffffffffffffffffffffffffffffffff1673ffffffffffffffffffffffffffffffffffffffff1681526020019081526020015f206109af565b426106515f808b73ffffffffffffffffffffffffffffffffffffffff1673ffffffffffffffffffffffffffffffffffffffff1681526020019081526020015f206109bc565b6109c9565b90506106f4816106a05f808973ffffffffffffffffffffffffffffffffffffffff1673ffffffffffffffffffffffffffffffffffffffff1681526020019081526020015f20610977565b6106aa9190611064565b5f808873ffffffffffffffffffffffffffffffffffffffff1673ffffffffffffffffffffffffffffffffffffffff1681526020019081526020015f20610a7490919063ffffffff16565b610742425f808873ffffffffffffffffffffffffffffffffffffffff1673ffffffffffffffffffffffffffffffffffffffff1681526020019081526020015f20610a8190919063ffffffff16565b5f836107885f808973ffffffffffffffffffffffffffffffffffffffff1673ffffffffffffffffffffffffffffffffffffffff1681526020019081526020015f20610977565b101590505f81156108895761082f856107db5f808b73ffffffffffffffffffffffffffffffffffffffff1673ffffffffffffffffffffffffffffffffffffffff1681526020019081526020015f20610977565b6107e59190611125565b5f808a73ffffffffffffffffffffffffffffffffffffffff1673ffffffffffffffffffffffffffffffffffffffff1681526020019081526020015f20610a7490919063ffffffff16565b8460015461083d9190611125565b600181905550846002546108519190611064565b600281905550847fc171e3874b50fa60a3576f8e6f565f0579aab23c20e294a2ffdde25cdacf0fe760405160405180910390a2610967565b6108cd5f808973ffffffffffffffffffffffffffffffffffffffff1673ffffffffffffffffffffffffffffffffffffffff1681526020019081526020015f20610977565b856108d89190611125565b90506109285f805f8a73ffffffffffffffffffffffffffffffffffffffff1673ffffffffffffffffffffffffffffffffffffffff1681526020019081526020015f20610a7490919063ffffffff16565b80856001546109379190611125565b6109419190611064565b60018190555080856002546109569190611064565b6109609190611125565b6002819055505b8093505050509392505050565b50565b5f81600101549050919050565b5f815f015f9054906101000a900473ffffffffffffffffffffffffffffffffffffffff169050919050565b5f81600301549050919050565b5f81600201549050919050565b5f83831015610a0d576040517f08c379a0000000000000000000000000000000000000000000000000000000008152600401610a04906111c8565b60405180910390fd5b5f620151808585610a1e9190611125565b610a289190611213565b90505f60648488610a399190611243565b610a439190611213565b90505f61016d82610a549190611213565b90505f8184610a639190611243565b905080945050505050949350505050565b8082600101819055505050565b8082600301819055505050565b5f604051905090565b5f80fd5b5f73ffffffffffffffffffffffffffffffffffffffff82169050919050565b5f610ac482610a9b565b9050919050565b610ad481610aba565b8114610ade575f80fd5b50565b5f81359050610aef81610acb565b92915050565b5f819050919050565b610b0781610af5565b8114610b11575f80fd5b50565b5f81359050610b2281610afe565b92915050565b5f805f805f60a08688031215610b4157610b40610a97565b5b5f610b4e88828901610ae1565b9550506020610b5f88828901610ae1565b9450506040610b7088828901610b14565b9350506060610b8188828901610b14565b9250506080610b9288828901610b14565b9150509295509295909350565b5f8115159050919050565b610bb381610b9f565b82525050565b5f602082019050610bcc5f830184610baa565b92915050565b610bdb81610af5565b82525050565b5f602082019050610bf45f830184610bd2565b92915050565b5f60208284031215610c0f57610c0e610a97565b5b5f610c1c84828501610ae1565b91505092915050565b610c2e81610aba565b82525050565b5f608082019050610c475f830187610c25565b610c546020830186610bd2565b610c616040830185610bd2565b610c6e6060830184610bd2565b95945050505050565b5f604082019050610c8a5f830185610c25565b610c976020830184610bd2565b9392505050565b5f805f60608486031215610cb557610cb4610a97565b5b5f610cc286828701610ae1565b9350506020610cd386828701610ae1565b9250506040610ce486828701610b14565b9150509250925092565b5f82825260208201905092915050565b7f446562746f7220616c726561647920686176652064656274732e0000000000005f82015250565b5f610d32601a83610cee565b9150610d3d82610cfe565b602082019050919050565b5f6020820190508181035f830152610d5f81610d26565b9050919050565b7f416d6f756e74206f66206465627473206861766520746f2062652067726561745f8201527f6572207468616e20302e00000000000000000000000000000000000000000000602082015250565b5f610dc0602a83610cee565b9150610dcb82610d66565b604082019050919050565b5f6020820190508181035f830152610ded81610db4565b9050919050565b7f496e7465726573742068617320746f2062652067726561746572207468616e205f8201527f302e000000000000000000000000000000000000000000000000000000000000602082015250565b5f610e4e602283610cee565b9150610e5982610df4565b604082019050919050565b5f6020820190508181035f830152610e7b81610e42565b9050919050565b610e8b81610aba565b82525050565b610e9a81610af5565b82525050565b5f608082019050610eb35f830187610e82565b610ec06020830186610e91565b610ecd6040830185610e91565b610eda6060830184610e91565b95945050505050565b5f80fd5b5f601f19601f8301169050919050565b7f4e487b71000000000000000000000000000000000000000000000000000000005f52604160045260245ffd5b610f2d82610ee7565b810181811067ffffffffffffffff82111715610f4c57610f4b610ef7565b5b80604052505050565b5f610f5e610a8e565b9050610f6a8282610f24565b919050565b5f81519050610f7d81610acb565b92915050565b5f81519050610f9181610afe565b92915050565b5f60808284031215610fac57610fab610ee3565b5b610fb66080610f55565b90505f610fc584828501610f6f565b5f830152506020610fd884828501610f83565b6020830152506040610fec84828501610f83565b604083015250606061100084828501610f83565b60608301525092915050565b5f6080828403121561102157611020610a97565b5b5f61102e84828501610f97565b91505092915050565b7f4e487b71000000000000000000000000000000000000000000000000000000005f52601160045260245ffd5b5f61106e82610af5565b915061107983610af5565b925082820190508082111561109157611090611037565b5b92915050565b7f446562746f722d4372656469742d5061697220697320756e7661696c61626c655f8201527f2e00000000000000000000000000000000000000000000000000000000000000602082015250565b5f6110f1602183610cee565b91506110fc82611097565b604082019050919050565b5f6020820190508181035f83015261111e816110e5565b9050919050565b5f61112f82610af5565b915061113a83610af5565b925082820390508181111561115257611151611037565b5b92915050565b7f537461727420616e6420656e642074696d657374616d707320646f6e2774206d5f8201527f6174636800000000000000000000000000000000000000000000000000000000602082015250565b5f6111b2602483610cee565b91506111bd82611158565b604082019050919050565b5f6020820190508181035f8301526111df816111a6565b9050919050565b7f4e487b71000000000000000000000000000000000000000000000000000000005f52601260045260245ffd5b5f61121d82610af5565b915061122883610af5565b925082611238576112376111e6565b5b828204905092915050565b5f61124d82610af5565b915061125883610af5565b925082820261126681610af5565b9150828204841483151761127d5761127c611037565b5b509291505056fea26469706673582212208d47fb911c94ad52631a919a11c8ac1134387d611d3ff867665bada94a23ed6264736f6c63430008180033",
					"opcodes": "PUSH1 0x80 PUSH1 0x40 MSTORE CALLVALUE DUP1 ISZERO PUSH2 0xF JUMPI PUSH0 DUP1 REVERT JUMPDEST POP PUSH2 0x12BA DUP1 PUSH2 0x1D PUSH0 CODECOPY PUSH0 RETURN INVALID PUSH1 0x80 PUSH1 0x40 MSTORE CALLVALUE DUP1 ISZERO PUSH2 0xF JUMPI PUSH0 DUP1 REVERT JUMPDEST POP PUSH1 0x4 CALLDATASIZE LT PUSH2 0x60 JUMPI PUSH0 CALLDATALOAD PUSH1 0xE0 SHR DUP1 PUSH4 0x53FFDC3A EQ PUSH2 0x64 JUMPI DUP1 PUSH4 0x768BB81F EQ PUSH2 0x94 JUMPI DUP1 PUSH4 0x7DCA9692 EQ PUSH2 0xB2 JUMPI DUP1 PUSH4 0xC184EC7B EQ PUSH2 0xE5 JUMPI DUP1 PUSH4 0xC8150100 EQ PUSH2 0x116 JUMPI DUP1 PUSH4 0xDCC9FB2D EQ PUSH2 0x146 JUMPI JUMPDEST PUSH0 DUP1 REVERT JUMPDEST PUSH2 0x7E PUSH1 0x4 DUP1 CALLDATASIZE SUB DUP2 ADD SWAP1 PUSH2 0x79 SWAP2 SWAP1 PUSH2 0xB28 JUMP JUMPDEST PUSH2 0x162 JUMP JUMPDEST PUSH1 0x40 MLOAD PUSH2 0x8B SWAP2 SWAP1 PUSH2 0xBB9 JUMP JUMPDEST PUSH1 0x40 MLOAD DUP1 SWAP2 SUB SWAP1 RETURN JUMPDEST PUSH2 0x9C PUSH2 0x3EB JUMP JUMPDEST PUSH1 0x40 MLOAD PUSH2 0xA9 SWAP2 SWAP1 PUSH2 0xBE1 JUMP JUMPDEST PUSH1 0x40 MLOAD DUP1 SWAP2 SUB SWAP1 RETURN JUMPDEST PUSH2 0xCC PUSH1 0x4 DUP1 CALLDATASIZE SUB DUP2 ADD SWAP1 PUSH2 0xC7 SWAP2 SWAP1 PUSH2 0xBFA JUMP JUMPDEST PUSH2 0x3F1 JUMP JUMPDEST PUSH1 0x40 MLOAD PUSH2 0xDC SWAP5 SWAP4 SWAP3 SWAP2 SWAP1 PUSH2 0xC34 JUMP JUMPDEST PUSH1 0x40 MLOAD DUP1 SWAP2 SUB SWAP1 RETURN JUMPDEST PUSH2 0xFF PUSH1 0x4 DUP1 CALLDATASIZE SUB DUP2 ADD SWAP1 PUSH2 0xFA SWAP2 SWAP1 PUSH2 0xBFA JUMP JUMPDEST PUSH2 0x43B JUMP JUMPDEST PUSH1 0x40 MLOAD PUSH2 0x10D SWAP3 SWAP2 SWAP1 PUSH2 0xC77 JUMP JUMPDEST PUSH1 0x40 MLOAD DUP1 SWAP2 SUB SWAP1 RETURN JUMPDEST PUSH2 0x130 PUSH1 0x4 DUP1 CALLDATASIZE SUB DUP2 ADD SWAP1 PUSH2 0x12B SWAP2 SWAP1 PUSH2 0xC9E JUMP JUMPDEST PUSH2 0x4CE JUMP JUMPDEST PUSH1 0x40 MLOAD PUSH2 0x13D SWAP2 SWAP1 PUSH2 0xBE1 JUMP JUMPDEST PUSH1 0x40 MLOAD DUP1 SWAP2 SUB SWAP1 RETURN JUMPDEST PUSH2 0x160 PUSH1 0x4 DUP1 CALLDATASIZE SUB DUP2 ADD SWAP1 PUSH2 0x15B SWAP2 SWAP1 PUSH2 0xBFA JUMP JUMPDEST PUSH2 0x974 JUMP JUMPDEST STOP JUMPDEST PUSH0 DUP1 PUSH2 0x1A8 PUSH0 DUP1 DUP10 PUSH20 0xFFFFFFFFFFFFFFFFFFFFFFFFFFFFFFFFFFFFFFFF AND PUSH20 0xFFFFFFFFFFFFFFFFFFFFFFFFFFFFFFFFFFFFFFFF AND DUP2 MSTORE PUSH1 0x20 ADD SWAP1 DUP2 MSTORE PUSH1 0x20 ADD PUSH0 KECCAK256 PUSH2 0x977 JUMP JUMPDEST EQ PUSH2 0x1E8 JUMPI PUSH1 0x40 MLOAD PUSH32 0x8C379A000000000000000000000000000000000000000000000000000000000 DUP2 MSTORE PUSH1 0x4 ADD PUSH2 0x1DF SWAP1 PUSH2 0xD48 JUMP JUMPDEST PUSH1 0x40 MLOAD DUP1 SWAP2 SUB SWAP1 REVERT JUMPDEST PUSH0 DUP5 GT PUSH2 0x22A JUMPI PUSH1 0x40 MLOAD PUSH32 0x8C379A000000000000000000000000000000000000000000000000000000000 DUP2 MSTORE PUSH1 0x4 ADD PUSH2 0x221 SWAP1 PUSH2 0xDD6 JUMP JUMPDEST PUSH1 0x40 MLOAD DUP1 SWAP2 SUB SWAP1 REVERT JUMPDEST PUSH0 DUP4 GT PUSH2 0x26C JUMPI PUSH1 0x40 MLOAD PUSH32 0x8C379A000000000000000000000000000000000000000000000000000000000 DUP2 MSTORE PUSH1 0x4 ADD PUSH2 0x263 SWAP1 PUSH2 0xE64 JUMP JUMPDEST PUSH1 0x40 MLOAD DUP1 SWAP2 SUB SWAP1 REVERT JUMPDEST PUSH20 0x0 PUSH4 0xF83D18DF DUP7 DUP7 DUP7 TIMESTAMP PUSH1 0x40 MLOAD DUP6 PUSH4 0xFFFFFFFF AND PUSH1 0xE0 SHL DUP2 MSTORE PUSH1 0x4 ADD PUSH2 0x2A9 SWAP5 SWAP4 SWAP3 SWAP2 SWAP1 PUSH2 0xEA0 JUMP JUMPDEST PUSH1 0x80 PUSH1 0x40 MLOAD DUP1 DUP4 SUB DUP2 DUP7 GAS DELEGATECALL ISZERO DUP1 ISZERO PUSH2 0x2C4 JUMPI RETURNDATASIZE PUSH0 DUP1 RETURNDATACOPY RETURNDATASIZE PUSH0 REVERT JUMPDEST POP POP POP POP PUSH1 0x40 MLOAD RETURNDATASIZE PUSH1 0x1F NOT PUSH1 0x1F DUP3 ADD AND DUP3 ADD DUP1 PUSH1 0x40 MSTORE POP DUP2 ADD SWAP1 PUSH2 0x2E8 SWAP2 SWAP1 PUSH2 0x100C JUMP JUMPDEST PUSH0 DUP1 DUP9 PUSH20 0xFFFFFFFFFFFFFFFFFFFFFFFFFFFFFFFFFFFFFFFF AND PUSH20 0xFFFFFFFFFFFFFFFFFFFFFFFFFFFFFFFFFFFFFFFF AND DUP2 MSTORE PUSH1 0x20 ADD SWAP1 DUP2 MSTORE PUSH1 0x20 ADD PUSH0 KECCAK256 PUSH0 DUP3 ADD MLOAD DUP2 PUSH0 ADD PUSH0 PUSH2 0x100 EXP DUP2 SLOAD DUP2 PUSH20 0xFFFFFFFFFFFFFFFFFFFFFFFFFFFFFFFFFFFFFFFF MUL NOT AND SWAP1 DUP4 PUSH20 0xFFFFFFFFFFFFFFFFFFFFFFFFFFFFFFFFFFFFFFFF AND MUL OR SWAP1 SSTORE POP PUSH1 0x20 DUP3 ADD MLOAD DUP2 PUSH1 0x1 ADD SSTORE PUSH1 0x40 DUP3 ADD MLOAD DUP2 PUSH1 0x2 ADD SSTORE PUSH1 0x60 DUP3 ADD MLOAD DUP2 PUSH1 0x3 ADD SSTORE SWAP1 POP POP DUP4 PUSH1 0x1 SLOAD PUSH2 0x397 SWAP2 SWAP1 PUSH2 0x1064 JUMP JUMPDEST PUSH1 0x1 DUP2 SWAP1 SSTORE POP DUP2 PUSH1 0x3 SLOAD PUSH2 0x3AB SWAP2 SWAP1 PUSH2 0x1064 JUMP JUMPDEST PUSH1 0x3 DUP2 SWAP1 SSTORE POP DUP4 PUSH32 0x5A15159AE6CC037791B91AF8BDAAC630ACDA5E3641915B25FBCB6394AE990B92 PUSH1 0x40 MLOAD PUSH1 0x40 MLOAD DUP1 SWAP2 SUB SWAP1 LOG2 PUSH1 0x1 SWAP1 POP SWAP6 SWAP5 POP POP POP POP POP JUMP JUMPDEST PUSH1 0x3 SLOAD DUP2 JUMP JUMPDEST PUSH0 PUSH1 0x20 MSTORE DUP1 PUSH0 MSTORE PUSH1 0x40 PUSH0 KECCAK256 PUSH0 SWAP2 POP SWAP1 POP DUP1 PUSH0 ADD PUSH0 SWAP1 SLOAD SWAP1 PUSH2 0x100 EXP SWAP1 DIV PUSH20 0xFFFFFFFFFFFFFFFFFFFFFFFFFFFFFFFFFFFFFFFF AND SWAP1 DUP1 PUSH1 0x1 ADD SLOAD SWAP1 DUP1 PUSH1 0x2 ADD SLOAD SWAP1 DUP1 PUSH1 0x3 ADD SLOAD SWAP1 POP DUP5 JUMP JUMPDEST PUSH0 DUP1 PUSH2 0x481 PUSH0 DUP1 DUP6 PUSH20 0xFFFFFFFFFFFFFFFFFFFFFFFFFFFFFFFFFFFFFFFF AND PUSH20 0xFFFFFFFFFFFFFFFFFFFFFFFFFFFFFFFFFFFFFFFF AND DUP2 MSTORE PUSH1 0x20 ADD SWAP1 DUP2 MSTORE PUSH1 0x20 ADD PUSH0 KECCAK256 PUSH2 0x984 JUMP JUMPDEST PUSH2 0x4C5 PUSH0 DUP1 DUP7 PUSH20 0xFFFFFFFFFFFFFFFFFFFFFFFFFFFFFFFFFFFFFFFF AND PUSH20 0xFFFFFFFFFFFFFFFFFFFFFFFFFFFFFFFFFFFFFFFF AND DUP2 MSTORE PUSH1 0x20 ADD SWAP1 DUP2 MSTORE PUSH1 0x20 ADD PUSH0 KECCAK256 PUSH2 0x977 JUMP JUMPDEST SWAP2 POP SWAP2 POP SWAP2 POP SWAP2 JUMP JUMPDEST PUSH0 DUP3 PUSH20 0xFFFFFFFFFFFFFFFFFFFFFFFFFFFFFFFFFFFFFFFF AND PUSH2 0x52A PUSH0 DUP1 DUP8 PUSH20 0xFFFFFFFFFFFFFFFFFFFFFFFFFFFFFFFFFFFFFFFF AND PUSH20 0xFFFFFFFFFFFFFFFFFFFFFFFFFFFFFFFFFFFFFFFF AND DUP2 MSTORE PUSH1 0x20 ADD SWAP1 DUP2 MSTORE PUSH1 0x20 ADD PUSH0 KECCAK256 PUSH2 0x984 JUMP JUMPDEST PUSH20 0xFFFFFFFFFFFFFFFFFFFFFFFFFFFFFFFFFFFFFFFF AND EQ PUSH2 0x580 JUMPI PUSH1 0x40 MLOAD PUSH32 0x8C379A000000000000000000000000000000000000000000000000000000000 DUP2 MSTORE PUSH1 0x4 ADD PUSH2 0x577 SWAP1 PUSH2 0x1107 JUMP JUMPDEST PUSH1 0x40 MLOAD DUP1 SWAP2 SUB SWAP1 REVERT JUMPDEST PUSH0 PUSH2 0x656 PUSH2 0x5C8 PUSH0 DUP1 DUP9 PUSH20 0xFFFFFFFFFFFFFFFFFFFFFFFFFFFFFFFFFFFFFFFF AND PUSH20 0xFFFFFFFFFFFFFFFFFFFFFFFFFFFFFFFFFFFFFFFF AND DUP2 MSTORE PUSH1 0x20 ADD SWAP1 DUP2 MSTORE PUSH1 0x20 ADD PUSH0 KECCAK256 PUSH2 0x977 JUMP JUMPDEST PUSH2 0x60C PUSH0 DUP1 DUP10 PUSH20 0xFFFFFFFFFFFFFFFFFFFFFFFFFFFFFFFFFFFFFFFF AND PUSH20 0xFFFFFFFFFFFFFFFFFFFFFFFFFFFFFFFFFFFFFFFF AND DUP2 MSTORE PUSH1 0x20 ADD SWAP1 DUP2 MSTORE PUSH1 0x20 ADD PUSH0 KECCAK256 PUSH2 0x9AF JUMP JUMPDEST TIMESTAMP PUSH2 0x651 PUSH0 DUP1 DUP12 PUSH20 0xFFFFFFFFFFFFFFFFFFFFFFFFFFFFFFFFFFFFFFFF AND PUSH20 0xFFFFFFFFFFFFFFFFFFFFFFFFFFFFFFFFFFFFFFFF AND DUP2 MSTORE PUSH1 0x20 ADD SWAP1 DUP2 MSTORE PUSH1 0x20 ADD PUSH0 KECCAK256 PUSH2 0x9BC JUMP JUMPDEST PUSH2 0x9C9 JUMP JUMPDEST SWAP1 POP PUSH2 0x6F4 DUP2 PUSH2 0x6A0 PUSH0 DUP1 DUP10 PUSH20 0xFFFFFFFFFFFFFFFFFFFFFFFFFFFFFFFFFFFFFFFF AND PUSH20 0xFFFFFFFFFFFFFFFFFFFFFFFFFFFFFFFFFFFFFFFF AND DUP2 MSTORE PUSH1 0x20 ADD SWAP1 DUP2 MSTORE PUSH1 0x20 ADD PUSH0 KECCAK256 PUSH2 0x977 JUMP JUMPDEST PUSH2 0x6AA SWAP2 SWAP1 PUSH2 0x1064 JUMP JUMPDEST PUSH0 DUP1 DUP9 PUSH20 0xFFFFFFFFFFFFFFFFFFFFFFFFFFFFFFFFFFFFFFFF AND PUSH20 0xFFFFFFFFFFFFFFFFFFFFFFFFFFFFFFFFFFFFFFFF AND DUP2 MSTORE PUSH1 0x20 ADD SWAP1 DUP2 MSTORE PUSH1 0x20 ADD PUSH0 KECCAK256 PUSH2 0xA74 SWAP1 SWAP2 SWAP1 PUSH4 0xFFFFFFFF AND JUMP JUMPDEST PUSH2 0x742 TIMESTAMP PUSH0 DUP1 DUP9 PUSH20 0xFFFFFFFFFFFFFFFFFFFFFFFFFFFFFFFFFFFFFFFF AND PUSH20 0xFFFFFFFFFFFFFFFFFFFFFFFFFFFFFFFFFFFFFFFF AND DUP2 MSTORE PUSH1 0x20 ADD SWAP1 DUP2 MSTORE PUSH1 0x20 ADD PUSH0 KECCAK256 PUSH2 0xA81 SWAP1 SWAP2 SWAP1 PUSH4 0xFFFFFFFF AND JUMP JUMPDEST PUSH0 DUP4 PUSH2 0x788 PUSH0 DUP1 DUP10 PUSH20 0xFFFFFFFFFFFFFFFFFFFFFFFFFFFFFFFFFFFFFFFF AND PUSH20 0xFFFFFFFFFFFFFFFFFFFFFFFFFFFFFFFFFFFFFFFF AND DUP2 MSTORE PUSH1 0x20 ADD SWAP1 DUP2 MSTORE PUSH1 0x20 ADD PUSH0 KECCAK256 PUSH2 0x977 JUMP JUMPDEST LT ISZERO SWAP1 POP PUSH0 DUP2 ISZERO PUSH2 0x889 JUMPI PUSH2 0x82F DUP6 PUSH2 0x7DB PUSH0 DUP1 DUP12 PUSH20 0xFFFFFFFFFFFFFFFFFFFFFFFFFFFFFFFFFFFFFFFF AND PUSH20 0xFFFFFFFFFFFFFFFFFFFFFFFFFFFFFFFFFFFFFFFF AND DUP2 MSTORE PUSH1 0x20 ADD SWAP1 DUP2 MSTORE PUSH1 0x20 ADD PUSH0 KECCAK256 PUSH2 0x977 JUMP JUMPDEST PUSH2 0x7E5 SWAP2 SWAP1 PUSH2 0x1125 JUMP JUMPDEST PUSH0 DUP1 DUP11 PUSH20 0xFFFFFFFFFFFFFFFFFFFFFFFFFFFFFFFFFFFFFFFF AND PUSH20 0xFFFFFFFFFFFFFFFFFFFFFFFFFFFFFFFFFFFFFFFF AND DUP2 MSTORE PUSH1 0x20 ADD SWAP1 DUP2 MSTORE PUSH1 0x20 ADD PUSH0 KECCAK256 PUSH2 0xA74 SWAP1 SWAP2 SWAP1 PUSH4 0xFFFFFFFF AND JUMP JUMPDEST DUP5 PUSH1 0x1 SLOAD PUSH2 0x83D SWAP2 SWAP1 PUSH2 0x1125 JUMP JUMPDEST PUSH1 0x1 DUP2 SWAP1 SSTORE POP DUP5 PUSH1 0x2 SLOAD PUSH2 0x851 SWAP2 SWAP1 PUSH2 0x1064 JUMP JUMPDEST PUSH1 0x2 DUP2 SWAP1 SSTORE POP DUP5 PUSH32 0xC171E3874B50FA60A3576F8E6F565F0579AAB23C20E294A2FFDDE25CDACF0FE7 PUSH1 0x40 MLOAD PUSH1 0x40 MLOAD DUP1 SWAP2 SUB SWAP1 LOG2 PUSH2 0x967 JUMP JUMPDEST PUSH2 0x8CD PUSH0 DUP1 DUP10 PUSH20 0xFFFFFFFFFFFFFFFFFFFFFFFFFFFFFFFFFFFFFFFF AND PUSH20 0xFFFFFFFFFFFFFFFFFFFFFFFFFFFFFFFFFFFFFFFF AND DUP2 MSTORE PUSH1 0x20 ADD SWAP1 DUP2 MSTORE PUSH1 0x20 ADD PUSH0 KECCAK256 PUSH2 0x977 JUMP JUMPDEST DUP6 PUSH2 0x8D8 SWAP2 SWAP1 PUSH2 0x1125 JUMP JUMPDEST SWAP1 POP PUSH2 0x928 PUSH0 DUP1 PUSH0 DUP11 PUSH20 0xFFFFFFFFFFFFFFFFFFFFFFFFFFFFFFFFFFFFFFFF AND PUSH20 0xFFFFFFFFFFFFFFFFFFFFFFFFFFFFFFFFFFFFFFFF AND DUP2 MSTORE PUSH1 0x20 ADD SWAP1 DUP2 MSTORE PUSH1 0x20 ADD PUSH0 KECCAK256 PUSH2 0xA74 SWAP1 SWAP2 SWAP1 PUSH4 0xFFFFFFFF AND JUMP JUMPDEST DUP1 DUP6 PUSH1 0x1 SLOAD PUSH2 0x937 SWAP2 SWAP1 PUSH2 0x1125 JUMP JUMPDEST PUSH2 0x941 SWAP2 SWAP1 PUSH2 0x1064 JUMP JUMPDEST PUSH1 0x1 DUP2 SWAP1 SSTORE POP DUP1 DUP6 PUSH1 0x2 SLOAD PUSH2 0x956 SWAP2 SWAP1 PUSH2 0x1064 JUMP JUMPDEST PUSH2 0x960 SWAP2 SWAP1 PUSH2 0x1125 JUMP JUMPDEST PUSH1 0x2 DUP2 SWAP1 SSTORE POP JUMPDEST DUP1 SWAP4 POP POP POP POP SWAP4 SWAP3 POP POP POP JUMP JUMPDEST POP JUMP JUMPDEST PUSH0 DUP2 PUSH1 0x1 ADD SLOAD SWAP1 POP SWAP2 SWAP1 POP JUMP JUMPDEST PUSH0 DUP2 PUSH0 ADD PUSH0 SWAP1 SLOAD SWAP1 PUSH2 0x100 EXP SWAP1 DIV PUSH20 0xFFFFFFFFFFFFFFFFFFFFFFFFFFFFFFFFFFFFFFFF AND SWAP1 POP SWAP2 SWAP1 POP JUMP JUMPDEST PUSH0 DUP2 PUSH1 0x3 ADD SLOAD SWAP1 POP SWAP2 SWAP1 POP JUMP JUMPDEST PUSH0 DUP2 PUSH1 0x2 ADD SLOAD SWAP1 POP SWAP2 SWAP1 POP JUMP JUMPDEST PUSH0 DUP4 DUP4 LT ISZERO PUSH2 0xA0D JUMPI PUSH1 0x40 MLOAD PUSH32 0x8C379A000000000000000000000000000000000000000000000000000000000 DUP2 MSTORE PUSH1 0x4 ADD PUSH2 0xA04 SWAP1 PUSH2 0x11C8 JUMP JUMPDEST PUSH1 0x40 MLOAD DUP1 SWAP2 SUB SWAP1 REVERT JUMPDEST PUSH0 PUSH3 0x15180 DUP6 DUP6 PUSH2 0xA1E SWAP2 SWAP1 PUSH2 0x1125 JUMP JUMPDEST PUSH2 0xA28 SWAP2 SWAP1 PUSH2 0x1213 JUMP JUMPDEST SWAP1 POP PUSH0 PUSH1 0x64 DUP5 DUP9 PUSH2 0xA39 SWAP2 SWAP1 PUSH2 0x1243 JUMP JUMPDEST PUSH2 0xA43 SWAP2 SWAP1 PUSH2 0x1213 JUMP JUMPDEST SWAP1 POP PUSH0 PUSH2 0x16D DUP3 PUSH2 0xA54 SWAP2 SWAP1 PUSH2 0x1213 JUMP JUMPDEST SWAP1 POP PUSH0 DUP2 DUP5 PUSH2 0xA63 SWAP2 SWAP1 PUSH2 0x1243 JUMP JUMPDEST SWAP1 POP DUP1 SWAP5 POP POP POP POP POP SWAP5 SWAP4 POP POP POP POP JUMP JUMPDEST DUP1 DUP3 PUSH1 0x1 ADD DUP2 SWAP1 SSTORE POP POP POP JUMP JUMPDEST DUP1 DUP3 PUSH1 0x3 ADD DUP2 SWAP1 SSTORE POP POP POP JUMP JUMPDEST PUSH0 PUSH1 0x40 MLOAD SWAP1 POP SWAP1 JUMP JUMPDEST PUSH0 DUP1 REVERT JUMPDEST PUSH0 PUSH20 0xFFFFFFFFFFFFFFFFFFFFFFFFFFFFFFFFFFFFFFFF DUP3 AND SWAP1 POP SWAP2 SWAP1 POP JUMP JUMPDEST PUSH0 PUSH2 0xAC4 DUP3 PUSH2 0xA9B JUMP JUMPDEST SWAP1 POP SWAP2 SWAP1 POP JUMP JUMPDEST PUSH2 0xAD4 DUP2 PUSH2 0xABA JUMP JUMPDEST DUP2 EQ PUSH2 0xADE JUMPI PUSH0 DUP1 REVERT JUMPDEST POP JUMP JUMPDEST PUSH0 DUP2 CALLDATALOAD SWAP1 POP PUSH2 0xAEF DUP2 PUSH2 0xACB JUMP JUMPDEST SWAP3 SWAP2 POP POP JUMP JUMPDEST PUSH0 DUP2 SWAP1 POP SWAP2 SWAP1 POP JUMP JUMPDEST PUSH2 0xB07 DUP2 PUSH2 0xAF5 JUMP JUMPDEST DUP2 EQ PUSH2 0xB11 JUMPI PUSH0 DUP1 REVERT JUMPDEST POP JUMP JUMPDEST PUSH0 DUP2 CALLDATALOAD SWAP1 POP PUSH2 0xB22 DUP2 PUSH2 0xAFE JUMP JUMPDEST SWAP3 SWAP2 POP POP JUMP JUMPDEST PUSH0 DUP1 PUSH0 DUP1 PUSH0 PUSH1 0xA0 DUP7 DUP9 SUB SLT ISZERO PUSH2 0xB41 JUMPI PUSH2 0xB40 PUSH2 0xA97 JUMP JUMPDEST JUMPDEST PUSH0 PUSH2 0xB4E DUP9 DUP3 DUP10 ADD PUSH2 0xAE1 JUMP JUMPDEST SWAP6 POP POP PUSH1 0x20 PUSH2 0xB5F DUP9 DUP3 DUP10 ADD PUSH2 0xAE1 JUMP JUMPDEST SWAP5 POP POP PUSH1 0x40 PUSH2 0xB70 DUP9 DUP3 DUP10 ADD PUSH2 0xB14 JUMP JUMPDEST SWAP4 POP POP PUSH1 0x60 PUSH2 0xB81 DUP9 DUP3 DUP10 ADD PUSH2 0xB14 JUMP JUMPDEST SWAP3 POP POP PUSH1 0x80 PUSH2 0xB92 DUP9 DUP3 DUP10 ADD PUSH2 0xB14 JUMP JUMPDEST SWAP2 POP POP SWAP3 SWAP6 POP SWAP3 SWAP6 SWAP1 SWAP4 POP JUMP JUMPDEST PUSH0 DUP2 ISZERO ISZERO SWAP1 POP SWAP2 SWAP1 POP JUMP JUMPDEST PUSH2 0xBB3 DUP2 PUSH2 0xB9F JUMP JUMPDEST DUP3 MSTORE POP POP JUMP JUMPDEST PUSH0 PUSH1 0x20 DUP3 ADD SWAP1 POP PUSH2 0xBCC PUSH0 DUP4 ADD DUP5 PUSH2 0xBAA JUMP JUMPDEST SWAP3 SWAP2 POP POP JUMP JUMPDEST PUSH2 0xBDB DUP2 PUSH2 0xAF5 JUMP JUMPDEST DUP3 MSTORE POP POP JUMP JUMPDEST PUSH0 PUSH1 0x20 DUP3 ADD SWAP1 POP PUSH2 0xBF4 PUSH0 DUP4 ADD DUP5 PUSH2 0xBD2 JUMP JUMPDEST SWAP3 SWAP2 POP POP JUMP JUMPDEST PUSH0 PUSH1 0x20 DUP3 DUP5 SUB SLT ISZERO PUSH2 0xC0F JUMPI PUSH2 0xC0E PUSH2 0xA97 JUMP JUMPDEST JUMPDEST PUSH0 PUSH2 0xC1C DUP5 DUP3 DUP6 ADD PUSH2 0xAE1 JUMP JUMPDEST SWAP2 POP POP SWAP3 SWAP2 POP POP JUMP JUMPDEST PUSH2 0xC2E DUP2 PUSH2 0xABA JUMP JUMPDEST DUP3 MSTORE POP POP JUMP JUMPDEST PUSH0 PUSH1 0x80 DUP3 ADD SWAP1 POP PUSH2 0xC47 PUSH0 DUP4 ADD DUP8 PUSH2 0xC25 JUMP JUMPDEST PUSH2 0xC54 PUSH1 0x20 DUP4 ADD DUP7 PUSH2 0xBD2 JUMP JUMPDEST PUSH2 0xC61 PUSH1 0x40 DUP4 ADD DUP6 PUSH2 0xBD2 JUMP JUMPDEST PUSH2 0xC6E PUSH1 0x60 DUP4 ADD DUP5 PUSH2 0xBD2 JUMP JUMPDEST SWAP6 SWAP5 POP POP POP POP POP JUMP JUMPDEST PUSH0 PUSH1 0x40 DUP3 ADD SWAP1 POP PUSH2 0xC8A PUSH0 DUP4 ADD DUP6 PUSH2 0xC25 JUMP JUMPDEST PUSH2 0xC97 PUSH1 0x20 DUP4 ADD DUP5 PUSH2 0xBD2 JUMP JUMPDEST SWAP4 SWAP3 POP POP POP JUMP JUMPDEST PUSH0 DUP1 PUSH0 PUSH1 0x60 DUP5 DUP7 SUB SLT ISZERO PUSH2 0xCB5 JUMPI PUSH2 0xCB4 PUSH2 0xA97 JUMP JUMPDEST JUMPDEST PUSH0 PUSH2 0xCC2 DUP7 DUP3 DUP8 ADD PUSH2 0xAE1 JUMP JUMPDEST SWAP4 POP POP PUSH1 0x20 PUSH2 0xCD3 DUP7 DUP3 DUP8 ADD PUSH2 0xAE1 JUMP JUMPDEST SWAP3 POP POP PUSH1 0x40 PUSH2 0xCE4 DUP7 DUP3 DUP8 ADD PUSH2 0xB14 JUMP JUMPDEST SWAP2 POP POP SWAP3 POP SWAP3 POP SWAP3 JUMP JUMPDEST PUSH0 DUP3 DUP3 MSTORE PUSH1 0x20 DUP3 ADD SWAP1 POP SWAP3 SWAP2 POP POP JUMP JUMPDEST PUSH32 0x446562746F7220616C726561647920686176652064656274732E000000000000 PUSH0 DUP3 ADD MSTORE POP JUMP JUMPDEST PUSH0 PUSH2 0xD32 PUSH1 0x1A DUP4 PUSH2 0xCEE JUMP JUMPDEST SWAP2 POP PUSH2 0xD3D DUP3 PUSH2 0xCFE JUMP JUMPDEST PUSH1 0x20 DUP3 ADD SWAP1 POP SWAP2 SWAP1 POP JUMP JUMPDEST PUSH0 PUSH1 0x20 DUP3 ADD SWAP1 POP DUP2 DUP2 SUB PUSH0 DUP4 ADD MSTORE PUSH2 0xD5F DUP2 PUSH2 0xD26 JUMP JUMPDEST SWAP1 POP SWAP2 SWAP1 POP JUMP JUMPDEST PUSH32 0x416D6F756E74206F66206465627473206861766520746F206265206772656174 PUSH0 DUP3 ADD MSTORE PUSH32 0x6572207468616E20302E00000000000000000000000000000000000000000000 PUSH1 0x20 DUP3 ADD MSTORE POP JUMP JUMPDEST PUSH0 PUSH2 0xDC0 PUSH1 0x2A DUP4 PUSH2 0xCEE JUMP JUMPDEST SWAP2 POP PUSH2 0xDCB DUP3 PUSH2 0xD66 JUMP JUMPDEST PUSH1 0x40 DUP3 ADD SWAP1 POP SWAP2 SWAP1 POP JUMP JUMPDEST PUSH0 PUSH1 0x20 DUP3 ADD SWAP1 POP DUP2 DUP2 SUB PUSH0 DUP4 ADD MSTORE PUSH2 0xDED DUP2 PUSH2 0xDB4 JUMP JUMPDEST SWAP1 POP SWAP2 SWAP1 POP JUMP JUMPDEST PUSH32 0x496E7465726573742068617320746F2062652067726561746572207468616E20 PUSH0 DUP3 ADD MSTORE PUSH32 0x302E000000000000000000000000000000000000000000000000000000000000 PUSH1 0x20 DUP3 ADD MSTORE POP JUMP JUMPDEST PUSH0 PUSH2 0xE4E PUSH1 0x22 DUP4 PUSH2 0xCEE JUMP JUMPDEST SWAP2 POP PUSH2 0xE59 DUP3 PUSH2 0xDF4 JUMP JUMPDEST PUSH1 0x40 DUP3 ADD SWAP1 POP SWAP2 SWAP1 POP JUMP JUMPDEST PUSH0 PUSH1 0x20 DUP3 ADD SWAP1 POP DUP2 DUP2 SUB PUSH0 DUP4 ADD MSTORE PUSH2 0xE7B DUP2 PUSH2 0xE42 JUMP JUMPDEST SWAP1 POP SWAP2 SWAP1 POP JUMP JUMPDEST PUSH2 0xE8B DUP2 PUSH2 0xABA JUMP JUMPDEST DUP3 MSTORE POP POP JUMP JUMPDEST PUSH2 0xE9A DUP2 PUSH2 0xAF5 JUMP JUMPDEST DUP3 MSTORE POP POP JUMP JUMPDEST PUSH0 PUSH1 0x80 DUP3 ADD SWAP1 POP PUSH2 0xEB3 PUSH0 DUP4 ADD DUP8 PUSH2 0xE82 JUMP JUMPDEST PUSH2 0xEC0 PUSH1 0x20 DUP4 ADD DUP7 PUSH2 0xE91 JUMP JUMPDEST PUSH2 0xECD PUSH1 0x40 DUP4 ADD DUP6 PUSH2 0xE91 JUMP JUMPDEST PUSH2 0xEDA PUSH1 0x60 DUP4 ADD DUP5 PUSH2 0xE91 JUMP JUMPDEST SWAP6 SWAP5 POP POP POP POP POP JUMP JUMPDEST PUSH0 DUP1 REVERT JUMPDEST PUSH0 PUSH1 0x1F NOT PUSH1 0x1F DUP4 ADD AND SWAP1 POP SWAP2 SWAP1 POP JUMP JUMPDEST PUSH32 0x4E487B7100000000000000000000000000000000000000000000000000000000 PUSH0 MSTORE PUSH1 0x41 PUSH1 0x4 MSTORE PUSH1 0x24 PUSH0 REVERT JUMPDEST PUSH2 0xF2D DUP3 PUSH2 0xEE7 JUMP JUMPDEST DUP2 ADD DUP2 DUP2 LT PUSH8 0xFFFFFFFFFFFFFFFF DUP3 GT OR ISZERO PUSH2 0xF4C JUMPI PUSH2 0xF4B PUSH2 0xEF7 JUMP JUMPDEST JUMPDEST DUP1 PUSH1 0x40 MSTORE POP POP POP JUMP JUMPDEST PUSH0 PUSH2 0xF5E PUSH2 0xA8E JUMP JUMPDEST SWAP1 POP PUSH2 0xF6A DUP3 DUP3 PUSH2 0xF24 JUMP JUMPDEST SWAP2 SWAP1 POP JUMP JUMPDEST PUSH0 DUP2 MLOAD SWAP1 POP PUSH2 0xF7D DUP2 PUSH2 0xACB JUMP JUMPDEST SWAP3 SWAP2 POP POP JUMP JUMPDEST PUSH0 DUP2 MLOAD SWAP1 POP PUSH2 0xF91 DUP2 PUSH2 0xAFE JUMP JUMPDEST SWAP3 SWAP2 POP POP JUMP JUMPDEST PUSH0 PUSH1 0x80 DUP3 DUP5 SUB SLT ISZERO PUSH2 0xFAC JUMPI PUSH2 0xFAB PUSH2 0xEE3 JUMP JUMPDEST JUMPDEST PUSH2 0xFB6 PUSH1 0x80 PUSH2 0xF55 JUMP JUMPDEST SWAP1 POP PUSH0 PUSH2 0xFC5 DUP5 DUP3 DUP6 ADD PUSH2 0xF6F JUMP JUMPDEST PUSH0 DUP4 ADD MSTORE POP PUSH1 0x20 PUSH2 0xFD8 DUP5 DUP3 DUP6 ADD PUSH2 0xF83 JUMP JUMPDEST PUSH1 0x20 DUP4 ADD MSTORE POP PUSH1 0x40 PUSH2 0xFEC DUP5 DUP3 DUP6 ADD PUSH2 0xF83 JUMP JUMPDEST PUSH1 0x40 DUP4 ADD MSTORE POP PUSH1 0x60 PUSH2 0x1000 DUP5 DUP3 DUP6 ADD PUSH2 0xF83 JUMP JUMPDEST PUSH1 0x60 DUP4 ADD MSTORE POP SWAP3 SWAP2 POP POP JUMP JUMPDEST PUSH0 PUSH1 0x80 DUP3 DUP5 SUB SLT ISZERO PUSH2 0x1021 JUMPI PUSH2 0x1020 PUSH2 0xA97 JUMP JUMPDEST JUMPDEST PUSH0 PUSH2 0x102E DUP5 DUP3 DUP6 ADD PUSH2 0xF97 JUMP JUMPDEST SWAP2 POP POP SWAP3 SWAP2 POP POP JUMP JUMPDEST PUSH32 0x4E487B7100000000000000000000000000000000000000000000000000000000 PUSH0 MSTORE PUSH1 0x11 PUSH1 0x4 MSTORE PUSH1 0x24 PUSH0 REVERT JUMPDEST PUSH0 PUSH2 0x106E DUP3 PUSH2 0xAF5 JUMP JUMPDEST SWAP2 POP PUSH2 0x1079 DUP4 PUSH2 0xAF5 JUMP JUMPDEST SWAP3 POP DUP3 DUP3 ADD SWAP1 POP DUP1 DUP3 GT ISZERO PUSH2 0x1091 JUMPI PUSH2 0x1090 PUSH2 0x1037 JUMP JUMPDEST JUMPDEST SWAP3 SWAP2 POP POP JUMP JUMPDEST PUSH32 0x446562746F722D4372656469742D5061697220697320756E7661696C61626C65 PUSH0 DUP3 ADD MSTORE PUSH32 0x2E00000000000000000000000000000000000000000000000000000000000000 PUSH1 0x20 DUP3 ADD MSTORE POP JUMP JUMPDEST PUSH0 PUSH2 0x10F1 PUSH1 0x21 DUP4 PUSH2 0xCEE JUMP JUMPDEST SWAP2 POP PUSH2 0x10FC DUP3 PUSH2 0x1097 JUMP JUMPDEST PUSH1 0x40 DUP3 ADD SWAP1 POP SWAP2 SWAP1 POP JUMP JUMPDEST PUSH0 PUSH1 0x20 DUP3 ADD SWAP1 POP DUP2 DUP2 SUB PUSH0 DUP4 ADD MSTORE PUSH2 0x111E DUP2 PUSH2 0x10E5 JUMP JUMPDEST SWAP1 POP SWAP2 SWAP1 POP JUMP JUMPDEST PUSH0 PUSH2 0x112F DUP3 PUSH2 0xAF5 JUMP JUMPDEST SWAP2 POP PUSH2 0x113A DUP4 PUSH2 0xAF5 JUMP JUMPDEST SWAP3 POP DUP3 DUP3 SUB SWAP1 POP DUP2 DUP2 GT ISZERO PUSH2 0x1152 JUMPI PUSH2 0x1151 PUSH2 0x1037 JUMP JUMPDEST JUMPDEST SWAP3 SWAP2 POP POP JUMP JUMPDEST PUSH32 0x537461727420616E6420656E642074696D657374616D707320646F6E2774206D PUSH0 DUP3 ADD MSTORE PUSH32 0x6174636800000000000000000000000000000000000000000000000000000000 PUSH1 0x20 DUP3 ADD MSTORE POP JUMP JUMPDEST PUSH0 PUSH2 0x11B2 PUSH1 0x24 DUP4 PUSH2 0xCEE JUMP JUMPDEST SWAP2 POP PUSH2 0x11BD DUP3 PUSH2 0x1158 JUMP JUMPDEST PUSH1 0x40 DUP3 ADD SWAP1 POP SWAP2 SWAP1 POP JUMP JUMPDEST PUSH0 PUSH1 0x20 DUP3 ADD SWAP1 POP DUP2 DUP2 SUB PUSH0 DUP4 ADD MSTORE PUSH2 0x11DF DUP2 PUSH2 0x11A6 JUMP JUMPDEST SWAP1 POP SWAP2 SWAP1 POP JUMP JUMPDEST PUSH32 0x4E487B7100000000000000000000000000000000000000000000000000000000 PUSH0 MSTORE PUSH1 0x12 PUSH1 0x4 MSTORE PUSH1 0x24 PUSH0 REVERT JUMPDEST PUSH0 PUSH2 0x121D DUP3 PUSH2 0xAF5 JUMP JUMPDEST SWAP2 POP PUSH2 0x1228 DUP4 PUSH2 0xAF5 JUMP JUMPDEST SWAP3 POP DUP3 PUSH2 0x1238 JUMPI PUSH2 0x1237 PUSH2 0x11E6 JUMP JUMPDEST JUMPDEST DUP3 DUP3 DIV SWAP1 POP SWAP3 SWAP2 POP POP JUMP JUMPDEST PUSH0 PUSH2 0x124D DUP3 PUSH2 0xAF5 JUMP JUMPDEST SWAP2 POP PUSH2 0x1258 DUP4 PUSH2 0xAF5 JUMP JUMPDEST SWAP3 POP DUP3 DUP3 MUL PUSH2 0x1266 DUP2 PUSH2 0xAF5 JUMP JUMPDEST SWAP2 POP DUP3 DUP3 DIV DUP5 EQ DUP4 ISZERO OR PUSH2 0x127D JUMPI PUSH2 0x127C PUSH2 0x1037 JUMP JUMPDEST JUMPDEST POP SWAP3 SWAP2 POP POP JUMP INVALID LOG2 PUSH5 0x6970667358 0x22 SLT KECCAK256 DUP14 SELFBALANCE 0xFB SWAP2 SHR SWAP5 0xAD MSTORE PUSH4 0x1A919A11 0xC8 0xAC GT CALLVALUE CODESIZE PUSH30 0x611D3FF867665BADA94A23ED6264736F6C63430008180033000000000000 "
				},
				"gasEstimates": {
					"creation": {
						"codeDepositCost": "958800",
						"executionCost": "992",
						"totalCost": "959792"
					},
					"external": {
						"createDebtsList(address,address,uint256,uint256,uint256)": "infinite",
						"debtFund()": "2425",
						"debtsList(address)": "infinite",
						"getDebtsCreditorAndAmount(address)": "infinite",
						"immediateRepayment(address)": "537",
						"repayDebts(address,address,uint256)": "infinite"
					},
					"internal": {
						"calculateInterestUntil(uint256,uint256,uint256,uint256)": "infinite"
					}
				},
				"methodIdentifiers": {
					"createDebtsList(address,address,uint256,uint256,uint256)": "53ffdc3a",
					"debtFund()": "768bb81f",
					"debtsList(address)": "7dca9692",
					"getDebtsCreditorAndAmount(address)": "c184ec7b",
					"immediateRepayment(address)": "dcc9fb2d",
					"repayDebts(address,address,uint256)": "c8150100"
				}
			},
			"storageLayout": {
				"storage": [
					{
						"astId": 11,
						"contract": "contracts/DebtsContract.sol:DebtsContract",
						"label": "debtsList",
						"offset": 0,
						"slot": "0",
						"type": "t_mapping(t_address,t_struct(Creditor)340_storage)"
					},
					{
						"astId": 13,
						"contract": "contracts/DebtsContract.sol:DebtsContract",
						"label": "currentDebtAmount",
						"offset": 0,
						"slot": "1",
						"type": "t_uint256"
					},
					{
						"astId": 15,
						"contract": "contracts/DebtsContract.sol:DebtsContract",
						"label": "allTimePayback",
						"offset": 0,
						"slot": "2",
						"type": "t_uint256"
					},
					{
						"astId": 17,
						"contract": "contracts/DebtsContract.sol:DebtsContract",
						"label": "debtFund",
						"offset": 0,
						"slot": "3",
						"type": "t_uint256"
					}
				],
				"types": {
					"t_address": {
						"encoding": "inplace",
						"label": "address",
						"numberOfBytes": "20"
					},
					"t_mapping(t_address,t_struct(Creditor)340_storage)": {
						"encoding": "mapping",
						"key": "t_address",
						"label": "mapping(address => struct ModelLibrary.Creditor)",
						"numberOfBytes": "32",
						"value": "t_struct(Creditor)340_storage"
					},
					"t_struct(Creditor)340_storage": {
						"encoding": "inplace",
						"label": "struct ModelLibrary.Creditor",
						"members": [
							{
								"astId": 333,
								"contract": "contracts/DebtsContract.sol:DebtsContract",
								"label": "creditorAddress",
								"offset": 0,
								"slot": "0",
								"type": "t_address"
							},
							{
								"astId": 335,
								"contract": "contracts/DebtsContract.sol:DebtsContract",
								"label": "debtAmount",
								"offset": 0,
								"slot": "1",
								"type": "t_uint256"
							},
							{
								"astId": 337,
								"contract": "contracts/DebtsContract.sol:DebtsContract",
								"label": "interest",
								"offset": 0,
								"slot": "2",
								"type": "t_uint256"
							},
							{
								"astId": 339,
								"contract": "contracts/DebtsContract.sol:DebtsContract",
								"label": "timeOfDebt",
								"offset": 0,
								"slot": "3",
								"type": "t_uint256"
							}
						],
						"numberOfBytes": "128"
					},
					"t_uint256": {
						"encoding": "inplace",
						"label": "uint256",
						"numberOfBytes": "32"
					}
				}
			},
			"userdoc": {
				"kind": "user",
				"methods": {},
				"version": 1
			}
		}
	}
}