{
	"contracts/models/ModelLibrary.sol": {
		"ModelLibrary": {
			"abi": [
				{
					"inputs": [
						{
							"internalType": "address",
							"name": "_creditorAddress",
							"type": "address"
						},
						{
							"internalType": "uint256",
							"name": "_debtAmount",
							"type": "uint256"
						},
						{
							"internalType": "uint256",
							"name": "_interest",
							"type": "uint256"
						},
						{
							"internalType": "uint256",
							"name": "_timeOfDebt",
							"type": "uint256"
						}
					],
					"name": "createCreditor",
					"outputs": [
						{
							"components": [
								{
									"internalType": "address",
									"name": "creditorAddress",
									"type": "address"
								},
								{
									"internalType": "uint256",
									"name": "debtAmount",
									"type": "uint256"
								},
								{
									"internalType": "uint256",
									"name": "interest",
									"type": "uint256"
								},
								{
									"internalType": "uint256",
									"name": "timeOfDebt",
									"type": "uint256"
								}
							],
							"internalType": "struct ModelLibrary.Creditor",
							"name": "",
							"type": "tuple"
						}
					],
					"stateMutability": "pure",
					"type": "function"
				}
			],
			"devdoc": {
				"kind": "dev",
				"methods": {},
				"version": 1
			},
			"evm": {
				"assembly": "    /* \"contracts/models/ModelLibrary.sol\":61:1272  library ModelLibrary{... */\n  dataSize(sub_0)\n  dataOffset(sub_0)\n  0x0b\n  dup3\n  dup3\n  dup3\n  codecopy\n  dup1\n  mload\n  0x00\n  byte\n  0x73\n  eq\n  tag_1\n  jumpi\n  mstore(0x00, 0x4e487b7100000000000000000000000000000000000000000000000000000000)\n  mstore(0x04, 0x00)\n  revert(0x00, 0x24)\ntag_1:\n  mstore(0x00, address)\n  0x73\n  dup2\n  mstore8\n  dup3\n  dup2\n  return\nstop\n\nsub_0: assembly {\n        /* \"contracts/models/ModelLibrary.sol\":61:1272  library ModelLibrary{... */\n      eq(address, deployTimeAddress())\n      mstore(0x40, 0x80)\n      jumpi(tag_1, lt(calldatasize, 0x04))\n      shr(0xe0, calldataload(0x00))\n      dup1\n      0xf83d18df\n      eq\n      tag_2\n      jumpi\n    tag_1:\n      0x00\n      dup1\n      revert\n        /* \"contracts/models/ModelLibrary.sol\":252:490  function createCreditor(address _creditorAddress, uint256 _debtAmount, uint256 _interest, uint256 _timeOfDebt) public pure returns (Creditor memory) {... */\n    tag_2:\n      tag_3\n      0x04\n      dup1\n      calldatasize\n      sub\n      dup2\n      add\n      swap1\n      tag_4\n      swap2\n      swap1\n      tag_5\n      jump\t// in\n    tag_4:\n      tag_6\n      jump\t// in\n    tag_3:\n      mload(0x40)\n      tag_7\n      swap2\n      swap1\n      tag_8\n      jump\t// in\n    tag_7:\n      mload(0x40)\n      dup1\n      swap2\n      sub\n      swap1\n      return\n    tag_6:\n        /* \"contracts/models/ModelLibrary.sol\":384:399  Creditor memory */\n      tag_9\n      tag_10\n      jump\t// in\n    tag_9:\n        /* \"contracts/models/ModelLibrary.sol\":419:482  Creditor(_creditorAddress, _debtAmount, _interest, _timeOfDebt) */\n      mload(0x40)\n      dup1\n      0x80\n      add\n      0x40\n      mstore\n      dup1\n        /* \"contracts/models/ModelLibrary.sol\":428:444  _creditorAddress */\n      dup7\n        /* \"contracts/models/ModelLibrary.sol\":419:482  Creditor(_creditorAddress, _debtAmount, _interest, _timeOfDebt) */\n      0xffffffffffffffffffffffffffffffffffffffff\n      and\n      dup2\n      mstore\n      0x20\n      add\n        /* \"contracts/models/ModelLibrary.sol\":446:457  _debtAmount */\n      dup6\n        /* \"contracts/models/ModelLibrary.sol\":419:482  Creditor(_creditorAddress, _debtAmount, _interest, _timeOfDebt) */\n      dup2\n      mstore\n      0x20\n      add\n        /* \"contracts/models/ModelLibrary.sol\":459:468  _interest */\n      dup5\n        /* \"contracts/models/ModelLibrary.sol\":419:482  Creditor(_creditorAddress, _debtAmount, _interest, _timeOfDebt) */\n      dup2\n      mstore\n      0x20\n      add\n        /* \"contracts/models/ModelLibrary.sol\":470:481  _timeOfDebt */\n      dup4\n        /* \"contracts/models/ModelLibrary.sol\":419:482  Creditor(_creditorAddress, _debtAmount, _interest, _timeOfDebt) */\n      dup2\n      mstore\n      pop\n        /* \"contracts/models/ModelLibrary.sol\":412:482  return Creditor(_creditorAddress, _debtAmount, _interest, _timeOfDebt) */\n      swap1\n      pop\n        /* \"contracts/models/ModelLibrary.sol\":252:490  function createCreditor(address _creditorAddress, uint256 _debtAmount, uint256 _interest, uint256 _timeOfDebt) public pure returns (Creditor memory) {... */\n      swap5\n      swap4\n      pop\n      pop\n      pop\n      pop\n      jump\t// out\n    tag_10:\n      mload(0x40)\n      dup1\n      0x80\n      add\n      0x40\n      mstore\n      dup1\n      and(0xffffffffffffffffffffffffffffffffffffffff, 0x00)\n      dup2\n      mstore\n      0x20\n      add\n      0x00\n      dup2\n      mstore\n      0x20\n      add\n      0x00\n      dup2\n      mstore\n      0x20\n      add\n      0x00\n      dup2\n      mstore\n      pop\n      swap1\n      jump\t// out\n        /* \"#utility.yul\":88:205   */\n    tag_13:\n        /* \"#utility.yul\":197:198   */\n      0x00\n        /* \"#utility.yul\":194:195   */\n      dup1\n        /* \"#utility.yul\":187:199   */\n      revert\n        /* \"#utility.yul\":334:460   */\n    tag_15:\n        /* \"#utility.yul\":371:378   */\n      0x00\n        /* \"#utility.yul\":411:453   */\n      0xffffffffffffffffffffffffffffffffffffffff\n        /* \"#utility.yul\":404:409   */\n      dup3\n        /* \"#utility.yul\":400:454   */\n      and\n        /* \"#utility.yul\":389:454   */\n      swap1\n      pop\n        /* \"#utility.yul\":334:460   */\n      swap2\n      swap1\n      pop\n      jump\t// out\n        /* \"#utility.yul\":466:562   */\n    tag_16:\n        /* \"#utility.yul\":503:510   */\n      0x00\n        /* \"#utility.yul\":532:556   */\n      tag_31\n        /* \"#utility.yul\":550:555   */\n      dup3\n        /* \"#utility.yul\":532:556   */\n      tag_15\n      jump\t// in\n    tag_31:\n        /* \"#utility.yul\":521:556   */\n      swap1\n      pop\n        /* \"#utility.yul\":466:562   */\n      swap2\n      swap1\n      pop\n      jump\t// out\n        /* \"#utility.yul\":568:690   */\n    tag_17:\n        /* \"#utility.yul\":641:665   */\n      tag_33\n        /* \"#utility.yul\":659:664   */\n      dup2\n        /* \"#utility.yul\":641:665   */\n      tag_16\n      jump\t// in\n    tag_33:\n        /* \"#utility.yul\":634:639   */\n      dup2\n        /* \"#utility.yul\":631:666   */\n      eq\n        /* \"#utility.yul\":621:684   */\n      tag_34\n      jumpi\n        /* \"#utility.yul\":680:681   */\n      0x00\n        /* \"#utility.yul\":677:678   */\n      dup1\n        /* \"#utility.yul\":670:682   */\n      revert\n        /* \"#utility.yul\":621:684   */\n    tag_34:\n        /* \"#utility.yul\":568:690   */\n      pop\n      jump\t// out\n        /* \"#utility.yul\":696:835   */\n    tag_18:\n        /* \"#utility.yul\":742:747   */\n      0x00\n        /* \"#utility.yul\":780:786   */\n      dup2\n        /* \"#utility.yul\":767:787   */\n      calldataload\n        /* \"#utility.yul\":758:787   */\n      swap1\n      pop\n        /* \"#utility.yul\":796:829   */\n      tag_36\n        /* \"#utility.yul\":823:828   */\n      dup2\n        /* \"#utility.yul\":796:829   */\n      tag_17\n      jump\t// in\n    tag_36:\n        /* \"#utility.yul\":696:835   */\n      swap3\n      swap2\n      pop\n      pop\n      jump\t// out\n        /* \"#utility.yul\":841:918   */\n    tag_19:\n        /* \"#utility.yul\":878:885   */\n      0x00\n        /* \"#utility.yul\":907:912   */\n      dup2\n        /* \"#utility.yul\":896:912   */\n      swap1\n      pop\n        /* \"#utility.yul\":841:918   */\n      swap2\n      swap1\n      pop\n      jump\t// out\n        /* \"#utility.yul\":924:1046   */\n    tag_20:\n        /* \"#utility.yul\":997:1021   */\n      tag_39\n        /* \"#utility.yul\":1015:1020   */\n      dup2\n        /* \"#utility.yul\":997:1021   */\n      tag_19\n      jump\t// in\n    tag_39:\n        /* \"#utility.yul\":990:995   */\n      dup2\n        /* \"#utility.yul\":987:1022   */\n      eq\n        /* \"#utility.yul\":977:1040   */\n      tag_40\n      jumpi\n        /* \"#utility.yul\":1036:1037   */\n      0x00\n        /* \"#utility.yul\":1033:1034   */\n      dup1\n        /* \"#utility.yul\":1026:1038   */\n      revert\n        /* \"#utility.yul\":977:1040   */\n    tag_40:\n        /* \"#utility.yul\":924:1046   */\n      pop\n      jump\t// out\n        /* \"#utility.yul\":1052:1191   */\n    tag_21:\n        /* \"#utility.yul\":1098:1103   */\n      0x00\n        /* \"#utility.yul\":1136:1142   */\n      dup2\n        /* \"#utility.yul\":1123:1143   */\n      calldataload\n        /* \"#utility.yul\":1114:1143   */\n      swap1\n      pop\n        /* \"#utility.yul\":1152:1185   */\n      tag_42\n        /* \"#utility.yul\":1179:1184   */\n      dup2\n        /* \"#utility.yul\":1152:1185   */\n      tag_20\n      jump\t// in\n    tag_42:\n        /* \"#utility.yul\":1052:1191   */\n      swap3\n      swap2\n      pop\n      pop\n      jump\t// out\n        /* \"#utility.yul\":1197:1962   */\n    tag_5:\n        /* \"#utility.yul\":1283:1289   */\n      0x00\n        /* \"#utility.yul\":1291:1297   */\n      dup1\n        /* \"#utility.yul\":1299:1305   */\n      0x00\n        /* \"#utility.yul\":1307:1313   */\n      dup1\n        /* \"#utility.yul\":1356:1359   */\n      0x80\n        /* \"#utility.yul\":1344:1353   */\n      dup6\n        /* \"#utility.yul\":1335:1342   */\n      dup8\n        /* \"#utility.yul\":1331:1354   */\n      sub\n        /* \"#utility.yul\":1327:1360   */\n      slt\n        /* \"#utility.yul\":1324:1444   */\n      iszero\n      tag_44\n      jumpi\n        /* \"#utility.yul\":1363:1442   */\n      tag_45\n      tag_13\n      jump\t// in\n    tag_45:\n        /* \"#utility.yul\":1324:1444   */\n    tag_44:\n        /* \"#utility.yul\":1483:1484   */\n      0x00\n        /* \"#utility.yul\":1508:1561   */\n      tag_46\n        /* \"#utility.yul\":1553:1560   */\n      dup8\n        /* \"#utility.yul\":1544:1550   */\n      dup3\n        /* \"#utility.yul\":1533:1542   */\n      dup9\n        /* \"#utility.yul\":1529:1551   */\n      add\n        /* \"#utility.yul\":1508:1561   */\n      tag_18\n      jump\t// in\n    tag_46:\n        /* \"#utility.yul\":1498:1561   */\n      swap5\n      pop\n        /* \"#utility.yul\":1454:1571   */\n      pop\n        /* \"#utility.yul\":1610:1612   */\n      0x20\n        /* \"#utility.yul\":1636:1689   */\n      tag_47\n        /* \"#utility.yul\":1681:1688   */\n      dup8\n        /* \"#utility.yul\":1672:1678   */\n      dup3\n        /* \"#utility.yul\":1661:1670   */\n      dup9\n        /* \"#utility.yul\":1657:1679   */\n      add\n        /* \"#utility.yul\":1636:1689   */\n      tag_21\n      jump\t// in\n    tag_47:\n        /* \"#utility.yul\":1626:1689   */\n      swap4\n      pop\n        /* \"#utility.yul\":1581:1699   */\n      pop\n        /* \"#utility.yul\":1738:1740   */\n      0x40\n        /* \"#utility.yul\":1764:1817   */\n      tag_48\n        /* \"#utility.yul\":1809:1816   */\n      dup8\n        /* \"#utility.yul\":1800:1806   */\n      dup3\n        /* \"#utility.yul\":1789:1798   */\n      dup9\n        /* \"#utility.yul\":1785:1807   */\n      add\n        /* \"#utility.yul\":1764:1817   */\n      tag_21\n      jump\t// in\n    tag_48:\n        /* \"#utility.yul\":1754:1817   */\n      swap3\n      pop\n        /* \"#utility.yul\":1709:1827   */\n      pop\n        /* \"#utility.yul\":1866:1868   */\n      0x60\n        /* \"#utility.yul\":1892:1945   */\n      tag_49\n        /* \"#utility.yul\":1937:1944   */\n      dup8\n        /* \"#utility.yul\":1928:1934   */\n      dup3\n        /* \"#utility.yul\":1917:1926   */\n      dup9\n        /* \"#utility.yul\":1913:1935   */\n      add\n        /* \"#utility.yul\":1892:1945   */\n      tag_21\n      jump\t// in\n    tag_49:\n        /* \"#utility.yul\":1882:1945   */\n      swap2\n      pop\n        /* \"#utility.yul\":1837:1955   */\n      pop\n        /* \"#utility.yul\":1197:1962   */\n      swap3\n      swap6\n      swap2\n      swap5\n      pop\n      swap3\n      pop\n      jump\t// out\n        /* \"#utility.yul\":1968:2084   */\n    tag_22:\n        /* \"#utility.yul\":2053:2077   */\n      tag_51\n        /* \"#utility.yul\":2071:2076   */\n      dup2\n        /* \"#utility.yul\":2053:2077   */\n      tag_16\n      jump\t// in\n    tag_51:\n        /* \"#utility.yul\":2048:2051   */\n      dup3\n        /* \"#utility.yul\":2041:2078   */\n      mstore\n        /* \"#utility.yul\":1968:2084   */\n      pop\n      pop\n      jump\t// out\n        /* \"#utility.yul\":2090:2206   */\n    tag_23:\n        /* \"#utility.yul\":2175:2199   */\n      tag_53\n        /* \"#utility.yul\":2193:2198   */\n      dup2\n        /* \"#utility.yul\":2175:2199   */\n      tag_19\n      jump\t// in\n    tag_53:\n        /* \"#utility.yul\":2170:2173   */\n      dup3\n        /* \"#utility.yul\":2163:2200   */\n      mstore\n        /* \"#utility.yul\":2090:2206   */\n      pop\n      pop\n      jump\t// out\n        /* \"#utility.yul\":2280:3202   */\n    tag_24:\n        /* \"#utility.yul\":2435:2439   */\n      0x80\n        /* \"#utility.yul\":2430:2433   */\n      dup3\n        /* \"#utility.yul\":2426:2440   */\n      add\n        /* \"#utility.yul\":2533:2537   */\n      0x00\n        /* \"#utility.yul\":2526:2531   */\n      dup3\n        /* \"#utility.yul\":2522:2538   */\n      add\n        /* \"#utility.yul\":2516:2539   */\n      mload\n        /* \"#utility.yul\":2552:2623   */\n      tag_55\n        /* \"#utility.yul\":2617:2621   */\n      0x00\n        /* \"#utility.yul\":2612:2615   */\n      dup6\n        /* \"#utility.yul\":2608:2622   */\n      add\n        /* \"#utility.yul\":2594:2606   */\n      dup3\n        /* \"#utility.yul\":2552:2623   */\n      tag_22\n      jump\t// in\n    tag_55:\n        /* \"#utility.yul\":2450:2633   */\n      pop\n        /* \"#utility.yul\":2721:2725   */\n      0x20\n        /* \"#utility.yul\":2714:2719   */\n      dup3\n        /* \"#utility.yul\":2710:2726   */\n      add\n        /* \"#utility.yul\":2704:2727   */\n      mload\n        /* \"#utility.yul\":2740:2811   */\n      tag_56\n        /* \"#utility.yul\":2805:2809   */\n      0x20\n        /* \"#utility.yul\":2800:2803   */\n      dup6\n        /* \"#utility.yul\":2796:2810   */\n      add\n        /* \"#utility.yul\":2782:2794   */\n      dup3\n        /* \"#utility.yul\":2740:2811   */\n      tag_23\n      jump\t// in\n    tag_56:\n        /* \"#utility.yul\":2643:2821   */\n      pop\n        /* \"#utility.yul\":2907:2911   */\n      0x40\n        /* \"#utility.yul\":2900:2905   */\n      dup3\n        /* \"#utility.yul\":2896:2912   */\n      add\n        /* \"#utility.yul\":2890:2913   */\n      mload\n        /* \"#utility.yul\":2926:2997   */\n      tag_57\n        /* \"#utility.yul\":2991:2995   */\n      0x40\n        /* \"#utility.yul\":2986:2989   */\n      dup6\n        /* \"#utility.yul\":2982:2996   */\n      add\n        /* \"#utility.yul\":2968:2980   */\n      dup3\n        /* \"#utility.yul\":2926:2997   */\n      tag_23\n      jump\t// in\n    tag_57:\n        /* \"#utility.yul\":2831:3007   */\n      pop\n        /* \"#utility.yul\":3095:3099   */\n      0x60\n        /* \"#utility.yul\":3088:3093   */\n      dup3\n        /* \"#utility.yul\":3084:3100   */\n      add\n        /* \"#utility.yul\":3078:3101   */\n      mload\n        /* \"#utility.yul\":3114:3185   */\n      tag_58\n        /* \"#utility.yul\":3179:3183   */\n      0x60\n        /* \"#utility.yul\":3174:3177   */\n      dup6\n        /* \"#utility.yul\":3170:3184   */\n      add\n        /* \"#utility.yul\":3156:3168   */\n      dup3\n        /* \"#utility.yul\":3114:3185   */\n      tag_23\n      jump\t// in\n    tag_58:\n        /* \"#utility.yul\":3017:3195   */\n      pop\n        /* \"#utility.yul\":2404:3202   */\n      pop\n        /* \"#utility.yul\":2280:3202   */\n      pop\n      pop\n      jump\t// out\n        /* \"#utility.yul\":3208:3547   */\n    tag_8:\n        /* \"#utility.yul\":3359:3363   */\n      0x00\n        /* \"#utility.yul\":3397:3400   */\n      0x80\n        /* \"#utility.yul\":3386:3395   */\n      dup3\n        /* \"#utility.yul\":3382:3401   */\n      add\n        /* \"#utility.yul\":3374:3401   */\n      swap1\n      pop\n        /* \"#utility.yul\":3411:3540   */\n      tag_60\n        /* \"#utility.yul\":3537:3538   */\n      0x00\n        /* \"#utility.yul\":3526:3535   */\n      dup4\n        /* \"#utility.yul\":3522:3539   */\n      add\n        /* \"#utility.yul\":3513:3519   */\n      dup5\n        /* \"#utility.yul\":3411:3540   */\n      tag_24\n      jump\t// in\n    tag_60:\n        /* \"#utility.yul\":3208:3547   */\n      swap3\n      swap2\n      pop\n      pop\n      jump\t// out\n\n    auxdata: 0xa26469706673582212201716217396becc81219aa8e4431a77a432fcceb98e9aae8824381b0d94fdb34e64736f6c63430008180033\n}\n",
				"bytecode": {
					"linkReferences": {},
					"object": "6102a061004e600b8282823980515f1a607314610042577f4e487b71000000000000000000000000000000000000000000000000000000005f525f60045260245ffd5b305f52607381538281f3fe7300000000000000000000000000000000000000003014608060405260043610610034575f3560e01c8063f83d18df14610038575b5f80fd5b610052600480360381019061004d919061017c565b610068565b60405161005f9190610251565b60405180910390f35b6100706100b1565b60405180608001604052808673ffffffffffffffffffffffffffffffffffffffff168152602001858152602001848152602001838152509050949350505050565b60405180608001604052805f73ffffffffffffffffffffffffffffffffffffffff1681526020015f81526020015f81526020015f81525090565b5f80fd5b5f73ffffffffffffffffffffffffffffffffffffffff82169050919050565b5f610118826100ef565b9050919050565b6101288161010e565b8114610132575f80fd5b50565b5f813590506101438161011f565b92915050565b5f819050919050565b61015b81610149565b8114610165575f80fd5b50565b5f8135905061017681610152565b92915050565b5f805f8060808587031215610194576101936100eb565b5b5f6101a187828801610135565b94505060206101b287828801610168565b93505060406101c387828801610168565b92505060606101d487828801610168565b91505092959194509250565b6101e98161010e565b82525050565b6101f881610149565b82525050565b608082015f8201516102125f8501826101e0565b50602082015161022560208501826101ef565b50604082015161023860408501826101ef565b50606082015161024b60608501826101ef565b50505050565b5f6080820190506102645f8301846101fe565b9291505056fea26469706673582212201716217396becc81219aa8e4431a77a432fcceb98e9aae8824381b0d94fdb34e64736f6c63430008180033",
					"opcodes": "PUSH2 0x2A0 PUSH2 0x4E PUSH1 0xB DUP3 DUP3 DUP3 CODECOPY DUP1 MLOAD PUSH0 BYTE PUSH1 0x73 EQ PUSH2 0x42 JUMPI PUSH32 0x4E487B7100000000000000000000000000000000000000000000000000000000 PUSH0 MSTORE PUSH0 PUSH1 0x4 MSTORE PUSH1 0x24 PUSH0 REVERT JUMPDEST ADDRESS PUSH0 MSTORE PUSH1 0x73 DUP2 MSTORE8 DUP3 DUP2 RETURN INVALID PUSH20 0x0 ADDRESS EQ PUSH1 0x80 PUSH1 0x40 MSTORE PUSH1 0x4 CALLDATASIZE LT PUSH2 0x34 JUMPI PUSH0 CALLDATALOAD PUSH1 0xE0 SHR DUP1 PUSH4 0xF83D18DF EQ PUSH2 0x38 JUMPI JUMPDEST PUSH0 DUP1 REVERT JUMPDEST PUSH2 0x52 PUSH1 0x4 DUP1 CALLDATASIZE SUB DUP2 ADD SWAP1 PUSH2 0x4D SWAP2 SWAP1 PUSH2 0x17C JUMP JUMPDEST PUSH2 0x68 JUMP JUMPDEST PUSH1 0x40 MLOAD PUSH2 0x5F SWAP2 SWAP1 PUSH2 0x251 JUMP JUMPDEST PUSH1 0x40 MLOAD DUP1 SWAP2 SUB SWAP1 RETURN JUMPDEST PUSH2 0x70 PUSH2 0xB1 JUMP JUMPDEST PUSH1 0x40 MLOAD DUP1 PUSH1 0x80 ADD PUSH1 0x40 MSTORE DUP1 DUP7 PUSH20 0xFFFFFFFFFFFFFFFFFFFFFFFFFFFFFFFFFFFFFFFF AND DUP2 MSTORE PUSH1 0x20 ADD DUP6 DUP2 MSTORE PUSH1 0x20 ADD DUP5 DUP2 MSTORE PUSH1 0x20 ADD DUP4 DUP2 MSTORE POP SWAP1 POP SWAP5 SWAP4 POP POP POP POP JUMP JUMPDEST PUSH1 0x40 MLOAD DUP1 PUSH1 0x80 ADD PUSH1 0x40 MSTORE DUP1 PUSH0 PUSH20 0xFFFFFFFFFFFFFFFFFFFFFFFFFFFFFFFFFFFFFFFF AND DUP2 MSTORE PUSH1 0x20 ADD PUSH0 DUP2 MSTORE PUSH1 0x20 ADD PUSH0 DUP2 MSTORE PUSH1 0x20 ADD PUSH0 DUP2 MSTORE POP SWAP1 JUMP JUMPDEST PUSH0 DUP1 REVERT JUMPDEST PUSH0 PUSH20 0xFFFFFFFFFFFFFFFFFFFFFFFFFFFFFFFFFFFFFFFF DUP3 AND SWAP1 POP SWAP2 SWAP1 POP JUMP JUMPDEST PUSH0 PUSH2 0x118 DUP3 PUSH2 0xEF JUMP JUMPDEST SWAP1 POP SWAP2 SWAP1 POP JUMP JUMPDEST PUSH2 0x128 DUP2 PUSH2 0x10E JUMP JUMPDEST DUP2 EQ PUSH2 0x132 JUMPI PUSH0 DUP1 REVERT JUMPDEST POP JUMP JUMPDEST PUSH0 DUP2 CALLDATALOAD SWAP1 POP PUSH2 0x143 DUP2 PUSH2 0x11F JUMP JUMPDEST SWAP3 SWAP2 POP POP JUMP JUMPDEST PUSH0 DUP2 SWAP1 POP SWAP2 SWAP1 POP JUMP JUMPDEST PUSH2 0x15B DUP2 PUSH2 0x149 JUMP JUMPDEST DUP2 EQ PUSH2 0x165 JUMPI PUSH0 DUP1 REVERT JUMPDEST POP JUMP JUMPDEST PUSH0 DUP2 CALLDATALOAD SWAP1 POP PUSH2 0x176 DUP2 PUSH2 0x152 JUMP JUMPDEST SWAP3 SWAP2 POP POP JUMP JUMPDEST PUSH0 DUP1 PUSH0 DUP1 PUSH1 0x80 DUP6 DUP8 SUB SLT ISZERO PUSH2 0x194 JUMPI PUSH2 0x193 PUSH2 0xEB JUMP JUMPDEST JUMPDEST PUSH0 PUSH2 0x1A1 DUP8 DUP3 DUP9 ADD PUSH2 0x135 JUMP JUMPDEST SWAP5 POP POP PUSH1 0x20 PUSH2 0x1B2 DUP8 DUP3 DUP9 ADD PUSH2 0x168 JUMP JUMPDEST SWAP4 POP POP PUSH1 0x40 PUSH2 0x1C3 DUP8 DUP3 DUP9 ADD PUSH2 0x168 JUMP JUMPDEST SWAP3 POP POP PUSH1 0x60 PUSH2 0x1D4 DUP8 DUP3 DUP9 ADD PUSH2 0x168 JUMP JUMPDEST SWAP2 POP POP SWAP3 SWAP6 SWAP2 SWAP5 POP SWAP3 POP JUMP JUMPDEST PUSH2 0x1E9 DUP2 PUSH2 0x10E JUMP JUMPDEST DUP3 MSTORE POP POP JUMP JUMPDEST PUSH2 0x1F8 DUP2 PUSH2 0x149 JUMP JUMPDEST DUP3 MSTORE POP POP JUMP JUMPDEST PUSH1 0x80 DUP3 ADD PUSH0 DUP3 ADD MLOAD PUSH2 0x212 PUSH0 DUP6 ADD DUP3 PUSH2 0x1E0 JUMP JUMPDEST POP PUSH1 0x20 DUP3 ADD MLOAD PUSH2 0x225 PUSH1 0x20 DUP6 ADD DUP3 PUSH2 0x1EF JUMP JUMPDEST POP PUSH1 0x40 DUP3 ADD MLOAD PUSH2 0x238 PUSH1 0x40 DUP6 ADD DUP3 PUSH2 0x1EF JUMP JUMPDEST POP PUSH1 0x60 DUP3 ADD MLOAD PUSH2 0x24B PUSH1 0x60 DUP6 ADD DUP3 PUSH2 0x1EF JUMP JUMPDEST POP POP POP POP JUMP JUMPDEST PUSH0 PUSH1 0x80 DUP3 ADD SWAP1 POP PUSH2 0x264 PUSH0 DUP4 ADD DUP5 PUSH2 0x1FE JUMP JUMPDEST SWAP3 SWAP2 POP POP JUMP INVALID LOG2 PUSH5 0x6970667358 0x22 SLT KECCAK256 OR AND 0x21 PUSH20 0x96BECC81219AA8E4431A77A432FCCEB98E9AAE88 0x24 CODESIZE SHL 0xD SWAP5 REVERT 0xB3 0x4E PUSH5 0x736F6C6343 STOP ADDMOD XOR STOP CALLER "
				},
				"gasEstimates": {
					"creation": {
						"codeDepositCost": "134400",
						"executionCost": "203",
						"totalCost": "134603"
					},
					"external": {
						"createCreditor(address,uint256,uint256,uint256)": "infinite"
					},
					"internal": {
						"getCreditorAddress(struct ModelLibrary.Creditor storage pointer)": "infinite",
						"getDebtAmount(struct ModelLibrary.Creditor storage pointer)": "infinite",
						"getInterest(struct ModelLibrary.Creditor storage pointer)": "infinite",
						"getTimeOfDebt(struct ModelLibrary.Creditor storage pointer)": "infinite",
						"setDebtAmount(struct ModelLibrary.Creditor storage pointer,uint256)": "infinite",
						"setTimeOfDebt(struct ModelLibrary.Creditor storage pointer,uint256)": "infinite"
					}
				},
				"methodIdentifiers": {
					"createCreditor(address,uint256,uint256,uint256)": "f83d18df"
				}
			},
			"storageLayout": {
				"storage": [],
				"types": null
			},
			"userdoc": {
				"kind": "user",
				"methods": {},
				"version": 1
			}
		}
	}
}