{
	"data": {
		"bytecode": {
			"linkReferences": {
				"contracts/models/ModelLibrary.sol": {
					"ModelLibrary": [
						{
							"length": 20,
							"start": 3172
						}
					]
				}
			},
			"object": "60806040525f60045f6101000a81548160ff021916908315150217905550348015610028575f80fd5b50614242806100365f395ff3fe608060405260043610620000fd575f3560e01c8063768bb81f1162000096578063b57161f51162000060578063b57161f51462000381578063d18e262e14620003c9578063f5b92c7314620003f6578063fe8ed985146200042c57620000fd565b8063768bb81f14620002b15780639a5c5e6414620002e0578063a69e8bb91462000323578063afe40e09146200035257620000fd565b806335e30ae411620000d857806335e30ae414620001b757806339769e0814620001fb5780635795fe07146200023f57806360416a9c146200028257620000fd565b806309d708531462000101578063207a296a146200013157806333ecb31e1462000174575b5f80fd5b3480156200010d575f80fd5b50620001186200045b565b6040516200012892919062001716565b60405180910390f35b3480156200013d575f80fd5b506200015c6004803603810190620001569190620017b0565b62000554565b6040516200016b919062001850565b60405180910390f35b34801562000180575f80fd5b506200019f60048036038101906200019991906200186b565b6200084c565b604051620001ae919062001953565b60405180910390f35b348015620001c3575f80fd5b50620001e26004803603810190620001dc919062001ac6565b6200094b565b604051620001f292919062001b44565b60405180910390f35b34801562000207575f80fd5b506200022660048036038101906200022091906200186b565b62000a23565b6040516200023692919062001716565b60405180910390f35b3480156200024b575f80fd5b506200026a60048036038101906200026491906200186b565b62000aba565b60405162000279919062001850565b60405180910390f35b3480156200028e575f80fd5b506200029962000b08565b604051620002a8919062001b6f565b60405180910390f35b348015620002bd575f80fd5b50620002c862000b11565b604051620002d7919062001b6f565b60405180910390f35b348015620002ec575f80fd5b506200030b600480360381019062000305919062001b8a565b62000b17565b6040516200031a919062001850565b60405180910390f35b3480156200032f575f80fd5b506200033a62000d9d565b60405162000349919062001b6f565b60405180910390f35b3480156200035e575f80fd5b506200036962000da6565b60405162000378919062001c60565b60405180910390f35b3480156200038d575f80fd5b50620003ac6004803603810190620003a691906200186b565b62000dce565b604051620003c09695949392919062001c7b565b60405180910390f35b348015620003d5575f80fd5b50620003f46004803603810190620003ee919062001ce6565b62000e3d565b005b6200041460048036038101906200040e919062001da8565b62000f7d565b60405162000423919062001b6f565b60405180910390f35b34801562000438575f80fd5b50620004436200148c565b60405162000452919062001e01565b60405180910390f35b5f80620004c55f80600460019054906101000a900473ffffffffffffffffffffffffffffffffffffffff1673ffffffffffffffffffffffffffffffffffffffff1673ffffffffffffffffffffffffffffffffffffffff1681526020019081526020015f20620014b5565b60055460035f828254620004da919062001e49565b92505081905550620005495f80600460019054906101000a900473ffffffffffffffffffffffffffffffffffffffff1673ffffffffffffffffffffffffffffffffffffffff1673ffffffffffffffffffffffffffffffffffffffff1681526020019081526020015f20620014d5565b600554915091509091565b5f806200059c5f808973ffffffffffffffffffffffffffffffffffffffff1673ffffffffffffffffffffffffffffffffffffffff1681526020019081526020015f2062001500565b03620005df576040517f08c379a0000000000000000000000000000000000000000000000000000000008152600401620005d69062001ee1565b60405180910390fd5b5f841162000624576040517f08c379a00000000000000000000000000000000000000000000000000000000081526004016200061b9062001f75565b60405180910390fd5b5f831162000669576040517f08c379a0000000000000000000000000000000000000000000000000000000008152600401620006609062002009565b60405180910390fd5b5f805f8873ffffffffffffffffffffffffffffffffffffffff1673ffffffffffffffffffffffffffffffffffffffff1681526020019081526020015f2090508573ffffffffffffffffffffffffffffffffffffffff16620006ca82620014d5565b73ffffffffffffffffffffffffffffffffffffffff16148015620006f7575084620006f58262001500565b145b80156200070d5750836200070b826200150d565b145b6200074f576040517f08c379a0000000000000000000000000000000000000000000000000000000008152600401620007469062002077565b60405180910390fd5b6200079f425f808a73ffffffffffffffffffffffffffffffffffffffff1673ffffffffffffffffffffffffffffffffffffffff1681526020019081526020015f206200151a90919063ffffffff16565b620007e55f808973ffffffffffffffffffffffffffffffffffffffff1673ffffffffffffffffffffffffffffffffffffffff1681526020019081526020015f2062001527565b84600154620007f5919062002097565b600181905550826003546200080b919062002097565b600381905550847f5a15159ae6cc037791b91af8bdaac630acda5e3641915b25fbcb6394ae990b9260405160405180910390a2600191505095945050505050565b6200085662001661565b5f808373ffffffffffffffffffffffffffffffffffffffff1673ffffffffffffffffffffffffffffffffffffffff1681526020019081526020015f206040518060c00160405290815f82015f9054906101000a900473ffffffffffffffffffffffffffffffffffffffff1673ffffffffffffffffffffffffffffffffffffffff1673ffffffffffffffffffffffffffffffffffffffff168152602001600182015481526020016002820154815260200160038201548152602001600482015f9054906101000a900460ff161515151581526020016004820160019054906101000a900460ff1615151515815250509050919050565b5f805f8060065f9054906101000a900473ffffffffffffffffffffffffffffffffffffffff1673ffffffffffffffffffffffffffffffffffffffff16634fc8a99187876040518363ffffffff1660e01b8152600401620009ad92919062002145565b60408051808303815f875af1158015620009c9573d5f803e3d5ffd5b505050506040513d601f19601f82011682018060405250810190620009ef9190620021d5565b91509150811562000a14575f60045f6101000a81548160ff0219169083151502179055505b81819350935050509250929050565b5f8062000a6b5f808573ffffffffffffffffffffffffffffffffffffffff1673ffffffffffffffffffffffffffffffffffffffff1681526020019081526020015f20620014d5565b62000ab15f808673ffffffffffffffffffffffffffffffffffffffff1673ffffffffffffffffffffffffffffffffffffffff1681526020019081526020015f2062001500565b91509150915091565b5f62000b015f808473ffffffffffffffffffffffffffffffffffffffff1673ffffffffffffffffffffffffffffffffffffffff1681526020019081526020015f2062001546565b9050919050565b5f600154905090565b60035481565b5f8062000b5f5f808873ffffffffffffffffffffffffffffffffffffffff1673ffffffffffffffffffffffffffffffffffffffff1681526020019081526020015f2062001500565b1462000ba2576040517f08c379a000000000000000000000000000000000000000000000000000000000815260040162000b999062002268565b60405180910390fd5b5f831162000be7576040517f08c379a000000000000000000000000000000000000000000000000000000000815260040162000bde9062001f75565b60405180910390fd5b5f821162000c2c576040517f08c379a000000000000000000000000000000000000000000000000000000000815260040162000c239062002009565b60405180910390fd5b73__$6ad00e6422a175cffb7ecfa79adae0f0ed$__6315533aa3858585425f806040518763ffffffff1660e01b815260040162000c6f96959493929190620022bb565b60c060405180830381865af415801562000c8b573d5f803e3d5ffd5b505050506040513d601f19601f8201168201806040525081019062000cb1919062002404565b5f808773ffffffffffffffffffffffffffffffffffffffff1673ffffffffffffffffffffffffffffffffffffffff1681526020019081526020015f205f820151815f015f6101000a81548173ffffffffffffffffffffffffffffffffffffffff021916908373ffffffffffffffffffffffffffffffffffffffff1602179055506020820151816001015560408201518160020155606082015181600301556080820151816004015f6101000a81548160ff02191690831515021790555060a08201518160040160016101000a81548160ff02191690831515021790555090505060019050949350505050565b5f600354905090565b5f60065f9054906101000a900473ffffffffffffffffffffffffffffffffffffffff16905090565b5f602052805f5260405f205f91509050805f015f9054906101000a900473ffffffffffffffffffffffffffffffffffffffff1690806001015490806002015490806003015490806004015f9054906101000a900460ff16908060040160019054906101000a900460ff16905086565b5f151560045f9054906101000a900460ff1615151462000e94576040517f08c379a000000000000000000000000000000000000000000000000000000000815260040162000e8b90620024ce565b60405180910390fd5b600160045f6101000a81548160ff02191690831515021790555084600460016101000a81548173ffffffffffffffffffffffffffffffffffffffff021916908373ffffffffffffffffffffffffffffffffffffffff16021790555083600581905550600560035484848460405162000f0c90620016ab565b62000f1c9594939291906200253b565b604051809103905ff08015801562000f36573d5f803e3d5ffd5b5060065f6101000a81548173ffffffffffffffffffffffffffffffffffffffff021916908373ffffffffffffffffffffffffffffffffffffffff1602179055505050505050565b5f8273ffffffffffffffffffffffffffffffffffffffff1662000fdb5f808773ffffffffffffffffffffffffffffffffffffffff1673ffffffffffffffffffffffffffffffffffffffff1681526020019081526020015f20620014d5565b73ffffffffffffffffffffffffffffffffffffffff161462001034576040517f08c379a00000000000000000000000000000000000000000000000000000000081526004016200102b9062002618565b60405180910390fd5b5f620010408362001560565b9050808362001050919062001e49565b92508060035f82825462001065919062002097565b925050819055505f620010b35f808873ffffffffffffffffffffffffffffffffffffffff1673ffffffffffffffffffffffffffffffffffffffff1681526020019081526020015f2062001500565b90505f6200114e82620011015f808b73ffffffffffffffffffffffffffffffffffffffff1673ffffffffffffffffffffffffffffffffffffffff1681526020019081526020015f20620015a8565b42620011485f808d73ffffffffffffffffffffffffffffffffffffffff1673ffffffffffffffffffffffffffffffffffffffff1681526020019081526020015f206200150d565b620015b5565b90508060015f82825462001163919062002097565b92505081905550620011c781836200117c919062002097565b5f808a73ffffffffffffffffffffffffffffffffffffffff1673ffffffffffffffffffffffffffffffffffffffff1681526020019081526020015f206200165490919063ffffffff16565b5f6200120e5f808a73ffffffffffffffffffffffffffffffffffffffff1673ffffffffffffffffffffffffffffffffffffffff1681526020019081526020015f2062001500565b905062001260425f808b73ffffffffffffffffffffffffffffffffffffffff1673ffffffffffffffffffffffffffffffffffffffff1681526020019081526020015f206200151a90919063ffffffff16565b5f86821190505f81156200135b57620012cb888462001280919062001e49565b5f808d73ffffffffffffffffffffffffffffffffffffffff1673ffffffffffffffffffffffffffffffffffffffff1681526020019081526020015f206200165490919063ffffffff16565b5f88600154620012dc919062001e49565b101562001320576040517f08c379a00000000000000000000000000000000000000000000000000000000081526004016200131790620026ac565b60405180910390fd5b8760015462001330919062001e49565b6001819055508760025462001346919062002097565b60028190555087965050505050505062001485565b828862001369919062001e49565b9050620013bb5f805f8d73ffffffffffffffffffffffffffffffffffffffff1673ffffffffffffffffffffffffffffffffffffffff1681526020019081526020015f206200165490919063ffffffff16565b5f8189620013ca919062001e49565b90505f81600154620013dd919062001e49565b101562001421576040517f08c379a00000000000000000000000000000000000000000000000000000000081526004016200141890620026ac565b60405180910390fd5b8060015462001431919062001e49565b6001819055508060025462001447919062002097565b600281905550807f9475536cefb174883c3cdb7fc9b15f91d30b23b31537fa0bba2cc40bae9cc67060405160405180910390a2819750505050505050505b9392505050565b5f600460019054906101000a900473ffffffffffffffffffffffffffffffffffffffff16905090565b60018160040160016101000a81548160ff02191690831515021790555050565b5f815f015f9054906101000a900473ffffffffffffffffffffffffffffffffffffffff169050919050565b5f81600101549050919050565b5f81600201549050919050565b8082600301819055505050565b6001816004015f6101000a81548160ff02191690831515021790555050565b5f8160040160019054906101000a900460ff169050919050565b5f80600190505f8161ffff166064856200157b9190620026f9565b62001587919062002730565b90505f81036200159d57600192505050620015a3565b80925050505b919050565b5f81600301549050919050565b5f83831015620015fc576040517f08c379a0000000000000000000000000000000000000000000000000000000008152600401620015f390620027ee565b60405180910390fd5b5f601e85856200160d919062001e49565b620016199190620026f9565b90505f606484886200162c919062002730565b620016389190620026f9565b9050808262001648919062002730565b92505050949350505050565b8082600101819055505050565b6040518060c001604052805f73ffffffffffffffffffffffffffffffffffffffff1681526020015f81526020015f81526020015f81526020015f151581526020015f151581525090565b6119fe806200280f83390190565b5f73ffffffffffffffffffffffffffffffffffffffff82169050919050565b5f620016e482620016b9565b9050919050565b620016f681620016d8565b82525050565b5f819050919050565b6200171081620016fc565b82525050565b5f6040820190506200172b5f830185620016eb565b6200173a602083018462001705565b9392505050565b5f604051905090565b5f80fd5b5f80fd5b6200175d81620016d8565b811462001768575f80fd5b50565b5f813590506200177b8162001752565b92915050565b6200178c81620016fc565b811462001797575f80fd5b50565b5f81359050620017aa8162001781565b92915050565b5f805f805f60a08688031215620017cc57620017cb6200174a565b5b5f620017db888289016200176b565b9550506020620017ee888289016200176b565b945050604062001801888289016200179a565b935050606062001814888289016200179a565b925050608062001827888289016200179a565b9150509295509295909350565b5f8115159050919050565b6200184a8162001834565b82525050565b5f602082019050620018655f8301846200183f565b92915050565b5f602082840312156200188357620018826200174a565b5b5f62001892848285016200176b565b91505092915050565b620018a681620016d8565b82525050565b620018b781620016fc565b82525050565b620018c88162001834565b82525050565b60c082015f820151620018e45f8501826200189b565b506020820151620018f96020850182620018ac565b5060408201516200190e6040850182620018ac565b506060820151620019236060850182620018ac565b506080820151620019386080850182620018bd565b5060a08201516200194d60a0850182620018bd565b50505050565b5f60c082019050620019685f830184620018ce565b92915050565b5f80fd5b5f80fd5b5f601f19601f8301169050919050565b7f4e487b71000000000000000000000000000000000000000000000000000000005f52604160045260245ffd5b620019be8262001976565b810181811067ffffffffffffffff82111715620019e057620019df62001986565b5b80604052505050565b5f620019f462001741565b905062001a028282620019b3565b919050565b5f67ffffffffffffffff82111562001a245762001a2362001986565b5b62001a2f8262001976565b9050602081019050919050565b828183375f83830152505050565b5f62001a6062001a5a8462001a07565b620019e9565b90508281526020810184848401111562001a7f5762001a7e62001972565b5b62001a8c84828562001a3c565b509392505050565b5f82601f83011262001aab5762001aaa6200196e565b5b813562001abd84826020860162001a4a565b91505092915050565b5f806040838503121562001adf5762001ade6200174a565b5b5f62001aee858286016200176b565b925050602083013567ffffffffffffffff81111562001b125762001b116200174e565b5b62001b208582860162001a94565b9150509250929050565b5f819050919050565b62001b3e8162001b2a565b82525050565b5f60408201905062001b595f8301856200183f565b62001b68602083018462001b33565b9392505050565b5f60208201905062001b845f83018462001705565b92915050565b5f805f806080858703121562001ba55762001ba46200174a565b5b5f62001bb4878288016200176b565b945050602062001bc7878288016200176b565b935050604062001bda878288016200179a565b925050606062001bed878288016200179a565b91505092959194509250565b5f819050919050565b5f62001c2262001c1c62001c1684620016b9565b62001bf9565b620016b9565b9050919050565b5f62001c358262001c02565b9050919050565b5f62001c488262001c29565b9050919050565b62001c5a8162001c3c565b82525050565b5f60208201905062001c755f83018462001c4f565b92915050565b5f60c08201905062001c905f830189620016eb565b62001c9f602083018862001705565b62001cae604083018762001705565b62001cbd606083018662001705565b62001ccc60808301856200183f565b62001cdb60a08301846200183f565b979650505050505050565b5f805f805f60a0868803121562001d025762001d016200174a565b5b5f62001d11888289016200176b565b955050602062001d24888289016200179a565b945050604086013567ffffffffffffffff81111562001d485762001d476200174e565b5b62001d568882890162001a94565b935050606086013567ffffffffffffffff81111562001d7a5762001d796200174e565b5b62001d888882890162001a94565b925050608062001d9b888289016200179a565b9150509295509295909350565b5f805f6060848603121562001dc25762001dc16200174a565b5b5f62001dd1868287016200176b565b935050602062001de4868287016200176b565b925050604062001df7868287016200179a565b9150509250925092565b5f60208201905062001e165f830184620016eb565b92915050565b7f4e487b71000000000000000000000000000000000000000000000000000000005f52601160045260245ffd5b5f62001e5582620016fc565b915062001e6283620016fc565b925082820390508181111562001e7d5762001e7c62001e1c565b5b92915050565b5f82825260208201905092915050565b7f446562746f7220646f65736e27742065786973742e00000000000000000000005f82015250565b5f62001ec960158362001e83565b915062001ed68262001e93565b602082019050919050565b5f6020820190508181035f83015262001efa8162001ebb565b9050919050565b7f416d6f756e74206f662064656274206861766520746f206265206772656174655f8201527f72207468616e20302e0000000000000000000000000000000000000000000000602082015250565b5f62001f5d60298362001e83565b915062001f6a8262001f01565b604082019050919050565b5f6020820190508181035f83015262001f8e8162001f4f565b9050919050565b7f496e7465726573742068617320746f2062652067726561746572207468616e205f8201527f302e000000000000000000000000000000000000000000000000000000000000602082015250565b5f62001ff160228362001e83565b915062001ffe8262001f95565b604082019050919050565b5f6020820190508181035f830152620020228162001fe3565b9050919050565b7f56616c69646174696f6e206661696c65642e00000000000000000000000000005f82015250565b5f6200205f60128362001e83565b91506200206c8262002029565b602082019050919050565b5f6020820190508181035f830152620020908162002051565b9050919050565b5f620020a382620016fc565b9150620020b083620016fc565b9250828201905080821115620020cb57620020ca62001e1c565b5b92915050565b5f81519050919050565b5f5b83811015620020fa578082015181840152602081019050620020dd565b5f8484015250505050565b5f6200211182620020d1565b6200211d818562001e83565b93506200212f818560208601620020db565b6200213a8162001976565b840191505092915050565b5f6040820190506200215a5f830185620016eb565b81810360208301526200216e818462002105565b90509392505050565b620021828162001834565b81146200218d575f80fd5b50565b5f81519050620021a08162002177565b92915050565b620021b18162001b2a565b8114620021bc575f80fd5b50565b5f81519050620021cf81620021a6565b92915050565b5f8060408385031215620021ee57620021ed6200174a565b5b5f620021fd8582860162002190565b92505060206200221085828601620021bf565b9150509250929050565b7f446562746f7220616c7265616479206861766520646562742e000000000000005f82015250565b5f6200225060198362001e83565b91506200225d826200221a565b602082019050919050565b5f6020820190508181035f830152620022818162002242565b9050919050565b6200229381620016d8565b82525050565b620022a481620016fc565b82525050565b620022b58162001834565b82525050565b5f60c082019050620022d05f83018962002288565b620022df602083018862002299565b620022ee604083018762002299565b620022fd606083018662002299565b6200230c6080830185620022aa565b6200231b60a0830184620022aa565b979650505050505050565b5f80fd5b5f815190506200233a8162001752565b92915050565b5f81519050620023508162001781565b92915050565b5f60c082840312156200236e576200236d62002326565b5b6200237a60c0620019e9565b90505f6200238b848285016200232a565b5f830152506020620023a08482850162002340565b6020830152506040620023b68482850162002340565b6040830152506060620023cc8482850162002340565b6060830152506080620023e28482850162002190565b60808301525060a0620023f88482850162002190565b60a08301525092915050565b5f60c082840312156200241c576200241b6200174a565b5b5f6200242b8482850162002356565b91505092915050565b7f54616b696e67207069656365206f6620646562742066756e6420697320616c725f8201527f6561647920696e2070726f676573732e2054727920616761696e206c6174657260208201527f2e00000000000000000000000000000000000000000000000000000000000000604082015250565b5f620024b660418362001e83565b9150620024c38262002434565b606082019050919050565b5f6020820190508181035f830152620024e781620024a8565b9050919050565b5f819050919050565b5f60ff82169050919050565b5f620025236200251d6200251784620024ee565b62001bf9565b620024f7565b9050919050565b620025358162002503565b82525050565b5f60a082019050620025505f8301886200252a565b6200255f602083018762001705565b818103604083015262002573818662002105565b9050818103606083015262002589818562002105565b90506200259a608083018462001705565b9695505050505050565b7f446562746f722d4372656469742d5061697220697320756e7661696c61626c655f8201527f2e00000000000000000000000000000000000000000000000000000000000000602082015250565b5f6200260060218362001e83565b91506200260d82620025a4565b604082019050919050565b5f6020820190508181035f8301526200263181620025f2565b9050919050565b7f456e642063757272656e74206465627420616d6f756e742073686f756c6420625f8201527f652067726561746572207468616e20302e000000000000000000000000000000602082015250565b5f6200269460318362001e83565b9150620026a18262002638565b604082019050919050565b5f6020820190508181035f830152620026c58162002686565b9050919050565b7f4e487b71000000000000000000000000000000000000000000000000000000005f52601260045260245ffd5b5f6200270582620016fc565b91506200271283620016fc565b925082620027255762002724620026cc565b5b828204905092915050565b5f6200273c82620016fc565b91506200274983620016fc565b92508282026200275981620016fc565b9150828204841483151762002773576200277262001e1c565b5b5092915050565b7f537461727420616e6420656e642074696d657374616d707320646f6e2774206d5f8201527f6174636800000000000000000000000000000000000000000000000000000000602082015250565b5f620027d660248362001e83565b9150620027e3826200277a565b604082019050919050565b5f6020820190508181035f8301526200280781620027c8565b905091905056fe6080604052600160075f6101000a81548160ff021916908360ff1602179055505f600a5f6101000a81548160ff021916908360ff160217905550609060f81b600a60016101000a81548160ff021916908360f81c021790555034801562000064575f80fd5b50604051620019fe380380620019fe83398181016040528101906200008a9190620007c0565b43600581905550600554406006819055508460045f6101000a81548160ff021916908360ff160217905550835f819055508260029081620000cc919062000ab0565b508160039081620000de919062000ab0565b5080600181905550620000f66200017660201b60201c565b6008908162000106919062000ab0565b506200011a600154620002f160201b60201c565b600981905550600860405162000131919062000c2a565b60405180910390206006546005547f9f4da1eb02e98b4ab1d9b713f225d0f993b2222a21852024e9d90204be64706a60405160405180910390a4505050505062000e89565b60605f6009546001546200018b919062000c6f565b9050805f541015620001d4576040517f08c379a0000000000000000000000000000000000000000000000000000000008152600401620001cb9062000d07565b60405180910390fd5b5f620001e75f546200032160201b60201c565b90505f620001fd6001546200032160201b60201c565b90505f600380546200020f90620008b9565b80601f01602080910402602001604051908101604052809291908181526020018280546200023d90620008b9565b80156200028c5780601f1062000262576101008083540402835291602001916200028c565b820191905f5260205f20905b8154815290600101906020018083116200026e57829003601f168201915b505050505090505f600654604051602001620002a9919062000d54565b60405160208183030381529060405290505f82858584604051602001620002d4949392919062000da6565b604051602081830303815290604052905080965050505050505090565b5f80620003168360045f9054906101000a900460ff1660ff16620003fc60201b60201c565b905080915050919050565b60605f600162000337846200045e60201b60201c565b0190505f8167ffffffffffffffff81111562000358576200035762000664565b5b6040519080825280601f01601f1916602001820160405280156200038b5781602001600182028036833780820191505090505b5090505f82602001820190505b600115620003f1578080600190039150507f3031323334353637383961626364656600000000000000000000000000000000600a86061a8153600a8581620003e557620003e462000deb565b5b0494505f850362000398575b819350505050919050565b5f8082036200041b57818362000413919062000e18565b905062000458565b5f8314620004535760018260018562000435919062000e4f565b62000441919062000e18565b6200044d919062000c6f565b62000455565b5f5b90505b92915050565b5f805f90507a184f03e93ff9f4daa797ed6e38ed64bf6a1f0100000000000000008310620004be577a184f03e93ff9f4daa797ed6e38ed64bf6a1f0100000000000000008381620004b457620004b362000deb565b5b0492506040810190505b6d04ee2d6d415b85acef81000000008310620004ff576d04ee2d6d415b85acef81000000008381620004f557620004f462000deb565b5b0492506020810190505b662386f26fc1000083106200053257662386f26fc10000838162000528576200052762000deb565b5b0492506010810190505b6305f5e10083106200055f576305f5e100838162000555576200055462000deb565b5b0492506008810190505b6127108310620005885761271083816200057e576200057d62000deb565b5b0492506004810190505b60648310620005af5760648381620005a557620005a462000deb565b5b0492506002810190505b600a8310620005bf576001810190505b80915050919050565b5f604051905090565b5f80fd5b5f80fd5b5f60ff82169050919050565b620005f081620005d9565b8114620005fb575f80fd5b50565b5f815190506200060e81620005e5565b92915050565b5f819050919050565b620006288162000614565b811462000633575f80fd5b50565b5f8151905062000646816200061d565b92915050565b5f80fd5b5f80fd5b5f601f19601f8301169050919050565b7f4e487b71000000000000000000000000000000000000000000000000000000005f52604160045260245ffd5b6200069c8262000654565b810181811067ffffffffffffffff82111715620006be57620006bd62000664565b5b80604052505050565b5f620006d2620005c8565b9050620006e0828262000691565b919050565b5f67ffffffffffffffff82111562000702576200070162000664565b5b6200070d8262000654565b9050602081019050919050565b5f5b83811015620007395780820151818401526020810190506200071c565b5f8484015250505050565b5f6200075a6200075484620006e5565b620006c7565b90508281526020810184848401111562000779576200077862000650565b5b620007868482856200071a565b509392505050565b5f82601f830112620007a557620007a46200064c565b5b8151620007b784826020860162000744565b91505092915050565b5f805f805f60a08688031215620007dc57620007db620005d1565b5b5f620007eb88828901620005fe565b9550506020620007fe8882890162000636565b945050604086015167ffffffffffffffff811115620008225762000821620005d5565b5b62000830888289016200078e565b935050606086015167ffffffffffffffff811115620008545762000853620005d5565b5b62000862888289016200078e565b9250506080620008758882890162000636565b9150509295509295909350565b5f81519050919050565b7f4e487b71000000000000000000000000000000000000000000000000000000005f52602260045260245ffd5b5f6002820490506001821680620008d157607f821691505b602082108103620008e757620008e66200088c565b5b50919050565b5f819050815f5260205f209050919050565b5f6020601f8301049050919050565b5f82821b905092915050565b5f600883026200094b7fffffffffffffffffffffffffffffffffffffffffffffffffffffffffffffffff826200090e565b6200095786836200090e565b95508019841693508086168417925050509392505050565b5f819050919050565b5f62000998620009926200098c8462000614565b6200096f565b62000614565b9050919050565b5f819050919050565b620009b38362000978565b620009cb620009c2826200099f565b8484546200091a565b825550505050565b5f90565b620009e1620009d3565b620009ee818484620009a8565b505050565b5b8181101562000a155762000a095f82620009d7565b600181019050620009f4565b5050565b601f82111562000a645762000a2e81620008ed565b62000a3984620008ff565b8101602085101562000a49578190505b62000a6162000a5885620008ff565b830182620009f3565b50505b505050565b5f82821c905092915050565b5f62000a865f198460080262000a69565b1980831691505092915050565b5f62000aa0838362000a75565b9150826002028217905092915050565b62000abb8262000882565b67ffffffffffffffff81111562000ad75762000ad662000664565b5b62000ae38254620008b9565b62000af082828562000a19565b5f60209050601f83116001811462000b26575f841562000b11578287015190505b62000b1d858262000a93565b86555062000b8c565b601f19841662000b3686620008ed565b5f5b8281101562000b5f5784890151825560018201915060208501945060208101905062000b38565b8683101562000b7f578489015162000b7b601f89168262000a75565b8355505b6001600288020188555050505b505050505050565b5f81905092915050565b5f815462000bac81620008b9565b62000bb8818662000b94565b9450600182165f811462000bd5576001811462000beb5762000c21565b60ff198316865281151582028601935062000c21565b62000bf685620008ed565b5f5b8381101562000c195781548189015260018201915060208101905062000bf8565b838801955050505b50505092915050565b5f62000c37828462000b9e565b915081905092915050565b7f4e487b71000000000000000000000000000000000000000000000000000000005f52601160045260245ffd5b5f62000c7b8262000614565b915062000c888362000614565b925082820190508082111562000ca35762000ca262000c42565b5b92915050565b5f82825260208201905092915050565b7f4e6f7420656e6f75676820746f6b656e7320617661696c61626c652e000000005f82015250565b5f62000cef601c8362000ca9565b915062000cfc8262000cb9565b602082019050919050565b5f6020820190508181035f83015262000d208162000ce1565b9050919050565b5f819050919050565b5f819050919050565b62000d4e62000d488262000d27565b62000d30565b82525050565b5f62000d61828462000d39565b60208201915081905092915050565b5f62000d7c8262000882565b62000d88818562000b94565b935062000d9a8185602086016200071a565b80840191505092915050565b5f62000db3828762000d70565b915062000dc1828662000d70565b915062000dcf828562000d70565b915062000ddd828462000d70565b915081905095945050505050565b7f4e487b71000000000000000000000000000000000000000000000000000000005f52601260045260245ffd5b5f62000e248262000614565b915062000e318362000614565b92508262000e445762000e4362000deb565b5b828204905092915050565b5f62000e5b8262000614565b915062000e688362000614565b925082820390508181111562000e835762000e8262000c42565b5b92915050565b610b678062000e975f395ff3fe608060405234801561000f575f80fd5b50600436106100b2575f3560e01c80636a49f9791161006f5780636a49f9791461017d57806395d89b411461019b578063b62a62ec146101b9578063e8315742146101d7578063f22a195e146101f5578063f82900b114610213576100b2565b80630572b0cc146100b657806306fdde03146100d457806318160ddd146100f25780633ba0b9a9146101105780634fc8a9911461012e57806357e871e71461015f575b5f80fd5b6100be610231565b6040516100cb9190610609565b60405180910390f35b6100dc61023a565b6040516100e991906106ac565b60405180910390f35b6100fa6102c6565b6040516101079190610609565b60405180910390f35b6101186102cc565b60405161012591906106e7565b60405180910390f35b61014860048036038101906101439190610897565b6102de565b604051610156929190610923565b60405180910390f35b610167610432565b6040516101749190610609565b60405180910390f35b610185610438565b60405161019291906106ac565b60405180910390f35b6101a36104c4565b6040516101b091906106ac565b60405180910390f35b6101c1610550565b6040516101ce91906106ac565b60405180910390f35b6101df6105e0565b6040516101ec9190610609565b60405180910390f35b6101fd6105e5565b60405161020a919061094a565b60405180910390f35b61021b6105eb565b6040516102289190610609565b60405180910390f35b5f600954905090565b6003805461024790610990565b80601f016020809104026020016040519081016040528092919081815260200182805461027390610990565b80156102be5780601f10610295576101008083540402835291602001916102be565b820191905f5260205f20905b8154815290600101906020018083116102a157829003601f168201915b505050505081565b60015481565b60045f9054906101000a900460ff1681565b5f805f6008846040516020016102f5929190610a8c565b60405160208183030381529060405290505f8160405160200161031891906106ac565b6040516020818303038152906040528051906020012090505f5b60208160ff1611610421575f828260ff166020811061035457610353610aaf565b5b1a60f81b9050600a60019054906101000a900460f81b7effffffffffffffffffffffffffffffffffffffffffffffffffffffffffffff1916817effffffffffffffffffffffffffffffffffffffffffffffffffffffffffffff19160361040d576009546005548973ffffffffffffffffffffffffffffffffffffffff167f5a9ec13c12ca9563a7b3108125f74c57ed388bb313394ea50f7e4a71b01497c260405160405180910390a4600183955095505050505061042b565b50808061041990610b09565b915050610332565b505f819350935050505b9250929050565b60055481565b6008805461044590610990565b80601f016020809104026020016040519081016040528092919081815260200182805461047190610990565b80156104bc5780601f10610493576101008083540402835291602001916104bc565b820191905f5260205f20905b81548152906001019060200180831161049f57829003601f168201915b505050505081565b600280546104d190610990565b80601f01602080910402602001604051908101604052809291908181526020018280546104fd90610990565b80156105485780601f1061051f57610100808354040283529160200191610548565b820191905f5260205f20905b81548152906001019060200180831161052b57829003601f168201915b505050505081565b60606008805461055f90610990565b80601f016020809104026020016040519081016040528092919081815260200182805461058b90610990565b80156105d65780601f106105ad576101008083540402835291602001916105d6565b820191905f5260205f20905b8154815290600101906020018083116105b957829003601f168201915b5050505050905090565b5f5481565b60065481565b60095481565b5f819050919050565b610603816105f1565b82525050565b5f60208201905061061c5f8301846105fa565b92915050565b5f81519050919050565b5f82825260208201905092915050565b5f5b8381101561065957808201518184015260208101905061063e565b5f8484015250505050565b5f601f19601f8301169050919050565b5f61067e82610622565b610688818561062c565b935061069881856020860161063c565b6106a181610664565b840191505092915050565b5f6020820190508181035f8301526106c48184610674565b905092915050565b5f60ff82169050919050565b6106e1816106cc565b82525050565b5f6020820190506106fa5f8301846106d8565b92915050565b5f604051905090565b5f80fd5b5f80fd5b5f73ffffffffffffffffffffffffffffffffffffffff82169050919050565b5f61073a82610711565b9050919050565b61074a81610730565b8114610754575f80fd5b50565b5f8135905061076581610741565b92915050565b5f80fd5b5f80fd5b7f4e487b71000000000000000000000000000000000000000000000000000000005f52604160045260245ffd5b6107a982610664565b810181811067ffffffffffffffff821117156107c8576107c7610773565b5b80604052505050565b5f6107da610700565b90506107e682826107a0565b919050565b5f67ffffffffffffffff82111561080557610804610773565b5b61080e82610664565b9050602081019050919050565b828183375f83830152505050565b5f61083b610836846107eb565b6107d1565b9050828152602081018484840111156108575761085661076f565b5b61086284828561081b565b509392505050565b5f82601f83011261087e5761087d61076b565b5b813561088e848260208601610829565b91505092915050565b5f80604083850312156108ad576108ac610709565b5b5f6108ba85828601610757565b925050602083013567ffffffffffffffff8111156108db576108da61070d565b5b6108e78582860161086a565b9150509250929050565b5f8115159050919050565b610905816108f1565b82525050565b5f819050919050565b61091d8161090b565b82525050565b5f6040820190506109365f8301856108fc565b6109436020830184610914565b9392505050565b5f60208201905061095d5f830184610914565b92915050565b7f4e487b71000000000000000000000000000000000000000000000000000000005f52602260045260245ffd5b5f60028204905060018216806109a757607f821691505b6020821081036109ba576109b9610963565b5b50919050565b5f81905092915050565b5f819050815f5260205f209050919050565b5f81546109e881610990565b6109f281866109c0565b9450600182165f8114610a0c5760018114610a2157610a53565b60ff1983168652811515820286019350610a53565b610a2a856109ca565b5f5b83811015610a4b57815481890152600182019150602081019050610a2c565b838801955050505b50505092915050565b5f610a6682610622565b610a7081856109c0565b9350610a8081856020860161063c565b80840191505092915050565b5f610a9782856109dc565b9150610aa38284610a5c565b91508190509392505050565b7f4e487b71000000000000000000000000000000000000000000000000000000005f52603260045260245ffd5b7f4e487b71000000000000000000000000000000000000000000000000000000005f52601160045260245ffd5b5f610b13826106cc565b915060ff8203610b2657610b25610adc565b5b60018201905091905056fea2646970667358221220ac76e1a451828bfce3afcabf7809ea01b8ded9ad561ea895515b78f5ac744f7364736f6c63430008180033a2646970667358221220c27673ecc34dcec26633e08ac052539897e77607342c7232c5cb8aaf3235293e64736f6c63430008180033",
			"opcodes": "PUSH1 0x80 PUSH1 0x40 MSTORE PUSH0 PUSH1 0x4 PUSH0 PUSH2 0x100 EXP DUP2 SLOAD DUP2 PUSH1 0xFF MUL NOT AND SWAP1 DUP4 ISZERO ISZERO MUL OR SWAP1 SSTORE POP CALLVALUE DUP1 ISZERO PUSH2 0x28 JUMPI PUSH0 DUP1 REVERT JUMPDEST POP PUSH2 0x4242 DUP1 PUSH2 0x36 PUSH0 CODECOPY PUSH0 RETURN INVALID PUSH1 0x80 PUSH1 0x40 MSTORE PUSH1 0x4 CALLDATASIZE LT PUSH3 0xFD JUMPI PUSH0 CALLDATALOAD PUSH1 0xE0 SHR DUP1 PUSH4 0x768BB81F GT PUSH3 0x96 JUMPI DUP1 PUSH4 0xB57161F5 GT PUSH3 0x60 JUMPI DUP1 PUSH4 0xB57161F5 EQ PUSH3 0x381 JUMPI DUP1 PUSH4 0xD18E262E EQ PUSH3 0x3C9 JUMPI DUP1 PUSH4 0xF5B92C73 EQ PUSH3 0x3F6 JUMPI DUP1 PUSH4 0xFE8ED985 EQ PUSH3 0x42C JUMPI PUSH3 0xFD JUMP JUMPDEST DUP1 PUSH4 0x768BB81F EQ PUSH3 0x2B1 JUMPI DUP1 PUSH4 0x9A5C5E64 EQ PUSH3 0x2E0 JUMPI DUP1 PUSH4 0xA69E8BB9 EQ PUSH3 0x323 JUMPI DUP1 PUSH4 0xAFE40E09 EQ PUSH3 0x352 JUMPI PUSH3 0xFD JUMP JUMPDEST DUP1 PUSH4 0x35E30AE4 GT PUSH3 0xD8 JUMPI DUP1 PUSH4 0x35E30AE4 EQ PUSH3 0x1B7 JUMPI DUP1 PUSH4 0x39769E08 EQ PUSH3 0x1FB JUMPI DUP1 PUSH4 0x5795FE07 EQ PUSH3 0x23F JUMPI DUP1 PUSH4 0x60416A9C EQ PUSH3 0x282 JUMPI PUSH3 0xFD JUMP JUMPDEST DUP1 PUSH4 0x9D70853 EQ PUSH3 0x101 JUMPI DUP1 PUSH4 0x207A296A EQ PUSH3 0x131 JUMPI DUP1 PUSH4 0x33ECB31E EQ PUSH3 0x174 JUMPI JUMPDEST PUSH0 DUP1 REVERT JUMPDEST CALLVALUE DUP1 ISZERO PUSH3 0x10D JUMPI PUSH0 DUP1 REVERT JUMPDEST POP PUSH3 0x118 PUSH3 0x45B JUMP JUMPDEST PUSH1 0x40 MLOAD PUSH3 0x128 SWAP3 SWAP2 SWAP1 PUSH3 0x1716 JUMP JUMPDEST PUSH1 0x40 MLOAD DUP1 SWAP2 SUB SWAP1 RETURN JUMPDEST CALLVALUE DUP1 ISZERO PUSH3 0x13D JUMPI PUSH0 DUP1 REVERT JUMPDEST POP PUSH3 0x15C PUSH1 0x4 DUP1 CALLDATASIZE SUB DUP2 ADD SWAP1 PUSH3 0x156 SWAP2 SWAP1 PUSH3 0x17B0 JUMP JUMPDEST PUSH3 0x554 JUMP JUMPDEST PUSH1 0x40 MLOAD PUSH3 0x16B SWAP2 SWAP1 PUSH3 0x1850 JUMP JUMPDEST PUSH1 0x40 MLOAD DUP1 SWAP2 SUB SWAP1 RETURN JUMPDEST CALLVALUE DUP1 ISZERO PUSH3 0x180 JUMPI PUSH0 DUP1 REVERT JUMPDEST POP PUSH3 0x19F PUSH1 0x4 DUP1 CALLDATASIZE SUB DUP2 ADD SWAP1 PUSH3 0x199 SWAP2 SWAP1 PUSH3 0x186B JUMP JUMPDEST PUSH3 0x84C JUMP JUMPDEST PUSH1 0x40 MLOAD PUSH3 0x1AE SWAP2 SWAP1 PUSH3 0x1953 JUMP JUMPDEST PUSH1 0x40 MLOAD DUP1 SWAP2 SUB SWAP1 RETURN JUMPDEST CALLVALUE DUP1 ISZERO PUSH3 0x1C3 JUMPI PUSH0 DUP1 REVERT JUMPDEST POP PUSH3 0x1E2 PUSH1 0x4 DUP1 CALLDATASIZE SUB DUP2 ADD SWAP1 PUSH3 0x1DC SWAP2 SWAP1 PUSH3 0x1AC6 JUMP JUMPDEST PUSH3 0x94B JUMP JUMPDEST PUSH1 0x40 MLOAD PUSH3 0x1F2 SWAP3 SWAP2 SWAP1 PUSH3 0x1B44 JUMP JUMPDEST PUSH1 0x40 MLOAD DUP1 SWAP2 SUB SWAP1 RETURN JUMPDEST CALLVALUE DUP1 ISZERO PUSH3 0x207 JUMPI PUSH0 DUP1 REVERT JUMPDEST POP PUSH3 0x226 PUSH1 0x4 DUP1 CALLDATASIZE SUB DUP2 ADD SWAP1 PUSH3 0x220 SWAP2 SWAP1 PUSH3 0x186B JUMP JUMPDEST PUSH3 0xA23 JUMP JUMPDEST PUSH1 0x40 MLOAD PUSH3 0x236 SWAP3 SWAP2 SWAP1 PUSH3 0x1716 JUMP JUMPDEST PUSH1 0x40 MLOAD DUP1 SWAP2 SUB SWAP1 RETURN JUMPDEST CALLVALUE DUP1 ISZERO PUSH3 0x24B JUMPI PUSH0 DUP1 REVERT JUMPDEST POP PUSH3 0x26A PUSH1 0x4 DUP1 CALLDATASIZE SUB DUP2 ADD SWAP1 PUSH3 0x264 SWAP2 SWAP1 PUSH3 0x186B JUMP JUMPDEST PUSH3 0xABA JUMP JUMPDEST PUSH1 0x40 MLOAD PUSH3 0x279 SWAP2 SWAP1 PUSH3 0x1850 JUMP JUMPDEST PUSH1 0x40 MLOAD DUP1 SWAP2 SUB SWAP1 RETURN JUMPDEST CALLVALUE DUP1 ISZERO PUSH3 0x28E JUMPI PUSH0 DUP1 REVERT JUMPDEST POP PUSH3 0x299 PUSH3 0xB08 JUMP JUMPDEST PUSH1 0x40 MLOAD PUSH3 0x2A8 SWAP2 SWAP1 PUSH3 0x1B6F JUMP JUMPDEST PUSH1 0x40 MLOAD DUP1 SWAP2 SUB SWAP1 RETURN JUMPDEST CALLVALUE DUP1 ISZERO PUSH3 0x2BD JUMPI PUSH0 DUP1 REVERT JUMPDEST POP PUSH3 0x2C8 PUSH3 0xB11 JUMP JUMPDEST PUSH1 0x40 MLOAD PUSH3 0x2D7 SWAP2 SWAP1 PUSH3 0x1B6F JUMP JUMPDEST PUSH1 0x40 MLOAD DUP1 SWAP2 SUB SWAP1 RETURN JUMPDEST CALLVALUE DUP1 ISZERO PUSH3 0x2EC JUMPI PUSH0 DUP1 REVERT JUMPDEST POP PUSH3 0x30B PUSH1 0x4 DUP1 CALLDATASIZE SUB DUP2 ADD SWAP1 PUSH3 0x305 SWAP2 SWAP1 PUSH3 0x1B8A JUMP JUMPDEST PUSH3 0xB17 JUMP JUMPDEST PUSH1 0x40 MLOAD PUSH3 0x31A SWAP2 SWAP1 PUSH3 0x1850 JUMP JUMPDEST PUSH1 0x40 MLOAD DUP1 SWAP2 SUB SWAP1 RETURN JUMPDEST CALLVALUE DUP1 ISZERO PUSH3 0x32F JUMPI PUSH0 DUP1 REVERT JUMPDEST POP PUSH3 0x33A PUSH3 0xD9D JUMP JUMPDEST PUSH1 0x40 MLOAD PUSH3 0x349 SWAP2 SWAP1 PUSH3 0x1B6F JUMP JUMPDEST PUSH1 0x40 MLOAD DUP1 SWAP2 SUB SWAP1 RETURN JUMPDEST CALLVALUE DUP1 ISZERO PUSH3 0x35E JUMPI PUSH0 DUP1 REVERT JUMPDEST POP PUSH3 0x369 PUSH3 0xDA6 JUMP JUMPDEST PUSH1 0x40 MLOAD PUSH3 0x378 SWAP2 SWAP1 PUSH3 0x1C60 JUMP JUMPDEST PUSH1 0x40 MLOAD DUP1 SWAP2 SUB SWAP1 RETURN JUMPDEST CALLVALUE DUP1 ISZERO PUSH3 0x38D JUMPI PUSH0 DUP1 REVERT JUMPDEST POP PUSH3 0x3AC PUSH1 0x4 DUP1 CALLDATASIZE SUB DUP2 ADD SWAP1 PUSH3 0x3A6 SWAP2 SWAP1 PUSH3 0x186B JUMP JUMPDEST PUSH3 0xDCE JUMP JUMPDEST PUSH1 0x40 MLOAD PUSH3 0x3C0 SWAP7 SWAP6 SWAP5 SWAP4 SWAP3 SWAP2 SWAP1 PUSH3 0x1C7B JUMP JUMPDEST PUSH1 0x40 MLOAD DUP1 SWAP2 SUB SWAP1 RETURN JUMPDEST CALLVALUE DUP1 ISZERO PUSH3 0x3D5 JUMPI PUSH0 DUP1 REVERT JUMPDEST POP PUSH3 0x3F4 PUSH1 0x4 DUP1 CALLDATASIZE SUB DUP2 ADD SWAP1 PUSH3 0x3EE SWAP2 SWAP1 PUSH3 0x1CE6 JUMP JUMPDEST PUSH3 0xE3D JUMP JUMPDEST STOP JUMPDEST PUSH3 0x414 PUSH1 0x4 DUP1 CALLDATASIZE SUB DUP2 ADD SWAP1 PUSH3 0x40E SWAP2 SWAP1 PUSH3 0x1DA8 JUMP JUMPDEST PUSH3 0xF7D JUMP JUMPDEST PUSH1 0x40 MLOAD PUSH3 0x423 SWAP2 SWAP1 PUSH3 0x1B6F JUMP JUMPDEST PUSH1 0x40 MLOAD DUP1 SWAP2 SUB SWAP1 RETURN JUMPDEST CALLVALUE DUP1 ISZERO PUSH3 0x438 JUMPI PUSH0 DUP1 REVERT JUMPDEST POP PUSH3 0x443 PUSH3 0x148C JUMP JUMPDEST PUSH1 0x40 MLOAD PUSH3 0x452 SWAP2 SWAP1 PUSH3 0x1E01 JUMP JUMPDEST PUSH1 0x40 MLOAD DUP1 SWAP2 SUB SWAP1 RETURN JUMPDEST PUSH0 DUP1 PUSH3 0x4C5 PUSH0 DUP1 PUSH1 0x4 PUSH1 0x1 SWAP1 SLOAD SWAP1 PUSH2 0x100 EXP SWAP1 DIV PUSH20 0xFFFFFFFFFFFFFFFFFFFFFFFFFFFFFFFFFFFFFFFF AND PUSH20 0xFFFFFFFFFFFFFFFFFFFFFFFFFFFFFFFFFFFFFFFF AND PUSH20 0xFFFFFFFFFFFFFFFFFFFFFFFFFFFFFFFFFFFFFFFF AND DUP2 MSTORE PUSH1 0x20 ADD SWAP1 DUP2 MSTORE PUSH1 0x20 ADD PUSH0 KECCAK256 PUSH3 0x14B5 JUMP JUMPDEST PUSH1 0x5 SLOAD PUSH1 0x3 PUSH0 DUP3 DUP3 SLOAD PUSH3 0x4DA SWAP2 SWAP1 PUSH3 0x1E49 JUMP JUMPDEST SWAP3 POP POP DUP2 SWAP1 SSTORE POP PUSH3 0x549 PUSH0 DUP1 PUSH1 0x4 PUSH1 0x1 SWAP1 SLOAD SWAP1 PUSH2 0x100 EXP SWAP1 DIV PUSH20 0xFFFFFFFFFFFFFFFFFFFFFFFFFFFFFFFFFFFFFFFF AND PUSH20 0xFFFFFFFFFFFFFFFFFFFFFFFFFFFFFFFFFFFFFFFF AND PUSH20 0xFFFFFFFFFFFFFFFFFFFFFFFFFFFFFFFFFFFFFFFF AND DUP2 MSTORE PUSH1 0x20 ADD SWAP1 DUP2 MSTORE PUSH1 0x20 ADD PUSH0 KECCAK256 PUSH3 0x14D5 JUMP JUMPDEST PUSH1 0x5 SLOAD SWAP2 POP SWAP2 POP SWAP1 SWAP2 JUMP JUMPDEST PUSH0 DUP1 PUSH3 0x59C PUSH0 DUP1 DUP10 PUSH20 0xFFFFFFFFFFFFFFFFFFFFFFFFFFFFFFFFFFFFFFFF AND PUSH20 0xFFFFFFFFFFFFFFFFFFFFFFFFFFFFFFFFFFFFFFFF AND DUP2 MSTORE PUSH1 0x20 ADD SWAP1 DUP2 MSTORE PUSH1 0x20 ADD PUSH0 KECCAK256 PUSH3 0x1500 JUMP JUMPDEST SUB PUSH3 0x5DF JUMPI PUSH1 0x40 MLOAD PUSH32 0x8C379A000000000000000000000000000000000000000000000000000000000 DUP2 MSTORE PUSH1 0x4 ADD PUSH3 0x5D6 SWAP1 PUSH3 0x1EE1 JUMP JUMPDEST PUSH1 0x40 MLOAD DUP1 SWAP2 SUB SWAP1 REVERT JUMPDEST PUSH0 DUP5 GT PUSH3 0x624 JUMPI PUSH1 0x40 MLOAD PUSH32 0x8C379A000000000000000000000000000000000000000000000000000000000 DUP2 MSTORE PUSH1 0x4 ADD PUSH3 0x61B SWAP1 PUSH3 0x1F75 JUMP JUMPDEST PUSH1 0x40 MLOAD DUP1 SWAP2 SUB SWAP1 REVERT JUMPDEST PUSH0 DUP4 GT PUSH3 0x669 JUMPI PUSH1 0x40 MLOAD PUSH32 0x8C379A000000000000000000000000000000000000000000000000000000000 DUP2 MSTORE PUSH1 0x4 ADD PUSH3 0x660 SWAP1 PUSH3 0x2009 JUMP JUMPDEST PUSH1 0x40 MLOAD DUP1 SWAP2 SUB SWAP1 REVERT JUMPDEST PUSH0 DUP1 PUSH0 DUP9 PUSH20 0xFFFFFFFFFFFFFFFFFFFFFFFFFFFFFFFFFFFFFFFF AND PUSH20 0xFFFFFFFFFFFFFFFFFFFFFFFFFFFFFFFFFFFFFFFF AND DUP2 MSTORE PUSH1 0x20 ADD SWAP1 DUP2 MSTORE PUSH1 0x20 ADD PUSH0 KECCAK256 SWAP1 POP DUP6 PUSH20 0xFFFFFFFFFFFFFFFFFFFFFFFFFFFFFFFFFFFFFFFF AND PUSH3 0x6CA DUP3 PUSH3 0x14D5 JUMP JUMPDEST PUSH20 0xFFFFFFFFFFFFFFFFFFFFFFFFFFFFFFFFFFFFFFFF AND EQ DUP1 ISZERO PUSH3 0x6F7 JUMPI POP DUP5 PUSH3 0x6F5 DUP3 PUSH3 0x1500 JUMP JUMPDEST EQ JUMPDEST DUP1 ISZERO PUSH3 0x70D JUMPI POP DUP4 PUSH3 0x70B DUP3 PUSH3 0x150D JUMP JUMPDEST EQ JUMPDEST PUSH3 0x74F JUMPI PUSH1 0x40 MLOAD PUSH32 0x8C379A000000000000000000000000000000000000000000000000000000000 DUP2 MSTORE PUSH1 0x4 ADD PUSH3 0x746 SWAP1 PUSH3 0x2077 JUMP JUMPDEST PUSH1 0x40 MLOAD DUP1 SWAP2 SUB SWAP1 REVERT JUMPDEST PUSH3 0x79F TIMESTAMP PUSH0 DUP1 DUP11 PUSH20 0xFFFFFFFFFFFFFFFFFFFFFFFFFFFFFFFFFFFFFFFF AND PUSH20 0xFFFFFFFFFFFFFFFFFFFFFFFFFFFFFFFFFFFFFFFF AND DUP2 MSTORE PUSH1 0x20 ADD SWAP1 DUP2 MSTORE PUSH1 0x20 ADD PUSH0 KECCAK256 PUSH3 0x151A SWAP1 SWAP2 SWAP1 PUSH4 0xFFFFFFFF AND JUMP JUMPDEST PUSH3 0x7E5 PUSH0 DUP1 DUP10 PUSH20 0xFFFFFFFFFFFFFFFFFFFFFFFFFFFFFFFFFFFFFFFF AND PUSH20 0xFFFFFFFFFFFFFFFFFFFFFFFFFFFFFFFFFFFFFFFF AND DUP2 MSTORE PUSH1 0x20 ADD SWAP1 DUP2 MSTORE PUSH1 0x20 ADD PUSH0 KECCAK256 PUSH3 0x1527 JUMP JUMPDEST DUP5 PUSH1 0x1 SLOAD PUSH3 0x7F5 SWAP2 SWAP1 PUSH3 0x2097 JUMP JUMPDEST PUSH1 0x1 DUP2 SWAP1 SSTORE POP DUP3 PUSH1 0x3 SLOAD PUSH3 0x80B SWAP2 SWAP1 PUSH3 0x2097 JUMP JUMPDEST PUSH1 0x3 DUP2 SWAP1 SSTORE POP DUP5 PUSH32 0x5A15159AE6CC037791B91AF8BDAAC630ACDA5E3641915B25FBCB6394AE990B92 PUSH1 0x40 MLOAD PUSH1 0x40 MLOAD DUP1 SWAP2 SUB SWAP1 LOG2 PUSH1 0x1 SWAP2 POP POP SWAP6 SWAP5 POP POP POP POP POP JUMP JUMPDEST PUSH3 0x856 PUSH3 0x1661 JUMP JUMPDEST PUSH0 DUP1 DUP4 PUSH20 0xFFFFFFFFFFFFFFFFFFFFFFFFFFFFFFFFFFFFFFFF AND PUSH20 0xFFFFFFFFFFFFFFFFFFFFFFFFFFFFFFFFFFFFFFFF AND DUP2 MSTORE PUSH1 0x20 ADD SWAP1 DUP2 MSTORE PUSH1 0x20 ADD PUSH0 KECCAK256 PUSH1 0x40 MLOAD DUP1 PUSH1 0xC0 ADD PUSH1 0x40 MSTORE SWAP1 DUP2 PUSH0 DUP3 ADD PUSH0 SWAP1 SLOAD SWAP1 PUSH2 0x100 EXP SWAP1 DIV PUSH20 0xFFFFFFFFFFFFFFFFFFFFFFFFFFFFFFFFFFFFFFFF AND PUSH20 0xFFFFFFFFFFFFFFFFFFFFFFFFFFFFFFFFFFFFFFFF AND PUSH20 0xFFFFFFFFFFFFFFFFFFFFFFFFFFFFFFFFFFFFFFFF AND DUP2 MSTORE PUSH1 0x20 ADD PUSH1 0x1 DUP3 ADD SLOAD DUP2 MSTORE PUSH1 0x20 ADD PUSH1 0x2 DUP3 ADD SLOAD DUP2 MSTORE PUSH1 0x20 ADD PUSH1 0x3 DUP3 ADD SLOAD DUP2 MSTORE PUSH1 0x20 ADD PUSH1 0x4 DUP3 ADD PUSH0 SWAP1 SLOAD SWAP1 PUSH2 0x100 EXP SWAP1 DIV PUSH1 0xFF AND ISZERO ISZERO ISZERO ISZERO DUP2 MSTORE PUSH1 0x20 ADD PUSH1 0x4 DUP3 ADD PUSH1 0x1 SWAP1 SLOAD SWAP1 PUSH2 0x100 EXP SWAP1 DIV PUSH1 0xFF AND ISZERO ISZERO ISZERO ISZERO DUP2 MSTORE POP POP SWAP1 POP SWAP2 SWAP1 POP JUMP JUMPDEST PUSH0 DUP1 PUSH0 DUP1 PUSH1 0x6 PUSH0 SWAP1 SLOAD SWAP1 PUSH2 0x100 EXP SWAP1 DIV PUSH20 0xFFFFFFFFFFFFFFFFFFFFFFFFFFFFFFFFFFFFFFFF AND PUSH20 0xFFFFFFFFFFFFFFFFFFFFFFFFFFFFFFFFFFFFFFFF AND PUSH4 0x4FC8A991 DUP8 DUP8 PUSH1 0x40 MLOAD DUP4 PUSH4 0xFFFFFFFF AND PUSH1 0xE0 SHL DUP2 MSTORE PUSH1 0x4 ADD PUSH3 0x9AD SWAP3 SWAP2 SWAP1 PUSH3 0x2145 JUMP JUMPDEST PUSH1 0x40 DUP1 MLOAD DUP1 DUP4 SUB DUP2 PUSH0 DUP8 GAS CALL ISZERO DUP1 ISZERO PUSH3 0x9C9 JUMPI RETURNDATASIZE PUSH0 DUP1 RETURNDATACOPY RETURNDATASIZE PUSH0 REVERT JUMPDEST POP POP POP POP PUSH1 0x40 MLOAD RETURNDATASIZE PUSH1 0x1F NOT PUSH1 0x1F DUP3 ADD AND DUP3 ADD DUP1 PUSH1 0x40 MSTORE POP DUP2 ADD SWAP1 PUSH3 0x9EF SWAP2 SWAP1 PUSH3 0x21D5 JUMP JUMPDEST SWAP2 POP SWAP2 POP DUP2 ISZERO PUSH3 0xA14 JUMPI PUSH0 PUSH1 0x4 PUSH0 PUSH2 0x100 EXP DUP2 SLOAD DUP2 PUSH1 0xFF MUL NOT AND SWAP1 DUP4 ISZERO ISZERO MUL OR SWAP1 SSTORE POP JUMPDEST DUP2 DUP2 SWAP4 POP SWAP4 POP POP POP SWAP3 POP SWAP3 SWAP1 POP JUMP JUMPDEST PUSH0 DUP1 PUSH3 0xA6B PUSH0 DUP1 DUP6 PUSH20 0xFFFFFFFFFFFFFFFFFFFFFFFFFFFFFFFFFFFFFFFF AND PUSH20 0xFFFFFFFFFFFFFFFFFFFFFFFFFFFFFFFFFFFFFFFF AND DUP2 MSTORE PUSH1 0x20 ADD SWAP1 DUP2 MSTORE PUSH1 0x20 ADD PUSH0 KECCAK256 PUSH3 0x14D5 JUMP JUMPDEST PUSH3 0xAB1 PUSH0 DUP1 DUP7 PUSH20 0xFFFFFFFFFFFFFFFFFFFFFFFFFFFFFFFFFFFFFFFF AND PUSH20 0xFFFFFFFFFFFFFFFFFFFFFFFFFFFFFFFFFFFFFFFF AND DUP2 MSTORE PUSH1 0x20 ADD SWAP1 DUP2 MSTORE PUSH1 0x20 ADD PUSH0 KECCAK256 PUSH3 0x1500 JUMP JUMPDEST SWAP2 POP SWAP2 POP SWAP2 POP SWAP2 JUMP JUMPDEST PUSH0 PUSH3 0xB01 PUSH0 DUP1 DUP5 PUSH20 0xFFFFFFFFFFFFFFFFFFFFFFFFFFFFFFFFFFFFFFFF AND PUSH20 0xFFFFFFFFFFFFFFFFFFFFFFFFFFFFFFFFFFFFFFFF AND DUP2 MSTORE PUSH1 0x20 ADD SWAP1 DUP2 MSTORE PUSH1 0x20 ADD PUSH0 KECCAK256 PUSH3 0x1546 JUMP JUMPDEST SWAP1 POP SWAP2 SWAP1 POP JUMP JUMPDEST PUSH0 PUSH1 0x1 SLOAD SWAP1 POP SWAP1 JUMP JUMPDEST PUSH1 0x3 SLOAD DUP2 JUMP JUMPDEST PUSH0 DUP1 PUSH3 0xB5F PUSH0 DUP1 DUP9 PUSH20 0xFFFFFFFFFFFFFFFFFFFFFFFFFFFFFFFFFFFFFFFF AND PUSH20 0xFFFFFFFFFFFFFFFFFFFFFFFFFFFFFFFFFFFFFFFF AND DUP2 MSTORE PUSH1 0x20 ADD SWAP1 DUP2 MSTORE PUSH1 0x20 ADD PUSH0 KECCAK256 PUSH3 0x1500 JUMP JUMPDEST EQ PUSH3 0xBA2 JUMPI PUSH1 0x40 MLOAD PUSH32 0x8C379A000000000000000000000000000000000000000000000000000000000 DUP2 MSTORE PUSH1 0x4 ADD PUSH3 0xB99 SWAP1 PUSH3 0x2268 JUMP JUMPDEST PUSH1 0x40 MLOAD DUP1 SWAP2 SUB SWAP1 REVERT JUMPDEST PUSH0 DUP4 GT PUSH3 0xBE7 JUMPI PUSH1 0x40 MLOAD PUSH32 0x8C379A000000000000000000000000000000000000000000000000000000000 DUP2 MSTORE PUSH1 0x4 ADD PUSH3 0xBDE SWAP1 PUSH3 0x1F75 JUMP JUMPDEST PUSH1 0x40 MLOAD DUP1 SWAP2 SUB SWAP1 REVERT JUMPDEST PUSH0 DUP3 GT PUSH3 0xC2C JUMPI PUSH1 0x40 MLOAD PUSH32 0x8C379A000000000000000000000000000000000000000000000000000000000 DUP2 MSTORE PUSH1 0x4 ADD PUSH3 0xC23 SWAP1 PUSH3 0x2009 JUMP JUMPDEST PUSH1 0x40 MLOAD DUP1 SWAP2 SUB SWAP1 REVERT JUMPDEST PUSH20 0x0 PUSH4 0x15533AA3 DUP6 DUP6 DUP6 TIMESTAMP PUSH0 DUP1 PUSH1 0x40 MLOAD DUP8 PUSH4 0xFFFFFFFF AND PUSH1 0xE0 SHL DUP2 MSTORE PUSH1 0x4 ADD PUSH3 0xC6F SWAP7 SWAP6 SWAP5 SWAP4 SWAP3 SWAP2 SWAP1 PUSH3 0x22BB JUMP JUMPDEST PUSH1 0xC0 PUSH1 0x40 MLOAD DUP1 DUP4 SUB DUP2 DUP7 GAS DELEGATECALL ISZERO DUP1 ISZERO PUSH3 0xC8B JUMPI RETURNDATASIZE PUSH0 DUP1 RETURNDATACOPY RETURNDATASIZE PUSH0 REVERT JUMPDEST POP POP POP POP PUSH1 0x40 MLOAD RETURNDATASIZE PUSH1 0x1F NOT PUSH1 0x1F DUP3 ADD AND DUP3 ADD DUP1 PUSH1 0x40 MSTORE POP DUP2 ADD SWAP1 PUSH3 0xCB1 SWAP2 SWAP1 PUSH3 0x2404 JUMP JUMPDEST PUSH0 DUP1 DUP8 PUSH20 0xFFFFFFFFFFFFFFFFFFFFFFFFFFFFFFFFFFFFFFFF AND PUSH20 0xFFFFFFFFFFFFFFFFFFFFFFFFFFFFFFFFFFFFFFFF AND DUP2 MSTORE PUSH1 0x20 ADD SWAP1 DUP2 MSTORE PUSH1 0x20 ADD PUSH0 KECCAK256 PUSH0 DUP3 ADD MLOAD DUP2 PUSH0 ADD PUSH0 PUSH2 0x100 EXP DUP2 SLOAD DUP2 PUSH20 0xFFFFFFFFFFFFFFFFFFFFFFFFFFFFFFFFFFFFFFFF MUL NOT AND SWAP1 DUP4 PUSH20 0xFFFFFFFFFFFFFFFFFFFFFFFFFFFFFFFFFFFFFFFF AND MUL OR SWAP1 SSTORE POP PUSH1 0x20 DUP3 ADD MLOAD DUP2 PUSH1 0x1 ADD SSTORE PUSH1 0x40 DUP3 ADD MLOAD DUP2 PUSH1 0x2 ADD SSTORE PUSH1 0x60 DUP3 ADD MLOAD DUP2 PUSH1 0x3 ADD SSTORE PUSH1 0x80 DUP3 ADD MLOAD DUP2 PUSH1 0x4 ADD PUSH0 PUSH2 0x100 EXP DUP2 SLOAD DUP2 PUSH1 0xFF MUL NOT AND SWAP1 DUP4 ISZERO ISZERO MUL OR SWAP1 SSTORE POP PUSH1 0xA0 DUP3 ADD MLOAD DUP2 PUSH1 0x4 ADD PUSH1 0x1 PUSH2 0x100 EXP DUP2 SLOAD DUP2 PUSH1 0xFF MUL NOT AND SWAP1 DUP4 ISZERO ISZERO MUL OR SWAP1 SSTORE POP SWAP1 POP POP PUSH1 0x1 SWAP1 POP SWAP5 SWAP4 POP POP POP POP JUMP JUMPDEST PUSH0 PUSH1 0x3 SLOAD SWAP1 POP SWAP1 JUMP JUMPDEST PUSH0 PUSH1 0x6 PUSH0 SWAP1 SLOAD SWAP1 PUSH2 0x100 EXP SWAP1 DIV PUSH20 0xFFFFFFFFFFFFFFFFFFFFFFFFFFFFFFFFFFFFFFFF AND SWAP1 POP SWAP1 JUMP JUMPDEST PUSH0 PUSH1 0x20 MSTORE DUP1 PUSH0 MSTORE PUSH1 0x40 PUSH0 KECCAK256 PUSH0 SWAP2 POP SWAP1 POP DUP1 PUSH0 ADD PUSH0 SWAP1 SLOAD SWAP1 PUSH2 0x100 EXP SWAP1 DIV PUSH20 0xFFFFFFFFFFFFFFFFFFFFFFFFFFFFFFFFFFFFFFFF AND SWAP1 DUP1 PUSH1 0x1 ADD SLOAD SWAP1 DUP1 PUSH1 0x2 ADD SLOAD SWAP1 DUP1 PUSH1 0x3 ADD SLOAD SWAP1 DUP1 PUSH1 0x4 ADD PUSH0 SWAP1 SLOAD SWAP1 PUSH2 0x100 EXP SWAP1 DIV PUSH1 0xFF AND SWAP1 DUP1 PUSH1 0x4 ADD PUSH1 0x1 SWAP1 SLOAD SWAP1 PUSH2 0x100 EXP SWAP1 DIV PUSH1 0xFF AND SWAP1 POP DUP7 JUMP JUMPDEST PUSH0 ISZERO ISZERO PUSH1 0x4 PUSH0 SWAP1 SLOAD SWAP1 PUSH2 0x100 EXP SWAP1 DIV PUSH1 0xFF AND ISZERO ISZERO EQ PUSH3 0xE94 JUMPI PUSH1 0x40 MLOAD PUSH32 0x8C379A000000000000000000000000000000000000000000000000000000000 DUP2 MSTORE PUSH1 0x4 ADD PUSH3 0xE8B SWAP1 PUSH3 0x24CE JUMP JUMPDEST PUSH1 0x40 MLOAD DUP1 SWAP2 SUB SWAP1 REVERT JUMPDEST PUSH1 0x1 PUSH1 0x4 PUSH0 PUSH2 0x100 EXP DUP2 SLOAD DUP2 PUSH1 0xFF MUL NOT AND SWAP1 DUP4 ISZERO ISZERO MUL OR SWAP1 SSTORE POP DUP5 PUSH1 0x4 PUSH1 0x1 PUSH2 0x100 EXP DUP2 SLOAD DUP2 PUSH20 0xFFFFFFFFFFFFFFFFFFFFFFFFFFFFFFFFFFFFFFFF MUL NOT AND SWAP1 DUP4 PUSH20 0xFFFFFFFFFFFFFFFFFFFFFFFFFFFFFFFFFFFFFFFF AND MUL OR SWAP1 SSTORE POP DUP4 PUSH1 0x5 DUP2 SWAP1 SSTORE POP PUSH1 0x5 PUSH1 0x3 SLOAD DUP5 DUP5 DUP5 PUSH1 0x40 MLOAD PUSH3 0xF0C SWAP1 PUSH3 0x16AB JUMP JUMPDEST PUSH3 0xF1C SWAP6 SWAP5 SWAP4 SWAP3 SWAP2 SWAP1 PUSH3 0x253B JUMP JUMPDEST PUSH1 0x40 MLOAD DUP1 SWAP2 SUB SWAP1 PUSH0 CREATE DUP1 ISZERO DUP1 ISZERO PUSH3 0xF36 JUMPI RETURNDATASIZE PUSH0 DUP1 RETURNDATACOPY RETURNDATASIZE PUSH0 REVERT JUMPDEST POP PUSH1 0x6 PUSH0 PUSH2 0x100 EXP DUP2 SLOAD DUP2 PUSH20 0xFFFFFFFFFFFFFFFFFFFFFFFFFFFFFFFFFFFFFFFF MUL NOT AND SWAP1 DUP4 PUSH20 0xFFFFFFFFFFFFFFFFFFFFFFFFFFFFFFFFFFFFFFFF AND MUL OR SWAP1 SSTORE POP POP POP POP POP POP JUMP JUMPDEST PUSH0 DUP3 PUSH20 0xFFFFFFFFFFFFFFFFFFFFFFFFFFFFFFFFFFFFFFFF AND PUSH3 0xFDB PUSH0 DUP1 DUP8 PUSH20 0xFFFFFFFFFFFFFFFFFFFFFFFFFFFFFFFFFFFFFFFF AND PUSH20 0xFFFFFFFFFFFFFFFFFFFFFFFFFFFFFFFFFFFFFFFF AND DUP2 MSTORE PUSH1 0x20 ADD SWAP1 DUP2 MSTORE PUSH1 0x20 ADD PUSH0 KECCAK256 PUSH3 0x14D5 JUMP JUMPDEST PUSH20 0xFFFFFFFFFFFFFFFFFFFFFFFFFFFFFFFFFFFFFFFF AND EQ PUSH3 0x1034 JUMPI PUSH1 0x40 MLOAD PUSH32 0x8C379A000000000000000000000000000000000000000000000000000000000 DUP2 MSTORE PUSH1 0x4 ADD PUSH3 0x102B SWAP1 PUSH3 0x2618 JUMP JUMPDEST PUSH1 0x40 MLOAD DUP1 SWAP2 SUB SWAP1 REVERT JUMPDEST PUSH0 PUSH3 0x1040 DUP4 PUSH3 0x1560 JUMP JUMPDEST SWAP1 POP DUP1 DUP4 PUSH3 0x1050 SWAP2 SWAP1 PUSH3 0x1E49 JUMP JUMPDEST SWAP3 POP DUP1 PUSH1 0x3 PUSH0 DUP3 DUP3 SLOAD PUSH3 0x1065 SWAP2 SWAP1 PUSH3 0x2097 JUMP JUMPDEST SWAP3 POP POP DUP2 SWAP1 SSTORE POP PUSH0 PUSH3 0x10B3 PUSH0 DUP1 DUP9 PUSH20 0xFFFFFFFFFFFFFFFFFFFFFFFFFFFFFFFFFFFFFFFF AND PUSH20 0xFFFFFFFFFFFFFFFFFFFFFFFFFFFFFFFFFFFFFFFF AND DUP2 MSTORE PUSH1 0x20 ADD SWAP1 DUP2 MSTORE PUSH1 0x20 ADD PUSH0 KECCAK256 PUSH3 0x1500 JUMP JUMPDEST SWAP1 POP PUSH0 PUSH3 0x114E DUP3 PUSH3 0x1101 PUSH0 DUP1 DUP12 PUSH20 0xFFFFFFFFFFFFFFFFFFFFFFFFFFFFFFFFFFFFFFFF AND PUSH20 0xFFFFFFFFFFFFFFFFFFFFFFFFFFFFFFFFFFFFFFFF AND DUP2 MSTORE PUSH1 0x20 ADD SWAP1 DUP2 MSTORE PUSH1 0x20 ADD PUSH0 KECCAK256 PUSH3 0x15A8 JUMP JUMPDEST TIMESTAMP PUSH3 0x1148 PUSH0 DUP1 DUP14 PUSH20 0xFFFFFFFFFFFFFFFFFFFFFFFFFFFFFFFFFFFFFFFF AND PUSH20 0xFFFFFFFFFFFFFFFFFFFFFFFFFFFFFFFFFFFFFFFF AND DUP2 MSTORE PUSH1 0x20 ADD SWAP1 DUP2 MSTORE PUSH1 0x20 ADD PUSH0 KECCAK256 PUSH3 0x150D JUMP JUMPDEST PUSH3 0x15B5 JUMP JUMPDEST SWAP1 POP DUP1 PUSH1 0x1 PUSH0 DUP3 DUP3 SLOAD PUSH3 0x1163 SWAP2 SWAP1 PUSH3 0x2097 JUMP JUMPDEST SWAP3 POP POP DUP2 SWAP1 SSTORE POP PUSH3 0x11C7 DUP2 DUP4 PUSH3 0x117C SWAP2 SWAP1 PUSH3 0x2097 JUMP JUMPDEST PUSH0 DUP1 DUP11 PUSH20 0xFFFFFFFFFFFFFFFFFFFFFFFFFFFFFFFFFFFFFFFF AND PUSH20 0xFFFFFFFFFFFFFFFFFFFFFFFFFFFFFFFFFFFFFFFF AND DUP2 MSTORE PUSH1 0x20 ADD SWAP1 DUP2 MSTORE PUSH1 0x20 ADD PUSH0 KECCAK256 PUSH3 0x1654 SWAP1 SWAP2 SWAP1 PUSH4 0xFFFFFFFF AND JUMP JUMPDEST PUSH0 PUSH3 0x120E PUSH0 DUP1 DUP11 PUSH20 0xFFFFFFFFFFFFFFFFFFFFFFFFFFFFFFFFFFFFFFFF AND PUSH20 0xFFFFFFFFFFFFFFFFFFFFFFFFFFFFFFFFFFFFFFFF AND DUP2 MSTORE PUSH1 0x20 ADD SWAP1 DUP2 MSTORE PUSH1 0x20 ADD PUSH0 KECCAK256 PUSH3 0x1500 JUMP JUMPDEST SWAP1 POP PUSH3 0x1260 TIMESTAMP PUSH0 DUP1 DUP12 PUSH20 0xFFFFFFFFFFFFFFFFFFFFFFFFFFFFFFFFFFFFFFFF AND PUSH20 0xFFFFFFFFFFFFFFFFFFFFFFFFFFFFFFFFFFFFFFFF AND DUP2 MSTORE PUSH1 0x20 ADD SWAP1 DUP2 MSTORE PUSH1 0x20 ADD PUSH0 KECCAK256 PUSH3 0x151A SWAP1 SWAP2 SWAP1 PUSH4 0xFFFFFFFF AND JUMP JUMPDEST PUSH0 DUP7 DUP3 GT SWAP1 POP PUSH0 DUP2 ISZERO PUSH3 0x135B JUMPI PUSH3 0x12CB DUP9 DUP5 PUSH3 0x1280 SWAP2 SWAP1 PUSH3 0x1E49 JUMP JUMPDEST PUSH0 DUP1 DUP14 PUSH20 0xFFFFFFFFFFFFFFFFFFFFFFFFFFFFFFFFFFFFFFFF AND PUSH20 0xFFFFFFFFFFFFFFFFFFFFFFFFFFFFFFFFFFFFFFFF AND DUP2 MSTORE PUSH1 0x20 ADD SWAP1 DUP2 MSTORE PUSH1 0x20 ADD PUSH0 KECCAK256 PUSH3 0x1654 SWAP1 SWAP2 SWAP1 PUSH4 0xFFFFFFFF AND JUMP JUMPDEST PUSH0 DUP9 PUSH1 0x1 SLOAD PUSH3 0x12DC SWAP2 SWAP1 PUSH3 0x1E49 JUMP JUMPDEST LT ISZERO PUSH3 0x1320 JUMPI PUSH1 0x40 MLOAD PUSH32 0x8C379A000000000000000000000000000000000000000000000000000000000 DUP2 MSTORE PUSH1 0x4 ADD PUSH3 0x1317 SWAP1 PUSH3 0x26AC JUMP JUMPDEST PUSH1 0x40 MLOAD DUP1 SWAP2 SUB SWAP1 REVERT JUMPDEST DUP8 PUSH1 0x1 SLOAD PUSH3 0x1330 SWAP2 SWAP1 PUSH3 0x1E49 JUMP JUMPDEST PUSH1 0x1 DUP2 SWAP1 SSTORE POP DUP8 PUSH1 0x2 SLOAD PUSH3 0x1346 SWAP2 SWAP1 PUSH3 0x2097 JUMP JUMPDEST PUSH1 0x2 DUP2 SWAP1 SSTORE POP DUP8 SWAP7 POP POP POP POP POP POP POP PUSH3 0x1485 JUMP JUMPDEST DUP3 DUP9 PUSH3 0x1369 SWAP2 SWAP1 PUSH3 0x1E49 JUMP JUMPDEST SWAP1 POP PUSH3 0x13BB PUSH0 DUP1 PUSH0 DUP14 PUSH20 0xFFFFFFFFFFFFFFFFFFFFFFFFFFFFFFFFFFFFFFFF AND PUSH20 0xFFFFFFFFFFFFFFFFFFFFFFFFFFFFFFFFFFFFFFFF AND DUP2 MSTORE PUSH1 0x20 ADD SWAP1 DUP2 MSTORE PUSH1 0x20 ADD PUSH0 KECCAK256 PUSH3 0x1654 SWAP1 SWAP2 SWAP1 PUSH4 0xFFFFFFFF AND JUMP JUMPDEST PUSH0 DUP2 DUP10 PUSH3 0x13CA SWAP2 SWAP1 PUSH3 0x1E49 JUMP JUMPDEST SWAP1 POP PUSH0 DUP2 PUSH1 0x1 SLOAD PUSH3 0x13DD SWAP2 SWAP1 PUSH3 0x1E49 JUMP JUMPDEST LT ISZERO PUSH3 0x1421 JUMPI PUSH1 0x40 MLOAD PUSH32 0x8C379A000000000000000000000000000000000000000000000000000000000 DUP2 MSTORE PUSH1 0x4 ADD PUSH3 0x1418 SWAP1 PUSH3 0x26AC JUMP JUMPDEST PUSH1 0x40 MLOAD DUP1 SWAP2 SUB SWAP1 REVERT JUMPDEST DUP1 PUSH1 0x1 SLOAD PUSH3 0x1431 SWAP2 SWAP1 PUSH3 0x1E49 JUMP JUMPDEST PUSH1 0x1 DUP2 SWAP1 SSTORE POP DUP1 PUSH1 0x2 SLOAD PUSH3 0x1447 SWAP2 SWAP1 PUSH3 0x2097 JUMP JUMPDEST PUSH1 0x2 DUP2 SWAP1 SSTORE POP DUP1 PUSH32 0x9475536CEFB174883C3CDB7FC9B15F91D30B23B31537FA0BBA2CC40BAE9CC670 PUSH1 0x40 MLOAD PUSH1 0x40 MLOAD DUP1 SWAP2 SUB SWAP1 LOG2 DUP2 SWAP8 POP POP POP POP POP POP POP POP JUMPDEST SWAP4 SWAP3 POP POP POP JUMP JUMPDEST PUSH0 PUSH1 0x4 PUSH1 0x1 SWAP1 SLOAD SWAP1 PUSH2 0x100 EXP SWAP1 DIV PUSH20 0xFFFFFFFFFFFFFFFFFFFFFFFFFFFFFFFFFFFFFFFF AND SWAP1 POP SWAP1 JUMP JUMPDEST PUSH1 0x1 DUP2 PUSH1 0x4 ADD PUSH1 0x1 PUSH2 0x100 EXP DUP2 SLOAD DUP2 PUSH1 0xFF MUL NOT AND SWAP1 DUP4 ISZERO ISZERO MUL OR SWAP1 SSTORE POP POP JUMP JUMPDEST PUSH0 DUP2 PUSH0 ADD PUSH0 SWAP1 SLOAD SWAP1 PUSH2 0x100 EXP SWAP1 DIV PUSH20 0xFFFFFFFFFFFFFFFFFFFFFFFFFFFFFFFFFFFFFFFF AND SWAP1 POP SWAP2 SWAP1 POP JUMP JUMPDEST PUSH0 DUP2 PUSH1 0x1 ADD SLOAD SWAP1 POP SWAP2 SWAP1 POP JUMP JUMPDEST PUSH0 DUP2 PUSH1 0x2 ADD SLOAD SWAP1 POP SWAP2 SWAP1 POP JUMP JUMPDEST DUP1 DUP3 PUSH1 0x3 ADD DUP2 SWAP1 SSTORE POP POP POP JUMP JUMPDEST PUSH1 0x1 DUP2 PUSH1 0x4 ADD PUSH0 PUSH2 0x100 EXP DUP2 SLOAD DUP2 PUSH1 0xFF MUL NOT AND SWAP1 DUP4 ISZERO ISZERO MUL OR SWAP1 SSTORE POP POP JUMP JUMPDEST PUSH0 DUP2 PUSH1 0x4 ADD PUSH1 0x1 SWAP1 SLOAD SWAP1 PUSH2 0x100 EXP SWAP1 DIV PUSH1 0xFF AND SWAP1 POP SWAP2 SWAP1 POP JUMP JUMPDEST PUSH0 DUP1 PUSH1 0x1 SWAP1 POP PUSH0 DUP2 PUSH2 0xFFFF AND PUSH1 0x64 DUP6 PUSH3 0x157B SWAP2 SWAP1 PUSH3 0x26F9 JUMP JUMPDEST PUSH3 0x1587 SWAP2 SWAP1 PUSH3 0x2730 JUMP JUMPDEST SWAP1 POP PUSH0 DUP2 SUB PUSH3 0x159D JUMPI PUSH1 0x1 SWAP3 POP POP POP PUSH3 0x15A3 JUMP JUMPDEST DUP1 SWAP3 POP POP POP JUMPDEST SWAP2 SWAP1 POP JUMP JUMPDEST PUSH0 DUP2 PUSH1 0x3 ADD SLOAD SWAP1 POP SWAP2 SWAP1 POP JUMP JUMPDEST PUSH0 DUP4 DUP4 LT ISZERO PUSH3 0x15FC JUMPI PUSH1 0x40 MLOAD PUSH32 0x8C379A000000000000000000000000000000000000000000000000000000000 DUP2 MSTORE PUSH1 0x4 ADD PUSH3 0x15F3 SWAP1 PUSH3 0x27EE JUMP JUMPDEST PUSH1 0x40 MLOAD DUP1 SWAP2 SUB SWAP1 REVERT JUMPDEST PUSH0 PUSH1 0x1E DUP6 DUP6 PUSH3 0x160D SWAP2 SWAP1 PUSH3 0x1E49 JUMP JUMPDEST PUSH3 0x1619 SWAP2 SWAP1 PUSH3 0x26F9 JUMP JUMPDEST SWAP1 POP PUSH0 PUSH1 0x64 DUP5 DUP9 PUSH3 0x162C SWAP2 SWAP1 PUSH3 0x2730 JUMP JUMPDEST PUSH3 0x1638 SWAP2 SWAP1 PUSH3 0x26F9 JUMP JUMPDEST SWAP1 POP DUP1 DUP3 PUSH3 0x1648 SWAP2 SWAP1 PUSH3 0x2730 JUMP JUMPDEST SWAP3 POP POP POP SWAP5 SWAP4 POP POP POP POP JUMP JUMPDEST DUP1 DUP3 PUSH1 0x1 ADD DUP2 SWAP1 SSTORE POP POP POP JUMP JUMPDEST PUSH1 0x40 MLOAD DUP1 PUSH1 0xC0 ADD PUSH1 0x40 MSTORE DUP1 PUSH0 PUSH20 0xFFFFFFFFFFFFFFFFFFFFFFFFFFFFFFFFFFFFFFFF AND DUP2 MSTORE PUSH1 0x20 ADD PUSH0 DUP2 MSTORE PUSH1 0x20 ADD PUSH0 DUP2 MSTORE PUSH1 0x20 ADD PUSH0 DUP2 MSTORE PUSH1 0x20 ADD PUSH0 ISZERO ISZERO DUP2 MSTORE PUSH1 0x20 ADD PUSH0 ISZERO ISZERO DUP2 MSTORE POP SWAP1 JUMP JUMPDEST PUSH2 0x19FE DUP1 PUSH3 0x280F DUP4 CODECOPY ADD SWAP1 JUMP JUMPDEST PUSH0 PUSH20 0xFFFFFFFFFFFFFFFFFFFFFFFFFFFFFFFFFFFFFFFF DUP3 AND SWAP1 POP SWAP2 SWAP1 POP JUMP JUMPDEST PUSH0 PUSH3 0x16E4 DUP3 PUSH3 0x16B9 JUMP JUMPDEST SWAP1 POP SWAP2 SWAP1 POP JUMP JUMPDEST PUSH3 0x16F6 DUP2 PUSH3 0x16D8 JUMP JUMPDEST DUP3 MSTORE POP POP JUMP JUMPDEST PUSH0 DUP2 SWAP1 POP SWAP2 SWAP1 POP JUMP JUMPDEST PUSH3 0x1710 DUP2 PUSH3 0x16FC JUMP JUMPDEST DUP3 MSTORE POP POP JUMP JUMPDEST PUSH0 PUSH1 0x40 DUP3 ADD SWAP1 POP PUSH3 0x172B PUSH0 DUP4 ADD DUP6 PUSH3 0x16EB JUMP JUMPDEST PUSH3 0x173A PUSH1 0x20 DUP4 ADD DUP5 PUSH3 0x1705 JUMP JUMPDEST SWAP4 SWAP3 POP POP POP JUMP JUMPDEST PUSH0 PUSH1 0x40 MLOAD SWAP1 POP SWAP1 JUMP JUMPDEST PUSH0 DUP1 REVERT JUMPDEST PUSH0 DUP1 REVERT JUMPDEST PUSH3 0x175D DUP2 PUSH3 0x16D8 JUMP JUMPDEST DUP2 EQ PUSH3 0x1768 JUMPI PUSH0 DUP1 REVERT JUMPDEST POP JUMP JUMPDEST PUSH0 DUP2 CALLDATALOAD SWAP1 POP PUSH3 0x177B DUP2 PUSH3 0x1752 JUMP JUMPDEST SWAP3 SWAP2 POP POP JUMP JUMPDEST PUSH3 0x178C DUP2 PUSH3 0x16FC JUMP JUMPDEST DUP2 EQ PUSH3 0x1797 JUMPI PUSH0 DUP1 REVERT JUMPDEST POP JUMP JUMPDEST PUSH0 DUP2 CALLDATALOAD SWAP1 POP PUSH3 0x17AA DUP2 PUSH3 0x1781 JUMP JUMPDEST SWAP3 SWAP2 POP POP JUMP JUMPDEST PUSH0 DUP1 PUSH0 DUP1 PUSH0 PUSH1 0xA0 DUP7 DUP9 SUB SLT ISZERO PUSH3 0x17CC JUMPI PUSH3 0x17CB PUSH3 0x174A JUMP JUMPDEST JUMPDEST PUSH0 PUSH3 0x17DB DUP9 DUP3 DUP10 ADD PUSH3 0x176B JUMP JUMPDEST SWAP6 POP POP PUSH1 0x20 PUSH3 0x17EE DUP9 DUP3 DUP10 ADD PUSH3 0x176B JUMP JUMPDEST SWAP5 POP POP PUSH1 0x40 PUSH3 0x1801 DUP9 DUP3 DUP10 ADD PUSH3 0x179A JUMP JUMPDEST SWAP4 POP POP PUSH1 0x60 PUSH3 0x1814 DUP9 DUP3 DUP10 ADD PUSH3 0x179A JUMP JUMPDEST SWAP3 POP POP PUSH1 0x80 PUSH3 0x1827 DUP9 DUP3 DUP10 ADD PUSH3 0x179A JUMP JUMPDEST SWAP2 POP POP SWAP3 SWAP6 POP SWAP3 SWAP6 SWAP1 SWAP4 POP JUMP JUMPDEST PUSH0 DUP2 ISZERO ISZERO SWAP1 POP SWAP2 SWAP1 POP JUMP JUMPDEST PUSH3 0x184A DUP2 PUSH3 0x1834 JUMP JUMPDEST DUP3 MSTORE POP POP JUMP JUMPDEST PUSH0 PUSH1 0x20 DUP3 ADD SWAP1 POP PUSH3 0x1865 PUSH0 DUP4 ADD DUP5 PUSH3 0x183F JUMP JUMPDEST SWAP3 SWAP2 POP POP JUMP JUMPDEST PUSH0 PUSH1 0x20 DUP3 DUP5 SUB SLT ISZERO PUSH3 0x1883 JUMPI PUSH3 0x1882 PUSH3 0x174A JUMP JUMPDEST JUMPDEST PUSH0 PUSH3 0x1892 DUP5 DUP3 DUP6 ADD PUSH3 0x176B JUMP JUMPDEST SWAP2 POP POP SWAP3 SWAP2 POP POP JUMP JUMPDEST PUSH3 0x18A6 DUP2 PUSH3 0x16D8 JUMP JUMPDEST DUP3 MSTORE POP POP JUMP JUMPDEST PUSH3 0x18B7 DUP2 PUSH3 0x16FC JUMP JUMPDEST DUP3 MSTORE POP POP JUMP JUMPDEST PUSH3 0x18C8 DUP2 PUSH3 0x1834 JUMP JUMPDEST DUP3 MSTORE POP POP JUMP JUMPDEST PUSH1 0xC0 DUP3 ADD PUSH0 DUP3 ADD MLOAD PUSH3 0x18E4 PUSH0 DUP6 ADD DUP3 PUSH3 0x189B JUMP JUMPDEST POP PUSH1 0x20 DUP3 ADD MLOAD PUSH3 0x18F9 PUSH1 0x20 DUP6 ADD DUP3 PUSH3 0x18AC JUMP JUMPDEST POP PUSH1 0x40 DUP3 ADD MLOAD PUSH3 0x190E PUSH1 0x40 DUP6 ADD DUP3 PUSH3 0x18AC JUMP JUMPDEST POP PUSH1 0x60 DUP3 ADD MLOAD PUSH3 0x1923 PUSH1 0x60 DUP6 ADD DUP3 PUSH3 0x18AC JUMP JUMPDEST POP PUSH1 0x80 DUP3 ADD MLOAD PUSH3 0x1938 PUSH1 0x80 DUP6 ADD DUP3 PUSH3 0x18BD JUMP JUMPDEST POP PUSH1 0xA0 DUP3 ADD MLOAD PUSH3 0x194D PUSH1 0xA0 DUP6 ADD DUP3 PUSH3 0x18BD JUMP JUMPDEST POP POP POP POP JUMP JUMPDEST PUSH0 PUSH1 0xC0 DUP3 ADD SWAP1 POP PUSH3 0x1968 PUSH0 DUP4 ADD DUP5 PUSH3 0x18CE JUMP JUMPDEST SWAP3 SWAP2 POP POP JUMP JUMPDEST PUSH0 DUP1 REVERT JUMPDEST PUSH0 DUP1 REVERT JUMPDEST PUSH0 PUSH1 0x1F NOT PUSH1 0x1F DUP4 ADD AND SWAP1 POP SWAP2 SWAP1 POP JUMP JUMPDEST PUSH32 0x4E487B7100000000000000000000000000000000000000000000000000000000 PUSH0 MSTORE PUSH1 0x41 PUSH1 0x4 MSTORE PUSH1 0x24 PUSH0 REVERT JUMPDEST PUSH3 0x19BE DUP3 PUSH3 0x1976 JUMP JUMPDEST DUP2 ADD DUP2 DUP2 LT PUSH8 0xFFFFFFFFFFFFFFFF DUP3 GT OR ISZERO PUSH3 0x19E0 JUMPI PUSH3 0x19DF PUSH3 0x1986 JUMP JUMPDEST JUMPDEST DUP1 PUSH1 0x40 MSTORE POP POP POP JUMP JUMPDEST PUSH0 PUSH3 0x19F4 PUSH3 0x1741 JUMP JUMPDEST SWAP1 POP PUSH3 0x1A02 DUP3 DUP3 PUSH3 0x19B3 JUMP JUMPDEST SWAP2 SWAP1 POP JUMP JUMPDEST PUSH0 PUSH8 0xFFFFFFFFFFFFFFFF DUP3 GT ISZERO PUSH3 0x1A24 JUMPI PUSH3 0x1A23 PUSH3 0x1986 JUMP JUMPDEST JUMPDEST PUSH3 0x1A2F DUP3 PUSH3 0x1976 JUMP JUMPDEST SWAP1 POP PUSH1 0x20 DUP2 ADD SWAP1 POP SWAP2 SWAP1 POP JUMP JUMPDEST DUP3 DUP2 DUP4 CALLDATACOPY PUSH0 DUP4 DUP4 ADD MSTORE POP POP POP JUMP JUMPDEST PUSH0 PUSH3 0x1A60 PUSH3 0x1A5A DUP5 PUSH3 0x1A07 JUMP JUMPDEST PUSH3 0x19E9 JUMP JUMPDEST SWAP1 POP DUP3 DUP2 MSTORE PUSH1 0x20 DUP2 ADD DUP5 DUP5 DUP5 ADD GT ISZERO PUSH3 0x1A7F JUMPI PUSH3 0x1A7E PUSH3 0x1972 JUMP JUMPDEST JUMPDEST PUSH3 0x1A8C DUP5 DUP3 DUP6 PUSH3 0x1A3C JUMP JUMPDEST POP SWAP4 SWAP3 POP POP POP JUMP JUMPDEST PUSH0 DUP3 PUSH1 0x1F DUP4 ADD SLT PUSH3 0x1AAB JUMPI PUSH3 0x1AAA PUSH3 0x196E JUMP JUMPDEST JUMPDEST DUP2 CALLDATALOAD PUSH3 0x1ABD DUP5 DUP3 PUSH1 0x20 DUP7 ADD PUSH3 0x1A4A JUMP JUMPDEST SWAP2 POP POP SWAP3 SWAP2 POP POP JUMP JUMPDEST PUSH0 DUP1 PUSH1 0x40 DUP4 DUP6 SUB SLT ISZERO PUSH3 0x1ADF JUMPI PUSH3 0x1ADE PUSH3 0x174A JUMP JUMPDEST JUMPDEST PUSH0 PUSH3 0x1AEE DUP6 DUP3 DUP7 ADD PUSH3 0x176B JUMP JUMPDEST SWAP3 POP POP PUSH1 0x20 DUP4 ADD CALLDATALOAD PUSH8 0xFFFFFFFFFFFFFFFF DUP2 GT ISZERO PUSH3 0x1B12 JUMPI PUSH3 0x1B11 PUSH3 0x174E JUMP JUMPDEST JUMPDEST PUSH3 0x1B20 DUP6 DUP3 DUP7 ADD PUSH3 0x1A94 JUMP JUMPDEST SWAP2 POP POP SWAP3 POP SWAP3 SWAP1 POP JUMP JUMPDEST PUSH0 DUP2 SWAP1 POP SWAP2 SWAP1 POP JUMP JUMPDEST PUSH3 0x1B3E DUP2 PUSH3 0x1B2A JUMP JUMPDEST DUP3 MSTORE POP POP JUMP JUMPDEST PUSH0 PUSH1 0x40 DUP3 ADD SWAP1 POP PUSH3 0x1B59 PUSH0 DUP4 ADD DUP6 PUSH3 0x183F JUMP JUMPDEST PUSH3 0x1B68 PUSH1 0x20 DUP4 ADD DUP5 PUSH3 0x1B33 JUMP JUMPDEST SWAP4 SWAP3 POP POP POP JUMP JUMPDEST PUSH0 PUSH1 0x20 DUP3 ADD SWAP1 POP PUSH3 0x1B84 PUSH0 DUP4 ADD DUP5 PUSH3 0x1705 JUMP JUMPDEST SWAP3 SWAP2 POP POP JUMP JUMPDEST PUSH0 DUP1 PUSH0 DUP1 PUSH1 0x80 DUP6 DUP8 SUB SLT ISZERO PUSH3 0x1BA5 JUMPI PUSH3 0x1BA4 PUSH3 0x174A JUMP JUMPDEST JUMPDEST PUSH0 PUSH3 0x1BB4 DUP8 DUP3 DUP9 ADD PUSH3 0x176B JUMP JUMPDEST SWAP5 POP POP PUSH1 0x20 PUSH3 0x1BC7 DUP8 DUP3 DUP9 ADD PUSH3 0x176B JUMP JUMPDEST SWAP4 POP POP PUSH1 0x40 PUSH3 0x1BDA DUP8 DUP3 DUP9 ADD PUSH3 0x179A JUMP JUMPDEST SWAP3 POP POP PUSH1 0x60 PUSH3 0x1BED DUP8 DUP3 DUP9 ADD PUSH3 0x179A JUMP JUMPDEST SWAP2 POP POP SWAP3 SWAP6 SWAP2 SWAP5 POP SWAP3 POP JUMP JUMPDEST PUSH0 DUP2 SWAP1 POP SWAP2 SWAP1 POP JUMP JUMPDEST PUSH0 PUSH3 0x1C22 PUSH3 0x1C1C PUSH3 0x1C16 DUP5 PUSH3 0x16B9 JUMP JUMPDEST PUSH3 0x1BF9 JUMP JUMPDEST PUSH3 0x16B9 JUMP JUMPDEST SWAP1 POP SWAP2 SWAP1 POP JUMP JUMPDEST PUSH0 PUSH3 0x1C35 DUP3 PUSH3 0x1C02 JUMP JUMPDEST SWAP1 POP SWAP2 SWAP1 POP JUMP JUMPDEST PUSH0 PUSH3 0x1C48 DUP3 PUSH3 0x1C29 JUMP JUMPDEST SWAP1 POP SWAP2 SWAP1 POP JUMP JUMPDEST PUSH3 0x1C5A DUP2 PUSH3 0x1C3C JUMP JUMPDEST DUP3 MSTORE POP POP JUMP JUMPDEST PUSH0 PUSH1 0x20 DUP3 ADD SWAP1 POP PUSH3 0x1C75 PUSH0 DUP4 ADD DUP5 PUSH3 0x1C4F JUMP JUMPDEST SWAP3 SWAP2 POP POP JUMP JUMPDEST PUSH0 PUSH1 0xC0 DUP3 ADD SWAP1 POP PUSH3 0x1C90 PUSH0 DUP4 ADD DUP10 PUSH3 0x16EB JUMP JUMPDEST PUSH3 0x1C9F PUSH1 0x20 DUP4 ADD DUP9 PUSH3 0x1705 JUMP JUMPDEST PUSH3 0x1CAE PUSH1 0x40 DUP4 ADD DUP8 PUSH3 0x1705 JUMP JUMPDEST PUSH3 0x1CBD PUSH1 0x60 DUP4 ADD DUP7 PUSH3 0x1705 JUMP JUMPDEST PUSH3 0x1CCC PUSH1 0x80 DUP4 ADD DUP6 PUSH3 0x183F JUMP JUMPDEST PUSH3 0x1CDB PUSH1 0xA0 DUP4 ADD DUP5 PUSH3 0x183F JUMP JUMPDEST SWAP8 SWAP7 POP POP POP POP POP POP POP JUMP JUMPDEST PUSH0 DUP1 PUSH0 DUP1 PUSH0 PUSH1 0xA0 DUP7 DUP9 SUB SLT ISZERO PUSH3 0x1D02 JUMPI PUSH3 0x1D01 PUSH3 0x174A JUMP JUMPDEST JUMPDEST PUSH0 PUSH3 0x1D11 DUP9 DUP3 DUP10 ADD PUSH3 0x176B JUMP JUMPDEST SWAP6 POP POP PUSH1 0x20 PUSH3 0x1D24 DUP9 DUP3 DUP10 ADD PUSH3 0x179A JUMP JUMPDEST SWAP5 POP POP PUSH1 0x40 DUP7 ADD CALLDATALOAD PUSH8 0xFFFFFFFFFFFFFFFF DUP2 GT ISZERO PUSH3 0x1D48 JUMPI PUSH3 0x1D47 PUSH3 0x174E JUMP JUMPDEST JUMPDEST PUSH3 0x1D56 DUP9 DUP3 DUP10 ADD PUSH3 0x1A94 JUMP JUMPDEST SWAP4 POP POP PUSH1 0x60 DUP7 ADD CALLDATALOAD PUSH8 0xFFFFFFFFFFFFFFFF DUP2 GT ISZERO PUSH3 0x1D7A JUMPI PUSH3 0x1D79 PUSH3 0x174E JUMP JUMPDEST JUMPDEST PUSH3 0x1D88 DUP9 DUP3 DUP10 ADD PUSH3 0x1A94 JUMP JUMPDEST SWAP3 POP POP PUSH1 0x80 PUSH3 0x1D9B DUP9 DUP3 DUP10 ADD PUSH3 0x179A JUMP JUMPDEST SWAP2 POP POP SWAP3 SWAP6 POP SWAP3 SWAP6 SWAP1 SWAP4 POP JUMP JUMPDEST PUSH0 DUP1 PUSH0 PUSH1 0x60 DUP5 DUP7 SUB SLT ISZERO PUSH3 0x1DC2 JUMPI PUSH3 0x1DC1 PUSH3 0x174A JUMP JUMPDEST JUMPDEST PUSH0 PUSH3 0x1DD1 DUP7 DUP3 DUP8 ADD PUSH3 0x176B JUMP JUMPDEST SWAP4 POP POP PUSH1 0x20 PUSH3 0x1DE4 DUP7 DUP3 DUP8 ADD PUSH3 0x176B JUMP JUMPDEST SWAP3 POP POP PUSH1 0x40 PUSH3 0x1DF7 DUP7 DUP3 DUP8 ADD PUSH3 0x179A JUMP JUMPDEST SWAP2 POP POP SWAP3 POP SWAP3 POP SWAP3 JUMP JUMPDEST PUSH0 PUSH1 0x20 DUP3 ADD SWAP1 POP PUSH3 0x1E16 PUSH0 DUP4 ADD DUP5 PUSH3 0x16EB JUMP JUMPDEST SWAP3 SWAP2 POP POP JUMP JUMPDEST PUSH32 0x4E487B7100000000000000000000000000000000000000000000000000000000 PUSH0 MSTORE PUSH1 0x11 PUSH1 0x4 MSTORE PUSH1 0x24 PUSH0 REVERT JUMPDEST PUSH0 PUSH3 0x1E55 DUP3 PUSH3 0x16FC JUMP JUMPDEST SWAP2 POP PUSH3 0x1E62 DUP4 PUSH3 0x16FC JUMP JUMPDEST SWAP3 POP DUP3 DUP3 SUB SWAP1 POP DUP2 DUP2 GT ISZERO PUSH3 0x1E7D JUMPI PUSH3 0x1E7C PUSH3 0x1E1C JUMP JUMPDEST JUMPDEST SWAP3 SWAP2 POP POP JUMP JUMPDEST PUSH0 DUP3 DUP3 MSTORE PUSH1 0x20 DUP3 ADD SWAP1 POP SWAP3 SWAP2 POP POP JUMP JUMPDEST PUSH32 0x446562746F7220646F65736E27742065786973742E0000000000000000000000 PUSH0 DUP3 ADD MSTORE POP JUMP JUMPDEST PUSH0 PUSH3 0x1EC9 PUSH1 0x15 DUP4 PUSH3 0x1E83 JUMP JUMPDEST SWAP2 POP PUSH3 0x1ED6 DUP3 PUSH3 0x1E93 JUMP JUMPDEST PUSH1 0x20 DUP3 ADD SWAP1 POP SWAP2 SWAP1 POP JUMP JUMPDEST PUSH0 PUSH1 0x20 DUP3 ADD SWAP1 POP DUP2 DUP2 SUB PUSH0 DUP4 ADD MSTORE PUSH3 0x1EFA DUP2 PUSH3 0x1EBB JUMP JUMPDEST SWAP1 POP SWAP2 SWAP1 POP JUMP JUMPDEST PUSH32 0x416D6F756E74206F662064656274206861766520746F20626520677265617465 PUSH0 DUP3 ADD MSTORE PUSH32 0x72207468616E20302E0000000000000000000000000000000000000000000000 PUSH1 0x20 DUP3 ADD MSTORE POP JUMP JUMPDEST PUSH0 PUSH3 0x1F5D PUSH1 0x29 DUP4 PUSH3 0x1E83 JUMP JUMPDEST SWAP2 POP PUSH3 0x1F6A DUP3 PUSH3 0x1F01 JUMP JUMPDEST PUSH1 0x40 DUP3 ADD SWAP1 POP SWAP2 SWAP1 POP JUMP JUMPDEST PUSH0 PUSH1 0x20 DUP3 ADD SWAP1 POP DUP2 DUP2 SUB PUSH0 DUP4 ADD MSTORE PUSH3 0x1F8E DUP2 PUSH3 0x1F4F JUMP JUMPDEST SWAP1 POP SWAP2 SWAP1 POP JUMP JUMPDEST PUSH32 0x496E7465726573742068617320746F2062652067726561746572207468616E20 PUSH0 DUP3 ADD MSTORE PUSH32 0x302E000000000000000000000000000000000000000000000000000000000000 PUSH1 0x20 DUP3 ADD MSTORE POP JUMP JUMPDEST PUSH0 PUSH3 0x1FF1 PUSH1 0x22 DUP4 PUSH3 0x1E83 JUMP JUMPDEST SWAP2 POP PUSH3 0x1FFE DUP3 PUSH3 0x1F95 JUMP JUMPDEST PUSH1 0x40 DUP3 ADD SWAP1 POP SWAP2 SWAP1 POP JUMP JUMPDEST PUSH0 PUSH1 0x20 DUP3 ADD SWAP1 POP DUP2 DUP2 SUB PUSH0 DUP4 ADD MSTORE PUSH3 0x2022 DUP2 PUSH3 0x1FE3 JUMP JUMPDEST SWAP1 POP SWAP2 SWAP1 POP JUMP JUMPDEST PUSH32 0x56616C69646174696F6E206661696C65642E0000000000000000000000000000 PUSH0 DUP3 ADD MSTORE POP JUMP JUMPDEST PUSH0 PUSH3 0x205F PUSH1 0x12 DUP4 PUSH3 0x1E83 JUMP JUMPDEST SWAP2 POP PUSH3 0x206C DUP3 PUSH3 0x2029 JUMP JUMPDEST PUSH1 0x20 DUP3 ADD SWAP1 POP SWAP2 SWAP1 POP JUMP JUMPDEST PUSH0 PUSH1 0x20 DUP3 ADD SWAP1 POP DUP2 DUP2 SUB PUSH0 DUP4 ADD MSTORE PUSH3 0x2090 DUP2 PUSH3 0x2051 JUMP JUMPDEST SWAP1 POP SWAP2 SWAP1 POP JUMP JUMPDEST PUSH0 PUSH3 0x20A3 DUP3 PUSH3 0x16FC JUMP JUMPDEST SWAP2 POP PUSH3 0x20B0 DUP4 PUSH3 0x16FC JUMP JUMPDEST SWAP3 POP DUP3 DUP3 ADD SWAP1 POP DUP1 DUP3 GT ISZERO PUSH3 0x20CB JUMPI PUSH3 0x20CA PUSH3 0x1E1C JUMP JUMPDEST JUMPDEST SWAP3 SWAP2 POP POP JUMP JUMPDEST PUSH0 DUP2 MLOAD SWAP1 POP SWAP2 SWAP1 POP JUMP JUMPDEST PUSH0 JUMPDEST DUP4 DUP2 LT ISZERO PUSH3 0x20FA JUMPI DUP1 DUP3 ADD MLOAD DUP2 DUP5 ADD MSTORE PUSH1 0x20 DUP2 ADD SWAP1 POP PUSH3 0x20DD JUMP JUMPDEST PUSH0 DUP5 DUP5 ADD MSTORE POP POP POP POP JUMP JUMPDEST PUSH0 PUSH3 0x2111 DUP3 PUSH3 0x20D1 JUMP JUMPDEST PUSH3 0x211D DUP2 DUP6 PUSH3 0x1E83 JUMP JUMPDEST SWAP4 POP PUSH3 0x212F DUP2 DUP6 PUSH1 0x20 DUP7 ADD PUSH3 0x20DB JUMP JUMPDEST PUSH3 0x213A DUP2 PUSH3 0x1976 JUMP JUMPDEST DUP5 ADD SWAP2 POP POP SWAP3 SWAP2 POP POP JUMP JUMPDEST PUSH0 PUSH1 0x40 DUP3 ADD SWAP1 POP PUSH3 0x215A PUSH0 DUP4 ADD DUP6 PUSH3 0x16EB JUMP JUMPDEST DUP2 DUP2 SUB PUSH1 0x20 DUP4 ADD MSTORE PUSH3 0x216E DUP2 DUP5 PUSH3 0x2105 JUMP JUMPDEST SWAP1 POP SWAP4 SWAP3 POP POP POP JUMP JUMPDEST PUSH3 0x2182 DUP2 PUSH3 0x1834 JUMP JUMPDEST DUP2 EQ PUSH3 0x218D JUMPI PUSH0 DUP1 REVERT JUMPDEST POP JUMP JUMPDEST PUSH0 DUP2 MLOAD SWAP1 POP PUSH3 0x21A0 DUP2 PUSH3 0x2177 JUMP JUMPDEST SWAP3 SWAP2 POP POP JUMP JUMPDEST PUSH3 0x21B1 DUP2 PUSH3 0x1B2A JUMP JUMPDEST DUP2 EQ PUSH3 0x21BC JUMPI PUSH0 DUP1 REVERT JUMPDEST POP JUMP JUMPDEST PUSH0 DUP2 MLOAD SWAP1 POP PUSH3 0x21CF DUP2 PUSH3 0x21A6 JUMP JUMPDEST SWAP3 SWAP2 POP POP JUMP JUMPDEST PUSH0 DUP1 PUSH1 0x40 DUP4 DUP6 SUB SLT ISZERO PUSH3 0x21EE JUMPI PUSH3 0x21ED PUSH3 0x174A JUMP JUMPDEST JUMPDEST PUSH0 PUSH3 0x21FD DUP6 DUP3 DUP7 ADD PUSH3 0x2190 JUMP JUMPDEST SWAP3 POP POP PUSH1 0x20 PUSH3 0x2210 DUP6 DUP3 DUP7 ADD PUSH3 0x21BF JUMP JUMPDEST SWAP2 POP POP SWAP3 POP SWAP3 SWAP1 POP JUMP JUMPDEST PUSH32 0x446562746F7220616C7265616479206861766520646562742E00000000000000 PUSH0 DUP3 ADD MSTORE POP JUMP JUMPDEST PUSH0 PUSH3 0x2250 PUSH1 0x19 DUP4 PUSH3 0x1E83 JUMP JUMPDEST SWAP2 POP PUSH3 0x225D DUP3 PUSH3 0x221A JUMP JUMPDEST PUSH1 0x20 DUP3 ADD SWAP1 POP SWAP2 SWAP1 POP JUMP JUMPDEST PUSH0 PUSH1 0x20 DUP3 ADD SWAP1 POP DUP2 DUP2 SUB PUSH0 DUP4 ADD MSTORE PUSH3 0x2281 DUP2 PUSH3 0x2242 JUMP JUMPDEST SWAP1 POP SWAP2 SWAP1 POP JUMP JUMPDEST PUSH3 0x2293 DUP2 PUSH3 0x16D8 JUMP JUMPDEST DUP3 MSTORE POP POP JUMP JUMPDEST PUSH3 0x22A4 DUP2 PUSH3 0x16FC JUMP JUMPDEST DUP3 MSTORE POP POP JUMP JUMPDEST PUSH3 0x22B5 DUP2 PUSH3 0x1834 JUMP JUMPDEST DUP3 MSTORE POP POP JUMP JUMPDEST PUSH0 PUSH1 0xC0 DUP3 ADD SWAP1 POP PUSH3 0x22D0 PUSH0 DUP4 ADD DUP10 PUSH3 0x2288 JUMP JUMPDEST PUSH3 0x22DF PUSH1 0x20 DUP4 ADD DUP9 PUSH3 0x2299 JUMP JUMPDEST PUSH3 0x22EE PUSH1 0x40 DUP4 ADD DUP8 PUSH3 0x2299 JUMP JUMPDEST PUSH3 0x22FD PUSH1 0x60 DUP4 ADD DUP7 PUSH3 0x2299 JUMP JUMPDEST PUSH3 0x230C PUSH1 0x80 DUP4 ADD DUP6 PUSH3 0x22AA JUMP JUMPDEST PUSH3 0x231B PUSH1 0xA0 DUP4 ADD DUP5 PUSH3 0x22AA JUMP JUMPDEST SWAP8 SWAP7 POP POP POP POP POP POP POP JUMP JUMPDEST PUSH0 DUP1 REVERT JUMPDEST PUSH0 DUP2 MLOAD SWAP1 POP PUSH3 0x233A DUP2 PUSH3 0x1752 JUMP JUMPDEST SWAP3 SWAP2 POP POP JUMP JUMPDEST PUSH0 DUP2 MLOAD SWAP1 POP PUSH3 0x2350 DUP2 PUSH3 0x1781 JUMP JUMPDEST SWAP3 SWAP2 POP POP JUMP JUMPDEST PUSH0 PUSH1 0xC0 DUP3 DUP5 SUB SLT ISZERO PUSH3 0x236E JUMPI PUSH3 0x236D PUSH3 0x2326 JUMP JUMPDEST JUMPDEST PUSH3 0x237A PUSH1 0xC0 PUSH3 0x19E9 JUMP JUMPDEST SWAP1 POP PUSH0 PUSH3 0x238B DUP5 DUP3 DUP6 ADD PUSH3 0x232A JUMP JUMPDEST PUSH0 DUP4 ADD MSTORE POP PUSH1 0x20 PUSH3 0x23A0 DUP5 DUP3 DUP6 ADD PUSH3 0x2340 JUMP JUMPDEST PUSH1 0x20 DUP4 ADD MSTORE POP PUSH1 0x40 PUSH3 0x23B6 DUP5 DUP3 DUP6 ADD PUSH3 0x2340 JUMP JUMPDEST PUSH1 0x40 DUP4 ADD MSTORE POP PUSH1 0x60 PUSH3 0x23CC DUP5 DUP3 DUP6 ADD PUSH3 0x2340 JUMP JUMPDEST PUSH1 0x60 DUP4 ADD MSTORE POP PUSH1 0x80 PUSH3 0x23E2 DUP5 DUP3 DUP6 ADD PUSH3 0x2190 JUMP JUMPDEST PUSH1 0x80 DUP4 ADD MSTORE POP PUSH1 0xA0 PUSH3 0x23F8 DUP5 DUP3 DUP6 ADD PUSH3 0x2190 JUMP JUMPDEST PUSH1 0xA0 DUP4 ADD MSTORE POP SWAP3 SWAP2 POP POP JUMP JUMPDEST PUSH0 PUSH1 0xC0 DUP3 DUP5 SUB SLT ISZERO PUSH3 0x241C JUMPI PUSH3 0x241B PUSH3 0x174A JUMP JUMPDEST JUMPDEST PUSH0 PUSH3 0x242B DUP5 DUP3 DUP6 ADD PUSH3 0x2356 JUMP JUMPDEST SWAP2 POP POP SWAP3 SWAP2 POP POP JUMP JUMPDEST PUSH32 0x54616B696E67207069656365206F6620646562742066756E6420697320616C72 PUSH0 DUP3 ADD MSTORE PUSH32 0x6561647920696E2070726F676573732E2054727920616761696E206C61746572 PUSH1 0x20 DUP3 ADD MSTORE PUSH32 0x2E00000000000000000000000000000000000000000000000000000000000000 PUSH1 0x40 DUP3 ADD MSTORE POP JUMP JUMPDEST PUSH0 PUSH3 0x24B6 PUSH1 0x41 DUP4 PUSH3 0x1E83 JUMP JUMPDEST SWAP2 POP PUSH3 0x24C3 DUP3 PUSH3 0x2434 JUMP JUMPDEST PUSH1 0x60 DUP3 ADD SWAP1 POP SWAP2 SWAP1 POP JUMP JUMPDEST PUSH0 PUSH1 0x20 DUP3 ADD SWAP1 POP DUP2 DUP2 SUB PUSH0 DUP4 ADD MSTORE PUSH3 0x24E7 DUP2 PUSH3 0x24A8 JUMP JUMPDEST SWAP1 POP SWAP2 SWAP1 POP JUMP JUMPDEST PUSH0 DUP2 SWAP1 POP SWAP2 SWAP1 POP JUMP JUMPDEST PUSH0 PUSH1 0xFF DUP3 AND SWAP1 POP SWAP2 SWAP1 POP JUMP JUMPDEST PUSH0 PUSH3 0x2523 PUSH3 0x251D PUSH3 0x2517 DUP5 PUSH3 0x24EE JUMP JUMPDEST PUSH3 0x1BF9 JUMP JUMPDEST PUSH3 0x24F7 JUMP JUMPDEST SWAP1 POP SWAP2 SWAP1 POP JUMP JUMPDEST PUSH3 0x2535 DUP2 PUSH3 0x2503 JUMP JUMPDEST DUP3 MSTORE POP POP JUMP JUMPDEST PUSH0 PUSH1 0xA0 DUP3 ADD SWAP1 POP PUSH3 0x2550 PUSH0 DUP4 ADD DUP9 PUSH3 0x252A JUMP JUMPDEST PUSH3 0x255F PUSH1 0x20 DUP4 ADD DUP8 PUSH3 0x1705 JUMP JUMPDEST DUP2 DUP2 SUB PUSH1 0x40 DUP4 ADD MSTORE PUSH3 0x2573 DUP2 DUP7 PUSH3 0x2105 JUMP JUMPDEST SWAP1 POP DUP2 DUP2 SUB PUSH1 0x60 DUP4 ADD MSTORE PUSH3 0x2589 DUP2 DUP6 PUSH3 0x2105 JUMP JUMPDEST SWAP1 POP PUSH3 0x259A PUSH1 0x80 DUP4 ADD DUP5 PUSH3 0x1705 JUMP JUMPDEST SWAP7 SWAP6 POP POP POP POP POP POP JUMP JUMPDEST PUSH32 0x446562746F722D4372656469742D5061697220697320756E7661696C61626C65 PUSH0 DUP3 ADD MSTORE PUSH32 0x2E00000000000000000000000000000000000000000000000000000000000000 PUSH1 0x20 DUP3 ADD MSTORE POP JUMP JUMPDEST PUSH0 PUSH3 0x2600 PUSH1 0x21 DUP4 PUSH3 0x1E83 JUMP JUMPDEST SWAP2 POP PUSH3 0x260D DUP3 PUSH3 0x25A4 JUMP JUMPDEST PUSH1 0x40 DUP3 ADD SWAP1 POP SWAP2 SWAP1 POP JUMP JUMPDEST PUSH0 PUSH1 0x20 DUP3 ADD SWAP1 POP DUP2 DUP2 SUB PUSH0 DUP4 ADD MSTORE PUSH3 0x2631 DUP2 PUSH3 0x25F2 JUMP JUMPDEST SWAP1 POP SWAP2 SWAP1 POP JUMP JUMPDEST PUSH32 0x456E642063757272656E74206465627420616D6F756E742073686F756C642062 PUSH0 DUP3 ADD MSTORE PUSH32 0x652067726561746572207468616E20302E000000000000000000000000000000 PUSH1 0x20 DUP3 ADD MSTORE POP JUMP JUMPDEST PUSH0 PUSH3 0x2694 PUSH1 0x31 DUP4 PUSH3 0x1E83 JUMP JUMPDEST SWAP2 POP PUSH3 0x26A1 DUP3 PUSH3 0x2638 JUMP JUMPDEST PUSH1 0x40 DUP3 ADD SWAP1 POP SWAP2 SWAP1 POP JUMP JUMPDEST PUSH0 PUSH1 0x20 DUP3 ADD SWAP1 POP DUP2 DUP2 SUB PUSH0 DUP4 ADD MSTORE PUSH3 0x26C5 DUP2 PUSH3 0x2686 JUMP JUMPDEST SWAP1 POP SWAP2 SWAP1 POP JUMP JUMPDEST PUSH32 0x4E487B7100000000000000000000000000000000000000000000000000000000 PUSH0 MSTORE PUSH1 0x12 PUSH1 0x4 MSTORE PUSH1 0x24 PUSH0 REVERT JUMPDEST PUSH0 PUSH3 0x2705 DUP3 PUSH3 0x16FC JUMP JUMPDEST SWAP2 POP PUSH3 0x2712 DUP4 PUSH3 0x16FC JUMP JUMPDEST SWAP3 POP DUP3 PUSH3 0x2725 JUMPI PUSH3 0x2724 PUSH3 0x26CC JUMP JUMPDEST JUMPDEST DUP3 DUP3 DIV SWAP1 POP SWAP3 SWAP2 POP POP JUMP JUMPDEST PUSH0 PUSH3 0x273C DUP3 PUSH3 0x16FC JUMP JUMPDEST SWAP2 POP PUSH3 0x2749 DUP4 PUSH3 0x16FC JUMP JUMPDEST SWAP3 POP DUP3 DUP3 MUL PUSH3 0x2759 DUP2 PUSH3 0x16FC JUMP JUMPDEST SWAP2 POP DUP3 DUP3 DIV DUP5 EQ DUP4 ISZERO OR PUSH3 0x2773 JUMPI PUSH3 0x2772 PUSH3 0x1E1C JUMP JUMPDEST JUMPDEST POP SWAP3 SWAP2 POP POP JUMP JUMPDEST PUSH32 0x537461727420616E6420656E642074696D657374616D707320646F6E2774206D PUSH0 DUP3 ADD MSTORE PUSH32 0x6174636800000000000000000000000000000000000000000000000000000000 PUSH1 0x20 DUP3 ADD MSTORE POP JUMP JUMPDEST PUSH0 PUSH3 0x27D6 PUSH1 0x24 DUP4 PUSH3 0x1E83 JUMP JUMPDEST SWAP2 POP PUSH3 0x27E3 DUP3 PUSH3 0x277A JUMP JUMPDEST PUSH1 0x40 DUP3 ADD SWAP1 POP SWAP2 SWAP1 POP JUMP JUMPDEST PUSH0 PUSH1 0x20 DUP3 ADD SWAP1 POP DUP2 DUP2 SUB PUSH0 DUP4 ADD MSTORE PUSH3 0x2807 DUP2 PUSH3 0x27C8 JUMP JUMPDEST SWAP1 POP SWAP2 SWAP1 POP JUMP INVALID PUSH1 0x80 PUSH1 0x40 MSTORE PUSH1 0x1 PUSH1 0x7 PUSH0 PUSH2 0x100 EXP DUP2 SLOAD DUP2 PUSH1 0xFF MUL NOT AND SWAP1 DUP4 PUSH1 0xFF AND MUL OR SWAP1 SSTORE POP PUSH0 PUSH1 0xA PUSH0 PUSH2 0x100 EXP DUP2 SLOAD DUP2 PUSH1 0xFF MUL NOT AND SWAP1 DUP4 PUSH1 0xFF AND MUL OR SWAP1 SSTORE POP PUSH1 0x90 PUSH1 0xF8 SHL PUSH1 0xA PUSH1 0x1 PUSH2 0x100 EXP DUP2 SLOAD DUP2 PUSH1 0xFF MUL NOT AND SWAP1 DUP4 PUSH1 0xF8 SHR MUL OR SWAP1 SSTORE POP CALLVALUE DUP1 ISZERO PUSH3 0x64 JUMPI PUSH0 DUP1 REVERT JUMPDEST POP PUSH1 0x40 MLOAD PUSH3 0x19FE CODESIZE SUB DUP1 PUSH3 0x19FE DUP4 CODECOPY DUP2 DUP2 ADD PUSH1 0x40 MSTORE DUP2 ADD SWAP1 PUSH3 0x8A SWAP2 SWAP1 PUSH3 0x7C0 JUMP JUMPDEST NUMBER PUSH1 0x5 DUP2 SWAP1 SSTORE POP PUSH1 0x5 SLOAD BLOCKHASH PUSH1 0x6 DUP2 SWAP1 SSTORE POP DUP5 PUSH1 0x4 PUSH0 PUSH2 0x100 EXP DUP2 SLOAD DUP2 PUSH1 0xFF MUL NOT AND SWAP1 DUP4 PUSH1 0xFF AND MUL OR SWAP1 SSTORE POP DUP4 PUSH0 DUP2 SWAP1 SSTORE POP DUP3 PUSH1 0x2 SWAP1 DUP2 PUSH3 0xCC SWAP2 SWAP1 PUSH3 0xAB0 JUMP JUMPDEST POP DUP2 PUSH1 0x3 SWAP1 DUP2 PUSH3 0xDE SWAP2 SWAP1 PUSH3 0xAB0 JUMP JUMPDEST POP DUP1 PUSH1 0x1 DUP2 SWAP1 SSTORE POP PUSH3 0xF6 PUSH3 0x176 PUSH1 0x20 SHL PUSH1 0x20 SHR JUMP JUMPDEST PUSH1 0x8 SWAP1 DUP2 PUSH3 0x106 SWAP2 SWAP1 PUSH3 0xAB0 JUMP JUMPDEST POP PUSH3 0x11A PUSH1 0x1 SLOAD PUSH3 0x2F1 PUSH1 0x20 SHL PUSH1 0x20 SHR JUMP JUMPDEST PUSH1 0x9 DUP2 SWAP1 SSTORE POP PUSH1 0x8 PUSH1 0x40 MLOAD PUSH3 0x131 SWAP2 SWAP1 PUSH3 0xC2A JUMP JUMPDEST PUSH1 0x40 MLOAD DUP1 SWAP2 SUB SWAP1 KECCAK256 PUSH1 0x6 SLOAD PUSH1 0x5 SLOAD PUSH32 0x9F4DA1EB02E98B4AB1D9B713F225D0F993B2222A21852024E9D90204BE64706A PUSH1 0x40 MLOAD PUSH1 0x40 MLOAD DUP1 SWAP2 SUB SWAP1 LOG4 POP POP POP POP POP PUSH3 0xE89 JUMP JUMPDEST PUSH1 0x60 PUSH0 PUSH1 0x9 SLOAD PUSH1 0x1 SLOAD PUSH3 0x18B SWAP2 SWAP1 PUSH3 0xC6F JUMP JUMPDEST SWAP1 POP DUP1 PUSH0 SLOAD LT ISZERO PUSH3 0x1D4 JUMPI PUSH1 0x40 MLOAD PUSH32 0x8C379A000000000000000000000000000000000000000000000000000000000 DUP2 MSTORE PUSH1 0x4 ADD PUSH3 0x1CB SWAP1 PUSH3 0xD07 JUMP JUMPDEST PUSH1 0x40 MLOAD DUP1 SWAP2 SUB SWAP1 REVERT JUMPDEST PUSH0 PUSH3 0x1E7 PUSH0 SLOAD PUSH3 0x321 PUSH1 0x20 SHL PUSH1 0x20 SHR JUMP JUMPDEST SWAP1 POP PUSH0 PUSH3 0x1FD PUSH1 0x1 SLOAD PUSH3 0x321 PUSH1 0x20 SHL PUSH1 0x20 SHR JUMP JUMPDEST SWAP1 POP PUSH0 PUSH1 0x3 DUP1 SLOAD PUSH3 0x20F SWAP1 PUSH3 0x8B9 JUMP JUMPDEST DUP1 PUSH1 0x1F ADD PUSH1 0x20 DUP1 SWAP2 DIV MUL PUSH1 0x20 ADD PUSH1 0x40 MLOAD SWAP1 DUP2 ADD PUSH1 0x40 MSTORE DUP1 SWAP3 SWAP2 SWAP1 DUP2 DUP2 MSTORE PUSH1 0x20 ADD DUP3 DUP1 SLOAD PUSH3 0x23D SWAP1 PUSH3 0x8B9 JUMP JUMPDEST DUP1 ISZERO PUSH3 0x28C JUMPI DUP1 PUSH1 0x1F LT PUSH3 0x262 JUMPI PUSH2 0x100 DUP1 DUP4 SLOAD DIV MUL DUP4 MSTORE SWAP2 PUSH1 0x20 ADD SWAP2 PUSH3 0x28C JUMP JUMPDEST DUP3 ADD SWAP2 SWAP1 PUSH0 MSTORE PUSH1 0x20 PUSH0 KECCAK256 SWAP1 JUMPDEST DUP2 SLOAD DUP2 MSTORE SWAP1 PUSH1 0x1 ADD SWAP1 PUSH1 0x20 ADD DUP1 DUP4 GT PUSH3 0x26E JUMPI DUP3 SWAP1 SUB PUSH1 0x1F AND DUP3 ADD SWAP2 JUMPDEST POP POP POP POP POP SWAP1 POP PUSH0 PUSH1 0x6 SLOAD PUSH1 0x40 MLOAD PUSH1 0x20 ADD PUSH3 0x2A9 SWAP2 SWAP1 PUSH3 0xD54 JUMP JUMPDEST PUSH1 0x40 MLOAD PUSH1 0x20 DUP2 DUP4 SUB SUB DUP2 MSTORE SWAP1 PUSH1 0x40 MSTORE SWAP1 POP PUSH0 DUP3 DUP6 DUP6 DUP5 PUSH1 0x40 MLOAD PUSH1 0x20 ADD PUSH3 0x2D4 SWAP5 SWAP4 SWAP3 SWAP2 SWAP1 PUSH3 0xDA6 JUMP JUMPDEST PUSH1 0x40 MLOAD PUSH1 0x20 DUP2 DUP4 SUB SUB DUP2 MSTORE SWAP1 PUSH1 0x40 MSTORE SWAP1 POP DUP1 SWAP7 POP POP POP POP POP POP POP SWAP1 JUMP JUMPDEST PUSH0 DUP1 PUSH3 0x316 DUP4 PUSH1 0x4 PUSH0 SWAP1 SLOAD SWAP1 PUSH2 0x100 EXP SWAP1 DIV PUSH1 0xFF AND PUSH1 0xFF AND PUSH3 0x3FC PUSH1 0x20 SHL PUSH1 0x20 SHR JUMP JUMPDEST SWAP1 POP DUP1 SWAP2 POP POP SWAP2 SWAP1 POP JUMP JUMPDEST PUSH1 0x60 PUSH0 PUSH1 0x1 PUSH3 0x337 DUP5 PUSH3 0x45E PUSH1 0x20 SHL PUSH1 0x20 SHR JUMP JUMPDEST ADD SWAP1 POP PUSH0 DUP2 PUSH8 0xFFFFFFFFFFFFFFFF DUP2 GT ISZERO PUSH3 0x358 JUMPI PUSH3 0x357 PUSH3 0x664 JUMP JUMPDEST JUMPDEST PUSH1 0x40 MLOAD SWAP1 DUP1 DUP3 MSTORE DUP1 PUSH1 0x1F ADD PUSH1 0x1F NOT AND PUSH1 0x20 ADD DUP3 ADD PUSH1 0x40 MSTORE DUP1 ISZERO PUSH3 0x38B JUMPI DUP2 PUSH1 0x20 ADD PUSH1 0x1 DUP3 MUL DUP1 CALLDATASIZE DUP4 CALLDATACOPY DUP1 DUP3 ADD SWAP2 POP POP SWAP1 POP JUMPDEST POP SWAP1 POP PUSH0 DUP3 PUSH1 0x20 ADD DUP3 ADD SWAP1 POP JUMPDEST PUSH1 0x1 ISZERO PUSH3 0x3F1 JUMPI DUP1 DUP1 PUSH1 0x1 SWAP1 SUB SWAP2 POP POP PUSH32 0x3031323334353637383961626364656600000000000000000000000000000000 PUSH1 0xA DUP7 MOD BYTE DUP2 MSTORE8 PUSH1 0xA DUP6 DUP2 PUSH3 0x3E5 JUMPI PUSH3 0x3E4 PUSH3 0xDEB JUMP JUMPDEST JUMPDEST DIV SWAP5 POP PUSH0 DUP6 SUB PUSH3 0x398 JUMPI JUMPDEST DUP2 SWAP4 POP POP POP POP SWAP2 SWAP1 POP JUMP JUMPDEST PUSH0 DUP1 DUP3 SUB PUSH3 0x41B JUMPI DUP2 DUP4 PUSH3 0x413 SWAP2 SWAP1 PUSH3 0xE18 JUMP JUMPDEST SWAP1 POP PUSH3 0x458 JUMP JUMPDEST PUSH0 DUP4 EQ PUSH3 0x453 JUMPI PUSH1 0x1 DUP3 PUSH1 0x1 DUP6 PUSH3 0x435 SWAP2 SWAP1 PUSH3 0xE4F JUMP JUMPDEST PUSH3 0x441 SWAP2 SWAP1 PUSH3 0xE18 JUMP JUMPDEST PUSH3 0x44D SWAP2 SWAP1 PUSH3 0xC6F JUMP JUMPDEST PUSH3 0x455 JUMP JUMPDEST PUSH0 JUMPDEST SWAP1 POP JUMPDEST SWAP3 SWAP2 POP POP JUMP JUMPDEST PUSH0 DUP1 PUSH0 SWAP1 POP PUSH27 0x184F03E93FF9F4DAA797ED6E38ED64BF6A1F010000000000000000 DUP4 LT PUSH3 0x4BE JUMPI PUSH27 0x184F03E93FF9F4DAA797ED6E38ED64BF6A1F010000000000000000 DUP4 DUP2 PUSH3 0x4B4 JUMPI PUSH3 0x4B3 PUSH3 0xDEB JUMP JUMPDEST JUMPDEST DIV SWAP3 POP PUSH1 0x40 DUP2 ADD SWAP1 POP JUMPDEST PUSH14 0x4EE2D6D415B85ACEF8100000000 DUP4 LT PUSH3 0x4FF JUMPI PUSH14 0x4EE2D6D415B85ACEF8100000000 DUP4 DUP2 PUSH3 0x4F5 JUMPI PUSH3 0x4F4 PUSH3 0xDEB JUMP JUMPDEST JUMPDEST DIV SWAP3 POP PUSH1 0x20 DUP2 ADD SWAP1 POP JUMPDEST PUSH7 0x2386F26FC10000 DUP4 LT PUSH3 0x532 JUMPI PUSH7 0x2386F26FC10000 DUP4 DUP2 PUSH3 0x528 JUMPI PUSH3 0x527 PUSH3 0xDEB JUMP JUMPDEST JUMPDEST DIV SWAP3 POP PUSH1 0x10 DUP2 ADD SWAP1 POP JUMPDEST PUSH4 0x5F5E100 DUP4 LT PUSH3 0x55F JUMPI PUSH4 0x5F5E100 DUP4 DUP2 PUSH3 0x555 JUMPI PUSH3 0x554 PUSH3 0xDEB JUMP JUMPDEST JUMPDEST DIV SWAP3 POP PUSH1 0x8 DUP2 ADD SWAP1 POP JUMPDEST PUSH2 0x2710 DUP4 LT PUSH3 0x588 JUMPI PUSH2 0x2710 DUP4 DUP2 PUSH3 0x57E JUMPI PUSH3 0x57D PUSH3 0xDEB JUMP JUMPDEST JUMPDEST DIV SWAP3 POP PUSH1 0x4 DUP2 ADD SWAP1 POP JUMPDEST PUSH1 0x64 DUP4 LT PUSH3 0x5AF JUMPI PUSH1 0x64 DUP4 DUP2 PUSH3 0x5A5 JUMPI PUSH3 0x5A4 PUSH3 0xDEB JUMP JUMPDEST JUMPDEST DIV SWAP3 POP PUSH1 0x2 DUP2 ADD SWAP1 POP JUMPDEST PUSH1 0xA DUP4 LT PUSH3 0x5BF JUMPI PUSH1 0x1 DUP2 ADD SWAP1 POP JUMPDEST DUP1 SWAP2 POP POP SWAP2 SWAP1 POP JUMP JUMPDEST PUSH0 PUSH1 0x40 MLOAD SWAP1 POP SWAP1 JUMP JUMPDEST PUSH0 DUP1 REVERT JUMPDEST PUSH0 DUP1 REVERT JUMPDEST PUSH0 PUSH1 0xFF DUP3 AND SWAP1 POP SWAP2 SWAP1 POP JUMP JUMPDEST PUSH3 0x5F0 DUP2 PUSH3 0x5D9 JUMP JUMPDEST DUP2 EQ PUSH3 0x5FB JUMPI PUSH0 DUP1 REVERT JUMPDEST POP JUMP JUMPDEST PUSH0 DUP2 MLOAD SWAP1 POP PUSH3 0x60E DUP2 PUSH3 0x5E5 JUMP JUMPDEST SWAP3 SWAP2 POP POP JUMP JUMPDEST PUSH0 DUP2 SWAP1 POP SWAP2 SWAP1 POP JUMP JUMPDEST PUSH3 0x628 DUP2 PUSH3 0x614 JUMP JUMPDEST DUP2 EQ PUSH3 0x633 JUMPI PUSH0 DUP1 REVERT JUMPDEST POP JUMP JUMPDEST PUSH0 DUP2 MLOAD SWAP1 POP PUSH3 0x646 DUP2 PUSH3 0x61D JUMP JUMPDEST SWAP3 SWAP2 POP POP JUMP JUMPDEST PUSH0 DUP1 REVERT JUMPDEST PUSH0 DUP1 REVERT JUMPDEST PUSH0 PUSH1 0x1F NOT PUSH1 0x1F DUP4 ADD AND SWAP1 POP SWAP2 SWAP1 POP JUMP JUMPDEST PUSH32 0x4E487B7100000000000000000000000000000000000000000000000000000000 PUSH0 MSTORE PUSH1 0x41 PUSH1 0x4 MSTORE PUSH1 0x24 PUSH0 REVERT JUMPDEST PUSH3 0x69C DUP3 PUSH3 0x654 JUMP JUMPDEST DUP2 ADD DUP2 DUP2 LT PUSH8 0xFFFFFFFFFFFFFFFF DUP3 GT OR ISZERO PUSH3 0x6BE JUMPI PUSH3 0x6BD PUSH3 0x664 JUMP JUMPDEST JUMPDEST DUP1 PUSH1 0x40 MSTORE POP POP POP JUMP JUMPDEST PUSH0 PUSH3 0x6D2 PUSH3 0x5C8 JUMP JUMPDEST SWAP1 POP PUSH3 0x6E0 DUP3 DUP3 PUSH3 0x691 JUMP JUMPDEST SWAP2 SWAP1 POP JUMP JUMPDEST PUSH0 PUSH8 0xFFFFFFFFFFFFFFFF DUP3 GT ISZERO PUSH3 0x702 JUMPI PUSH3 0x701 PUSH3 0x664 JUMP JUMPDEST JUMPDEST PUSH3 0x70D DUP3 PUSH3 0x654 JUMP JUMPDEST SWAP1 POP PUSH1 0x20 DUP2 ADD SWAP1 POP SWAP2 SWAP1 POP JUMP JUMPDEST PUSH0 JUMPDEST DUP4 DUP2 LT ISZERO PUSH3 0x739 JUMPI DUP1 DUP3 ADD MLOAD DUP2 DUP5 ADD MSTORE PUSH1 0x20 DUP2 ADD SWAP1 POP PUSH3 0x71C JUMP JUMPDEST PUSH0 DUP5 DUP5 ADD MSTORE POP POP POP POP JUMP JUMPDEST PUSH0 PUSH3 0x75A PUSH3 0x754 DUP5 PUSH3 0x6E5 JUMP JUMPDEST PUSH3 0x6C7 JUMP JUMPDEST SWAP1 POP DUP3 DUP2 MSTORE PUSH1 0x20 DUP2 ADD DUP5 DUP5 DUP5 ADD GT ISZERO PUSH3 0x779 JUMPI PUSH3 0x778 PUSH3 0x650 JUMP JUMPDEST JUMPDEST PUSH3 0x786 DUP5 DUP3 DUP6 PUSH3 0x71A JUMP JUMPDEST POP SWAP4 SWAP3 POP POP POP JUMP JUMPDEST PUSH0 DUP3 PUSH1 0x1F DUP4 ADD SLT PUSH3 0x7A5 JUMPI PUSH3 0x7A4 PUSH3 0x64C JUMP JUMPDEST JUMPDEST DUP2 MLOAD PUSH3 0x7B7 DUP5 DUP3 PUSH1 0x20 DUP7 ADD PUSH3 0x744 JUMP JUMPDEST SWAP2 POP POP SWAP3 SWAP2 POP POP JUMP JUMPDEST PUSH0 DUP1 PUSH0 DUP1 PUSH0 PUSH1 0xA0 DUP7 DUP9 SUB SLT ISZERO PUSH3 0x7DC JUMPI PUSH3 0x7DB PUSH3 0x5D1 JUMP JUMPDEST JUMPDEST PUSH0 PUSH3 0x7EB DUP9 DUP3 DUP10 ADD PUSH3 0x5FE JUMP JUMPDEST SWAP6 POP POP PUSH1 0x20 PUSH3 0x7FE DUP9 DUP3 DUP10 ADD PUSH3 0x636 JUMP JUMPDEST SWAP5 POP POP PUSH1 0x40 DUP7 ADD MLOAD PUSH8 0xFFFFFFFFFFFFFFFF DUP2 GT ISZERO PUSH3 0x822 JUMPI PUSH3 0x821 PUSH3 0x5D5 JUMP JUMPDEST JUMPDEST PUSH3 0x830 DUP9 DUP3 DUP10 ADD PUSH3 0x78E JUMP JUMPDEST SWAP4 POP POP PUSH1 0x60 DUP7 ADD MLOAD PUSH8 0xFFFFFFFFFFFFFFFF DUP2 GT ISZERO PUSH3 0x854 JUMPI PUSH3 0x853 PUSH3 0x5D5 JUMP JUMPDEST JUMPDEST PUSH3 0x862 DUP9 DUP3 DUP10 ADD PUSH3 0x78E JUMP JUMPDEST SWAP3 POP POP PUSH1 0x80 PUSH3 0x875 DUP9 DUP3 DUP10 ADD PUSH3 0x636 JUMP JUMPDEST SWAP2 POP POP SWAP3 SWAP6 POP SWAP3 SWAP6 SWAP1 SWAP4 POP JUMP JUMPDEST PUSH0 DUP2 MLOAD SWAP1 POP SWAP2 SWAP1 POP JUMP JUMPDEST PUSH32 0x4E487B7100000000000000000000000000000000000000000000000000000000 PUSH0 MSTORE PUSH1 0x22 PUSH1 0x4 MSTORE PUSH1 0x24 PUSH0 REVERT JUMPDEST PUSH0 PUSH1 0x2 DUP3 DIV SWAP1 POP PUSH1 0x1 DUP3 AND DUP1 PUSH3 0x8D1 JUMPI PUSH1 0x7F DUP3 AND SWAP2 POP JUMPDEST PUSH1 0x20 DUP3 LT DUP2 SUB PUSH3 0x8E7 JUMPI PUSH3 0x8E6 PUSH3 0x88C JUMP JUMPDEST JUMPDEST POP SWAP2 SWAP1 POP JUMP JUMPDEST PUSH0 DUP2 SWAP1 POP DUP2 PUSH0 MSTORE PUSH1 0x20 PUSH0 KECCAK256 SWAP1 POP SWAP2 SWAP1 POP JUMP JUMPDEST PUSH0 PUSH1 0x20 PUSH1 0x1F DUP4 ADD DIV SWAP1 POP SWAP2 SWAP1 POP JUMP JUMPDEST PUSH0 DUP3 DUP3 SHL SWAP1 POP SWAP3 SWAP2 POP POP JUMP JUMPDEST PUSH0 PUSH1 0x8 DUP4 MUL PUSH3 0x94B PUSH32 0xFFFFFFFFFFFFFFFFFFFFFFFFFFFFFFFFFFFFFFFFFFFFFFFFFFFFFFFFFFFFFFFF DUP3 PUSH3 0x90E JUMP JUMPDEST PUSH3 0x957 DUP7 DUP4 PUSH3 0x90E JUMP JUMPDEST SWAP6 POP DUP1 NOT DUP5 AND SWAP4 POP DUP1 DUP7 AND DUP5 OR SWAP3 POP POP POP SWAP4 SWAP3 POP POP POP JUMP JUMPDEST PUSH0 DUP2 SWAP1 POP SWAP2 SWAP1 POP JUMP JUMPDEST PUSH0 PUSH3 0x998 PUSH3 0x992 PUSH3 0x98C DUP5 PUSH3 0x614 JUMP JUMPDEST PUSH3 0x96F JUMP JUMPDEST PUSH3 0x614 JUMP JUMPDEST SWAP1 POP SWAP2 SWAP1 POP JUMP JUMPDEST PUSH0 DUP2 SWAP1 POP SWAP2 SWAP1 POP JUMP JUMPDEST PUSH3 0x9B3 DUP4 PUSH3 0x978 JUMP JUMPDEST PUSH3 0x9CB PUSH3 0x9C2 DUP3 PUSH3 0x99F JUMP JUMPDEST DUP5 DUP5 SLOAD PUSH3 0x91A JUMP JUMPDEST DUP3 SSTORE POP POP POP POP JUMP JUMPDEST PUSH0 SWAP1 JUMP JUMPDEST PUSH3 0x9E1 PUSH3 0x9D3 JUMP JUMPDEST PUSH3 0x9EE DUP2 DUP5 DUP5 PUSH3 0x9A8 JUMP JUMPDEST POP POP POP JUMP JUMPDEST JUMPDEST DUP2 DUP2 LT ISZERO PUSH3 0xA15 JUMPI PUSH3 0xA09 PUSH0 DUP3 PUSH3 0x9D7 JUMP JUMPDEST PUSH1 0x1 DUP2 ADD SWAP1 POP PUSH3 0x9F4 JUMP JUMPDEST POP POP JUMP JUMPDEST PUSH1 0x1F DUP3 GT ISZERO PUSH3 0xA64 JUMPI PUSH3 0xA2E DUP2 PUSH3 0x8ED JUMP JUMPDEST PUSH3 0xA39 DUP5 PUSH3 0x8FF JUMP JUMPDEST DUP2 ADD PUSH1 0x20 DUP6 LT ISZERO PUSH3 0xA49 JUMPI DUP2 SWAP1 POP JUMPDEST PUSH3 0xA61 PUSH3 0xA58 DUP6 PUSH3 0x8FF JUMP JUMPDEST DUP4 ADD DUP3 PUSH3 0x9F3 JUMP JUMPDEST POP POP JUMPDEST POP POP POP JUMP JUMPDEST PUSH0 DUP3 DUP3 SHR SWAP1 POP SWAP3 SWAP2 POP POP JUMP JUMPDEST PUSH0 PUSH3 0xA86 PUSH0 NOT DUP5 PUSH1 0x8 MUL PUSH3 0xA69 JUMP JUMPDEST NOT DUP1 DUP4 AND SWAP2 POP POP SWAP3 SWAP2 POP POP JUMP JUMPDEST PUSH0 PUSH3 0xAA0 DUP4 DUP4 PUSH3 0xA75 JUMP JUMPDEST SWAP2 POP DUP3 PUSH1 0x2 MUL DUP3 OR SWAP1 POP SWAP3 SWAP2 POP POP JUMP JUMPDEST PUSH3 0xABB DUP3 PUSH3 0x882 JUMP JUMPDEST PUSH8 0xFFFFFFFFFFFFFFFF DUP2 GT ISZERO PUSH3 0xAD7 JUMPI PUSH3 0xAD6 PUSH3 0x664 JUMP JUMPDEST JUMPDEST PUSH3 0xAE3 DUP3 SLOAD PUSH3 0x8B9 JUMP JUMPDEST PUSH3 0xAF0 DUP3 DUP3 DUP6 PUSH3 0xA19 JUMP JUMPDEST PUSH0 PUSH1 0x20 SWAP1 POP PUSH1 0x1F DUP4 GT PUSH1 0x1 DUP2 EQ PUSH3 0xB26 JUMPI PUSH0 DUP5 ISZERO PUSH3 0xB11 JUMPI DUP3 DUP8 ADD MLOAD SWAP1 POP JUMPDEST PUSH3 0xB1D DUP6 DUP3 PUSH3 0xA93 JUMP JUMPDEST DUP7 SSTORE POP PUSH3 0xB8C JUMP JUMPDEST PUSH1 0x1F NOT DUP5 AND PUSH3 0xB36 DUP7 PUSH3 0x8ED JUMP JUMPDEST PUSH0 JUMPDEST DUP3 DUP2 LT ISZERO PUSH3 0xB5F JUMPI DUP5 DUP10 ADD MLOAD DUP3 SSTORE PUSH1 0x1 DUP3 ADD SWAP2 POP PUSH1 0x20 DUP6 ADD SWAP5 POP PUSH1 0x20 DUP2 ADD SWAP1 POP PUSH3 0xB38 JUMP JUMPDEST DUP7 DUP4 LT ISZERO PUSH3 0xB7F JUMPI DUP5 DUP10 ADD MLOAD PUSH3 0xB7B PUSH1 0x1F DUP10 AND DUP3 PUSH3 0xA75 JUMP JUMPDEST DUP4 SSTORE POP JUMPDEST PUSH1 0x1 PUSH1 0x2 DUP9 MUL ADD DUP9 SSTORE POP POP POP JUMPDEST POP POP POP POP POP POP JUMP JUMPDEST PUSH0 DUP2 SWAP1 POP SWAP3 SWAP2 POP POP JUMP JUMPDEST PUSH0 DUP2 SLOAD PUSH3 0xBAC DUP2 PUSH3 0x8B9 JUMP JUMPDEST PUSH3 0xBB8 DUP2 DUP7 PUSH3 0xB94 JUMP JUMPDEST SWAP5 POP PUSH1 0x1 DUP3 AND PUSH0 DUP2 EQ PUSH3 0xBD5 JUMPI PUSH1 0x1 DUP2 EQ PUSH3 0xBEB JUMPI PUSH3 0xC21 JUMP JUMPDEST PUSH1 0xFF NOT DUP4 AND DUP7 MSTORE DUP2 ISZERO ISZERO DUP3 MUL DUP7 ADD SWAP4 POP PUSH3 0xC21 JUMP JUMPDEST PUSH3 0xBF6 DUP6 PUSH3 0x8ED JUMP JUMPDEST PUSH0 JUMPDEST DUP4 DUP2 LT ISZERO PUSH3 0xC19 JUMPI DUP2 SLOAD DUP2 DUP10 ADD MSTORE PUSH1 0x1 DUP3 ADD SWAP2 POP PUSH1 0x20 DUP2 ADD SWAP1 POP PUSH3 0xBF8 JUMP JUMPDEST DUP4 DUP9 ADD SWAP6 POP POP POP JUMPDEST POP POP POP SWAP3 SWAP2 POP POP JUMP JUMPDEST PUSH0 PUSH3 0xC37 DUP3 DUP5 PUSH3 0xB9E JUMP JUMPDEST SWAP2 POP DUP2 SWAP1 POP SWAP3 SWAP2 POP POP JUMP JUMPDEST PUSH32 0x4E487B7100000000000000000000000000000000000000000000000000000000 PUSH0 MSTORE PUSH1 0x11 PUSH1 0x4 MSTORE PUSH1 0x24 PUSH0 REVERT JUMPDEST PUSH0 PUSH3 0xC7B DUP3 PUSH3 0x614 JUMP JUMPDEST SWAP2 POP PUSH3 0xC88 DUP4 PUSH3 0x614 JUMP JUMPDEST SWAP3 POP DUP3 DUP3 ADD SWAP1 POP DUP1 DUP3 GT ISZERO PUSH3 0xCA3 JUMPI PUSH3 0xCA2 PUSH3 0xC42 JUMP JUMPDEST JUMPDEST SWAP3 SWAP2 POP POP JUMP JUMPDEST PUSH0 DUP3 DUP3 MSTORE PUSH1 0x20 DUP3 ADD SWAP1 POP SWAP3 SWAP2 POP POP JUMP JUMPDEST PUSH32 0x4E6F7420656E6F75676820746F6B656E7320617661696C61626C652E00000000 PUSH0 DUP3 ADD MSTORE POP JUMP JUMPDEST PUSH0 PUSH3 0xCEF PUSH1 0x1C DUP4 PUSH3 0xCA9 JUMP JUMPDEST SWAP2 POP PUSH3 0xCFC DUP3 PUSH3 0xCB9 JUMP JUMPDEST PUSH1 0x20 DUP3 ADD SWAP1 POP SWAP2 SWAP1 POP JUMP JUMPDEST PUSH0 PUSH1 0x20 DUP3 ADD SWAP1 POP DUP2 DUP2 SUB PUSH0 DUP4 ADD MSTORE PUSH3 0xD20 DUP2 PUSH3 0xCE1 JUMP JUMPDEST SWAP1 POP SWAP2 SWAP1 POP JUMP JUMPDEST PUSH0 DUP2 SWAP1 POP SWAP2 SWAP1 POP JUMP JUMPDEST PUSH0 DUP2 SWAP1 POP SWAP2 SWAP1 POP JUMP JUMPDEST PUSH3 0xD4E PUSH3 0xD48 DUP3 PUSH3 0xD27 JUMP JUMPDEST PUSH3 0xD30 JUMP JUMPDEST DUP3 MSTORE POP POP JUMP JUMPDEST PUSH0 PUSH3 0xD61 DUP3 DUP5 PUSH3 0xD39 JUMP JUMPDEST PUSH1 0x20 DUP3 ADD SWAP2 POP DUP2 SWAP1 POP SWAP3 SWAP2 POP POP JUMP JUMPDEST PUSH0 PUSH3 0xD7C DUP3 PUSH3 0x882 JUMP JUMPDEST PUSH3 0xD88 DUP2 DUP6 PUSH3 0xB94 JUMP JUMPDEST SWAP4 POP PUSH3 0xD9A DUP2 DUP6 PUSH1 0x20 DUP7 ADD PUSH3 0x71A JUMP JUMPDEST DUP1 DUP5 ADD SWAP2 POP POP SWAP3 SWAP2 POP POP JUMP JUMPDEST PUSH0 PUSH3 0xDB3 DUP3 DUP8 PUSH3 0xD70 JUMP JUMPDEST SWAP2 POP PUSH3 0xDC1 DUP3 DUP7 PUSH3 0xD70 JUMP JUMPDEST SWAP2 POP PUSH3 0xDCF DUP3 DUP6 PUSH3 0xD70 JUMP JUMPDEST SWAP2 POP PUSH3 0xDDD DUP3 DUP5 PUSH3 0xD70 JUMP JUMPDEST SWAP2 POP DUP2 SWAP1 POP SWAP6 SWAP5 POP POP POP POP POP JUMP JUMPDEST PUSH32 0x4E487B7100000000000000000000000000000000000000000000000000000000 PUSH0 MSTORE PUSH1 0x12 PUSH1 0x4 MSTORE PUSH1 0x24 PUSH0 REVERT JUMPDEST PUSH0 PUSH3 0xE24 DUP3 PUSH3 0x614 JUMP JUMPDEST SWAP2 POP PUSH3 0xE31 DUP4 PUSH3 0x614 JUMP JUMPDEST SWAP3 POP DUP3 PUSH3 0xE44 JUMPI PUSH3 0xE43 PUSH3 0xDEB JUMP JUMPDEST JUMPDEST DUP3 DUP3 DIV SWAP1 POP SWAP3 SWAP2 POP POP JUMP JUMPDEST PUSH0 PUSH3 0xE5B DUP3 PUSH3 0x614 JUMP JUMPDEST SWAP2 POP PUSH3 0xE68 DUP4 PUSH3 0x614 JUMP JUMPDEST SWAP3 POP DUP3 DUP3 SUB SWAP1 POP DUP2 DUP2 GT ISZERO PUSH3 0xE83 JUMPI PUSH3 0xE82 PUSH3 0xC42 JUMP JUMPDEST JUMPDEST SWAP3 SWAP2 POP POP JUMP JUMPDEST PUSH2 0xB67 DUP1 PUSH3 0xE97 PUSH0 CODECOPY PUSH0 RETURN INVALID PUSH1 0x80 PUSH1 0x40 MSTORE CALLVALUE DUP1 ISZERO PUSH2 0xF JUMPI PUSH0 DUP1 REVERT JUMPDEST POP PUSH1 0x4 CALLDATASIZE LT PUSH2 0xB2 JUMPI PUSH0 CALLDATALOAD PUSH1 0xE0 SHR DUP1 PUSH4 0x6A49F979 GT PUSH2 0x6F JUMPI DUP1 PUSH4 0x6A49F979 EQ PUSH2 0x17D JUMPI DUP1 PUSH4 0x95D89B41 EQ PUSH2 0x19B JUMPI DUP1 PUSH4 0xB62A62EC EQ PUSH2 0x1B9 JUMPI DUP1 PUSH4 0xE8315742 EQ PUSH2 0x1D7 JUMPI DUP1 PUSH4 0xF22A195E EQ PUSH2 0x1F5 JUMPI DUP1 PUSH4 0xF82900B1 EQ PUSH2 0x213 JUMPI PUSH2 0xB2 JUMP JUMPDEST DUP1 PUSH4 0x572B0CC EQ PUSH2 0xB6 JUMPI DUP1 PUSH4 0x6FDDE03 EQ PUSH2 0xD4 JUMPI DUP1 PUSH4 0x18160DDD EQ PUSH2 0xF2 JUMPI DUP1 PUSH4 0x3BA0B9A9 EQ PUSH2 0x110 JUMPI DUP1 PUSH4 0x4FC8A991 EQ PUSH2 0x12E JUMPI DUP1 PUSH4 0x57E871E7 EQ PUSH2 0x15F JUMPI JUMPDEST PUSH0 DUP1 REVERT JUMPDEST PUSH2 0xBE PUSH2 0x231 JUMP JUMPDEST PUSH1 0x40 MLOAD PUSH2 0xCB SWAP2 SWAP1 PUSH2 0x609 JUMP JUMPDEST PUSH1 0x40 MLOAD DUP1 SWAP2 SUB SWAP1 RETURN JUMPDEST PUSH2 0xDC PUSH2 0x23A JUMP JUMPDEST PUSH1 0x40 MLOAD PUSH2 0xE9 SWAP2 SWAP1 PUSH2 0x6AC JUMP JUMPDEST PUSH1 0x40 MLOAD DUP1 SWAP2 SUB SWAP1 RETURN JUMPDEST PUSH2 0xFA PUSH2 0x2C6 JUMP JUMPDEST PUSH1 0x40 MLOAD PUSH2 0x107 SWAP2 SWAP1 PUSH2 0x609 JUMP JUMPDEST PUSH1 0x40 MLOAD DUP1 SWAP2 SUB SWAP1 RETURN JUMPDEST PUSH2 0x118 PUSH2 0x2CC JUMP JUMPDEST PUSH1 0x40 MLOAD PUSH2 0x125 SWAP2 SWAP1 PUSH2 0x6E7 JUMP JUMPDEST PUSH1 0x40 MLOAD DUP1 SWAP2 SUB SWAP1 RETURN JUMPDEST PUSH2 0x148 PUSH1 0x4 DUP1 CALLDATASIZE SUB DUP2 ADD SWAP1 PUSH2 0x143 SWAP2 SWAP1 PUSH2 0x897 JUMP JUMPDEST PUSH2 0x2DE JUMP JUMPDEST PUSH1 0x40 MLOAD PUSH2 0x156 SWAP3 SWAP2 SWAP1 PUSH2 0x923 JUMP JUMPDEST PUSH1 0x40 MLOAD DUP1 SWAP2 SUB SWAP1 RETURN JUMPDEST PUSH2 0x167 PUSH2 0x432 JUMP JUMPDEST PUSH1 0x40 MLOAD PUSH2 0x174 SWAP2 SWAP1 PUSH2 0x609 JUMP JUMPDEST PUSH1 0x40 MLOAD DUP1 SWAP2 SUB SWAP1 RETURN JUMPDEST PUSH2 0x185 PUSH2 0x438 JUMP JUMPDEST PUSH1 0x40 MLOAD PUSH2 0x192 SWAP2 SWAP1 PUSH2 0x6AC JUMP JUMPDEST PUSH1 0x40 MLOAD DUP1 SWAP2 SUB SWAP1 RETURN JUMPDEST PUSH2 0x1A3 PUSH2 0x4C4 JUMP JUMPDEST PUSH1 0x40 MLOAD PUSH2 0x1B0 SWAP2 SWAP1 PUSH2 0x6AC JUMP JUMPDEST PUSH1 0x40 MLOAD DUP1 SWAP2 SUB SWAP1 RETURN JUMPDEST PUSH2 0x1C1 PUSH2 0x550 JUMP JUMPDEST PUSH1 0x40 MLOAD PUSH2 0x1CE SWAP2 SWAP1 PUSH2 0x6AC JUMP JUMPDEST PUSH1 0x40 MLOAD DUP1 SWAP2 SUB SWAP1 RETURN JUMPDEST PUSH2 0x1DF PUSH2 0x5E0 JUMP JUMPDEST PUSH1 0x40 MLOAD PUSH2 0x1EC SWAP2 SWAP1 PUSH2 0x609 JUMP JUMPDEST PUSH1 0x40 MLOAD DUP1 SWAP2 SUB SWAP1 RETURN JUMPDEST PUSH2 0x1FD PUSH2 0x5E5 JUMP JUMPDEST PUSH1 0x40 MLOAD PUSH2 0x20A SWAP2 SWAP1 PUSH2 0x94A JUMP JUMPDEST PUSH1 0x40 MLOAD DUP1 SWAP2 SUB SWAP1 RETURN JUMPDEST PUSH2 0x21B PUSH2 0x5EB JUMP JUMPDEST PUSH1 0x40 MLOAD PUSH2 0x228 SWAP2 SWAP1 PUSH2 0x609 JUMP JUMPDEST PUSH1 0x40 MLOAD DUP1 SWAP2 SUB SWAP1 RETURN JUMPDEST PUSH0 PUSH1 0x9 SLOAD SWAP1 POP SWAP1 JUMP JUMPDEST PUSH1 0x3 DUP1 SLOAD PUSH2 0x247 SWAP1 PUSH2 0x990 JUMP JUMPDEST DUP1 PUSH1 0x1F ADD PUSH1 0x20 DUP1 SWAP2 DIV MUL PUSH1 0x20 ADD PUSH1 0x40 MLOAD SWAP1 DUP2 ADD PUSH1 0x40 MSTORE DUP1 SWAP3 SWAP2 SWAP1 DUP2 DUP2 MSTORE PUSH1 0x20 ADD DUP3 DUP1 SLOAD PUSH2 0x273 SWAP1 PUSH2 0x990 JUMP JUMPDEST DUP1 ISZERO PUSH2 0x2BE JUMPI DUP1 PUSH1 0x1F LT PUSH2 0x295 JUMPI PUSH2 0x100 DUP1 DUP4 SLOAD DIV MUL DUP4 MSTORE SWAP2 PUSH1 0x20 ADD SWAP2 PUSH2 0x2BE JUMP JUMPDEST DUP3 ADD SWAP2 SWAP1 PUSH0 MSTORE PUSH1 0x20 PUSH0 KECCAK256 SWAP1 JUMPDEST DUP2 SLOAD DUP2 MSTORE SWAP1 PUSH1 0x1 ADD SWAP1 PUSH1 0x20 ADD DUP1 DUP4 GT PUSH2 0x2A1 JUMPI DUP3 SWAP1 SUB PUSH1 0x1F AND DUP3 ADD SWAP2 JUMPDEST POP POP POP POP POP DUP2 JUMP JUMPDEST PUSH1 0x1 SLOAD DUP2 JUMP JUMPDEST PUSH1 0x4 PUSH0 SWAP1 SLOAD SWAP1 PUSH2 0x100 EXP SWAP1 DIV PUSH1 0xFF AND DUP2 JUMP JUMPDEST PUSH0 DUP1 PUSH0 PUSH1 0x8 DUP5 PUSH1 0x40 MLOAD PUSH1 0x20 ADD PUSH2 0x2F5 SWAP3 SWAP2 SWAP1 PUSH2 0xA8C JUMP JUMPDEST PUSH1 0x40 MLOAD PUSH1 0x20 DUP2 DUP4 SUB SUB DUP2 MSTORE SWAP1 PUSH1 0x40 MSTORE SWAP1 POP PUSH0 DUP2 PUSH1 0x40 MLOAD PUSH1 0x20 ADD PUSH2 0x318 SWAP2 SWAP1 PUSH2 0x6AC JUMP JUMPDEST PUSH1 0x40 MLOAD PUSH1 0x20 DUP2 DUP4 SUB SUB DUP2 MSTORE SWAP1 PUSH1 0x40 MSTORE DUP1 MLOAD SWAP1 PUSH1 0x20 ADD KECCAK256 SWAP1 POP PUSH0 JUMPDEST PUSH1 0x20 DUP2 PUSH1 0xFF AND GT PUSH2 0x421 JUMPI PUSH0 DUP3 DUP3 PUSH1 0xFF AND PUSH1 0x20 DUP2 LT PUSH2 0x354 JUMPI PUSH2 0x353 PUSH2 0xAAF JUMP JUMPDEST JUMPDEST BYTE PUSH1 0xF8 SHL SWAP1 POP PUSH1 0xA PUSH1 0x1 SWAP1 SLOAD SWAP1 PUSH2 0x100 EXP SWAP1 DIV PUSH1 0xF8 SHL PUSH31 0xFFFFFFFFFFFFFFFFFFFFFFFFFFFFFFFFFFFFFFFFFFFFFFFFFFFFFFFFFFFFFF NOT AND DUP2 PUSH31 0xFFFFFFFFFFFFFFFFFFFFFFFFFFFFFFFFFFFFFFFFFFFFFFFFFFFFFFFFFFFFFF NOT AND SUB PUSH2 0x40D JUMPI PUSH1 0x9 SLOAD PUSH1 0x5 SLOAD DUP10 PUSH20 0xFFFFFFFFFFFFFFFFFFFFFFFFFFFFFFFFFFFFFFFF AND PUSH32 0x5A9EC13C12CA9563A7B3108125F74C57ED388BB313394EA50F7E4A71B01497C2 PUSH1 0x40 MLOAD PUSH1 0x40 MLOAD DUP1 SWAP2 SUB SWAP1 LOG4 PUSH1 0x1 DUP4 SWAP6 POP SWAP6 POP POP POP POP POP PUSH2 0x42B JUMP JUMPDEST POP DUP1 DUP1 PUSH2 0x419 SWAP1 PUSH2 0xB09 JUMP JUMPDEST SWAP2 POP POP PUSH2 0x332 JUMP JUMPDEST POP PUSH0 DUP2 SWAP4 POP SWAP4 POP POP POP JUMPDEST SWAP3 POP SWAP3 SWAP1 POP JUMP JUMPDEST PUSH1 0x5 SLOAD DUP2 JUMP JUMPDEST PUSH1 0x8 DUP1 SLOAD PUSH2 0x445 SWAP1 PUSH2 0x990 JUMP JUMPDEST DUP1 PUSH1 0x1F ADD PUSH1 0x20 DUP1 SWAP2 DIV MUL PUSH1 0x20 ADD PUSH1 0x40 MLOAD SWAP1 DUP2 ADD PUSH1 0x40 MSTORE DUP1 SWAP3 SWAP2 SWAP1 DUP2 DUP2 MSTORE PUSH1 0x20 ADD DUP3 DUP1 SLOAD PUSH2 0x471 SWAP1 PUSH2 0x990 JUMP JUMPDEST DUP1 ISZERO PUSH2 0x4BC JUMPI DUP1 PUSH1 0x1F LT PUSH2 0x493 JUMPI PUSH2 0x100 DUP1 DUP4 SLOAD DIV MUL DUP4 MSTORE SWAP2 PUSH1 0x20 ADD SWAP2 PUSH2 0x4BC JUMP JUMPDEST DUP3 ADD SWAP2 SWAP1 PUSH0 MSTORE PUSH1 0x20 PUSH0 KECCAK256 SWAP1 JUMPDEST DUP2 SLOAD DUP2 MSTORE SWAP1 PUSH1 0x1 ADD SWAP1 PUSH1 0x20 ADD DUP1 DUP4 GT PUSH2 0x49F JUMPI DUP3 SWAP1 SUB PUSH1 0x1F AND DUP3 ADD SWAP2 JUMPDEST POP POP POP POP POP DUP2 JUMP JUMPDEST PUSH1 0x2 DUP1 SLOAD PUSH2 0x4D1 SWAP1 PUSH2 0x990 JUMP JUMPDEST DUP1 PUSH1 0x1F ADD PUSH1 0x20 DUP1 SWAP2 DIV MUL PUSH1 0x20 ADD PUSH1 0x40 MLOAD SWAP1 DUP2 ADD PUSH1 0x40 MSTORE DUP1 SWAP3 SWAP2 SWAP1 DUP2 DUP2 MSTORE PUSH1 0x20 ADD DUP3 DUP1 SLOAD PUSH2 0x4FD SWAP1 PUSH2 0x990 JUMP JUMPDEST DUP1 ISZERO PUSH2 0x548 JUMPI DUP1 PUSH1 0x1F LT PUSH2 0x51F JUMPI PUSH2 0x100 DUP1 DUP4 SLOAD DIV MUL DUP4 MSTORE SWAP2 PUSH1 0x20 ADD SWAP2 PUSH2 0x548 JUMP JUMPDEST DUP3 ADD SWAP2 SWAP1 PUSH0 MSTORE PUSH1 0x20 PUSH0 KECCAK256 SWAP1 JUMPDEST DUP2 SLOAD DUP2 MSTORE SWAP1 PUSH1 0x1 ADD SWAP1 PUSH1 0x20 ADD DUP1 DUP4 GT PUSH2 0x52B JUMPI DUP3 SWAP1 SUB PUSH1 0x1F AND DUP3 ADD SWAP2 JUMPDEST POP POP POP POP POP DUP2 JUMP JUMPDEST PUSH1 0x60 PUSH1 0x8 DUP1 SLOAD PUSH2 0x55F SWAP1 PUSH2 0x990 JUMP JUMPDEST DUP1 PUSH1 0x1F ADD PUSH1 0x20 DUP1 SWAP2 DIV MUL PUSH1 0x20 ADD PUSH1 0x40 MLOAD SWAP1 DUP2 ADD PUSH1 0x40 MSTORE DUP1 SWAP3 SWAP2 SWAP1 DUP2 DUP2 MSTORE PUSH1 0x20 ADD DUP3 DUP1 SLOAD PUSH2 0x58B SWAP1 PUSH2 0x990 JUMP JUMPDEST DUP1 ISZERO PUSH2 0x5D6 JUMPI DUP1 PUSH1 0x1F LT PUSH2 0x5AD JUMPI PUSH2 0x100 DUP1 DUP4 SLOAD DIV MUL DUP4 MSTORE SWAP2 PUSH1 0x20 ADD SWAP2 PUSH2 0x5D6 JUMP JUMPDEST DUP3 ADD SWAP2 SWAP1 PUSH0 MSTORE PUSH1 0x20 PUSH0 KECCAK256 SWAP1 JUMPDEST DUP2 SLOAD DUP2 MSTORE SWAP1 PUSH1 0x1 ADD SWAP1 PUSH1 0x20 ADD DUP1 DUP4 GT PUSH2 0x5B9 JUMPI DUP3 SWAP1 SUB PUSH1 0x1F AND DUP3 ADD SWAP2 JUMPDEST POP POP POP POP POP SWAP1 POP SWAP1 JUMP JUMPDEST PUSH0 SLOAD DUP2 JUMP JUMPDEST PUSH1 0x6 SLOAD DUP2 JUMP JUMPDEST PUSH1 0x9 SLOAD DUP2 JUMP JUMPDEST PUSH0 DUP2 SWAP1 POP SWAP2 SWAP1 POP JUMP JUMPDEST PUSH2 0x603 DUP2 PUSH2 0x5F1 JUMP JUMPDEST DUP3 MSTORE POP POP JUMP JUMPDEST PUSH0 PUSH1 0x20 DUP3 ADD SWAP1 POP PUSH2 0x61C PUSH0 DUP4 ADD DUP5 PUSH2 0x5FA JUMP JUMPDEST SWAP3 SWAP2 POP POP JUMP JUMPDEST PUSH0 DUP2 MLOAD SWAP1 POP SWAP2 SWAP1 POP JUMP JUMPDEST PUSH0 DUP3 DUP3 MSTORE PUSH1 0x20 DUP3 ADD SWAP1 POP SWAP3 SWAP2 POP POP JUMP JUMPDEST PUSH0 JUMPDEST DUP4 DUP2 LT ISZERO PUSH2 0x659 JUMPI DUP1 DUP3 ADD MLOAD DUP2 DUP5 ADD MSTORE PUSH1 0x20 DUP2 ADD SWAP1 POP PUSH2 0x63E JUMP JUMPDEST PUSH0 DUP5 DUP5 ADD MSTORE POP POP POP POP JUMP JUMPDEST PUSH0 PUSH1 0x1F NOT PUSH1 0x1F DUP4 ADD AND SWAP1 POP SWAP2 SWAP1 POP JUMP JUMPDEST PUSH0 PUSH2 0x67E DUP3 PUSH2 0x622 JUMP JUMPDEST PUSH2 0x688 DUP2 DUP6 PUSH2 0x62C JUMP JUMPDEST SWAP4 POP PUSH2 0x698 DUP2 DUP6 PUSH1 0x20 DUP7 ADD PUSH2 0x63C JUMP JUMPDEST PUSH2 0x6A1 DUP2 PUSH2 0x664 JUMP JUMPDEST DUP5 ADD SWAP2 POP POP SWAP3 SWAP2 POP POP JUMP JUMPDEST PUSH0 PUSH1 0x20 DUP3 ADD SWAP1 POP DUP2 DUP2 SUB PUSH0 DUP4 ADD MSTORE PUSH2 0x6C4 DUP2 DUP5 PUSH2 0x674 JUMP JUMPDEST SWAP1 POP SWAP3 SWAP2 POP POP JUMP JUMPDEST PUSH0 PUSH1 0xFF DUP3 AND SWAP1 POP SWAP2 SWAP1 POP JUMP JUMPDEST PUSH2 0x6E1 DUP2 PUSH2 0x6CC JUMP JUMPDEST DUP3 MSTORE POP POP JUMP JUMPDEST PUSH0 PUSH1 0x20 DUP3 ADD SWAP1 POP PUSH2 0x6FA PUSH0 DUP4 ADD DUP5 PUSH2 0x6D8 JUMP JUMPDEST SWAP3 SWAP2 POP POP JUMP JUMPDEST PUSH0 PUSH1 0x40 MLOAD SWAP1 POP SWAP1 JUMP JUMPDEST PUSH0 DUP1 REVERT JUMPDEST PUSH0 DUP1 REVERT JUMPDEST PUSH0 PUSH20 0xFFFFFFFFFFFFFFFFFFFFFFFFFFFFFFFFFFFFFFFF DUP3 AND SWAP1 POP SWAP2 SWAP1 POP JUMP JUMPDEST PUSH0 PUSH2 0x73A DUP3 PUSH2 0x711 JUMP JUMPDEST SWAP1 POP SWAP2 SWAP1 POP JUMP JUMPDEST PUSH2 0x74A DUP2 PUSH2 0x730 JUMP JUMPDEST DUP2 EQ PUSH2 0x754 JUMPI PUSH0 DUP1 REVERT JUMPDEST POP JUMP JUMPDEST PUSH0 DUP2 CALLDATALOAD SWAP1 POP PUSH2 0x765 DUP2 PUSH2 0x741 JUMP JUMPDEST SWAP3 SWAP2 POP POP JUMP JUMPDEST PUSH0 DUP1 REVERT JUMPDEST PUSH0 DUP1 REVERT JUMPDEST PUSH32 0x4E487B7100000000000000000000000000000000000000000000000000000000 PUSH0 MSTORE PUSH1 0x41 PUSH1 0x4 MSTORE PUSH1 0x24 PUSH0 REVERT JUMPDEST PUSH2 0x7A9 DUP3 PUSH2 0x664 JUMP JUMPDEST DUP2 ADD DUP2 DUP2 LT PUSH8 0xFFFFFFFFFFFFFFFF DUP3 GT OR ISZERO PUSH2 0x7C8 JUMPI PUSH2 0x7C7 PUSH2 0x773 JUMP JUMPDEST JUMPDEST DUP1 PUSH1 0x40 MSTORE POP POP POP JUMP JUMPDEST PUSH0 PUSH2 0x7DA PUSH2 0x700 JUMP JUMPDEST SWAP1 POP PUSH2 0x7E6 DUP3 DUP3 PUSH2 0x7A0 JUMP JUMPDEST SWAP2 SWAP1 POP JUMP JUMPDEST PUSH0 PUSH8 0xFFFFFFFFFFFFFFFF DUP3 GT ISZERO PUSH2 0x805 JUMPI PUSH2 0x804 PUSH2 0x773 JUMP JUMPDEST JUMPDEST PUSH2 0x80E DUP3 PUSH2 0x664 JUMP JUMPDEST SWAP1 POP PUSH1 0x20 DUP2 ADD SWAP1 POP SWAP2 SWAP1 POP JUMP JUMPDEST DUP3 DUP2 DUP4 CALLDATACOPY PUSH0 DUP4 DUP4 ADD MSTORE POP POP POP JUMP JUMPDEST PUSH0 PUSH2 0x83B PUSH2 0x836 DUP5 PUSH2 0x7EB JUMP JUMPDEST PUSH2 0x7D1 JUMP JUMPDEST SWAP1 POP DUP3 DUP2 MSTORE PUSH1 0x20 DUP2 ADD DUP5 DUP5 DUP5 ADD GT ISZERO PUSH2 0x857 JUMPI PUSH2 0x856 PUSH2 0x76F JUMP JUMPDEST JUMPDEST PUSH2 0x862 DUP5 DUP3 DUP6 PUSH2 0x81B JUMP JUMPDEST POP SWAP4 SWAP3 POP POP POP JUMP JUMPDEST PUSH0 DUP3 PUSH1 0x1F DUP4 ADD SLT PUSH2 0x87E JUMPI PUSH2 0x87D PUSH2 0x76B JUMP JUMPDEST JUMPDEST DUP2 CALLDATALOAD PUSH2 0x88E DUP5 DUP3 PUSH1 0x20 DUP7 ADD PUSH2 0x829 JUMP JUMPDEST SWAP2 POP POP SWAP3 SWAP2 POP POP JUMP JUMPDEST PUSH0 DUP1 PUSH1 0x40 DUP4 DUP6 SUB SLT ISZERO PUSH2 0x8AD JUMPI PUSH2 0x8AC PUSH2 0x709 JUMP JUMPDEST JUMPDEST PUSH0 PUSH2 0x8BA DUP6 DUP3 DUP7 ADD PUSH2 0x757 JUMP JUMPDEST SWAP3 POP POP PUSH1 0x20 DUP4 ADD CALLDATALOAD PUSH8 0xFFFFFFFFFFFFFFFF DUP2 GT ISZERO PUSH2 0x8DB JUMPI PUSH2 0x8DA PUSH2 0x70D JUMP JUMPDEST JUMPDEST PUSH2 0x8E7 DUP6 DUP3 DUP7 ADD PUSH2 0x86A JUMP JUMPDEST SWAP2 POP POP SWAP3 POP SWAP3 SWAP1 POP JUMP JUMPDEST PUSH0 DUP2 ISZERO ISZERO SWAP1 POP SWAP2 SWAP1 POP JUMP JUMPDEST PUSH2 0x905 DUP2 PUSH2 0x8F1 JUMP JUMPDEST DUP3 MSTORE POP POP JUMP JUMPDEST PUSH0 DUP2 SWAP1 POP SWAP2 SWAP1 POP JUMP JUMPDEST PUSH2 0x91D DUP2 PUSH2 0x90B JUMP JUMPDEST DUP3 MSTORE POP POP JUMP JUMPDEST PUSH0 PUSH1 0x40 DUP3 ADD SWAP1 POP PUSH2 0x936 PUSH0 DUP4 ADD DUP6 PUSH2 0x8FC JUMP JUMPDEST PUSH2 0x943 PUSH1 0x20 DUP4 ADD DUP5 PUSH2 0x914 JUMP JUMPDEST SWAP4 SWAP3 POP POP POP JUMP JUMPDEST PUSH0 PUSH1 0x20 DUP3 ADD SWAP1 POP PUSH2 0x95D PUSH0 DUP4 ADD DUP5 PUSH2 0x914 JUMP JUMPDEST SWAP3 SWAP2 POP POP JUMP JUMPDEST PUSH32 0x4E487B7100000000000000000000000000000000000000000000000000000000 PUSH0 MSTORE PUSH1 0x22 PUSH1 0x4 MSTORE PUSH1 0x24 PUSH0 REVERT JUMPDEST PUSH0 PUSH1 0x2 DUP3 DIV SWAP1 POP PUSH1 0x1 DUP3 AND DUP1 PUSH2 0x9A7 JUMPI PUSH1 0x7F DUP3 AND SWAP2 POP JUMPDEST PUSH1 0x20 DUP3 LT DUP2 SUB PUSH2 0x9BA JUMPI PUSH2 0x9B9 PUSH2 0x963 JUMP JUMPDEST JUMPDEST POP SWAP2 SWAP1 POP JUMP JUMPDEST PUSH0 DUP2 SWAP1 POP SWAP3 SWAP2 POP POP JUMP JUMPDEST PUSH0 DUP2 SWAP1 POP DUP2 PUSH0 MSTORE PUSH1 0x20 PUSH0 KECCAK256 SWAP1 POP SWAP2 SWAP1 POP JUMP JUMPDEST PUSH0 DUP2 SLOAD PUSH2 0x9E8 DUP2 PUSH2 0x990 JUMP JUMPDEST PUSH2 0x9F2 DUP2 DUP7 PUSH2 0x9C0 JUMP JUMPDEST SWAP5 POP PUSH1 0x1 DUP3 AND PUSH0 DUP2 EQ PUSH2 0xA0C JUMPI PUSH1 0x1 DUP2 EQ PUSH2 0xA21 JUMPI PUSH2 0xA53 JUMP JUMPDEST PUSH1 0xFF NOT DUP4 AND DUP7 MSTORE DUP2 ISZERO ISZERO DUP3 MUL DUP7 ADD SWAP4 POP PUSH2 0xA53 JUMP JUMPDEST PUSH2 0xA2A DUP6 PUSH2 0x9CA JUMP JUMPDEST PUSH0 JUMPDEST DUP4 DUP2 LT ISZERO PUSH2 0xA4B JUMPI DUP2 SLOAD DUP2 DUP10 ADD MSTORE PUSH1 0x1 DUP3 ADD SWAP2 POP PUSH1 0x20 DUP2 ADD SWAP1 POP PUSH2 0xA2C JUMP JUMPDEST DUP4 DUP9 ADD SWAP6 POP POP POP JUMPDEST POP POP POP SWAP3 SWAP2 POP POP JUMP JUMPDEST PUSH0 PUSH2 0xA66 DUP3 PUSH2 0x622 JUMP JUMPDEST PUSH2 0xA70 DUP2 DUP6 PUSH2 0x9C0 JUMP JUMPDEST SWAP4 POP PUSH2 0xA80 DUP2 DUP6 PUSH1 0x20 DUP7 ADD PUSH2 0x63C JUMP JUMPDEST DUP1 DUP5 ADD SWAP2 POP POP SWAP3 SWAP2 POP POP JUMP JUMPDEST PUSH0 PUSH2 0xA97 DUP3 DUP6 PUSH2 0x9DC JUMP JUMPDEST SWAP2 POP PUSH2 0xAA3 DUP3 DUP5 PUSH2 0xA5C JUMP JUMPDEST SWAP2 POP DUP2 SWAP1 POP SWAP4 SWAP3 POP POP POP JUMP JUMPDEST PUSH32 0x4E487B7100000000000000000000000000000000000000000000000000000000 PUSH0 MSTORE PUSH1 0x32 PUSH1 0x4 MSTORE PUSH1 0x24 PUSH0 REVERT JUMPDEST PUSH32 0x4E487B7100000000000000000000000000000000000000000000000000000000 PUSH0 MSTORE PUSH1 0x11 PUSH1 0x4 MSTORE PUSH1 0x24 PUSH0 REVERT JUMPDEST PUSH0 PUSH2 0xB13 DUP3 PUSH2 0x6CC JUMP JUMPDEST SWAP2 POP PUSH1 0xFF DUP3 SUB PUSH2 0xB26 JUMPI PUSH2 0xB25 PUSH2 0xADC JUMP JUMPDEST JUMPDEST PUSH1 0x1 DUP3 ADD SWAP1 POP SWAP2 SWAP1 POP JUMP INVALID LOG2 PUSH5 0x6970667358 0x22 SLT KECCAK256 0xAC PUSH23 0xE1A451828BFCE3AFCABF7809EA01B8DED9AD561EA89551 JUMPDEST PUSH25 0xF5AC744F7364736F6C63430008180033A26469706673582212 KECCAK256 0xC2 PUSH23 0x73ECC34DCEC26633E08AC052539897E77607342C7232C5 0xCB DUP11 0xAF ORIGIN CALLDATALOAD 0x29 RETURNDATACOPY PUSH5 0x736F6C6343 STOP ADDMOD XOR STOP CALLER "
		},
		"gasEstimates": {
			"creation": {
				"codeDepositCost": "3392400",
				"executionCost": "28050",
				"totalCost": "3420450"
			},
			"external": {
				"createDebtList(address,address,uint256,uint256)": "infinite",
				"debtFund()": "2448",
				"debtList(address)": "infinite",
				"getCreditorAlreadyGetFromDebtFundBool(address)": "3036",
				"getCreditorDataByDebtorAddress(address)": "infinite",
				"getCurrentDebtAmount()": "2521",
				"getCurrentMining()": "infinite",
				"getCurrentMiningAddress()": "2654",
				"getDebtCreditorAndAmount(address)": "infinite",
				"getDebtFund()": "2499",
				"repayDebt(address,address,uint256)": "infinite",
				"setCreditorAlreadyGetFromDebtFund()": "infinite",
				"takePieceOfDebtFund(address,uint256,string,string,uint256)": "infinite",
				"tryToGetBlock(address,string)": "infinite",
				"validateDebtList(address,address,uint256,uint256,uint256)": "infinite"
			},
			"internal": {
				"calculateDebtFund(uint256)": "infinite",
				"calculateInterestUntil(uint256,uint256,uint256,uint256)": "infinite"
			}
		},
		"methodIdentifiers": {
			"createDebtList(address,address,uint256,uint256)": "9a5c5e64",
			"debtFund()": "768bb81f",
			"debtList(address)": "b57161f5",
			"getCreditorAlreadyGetFromDebtFundBool(address)": "5795fe07",
			"getCreditorDataByDebtorAddress(address)": "33ecb31e",
			"getCurrentDebtAmount()": "60416a9c",
			"getCurrentMining()": "afe40e09",
			"getCurrentMiningAddress()": "fe8ed985",
			"getDebtCreditorAndAmount(address)": "39769e08",
			"getDebtFund()": "a69e8bb9",
			"repayDebt(address,address,uint256)": "f5b92c73",
			"setCreditorAlreadyGetFromDebtFund()": "09d70853",
			"takePieceOfDebtFund(address,uint256,string,string,uint256)": "d18e262e",
			"tryToGetBlock(address,string)": "35e30ae4",
			"validateDebtList(address,address,uint256,uint256,uint256)": "207a296a"
		}
	},
	"abi": [
		{
			"anonymous": false,
			"inputs": [
				{
					"indexed": true,
					"internalType": "uint256",
					"name": "amount",
					"type": "uint256"
				}
			],
			"name": "newDebt",
			"type": "event"
		},
		{
			"anonymous": false,
			"inputs": [
				{
					"indexed": true,
					"internalType": "uint256",
					"name": "amount",
					"type": "uint256"
				}
			],
			"name": "repayDebtToZero",
			"type": "event"
		},
		{
			"anonymous": false,
			"inputs": [
				{
					"indexed": true,
					"internalType": "uint256",
					"name": "amount",
					"type": "uint256"
				}
			],
			"name": "takePieceOfDebtFundCall",
			"type": "event"
		},
		{
			"inputs": [
				{
					"internalType": "address",
					"name": "debtor",
					"type": "address"
				},
				{
					"internalType": "address",
					"name": "creditor",
					"type": "address"
				},
				{
					"internalType": "uint256",
					"name": "amount",
					"type": "uint256"
				},
				{
					"internalType": "uint256",
					"name": "fees",
					"type": "uint256"
				}
			],
			"name": "createDebtList",
			"outputs": [
				{
					"internalType": "bool",
					"name": "",
					"type": "bool"
				}
			],
			"stateMutability": "nonpayable",
			"type": "function"
		},
		{
			"inputs": [],
			"name": "debtFund",
			"outputs": [
				{
					"internalType": "uint256",
					"name": "",
					"type": "uint256"
				}
			],
			"stateMutability": "view",
			"type": "function"
		},
		{
			"inputs": [
				{
					"internalType": "address",
					"name": "",
					"type": "address"
				}
			],
			"name": "debtList",
			"outputs": [
				{
					"internalType": "address",
					"name": "creditorAddress",
					"type": "address"
				},
				{
					"internalType": "uint256",
					"name": "debtAmount",
					"type": "uint256"
				},
				{
					"internalType": "uint256",
					"name": "interest",
					"type": "uint256"
				},
				{
					"internalType": "uint256",
					"name": "timeOfDebt",
					"type": "uint256"
				},
				{
					"internalType": "bool",
					"name": "validate",
					"type": "bool"
				},
				{
					"internalType": "bool",
					"name": "alreadyGetFromDebtFund",
					"type": "bool"
				}
			],
			"stateMutability": "view",
			"type": "function"
		},
		{
			"inputs": [
				{
					"internalType": "address",
					"name": "debtor",
					"type": "address"
				}
			],
			"name": "getCreditorAlreadyGetFromDebtFundBool",
			"outputs": [
				{
					"internalType": "bool",
					"name": "",
					"type": "bool"
				}
			],
			"stateMutability": "view",
			"type": "function"
		},
		{
			"inputs": [
				{
					"internalType": "address",
					"name": "debtor",
					"type": "address"
				}
			],
			"name": "getCreditorDataByDebtorAddress",
			"outputs": [
				{
					"components": [
						{
							"internalType": "address",
							"name": "creditorAddress",
							"type": "address"
						},
						{
							"internalType": "uint256",
							"name": "debtAmount",
							"type": "uint256"
						},
						{
							"internalType": "uint256",
							"name": "interest",
							"type": "uint256"
						},
						{
							"internalType": "uint256",
							"name": "timeOfDebt",
							"type": "uint256"
						},
						{
							"internalType": "bool",
							"name": "validate",
							"type": "bool"
						},
						{
							"internalType": "bool",
							"name": "alreadyGetFromDebtFund",
							"type": "bool"
						}
					],
					"internalType": "struct ModelLibrary.Creditor",
					"name": "",
					"type": "tuple"
				}
			],
			"stateMutability": "view",
			"type": "function"
		},
		{
			"inputs": [],
			"name": "getCurrentDebtAmount",
			"outputs": [
				{
					"internalType": "uint256",
					"name": "",
					"type": "uint256"
				}
			],
			"stateMutability": "view",
			"type": "function"
		},
		{
			"inputs": [],
			"name": "getCurrentMining",
			"outputs": [
				{
					"internalType": "contract MiningContract",
					"name": "",
					"type": "address"
				}
			],
			"stateMutability": "view",
			"type": "function"
		},
		{
			"inputs": [],
			"name": "getCurrentMiningAddress",
			"outputs": [
				{
					"internalType": "address",
					"name": "",
					"type": "address"
				}
			],
			"stateMutability": "view",
			"type": "function"
		},
		{
			"inputs": [
				{
					"internalType": "address",
					"name": "debtor",
					"type": "address"
				}
			],
			"name": "getDebtCreditorAndAmount",
			"outputs": [
				{
					"internalType": "address",
					"name": "",
					"type": "address"
				},
				{
					"internalType": "uint256",
					"name": "",
					"type": "uint256"
				}
			],
			"stateMutability": "view",
			"type": "function"
		},
		{
			"inputs": [],
			"name": "getDebtFund",
			"outputs": [
				{
					"internalType": "uint256",
					"name": "",
					"type": "uint256"
				}
			],
			"stateMutability": "view",
			"type": "function"
		},
		{
			"inputs": [
				{
					"internalType": "address",
					"name": "debtor",
					"type": "address"
				},
				{
					"internalType": "address",
					"name": "creditor",
					"type": "address"
				},
				{
					"internalType": "uint256",
					"name": "amount",
					"type": "uint256"
				}
			],
			"name": "repayDebt",
			"outputs": [
				{
					"internalType": "uint256",
					"name": "restDebt",
					"type": "uint256"
				}
			],
			"stateMutability": "payable",
			"type": "function"
		},
		{
			"inputs": [],
			"name": "setCreditorAlreadyGetFromDebtFund",
			"outputs": [
				{
					"internalType": "address",
					"name": "",
					"type": "address"
				},
				{
					"internalType": "uint256",
					"name": "",
					"type": "uint256"
				}
			],
			"stateMutability": "nonpayable",
			"type": "function"
		},
		{
			"inputs": [
				{
					"internalType": "address",
					"name": "debtor",
					"type": "address"
				},
				{
					"internalType": "uint256",
					"name": "currentDebt",
					"type": "uint256"
				},
				{
					"internalType": "string",
					"name": "symbol",
					"type": "string"
				},
				{
					"internalType": "string",
					"name": "name",
					"type": "string"
				},
				{
					"internalType": "uint256",
					"name": "totalSupply",
					"type": "uint256"
				}
			],
			"name": "takePieceOfDebtFund",
			"outputs": [],
			"stateMutability": "nonpayable",
			"type": "function"
		},
		{
			"inputs": [
				{
					"internalType": "address",
					"name": "miner",
					"type": "address"
				},
				{
					"internalType": "string",
					"name": "input",
					"type": "string"
				}
			],
			"name": "tryToGetBlock",
			"outputs": [
				{
					"internalType": "bool",
					"name": "",
					"type": "bool"
				},
				{
					"internalType": "bytes32",
					"name": "",
					"type": "bytes32"
				}
			],
			"stateMutability": "nonpayable",
			"type": "function"
		},
		{
			"inputs": [
				{
					"internalType": "address",
					"name": "debtor",
					"type": "address"
				},
				{
					"internalType": "address",
					"name": "creditor",
					"type": "address"
				},
				{
					"internalType": "uint256",
					"name": "amount",
					"type": "uint256"
				},
				{
					"internalType": "uint256",
					"name": "fees",
					"type": "uint256"
				},
				{
					"internalType": "uint256",
					"name": "addToDebtFund",
					"type": "uint256"
				}
			],
			"name": "validateDebtList",
			"outputs": [
				{
					"internalType": "bool",
					"name": "",
					"type": "bool"
				}
			],
			"stateMutability": "nonpayable",
			"type": "function"
		}
	]
}