{
	"data": {
		"bytecode": {
			"linkReferences": {},
			"object": "61016060405264e8d4a510006009556061600a5f6101000a81548160ff021916908360ff1602179055505f600a60156101000a81548160ff0219169083151502179055503480156200004f575f80fd5b5060405162005acb38038062005acb833981810160405281019062000075919062000519565b6040518060400160405280600f81526020017f5472616465526f757465546f6b656e0000000000000000000000000000000000815250806040518060400160405280600181526020017f3100000000000000000000000000000000000000000000000000000000000000815250836040518060400160405280600f81526020017f5472616465526f757465546f6b656e00000000000000000000000000000000008152506040518060400160405280600381526020017f54525400000000000000000000000000000000000000000000000000000000008152508160039081620001609190620007ad565b508060049081620001729190620007ad565b5050505f60055f6101000a81548160ff0219169083151502179055505f73ffffffffffffffffffffffffffffffffffffffff168173ffffffffffffffffffffffffffffffffffffffff160362000201575f6040517f1e4fbdf7000000000000000000000000000000000000000000000000000000008152600401620001f89190620008a2565b60405180910390fd5b6200021281620002cb60201b60201c565b50620002296006836200039060201b90919060201c565b6101208181525050620002476007826200039060201b90919060201c565b6101408181525050818051906020012060e08181525050808051906020012061010081815250504660a0818152505062000286620003e560201b60201c565b608081815250503073ffffffffffffffffffffffffffffffffffffffff1660c08173ffffffffffffffffffffffffffffffffffffffff16815250505050505062000a8d565b5f600560019054906101000a900473ffffffffffffffffffffffffffffffffffffffff16905081600560016101000a81548173ffffffffffffffffffffffffffffffffffffffff021916908373ffffffffffffffffffffffffffffffffffffffff1602179055508173ffffffffffffffffffffffffffffffffffffffff168173ffffffffffffffffffffffffffffffffffffffff167f8be0079c531659141344cd1fd0a4f28419497f9722a3daafe3b4186f6b6457e060405160405180910390a35050565b5f602083511015620003b557620003ad836200044160201b60201c565b9050620003df565b82620003c783620004ab60201b60201c565b5f019081620003d79190620007ad565b5060ff5f1b90505b92915050565b5f7f8b73c3c69bb8fe3d512ecc4cf759cc79239f7b179b0ffacaa9a75d522b39400f60e05161010051463060405160200162000426959493929190620008e8565b60405160208183030381529060405280519060200120905090565b5f80829050601f815111156200049057826040517f305a27a9000000000000000000000000000000000000000000000000000000008152600401620004879190620009cd565b60405180910390fd5b8051816200049e9062000a1e565b5f1c175f1b915050919050565b5f819050919050565b5f80fd5b5f73ffffffffffffffffffffffffffffffffffffffff82169050919050565b5f620004e382620004b8565b9050919050565b620004f581620004d7565b811462000500575f80fd5b50565b5f815190506200051381620004ea565b92915050565b5f60208284031215620005315762000530620004b4565b5b5f620005408482850162000503565b91505092915050565b5f81519050919050565b7f4e487b71000000000000000000000000000000000000000000000000000000005f52604160045260245ffd5b7f4e487b71000000000000000000000000000000000000000000000000000000005f52602260045260245ffd5b5f6002820490506001821680620005c557607f821691505b602082108103620005db57620005da62000580565b5b50919050565b5f819050815f5260205f209050919050565b5f6020601f8301049050919050565b5f82821b905092915050565b5f600883026200063f7fffffffffffffffffffffffffffffffffffffffffffffffffffffffffffffffff8262000602565b6200064b868362000602565b95508019841693508086168417925050509392505050565b5f819050919050565b5f819050919050565b5f620006956200068f620006898462000663565b6200066c565b62000663565b9050919050565b5f819050919050565b620006b08362000675565b620006c8620006bf826200069c565b8484546200060e565b825550505050565b5f90565b620006de620006d0565b620006eb818484620006a5565b505050565b5b818110156200071257620007065f82620006d4565b600181019050620006f1565b5050565b601f82111562000761576200072b81620005e1565b6200073684620005f3565b8101602085101562000746578190505b6200075e6200075585620005f3565b830182620006f0565b50505b505050565b5f82821c905092915050565b5f620007835f198460080262000766565b1980831691505092915050565b5f6200079d838362000772565b9150826002028217905092915050565b620007b88262000549565b67ffffffffffffffff811115620007d457620007d362000553565b5b620007e08254620005ad565b620007ed82828562000716565b5f60209050601f83116001811462000823575f84156200080e578287015190505b6200081a858262000790565b86555062000889565b601f1984166200083386620005e1565b5f5b828110156200085c5784890151825560018201915060208501945060208101905062000835565b868310156200087c578489015162000878601f89168262000772565b8355505b6001600288020188555050505b505050505050565b6200089c81620004d7565b82525050565b5f602082019050620008b75f83018462000891565b92915050565b5f819050919050565b620008d181620008bd565b82525050565b620008e28162000663565b82525050565b5f60a082019050620008fd5f830188620008c6565b6200090c6020830187620008c6565b6200091b6040830186620008c6565b6200092a6060830185620008d7565b62000939608083018462000891565b9695505050505050565b5f82825260208201905092915050565b5f5b838110156200097257808201518184015260208101905062000955565b5f8484015250505050565b5f601f19601f8301169050919050565b5f620009998262000549565b620009a5818562000943565b9350620009b781856020860162000953565b620009c2816200097d565b840191505092915050565b5f6020820190508181035f830152620009e781846200098d565b905092915050565b5f81519050919050565b5f819050602082019050919050565b5f62000a158251620008bd565b80915050919050565b5f62000a2a82620009ef565b8262000a3684620009f9565b905062000a438162000a08565b9250602082101562000a865762000a817fffffffffffffffffffffffffffffffffffffffffffffffffffffffffffffffff8360200360080262000602565b831692505b5050919050565b60805160a05160c05160e051610100516101205161014051614fec62000adf5f395f61175901525f61171c01525f611a9001525f611a6f01525f6112e001525f61133701525f6113610152614fec5ff3fe608060405260043610620001a5575f3560e01c80637ecebe0011620000e4578063d0febe4c1162000096578063e791febd116200006c578063e791febd14620005a3578063e831574214620005d0578063f2fde38b14620005ff578063f4f9c241146200062c57620001a5565b8063d0febe4c1462000527578063d505accf1462000533578063dd62ed3e146200056057620001a5565b80637ecebe0014620003f55780638456cb59146200043857806384b0196e14620004515780638da5cb5b146200048657806395d89b4114620004b5578063a9059cbb14620004e457620001a5565b80633f4ba83a116200015c578063662fac391162000132578063662fac3914620003605780636be4cf1f146200037957806370a082311462000399578063715018a614620003dc57620001a5565b80633f4ba83a14620002eb57806340c10f1914620003045780635c975abb146200033157620001a5565b806306fdde0314620001a9578063095ea7b314620001d857806318160ddd146200021b57806323b872dd146200024a578063313ce567146200028d5780633644e51514620002bc575b5f80fd5b348015620001b5575f80fd5b50620001c062000659565b604051620001cf9190620022dd565b60405180910390f35b348015620001e4575f80fd5b50620002036004803603810190620001fd9190620023a9565b620006f1565b6040516200021291906200240a565b60405180910390f35b34801562000227575f80fd5b506200023262000717565b60405162000241919062002436565b60405180910390f35b34801562000256575f80fd5b506200027560048036038101906200026f919062002451565b62000720565b6040516200028491906200240a565b60405180910390f35b34801562000299575f80fd5b50620002a462000754565b604051620002b39190620024c7565b60405180910390f35b348015620002c8575f80fd5b50620002d36200075c565b604051620002e29190620024fc565b60405180910390f35b348015620002f7575f80fd5b50620003026200076c565b005b34801562000310575f80fd5b506200032f6004803603810190620003299190620023a9565b62000782565b005b3480156200033d575f80fd5b50620003486200079c565b6040516200035791906200240a565b60405180910390f35b3480156200036c575f80fd5b5062000377620007b1565b005b62000397600480360381019062000391919062002517565b62000918565b005b348015620003a5575f80fd5b50620003c46004803603810190620003be919062002517565b6200099a565b604051620003d3919062002436565b60405180910390f35b348015620003e8575f80fd5b50620003f3620009df565b005b34801562000401575f80fd5b506200042060048036038101906200041a919062002517565b620009f6565b6040516200042f919062002436565b60405180910390f35b34801562000444575f80fd5b506200044f62000a09565b005b3480156200045d575f80fd5b506200046862000a1f565b6040516200047d97969594939291906200265b565b60405180910390f35b34801562000492575f80fd5b506200049d62000acc565b604051620004ac9190620026eb565b60405180910390f35b348015620004c1575f80fd5b50620004cc62000af5565b604051620004db9190620022dd565b60405180910390f35b348015620004f0575f80fd5b506200050f6004803603810190620005099190620023a9565b62000b8d565b6040516200051e91906200240a565b60405180910390f35b6200053162000bb3565b005b3480156200053f575f80fd5b506200055e600480360381019062000558919062002764565b62000c3d565b005b3480156200056c575f80fd5b506200058b600480360381019062000585919062002812565b62000d92565b6040516200059a919062002436565b60405180910390f35b348015620005af575f80fd5b50620005ce6004803603810190620005c8919062002899565b62000e14565b005b348015620005dc575f80fd5b50620005e762000f09565b604051620005f6919062002436565b60405180910390f35b3480156200060b575f80fd5b506200062a600480360381019062000624919062002517565b62000f0f565b005b34801562000638575f80fd5b5062000657600480360381019062000651919062002a26565b62000f9a565b005b6060600380546200066a9062002aa2565b80601f0160208091040260200160405190810160405280929190818152602001828054620006989062002aa2565b8015620006e75780601f10620006bd57610100808354040283529160200191620006e7565b820191905f5260205f20905b815481529060010190602001808311620006c957829003601f168201915b5050505050905090565b5f80620006fd62001130565b90506200070c81858562001137565b600191505092915050565b5f600254905090565b5f806200072c62001130565b90506200073b8582856200114b565b62000748858585620011e5565b60019150509392505050565b5f6012905090565b5f62000767620012dd565b905090565b6200077662001398565b6200078062001428565b565b6200078c62001398565b6200079882826200148f565b5050565b5f60055f9054906101000a900460ff16905090565b5f620007bc62000717565b11620007ff576040517f08c379a0000000000000000000000000000000000000000000000000000000008152600401620007f69062002b4a565b60405180910390fd5b600a60159054906101000a900460ff161562000852576040517f08c379a0000000000000000000000000000000000000000000000000000000008152600401620008499062002bb8565b60405180910390fd5b600a5f9054906101000a900460ff166009546200086e62000af5565b6200087862000659565b6200088262000717565b60405162000890906200223b565b620008a095949392919062002bd8565b604051809103905ff080158015620008ba573d5f803e3d5ffd5b50600a60016101000a81548173ffffffffffffffffffffffffffffffffffffffff021916908373ffffffffffffffffffffffffffffffffffffffff1602179055506001600a60156101000a81548160ff021916908315150217905550565b5f620009243462001513565b90505f816200093262000717565b6200093e919062002c6e565b905080600954101562000988576040517f08c379a00000000000000000000000000000000000000000000000000000000081526004016200097f9062002cf6565b60405180910390fd5b6200099583838362001546565b505050565b5f805f8373ffffffffffffffffffffffffffffffffffffffff1673ffffffffffffffffffffffffffffffffffffffff1681526020019081526020015f20549050919050565b620009e962001398565b620009f45f6200159f565b565b5f62000a028262001664565b9050919050565b62000a1362001398565b62000a1d620016aa565b565b5f6060805f805f606062000a3262001712565b62000a3c6200174f565b46305f801b5f67ffffffffffffffff81111562000a5e5762000a5d620028e6565b5b60405190808252806020026020018201604052801562000a8d5781602001602082028036833780820191505090505b507f0f00000000000000000000000000000000000000000000000000000000000000959493929190965096509650965096509650965090919293949596565b5f600560019054906101000a900473ffffffffffffffffffffffffffffffffffffffff16905090565b60606004805462000b069062002aa2565b80601f016020809104026020016040519081016040528092919081815260200182805462000b349062002aa2565b801562000b835780601f1062000b595761010080835404028352916020019162000b83565b820191905f5260205f20905b81548152906001019060200180831162000b6557829003601f168201915b5050505050905090565b5f8062000b9962001130565b905062000ba8818585620011e5565b600191505092915050565b5f62000bbf3462001513565b90505f8162000bcd62000717565b62000bd9919062002c6e565b905080600954101562000c23576040517f08c379a000000000000000000000000000000000000000000000000000000000815260040162000c1a9062002cf6565b60405180910390fd5b62000c3962000c3162001130565b838362001546565b5050565b8342111562000c8557836040517f6279130200000000000000000000000000000000000000000000000000000000815260040162000c7c919062002436565b60405180910390fd5b5f7f6e71edae12b1b97f4d1f60370fef10105fa2faae0126114a169c64845d6126c988888862000cb58c6200178c565b8960405160200162000ccd9695949392919062002d16565b6040516020818303038152906040528051906020012090505f62000cf182620017df565b90505f62000d0282878787620017fc565b90508973ffffffffffffffffffffffffffffffffffffffff168173ffffffffffffffffffffffffffffffffffffffff161462000d7957808a6040517f4b800e4600000000000000000000000000000000000000000000000000000000815260040162000d7092919062002d81565b60405180910390fd5b62000d868a8a8a62001137565b50505050505050505050565b5f60015f8473ffffffffffffffffffffffffffffffffffffffff1673ffffffffffffffffffffffffffffffffffffffff1681526020019081526020015f205f8373ffffffffffffffffffffffffffffffffffffffff1673ffffffffffffffffffffffffffffffffffffffff1681526020019081526020015f2054905092915050565b8062000e2962000e2362001130565b6200099a565b101562000e6d576040517f08c379a000000000000000000000000000000000000000000000000000000000815260040162000e649062002dfa565b60405180910390fd5b62000e78816200182e565b90508047101562000ec0576040517f08c379a000000000000000000000000000000000000000000000000000000000815260040162000eb79062002e68565b60405180910390fd5b8173ffffffffffffffffffffffffffffffffffffffff166108fc8290811502906040515f60405180830381858888f1935050505015801562000f04573d5f803e3d5ffd5b505050565b60095481565b62000f1962001398565b5f73ffffffffffffffffffffffffffffffffffffffff168173ffffffffffffffffffffffffffffffffffffffff160362000f8c575f6040517f1e4fbdf700000000000000000000000000000000000000000000000000000000815260040162000f839190620026eb565b60405180910390fd5b62000f97816200159f565b50565b5f600a60019054906101000a900473ffffffffffffffffffffffffffffffffffffffff1673ffffffffffffffffffffffffffffffffffffffff16634fc8a99162000fe362001130565b846040518363ffffffff1660e01b81526004016200100392919062002e88565b6020604051808303815f875af115801562001020573d5f803e3d5ffd5b505050506040513d601f19601f8201168201806040525081019062001046919062002ee9565b905080156200112c575f600a60019054906101000a900473ffffffffffffffffffffffffffffffffffffffff1673ffffffffffffffffffffffffffffffffffffffff16630572b0cc6040518163ffffffff1660e01b8152600401602060405180830381865afa158015620010bc573d5f803e3d5ffd5b505050506040513d601f19601f82011682018060405250810190620010e2919062002f2f565b905062001110620010f262001130565b82620010fd62000717565b846200110a919062002c6e565b62001546565b5f600a60156101000a81548160ff021916908315150217905550505b5050565b5f33905090565b62001146838383600162001861565b505050565b5f62001158848462000d92565b90507fffffffffffffffffffffffffffffffffffffffffffffffffffffffffffffffff8114620011df5781811015620011ce578281836040517ffb8f41b2000000000000000000000000000000000000000000000000000000008152600401620011c59392919062002f5f565b60405180910390fd5b620011de84848484035f62001861565b5b50505050565b5f73ffffffffffffffffffffffffffffffffffffffff168373ffffffffffffffffffffffffffffffffffffffff160362001258575f6040517f96c6fd1e0000000000000000000000000000000000000000000000000000000081526004016200124f9190620026eb565b60405180910390fd5b5f73ffffffffffffffffffffffffffffffffffffffff168273ffffffffffffffffffffffffffffffffffffffff1603620012cb575f6040517fec442f05000000000000000000000000000000000000000000000000000000008152600401620012c29190620026eb565b60405180910390fd5b620012d883838362001a39565b505050565b5f7f000000000000000000000000000000000000000000000000000000000000000073ffffffffffffffffffffffffffffffffffffffff163073ffffffffffffffffffffffffffffffffffffffff161480156200135957507f000000000000000000000000000000000000000000000000000000000000000046145b1562001388577f0000000000000000000000000000000000000000000000000000000000000000905062001395565b6200139262001a4b565b90505b90565b620013a262001130565b73ffffffffffffffffffffffffffffffffffffffff16620013c262000acc565b73ffffffffffffffffffffffffffffffffffffffff16146200142657620013e862001130565b6040517f118cdaa70000000000000000000000000000000000000000000000000000000081526004016200141d9190620026eb565b60405180910390fd5b565b6200143262001ae2565b5f60055f6101000a81548160ff0219169083151502179055507f5db9ee0a495bf2e6ff9c91a7834c1ba4fdd244a5e8aa4e537bd38aeae4b073aa6200147662001130565b604051620014859190620026eb565b60405180910390a1565b5f73ffffffffffffffffffffffffffffffffffffffff168273ffffffffffffffffffffffffffffffffffffffff160362001502575f6040517fec442f05000000000000000000000000000000000000000000000000000000008152600401620014f99190620026eb565b60405180910390fd5b6200150f5f838362001a39565b5050565b5f6200153f600a5f9054906101000a900460ff1660ff168362001537919062002f9a565b606462001b25565b9050919050565b8060095410156200158e576040517f08c379a0000000000000000000000000000000000000000000000000000000008152600401620015859062002cf6565b60405180910390fd5b6200159a83836200148f565b505050565b5f600560019054906101000a900473ffffffffffffffffffffffffffffffffffffffff16905081600560016101000a81548173ffffffffffffffffffffffffffffffffffffffff021916908373ffffffffffffffffffffffffffffffffffffffff1602179055508173ffffffffffffffffffffffffffffffffffffffff168173ffffffffffffffffffffffffffffffffffffffff167f8be0079c531659141344cd1fd0a4f28419497f9722a3daafe3b4186f6b6457e060405160405180910390a35050565b5f60085f8373ffffffffffffffffffffffffffffffffffffffff1673ffffffffffffffffffffffffffffffffffffffff1681526020019081526020015f20549050919050565b620016b462001b87565b600160055f6101000a81548160ff0219169083151502179055507f62e78cea01bee320cd4e420270b5ea74000d11b0c9f74754ebdbfc544b05a258620016f962001130565b604051620017089190620026eb565b60405180910390a1565b60606200174a60067f000000000000000000000000000000000000000000000000000000000000000062001bcb90919063ffffffff16565b905090565b60606200178760077f000000000000000000000000000000000000000000000000000000000000000062001bcb90919063ffffffff16565b905090565b5f60085f8373ffffffffffffffffffffffffffffffffffffffff1673ffffffffffffffffffffffffffffffffffffffff1681526020019081526020015f205f815480929190600101919050559050919050565b5f620017f5620017ee620012dd565b8362001c84565b9050919050565b5f805f806200180e8888888862001cc4565b92509250925062001820828262001db2565b829350505050949350505050565b5f6200185a60648362001842919062002f9a565b600a5f9054906101000a900460ff1660ff1662001b25565b9050919050565b5f73ffffffffffffffffffffffffffffffffffffffff168473ffffffffffffffffffffffffffffffffffffffff1603620018d4575f6040517fe602df05000000000000000000000000000000000000000000000000000000008152600401620018cb9190620026eb565b60405180910390fd5b5f73ffffffffffffffffffffffffffffffffffffffff168373ffffffffffffffffffffffffffffffffffffffff160362001947575f6040517f94280d620000000000000000000000000000000000000000000000000000000081526004016200193e9190620026eb565b60405180910390fd5b8160015f8673ffffffffffffffffffffffffffffffffffffffff1673ffffffffffffffffffffffffffffffffffffffff1681526020019081526020015f205f8573ffffffffffffffffffffffffffffffffffffffff1673ffffffffffffffffffffffffffffffffffffffff1681526020019081526020015f2081905550801562001a33578273ffffffffffffffffffffffffffffffffffffffff168473ffffffffffffffffffffffffffffffffffffffff167f8c5be1e5ebec7d5bd14f71427d1e84f3dd0314c0f7b2291e5b200ac8c7c3b9258460405162001a2a919062002436565b60405180910390a35b50505050565b62001a4683838362001f34565b505050565b5f7f8b73c3c69bb8fe3d512ecc4cf759cc79239f7b179b0ffacaa9a75d522b39400f7f00000000000000000000000000000000000000000000000000000000000000007f0000000000000000000000000000000000000000000000000000000000000000463060405160200162001ac795949392919062002fe4565b60405160208183030381529060405280519060200120905090565b62001aec6200079c565b62001b23576040517f8dfc202b00000000000000000000000000000000000000000000000000000000815260040160405180910390fd5b565b5f80820362001b4457818362001b3c91906200306c565b905062001b81565b5f831462001b7c5760018260018562001b5e9190620030a3565b62001b6a91906200306c565b62001b76919062002c6e565b62001b7e565b5f5b90505b92915050565b62001b916200079c565b1562001bc9576040517fd93c066500000000000000000000000000000000000000000000000000000000815260040160405180910390fd5b565b606060ff5f1b831462001beb5762001be38362001f50565b905062001c7e565b81805462001bf99062002aa2565b80601f016020809104026020016040519081016040528092919081815260200182805462001c279062002aa2565b801562001c765780601f1062001c4c5761010080835404028352916020019162001c76565b820191905f5260205f20905b81548152906001019060200180831162001c5857829003601f168201915b505050505090505b92915050565b5f6040517f190100000000000000000000000000000000000000000000000000000000000081528360028201528260228201526042812091505092915050565b5f805f7f7fffffffffffffffffffffffffffffff5d576e7357a4501ddfe92f46681b20a0845f1c111562001d02575f60038592509250925062001da8565b5f6001888888886040515f815260200160405260405162001d279493929190620030dd565b6020604051602081039080840390855afa15801562001d48573d5f803e3d5ffd5b5050506020604051035190505f73ffffffffffffffffffffffffffffffffffffffff168173ffffffffffffffffffffffffffffffffffffffff160362001d9b575f60015f801b9350935093505062001da8565b805f805f1b935093509350505b9450945094915050565b5f600381111562001dc85762001dc762003128565b5b82600381111562001dde5762001ddd62003128565b5b031562001f30576001600381111562001dfc5762001dfb62003128565b5b82600381111562001e125762001e1162003128565b5b0362001e4a576040517ff645eedf00000000000000000000000000000000000000000000000000000000815260040160405180910390fd5b6002600381111562001e615762001e6062003128565b5b82600381111562001e775762001e7662003128565b5b0362001ebe57805f1c6040517ffce698f700000000000000000000000000000000000000000000000000000000815260040162001eb5919062002436565b60405180910390fd5b60038081111562001ed45762001ed362003128565b5b82600381111562001eea5762001ee962003128565b5b0362001f2f57806040517fd78bce0c00000000000000000000000000000000000000000000000000000000815260040162001f269190620024fc565b60405180910390fd5b5b5050565b62001f3e62001b87565b62001f4b83838362001fc8565b505050565b60605f62001f5e83620021ec565b90505f602067ffffffffffffffff81111562001f7f5762001f7e620028e6565b5b6040519080825280601f01601f19166020018201604052801562001fb25781602001600182028036833780820191505090505b5090508181528360208201528092505050919050565b5f73ffffffffffffffffffffffffffffffffffffffff168373ffffffffffffffffffffffffffffffffffffffff16036200201c578060025f8282546200200f919062002c6e565b92505081905550620020ed565b5f805f8573ffffffffffffffffffffffffffffffffffffffff1673ffffffffffffffffffffffffffffffffffffffff1681526020019081526020015f2054905081811015620020a8578381836040517fe450d38c0000000000000000000000000000000000000000000000000000000081526004016200209f9392919062002f5f565b60405180910390fd5b8181035f808673ffffffffffffffffffffffffffffffffffffffff1673ffffffffffffffffffffffffffffffffffffffff1681526020019081526020015f2081905550505b5f73ffffffffffffffffffffffffffffffffffffffff168273ffffffffffffffffffffffffffffffffffffffff160362002136578060025f828254039250508190555062002180565b805f808473ffffffffffffffffffffffffffffffffffffffff1673ffffffffffffffffffffffffffffffffffffffff1681526020019081526020015f205f82825401925050819055505b8173ffffffffffffffffffffffffffffffffffffffff168373ffffffffffffffffffffffffffffffffffffffff167fddf252ad1be2c89b69c2b068fc378daa952ba7f163c4a11628f55a4df523b3ef83604051620021df919062002436565b60405180910390a3505050565b5f8060ff835f1c169050601f81111562002232576040517fb3512b0c00000000000000000000000000000000000000000000000000000000815260040160405180910390fd5b80915050919050565b611e61806200315683390190565b5f81519050919050565b5f82825260208201905092915050565b5f5b838110156200228257808201518184015260208101905062002265565b5f8484015250505050565b5f601f19601f8301169050919050565b5f620022a98262002249565b620022b5818562002253565b9350620022c781856020860162002263565b620022d2816200228d565b840191505092915050565b5f6020820190508181035f830152620022f781846200229d565b905092915050565b5f604051905090565b5f80fd5b5f80fd5b5f73ffffffffffffffffffffffffffffffffffffffff82169050919050565b5f6200233b8262002310565b9050919050565b6200234d816200232f565b811462002358575f80fd5b50565b5f813590506200236b8162002342565b92915050565b5f819050919050565b620023858162002371565b811462002390575f80fd5b50565b5f81359050620023a3816200237a565b92915050565b5f8060408385031215620023c257620023c162002308565b5b5f620023d1858286016200235b565b9250506020620023e48582860162002393565b9150509250929050565b5f8115159050919050565b6200240481620023ee565b82525050565b5f6020820190506200241f5f830184620023f9565b92915050565b620024308162002371565b82525050565b5f6020820190506200244b5f83018462002425565b92915050565b5f805f606084860312156200246b576200246a62002308565b5b5f6200247a868287016200235b565b93505060206200248d868287016200235b565b9250506040620024a08682870162002393565b9150509250925092565b5f60ff82169050919050565b620024c181620024aa565b82525050565b5f602082019050620024dc5f830184620024b6565b92915050565b5f819050919050565b620024f681620024e2565b82525050565b5f602082019050620025115f830184620024eb565b92915050565b5f602082840312156200252f576200252e62002308565b5b5f6200253e848285016200235b565b91505092915050565b5f7fff0000000000000000000000000000000000000000000000000000000000000082169050919050565b6200257d8162002547565b82525050565b6200258e816200232f565b82525050565b5f81519050919050565b5f82825260208201905092915050565b5f819050602082019050919050565b620025c88162002371565b82525050565b5f620025db8383620025bd565b60208301905092915050565b5f602082019050919050565b5f620025ff8262002594565b6200260b81856200259e565b93506200261883620025ae565b805f5b838110156200264e578151620026328882620025ce565b97506200263f83620025e7565b9250506001810190506200261b565b5085935050505092915050565b5f60e082019050620026705f83018a62002572565b81810360208301526200268481896200229d565b905081810360408301526200269a81886200229d565b9050620026ab606083018762002425565b620026ba608083018662002583565b620026c960a0830185620024eb565b81810360c0830152620026dd8184620025f3565b905098975050505050505050565b5f602082019050620027005f83018462002583565b92915050565b6200271181620024aa565b81146200271c575f80fd5b50565b5f813590506200272f8162002706565b92915050565b6200274081620024e2565b81146200274b575f80fd5b50565b5f813590506200275e8162002735565b92915050565b5f805f805f805f60e0888a03121562002782576200278162002308565b5b5f620027918a828b016200235b565b9750506020620027a48a828b016200235b565b9650506040620027b78a828b0162002393565b9550506060620027ca8a828b0162002393565b9450506080620027dd8a828b016200271f565b93505060a0620027f08a828b016200274e565b92505060c0620028038a828b016200274e565b91505092959891949750929550565b5f80604083850312156200282b576200282a62002308565b5b5f6200283a858286016200235b565b92505060206200284d858286016200235b565b9150509250929050565b5f620028638262002310565b9050919050565b620028758162002857565b811462002880575f80fd5b50565b5f8135905062002893816200286a565b92915050565b5f8060408385031215620028b257620028b162002308565b5b5f620028c18582860162002883565b9250506020620028d48582860162002393565b9150509250929050565b5f80fd5b5f80fd5b7f4e487b71000000000000000000000000000000000000000000000000000000005f52604160045260245ffd5b6200291e826200228d565b810181811067ffffffffffffffff8211171562002940576200293f620028e6565b5b80604052505050565b5f62002954620022ff565b905062002962828262002913565b919050565b5f67ffffffffffffffff821115620029845762002983620028e6565b5b6200298f826200228d565b9050602081019050919050565b828183375f83830152505050565b5f620029c0620029ba8462002967565b62002949565b905082815260208101848484011115620029df57620029de620028e2565b5b620029ec8482856200299c565b509392505050565b5f82601f83011262002a0b5762002a0a620028de565b5b813562002a1d848260208601620029aa565b91505092915050565b5f6020828403121562002a3e5762002a3d62002308565b5b5f82013567ffffffffffffffff81111562002a5e5762002a5d6200230c565b5b62002a6c84828501620029f4565b91505092915050565b7f4e487b71000000000000000000000000000000000000000000000000000000005f52602260045260245ffd5b5f600282049050600182168062002aba57607f821691505b60208210810362002ad05762002acf62002a75565b5b50919050565b7f546f74616c20737570706c79206d7573742062652067726561746572207468615f8201527f6e20302e00000000000000000000000000000000000000000000000000000000602082015250565b5f62002b3260248362002253565b915062002b3f8262002ad6565b604082019050919050565b5f6020820190508181035f83015262002b638162002b24565b9050919050565b7f4d696e696e6720697320616c726561647920696e2070726f67726573732e00005f82015250565b5f62002ba0601e8362002253565b915062002bad8262002b6a565b602082019050919050565b5f6020820190508181035f83015262002bd18162002b92565b9050919050565b5f60a08201905062002bed5f830188620024b6565b62002bfc602083018762002425565b818103604083015262002c1081866200229d565b9050818103606083015262002c2681856200229d565b905062002c37608083018462002425565b9695505050505050565b7f4e487b71000000000000000000000000000000000000000000000000000000005f52601160045260245ffd5b5f62002c7a8262002371565b915062002c878362002371565b925082820190508082111562002ca25762002ca162002c41565b5b92915050565b7f4e6f7420656e6f75676820746f6b656e7320617661696c61626c652e000000005f82015250565b5f62002cde601c8362002253565b915062002ceb8262002ca8565b602082019050919050565b5f6020820190508181035f83015262002d0f8162002cd0565b9050919050565b5f60c08201905062002d2b5f830189620024eb565b62002d3a602083018862002583565b62002d49604083018762002583565b62002d58606083018662002425565b62002d67608083018562002425565b62002d7660a083018462002425565b979650505050505050565b5f60408201905062002d965f83018562002583565b62002da5602083018462002583565b9392505050565b7f596f75722063726564697420697320746f6f206c6f772e0000000000000000005f82015250565b5f62002de260178362002253565b915062002def8262002dac565b602082019050919050565b5f6020820190508181035f83015262002e138162002dd4565b9050919050565b7f496e73756666696369656e742062616c616e63650000000000000000000000005f82015250565b5f62002e5060148362002253565b915062002e5d8262002e1a565b602082019050919050565b5f6020820190508181035f83015262002e818162002e42565b9050919050565b5f60408201905062002e9d5f83018562002583565b818103602083015262002eb181846200229d565b90509392505050565b62002ec581620023ee565b811462002ed0575f80fd5b50565b5f8151905062002ee38162002eba565b92915050565b5f6020828403121562002f015762002f0062002308565b5b5f62002f108482850162002ed3565b91505092915050565b5f8151905062002f29816200237a565b92915050565b5f6020828403121562002f475762002f4662002308565b5b5f62002f568482850162002f19565b91505092915050565b5f60608201905062002f745f83018662002583565b62002f83602083018562002425565b62002f92604083018462002425565b949350505050565b5f62002fa68262002371565b915062002fb38362002371565b925082820262002fc38162002371565b9150828204841483151762002fdd5762002fdc62002c41565b5b5092915050565b5f60a08201905062002ff95f830188620024eb565b620030086020830187620024eb565b620030176040830186620024eb565b62003026606083018562002425565b62003035608083018462002583565b9695505050505050565b7f4e487b71000000000000000000000000000000000000000000000000000000005f52601260045260245ffd5b5f620030788262002371565b9150620030858362002371565b9250826200309857620030976200303f565b5b828204905092915050565b5f620030af8262002371565b9150620030bc8362002371565b9250828203905081811115620030d757620030d662002c41565b5b92915050565b5f608082019050620030f25f830187620024eb565b620031016020830186620024b6565b620031106040830185620024eb565b6200311f6060830184620024eb565b95945050505050565b7f4e487b71000000000000000000000000000000000000000000000000000000005f52602160045260245ffdfe6080604052600160085f6101000a81548160ff021916908360ff1602179055505f600b5f6101000a81548160ff021916908360ff160217905550601a60f81b600b60016101000a81548160ff021916908360f81c021790555034801562000064575f80fd5b5060405162001e6138038062001e6183398181016040528101906200008a9190620007c7565b43600581905550600554406006819055508460045f6101000a81548160ff021916908360ff160217905550835f819055508260029081620000cc919062000ab7565b508160039081620000de919062000ab7565b5080600181905550620000f66200017660201b60201c565b6007908162000106919062000ab7565b506200011a600154620002f160201b60201c565b600a81905550600760405162000131919062000c31565b60405180910390206006546005547f9f4da1eb02e98b4ab1d9b713f225d0f993b2222a21852024e9d90204be64706a60405160405180910390a4505050505062000e90565b60605f600a546001546200018b919062000c76565b9050805f541015620001d4576040517f08c379a0000000000000000000000000000000000000000000000000000000008152600401620001cb9062000d0e565b60405180910390fd5b5f620001e75f546200032860201b60201c565b90505f620001fd6001546200032860201b60201c565b90505f600380546200020f90620008c0565b80601f01602080910402602001604051908101604052809291908181526020018280546200023d90620008c0565b80156200028c5780601f1062000262576101008083540402835291602001916200028c565b820191905f5260205f20905b8154815290600101906020018083116200026e57829003601f168201915b505050505090505f600654604051602001620002a9919062000d5b565b60405160208183030381529060405290505f82858584604051602001620002d4949392919062000dad565b604051602081830303815290604052905080965050505050505090565b5f80620003168360045f9054906101000a900460ff1660ff166200040360201b60201c565b90508060098190555080915050919050565b60605f60016200033e846200046560201b60201c565b0190505f8167ffffffffffffffff8111156200035f576200035e6200066b565b5b6040519080825280601f01601f191660200182016040528015620003925781602001600182028036833780820191505090505b5090505f82602001820190505b600115620003f8578080600190039150507f3031323334353637383961626364656600000000000000000000000000000000600a86061a8153600a8581620003ec57620003eb62000df2565b5b0494505f85036200039f575b819350505050919050565b5f808203620004225781836200041a919062000e1f565b90506200045f565b5f83146200045a576001826001856200043c919062000e56565b62000448919062000e1f565b62000454919062000c76565b6200045c565b5f5b90505b92915050565b5f805f90507a184f03e93ff9f4daa797ed6e38ed64bf6a1f0100000000000000008310620004c5577a184f03e93ff9f4daa797ed6e38ed64bf6a1f0100000000000000008381620004bb57620004ba62000df2565b5b0492506040810190505b6d04ee2d6d415b85acef8100000000831062000506576d04ee2d6d415b85acef81000000008381620004fc57620004fb62000df2565b5b0492506020810190505b662386f26fc1000083106200053957662386f26fc1000083816200052f576200052e62000df2565b5b0492506010810190505b6305f5e100831062000566576305f5e10083816200055c576200055b62000df2565b5b0492506008810190505b61271083106200058f57612710838162000585576200058462000df2565b5b0492506004810190505b60648310620005b65760648381620005ac57620005ab62000df2565b5b0492506002810190505b600a8310620005c6576001810190505b80915050919050565b5f604051905090565b5f80fd5b5f80fd5b5f60ff82169050919050565b620005f781620005e0565b811462000602575f80fd5b50565b5f815190506200061581620005ec565b92915050565b5f819050919050565b6200062f816200061b565b81146200063a575f80fd5b50565b5f815190506200064d8162000624565b92915050565b5f80fd5b5f80fd5b5f601f19601f8301169050919050565b7f4e487b71000000000000000000000000000000000000000000000000000000005f52604160045260245ffd5b620006a3826200065b565b810181811067ffffffffffffffff82111715620006c557620006c46200066b565b5b80604052505050565b5f620006d9620005cf565b9050620006e7828262000698565b919050565b5f67ffffffffffffffff8211156200070957620007086200066b565b5b62000714826200065b565b9050602081019050919050565b5f5b838110156200074057808201518184015260208101905062000723565b5f8484015250505050565b5f620007616200075b84620006ec565b620006ce565b90508281526020810184848401111562000780576200077f62000657565b5b6200078d84828562000721565b509392505050565b5f82601f830112620007ac57620007ab62000653565b5b8151620007be8482602086016200074b565b91505092915050565b5f805f805f60a08688031215620007e357620007e2620005d8565b5b5f620007f28882890162000605565b955050602062000805888289016200063d565b945050604086015167ffffffffffffffff811115620008295762000828620005dc565b5b620008378882890162000795565b935050606086015167ffffffffffffffff8111156200085b576200085a620005dc565b5b620008698882890162000795565b92505060806200087c888289016200063d565b9150509295509295909350565b5f81519050919050565b7f4e487b71000000000000000000000000000000000000000000000000000000005f52602260045260245ffd5b5f6002820490506001821680620008d857607f821691505b602082108103620008ee57620008ed62000893565b5b50919050565b5f819050815f5260205f209050919050565b5f6020601f8301049050919050565b5f82821b905092915050565b5f60088302620009527fffffffffffffffffffffffffffffffffffffffffffffffffffffffffffffffff8262000915565b6200095e868362000915565b95508019841693508086168417925050509392505050565b5f819050919050565b5f6200099f6200099962000993846200061b565b62000976565b6200061b565b9050919050565b5f819050919050565b620009ba836200097f565b620009d2620009c982620009a6565b84845462000921565b825550505050565b5f90565b620009e8620009da565b620009f5818484620009af565b505050565b5b8181101562000a1c5762000a105f82620009de565b600181019050620009fb565b5050565b601f82111562000a6b5762000a3581620008f4565b62000a408462000906565b8101602085101562000a50578190505b62000a6862000a5f8562000906565b830182620009fa565b50505b505050565b5f82821c905092915050565b5f62000a8d5f198460080262000a70565b1980831691505092915050565b5f62000aa7838362000a7c565b9150826002028217905092915050565b62000ac28262000889565b67ffffffffffffffff81111562000ade5762000add6200066b565b5b62000aea8254620008c0565b62000af782828562000a20565b5f60209050601f83116001811462000b2d575f841562000b18578287015190505b62000b24858262000a9a565b86555062000b93565b601f19841662000b3d86620008f4565b5f5b8281101562000b665784890151825560018201915060208501945060208101905062000b3f565b8683101562000b86578489015162000b82601f89168262000a7c565b8355505b6001600288020188555050505b505050505050565b5f81905092915050565b5f815462000bb381620008c0565b62000bbf818662000b9b565b9450600182165f811462000bdc576001811462000bf25762000c28565b60ff198316865281151582028601935062000c28565b62000bfd85620008f4565b5f5b8381101562000c205781548189015260018201915060208101905062000bff565b838801955050505b50505092915050565b5f62000c3e828462000ba5565b915081905092915050565b7f4e487b71000000000000000000000000000000000000000000000000000000005f52601160045260245ffd5b5f62000c82826200061b565b915062000c8f836200061b565b925082820190508082111562000caa5762000ca962000c49565b5b92915050565b5f82825260208201905092915050565b7f4e6f7420656e6f75676820746f6b656e7320617661696c61626c652e000000005f82015250565b5f62000cf6601c8362000cb0565b915062000d038262000cc0565b602082019050919050565b5f6020820190508181035f83015262000d278162000ce8565b9050919050565b5f819050919050565b5f819050919050565b62000d5562000d4f8262000d2e565b62000d37565b82525050565b5f62000d68828462000d40565b60208201915081905092915050565b5f62000d838262000889565b62000d8f818562000b9b565b935062000da181856020860162000721565b80840191505092915050565b5f62000dba828762000d77565b915062000dc8828662000d77565b915062000dd6828562000d77565b915062000de4828462000d77565b915081905095945050505050565b7f4e487b71000000000000000000000000000000000000000000000000000000005f52601260045260245ffd5b5f62000e2b826200061b565b915062000e38836200061b565b92508262000e4b5762000e4a62000df2565b5b828204905092915050565b5f62000e62826200061b565b915062000e6f836200061b565b925082820390508181111562000e8a5762000e8962000c49565b5b92915050565b610fc38062000e9e5f395ff3fe608060405234801561000f575f80fd5b50600436106100cd575f3560e01c80634fc8a9911161008a57806395d89b411161006457806395d89b41146101f1578063e83157421461020f578063f22a195e1461022d578063f82900b11461024b576100cd565b80634fc8a9911461018557806357e871e7146101b55780636a49f979146101d3576100cd565b80630572b0cc146100d157806306fdde03146100ef57806318160ddd1461010d5780633ba0b9a91461012b5780633e50de30146101495780634e04067a14610167575b5f80fd5b6100d9610269565b6040516100e69190610934565b60405180910390f35b6100f7610272565b60405161010491906109d7565b60405180910390f35b6101156102fe565b6040516101229190610934565b60405180910390f35b610133610304565b6040516101409190610a12565b60405180910390f35b610151610316565b60405161015e9190610934565b60405180910390f35b61016f61031c565b60405161017c91906109d7565b60405180910390f35b61019f600480360381019061019a9190610bc2565b610476565b6040516101ac9190610c36565b60405180910390f35b6101bd6105d2565b6040516101ca9190610934565b60405180910390f35b6101db6105d8565b6040516101e891906109d7565b60405180910390f35b6101f9610664565b60405161020691906109d7565b60405180910390f35b6102176106f0565b6040516102249190610934565b60405180910390f35b6102356106f5565b6040516102429190610c67565b60405180910390f35b6102536106fb565b6040516102609190610934565b60405180910390f35b5f600954905090565b6003805461027f90610cad565b80601f01602080910402602001604051908101604052809291908181526020018280546102ab90610cad565b80156102f65780601f106102cd576101008083540402835291602001916102f6565b820191905f5260205f20905b8154815290600101906020018083116102d957829003601f168201915b505050505081565b60015481565b60045f9054906101000a900460ff1681565b600a5481565b60605f600a5460015461032f9190610d0a565b9050805f541015610375576040517f08c379a000000000000000000000000000000000000000000000000000000000815260040161036c90610d87565b60405180910390fd5b5f6103805f54610701565b90505f61038e600154610701565b90505f6003805461039e90610cad565b80601f01602080910402602001604051908101604052809291908181526020018280546103ca90610cad565b80156104155780601f106103ec57610100808354040283529160200191610415565b820191905f5260205f20905b8154815290600101906020018083116103f857829003601f168201915b505050505090505f6006546040516020016104309190610dc5565b60405160208183030381529060405290505f828585846040516020016104599493929190610e19565b604051602081830303815290604052905080965050505050505090565b5f8060078360405160200161048c929190610ee8565b60405160208183030381529060405290505f816040516020016104af91906109d7565b6040516020818303038152906040528051906020012090505f5b600b5f9054906101000a900460ff1660ff168160ff16116105c5575f828260ff16602081106104fb576104fa610f0b565b5b1a60f81b9050600b60019054906101000a900460f81b7effffffffffffffffffffffffffffffffffffffffffffffffffffffffffffff1916817effffffffffffffffffffffffffffffffffffffffffffffffffffffffffffff1916036105b1576009546005548873ffffffffffffffffffffffffffffffffffffffff167f5a9ec13c12ca9563a7b3108125f74c57ed388bb313394ea50f7e4a71b01497c260405160405180910390a460019450505050506105cc565b5080806105bd90610f38565b9150506104c9565b505f925050505b92915050565b60055481565b600780546105e590610cad565b80601f016020809104026020016040519081016040528092919081815260200182805461061190610cad565b801561065c5780601f106106335761010080835404028352916020019161065c565b820191905f5260205f20905b81548152906001019060200180831161063f57829003601f168201915b505050505081565b6002805461067190610cad565b80601f016020809104026020016040519081016040528092919081815260200182805461069d90610cad565b80156106e85780601f106106bf576101008083540402835291602001916106e8565b820191905f5260205f20905b8154815290600101906020018083116106cb57829003601f168201915b505050505081565b5f5481565b60065481565b60095481565b60605f600161070f846107cb565b0190505f8167ffffffffffffffff81111561072d5761072c610a9e565b5b6040519080825280601f01601f19166020018201604052801561075f5781602001600182028036833780820191505090505b5090505f82602001820190505b6001156107c0578080600190039150507f3031323334353637383961626364656600000000000000000000000000000000600a86061a8153600a85816107b5576107b4610f60565b5b0494505f850361076c575b819350505050919050565b5f805f90507a184f03e93ff9f4daa797ed6e38ed64bf6a1f0100000000000000008310610827577a184f03e93ff9f4daa797ed6e38ed64bf6a1f010000000000000000838161081d5761081c610f60565b5b0492506040810190505b6d04ee2d6d415b85acef81000000008310610864576d04ee2d6d415b85acef8100000000838161085a57610859610f60565b5b0492506020810190505b662386f26fc10000831061089357662386f26fc10000838161088957610888610f60565b5b0492506010810190505b6305f5e10083106108bc576305f5e10083816108b2576108b1610f60565b5b0492506008810190505b61271083106108e15761271083816108d7576108d6610f60565b5b0492506004810190505b6064831061090457606483816108fa576108f9610f60565b5b0492506002810190505b600a8310610913576001810190505b80915050919050565b5f819050919050565b61092e8161091c565b82525050565b5f6020820190506109475f830184610925565b92915050565b5f81519050919050565b5f82825260208201905092915050565b5f5b83811015610984578082015181840152602081019050610969565b5f8484015250505050565b5f601f19601f8301169050919050565b5f6109a98261094d565b6109b38185610957565b93506109c3818560208601610967565b6109cc8161098f565b840191505092915050565b5f6020820190508181035f8301526109ef818461099f565b905092915050565b5f60ff82169050919050565b610a0c816109f7565b82525050565b5f602082019050610a255f830184610a03565b92915050565b5f604051905090565b5f80fd5b5f80fd5b5f73ffffffffffffffffffffffffffffffffffffffff82169050919050565b5f610a6582610a3c565b9050919050565b610a7581610a5b565b8114610a7f575f80fd5b50565b5f81359050610a9081610a6c565b92915050565b5f80fd5b5f80fd5b7f4e487b71000000000000000000000000000000000000000000000000000000005f52604160045260245ffd5b610ad48261098f565b810181811067ffffffffffffffff82111715610af357610af2610a9e565b5b80604052505050565b5f610b05610a2b565b9050610b118282610acb565b919050565b5f67ffffffffffffffff821115610b3057610b2f610a9e565b5b610b398261098f565b9050602081019050919050565b828183375f83830152505050565b5f610b66610b6184610b16565b610afc565b905082815260208101848484011115610b8257610b81610a9a565b5b610b8d848285610b46565b509392505050565b5f82601f830112610ba957610ba8610a96565b5b8135610bb9848260208601610b54565b91505092915050565b5f8060408385031215610bd857610bd7610a34565b5b5f610be585828601610a82565b925050602083013567ffffffffffffffff811115610c0657610c05610a38565b5b610c1285828601610b95565b9150509250929050565b5f8115159050919050565b610c3081610c1c565b82525050565b5f602082019050610c495f830184610c27565b92915050565b5f819050919050565b610c6181610c4f565b82525050565b5f602082019050610c7a5f830184610c58565b92915050565b7f4e487b71000000000000000000000000000000000000000000000000000000005f52602260045260245ffd5b5f6002820490506001821680610cc457607f821691505b602082108103610cd757610cd6610c80565b5b50919050565b7f4e487b71000000000000000000000000000000000000000000000000000000005f52601160045260245ffd5b5f610d148261091c565b9150610d1f8361091c565b9250828201905080821115610d3757610d36610cdd565b5b92915050565b7f4e6f7420656e6f75676820746f6b656e7320617661696c61626c652e000000005f82015250565b5f610d71601c83610957565b9150610d7c82610d3d565b602082019050919050565b5f6020820190508181035f830152610d9e81610d65565b9050919050565b5f819050919050565b610dbf610dba82610c4f565b610da5565b82525050565b5f610dd08284610dae565b60208201915081905092915050565b5f81905092915050565b5f610df38261094d565b610dfd8185610ddf565b9350610e0d818560208601610967565b80840191505092915050565b5f610e248287610de9565b9150610e308286610de9565b9150610e3c8285610de9565b9150610e488284610de9565b915081905095945050505050565b5f819050815f5260205f209050919050565b5f8154610e7481610cad565b610e7e8186610ddf565b9450600182165f8114610e985760018114610ead57610edf565b60ff1983168652811515820286019350610edf565b610eb685610e56565b5f5b83811015610ed757815481890152600182019150602081019050610eb8565b838801955050505b50505092915050565b5f610ef38285610e68565b9150610eff8284610de9565b91508190509392505050565b7f4e487b71000000000000000000000000000000000000000000000000000000005f52603260045260245ffd5b5f610f42826109f7565b915060ff8203610f5557610f54610cdd565b5b600182019050919050565b7f4e487b71000000000000000000000000000000000000000000000000000000005f52601260045260245ffdfea26469706673582212208ebb0e0576cae6b3291d1f9fa26439f75763c4362b7285fc4112697d8d8d5dab64736f6c63430008180033a2646970667358221220777a63ec66b65523014f99a37f05ec91e66b022a0552e04d484c2191c72c96ba64736f6c63430008180033",
			"opcodes": "PUSH2 0x160 PUSH1 0x40 MSTORE PUSH5 0xE8D4A51000 PUSH1 0x9 SSTORE PUSH1 0x61 PUSH1 0xA PUSH0 PUSH2 0x100 EXP DUP2 SLOAD DUP2 PUSH1 0xFF MUL NOT AND SWAP1 DUP4 PUSH1 0xFF AND MUL OR SWAP1 SSTORE POP PUSH0 PUSH1 0xA PUSH1 0x15 PUSH2 0x100 EXP DUP2 SLOAD DUP2 PUSH1 0xFF MUL NOT AND SWAP1 DUP4 ISZERO ISZERO MUL OR SWAP1 SSTORE POP CALLVALUE DUP1 ISZERO PUSH3 0x4F JUMPI PUSH0 DUP1 REVERT JUMPDEST POP PUSH1 0x40 MLOAD PUSH3 0x5ACB CODESIZE SUB DUP1 PUSH3 0x5ACB DUP4 CODECOPY DUP2 DUP2 ADD PUSH1 0x40 MSTORE DUP2 ADD SWAP1 PUSH3 0x75 SWAP2 SWAP1 PUSH3 0x519 JUMP JUMPDEST PUSH1 0x40 MLOAD DUP1 PUSH1 0x40 ADD PUSH1 0x40 MSTORE DUP1 PUSH1 0xF DUP2 MSTORE PUSH1 0x20 ADD PUSH32 0x5472616465526F757465546F6B656E0000000000000000000000000000000000 DUP2 MSTORE POP DUP1 PUSH1 0x40 MLOAD DUP1 PUSH1 0x40 ADD PUSH1 0x40 MSTORE DUP1 PUSH1 0x1 DUP2 MSTORE PUSH1 0x20 ADD PUSH32 0x3100000000000000000000000000000000000000000000000000000000000000 DUP2 MSTORE POP DUP4 PUSH1 0x40 MLOAD DUP1 PUSH1 0x40 ADD PUSH1 0x40 MSTORE DUP1 PUSH1 0xF DUP2 MSTORE PUSH1 0x20 ADD PUSH32 0x5472616465526F757465546F6B656E0000000000000000000000000000000000 DUP2 MSTORE POP PUSH1 0x40 MLOAD DUP1 PUSH1 0x40 ADD PUSH1 0x40 MSTORE DUP1 PUSH1 0x3 DUP2 MSTORE PUSH1 0x20 ADD PUSH32 0x5452540000000000000000000000000000000000000000000000000000000000 DUP2 MSTORE POP DUP2 PUSH1 0x3 SWAP1 DUP2 PUSH3 0x160 SWAP2 SWAP1 PUSH3 0x7AD JUMP JUMPDEST POP DUP1 PUSH1 0x4 SWAP1 DUP2 PUSH3 0x172 SWAP2 SWAP1 PUSH3 0x7AD JUMP JUMPDEST POP POP POP PUSH0 PUSH1 0x5 PUSH0 PUSH2 0x100 EXP DUP2 SLOAD DUP2 PUSH1 0xFF MUL NOT AND SWAP1 DUP4 ISZERO ISZERO MUL OR SWAP1 SSTORE POP PUSH0 PUSH20 0xFFFFFFFFFFFFFFFFFFFFFFFFFFFFFFFFFFFFFFFF AND DUP2 PUSH20 0xFFFFFFFFFFFFFFFFFFFFFFFFFFFFFFFFFFFFFFFF AND SUB PUSH3 0x201 JUMPI PUSH0 PUSH1 0x40 MLOAD PUSH32 0x1E4FBDF700000000000000000000000000000000000000000000000000000000 DUP2 MSTORE PUSH1 0x4 ADD PUSH3 0x1F8 SWAP2 SWAP1 PUSH3 0x8A2 JUMP JUMPDEST PUSH1 0x40 MLOAD DUP1 SWAP2 SUB SWAP1 REVERT JUMPDEST PUSH3 0x212 DUP2 PUSH3 0x2CB PUSH1 0x20 SHL PUSH1 0x20 SHR JUMP JUMPDEST POP PUSH3 0x229 PUSH1 0x6 DUP4 PUSH3 0x390 PUSH1 0x20 SHL SWAP1 SWAP2 SWAP1 PUSH1 0x20 SHR JUMP JUMPDEST PUSH2 0x120 DUP2 DUP2 MSTORE POP POP PUSH3 0x247 PUSH1 0x7 DUP3 PUSH3 0x390 PUSH1 0x20 SHL SWAP1 SWAP2 SWAP1 PUSH1 0x20 SHR JUMP JUMPDEST PUSH2 0x140 DUP2 DUP2 MSTORE POP POP DUP2 DUP1 MLOAD SWAP1 PUSH1 0x20 ADD KECCAK256 PUSH1 0xE0 DUP2 DUP2 MSTORE POP POP DUP1 DUP1 MLOAD SWAP1 PUSH1 0x20 ADD KECCAK256 PUSH2 0x100 DUP2 DUP2 MSTORE POP POP CHAINID PUSH1 0xA0 DUP2 DUP2 MSTORE POP POP PUSH3 0x286 PUSH3 0x3E5 PUSH1 0x20 SHL PUSH1 0x20 SHR JUMP JUMPDEST PUSH1 0x80 DUP2 DUP2 MSTORE POP POP ADDRESS PUSH20 0xFFFFFFFFFFFFFFFFFFFFFFFFFFFFFFFFFFFFFFFF AND PUSH1 0xC0 DUP2 PUSH20 0xFFFFFFFFFFFFFFFFFFFFFFFFFFFFFFFFFFFFFFFF AND DUP2 MSTORE POP POP POP POP POP POP PUSH3 0xA8D JUMP JUMPDEST PUSH0 PUSH1 0x5 PUSH1 0x1 SWAP1 SLOAD SWAP1 PUSH2 0x100 EXP SWAP1 DIV PUSH20 0xFFFFFFFFFFFFFFFFFFFFFFFFFFFFFFFFFFFFFFFF AND SWAP1 POP DUP2 PUSH1 0x5 PUSH1 0x1 PUSH2 0x100 EXP DUP2 SLOAD DUP2 PUSH20 0xFFFFFFFFFFFFFFFFFFFFFFFFFFFFFFFFFFFFFFFF MUL NOT AND SWAP1 DUP4 PUSH20 0xFFFFFFFFFFFFFFFFFFFFFFFFFFFFFFFFFFFFFFFF AND MUL OR SWAP1 SSTORE POP DUP2 PUSH20 0xFFFFFFFFFFFFFFFFFFFFFFFFFFFFFFFFFFFFFFFF AND DUP2 PUSH20 0xFFFFFFFFFFFFFFFFFFFFFFFFFFFFFFFFFFFFFFFF AND PUSH32 0x8BE0079C531659141344CD1FD0A4F28419497F9722A3DAAFE3B4186F6B6457E0 PUSH1 0x40 MLOAD PUSH1 0x40 MLOAD DUP1 SWAP2 SUB SWAP1 LOG3 POP POP JUMP JUMPDEST PUSH0 PUSH1 0x20 DUP4 MLOAD LT ISZERO PUSH3 0x3B5 JUMPI PUSH3 0x3AD DUP4 PUSH3 0x441 PUSH1 0x20 SHL PUSH1 0x20 SHR JUMP JUMPDEST SWAP1 POP PUSH3 0x3DF JUMP JUMPDEST DUP3 PUSH3 0x3C7 DUP4 PUSH3 0x4AB PUSH1 0x20 SHL PUSH1 0x20 SHR JUMP JUMPDEST PUSH0 ADD SWAP1 DUP2 PUSH3 0x3D7 SWAP2 SWAP1 PUSH3 0x7AD JUMP JUMPDEST POP PUSH1 0xFF PUSH0 SHL SWAP1 POP JUMPDEST SWAP3 SWAP2 POP POP JUMP JUMPDEST PUSH0 PUSH32 0x8B73C3C69BB8FE3D512ECC4CF759CC79239F7B179B0FFACAA9A75D522B39400F PUSH1 0xE0 MLOAD PUSH2 0x100 MLOAD CHAINID ADDRESS PUSH1 0x40 MLOAD PUSH1 0x20 ADD PUSH3 0x426 SWAP6 SWAP5 SWAP4 SWAP3 SWAP2 SWAP1 PUSH3 0x8E8 JUMP JUMPDEST PUSH1 0x40 MLOAD PUSH1 0x20 DUP2 DUP4 SUB SUB DUP2 MSTORE SWAP1 PUSH1 0x40 MSTORE DUP1 MLOAD SWAP1 PUSH1 0x20 ADD KECCAK256 SWAP1 POP SWAP1 JUMP JUMPDEST PUSH0 DUP1 DUP3 SWAP1 POP PUSH1 0x1F DUP2 MLOAD GT ISZERO PUSH3 0x490 JUMPI DUP3 PUSH1 0x40 MLOAD PUSH32 0x305A27A900000000000000000000000000000000000000000000000000000000 DUP2 MSTORE PUSH1 0x4 ADD PUSH3 0x487 SWAP2 SWAP1 PUSH3 0x9CD JUMP JUMPDEST PUSH1 0x40 MLOAD DUP1 SWAP2 SUB SWAP1 REVERT JUMPDEST DUP1 MLOAD DUP2 PUSH3 0x49E SWAP1 PUSH3 0xA1E JUMP JUMPDEST PUSH0 SHR OR PUSH0 SHL SWAP2 POP POP SWAP2 SWAP1 POP JUMP JUMPDEST PUSH0 DUP2 SWAP1 POP SWAP2 SWAP1 POP JUMP JUMPDEST PUSH0 DUP1 REVERT JUMPDEST PUSH0 PUSH20 0xFFFFFFFFFFFFFFFFFFFFFFFFFFFFFFFFFFFFFFFF DUP3 AND SWAP1 POP SWAP2 SWAP1 POP JUMP JUMPDEST PUSH0 PUSH3 0x4E3 DUP3 PUSH3 0x4B8 JUMP JUMPDEST SWAP1 POP SWAP2 SWAP1 POP JUMP JUMPDEST PUSH3 0x4F5 DUP2 PUSH3 0x4D7 JUMP JUMPDEST DUP2 EQ PUSH3 0x500 JUMPI PUSH0 DUP1 REVERT JUMPDEST POP JUMP JUMPDEST PUSH0 DUP2 MLOAD SWAP1 POP PUSH3 0x513 DUP2 PUSH3 0x4EA JUMP JUMPDEST SWAP3 SWAP2 POP POP JUMP JUMPDEST PUSH0 PUSH1 0x20 DUP3 DUP5 SUB SLT ISZERO PUSH3 0x531 JUMPI PUSH3 0x530 PUSH3 0x4B4 JUMP JUMPDEST JUMPDEST PUSH0 PUSH3 0x540 DUP5 DUP3 DUP6 ADD PUSH3 0x503 JUMP JUMPDEST SWAP2 POP POP SWAP3 SWAP2 POP POP JUMP JUMPDEST PUSH0 DUP2 MLOAD SWAP1 POP SWAP2 SWAP1 POP JUMP JUMPDEST PUSH32 0x4E487B7100000000000000000000000000000000000000000000000000000000 PUSH0 MSTORE PUSH1 0x41 PUSH1 0x4 MSTORE PUSH1 0x24 PUSH0 REVERT JUMPDEST PUSH32 0x4E487B7100000000000000000000000000000000000000000000000000000000 PUSH0 MSTORE PUSH1 0x22 PUSH1 0x4 MSTORE PUSH1 0x24 PUSH0 REVERT JUMPDEST PUSH0 PUSH1 0x2 DUP3 DIV SWAP1 POP PUSH1 0x1 DUP3 AND DUP1 PUSH3 0x5C5 JUMPI PUSH1 0x7F DUP3 AND SWAP2 POP JUMPDEST PUSH1 0x20 DUP3 LT DUP2 SUB PUSH3 0x5DB JUMPI PUSH3 0x5DA PUSH3 0x580 JUMP JUMPDEST JUMPDEST POP SWAP2 SWAP1 POP JUMP JUMPDEST PUSH0 DUP2 SWAP1 POP DUP2 PUSH0 MSTORE PUSH1 0x20 PUSH0 KECCAK256 SWAP1 POP SWAP2 SWAP1 POP JUMP JUMPDEST PUSH0 PUSH1 0x20 PUSH1 0x1F DUP4 ADD DIV SWAP1 POP SWAP2 SWAP1 POP JUMP JUMPDEST PUSH0 DUP3 DUP3 SHL SWAP1 POP SWAP3 SWAP2 POP POP JUMP JUMPDEST PUSH0 PUSH1 0x8 DUP4 MUL PUSH3 0x63F PUSH32 0xFFFFFFFFFFFFFFFFFFFFFFFFFFFFFFFFFFFFFFFFFFFFFFFFFFFFFFFFFFFFFFFF DUP3 PUSH3 0x602 JUMP JUMPDEST PUSH3 0x64B DUP7 DUP4 PUSH3 0x602 JUMP JUMPDEST SWAP6 POP DUP1 NOT DUP5 AND SWAP4 POP DUP1 DUP7 AND DUP5 OR SWAP3 POP POP POP SWAP4 SWAP3 POP POP POP JUMP JUMPDEST PUSH0 DUP2 SWAP1 POP SWAP2 SWAP1 POP JUMP JUMPDEST PUSH0 DUP2 SWAP1 POP SWAP2 SWAP1 POP JUMP JUMPDEST PUSH0 PUSH3 0x695 PUSH3 0x68F PUSH3 0x689 DUP5 PUSH3 0x663 JUMP JUMPDEST PUSH3 0x66C JUMP JUMPDEST PUSH3 0x663 JUMP JUMPDEST SWAP1 POP SWAP2 SWAP1 POP JUMP JUMPDEST PUSH0 DUP2 SWAP1 POP SWAP2 SWAP1 POP JUMP JUMPDEST PUSH3 0x6B0 DUP4 PUSH3 0x675 JUMP JUMPDEST PUSH3 0x6C8 PUSH3 0x6BF DUP3 PUSH3 0x69C JUMP JUMPDEST DUP5 DUP5 SLOAD PUSH3 0x60E JUMP JUMPDEST DUP3 SSTORE POP POP POP POP JUMP JUMPDEST PUSH0 SWAP1 JUMP JUMPDEST PUSH3 0x6DE PUSH3 0x6D0 JUMP JUMPDEST PUSH3 0x6EB DUP2 DUP5 DUP5 PUSH3 0x6A5 JUMP JUMPDEST POP POP POP JUMP JUMPDEST JUMPDEST DUP2 DUP2 LT ISZERO PUSH3 0x712 JUMPI PUSH3 0x706 PUSH0 DUP3 PUSH3 0x6D4 JUMP JUMPDEST PUSH1 0x1 DUP2 ADD SWAP1 POP PUSH3 0x6F1 JUMP JUMPDEST POP POP JUMP JUMPDEST PUSH1 0x1F DUP3 GT ISZERO PUSH3 0x761 JUMPI PUSH3 0x72B DUP2 PUSH3 0x5E1 JUMP JUMPDEST PUSH3 0x736 DUP5 PUSH3 0x5F3 JUMP JUMPDEST DUP2 ADD PUSH1 0x20 DUP6 LT ISZERO PUSH3 0x746 JUMPI DUP2 SWAP1 POP JUMPDEST PUSH3 0x75E PUSH3 0x755 DUP6 PUSH3 0x5F3 JUMP JUMPDEST DUP4 ADD DUP3 PUSH3 0x6F0 JUMP JUMPDEST POP POP JUMPDEST POP POP POP JUMP JUMPDEST PUSH0 DUP3 DUP3 SHR SWAP1 POP SWAP3 SWAP2 POP POP JUMP JUMPDEST PUSH0 PUSH3 0x783 PUSH0 NOT DUP5 PUSH1 0x8 MUL PUSH3 0x766 JUMP JUMPDEST NOT DUP1 DUP4 AND SWAP2 POP POP SWAP3 SWAP2 POP POP JUMP JUMPDEST PUSH0 PUSH3 0x79D DUP4 DUP4 PUSH3 0x772 JUMP JUMPDEST SWAP2 POP DUP3 PUSH1 0x2 MUL DUP3 OR SWAP1 POP SWAP3 SWAP2 POP POP JUMP JUMPDEST PUSH3 0x7B8 DUP3 PUSH3 0x549 JUMP JUMPDEST PUSH8 0xFFFFFFFFFFFFFFFF DUP2 GT ISZERO PUSH3 0x7D4 JUMPI PUSH3 0x7D3 PUSH3 0x553 JUMP JUMPDEST JUMPDEST PUSH3 0x7E0 DUP3 SLOAD PUSH3 0x5AD JUMP JUMPDEST PUSH3 0x7ED DUP3 DUP3 DUP6 PUSH3 0x716 JUMP JUMPDEST PUSH0 PUSH1 0x20 SWAP1 POP PUSH1 0x1F DUP4 GT PUSH1 0x1 DUP2 EQ PUSH3 0x823 JUMPI PUSH0 DUP5 ISZERO PUSH3 0x80E JUMPI DUP3 DUP8 ADD MLOAD SWAP1 POP JUMPDEST PUSH3 0x81A DUP6 DUP3 PUSH3 0x790 JUMP JUMPDEST DUP7 SSTORE POP PUSH3 0x889 JUMP JUMPDEST PUSH1 0x1F NOT DUP5 AND PUSH3 0x833 DUP7 PUSH3 0x5E1 JUMP JUMPDEST PUSH0 JUMPDEST DUP3 DUP2 LT ISZERO PUSH3 0x85C JUMPI DUP5 DUP10 ADD MLOAD DUP3 SSTORE PUSH1 0x1 DUP3 ADD SWAP2 POP PUSH1 0x20 DUP6 ADD SWAP5 POP PUSH1 0x20 DUP2 ADD SWAP1 POP PUSH3 0x835 JUMP JUMPDEST DUP7 DUP4 LT ISZERO PUSH3 0x87C JUMPI DUP5 DUP10 ADD MLOAD PUSH3 0x878 PUSH1 0x1F DUP10 AND DUP3 PUSH3 0x772 JUMP JUMPDEST DUP4 SSTORE POP JUMPDEST PUSH1 0x1 PUSH1 0x2 DUP9 MUL ADD DUP9 SSTORE POP POP POP JUMPDEST POP POP POP POP POP POP JUMP JUMPDEST PUSH3 0x89C DUP2 PUSH3 0x4D7 JUMP JUMPDEST DUP3 MSTORE POP POP JUMP JUMPDEST PUSH0 PUSH1 0x20 DUP3 ADD SWAP1 POP PUSH3 0x8B7 PUSH0 DUP4 ADD DUP5 PUSH3 0x891 JUMP JUMPDEST SWAP3 SWAP2 POP POP JUMP JUMPDEST PUSH0 DUP2 SWAP1 POP SWAP2 SWAP1 POP JUMP JUMPDEST PUSH3 0x8D1 DUP2 PUSH3 0x8BD JUMP JUMPDEST DUP3 MSTORE POP POP JUMP JUMPDEST PUSH3 0x8E2 DUP2 PUSH3 0x663 JUMP JUMPDEST DUP3 MSTORE POP POP JUMP JUMPDEST PUSH0 PUSH1 0xA0 DUP3 ADD SWAP1 POP PUSH3 0x8FD PUSH0 DUP4 ADD DUP9 PUSH3 0x8C6 JUMP JUMPDEST PUSH3 0x90C PUSH1 0x20 DUP4 ADD DUP8 PUSH3 0x8C6 JUMP JUMPDEST PUSH3 0x91B PUSH1 0x40 DUP4 ADD DUP7 PUSH3 0x8C6 JUMP JUMPDEST PUSH3 0x92A PUSH1 0x60 DUP4 ADD DUP6 PUSH3 0x8D7 JUMP JUMPDEST PUSH3 0x939 PUSH1 0x80 DUP4 ADD DUP5 PUSH3 0x891 JUMP JUMPDEST SWAP7 SWAP6 POP POP POP POP POP POP JUMP JUMPDEST PUSH0 DUP3 DUP3 MSTORE PUSH1 0x20 DUP3 ADD SWAP1 POP SWAP3 SWAP2 POP POP JUMP JUMPDEST PUSH0 JUMPDEST DUP4 DUP2 LT ISZERO PUSH3 0x972 JUMPI DUP1 DUP3 ADD MLOAD DUP2 DUP5 ADD MSTORE PUSH1 0x20 DUP2 ADD SWAP1 POP PUSH3 0x955 JUMP JUMPDEST PUSH0 DUP5 DUP5 ADD MSTORE POP POP POP POP JUMP JUMPDEST PUSH0 PUSH1 0x1F NOT PUSH1 0x1F DUP4 ADD AND SWAP1 POP SWAP2 SWAP1 POP JUMP JUMPDEST PUSH0 PUSH3 0x999 DUP3 PUSH3 0x549 JUMP JUMPDEST PUSH3 0x9A5 DUP2 DUP6 PUSH3 0x943 JUMP JUMPDEST SWAP4 POP PUSH3 0x9B7 DUP2 DUP6 PUSH1 0x20 DUP7 ADD PUSH3 0x953 JUMP JUMPDEST PUSH3 0x9C2 DUP2 PUSH3 0x97D JUMP JUMPDEST DUP5 ADD SWAP2 POP POP SWAP3 SWAP2 POP POP JUMP JUMPDEST PUSH0 PUSH1 0x20 DUP3 ADD SWAP1 POP DUP2 DUP2 SUB PUSH0 DUP4 ADD MSTORE PUSH3 0x9E7 DUP2 DUP5 PUSH3 0x98D JUMP JUMPDEST SWAP1 POP SWAP3 SWAP2 POP POP JUMP JUMPDEST PUSH0 DUP2 MLOAD SWAP1 POP SWAP2 SWAP1 POP JUMP JUMPDEST PUSH0 DUP2 SWAP1 POP PUSH1 0x20 DUP3 ADD SWAP1 POP SWAP2 SWAP1 POP JUMP JUMPDEST PUSH0 PUSH3 0xA15 DUP3 MLOAD PUSH3 0x8BD JUMP JUMPDEST DUP1 SWAP2 POP POP SWAP2 SWAP1 POP JUMP JUMPDEST PUSH0 PUSH3 0xA2A DUP3 PUSH3 0x9EF JUMP JUMPDEST DUP3 PUSH3 0xA36 DUP5 PUSH3 0x9F9 JUMP JUMPDEST SWAP1 POP PUSH3 0xA43 DUP2 PUSH3 0xA08 JUMP JUMPDEST SWAP3 POP PUSH1 0x20 DUP3 LT ISZERO PUSH3 0xA86 JUMPI PUSH3 0xA81 PUSH32 0xFFFFFFFFFFFFFFFFFFFFFFFFFFFFFFFFFFFFFFFFFFFFFFFFFFFFFFFFFFFFFFFF DUP4 PUSH1 0x20 SUB PUSH1 0x8 MUL PUSH3 0x602 JUMP JUMPDEST DUP4 AND SWAP3 POP JUMPDEST POP POP SWAP2 SWAP1 POP JUMP JUMPDEST PUSH1 0x80 MLOAD PUSH1 0xA0 MLOAD PUSH1 0xC0 MLOAD PUSH1 0xE0 MLOAD PUSH2 0x100 MLOAD PUSH2 0x120 MLOAD PUSH2 0x140 MLOAD PUSH2 0x4FEC PUSH3 0xADF PUSH0 CODECOPY PUSH0 PUSH2 0x1759 ADD MSTORE PUSH0 PUSH2 0x171C ADD MSTORE PUSH0 PUSH2 0x1A90 ADD MSTORE PUSH0 PUSH2 0x1A6F ADD MSTORE PUSH0 PUSH2 0x12E0 ADD MSTORE PUSH0 PUSH2 0x1337 ADD MSTORE PUSH0 PUSH2 0x1361 ADD MSTORE PUSH2 0x4FEC PUSH0 RETURN INVALID PUSH1 0x80 PUSH1 0x40 MSTORE PUSH1 0x4 CALLDATASIZE LT PUSH3 0x1A5 JUMPI PUSH0 CALLDATALOAD PUSH1 0xE0 SHR DUP1 PUSH4 0x7ECEBE00 GT PUSH3 0xE4 JUMPI DUP1 PUSH4 0xD0FEBE4C GT PUSH3 0x96 JUMPI DUP1 PUSH4 0xE791FEBD GT PUSH3 0x6C JUMPI DUP1 PUSH4 0xE791FEBD EQ PUSH3 0x5A3 JUMPI DUP1 PUSH4 0xE8315742 EQ PUSH3 0x5D0 JUMPI DUP1 PUSH4 0xF2FDE38B EQ PUSH3 0x5FF JUMPI DUP1 PUSH4 0xF4F9C241 EQ PUSH3 0x62C JUMPI PUSH3 0x1A5 JUMP JUMPDEST DUP1 PUSH4 0xD0FEBE4C EQ PUSH3 0x527 JUMPI DUP1 PUSH4 0xD505ACCF EQ PUSH3 0x533 JUMPI DUP1 PUSH4 0xDD62ED3E EQ PUSH3 0x560 JUMPI PUSH3 0x1A5 JUMP JUMPDEST DUP1 PUSH4 0x7ECEBE00 EQ PUSH3 0x3F5 JUMPI DUP1 PUSH4 0x8456CB59 EQ PUSH3 0x438 JUMPI DUP1 PUSH4 0x84B0196E EQ PUSH3 0x451 JUMPI DUP1 PUSH4 0x8DA5CB5B EQ PUSH3 0x486 JUMPI DUP1 PUSH4 0x95D89B41 EQ PUSH3 0x4B5 JUMPI DUP1 PUSH4 0xA9059CBB EQ PUSH3 0x4E4 JUMPI PUSH3 0x1A5 JUMP JUMPDEST DUP1 PUSH4 0x3F4BA83A GT PUSH3 0x15C JUMPI DUP1 PUSH4 0x662FAC39 GT PUSH3 0x132 JUMPI DUP1 PUSH4 0x662FAC39 EQ PUSH3 0x360 JUMPI DUP1 PUSH4 0x6BE4CF1F EQ PUSH3 0x379 JUMPI DUP1 PUSH4 0x70A08231 EQ PUSH3 0x399 JUMPI DUP1 PUSH4 0x715018A6 EQ PUSH3 0x3DC JUMPI PUSH3 0x1A5 JUMP JUMPDEST DUP1 PUSH4 0x3F4BA83A EQ PUSH3 0x2EB JUMPI DUP1 PUSH4 0x40C10F19 EQ PUSH3 0x304 JUMPI DUP1 PUSH4 0x5C975ABB EQ PUSH3 0x331 JUMPI PUSH3 0x1A5 JUMP JUMPDEST DUP1 PUSH4 0x6FDDE03 EQ PUSH3 0x1A9 JUMPI DUP1 PUSH4 0x95EA7B3 EQ PUSH3 0x1D8 JUMPI DUP1 PUSH4 0x18160DDD EQ PUSH3 0x21B JUMPI DUP1 PUSH4 0x23B872DD EQ PUSH3 0x24A JUMPI DUP1 PUSH4 0x313CE567 EQ PUSH3 0x28D JUMPI DUP1 PUSH4 0x3644E515 EQ PUSH3 0x2BC JUMPI JUMPDEST PUSH0 DUP1 REVERT JUMPDEST CALLVALUE DUP1 ISZERO PUSH3 0x1B5 JUMPI PUSH0 DUP1 REVERT JUMPDEST POP PUSH3 0x1C0 PUSH3 0x659 JUMP JUMPDEST PUSH1 0x40 MLOAD PUSH3 0x1CF SWAP2 SWAP1 PUSH3 0x22DD JUMP JUMPDEST PUSH1 0x40 MLOAD DUP1 SWAP2 SUB SWAP1 RETURN JUMPDEST CALLVALUE DUP1 ISZERO PUSH3 0x1E4 JUMPI PUSH0 DUP1 REVERT JUMPDEST POP PUSH3 0x203 PUSH1 0x4 DUP1 CALLDATASIZE SUB DUP2 ADD SWAP1 PUSH3 0x1FD SWAP2 SWAP1 PUSH3 0x23A9 JUMP JUMPDEST PUSH3 0x6F1 JUMP JUMPDEST PUSH1 0x40 MLOAD PUSH3 0x212 SWAP2 SWAP1 PUSH3 0x240A JUMP JUMPDEST PUSH1 0x40 MLOAD DUP1 SWAP2 SUB SWAP1 RETURN JUMPDEST CALLVALUE DUP1 ISZERO PUSH3 0x227 JUMPI PUSH0 DUP1 REVERT JUMPDEST POP PUSH3 0x232 PUSH3 0x717 JUMP JUMPDEST PUSH1 0x40 MLOAD PUSH3 0x241 SWAP2 SWAP1 PUSH3 0x2436 JUMP JUMPDEST PUSH1 0x40 MLOAD DUP1 SWAP2 SUB SWAP1 RETURN JUMPDEST CALLVALUE DUP1 ISZERO PUSH3 0x256 JUMPI PUSH0 DUP1 REVERT JUMPDEST POP PUSH3 0x275 PUSH1 0x4 DUP1 CALLDATASIZE SUB DUP2 ADD SWAP1 PUSH3 0x26F SWAP2 SWAP1 PUSH3 0x2451 JUMP JUMPDEST PUSH3 0x720 JUMP JUMPDEST PUSH1 0x40 MLOAD PUSH3 0x284 SWAP2 SWAP1 PUSH3 0x240A JUMP JUMPDEST PUSH1 0x40 MLOAD DUP1 SWAP2 SUB SWAP1 RETURN JUMPDEST CALLVALUE DUP1 ISZERO PUSH3 0x299 JUMPI PUSH0 DUP1 REVERT JUMPDEST POP PUSH3 0x2A4 PUSH3 0x754 JUMP JUMPDEST PUSH1 0x40 MLOAD PUSH3 0x2B3 SWAP2 SWAP1 PUSH3 0x24C7 JUMP JUMPDEST PUSH1 0x40 MLOAD DUP1 SWAP2 SUB SWAP1 RETURN JUMPDEST CALLVALUE DUP1 ISZERO PUSH3 0x2C8 JUMPI PUSH0 DUP1 REVERT JUMPDEST POP PUSH3 0x2D3 PUSH3 0x75C JUMP JUMPDEST PUSH1 0x40 MLOAD PUSH3 0x2E2 SWAP2 SWAP1 PUSH3 0x24FC JUMP JUMPDEST PUSH1 0x40 MLOAD DUP1 SWAP2 SUB SWAP1 RETURN JUMPDEST CALLVALUE DUP1 ISZERO PUSH3 0x2F7 JUMPI PUSH0 DUP1 REVERT JUMPDEST POP PUSH3 0x302 PUSH3 0x76C JUMP JUMPDEST STOP JUMPDEST CALLVALUE DUP1 ISZERO PUSH3 0x310 JUMPI PUSH0 DUP1 REVERT JUMPDEST POP PUSH3 0x32F PUSH1 0x4 DUP1 CALLDATASIZE SUB DUP2 ADD SWAP1 PUSH3 0x329 SWAP2 SWAP1 PUSH3 0x23A9 JUMP JUMPDEST PUSH3 0x782 JUMP JUMPDEST STOP JUMPDEST CALLVALUE DUP1 ISZERO PUSH3 0x33D JUMPI PUSH0 DUP1 REVERT JUMPDEST POP PUSH3 0x348 PUSH3 0x79C JUMP JUMPDEST PUSH1 0x40 MLOAD PUSH3 0x357 SWAP2 SWAP1 PUSH3 0x240A JUMP JUMPDEST PUSH1 0x40 MLOAD DUP1 SWAP2 SUB SWAP1 RETURN JUMPDEST CALLVALUE DUP1 ISZERO PUSH3 0x36C JUMPI PUSH0 DUP1 REVERT JUMPDEST POP PUSH3 0x377 PUSH3 0x7B1 JUMP JUMPDEST STOP JUMPDEST PUSH3 0x397 PUSH1 0x4 DUP1 CALLDATASIZE SUB DUP2 ADD SWAP1 PUSH3 0x391 SWAP2 SWAP1 PUSH3 0x2517 JUMP JUMPDEST PUSH3 0x918 JUMP JUMPDEST STOP JUMPDEST CALLVALUE DUP1 ISZERO PUSH3 0x3A5 JUMPI PUSH0 DUP1 REVERT JUMPDEST POP PUSH3 0x3C4 PUSH1 0x4 DUP1 CALLDATASIZE SUB DUP2 ADD SWAP1 PUSH3 0x3BE SWAP2 SWAP1 PUSH3 0x2517 JUMP JUMPDEST PUSH3 0x99A JUMP JUMPDEST PUSH1 0x40 MLOAD PUSH3 0x3D3 SWAP2 SWAP1 PUSH3 0x2436 JUMP JUMPDEST PUSH1 0x40 MLOAD DUP1 SWAP2 SUB SWAP1 RETURN JUMPDEST CALLVALUE DUP1 ISZERO PUSH3 0x3E8 JUMPI PUSH0 DUP1 REVERT JUMPDEST POP PUSH3 0x3F3 PUSH3 0x9DF JUMP JUMPDEST STOP JUMPDEST CALLVALUE DUP1 ISZERO PUSH3 0x401 JUMPI PUSH0 DUP1 REVERT JUMPDEST POP PUSH3 0x420 PUSH1 0x4 DUP1 CALLDATASIZE SUB DUP2 ADD SWAP1 PUSH3 0x41A SWAP2 SWAP1 PUSH3 0x2517 JUMP JUMPDEST PUSH3 0x9F6 JUMP JUMPDEST PUSH1 0x40 MLOAD PUSH3 0x42F SWAP2 SWAP1 PUSH3 0x2436 JUMP JUMPDEST PUSH1 0x40 MLOAD DUP1 SWAP2 SUB SWAP1 RETURN JUMPDEST CALLVALUE DUP1 ISZERO PUSH3 0x444 JUMPI PUSH0 DUP1 REVERT JUMPDEST POP PUSH3 0x44F PUSH3 0xA09 JUMP JUMPDEST STOP JUMPDEST CALLVALUE DUP1 ISZERO PUSH3 0x45D JUMPI PUSH0 DUP1 REVERT JUMPDEST POP PUSH3 0x468 PUSH3 0xA1F JUMP JUMPDEST PUSH1 0x40 MLOAD PUSH3 0x47D SWAP8 SWAP7 SWAP6 SWAP5 SWAP4 SWAP3 SWAP2 SWAP1 PUSH3 0x265B JUMP JUMPDEST PUSH1 0x40 MLOAD DUP1 SWAP2 SUB SWAP1 RETURN JUMPDEST CALLVALUE DUP1 ISZERO PUSH3 0x492 JUMPI PUSH0 DUP1 REVERT JUMPDEST POP PUSH3 0x49D PUSH3 0xACC JUMP JUMPDEST PUSH1 0x40 MLOAD PUSH3 0x4AC SWAP2 SWAP1 PUSH3 0x26EB JUMP JUMPDEST PUSH1 0x40 MLOAD DUP1 SWAP2 SUB SWAP1 RETURN JUMPDEST CALLVALUE DUP1 ISZERO PUSH3 0x4C1 JUMPI PUSH0 DUP1 REVERT JUMPDEST POP PUSH3 0x4CC PUSH3 0xAF5 JUMP JUMPDEST PUSH1 0x40 MLOAD PUSH3 0x4DB SWAP2 SWAP1 PUSH3 0x22DD JUMP JUMPDEST PUSH1 0x40 MLOAD DUP1 SWAP2 SUB SWAP1 RETURN JUMPDEST CALLVALUE DUP1 ISZERO PUSH3 0x4F0 JUMPI PUSH0 DUP1 REVERT JUMPDEST POP PUSH3 0x50F PUSH1 0x4 DUP1 CALLDATASIZE SUB DUP2 ADD SWAP1 PUSH3 0x509 SWAP2 SWAP1 PUSH3 0x23A9 JUMP JUMPDEST PUSH3 0xB8D JUMP JUMPDEST PUSH1 0x40 MLOAD PUSH3 0x51E SWAP2 SWAP1 PUSH3 0x240A JUMP JUMPDEST PUSH1 0x40 MLOAD DUP1 SWAP2 SUB SWAP1 RETURN JUMPDEST PUSH3 0x531 PUSH3 0xBB3 JUMP JUMPDEST STOP JUMPDEST CALLVALUE DUP1 ISZERO PUSH3 0x53F JUMPI PUSH0 DUP1 REVERT JUMPDEST POP PUSH3 0x55E PUSH1 0x4 DUP1 CALLDATASIZE SUB DUP2 ADD SWAP1 PUSH3 0x558 SWAP2 SWAP1 PUSH3 0x2764 JUMP JUMPDEST PUSH3 0xC3D JUMP JUMPDEST STOP JUMPDEST CALLVALUE DUP1 ISZERO PUSH3 0x56C JUMPI PUSH0 DUP1 REVERT JUMPDEST POP PUSH3 0x58B PUSH1 0x4 DUP1 CALLDATASIZE SUB DUP2 ADD SWAP1 PUSH3 0x585 SWAP2 SWAP1 PUSH3 0x2812 JUMP JUMPDEST PUSH3 0xD92 JUMP JUMPDEST PUSH1 0x40 MLOAD PUSH3 0x59A SWAP2 SWAP1 PUSH3 0x2436 JUMP JUMPDEST PUSH1 0x40 MLOAD DUP1 SWAP2 SUB SWAP1 RETURN JUMPDEST CALLVALUE DUP1 ISZERO PUSH3 0x5AF JUMPI PUSH0 DUP1 REVERT JUMPDEST POP PUSH3 0x5CE PUSH1 0x4 DUP1 CALLDATASIZE SUB DUP2 ADD SWAP1 PUSH3 0x5C8 SWAP2 SWAP1 PUSH3 0x2899 JUMP JUMPDEST PUSH3 0xE14 JUMP JUMPDEST STOP JUMPDEST CALLVALUE DUP1 ISZERO PUSH3 0x5DC JUMPI PUSH0 DUP1 REVERT JUMPDEST POP PUSH3 0x5E7 PUSH3 0xF09 JUMP JUMPDEST PUSH1 0x40 MLOAD PUSH3 0x5F6 SWAP2 SWAP1 PUSH3 0x2436 JUMP JUMPDEST PUSH1 0x40 MLOAD DUP1 SWAP2 SUB SWAP1 RETURN JUMPDEST CALLVALUE DUP1 ISZERO PUSH3 0x60B JUMPI PUSH0 DUP1 REVERT JUMPDEST POP PUSH3 0x62A PUSH1 0x4 DUP1 CALLDATASIZE SUB DUP2 ADD SWAP1 PUSH3 0x624 SWAP2 SWAP1 PUSH3 0x2517 JUMP JUMPDEST PUSH3 0xF0F JUMP JUMPDEST STOP JUMPDEST CALLVALUE DUP1 ISZERO PUSH3 0x638 JUMPI PUSH0 DUP1 REVERT JUMPDEST POP PUSH3 0x657 PUSH1 0x4 DUP1 CALLDATASIZE SUB DUP2 ADD SWAP1 PUSH3 0x651 SWAP2 SWAP1 PUSH3 0x2A26 JUMP JUMPDEST PUSH3 0xF9A JUMP JUMPDEST STOP JUMPDEST PUSH1 0x60 PUSH1 0x3 DUP1 SLOAD PUSH3 0x66A SWAP1 PUSH3 0x2AA2 JUMP JUMPDEST DUP1 PUSH1 0x1F ADD PUSH1 0x20 DUP1 SWAP2 DIV MUL PUSH1 0x20 ADD PUSH1 0x40 MLOAD SWAP1 DUP2 ADD PUSH1 0x40 MSTORE DUP1 SWAP3 SWAP2 SWAP1 DUP2 DUP2 MSTORE PUSH1 0x20 ADD DUP3 DUP1 SLOAD PUSH3 0x698 SWAP1 PUSH3 0x2AA2 JUMP JUMPDEST DUP1 ISZERO PUSH3 0x6E7 JUMPI DUP1 PUSH1 0x1F LT PUSH3 0x6BD JUMPI PUSH2 0x100 DUP1 DUP4 SLOAD DIV MUL DUP4 MSTORE SWAP2 PUSH1 0x20 ADD SWAP2 PUSH3 0x6E7 JUMP JUMPDEST DUP3 ADD SWAP2 SWAP1 PUSH0 MSTORE PUSH1 0x20 PUSH0 KECCAK256 SWAP1 JUMPDEST DUP2 SLOAD DUP2 MSTORE SWAP1 PUSH1 0x1 ADD SWAP1 PUSH1 0x20 ADD DUP1 DUP4 GT PUSH3 0x6C9 JUMPI DUP3 SWAP1 SUB PUSH1 0x1F AND DUP3 ADD SWAP2 JUMPDEST POP POP POP POP POP SWAP1 POP SWAP1 JUMP JUMPDEST PUSH0 DUP1 PUSH3 0x6FD PUSH3 0x1130 JUMP JUMPDEST SWAP1 POP PUSH3 0x70C DUP2 DUP6 DUP6 PUSH3 0x1137 JUMP JUMPDEST PUSH1 0x1 SWAP2 POP POP SWAP3 SWAP2 POP POP JUMP JUMPDEST PUSH0 PUSH1 0x2 SLOAD SWAP1 POP SWAP1 JUMP JUMPDEST PUSH0 DUP1 PUSH3 0x72C PUSH3 0x1130 JUMP JUMPDEST SWAP1 POP PUSH3 0x73B DUP6 DUP3 DUP6 PUSH3 0x114B JUMP JUMPDEST PUSH3 0x748 DUP6 DUP6 DUP6 PUSH3 0x11E5 JUMP JUMPDEST PUSH1 0x1 SWAP2 POP POP SWAP4 SWAP3 POP POP POP JUMP JUMPDEST PUSH0 PUSH1 0x12 SWAP1 POP SWAP1 JUMP JUMPDEST PUSH0 PUSH3 0x767 PUSH3 0x12DD JUMP JUMPDEST SWAP1 POP SWAP1 JUMP JUMPDEST PUSH3 0x776 PUSH3 0x1398 JUMP JUMPDEST PUSH3 0x780 PUSH3 0x1428 JUMP JUMPDEST JUMP JUMPDEST PUSH3 0x78C PUSH3 0x1398 JUMP JUMPDEST PUSH3 0x798 DUP3 DUP3 PUSH3 0x148F JUMP JUMPDEST POP POP JUMP JUMPDEST PUSH0 PUSH1 0x5 PUSH0 SWAP1 SLOAD SWAP1 PUSH2 0x100 EXP SWAP1 DIV PUSH1 0xFF AND SWAP1 POP SWAP1 JUMP JUMPDEST PUSH0 PUSH3 0x7BC PUSH3 0x717 JUMP JUMPDEST GT PUSH3 0x7FF JUMPI PUSH1 0x40 MLOAD PUSH32 0x8C379A000000000000000000000000000000000000000000000000000000000 DUP2 MSTORE PUSH1 0x4 ADD PUSH3 0x7F6 SWAP1 PUSH3 0x2B4A JUMP JUMPDEST PUSH1 0x40 MLOAD DUP1 SWAP2 SUB SWAP1 REVERT JUMPDEST PUSH1 0xA PUSH1 0x15 SWAP1 SLOAD SWAP1 PUSH2 0x100 EXP SWAP1 DIV PUSH1 0xFF AND ISZERO PUSH3 0x852 JUMPI PUSH1 0x40 MLOAD PUSH32 0x8C379A000000000000000000000000000000000000000000000000000000000 DUP2 MSTORE PUSH1 0x4 ADD PUSH3 0x849 SWAP1 PUSH3 0x2BB8 JUMP JUMPDEST PUSH1 0x40 MLOAD DUP1 SWAP2 SUB SWAP1 REVERT JUMPDEST PUSH1 0xA PUSH0 SWAP1 SLOAD SWAP1 PUSH2 0x100 EXP SWAP1 DIV PUSH1 0xFF AND PUSH1 0x9 SLOAD PUSH3 0x86E PUSH3 0xAF5 JUMP JUMPDEST PUSH3 0x878 PUSH3 0x659 JUMP JUMPDEST PUSH3 0x882 PUSH3 0x717 JUMP JUMPDEST PUSH1 0x40 MLOAD PUSH3 0x890 SWAP1 PUSH3 0x223B JUMP JUMPDEST PUSH3 0x8A0 SWAP6 SWAP5 SWAP4 SWAP3 SWAP2 SWAP1 PUSH3 0x2BD8 JUMP JUMPDEST PUSH1 0x40 MLOAD DUP1 SWAP2 SUB SWAP1 PUSH0 CREATE DUP1 ISZERO DUP1 ISZERO PUSH3 0x8BA JUMPI RETURNDATASIZE PUSH0 DUP1 RETURNDATACOPY RETURNDATASIZE PUSH0 REVERT JUMPDEST POP PUSH1 0xA PUSH1 0x1 PUSH2 0x100 EXP DUP2 SLOAD DUP2 PUSH20 0xFFFFFFFFFFFFFFFFFFFFFFFFFFFFFFFFFFFFFFFF MUL NOT AND SWAP1 DUP4 PUSH20 0xFFFFFFFFFFFFFFFFFFFFFFFFFFFFFFFFFFFFFFFF AND MUL OR SWAP1 SSTORE POP PUSH1 0x1 PUSH1 0xA PUSH1 0x15 PUSH2 0x100 EXP DUP2 SLOAD DUP2 PUSH1 0xFF MUL NOT AND SWAP1 DUP4 ISZERO ISZERO MUL OR SWAP1 SSTORE POP JUMP JUMPDEST PUSH0 PUSH3 0x924 CALLVALUE PUSH3 0x1513 JUMP JUMPDEST SWAP1 POP PUSH0 DUP2 PUSH3 0x932 PUSH3 0x717 JUMP JUMPDEST PUSH3 0x93E SWAP2 SWAP1 PUSH3 0x2C6E JUMP JUMPDEST SWAP1 POP DUP1 PUSH1 0x9 SLOAD LT ISZERO PUSH3 0x988 JUMPI PUSH1 0x40 MLOAD PUSH32 0x8C379A000000000000000000000000000000000000000000000000000000000 DUP2 MSTORE PUSH1 0x4 ADD PUSH3 0x97F SWAP1 PUSH3 0x2CF6 JUMP JUMPDEST PUSH1 0x40 MLOAD DUP1 SWAP2 SUB SWAP1 REVERT JUMPDEST PUSH3 0x995 DUP4 DUP4 DUP4 PUSH3 0x1546 JUMP JUMPDEST POP POP POP JUMP JUMPDEST PUSH0 DUP1 PUSH0 DUP4 PUSH20 0xFFFFFFFFFFFFFFFFFFFFFFFFFFFFFFFFFFFFFFFF AND PUSH20 0xFFFFFFFFFFFFFFFFFFFFFFFFFFFFFFFFFFFFFFFF AND DUP2 MSTORE PUSH1 0x20 ADD SWAP1 DUP2 MSTORE PUSH1 0x20 ADD PUSH0 KECCAK256 SLOAD SWAP1 POP SWAP2 SWAP1 POP JUMP JUMPDEST PUSH3 0x9E9 PUSH3 0x1398 JUMP JUMPDEST PUSH3 0x9F4 PUSH0 PUSH3 0x159F JUMP JUMPDEST JUMP JUMPDEST PUSH0 PUSH3 0xA02 DUP3 PUSH3 0x1664 JUMP JUMPDEST SWAP1 POP SWAP2 SWAP1 POP JUMP JUMPDEST PUSH3 0xA13 PUSH3 0x1398 JUMP JUMPDEST PUSH3 0xA1D PUSH3 0x16AA JUMP JUMPDEST JUMP JUMPDEST PUSH0 PUSH1 0x60 DUP1 PUSH0 DUP1 PUSH0 PUSH1 0x60 PUSH3 0xA32 PUSH3 0x1712 JUMP JUMPDEST PUSH3 0xA3C PUSH3 0x174F JUMP JUMPDEST CHAINID ADDRESS PUSH0 DUP1 SHL PUSH0 PUSH8 0xFFFFFFFFFFFFFFFF DUP2 GT ISZERO PUSH3 0xA5E JUMPI PUSH3 0xA5D PUSH3 0x28E6 JUMP JUMPDEST JUMPDEST PUSH1 0x40 MLOAD SWAP1 DUP1 DUP3 MSTORE DUP1 PUSH1 0x20 MUL PUSH1 0x20 ADD DUP3 ADD PUSH1 0x40 MSTORE DUP1 ISZERO PUSH3 0xA8D JUMPI DUP2 PUSH1 0x20 ADD PUSH1 0x20 DUP3 MUL DUP1 CALLDATASIZE DUP4 CALLDATACOPY DUP1 DUP3 ADD SWAP2 POP POP SWAP1 POP JUMPDEST POP PUSH32 0xF00000000000000000000000000000000000000000000000000000000000000 SWAP6 SWAP5 SWAP4 SWAP3 SWAP2 SWAP1 SWAP7 POP SWAP7 POP SWAP7 POP SWAP7 POP SWAP7 POP SWAP7 POP SWAP7 POP SWAP1 SWAP2 SWAP3 SWAP4 SWAP5 SWAP6 SWAP7 JUMP JUMPDEST PUSH0 PUSH1 0x5 PUSH1 0x1 SWAP1 SLOAD SWAP1 PUSH2 0x100 EXP SWAP1 DIV PUSH20 0xFFFFFFFFFFFFFFFFFFFFFFFFFFFFFFFFFFFFFFFF AND SWAP1 POP SWAP1 JUMP JUMPDEST PUSH1 0x60 PUSH1 0x4 DUP1 SLOAD PUSH3 0xB06 SWAP1 PUSH3 0x2AA2 JUMP JUMPDEST DUP1 PUSH1 0x1F ADD PUSH1 0x20 DUP1 SWAP2 DIV MUL PUSH1 0x20 ADD PUSH1 0x40 MLOAD SWAP1 DUP2 ADD PUSH1 0x40 MSTORE DUP1 SWAP3 SWAP2 SWAP1 DUP2 DUP2 MSTORE PUSH1 0x20 ADD DUP3 DUP1 SLOAD PUSH3 0xB34 SWAP1 PUSH3 0x2AA2 JUMP JUMPDEST DUP1 ISZERO PUSH3 0xB83 JUMPI DUP1 PUSH1 0x1F LT PUSH3 0xB59 JUMPI PUSH2 0x100 DUP1 DUP4 SLOAD DIV MUL DUP4 MSTORE SWAP2 PUSH1 0x20 ADD SWAP2 PUSH3 0xB83 JUMP JUMPDEST DUP3 ADD SWAP2 SWAP1 PUSH0 MSTORE PUSH1 0x20 PUSH0 KECCAK256 SWAP1 JUMPDEST DUP2 SLOAD DUP2 MSTORE SWAP1 PUSH1 0x1 ADD SWAP1 PUSH1 0x20 ADD DUP1 DUP4 GT PUSH3 0xB65 JUMPI DUP3 SWAP1 SUB PUSH1 0x1F AND DUP3 ADD SWAP2 JUMPDEST POP POP POP POP POP SWAP1 POP SWAP1 JUMP JUMPDEST PUSH0 DUP1 PUSH3 0xB99 PUSH3 0x1130 JUMP JUMPDEST SWAP1 POP PUSH3 0xBA8 DUP2 DUP6 DUP6 PUSH3 0x11E5 JUMP JUMPDEST PUSH1 0x1 SWAP2 POP POP SWAP3 SWAP2 POP POP JUMP JUMPDEST PUSH0 PUSH3 0xBBF CALLVALUE PUSH3 0x1513 JUMP JUMPDEST SWAP1 POP PUSH0 DUP2 PUSH3 0xBCD PUSH3 0x717 JUMP JUMPDEST PUSH3 0xBD9 SWAP2 SWAP1 PUSH3 0x2C6E JUMP JUMPDEST SWAP1 POP DUP1 PUSH1 0x9 SLOAD LT ISZERO PUSH3 0xC23 JUMPI PUSH1 0x40 MLOAD PUSH32 0x8C379A000000000000000000000000000000000000000000000000000000000 DUP2 MSTORE PUSH1 0x4 ADD PUSH3 0xC1A SWAP1 PUSH3 0x2CF6 JUMP JUMPDEST PUSH1 0x40 MLOAD DUP1 SWAP2 SUB SWAP1 REVERT JUMPDEST PUSH3 0xC39 PUSH3 0xC31 PUSH3 0x1130 JUMP JUMPDEST DUP4 DUP4 PUSH3 0x1546 JUMP JUMPDEST POP POP JUMP JUMPDEST DUP4 TIMESTAMP GT ISZERO PUSH3 0xC85 JUMPI DUP4 PUSH1 0x40 MLOAD PUSH32 0x6279130200000000000000000000000000000000000000000000000000000000 DUP2 MSTORE PUSH1 0x4 ADD PUSH3 0xC7C SWAP2 SWAP1 PUSH3 0x2436 JUMP JUMPDEST PUSH1 0x40 MLOAD DUP1 SWAP2 SUB SWAP1 REVERT JUMPDEST PUSH0 PUSH32 0x6E71EDAE12B1B97F4D1F60370FEF10105FA2FAAE0126114A169C64845D6126C9 DUP9 DUP9 DUP9 PUSH3 0xCB5 DUP13 PUSH3 0x178C JUMP JUMPDEST DUP10 PUSH1 0x40 MLOAD PUSH1 0x20 ADD PUSH3 0xCCD SWAP7 SWAP6 SWAP5 SWAP4 SWAP3 SWAP2 SWAP1 PUSH3 0x2D16 JUMP JUMPDEST PUSH1 0x40 MLOAD PUSH1 0x20 DUP2 DUP4 SUB SUB DUP2 MSTORE SWAP1 PUSH1 0x40 MSTORE DUP1 MLOAD SWAP1 PUSH1 0x20 ADD KECCAK256 SWAP1 POP PUSH0 PUSH3 0xCF1 DUP3 PUSH3 0x17DF JUMP JUMPDEST SWAP1 POP PUSH0 PUSH3 0xD02 DUP3 DUP8 DUP8 DUP8 PUSH3 0x17FC JUMP JUMPDEST SWAP1 POP DUP10 PUSH20 0xFFFFFFFFFFFFFFFFFFFFFFFFFFFFFFFFFFFFFFFF AND DUP2 PUSH20 0xFFFFFFFFFFFFFFFFFFFFFFFFFFFFFFFFFFFFFFFF AND EQ PUSH3 0xD79 JUMPI DUP1 DUP11 PUSH1 0x40 MLOAD PUSH32 0x4B800E4600000000000000000000000000000000000000000000000000000000 DUP2 MSTORE PUSH1 0x4 ADD PUSH3 0xD70 SWAP3 SWAP2 SWAP1 PUSH3 0x2D81 JUMP JUMPDEST PUSH1 0x40 MLOAD DUP1 SWAP2 SUB SWAP1 REVERT JUMPDEST PUSH3 0xD86 DUP11 DUP11 DUP11 PUSH3 0x1137 JUMP JUMPDEST POP POP POP POP POP POP POP POP POP POP JUMP JUMPDEST PUSH0 PUSH1 0x1 PUSH0 DUP5 PUSH20 0xFFFFFFFFFFFFFFFFFFFFFFFFFFFFFFFFFFFFFFFF AND PUSH20 0xFFFFFFFFFFFFFFFFFFFFFFFFFFFFFFFFFFFFFFFF AND DUP2 MSTORE PUSH1 0x20 ADD SWAP1 DUP2 MSTORE PUSH1 0x20 ADD PUSH0 KECCAK256 PUSH0 DUP4 PUSH20 0xFFFFFFFFFFFFFFFFFFFFFFFFFFFFFFFFFFFFFFFF AND PUSH20 0xFFFFFFFFFFFFFFFFFFFFFFFFFFFFFFFFFFFFFFFF AND DUP2 MSTORE PUSH1 0x20 ADD SWAP1 DUP2 MSTORE PUSH1 0x20 ADD PUSH0 KECCAK256 SLOAD SWAP1 POP SWAP3 SWAP2 POP POP JUMP JUMPDEST DUP1 PUSH3 0xE29 PUSH3 0xE23 PUSH3 0x1130 JUMP JUMPDEST PUSH3 0x99A JUMP JUMPDEST LT ISZERO PUSH3 0xE6D JUMPI PUSH1 0x40 MLOAD PUSH32 0x8C379A000000000000000000000000000000000000000000000000000000000 DUP2 MSTORE PUSH1 0x4 ADD PUSH3 0xE64 SWAP1 PUSH3 0x2DFA JUMP JUMPDEST PUSH1 0x40 MLOAD DUP1 SWAP2 SUB SWAP1 REVERT JUMPDEST PUSH3 0xE78 DUP2 PUSH3 0x182E JUMP JUMPDEST SWAP1 POP DUP1 SELFBALANCE LT ISZERO PUSH3 0xEC0 JUMPI PUSH1 0x40 MLOAD PUSH32 0x8C379A000000000000000000000000000000000000000000000000000000000 DUP2 MSTORE PUSH1 0x4 ADD PUSH3 0xEB7 SWAP1 PUSH3 0x2E68 JUMP JUMPDEST PUSH1 0x40 MLOAD DUP1 SWAP2 SUB SWAP1 REVERT JUMPDEST DUP2 PUSH20 0xFFFFFFFFFFFFFFFFFFFFFFFFFFFFFFFFFFFFFFFF AND PUSH2 0x8FC DUP3 SWAP1 DUP2 ISZERO MUL SWAP1 PUSH1 0x40 MLOAD PUSH0 PUSH1 0x40 MLOAD DUP1 DUP4 SUB DUP2 DUP6 DUP9 DUP9 CALL SWAP4 POP POP POP POP ISZERO DUP1 ISZERO PUSH3 0xF04 JUMPI RETURNDATASIZE PUSH0 DUP1 RETURNDATACOPY RETURNDATASIZE PUSH0 REVERT JUMPDEST POP POP POP JUMP JUMPDEST PUSH1 0x9 SLOAD DUP2 JUMP JUMPDEST PUSH3 0xF19 PUSH3 0x1398 JUMP JUMPDEST PUSH0 PUSH20 0xFFFFFFFFFFFFFFFFFFFFFFFFFFFFFFFFFFFFFFFF AND DUP2 PUSH20 0xFFFFFFFFFFFFFFFFFFFFFFFFFFFFFFFFFFFFFFFF AND SUB PUSH3 0xF8C JUMPI PUSH0 PUSH1 0x40 MLOAD PUSH32 0x1E4FBDF700000000000000000000000000000000000000000000000000000000 DUP2 MSTORE PUSH1 0x4 ADD PUSH3 0xF83 SWAP2 SWAP1 PUSH3 0x26EB JUMP JUMPDEST PUSH1 0x40 MLOAD DUP1 SWAP2 SUB SWAP1 REVERT JUMPDEST PUSH3 0xF97 DUP2 PUSH3 0x159F JUMP JUMPDEST POP JUMP JUMPDEST PUSH0 PUSH1 0xA PUSH1 0x1 SWAP1 SLOAD SWAP1 PUSH2 0x100 EXP SWAP1 DIV PUSH20 0xFFFFFFFFFFFFFFFFFFFFFFFFFFFFFFFFFFFFFFFF AND PUSH20 0xFFFFFFFFFFFFFFFFFFFFFFFFFFFFFFFFFFFFFFFF AND PUSH4 0x4FC8A991 PUSH3 0xFE3 PUSH3 0x1130 JUMP JUMPDEST DUP5 PUSH1 0x40 MLOAD DUP4 PUSH4 0xFFFFFFFF AND PUSH1 0xE0 SHL DUP2 MSTORE PUSH1 0x4 ADD PUSH3 0x1003 SWAP3 SWAP2 SWAP1 PUSH3 0x2E88 JUMP JUMPDEST PUSH1 0x20 PUSH1 0x40 MLOAD DUP1 DUP4 SUB DUP2 PUSH0 DUP8 GAS CALL ISZERO DUP1 ISZERO PUSH3 0x1020 JUMPI RETURNDATASIZE PUSH0 DUP1 RETURNDATACOPY RETURNDATASIZE PUSH0 REVERT JUMPDEST POP POP POP POP PUSH1 0x40 MLOAD RETURNDATASIZE PUSH1 0x1F NOT PUSH1 0x1F DUP3 ADD AND DUP3 ADD DUP1 PUSH1 0x40 MSTORE POP DUP2 ADD SWAP1 PUSH3 0x1046 SWAP2 SWAP1 PUSH3 0x2EE9 JUMP JUMPDEST SWAP1 POP DUP1 ISZERO PUSH3 0x112C JUMPI PUSH0 PUSH1 0xA PUSH1 0x1 SWAP1 SLOAD SWAP1 PUSH2 0x100 EXP SWAP1 DIV PUSH20 0xFFFFFFFFFFFFFFFFFFFFFFFFFFFFFFFFFFFFFFFF AND PUSH20 0xFFFFFFFFFFFFFFFFFFFFFFFFFFFFFFFFFFFFFFFF AND PUSH4 0x572B0CC PUSH1 0x40 MLOAD DUP2 PUSH4 0xFFFFFFFF AND PUSH1 0xE0 SHL DUP2 MSTORE PUSH1 0x4 ADD PUSH1 0x20 PUSH1 0x40 MLOAD DUP1 DUP4 SUB DUP2 DUP7 GAS STATICCALL ISZERO DUP1 ISZERO PUSH3 0x10BC JUMPI RETURNDATASIZE PUSH0 DUP1 RETURNDATACOPY RETURNDATASIZE PUSH0 REVERT JUMPDEST POP POP POP POP PUSH1 0x40 MLOAD RETURNDATASIZE PUSH1 0x1F NOT PUSH1 0x1F DUP3 ADD AND DUP3 ADD DUP1 PUSH1 0x40 MSTORE POP DUP2 ADD SWAP1 PUSH3 0x10E2 SWAP2 SWAP1 PUSH3 0x2F2F JUMP JUMPDEST SWAP1 POP PUSH3 0x1110 PUSH3 0x10F2 PUSH3 0x1130 JUMP JUMPDEST DUP3 PUSH3 0x10FD PUSH3 0x717 JUMP JUMPDEST DUP5 PUSH3 0x110A SWAP2 SWAP1 PUSH3 0x2C6E JUMP JUMPDEST PUSH3 0x1546 JUMP JUMPDEST PUSH0 PUSH1 0xA PUSH1 0x15 PUSH2 0x100 EXP DUP2 SLOAD DUP2 PUSH1 0xFF MUL NOT AND SWAP1 DUP4 ISZERO ISZERO MUL OR SWAP1 SSTORE POP POP JUMPDEST POP POP JUMP JUMPDEST PUSH0 CALLER SWAP1 POP SWAP1 JUMP JUMPDEST PUSH3 0x1146 DUP4 DUP4 DUP4 PUSH1 0x1 PUSH3 0x1861 JUMP JUMPDEST POP POP POP JUMP JUMPDEST PUSH0 PUSH3 0x1158 DUP5 DUP5 PUSH3 0xD92 JUMP JUMPDEST SWAP1 POP PUSH32 0xFFFFFFFFFFFFFFFFFFFFFFFFFFFFFFFFFFFFFFFFFFFFFFFFFFFFFFFFFFFFFFFF DUP2 EQ PUSH3 0x11DF JUMPI DUP2 DUP2 LT ISZERO PUSH3 0x11CE JUMPI DUP3 DUP2 DUP4 PUSH1 0x40 MLOAD PUSH32 0xFB8F41B200000000000000000000000000000000000000000000000000000000 DUP2 MSTORE PUSH1 0x4 ADD PUSH3 0x11C5 SWAP4 SWAP3 SWAP2 SWAP1 PUSH3 0x2F5F JUMP JUMPDEST PUSH1 0x40 MLOAD DUP1 SWAP2 SUB SWAP1 REVERT JUMPDEST PUSH3 0x11DE DUP5 DUP5 DUP5 DUP5 SUB PUSH0 PUSH3 0x1861 JUMP JUMPDEST JUMPDEST POP POP POP POP JUMP JUMPDEST PUSH0 PUSH20 0xFFFFFFFFFFFFFFFFFFFFFFFFFFFFFFFFFFFFFFFF AND DUP4 PUSH20 0xFFFFFFFFFFFFFFFFFFFFFFFFFFFFFFFFFFFFFFFF AND SUB PUSH3 0x1258 JUMPI PUSH0 PUSH1 0x40 MLOAD PUSH32 0x96C6FD1E00000000000000000000000000000000000000000000000000000000 DUP2 MSTORE PUSH1 0x4 ADD PUSH3 0x124F SWAP2 SWAP1 PUSH3 0x26EB JUMP JUMPDEST PUSH1 0x40 MLOAD DUP1 SWAP2 SUB SWAP1 REVERT JUMPDEST PUSH0 PUSH20 0xFFFFFFFFFFFFFFFFFFFFFFFFFFFFFFFFFFFFFFFF AND DUP3 PUSH20 0xFFFFFFFFFFFFFFFFFFFFFFFFFFFFFFFFFFFFFFFF AND SUB PUSH3 0x12CB JUMPI PUSH0 PUSH1 0x40 MLOAD PUSH32 0xEC442F0500000000000000000000000000000000000000000000000000000000 DUP2 MSTORE PUSH1 0x4 ADD PUSH3 0x12C2 SWAP2 SWAP1 PUSH3 0x26EB JUMP JUMPDEST PUSH1 0x40 MLOAD DUP1 SWAP2 SUB SWAP1 REVERT JUMPDEST PUSH3 0x12D8 DUP4 DUP4 DUP4 PUSH3 0x1A39 JUMP JUMPDEST POP POP POP JUMP JUMPDEST PUSH0 PUSH32 0x0 PUSH20 0xFFFFFFFFFFFFFFFFFFFFFFFFFFFFFFFFFFFFFFFF AND ADDRESS PUSH20 0xFFFFFFFFFFFFFFFFFFFFFFFFFFFFFFFFFFFFFFFF AND EQ DUP1 ISZERO PUSH3 0x1359 JUMPI POP PUSH32 0x0 CHAINID EQ JUMPDEST ISZERO PUSH3 0x1388 JUMPI PUSH32 0x0 SWAP1 POP PUSH3 0x1395 JUMP JUMPDEST PUSH3 0x1392 PUSH3 0x1A4B JUMP JUMPDEST SWAP1 POP JUMPDEST SWAP1 JUMP JUMPDEST PUSH3 0x13A2 PUSH3 0x1130 JUMP JUMPDEST PUSH20 0xFFFFFFFFFFFFFFFFFFFFFFFFFFFFFFFFFFFFFFFF AND PUSH3 0x13C2 PUSH3 0xACC JUMP JUMPDEST PUSH20 0xFFFFFFFFFFFFFFFFFFFFFFFFFFFFFFFFFFFFFFFF AND EQ PUSH3 0x1426 JUMPI PUSH3 0x13E8 PUSH3 0x1130 JUMP JUMPDEST PUSH1 0x40 MLOAD PUSH32 0x118CDAA700000000000000000000000000000000000000000000000000000000 DUP2 MSTORE PUSH1 0x4 ADD PUSH3 0x141D SWAP2 SWAP1 PUSH3 0x26EB JUMP JUMPDEST PUSH1 0x40 MLOAD DUP1 SWAP2 SUB SWAP1 REVERT JUMPDEST JUMP JUMPDEST PUSH3 0x1432 PUSH3 0x1AE2 JUMP JUMPDEST PUSH0 PUSH1 0x5 PUSH0 PUSH2 0x100 EXP DUP2 SLOAD DUP2 PUSH1 0xFF MUL NOT AND SWAP1 DUP4 ISZERO ISZERO MUL OR SWAP1 SSTORE POP PUSH32 0x5DB9EE0A495BF2E6FF9C91A7834C1BA4FDD244A5E8AA4E537BD38AEAE4B073AA PUSH3 0x1476 PUSH3 0x1130 JUMP JUMPDEST PUSH1 0x40 MLOAD PUSH3 0x1485 SWAP2 SWAP1 PUSH3 0x26EB JUMP JUMPDEST PUSH1 0x40 MLOAD DUP1 SWAP2 SUB SWAP1 LOG1 JUMP JUMPDEST PUSH0 PUSH20 0xFFFFFFFFFFFFFFFFFFFFFFFFFFFFFFFFFFFFFFFF AND DUP3 PUSH20 0xFFFFFFFFFFFFFFFFFFFFFFFFFFFFFFFFFFFFFFFF AND SUB PUSH3 0x1502 JUMPI PUSH0 PUSH1 0x40 MLOAD PUSH32 0xEC442F0500000000000000000000000000000000000000000000000000000000 DUP2 MSTORE PUSH1 0x4 ADD PUSH3 0x14F9 SWAP2 SWAP1 PUSH3 0x26EB JUMP JUMPDEST PUSH1 0x40 MLOAD DUP1 SWAP2 SUB SWAP1 REVERT JUMPDEST PUSH3 0x150F PUSH0 DUP4 DUP4 PUSH3 0x1A39 JUMP JUMPDEST POP POP JUMP JUMPDEST PUSH0 PUSH3 0x153F PUSH1 0xA PUSH0 SWAP1 SLOAD SWAP1 PUSH2 0x100 EXP SWAP1 DIV PUSH1 0xFF AND PUSH1 0xFF AND DUP4 PUSH3 0x1537 SWAP2 SWAP1 PUSH3 0x2F9A JUMP JUMPDEST PUSH1 0x64 PUSH3 0x1B25 JUMP JUMPDEST SWAP1 POP SWAP2 SWAP1 POP JUMP JUMPDEST DUP1 PUSH1 0x9 SLOAD LT ISZERO PUSH3 0x158E JUMPI PUSH1 0x40 MLOAD PUSH32 0x8C379A000000000000000000000000000000000000000000000000000000000 DUP2 MSTORE PUSH1 0x4 ADD PUSH3 0x1585 SWAP1 PUSH3 0x2CF6 JUMP JUMPDEST PUSH1 0x40 MLOAD DUP1 SWAP2 SUB SWAP1 REVERT JUMPDEST PUSH3 0x159A DUP4 DUP4 PUSH3 0x148F JUMP JUMPDEST POP POP POP JUMP JUMPDEST PUSH0 PUSH1 0x5 PUSH1 0x1 SWAP1 SLOAD SWAP1 PUSH2 0x100 EXP SWAP1 DIV PUSH20 0xFFFFFFFFFFFFFFFFFFFFFFFFFFFFFFFFFFFFFFFF AND SWAP1 POP DUP2 PUSH1 0x5 PUSH1 0x1 PUSH2 0x100 EXP DUP2 SLOAD DUP2 PUSH20 0xFFFFFFFFFFFFFFFFFFFFFFFFFFFFFFFFFFFFFFFF MUL NOT AND SWAP1 DUP4 PUSH20 0xFFFFFFFFFFFFFFFFFFFFFFFFFFFFFFFFFFFFFFFF AND MUL OR SWAP1 SSTORE POP DUP2 PUSH20 0xFFFFFFFFFFFFFFFFFFFFFFFFFFFFFFFFFFFFFFFF AND DUP2 PUSH20 0xFFFFFFFFFFFFFFFFFFFFFFFFFFFFFFFFFFFFFFFF AND PUSH32 0x8BE0079C531659141344CD1FD0A4F28419497F9722A3DAAFE3B4186F6B6457E0 PUSH1 0x40 MLOAD PUSH1 0x40 MLOAD DUP1 SWAP2 SUB SWAP1 LOG3 POP POP JUMP JUMPDEST PUSH0 PUSH1 0x8 PUSH0 DUP4 PUSH20 0xFFFFFFFFFFFFFFFFFFFFFFFFFFFFFFFFFFFFFFFF AND PUSH20 0xFFFFFFFFFFFFFFFFFFFFFFFFFFFFFFFFFFFFFFFF AND DUP2 MSTORE PUSH1 0x20 ADD SWAP1 DUP2 MSTORE PUSH1 0x20 ADD PUSH0 KECCAK256 SLOAD SWAP1 POP SWAP2 SWAP1 POP JUMP JUMPDEST PUSH3 0x16B4 PUSH3 0x1B87 JUMP JUMPDEST PUSH1 0x1 PUSH1 0x5 PUSH0 PUSH2 0x100 EXP DUP2 SLOAD DUP2 PUSH1 0xFF MUL NOT AND SWAP1 DUP4 ISZERO ISZERO MUL OR SWAP1 SSTORE POP PUSH32 0x62E78CEA01BEE320CD4E420270B5EA74000D11B0C9F74754EBDBFC544B05A258 PUSH3 0x16F9 PUSH3 0x1130 JUMP JUMPDEST PUSH1 0x40 MLOAD PUSH3 0x1708 SWAP2 SWAP1 PUSH3 0x26EB JUMP JUMPDEST PUSH1 0x40 MLOAD DUP1 SWAP2 SUB SWAP1 LOG1 JUMP JUMPDEST PUSH1 0x60 PUSH3 0x174A PUSH1 0x6 PUSH32 0x0 PUSH3 0x1BCB SWAP1 SWAP2 SWAP1 PUSH4 0xFFFFFFFF AND JUMP JUMPDEST SWAP1 POP SWAP1 JUMP JUMPDEST PUSH1 0x60 PUSH3 0x1787 PUSH1 0x7 PUSH32 0x0 PUSH3 0x1BCB SWAP1 SWAP2 SWAP1 PUSH4 0xFFFFFFFF AND JUMP JUMPDEST SWAP1 POP SWAP1 JUMP JUMPDEST PUSH0 PUSH1 0x8 PUSH0 DUP4 PUSH20 0xFFFFFFFFFFFFFFFFFFFFFFFFFFFFFFFFFFFFFFFF AND PUSH20 0xFFFFFFFFFFFFFFFFFFFFFFFFFFFFFFFFFFFFFFFF AND DUP2 MSTORE PUSH1 0x20 ADD SWAP1 DUP2 MSTORE PUSH1 0x20 ADD PUSH0 KECCAK256 PUSH0 DUP2 SLOAD DUP1 SWAP3 SWAP2 SWAP1 PUSH1 0x1 ADD SWAP2 SWAP1 POP SSTORE SWAP1 POP SWAP2 SWAP1 POP JUMP JUMPDEST PUSH0 PUSH3 0x17F5 PUSH3 0x17EE PUSH3 0x12DD JUMP JUMPDEST DUP4 PUSH3 0x1C84 JUMP JUMPDEST SWAP1 POP SWAP2 SWAP1 POP JUMP JUMPDEST PUSH0 DUP1 PUSH0 DUP1 PUSH3 0x180E DUP9 DUP9 DUP9 DUP9 PUSH3 0x1CC4 JUMP JUMPDEST SWAP3 POP SWAP3 POP SWAP3 POP PUSH3 0x1820 DUP3 DUP3 PUSH3 0x1DB2 JUMP JUMPDEST DUP3 SWAP4 POP POP POP POP SWAP5 SWAP4 POP POP POP POP JUMP JUMPDEST PUSH0 PUSH3 0x185A PUSH1 0x64 DUP4 PUSH3 0x1842 SWAP2 SWAP1 PUSH3 0x2F9A JUMP JUMPDEST PUSH1 0xA PUSH0 SWAP1 SLOAD SWAP1 PUSH2 0x100 EXP SWAP1 DIV PUSH1 0xFF AND PUSH1 0xFF AND PUSH3 0x1B25 JUMP JUMPDEST SWAP1 POP SWAP2 SWAP1 POP JUMP JUMPDEST PUSH0 PUSH20 0xFFFFFFFFFFFFFFFFFFFFFFFFFFFFFFFFFFFFFFFF AND DUP5 PUSH20 0xFFFFFFFFFFFFFFFFFFFFFFFFFFFFFFFFFFFFFFFF AND SUB PUSH3 0x18D4 JUMPI PUSH0 PUSH1 0x40 MLOAD PUSH32 0xE602DF0500000000000000000000000000000000000000000000000000000000 DUP2 MSTORE PUSH1 0x4 ADD PUSH3 0x18CB SWAP2 SWAP1 PUSH3 0x26EB JUMP JUMPDEST PUSH1 0x40 MLOAD DUP1 SWAP2 SUB SWAP1 REVERT JUMPDEST PUSH0 PUSH20 0xFFFFFFFFFFFFFFFFFFFFFFFFFFFFFFFFFFFFFFFF AND DUP4 PUSH20 0xFFFFFFFFFFFFFFFFFFFFFFFFFFFFFFFFFFFFFFFF AND SUB PUSH3 0x1947 JUMPI PUSH0 PUSH1 0x40 MLOAD PUSH32 0x94280D6200000000000000000000000000000000000000000000000000000000 DUP2 MSTORE PUSH1 0x4 ADD PUSH3 0x193E SWAP2 SWAP1 PUSH3 0x26EB JUMP JUMPDEST PUSH1 0x40 MLOAD DUP1 SWAP2 SUB SWAP1 REVERT JUMPDEST DUP2 PUSH1 0x1 PUSH0 DUP7 PUSH20 0xFFFFFFFFFFFFFFFFFFFFFFFFFFFFFFFFFFFFFFFF AND PUSH20 0xFFFFFFFFFFFFFFFFFFFFFFFFFFFFFFFFFFFFFFFF AND DUP2 MSTORE PUSH1 0x20 ADD SWAP1 DUP2 MSTORE PUSH1 0x20 ADD PUSH0 KECCAK256 PUSH0 DUP6 PUSH20 0xFFFFFFFFFFFFFFFFFFFFFFFFFFFFFFFFFFFFFFFF AND PUSH20 0xFFFFFFFFFFFFFFFFFFFFFFFFFFFFFFFFFFFFFFFF AND DUP2 MSTORE PUSH1 0x20 ADD SWAP1 DUP2 MSTORE PUSH1 0x20 ADD PUSH0 KECCAK256 DUP2 SWAP1 SSTORE POP DUP1 ISZERO PUSH3 0x1A33 JUMPI DUP3 PUSH20 0xFFFFFFFFFFFFFFFFFFFFFFFFFFFFFFFFFFFFFFFF AND DUP5 PUSH20 0xFFFFFFFFFFFFFFFFFFFFFFFFFFFFFFFFFFFFFFFF AND PUSH32 0x8C5BE1E5EBEC7D5BD14F71427D1E84F3DD0314C0F7B2291E5B200AC8C7C3B925 DUP5 PUSH1 0x40 MLOAD PUSH3 0x1A2A SWAP2 SWAP1 PUSH3 0x2436 JUMP JUMPDEST PUSH1 0x40 MLOAD DUP1 SWAP2 SUB SWAP1 LOG3 JUMPDEST POP POP POP POP JUMP JUMPDEST PUSH3 0x1A46 DUP4 DUP4 DUP4 PUSH3 0x1F34 JUMP JUMPDEST POP POP POP JUMP JUMPDEST PUSH0 PUSH32 0x8B73C3C69BB8FE3D512ECC4CF759CC79239F7B179B0FFACAA9A75D522B39400F PUSH32 0x0 PUSH32 0x0 CHAINID ADDRESS PUSH1 0x40 MLOAD PUSH1 0x20 ADD PUSH3 0x1AC7 SWAP6 SWAP5 SWAP4 SWAP3 SWAP2 SWAP1 PUSH3 0x2FE4 JUMP JUMPDEST PUSH1 0x40 MLOAD PUSH1 0x20 DUP2 DUP4 SUB SUB DUP2 MSTORE SWAP1 PUSH1 0x40 MSTORE DUP1 MLOAD SWAP1 PUSH1 0x20 ADD KECCAK256 SWAP1 POP SWAP1 JUMP JUMPDEST PUSH3 0x1AEC PUSH3 0x79C JUMP JUMPDEST PUSH3 0x1B23 JUMPI PUSH1 0x40 MLOAD PUSH32 0x8DFC202B00000000000000000000000000000000000000000000000000000000 DUP2 MSTORE PUSH1 0x4 ADD PUSH1 0x40 MLOAD DUP1 SWAP2 SUB SWAP1 REVERT JUMPDEST JUMP JUMPDEST PUSH0 DUP1 DUP3 SUB PUSH3 0x1B44 JUMPI DUP2 DUP4 PUSH3 0x1B3C SWAP2 SWAP1 PUSH3 0x306C JUMP JUMPDEST SWAP1 POP PUSH3 0x1B81 JUMP JUMPDEST PUSH0 DUP4 EQ PUSH3 0x1B7C JUMPI PUSH1 0x1 DUP3 PUSH1 0x1 DUP6 PUSH3 0x1B5E SWAP2 SWAP1 PUSH3 0x30A3 JUMP JUMPDEST PUSH3 0x1B6A SWAP2 SWAP1 PUSH3 0x306C JUMP JUMPDEST PUSH3 0x1B76 SWAP2 SWAP1 PUSH3 0x2C6E JUMP JUMPDEST PUSH3 0x1B7E JUMP JUMPDEST PUSH0 JUMPDEST SWAP1 POP JUMPDEST SWAP3 SWAP2 POP POP JUMP JUMPDEST PUSH3 0x1B91 PUSH3 0x79C JUMP JUMPDEST ISZERO PUSH3 0x1BC9 JUMPI PUSH1 0x40 MLOAD PUSH32 0xD93C066500000000000000000000000000000000000000000000000000000000 DUP2 MSTORE PUSH1 0x4 ADD PUSH1 0x40 MLOAD DUP1 SWAP2 SUB SWAP1 REVERT JUMPDEST JUMP JUMPDEST PUSH1 0x60 PUSH1 0xFF PUSH0 SHL DUP4 EQ PUSH3 0x1BEB JUMPI PUSH3 0x1BE3 DUP4 PUSH3 0x1F50 JUMP JUMPDEST SWAP1 POP PUSH3 0x1C7E JUMP JUMPDEST DUP2 DUP1 SLOAD PUSH3 0x1BF9 SWAP1 PUSH3 0x2AA2 JUMP JUMPDEST DUP1 PUSH1 0x1F ADD PUSH1 0x20 DUP1 SWAP2 DIV MUL PUSH1 0x20 ADD PUSH1 0x40 MLOAD SWAP1 DUP2 ADD PUSH1 0x40 MSTORE DUP1 SWAP3 SWAP2 SWAP1 DUP2 DUP2 MSTORE PUSH1 0x20 ADD DUP3 DUP1 SLOAD PUSH3 0x1C27 SWAP1 PUSH3 0x2AA2 JUMP JUMPDEST DUP1 ISZERO PUSH3 0x1C76 JUMPI DUP1 PUSH1 0x1F LT PUSH3 0x1C4C JUMPI PUSH2 0x100 DUP1 DUP4 SLOAD DIV MUL DUP4 MSTORE SWAP2 PUSH1 0x20 ADD SWAP2 PUSH3 0x1C76 JUMP JUMPDEST DUP3 ADD SWAP2 SWAP1 PUSH0 MSTORE PUSH1 0x20 PUSH0 KECCAK256 SWAP1 JUMPDEST DUP2 SLOAD DUP2 MSTORE SWAP1 PUSH1 0x1 ADD SWAP1 PUSH1 0x20 ADD DUP1 DUP4 GT PUSH3 0x1C58 JUMPI DUP3 SWAP1 SUB PUSH1 0x1F AND DUP3 ADD SWAP2 JUMPDEST POP POP POP POP POP SWAP1 POP JUMPDEST SWAP3 SWAP2 POP POP JUMP JUMPDEST PUSH0 PUSH1 0x40 MLOAD PUSH32 0x1901000000000000000000000000000000000000000000000000000000000000 DUP2 MSTORE DUP4 PUSH1 0x2 DUP3 ADD MSTORE DUP3 PUSH1 0x22 DUP3 ADD MSTORE PUSH1 0x42 DUP2 KECCAK256 SWAP2 POP POP SWAP3 SWAP2 POP POP JUMP JUMPDEST PUSH0 DUP1 PUSH0 PUSH32 0x7FFFFFFFFFFFFFFFFFFFFFFFFFFFFFFF5D576E7357A4501DDFE92F46681B20A0 DUP5 PUSH0 SHR GT ISZERO PUSH3 0x1D02 JUMPI PUSH0 PUSH1 0x3 DUP6 SWAP3 POP SWAP3 POP SWAP3 POP PUSH3 0x1DA8 JUMP JUMPDEST PUSH0 PUSH1 0x1 DUP9 DUP9 DUP9 DUP9 PUSH1 0x40 MLOAD PUSH0 DUP2 MSTORE PUSH1 0x20 ADD PUSH1 0x40 MSTORE PUSH1 0x40 MLOAD PUSH3 0x1D27 SWAP5 SWAP4 SWAP3 SWAP2 SWAP1 PUSH3 0x30DD JUMP JUMPDEST PUSH1 0x20 PUSH1 0x40 MLOAD PUSH1 0x20 DUP2 SUB SWAP1 DUP1 DUP5 SUB SWAP1 DUP6 GAS STATICCALL ISZERO DUP1 ISZERO PUSH3 0x1D48 JUMPI RETURNDATASIZE PUSH0 DUP1 RETURNDATACOPY RETURNDATASIZE PUSH0 REVERT JUMPDEST POP POP POP PUSH1 0x20 PUSH1 0x40 MLOAD SUB MLOAD SWAP1 POP PUSH0 PUSH20 0xFFFFFFFFFFFFFFFFFFFFFFFFFFFFFFFFFFFFFFFF AND DUP2 PUSH20 0xFFFFFFFFFFFFFFFFFFFFFFFFFFFFFFFFFFFFFFFF AND SUB PUSH3 0x1D9B JUMPI PUSH0 PUSH1 0x1 PUSH0 DUP1 SHL SWAP4 POP SWAP4 POP SWAP4 POP POP PUSH3 0x1DA8 JUMP JUMPDEST DUP1 PUSH0 DUP1 PUSH0 SHL SWAP4 POP SWAP4 POP SWAP4 POP POP JUMPDEST SWAP5 POP SWAP5 POP SWAP5 SWAP2 POP POP JUMP JUMPDEST PUSH0 PUSH1 0x3 DUP2 GT ISZERO PUSH3 0x1DC8 JUMPI PUSH3 0x1DC7 PUSH3 0x3128 JUMP JUMPDEST JUMPDEST DUP3 PUSH1 0x3 DUP2 GT ISZERO PUSH3 0x1DDE JUMPI PUSH3 0x1DDD PUSH3 0x3128 JUMP JUMPDEST JUMPDEST SUB ISZERO PUSH3 0x1F30 JUMPI PUSH1 0x1 PUSH1 0x3 DUP2 GT ISZERO PUSH3 0x1DFC JUMPI PUSH3 0x1DFB PUSH3 0x3128 JUMP JUMPDEST JUMPDEST DUP3 PUSH1 0x3 DUP2 GT ISZERO PUSH3 0x1E12 JUMPI PUSH3 0x1E11 PUSH3 0x3128 JUMP JUMPDEST JUMPDEST SUB PUSH3 0x1E4A JUMPI PUSH1 0x40 MLOAD PUSH32 0xF645EEDF00000000000000000000000000000000000000000000000000000000 DUP2 MSTORE PUSH1 0x4 ADD PUSH1 0x40 MLOAD DUP1 SWAP2 SUB SWAP1 REVERT JUMPDEST PUSH1 0x2 PUSH1 0x3 DUP2 GT ISZERO PUSH3 0x1E61 JUMPI PUSH3 0x1E60 PUSH3 0x3128 JUMP JUMPDEST JUMPDEST DUP3 PUSH1 0x3 DUP2 GT ISZERO PUSH3 0x1E77 JUMPI PUSH3 0x1E76 PUSH3 0x3128 JUMP JUMPDEST JUMPDEST SUB PUSH3 0x1EBE JUMPI DUP1 PUSH0 SHR PUSH1 0x40 MLOAD PUSH32 0xFCE698F700000000000000000000000000000000000000000000000000000000 DUP2 MSTORE PUSH1 0x4 ADD PUSH3 0x1EB5 SWAP2 SWAP1 PUSH3 0x2436 JUMP JUMPDEST PUSH1 0x40 MLOAD DUP1 SWAP2 SUB SWAP1 REVERT JUMPDEST PUSH1 0x3 DUP1 DUP2 GT ISZERO PUSH3 0x1ED4 JUMPI PUSH3 0x1ED3 PUSH3 0x3128 JUMP JUMPDEST JUMPDEST DUP3 PUSH1 0x3 DUP2 GT ISZERO PUSH3 0x1EEA JUMPI PUSH3 0x1EE9 PUSH3 0x3128 JUMP JUMPDEST JUMPDEST SUB PUSH3 0x1F2F JUMPI DUP1 PUSH1 0x40 MLOAD PUSH32 0xD78BCE0C00000000000000000000000000000000000000000000000000000000 DUP2 MSTORE PUSH1 0x4 ADD PUSH3 0x1F26 SWAP2 SWAP1 PUSH3 0x24FC JUMP JUMPDEST PUSH1 0x40 MLOAD DUP1 SWAP2 SUB SWAP1 REVERT JUMPDEST JUMPDEST POP POP JUMP JUMPDEST PUSH3 0x1F3E PUSH3 0x1B87 JUMP JUMPDEST PUSH3 0x1F4B DUP4 DUP4 DUP4 PUSH3 0x1FC8 JUMP JUMPDEST POP POP POP JUMP JUMPDEST PUSH1 0x60 PUSH0 PUSH3 0x1F5E DUP4 PUSH3 0x21EC JUMP JUMPDEST SWAP1 POP PUSH0 PUSH1 0x20 PUSH8 0xFFFFFFFFFFFFFFFF DUP2 GT ISZERO PUSH3 0x1F7F JUMPI PUSH3 0x1F7E PUSH3 0x28E6 JUMP JUMPDEST JUMPDEST PUSH1 0x40 MLOAD SWAP1 DUP1 DUP3 MSTORE DUP1 PUSH1 0x1F ADD PUSH1 0x1F NOT AND PUSH1 0x20 ADD DUP3 ADD PUSH1 0x40 MSTORE DUP1 ISZERO PUSH3 0x1FB2 JUMPI DUP2 PUSH1 0x20 ADD PUSH1 0x1 DUP3 MUL DUP1 CALLDATASIZE DUP4 CALLDATACOPY DUP1 DUP3 ADD SWAP2 POP POP SWAP1 POP JUMPDEST POP SWAP1 POP DUP2 DUP2 MSTORE DUP4 PUSH1 0x20 DUP3 ADD MSTORE DUP1 SWAP3 POP POP POP SWAP2 SWAP1 POP JUMP JUMPDEST PUSH0 PUSH20 0xFFFFFFFFFFFFFFFFFFFFFFFFFFFFFFFFFFFFFFFF AND DUP4 PUSH20 0xFFFFFFFFFFFFFFFFFFFFFFFFFFFFFFFFFFFFFFFF AND SUB PUSH3 0x201C JUMPI DUP1 PUSH1 0x2 PUSH0 DUP3 DUP3 SLOAD PUSH3 0x200F SWAP2 SWAP1 PUSH3 0x2C6E JUMP JUMPDEST SWAP3 POP POP DUP2 SWAP1 SSTORE POP PUSH3 0x20ED JUMP JUMPDEST PUSH0 DUP1 PUSH0 DUP6 PUSH20 0xFFFFFFFFFFFFFFFFFFFFFFFFFFFFFFFFFFFFFFFF AND PUSH20 0xFFFFFFFFFFFFFFFFFFFFFFFFFFFFFFFFFFFFFFFF AND DUP2 MSTORE PUSH1 0x20 ADD SWAP1 DUP2 MSTORE PUSH1 0x20 ADD PUSH0 KECCAK256 SLOAD SWAP1 POP DUP2 DUP2 LT ISZERO PUSH3 0x20A8 JUMPI DUP4 DUP2 DUP4 PUSH1 0x40 MLOAD PUSH32 0xE450D38C00000000000000000000000000000000000000000000000000000000 DUP2 MSTORE PUSH1 0x4 ADD PUSH3 0x209F SWAP4 SWAP3 SWAP2 SWAP1 PUSH3 0x2F5F JUMP JUMPDEST PUSH1 0x40 MLOAD DUP1 SWAP2 SUB SWAP1 REVERT JUMPDEST DUP2 DUP2 SUB PUSH0 DUP1 DUP7 PUSH20 0xFFFFFFFFFFFFFFFFFFFFFFFFFFFFFFFFFFFFFFFF AND PUSH20 0xFFFFFFFFFFFFFFFFFFFFFFFFFFFFFFFFFFFFFFFF AND DUP2 MSTORE PUSH1 0x20 ADD SWAP1 DUP2 MSTORE PUSH1 0x20 ADD PUSH0 KECCAK256 DUP2 SWAP1 SSTORE POP POP JUMPDEST PUSH0 PUSH20 0xFFFFFFFFFFFFFFFFFFFFFFFFFFFFFFFFFFFFFFFF AND DUP3 PUSH20 0xFFFFFFFFFFFFFFFFFFFFFFFFFFFFFFFFFFFFFFFF AND SUB PUSH3 0x2136 JUMPI DUP1 PUSH1 0x2 PUSH0 DUP3 DUP3 SLOAD SUB SWAP3 POP POP DUP2 SWAP1 SSTORE POP PUSH3 0x2180 JUMP JUMPDEST DUP1 PUSH0 DUP1 DUP5 PUSH20 0xFFFFFFFFFFFFFFFFFFFFFFFFFFFFFFFFFFFFFFFF AND PUSH20 0xFFFFFFFFFFFFFFFFFFFFFFFFFFFFFFFFFFFFFFFF AND DUP2 MSTORE PUSH1 0x20 ADD SWAP1 DUP2 MSTORE PUSH1 0x20 ADD PUSH0 KECCAK256 PUSH0 DUP3 DUP3 SLOAD ADD SWAP3 POP POP DUP2 SWAP1 SSTORE POP JUMPDEST DUP2 PUSH20 0xFFFFFFFFFFFFFFFFFFFFFFFFFFFFFFFFFFFFFFFF AND DUP4 PUSH20 0xFFFFFFFFFFFFFFFFFFFFFFFFFFFFFFFFFFFFFFFF AND PUSH32 0xDDF252AD1BE2C89B69C2B068FC378DAA952BA7F163C4A11628F55A4DF523B3EF DUP4 PUSH1 0x40 MLOAD PUSH3 0x21DF SWAP2 SWAP1 PUSH3 0x2436 JUMP JUMPDEST PUSH1 0x40 MLOAD DUP1 SWAP2 SUB SWAP1 LOG3 POP POP POP JUMP JUMPDEST PUSH0 DUP1 PUSH1 0xFF DUP4 PUSH0 SHR AND SWAP1 POP PUSH1 0x1F DUP2 GT ISZERO PUSH3 0x2232 JUMPI PUSH1 0x40 MLOAD PUSH32 0xB3512B0C00000000000000000000000000000000000000000000000000000000 DUP2 MSTORE PUSH1 0x4 ADD PUSH1 0x40 MLOAD DUP1 SWAP2 SUB SWAP1 REVERT JUMPDEST DUP1 SWAP2 POP POP SWAP2 SWAP1 POP JUMP JUMPDEST PUSH2 0x1E61 DUP1 PUSH3 0x3156 DUP4 CODECOPY ADD SWAP1 JUMP JUMPDEST PUSH0 DUP2 MLOAD SWAP1 POP SWAP2 SWAP1 POP JUMP JUMPDEST PUSH0 DUP3 DUP3 MSTORE PUSH1 0x20 DUP3 ADD SWAP1 POP SWAP3 SWAP2 POP POP JUMP JUMPDEST PUSH0 JUMPDEST DUP4 DUP2 LT ISZERO PUSH3 0x2282 JUMPI DUP1 DUP3 ADD MLOAD DUP2 DUP5 ADD MSTORE PUSH1 0x20 DUP2 ADD SWAP1 POP PUSH3 0x2265 JUMP JUMPDEST PUSH0 DUP5 DUP5 ADD MSTORE POP POP POP POP JUMP JUMPDEST PUSH0 PUSH1 0x1F NOT PUSH1 0x1F DUP4 ADD AND SWAP1 POP SWAP2 SWAP1 POP JUMP JUMPDEST PUSH0 PUSH3 0x22A9 DUP3 PUSH3 0x2249 JUMP JUMPDEST PUSH3 0x22B5 DUP2 DUP6 PUSH3 0x2253 JUMP JUMPDEST SWAP4 POP PUSH3 0x22C7 DUP2 DUP6 PUSH1 0x20 DUP7 ADD PUSH3 0x2263 JUMP JUMPDEST PUSH3 0x22D2 DUP2 PUSH3 0x228D JUMP JUMPDEST DUP5 ADD SWAP2 POP POP SWAP3 SWAP2 POP POP JUMP JUMPDEST PUSH0 PUSH1 0x20 DUP3 ADD SWAP1 POP DUP2 DUP2 SUB PUSH0 DUP4 ADD MSTORE PUSH3 0x22F7 DUP2 DUP5 PUSH3 0x229D JUMP JUMPDEST SWAP1 POP SWAP3 SWAP2 POP POP JUMP JUMPDEST PUSH0 PUSH1 0x40 MLOAD SWAP1 POP SWAP1 JUMP JUMPDEST PUSH0 DUP1 REVERT JUMPDEST PUSH0 DUP1 REVERT JUMPDEST PUSH0 PUSH20 0xFFFFFFFFFFFFFFFFFFFFFFFFFFFFFFFFFFFFFFFF DUP3 AND SWAP1 POP SWAP2 SWAP1 POP JUMP JUMPDEST PUSH0 PUSH3 0x233B DUP3 PUSH3 0x2310 JUMP JUMPDEST SWAP1 POP SWAP2 SWAP1 POP JUMP JUMPDEST PUSH3 0x234D DUP2 PUSH3 0x232F JUMP JUMPDEST DUP2 EQ PUSH3 0x2358 JUMPI PUSH0 DUP1 REVERT JUMPDEST POP JUMP JUMPDEST PUSH0 DUP2 CALLDATALOAD SWAP1 POP PUSH3 0x236B DUP2 PUSH3 0x2342 JUMP JUMPDEST SWAP3 SWAP2 POP POP JUMP JUMPDEST PUSH0 DUP2 SWAP1 POP SWAP2 SWAP1 POP JUMP JUMPDEST PUSH3 0x2385 DUP2 PUSH3 0x2371 JUMP JUMPDEST DUP2 EQ PUSH3 0x2390 JUMPI PUSH0 DUP1 REVERT JUMPDEST POP JUMP JUMPDEST PUSH0 DUP2 CALLDATALOAD SWAP1 POP PUSH3 0x23A3 DUP2 PUSH3 0x237A JUMP JUMPDEST SWAP3 SWAP2 POP POP JUMP JUMPDEST PUSH0 DUP1 PUSH1 0x40 DUP4 DUP6 SUB SLT ISZERO PUSH3 0x23C2 JUMPI PUSH3 0x23C1 PUSH3 0x2308 JUMP JUMPDEST JUMPDEST PUSH0 PUSH3 0x23D1 DUP6 DUP3 DUP7 ADD PUSH3 0x235B JUMP JUMPDEST SWAP3 POP POP PUSH1 0x20 PUSH3 0x23E4 DUP6 DUP3 DUP7 ADD PUSH3 0x2393 JUMP JUMPDEST SWAP2 POP POP SWAP3 POP SWAP3 SWAP1 POP JUMP JUMPDEST PUSH0 DUP2 ISZERO ISZERO SWAP1 POP SWAP2 SWAP1 POP JUMP JUMPDEST PUSH3 0x2404 DUP2 PUSH3 0x23EE JUMP JUMPDEST DUP3 MSTORE POP POP JUMP JUMPDEST PUSH0 PUSH1 0x20 DUP3 ADD SWAP1 POP PUSH3 0x241F PUSH0 DUP4 ADD DUP5 PUSH3 0x23F9 JUMP JUMPDEST SWAP3 SWAP2 POP POP JUMP JUMPDEST PUSH3 0x2430 DUP2 PUSH3 0x2371 JUMP JUMPDEST DUP3 MSTORE POP POP JUMP JUMPDEST PUSH0 PUSH1 0x20 DUP3 ADD SWAP1 POP PUSH3 0x244B PUSH0 DUP4 ADD DUP5 PUSH3 0x2425 JUMP JUMPDEST SWAP3 SWAP2 POP POP JUMP JUMPDEST PUSH0 DUP1 PUSH0 PUSH1 0x60 DUP5 DUP7 SUB SLT ISZERO PUSH3 0x246B JUMPI PUSH3 0x246A PUSH3 0x2308 JUMP JUMPDEST JUMPDEST PUSH0 PUSH3 0x247A DUP7 DUP3 DUP8 ADD PUSH3 0x235B JUMP JUMPDEST SWAP4 POP POP PUSH1 0x20 PUSH3 0x248D DUP7 DUP3 DUP8 ADD PUSH3 0x235B JUMP JUMPDEST SWAP3 POP POP PUSH1 0x40 PUSH3 0x24A0 DUP7 DUP3 DUP8 ADD PUSH3 0x2393 JUMP JUMPDEST SWAP2 POP POP SWAP3 POP SWAP3 POP SWAP3 JUMP JUMPDEST PUSH0 PUSH1 0xFF DUP3 AND SWAP1 POP SWAP2 SWAP1 POP JUMP JUMPDEST PUSH3 0x24C1 DUP2 PUSH3 0x24AA JUMP JUMPDEST DUP3 MSTORE POP POP JUMP JUMPDEST PUSH0 PUSH1 0x20 DUP3 ADD SWAP1 POP PUSH3 0x24DC PUSH0 DUP4 ADD DUP5 PUSH3 0x24B6 JUMP JUMPDEST SWAP3 SWAP2 POP POP JUMP JUMPDEST PUSH0 DUP2 SWAP1 POP SWAP2 SWAP1 POP JUMP JUMPDEST PUSH3 0x24F6 DUP2 PUSH3 0x24E2 JUMP JUMPDEST DUP3 MSTORE POP POP JUMP JUMPDEST PUSH0 PUSH1 0x20 DUP3 ADD SWAP1 POP PUSH3 0x2511 PUSH0 DUP4 ADD DUP5 PUSH3 0x24EB JUMP JUMPDEST SWAP3 SWAP2 POP POP JUMP JUMPDEST PUSH0 PUSH1 0x20 DUP3 DUP5 SUB SLT ISZERO PUSH3 0x252F JUMPI PUSH3 0x252E PUSH3 0x2308 JUMP JUMPDEST JUMPDEST PUSH0 PUSH3 0x253E DUP5 DUP3 DUP6 ADD PUSH3 0x235B JUMP JUMPDEST SWAP2 POP POP SWAP3 SWAP2 POP POP JUMP JUMPDEST PUSH0 PUSH32 0xFF00000000000000000000000000000000000000000000000000000000000000 DUP3 AND SWAP1 POP SWAP2 SWAP1 POP JUMP JUMPDEST PUSH3 0x257D DUP2 PUSH3 0x2547 JUMP JUMPDEST DUP3 MSTORE POP POP JUMP JUMPDEST PUSH3 0x258E DUP2 PUSH3 0x232F JUMP JUMPDEST DUP3 MSTORE POP POP JUMP JUMPDEST PUSH0 DUP2 MLOAD SWAP1 POP SWAP2 SWAP1 POP JUMP JUMPDEST PUSH0 DUP3 DUP3 MSTORE PUSH1 0x20 DUP3 ADD SWAP1 POP SWAP3 SWAP2 POP POP JUMP JUMPDEST PUSH0 DUP2 SWAP1 POP PUSH1 0x20 DUP3 ADD SWAP1 POP SWAP2 SWAP1 POP JUMP JUMPDEST PUSH3 0x25C8 DUP2 PUSH3 0x2371 JUMP JUMPDEST DUP3 MSTORE POP POP JUMP JUMPDEST PUSH0 PUSH3 0x25DB DUP4 DUP4 PUSH3 0x25BD JUMP JUMPDEST PUSH1 0x20 DUP4 ADD SWAP1 POP SWAP3 SWAP2 POP POP JUMP JUMPDEST PUSH0 PUSH1 0x20 DUP3 ADD SWAP1 POP SWAP2 SWAP1 POP JUMP JUMPDEST PUSH0 PUSH3 0x25FF DUP3 PUSH3 0x2594 JUMP JUMPDEST PUSH3 0x260B DUP2 DUP6 PUSH3 0x259E JUMP JUMPDEST SWAP4 POP PUSH3 0x2618 DUP4 PUSH3 0x25AE JUMP JUMPDEST DUP1 PUSH0 JUMPDEST DUP4 DUP2 LT ISZERO PUSH3 0x264E JUMPI DUP2 MLOAD PUSH3 0x2632 DUP9 DUP3 PUSH3 0x25CE JUMP JUMPDEST SWAP8 POP PUSH3 0x263F DUP4 PUSH3 0x25E7 JUMP JUMPDEST SWAP3 POP POP PUSH1 0x1 DUP2 ADD SWAP1 POP PUSH3 0x261B JUMP JUMPDEST POP DUP6 SWAP4 POP POP POP POP SWAP3 SWAP2 POP POP JUMP JUMPDEST PUSH0 PUSH1 0xE0 DUP3 ADD SWAP1 POP PUSH3 0x2670 PUSH0 DUP4 ADD DUP11 PUSH3 0x2572 JUMP JUMPDEST DUP2 DUP2 SUB PUSH1 0x20 DUP4 ADD MSTORE PUSH3 0x2684 DUP2 DUP10 PUSH3 0x229D JUMP JUMPDEST SWAP1 POP DUP2 DUP2 SUB PUSH1 0x40 DUP4 ADD MSTORE PUSH3 0x269A DUP2 DUP9 PUSH3 0x229D JUMP JUMPDEST SWAP1 POP PUSH3 0x26AB PUSH1 0x60 DUP4 ADD DUP8 PUSH3 0x2425 JUMP JUMPDEST PUSH3 0x26BA PUSH1 0x80 DUP4 ADD DUP7 PUSH3 0x2583 JUMP JUMPDEST PUSH3 0x26C9 PUSH1 0xA0 DUP4 ADD DUP6 PUSH3 0x24EB JUMP JUMPDEST DUP2 DUP2 SUB PUSH1 0xC0 DUP4 ADD MSTORE PUSH3 0x26DD DUP2 DUP5 PUSH3 0x25F3 JUMP JUMPDEST SWAP1 POP SWAP9 SWAP8 POP POP POP POP POP POP POP POP JUMP JUMPDEST PUSH0 PUSH1 0x20 DUP3 ADD SWAP1 POP PUSH3 0x2700 PUSH0 DUP4 ADD DUP5 PUSH3 0x2583 JUMP JUMPDEST SWAP3 SWAP2 POP POP JUMP JUMPDEST PUSH3 0x2711 DUP2 PUSH3 0x24AA JUMP JUMPDEST DUP2 EQ PUSH3 0x271C JUMPI PUSH0 DUP1 REVERT JUMPDEST POP JUMP JUMPDEST PUSH0 DUP2 CALLDATALOAD SWAP1 POP PUSH3 0x272F DUP2 PUSH3 0x2706 JUMP JUMPDEST SWAP3 SWAP2 POP POP JUMP JUMPDEST PUSH3 0x2740 DUP2 PUSH3 0x24E2 JUMP JUMPDEST DUP2 EQ PUSH3 0x274B JUMPI PUSH0 DUP1 REVERT JUMPDEST POP JUMP JUMPDEST PUSH0 DUP2 CALLDATALOAD SWAP1 POP PUSH3 0x275E DUP2 PUSH3 0x2735 JUMP JUMPDEST SWAP3 SWAP2 POP POP JUMP JUMPDEST PUSH0 DUP1 PUSH0 DUP1 PUSH0 DUP1 PUSH0 PUSH1 0xE0 DUP9 DUP11 SUB SLT ISZERO PUSH3 0x2782 JUMPI PUSH3 0x2781 PUSH3 0x2308 JUMP JUMPDEST JUMPDEST PUSH0 PUSH3 0x2791 DUP11 DUP3 DUP12 ADD PUSH3 0x235B JUMP JUMPDEST SWAP8 POP POP PUSH1 0x20 PUSH3 0x27A4 DUP11 DUP3 DUP12 ADD PUSH3 0x235B JUMP JUMPDEST SWAP7 POP POP PUSH1 0x40 PUSH3 0x27B7 DUP11 DUP3 DUP12 ADD PUSH3 0x2393 JUMP JUMPDEST SWAP6 POP POP PUSH1 0x60 PUSH3 0x27CA DUP11 DUP3 DUP12 ADD PUSH3 0x2393 JUMP JUMPDEST SWAP5 POP POP PUSH1 0x80 PUSH3 0x27DD DUP11 DUP3 DUP12 ADD PUSH3 0x271F JUMP JUMPDEST SWAP4 POP POP PUSH1 0xA0 PUSH3 0x27F0 DUP11 DUP3 DUP12 ADD PUSH3 0x274E JUMP JUMPDEST SWAP3 POP POP PUSH1 0xC0 PUSH3 0x2803 DUP11 DUP3 DUP12 ADD PUSH3 0x274E JUMP JUMPDEST SWAP2 POP POP SWAP3 SWAP6 SWAP9 SWAP2 SWAP5 SWAP8 POP SWAP3 SWAP6 POP JUMP JUMPDEST PUSH0 DUP1 PUSH1 0x40 DUP4 DUP6 SUB SLT ISZERO PUSH3 0x282B JUMPI PUSH3 0x282A PUSH3 0x2308 JUMP JUMPDEST JUMPDEST PUSH0 PUSH3 0x283A DUP6 DUP3 DUP7 ADD PUSH3 0x235B JUMP JUMPDEST SWAP3 POP POP PUSH1 0x20 PUSH3 0x284D DUP6 DUP3 DUP7 ADD PUSH3 0x235B JUMP JUMPDEST SWAP2 POP POP SWAP3 POP SWAP3 SWAP1 POP JUMP JUMPDEST PUSH0 PUSH3 0x2863 DUP3 PUSH3 0x2310 JUMP JUMPDEST SWAP1 POP SWAP2 SWAP1 POP JUMP JUMPDEST PUSH3 0x2875 DUP2 PUSH3 0x2857 JUMP JUMPDEST DUP2 EQ PUSH3 0x2880 JUMPI PUSH0 DUP1 REVERT JUMPDEST POP JUMP JUMPDEST PUSH0 DUP2 CALLDATALOAD SWAP1 POP PUSH3 0x2893 DUP2 PUSH3 0x286A JUMP JUMPDEST SWAP3 SWAP2 POP POP JUMP JUMPDEST PUSH0 DUP1 PUSH1 0x40 DUP4 DUP6 SUB SLT ISZERO PUSH3 0x28B2 JUMPI PUSH3 0x28B1 PUSH3 0x2308 JUMP JUMPDEST JUMPDEST PUSH0 PUSH3 0x28C1 DUP6 DUP3 DUP7 ADD PUSH3 0x2883 JUMP JUMPDEST SWAP3 POP POP PUSH1 0x20 PUSH3 0x28D4 DUP6 DUP3 DUP7 ADD PUSH3 0x2393 JUMP JUMPDEST SWAP2 POP POP SWAP3 POP SWAP3 SWAP1 POP JUMP JUMPDEST PUSH0 DUP1 REVERT JUMPDEST PUSH0 DUP1 REVERT JUMPDEST PUSH32 0x4E487B7100000000000000000000000000000000000000000000000000000000 PUSH0 MSTORE PUSH1 0x41 PUSH1 0x4 MSTORE PUSH1 0x24 PUSH0 REVERT JUMPDEST PUSH3 0x291E DUP3 PUSH3 0x228D JUMP JUMPDEST DUP2 ADD DUP2 DUP2 LT PUSH8 0xFFFFFFFFFFFFFFFF DUP3 GT OR ISZERO PUSH3 0x2940 JUMPI PUSH3 0x293F PUSH3 0x28E6 JUMP JUMPDEST JUMPDEST DUP1 PUSH1 0x40 MSTORE POP POP POP JUMP JUMPDEST PUSH0 PUSH3 0x2954 PUSH3 0x22FF JUMP JUMPDEST SWAP1 POP PUSH3 0x2962 DUP3 DUP3 PUSH3 0x2913 JUMP JUMPDEST SWAP2 SWAP1 POP JUMP JUMPDEST PUSH0 PUSH8 0xFFFFFFFFFFFFFFFF DUP3 GT ISZERO PUSH3 0x2984 JUMPI PUSH3 0x2983 PUSH3 0x28E6 JUMP JUMPDEST JUMPDEST PUSH3 0x298F DUP3 PUSH3 0x228D JUMP JUMPDEST SWAP1 POP PUSH1 0x20 DUP2 ADD SWAP1 POP SWAP2 SWAP1 POP JUMP JUMPDEST DUP3 DUP2 DUP4 CALLDATACOPY PUSH0 DUP4 DUP4 ADD MSTORE POP POP POP JUMP JUMPDEST PUSH0 PUSH3 0x29C0 PUSH3 0x29BA DUP5 PUSH3 0x2967 JUMP JUMPDEST PUSH3 0x2949 JUMP JUMPDEST SWAP1 POP DUP3 DUP2 MSTORE PUSH1 0x20 DUP2 ADD DUP5 DUP5 DUP5 ADD GT ISZERO PUSH3 0x29DF JUMPI PUSH3 0x29DE PUSH3 0x28E2 JUMP JUMPDEST JUMPDEST PUSH3 0x29EC DUP5 DUP3 DUP6 PUSH3 0x299C JUMP JUMPDEST POP SWAP4 SWAP3 POP POP POP JUMP JUMPDEST PUSH0 DUP3 PUSH1 0x1F DUP4 ADD SLT PUSH3 0x2A0B JUMPI PUSH3 0x2A0A PUSH3 0x28DE JUMP JUMPDEST JUMPDEST DUP2 CALLDATALOAD PUSH3 0x2A1D DUP5 DUP3 PUSH1 0x20 DUP7 ADD PUSH3 0x29AA JUMP JUMPDEST SWAP2 POP POP SWAP3 SWAP2 POP POP JUMP JUMPDEST PUSH0 PUSH1 0x20 DUP3 DUP5 SUB SLT ISZERO PUSH3 0x2A3E JUMPI PUSH3 0x2A3D PUSH3 0x2308 JUMP JUMPDEST JUMPDEST PUSH0 DUP3 ADD CALLDATALOAD PUSH8 0xFFFFFFFFFFFFFFFF DUP2 GT ISZERO PUSH3 0x2A5E JUMPI PUSH3 0x2A5D PUSH3 0x230C JUMP JUMPDEST JUMPDEST PUSH3 0x2A6C DUP5 DUP3 DUP6 ADD PUSH3 0x29F4 JUMP JUMPDEST SWAP2 POP POP SWAP3 SWAP2 POP POP JUMP JUMPDEST PUSH32 0x4E487B7100000000000000000000000000000000000000000000000000000000 PUSH0 MSTORE PUSH1 0x22 PUSH1 0x4 MSTORE PUSH1 0x24 PUSH0 REVERT JUMPDEST PUSH0 PUSH1 0x2 DUP3 DIV SWAP1 POP PUSH1 0x1 DUP3 AND DUP1 PUSH3 0x2ABA JUMPI PUSH1 0x7F DUP3 AND SWAP2 POP JUMPDEST PUSH1 0x20 DUP3 LT DUP2 SUB PUSH3 0x2AD0 JUMPI PUSH3 0x2ACF PUSH3 0x2A75 JUMP JUMPDEST JUMPDEST POP SWAP2 SWAP1 POP JUMP JUMPDEST PUSH32 0x546F74616C20737570706C79206D757374206265206772656174657220746861 PUSH0 DUP3 ADD MSTORE PUSH32 0x6E20302E00000000000000000000000000000000000000000000000000000000 PUSH1 0x20 DUP3 ADD MSTORE POP JUMP JUMPDEST PUSH0 PUSH3 0x2B32 PUSH1 0x24 DUP4 PUSH3 0x2253 JUMP JUMPDEST SWAP2 POP PUSH3 0x2B3F DUP3 PUSH3 0x2AD6 JUMP JUMPDEST PUSH1 0x40 DUP3 ADD SWAP1 POP SWAP2 SWAP1 POP JUMP JUMPDEST PUSH0 PUSH1 0x20 DUP3 ADD SWAP1 POP DUP2 DUP2 SUB PUSH0 DUP4 ADD MSTORE PUSH3 0x2B63 DUP2 PUSH3 0x2B24 JUMP JUMPDEST SWAP1 POP SWAP2 SWAP1 POP JUMP JUMPDEST PUSH32 0x4D696E696E6720697320616C726561647920696E2070726F67726573732E0000 PUSH0 DUP3 ADD MSTORE POP JUMP JUMPDEST PUSH0 PUSH3 0x2BA0 PUSH1 0x1E DUP4 PUSH3 0x2253 JUMP JUMPDEST SWAP2 POP PUSH3 0x2BAD DUP3 PUSH3 0x2B6A JUMP JUMPDEST PUSH1 0x20 DUP3 ADD SWAP1 POP SWAP2 SWAP1 POP JUMP JUMPDEST PUSH0 PUSH1 0x20 DUP3 ADD SWAP1 POP DUP2 DUP2 SUB PUSH0 DUP4 ADD MSTORE PUSH3 0x2BD1 DUP2 PUSH3 0x2B92 JUMP JUMPDEST SWAP1 POP SWAP2 SWAP1 POP JUMP JUMPDEST PUSH0 PUSH1 0xA0 DUP3 ADD SWAP1 POP PUSH3 0x2BED PUSH0 DUP4 ADD DUP9 PUSH3 0x24B6 JUMP JUMPDEST PUSH3 0x2BFC PUSH1 0x20 DUP4 ADD DUP8 PUSH3 0x2425 JUMP JUMPDEST DUP2 DUP2 SUB PUSH1 0x40 DUP4 ADD MSTORE PUSH3 0x2C10 DUP2 DUP7 PUSH3 0x229D JUMP JUMPDEST SWAP1 POP DUP2 DUP2 SUB PUSH1 0x60 DUP4 ADD MSTORE PUSH3 0x2C26 DUP2 DUP6 PUSH3 0x229D JUMP JUMPDEST SWAP1 POP PUSH3 0x2C37 PUSH1 0x80 DUP4 ADD DUP5 PUSH3 0x2425 JUMP JUMPDEST SWAP7 SWAP6 POP POP POP POP POP POP JUMP JUMPDEST PUSH32 0x4E487B7100000000000000000000000000000000000000000000000000000000 PUSH0 MSTORE PUSH1 0x11 PUSH1 0x4 MSTORE PUSH1 0x24 PUSH0 REVERT JUMPDEST PUSH0 PUSH3 0x2C7A DUP3 PUSH3 0x2371 JUMP JUMPDEST SWAP2 POP PUSH3 0x2C87 DUP4 PUSH3 0x2371 JUMP JUMPDEST SWAP3 POP DUP3 DUP3 ADD SWAP1 POP DUP1 DUP3 GT ISZERO PUSH3 0x2CA2 JUMPI PUSH3 0x2CA1 PUSH3 0x2C41 JUMP JUMPDEST JUMPDEST SWAP3 SWAP2 POP POP JUMP JUMPDEST PUSH32 0x4E6F7420656E6F75676820746F6B656E7320617661696C61626C652E00000000 PUSH0 DUP3 ADD MSTORE POP JUMP JUMPDEST PUSH0 PUSH3 0x2CDE PUSH1 0x1C DUP4 PUSH3 0x2253 JUMP JUMPDEST SWAP2 POP PUSH3 0x2CEB DUP3 PUSH3 0x2CA8 JUMP JUMPDEST PUSH1 0x20 DUP3 ADD SWAP1 POP SWAP2 SWAP1 POP JUMP JUMPDEST PUSH0 PUSH1 0x20 DUP3 ADD SWAP1 POP DUP2 DUP2 SUB PUSH0 DUP4 ADD MSTORE PUSH3 0x2D0F DUP2 PUSH3 0x2CD0 JUMP JUMPDEST SWAP1 POP SWAP2 SWAP1 POP JUMP JUMPDEST PUSH0 PUSH1 0xC0 DUP3 ADD SWAP1 POP PUSH3 0x2D2B PUSH0 DUP4 ADD DUP10 PUSH3 0x24EB JUMP JUMPDEST PUSH3 0x2D3A PUSH1 0x20 DUP4 ADD DUP9 PUSH3 0x2583 JUMP JUMPDEST PUSH3 0x2D49 PUSH1 0x40 DUP4 ADD DUP8 PUSH3 0x2583 JUMP JUMPDEST PUSH3 0x2D58 PUSH1 0x60 DUP4 ADD DUP7 PUSH3 0x2425 JUMP JUMPDEST PUSH3 0x2D67 PUSH1 0x80 DUP4 ADD DUP6 PUSH3 0x2425 JUMP JUMPDEST PUSH3 0x2D76 PUSH1 0xA0 DUP4 ADD DUP5 PUSH3 0x2425 JUMP JUMPDEST SWAP8 SWAP7 POP POP POP POP POP POP POP JUMP JUMPDEST PUSH0 PUSH1 0x40 DUP3 ADD SWAP1 POP PUSH3 0x2D96 PUSH0 DUP4 ADD DUP6 PUSH3 0x2583 JUMP JUMPDEST PUSH3 0x2DA5 PUSH1 0x20 DUP4 ADD DUP5 PUSH3 0x2583 JUMP JUMPDEST SWAP4 SWAP3 POP POP POP JUMP JUMPDEST PUSH32 0x596F75722063726564697420697320746F6F206C6F772E000000000000000000 PUSH0 DUP3 ADD MSTORE POP JUMP JUMPDEST PUSH0 PUSH3 0x2DE2 PUSH1 0x17 DUP4 PUSH3 0x2253 JUMP JUMPDEST SWAP2 POP PUSH3 0x2DEF DUP3 PUSH3 0x2DAC JUMP JUMPDEST PUSH1 0x20 DUP3 ADD SWAP1 POP SWAP2 SWAP1 POP JUMP JUMPDEST PUSH0 PUSH1 0x20 DUP3 ADD SWAP1 POP DUP2 DUP2 SUB PUSH0 DUP4 ADD MSTORE PUSH3 0x2E13 DUP2 PUSH3 0x2DD4 JUMP JUMPDEST SWAP1 POP SWAP2 SWAP1 POP JUMP JUMPDEST PUSH32 0x496E73756666696369656E742062616C616E6365000000000000000000000000 PUSH0 DUP3 ADD MSTORE POP JUMP JUMPDEST PUSH0 PUSH3 0x2E50 PUSH1 0x14 DUP4 PUSH3 0x2253 JUMP JUMPDEST SWAP2 POP PUSH3 0x2E5D DUP3 PUSH3 0x2E1A JUMP JUMPDEST PUSH1 0x20 DUP3 ADD SWAP1 POP SWAP2 SWAP1 POP JUMP JUMPDEST PUSH0 PUSH1 0x20 DUP3 ADD SWAP1 POP DUP2 DUP2 SUB PUSH0 DUP4 ADD MSTORE PUSH3 0x2E81 DUP2 PUSH3 0x2E42 JUMP JUMPDEST SWAP1 POP SWAP2 SWAP1 POP JUMP JUMPDEST PUSH0 PUSH1 0x40 DUP3 ADD SWAP1 POP PUSH3 0x2E9D PUSH0 DUP4 ADD DUP6 PUSH3 0x2583 JUMP JUMPDEST DUP2 DUP2 SUB PUSH1 0x20 DUP4 ADD MSTORE PUSH3 0x2EB1 DUP2 DUP5 PUSH3 0x229D JUMP JUMPDEST SWAP1 POP SWAP4 SWAP3 POP POP POP JUMP JUMPDEST PUSH3 0x2EC5 DUP2 PUSH3 0x23EE JUMP JUMPDEST DUP2 EQ PUSH3 0x2ED0 JUMPI PUSH0 DUP1 REVERT JUMPDEST POP JUMP JUMPDEST PUSH0 DUP2 MLOAD SWAP1 POP PUSH3 0x2EE3 DUP2 PUSH3 0x2EBA JUMP JUMPDEST SWAP3 SWAP2 POP POP JUMP JUMPDEST PUSH0 PUSH1 0x20 DUP3 DUP5 SUB SLT ISZERO PUSH3 0x2F01 JUMPI PUSH3 0x2F00 PUSH3 0x2308 JUMP JUMPDEST JUMPDEST PUSH0 PUSH3 0x2F10 DUP5 DUP3 DUP6 ADD PUSH3 0x2ED3 JUMP JUMPDEST SWAP2 POP POP SWAP3 SWAP2 POP POP JUMP JUMPDEST PUSH0 DUP2 MLOAD SWAP1 POP PUSH3 0x2F29 DUP2 PUSH3 0x237A JUMP JUMPDEST SWAP3 SWAP2 POP POP JUMP JUMPDEST PUSH0 PUSH1 0x20 DUP3 DUP5 SUB SLT ISZERO PUSH3 0x2F47 JUMPI PUSH3 0x2F46 PUSH3 0x2308 JUMP JUMPDEST JUMPDEST PUSH0 PUSH3 0x2F56 DUP5 DUP3 DUP6 ADD PUSH3 0x2F19 JUMP JUMPDEST SWAP2 POP POP SWAP3 SWAP2 POP POP JUMP JUMPDEST PUSH0 PUSH1 0x60 DUP3 ADD SWAP1 POP PUSH3 0x2F74 PUSH0 DUP4 ADD DUP7 PUSH3 0x2583 JUMP JUMPDEST PUSH3 0x2F83 PUSH1 0x20 DUP4 ADD DUP6 PUSH3 0x2425 JUMP JUMPDEST PUSH3 0x2F92 PUSH1 0x40 DUP4 ADD DUP5 PUSH3 0x2425 JUMP JUMPDEST SWAP5 SWAP4 POP POP POP POP JUMP JUMPDEST PUSH0 PUSH3 0x2FA6 DUP3 PUSH3 0x2371 JUMP JUMPDEST SWAP2 POP PUSH3 0x2FB3 DUP4 PUSH3 0x2371 JUMP JUMPDEST SWAP3 POP DUP3 DUP3 MUL PUSH3 0x2FC3 DUP2 PUSH3 0x2371 JUMP JUMPDEST SWAP2 POP DUP3 DUP3 DIV DUP5 EQ DUP4 ISZERO OR PUSH3 0x2FDD JUMPI PUSH3 0x2FDC PUSH3 0x2C41 JUMP JUMPDEST JUMPDEST POP SWAP3 SWAP2 POP POP JUMP JUMPDEST PUSH0 PUSH1 0xA0 DUP3 ADD SWAP1 POP PUSH3 0x2FF9 PUSH0 DUP4 ADD DUP9 PUSH3 0x24EB JUMP JUMPDEST PUSH3 0x3008 PUSH1 0x20 DUP4 ADD DUP8 PUSH3 0x24EB JUMP JUMPDEST PUSH3 0x3017 PUSH1 0x40 DUP4 ADD DUP7 PUSH3 0x24EB JUMP JUMPDEST PUSH3 0x3026 PUSH1 0x60 DUP4 ADD DUP6 PUSH3 0x2425 JUMP JUMPDEST PUSH3 0x3035 PUSH1 0x80 DUP4 ADD DUP5 PUSH3 0x2583 JUMP JUMPDEST SWAP7 SWAP6 POP POP POP POP POP POP JUMP JUMPDEST PUSH32 0x4E487B7100000000000000000000000000000000000000000000000000000000 PUSH0 MSTORE PUSH1 0x12 PUSH1 0x4 MSTORE PUSH1 0x24 PUSH0 REVERT JUMPDEST PUSH0 PUSH3 0x3078 DUP3 PUSH3 0x2371 JUMP JUMPDEST SWAP2 POP PUSH3 0x3085 DUP4 PUSH3 0x2371 JUMP JUMPDEST SWAP3 POP DUP3 PUSH3 0x3098 JUMPI PUSH3 0x3097 PUSH3 0x303F JUMP JUMPDEST JUMPDEST DUP3 DUP3 DIV SWAP1 POP SWAP3 SWAP2 POP POP JUMP JUMPDEST PUSH0 PUSH3 0x30AF DUP3 PUSH3 0x2371 JUMP JUMPDEST SWAP2 POP PUSH3 0x30BC DUP4 PUSH3 0x2371 JUMP JUMPDEST SWAP3 POP DUP3 DUP3 SUB SWAP1 POP DUP2 DUP2 GT ISZERO PUSH3 0x30D7 JUMPI PUSH3 0x30D6 PUSH3 0x2C41 JUMP JUMPDEST JUMPDEST SWAP3 SWAP2 POP POP JUMP JUMPDEST PUSH0 PUSH1 0x80 DUP3 ADD SWAP1 POP PUSH3 0x30F2 PUSH0 DUP4 ADD DUP8 PUSH3 0x24EB JUMP JUMPDEST PUSH3 0x3101 PUSH1 0x20 DUP4 ADD DUP7 PUSH3 0x24B6 JUMP JUMPDEST PUSH3 0x3110 PUSH1 0x40 DUP4 ADD DUP6 PUSH3 0x24EB JUMP JUMPDEST PUSH3 0x311F PUSH1 0x60 DUP4 ADD DUP5 PUSH3 0x24EB JUMP JUMPDEST SWAP6 SWAP5 POP POP POP POP POP JUMP JUMPDEST PUSH32 0x4E487B7100000000000000000000000000000000000000000000000000000000 PUSH0 MSTORE PUSH1 0x21 PUSH1 0x4 MSTORE PUSH1 0x24 PUSH0 REVERT INVALID PUSH1 0x80 PUSH1 0x40 MSTORE PUSH1 0x1 PUSH1 0x8 PUSH0 PUSH2 0x100 EXP DUP2 SLOAD DUP2 PUSH1 0xFF MUL NOT AND SWAP1 DUP4 PUSH1 0xFF AND MUL OR SWAP1 SSTORE POP PUSH0 PUSH1 0xB PUSH0 PUSH2 0x100 EXP DUP2 SLOAD DUP2 PUSH1 0xFF MUL NOT AND SWAP1 DUP4 PUSH1 0xFF AND MUL OR SWAP1 SSTORE POP PUSH1 0x1A PUSH1 0xF8 SHL PUSH1 0xB PUSH1 0x1 PUSH2 0x100 EXP DUP2 SLOAD DUP2 PUSH1 0xFF MUL NOT AND SWAP1 DUP4 PUSH1 0xF8 SHR MUL OR SWAP1 SSTORE POP CALLVALUE DUP1 ISZERO PUSH3 0x64 JUMPI PUSH0 DUP1 REVERT JUMPDEST POP PUSH1 0x40 MLOAD PUSH3 0x1E61 CODESIZE SUB DUP1 PUSH3 0x1E61 DUP4 CODECOPY DUP2 DUP2 ADD PUSH1 0x40 MSTORE DUP2 ADD SWAP1 PUSH3 0x8A SWAP2 SWAP1 PUSH3 0x7C7 JUMP JUMPDEST NUMBER PUSH1 0x5 DUP2 SWAP1 SSTORE POP PUSH1 0x5 SLOAD BLOCKHASH PUSH1 0x6 DUP2 SWAP1 SSTORE POP DUP5 PUSH1 0x4 PUSH0 PUSH2 0x100 EXP DUP2 SLOAD DUP2 PUSH1 0xFF MUL NOT AND SWAP1 DUP4 PUSH1 0xFF AND MUL OR SWAP1 SSTORE POP DUP4 PUSH0 DUP2 SWAP1 SSTORE POP DUP3 PUSH1 0x2 SWAP1 DUP2 PUSH3 0xCC SWAP2 SWAP1 PUSH3 0xAB7 JUMP JUMPDEST POP DUP2 PUSH1 0x3 SWAP1 DUP2 PUSH3 0xDE SWAP2 SWAP1 PUSH3 0xAB7 JUMP JUMPDEST POP DUP1 PUSH1 0x1 DUP2 SWAP1 SSTORE POP PUSH3 0xF6 PUSH3 0x176 PUSH1 0x20 SHL PUSH1 0x20 SHR JUMP JUMPDEST PUSH1 0x7 SWAP1 DUP2 PUSH3 0x106 SWAP2 SWAP1 PUSH3 0xAB7 JUMP JUMPDEST POP PUSH3 0x11A PUSH1 0x1 SLOAD PUSH3 0x2F1 PUSH1 0x20 SHL PUSH1 0x20 SHR JUMP JUMPDEST PUSH1 0xA DUP2 SWAP1 SSTORE POP PUSH1 0x7 PUSH1 0x40 MLOAD PUSH3 0x131 SWAP2 SWAP1 PUSH3 0xC31 JUMP JUMPDEST PUSH1 0x40 MLOAD DUP1 SWAP2 SUB SWAP1 KECCAK256 PUSH1 0x6 SLOAD PUSH1 0x5 SLOAD PUSH32 0x9F4DA1EB02E98B4AB1D9B713F225D0F993B2222A21852024E9D90204BE64706A PUSH1 0x40 MLOAD PUSH1 0x40 MLOAD DUP1 SWAP2 SUB SWAP1 LOG4 POP POP POP POP POP PUSH3 0xE90 JUMP JUMPDEST PUSH1 0x60 PUSH0 PUSH1 0xA SLOAD PUSH1 0x1 SLOAD PUSH3 0x18B SWAP2 SWAP1 PUSH3 0xC76 JUMP JUMPDEST SWAP1 POP DUP1 PUSH0 SLOAD LT ISZERO PUSH3 0x1D4 JUMPI PUSH1 0x40 MLOAD PUSH32 0x8C379A000000000000000000000000000000000000000000000000000000000 DUP2 MSTORE PUSH1 0x4 ADD PUSH3 0x1CB SWAP1 PUSH3 0xD0E JUMP JUMPDEST PUSH1 0x40 MLOAD DUP1 SWAP2 SUB SWAP1 REVERT JUMPDEST PUSH0 PUSH3 0x1E7 PUSH0 SLOAD PUSH3 0x328 PUSH1 0x20 SHL PUSH1 0x20 SHR JUMP JUMPDEST SWAP1 POP PUSH0 PUSH3 0x1FD PUSH1 0x1 SLOAD PUSH3 0x328 PUSH1 0x20 SHL PUSH1 0x20 SHR JUMP JUMPDEST SWAP1 POP PUSH0 PUSH1 0x3 DUP1 SLOAD PUSH3 0x20F SWAP1 PUSH3 0x8C0 JUMP JUMPDEST DUP1 PUSH1 0x1F ADD PUSH1 0x20 DUP1 SWAP2 DIV MUL PUSH1 0x20 ADD PUSH1 0x40 MLOAD SWAP1 DUP2 ADD PUSH1 0x40 MSTORE DUP1 SWAP3 SWAP2 SWAP1 DUP2 DUP2 MSTORE PUSH1 0x20 ADD DUP3 DUP1 SLOAD PUSH3 0x23D SWAP1 PUSH3 0x8C0 JUMP JUMPDEST DUP1 ISZERO PUSH3 0x28C JUMPI DUP1 PUSH1 0x1F LT PUSH3 0x262 JUMPI PUSH2 0x100 DUP1 DUP4 SLOAD DIV MUL DUP4 MSTORE SWAP2 PUSH1 0x20 ADD SWAP2 PUSH3 0x28C JUMP JUMPDEST DUP3 ADD SWAP2 SWAP1 PUSH0 MSTORE PUSH1 0x20 PUSH0 KECCAK256 SWAP1 JUMPDEST DUP2 SLOAD DUP2 MSTORE SWAP1 PUSH1 0x1 ADD SWAP1 PUSH1 0x20 ADD DUP1 DUP4 GT PUSH3 0x26E JUMPI DUP3 SWAP1 SUB PUSH1 0x1F AND DUP3 ADD SWAP2 JUMPDEST POP POP POP POP POP SWAP1 POP PUSH0 PUSH1 0x6 SLOAD PUSH1 0x40 MLOAD PUSH1 0x20 ADD PUSH3 0x2A9 SWAP2 SWAP1 PUSH3 0xD5B JUMP JUMPDEST PUSH1 0x40 MLOAD PUSH1 0x20 DUP2 DUP4 SUB SUB DUP2 MSTORE SWAP1 PUSH1 0x40 MSTORE SWAP1 POP PUSH0 DUP3 DUP6 DUP6 DUP5 PUSH1 0x40 MLOAD PUSH1 0x20 ADD PUSH3 0x2D4 SWAP5 SWAP4 SWAP3 SWAP2 SWAP1 PUSH3 0xDAD JUMP JUMPDEST PUSH1 0x40 MLOAD PUSH1 0x20 DUP2 DUP4 SUB SUB DUP2 MSTORE SWAP1 PUSH1 0x40 MSTORE SWAP1 POP DUP1 SWAP7 POP POP POP POP POP POP POP SWAP1 JUMP JUMPDEST PUSH0 DUP1 PUSH3 0x316 DUP4 PUSH1 0x4 PUSH0 SWAP1 SLOAD SWAP1 PUSH2 0x100 EXP SWAP1 DIV PUSH1 0xFF AND PUSH1 0xFF AND PUSH3 0x403 PUSH1 0x20 SHL PUSH1 0x20 SHR JUMP JUMPDEST SWAP1 POP DUP1 PUSH1 0x9 DUP2 SWAP1 SSTORE POP DUP1 SWAP2 POP POP SWAP2 SWAP1 POP JUMP JUMPDEST PUSH1 0x60 PUSH0 PUSH1 0x1 PUSH3 0x33E DUP5 PUSH3 0x465 PUSH1 0x20 SHL PUSH1 0x20 SHR JUMP JUMPDEST ADD SWAP1 POP PUSH0 DUP2 PUSH8 0xFFFFFFFFFFFFFFFF DUP2 GT ISZERO PUSH3 0x35F JUMPI PUSH3 0x35E PUSH3 0x66B JUMP JUMPDEST JUMPDEST PUSH1 0x40 MLOAD SWAP1 DUP1 DUP3 MSTORE DUP1 PUSH1 0x1F ADD PUSH1 0x1F NOT AND PUSH1 0x20 ADD DUP3 ADD PUSH1 0x40 MSTORE DUP1 ISZERO PUSH3 0x392 JUMPI DUP2 PUSH1 0x20 ADD PUSH1 0x1 DUP3 MUL DUP1 CALLDATASIZE DUP4 CALLDATACOPY DUP1 DUP3 ADD SWAP2 POP POP SWAP1 POP JUMPDEST POP SWAP1 POP PUSH0 DUP3 PUSH1 0x20 ADD DUP3 ADD SWAP1 POP JUMPDEST PUSH1 0x1 ISZERO PUSH3 0x3F8 JUMPI DUP1 DUP1 PUSH1 0x1 SWAP1 SUB SWAP2 POP POP PUSH32 0x3031323334353637383961626364656600000000000000000000000000000000 PUSH1 0xA DUP7 MOD BYTE DUP2 MSTORE8 PUSH1 0xA DUP6 DUP2 PUSH3 0x3EC JUMPI PUSH3 0x3EB PUSH3 0xDF2 JUMP JUMPDEST JUMPDEST DIV SWAP5 POP PUSH0 DUP6 SUB PUSH3 0x39F JUMPI JUMPDEST DUP2 SWAP4 POP POP POP POP SWAP2 SWAP1 POP JUMP JUMPDEST PUSH0 DUP1 DUP3 SUB PUSH3 0x422 JUMPI DUP2 DUP4 PUSH3 0x41A SWAP2 SWAP1 PUSH3 0xE1F JUMP JUMPDEST SWAP1 POP PUSH3 0x45F JUMP JUMPDEST PUSH0 DUP4 EQ PUSH3 0x45A JUMPI PUSH1 0x1 DUP3 PUSH1 0x1 DUP6 PUSH3 0x43C SWAP2 SWAP1 PUSH3 0xE56 JUMP JUMPDEST PUSH3 0x448 SWAP2 SWAP1 PUSH3 0xE1F JUMP JUMPDEST PUSH3 0x454 SWAP2 SWAP1 PUSH3 0xC76 JUMP JUMPDEST PUSH3 0x45C JUMP JUMPDEST PUSH0 JUMPDEST SWAP1 POP JUMPDEST SWAP3 SWAP2 POP POP JUMP JUMPDEST PUSH0 DUP1 PUSH0 SWAP1 POP PUSH27 0x184F03E93FF9F4DAA797ED6E38ED64BF6A1F010000000000000000 DUP4 LT PUSH3 0x4C5 JUMPI PUSH27 0x184F03E93FF9F4DAA797ED6E38ED64BF6A1F010000000000000000 DUP4 DUP2 PUSH3 0x4BB JUMPI PUSH3 0x4BA PUSH3 0xDF2 JUMP JUMPDEST JUMPDEST DIV SWAP3 POP PUSH1 0x40 DUP2 ADD SWAP1 POP JUMPDEST PUSH14 0x4EE2D6D415B85ACEF8100000000 DUP4 LT PUSH3 0x506 JUMPI PUSH14 0x4EE2D6D415B85ACEF8100000000 DUP4 DUP2 PUSH3 0x4FC JUMPI PUSH3 0x4FB PUSH3 0xDF2 JUMP JUMPDEST JUMPDEST DIV SWAP3 POP PUSH1 0x20 DUP2 ADD SWAP1 POP JUMPDEST PUSH7 0x2386F26FC10000 DUP4 LT PUSH3 0x539 JUMPI PUSH7 0x2386F26FC10000 DUP4 DUP2 PUSH3 0x52F JUMPI PUSH3 0x52E PUSH3 0xDF2 JUMP JUMPDEST JUMPDEST DIV SWAP3 POP PUSH1 0x10 DUP2 ADD SWAP1 POP JUMPDEST PUSH4 0x5F5E100 DUP4 LT PUSH3 0x566 JUMPI PUSH4 0x5F5E100 DUP4 DUP2 PUSH3 0x55C JUMPI PUSH3 0x55B PUSH3 0xDF2 JUMP JUMPDEST JUMPDEST DIV SWAP3 POP PUSH1 0x8 DUP2 ADD SWAP1 POP JUMPDEST PUSH2 0x2710 DUP4 LT PUSH3 0x58F JUMPI PUSH2 0x2710 DUP4 DUP2 PUSH3 0x585 JUMPI PUSH3 0x584 PUSH3 0xDF2 JUMP JUMPDEST JUMPDEST DIV SWAP3 POP PUSH1 0x4 DUP2 ADD SWAP1 POP JUMPDEST PUSH1 0x64 DUP4 LT PUSH3 0x5B6 JUMPI PUSH1 0x64 DUP4 DUP2 PUSH3 0x5AC JUMPI PUSH3 0x5AB PUSH3 0xDF2 JUMP JUMPDEST JUMPDEST DIV SWAP3 POP PUSH1 0x2 DUP2 ADD SWAP1 POP JUMPDEST PUSH1 0xA DUP4 LT PUSH3 0x5C6 JUMPI PUSH1 0x1 DUP2 ADD SWAP1 POP JUMPDEST DUP1 SWAP2 POP POP SWAP2 SWAP1 POP JUMP JUMPDEST PUSH0 PUSH1 0x40 MLOAD SWAP1 POP SWAP1 JUMP JUMPDEST PUSH0 DUP1 REVERT JUMPDEST PUSH0 DUP1 REVERT JUMPDEST PUSH0 PUSH1 0xFF DUP3 AND SWAP1 POP SWAP2 SWAP1 POP JUMP JUMPDEST PUSH3 0x5F7 DUP2 PUSH3 0x5E0 JUMP JUMPDEST DUP2 EQ PUSH3 0x602 JUMPI PUSH0 DUP1 REVERT JUMPDEST POP JUMP JUMPDEST PUSH0 DUP2 MLOAD SWAP1 POP PUSH3 0x615 DUP2 PUSH3 0x5EC JUMP JUMPDEST SWAP3 SWAP2 POP POP JUMP JUMPDEST PUSH0 DUP2 SWAP1 POP SWAP2 SWAP1 POP JUMP JUMPDEST PUSH3 0x62F DUP2 PUSH3 0x61B JUMP JUMPDEST DUP2 EQ PUSH3 0x63A JUMPI PUSH0 DUP1 REVERT JUMPDEST POP JUMP JUMPDEST PUSH0 DUP2 MLOAD SWAP1 POP PUSH3 0x64D DUP2 PUSH3 0x624 JUMP JUMPDEST SWAP3 SWAP2 POP POP JUMP JUMPDEST PUSH0 DUP1 REVERT JUMPDEST PUSH0 DUP1 REVERT JUMPDEST PUSH0 PUSH1 0x1F NOT PUSH1 0x1F DUP4 ADD AND SWAP1 POP SWAP2 SWAP1 POP JUMP JUMPDEST PUSH32 0x4E487B7100000000000000000000000000000000000000000000000000000000 PUSH0 MSTORE PUSH1 0x41 PUSH1 0x4 MSTORE PUSH1 0x24 PUSH0 REVERT JUMPDEST PUSH3 0x6A3 DUP3 PUSH3 0x65B JUMP JUMPDEST DUP2 ADD DUP2 DUP2 LT PUSH8 0xFFFFFFFFFFFFFFFF DUP3 GT OR ISZERO PUSH3 0x6C5 JUMPI PUSH3 0x6C4 PUSH3 0x66B JUMP JUMPDEST JUMPDEST DUP1 PUSH1 0x40 MSTORE POP POP POP JUMP JUMPDEST PUSH0 PUSH3 0x6D9 PUSH3 0x5CF JUMP JUMPDEST SWAP1 POP PUSH3 0x6E7 DUP3 DUP3 PUSH3 0x698 JUMP JUMPDEST SWAP2 SWAP1 POP JUMP JUMPDEST PUSH0 PUSH8 0xFFFFFFFFFFFFFFFF DUP3 GT ISZERO PUSH3 0x709 JUMPI PUSH3 0x708 PUSH3 0x66B JUMP JUMPDEST JUMPDEST PUSH3 0x714 DUP3 PUSH3 0x65B JUMP JUMPDEST SWAP1 POP PUSH1 0x20 DUP2 ADD SWAP1 POP SWAP2 SWAP1 POP JUMP JUMPDEST PUSH0 JUMPDEST DUP4 DUP2 LT ISZERO PUSH3 0x740 JUMPI DUP1 DUP3 ADD MLOAD DUP2 DUP5 ADD MSTORE PUSH1 0x20 DUP2 ADD SWAP1 POP PUSH3 0x723 JUMP JUMPDEST PUSH0 DUP5 DUP5 ADD MSTORE POP POP POP POP JUMP JUMPDEST PUSH0 PUSH3 0x761 PUSH3 0x75B DUP5 PUSH3 0x6EC JUMP JUMPDEST PUSH3 0x6CE JUMP JUMPDEST SWAP1 POP DUP3 DUP2 MSTORE PUSH1 0x20 DUP2 ADD DUP5 DUP5 DUP5 ADD GT ISZERO PUSH3 0x780 JUMPI PUSH3 0x77F PUSH3 0x657 JUMP JUMPDEST JUMPDEST PUSH3 0x78D DUP5 DUP3 DUP6 PUSH3 0x721 JUMP JUMPDEST POP SWAP4 SWAP3 POP POP POP JUMP JUMPDEST PUSH0 DUP3 PUSH1 0x1F DUP4 ADD SLT PUSH3 0x7AC JUMPI PUSH3 0x7AB PUSH3 0x653 JUMP JUMPDEST JUMPDEST DUP2 MLOAD PUSH3 0x7BE DUP5 DUP3 PUSH1 0x20 DUP7 ADD PUSH3 0x74B JUMP JUMPDEST SWAP2 POP POP SWAP3 SWAP2 POP POP JUMP JUMPDEST PUSH0 DUP1 PUSH0 DUP1 PUSH0 PUSH1 0xA0 DUP7 DUP9 SUB SLT ISZERO PUSH3 0x7E3 JUMPI PUSH3 0x7E2 PUSH3 0x5D8 JUMP JUMPDEST JUMPDEST PUSH0 PUSH3 0x7F2 DUP9 DUP3 DUP10 ADD PUSH3 0x605 JUMP JUMPDEST SWAP6 POP POP PUSH1 0x20 PUSH3 0x805 DUP9 DUP3 DUP10 ADD PUSH3 0x63D JUMP JUMPDEST SWAP5 POP POP PUSH1 0x40 DUP7 ADD MLOAD PUSH8 0xFFFFFFFFFFFFFFFF DUP2 GT ISZERO PUSH3 0x829 JUMPI PUSH3 0x828 PUSH3 0x5DC JUMP JUMPDEST JUMPDEST PUSH3 0x837 DUP9 DUP3 DUP10 ADD PUSH3 0x795 JUMP JUMPDEST SWAP4 POP POP PUSH1 0x60 DUP7 ADD MLOAD PUSH8 0xFFFFFFFFFFFFFFFF DUP2 GT ISZERO PUSH3 0x85B JUMPI PUSH3 0x85A PUSH3 0x5DC JUMP JUMPDEST JUMPDEST PUSH3 0x869 DUP9 DUP3 DUP10 ADD PUSH3 0x795 JUMP JUMPDEST SWAP3 POP POP PUSH1 0x80 PUSH3 0x87C DUP9 DUP3 DUP10 ADD PUSH3 0x63D JUMP JUMPDEST SWAP2 POP POP SWAP3 SWAP6 POP SWAP3 SWAP6 SWAP1 SWAP4 POP JUMP JUMPDEST PUSH0 DUP2 MLOAD SWAP1 POP SWAP2 SWAP1 POP JUMP JUMPDEST PUSH32 0x4E487B7100000000000000000000000000000000000000000000000000000000 PUSH0 MSTORE PUSH1 0x22 PUSH1 0x4 MSTORE PUSH1 0x24 PUSH0 REVERT JUMPDEST PUSH0 PUSH1 0x2 DUP3 DIV SWAP1 POP PUSH1 0x1 DUP3 AND DUP1 PUSH3 0x8D8 JUMPI PUSH1 0x7F DUP3 AND SWAP2 POP JUMPDEST PUSH1 0x20 DUP3 LT DUP2 SUB PUSH3 0x8EE JUMPI PUSH3 0x8ED PUSH3 0x893 JUMP JUMPDEST JUMPDEST POP SWAP2 SWAP1 POP JUMP JUMPDEST PUSH0 DUP2 SWAP1 POP DUP2 PUSH0 MSTORE PUSH1 0x20 PUSH0 KECCAK256 SWAP1 POP SWAP2 SWAP1 POP JUMP JUMPDEST PUSH0 PUSH1 0x20 PUSH1 0x1F DUP4 ADD DIV SWAP1 POP SWAP2 SWAP1 POP JUMP JUMPDEST PUSH0 DUP3 DUP3 SHL SWAP1 POP SWAP3 SWAP2 POP POP JUMP JUMPDEST PUSH0 PUSH1 0x8 DUP4 MUL PUSH3 0x952 PUSH32 0xFFFFFFFFFFFFFFFFFFFFFFFFFFFFFFFFFFFFFFFFFFFFFFFFFFFFFFFFFFFFFFFF DUP3 PUSH3 0x915 JUMP JUMPDEST PUSH3 0x95E DUP7 DUP4 PUSH3 0x915 JUMP JUMPDEST SWAP6 POP DUP1 NOT DUP5 AND SWAP4 POP DUP1 DUP7 AND DUP5 OR SWAP3 POP POP POP SWAP4 SWAP3 POP POP POP JUMP JUMPDEST PUSH0 DUP2 SWAP1 POP SWAP2 SWAP1 POP JUMP JUMPDEST PUSH0 PUSH3 0x99F PUSH3 0x999 PUSH3 0x993 DUP5 PUSH3 0x61B JUMP JUMPDEST PUSH3 0x976 JUMP JUMPDEST PUSH3 0x61B JUMP JUMPDEST SWAP1 POP SWAP2 SWAP1 POP JUMP JUMPDEST PUSH0 DUP2 SWAP1 POP SWAP2 SWAP1 POP JUMP JUMPDEST PUSH3 0x9BA DUP4 PUSH3 0x97F JUMP JUMPDEST PUSH3 0x9D2 PUSH3 0x9C9 DUP3 PUSH3 0x9A6 JUMP JUMPDEST DUP5 DUP5 SLOAD PUSH3 0x921 JUMP JUMPDEST DUP3 SSTORE POP POP POP POP JUMP JUMPDEST PUSH0 SWAP1 JUMP JUMPDEST PUSH3 0x9E8 PUSH3 0x9DA JUMP JUMPDEST PUSH3 0x9F5 DUP2 DUP5 DUP5 PUSH3 0x9AF JUMP JUMPDEST POP POP POP JUMP JUMPDEST JUMPDEST DUP2 DUP2 LT ISZERO PUSH3 0xA1C JUMPI PUSH3 0xA10 PUSH0 DUP3 PUSH3 0x9DE JUMP JUMPDEST PUSH1 0x1 DUP2 ADD SWAP1 POP PUSH3 0x9FB JUMP JUMPDEST POP POP JUMP JUMPDEST PUSH1 0x1F DUP3 GT ISZERO PUSH3 0xA6B JUMPI PUSH3 0xA35 DUP2 PUSH3 0x8F4 JUMP JUMPDEST PUSH3 0xA40 DUP5 PUSH3 0x906 JUMP JUMPDEST DUP2 ADD PUSH1 0x20 DUP6 LT ISZERO PUSH3 0xA50 JUMPI DUP2 SWAP1 POP JUMPDEST PUSH3 0xA68 PUSH3 0xA5F DUP6 PUSH3 0x906 JUMP JUMPDEST DUP4 ADD DUP3 PUSH3 0x9FA JUMP JUMPDEST POP POP JUMPDEST POP POP POP JUMP JUMPDEST PUSH0 DUP3 DUP3 SHR SWAP1 POP SWAP3 SWAP2 POP POP JUMP JUMPDEST PUSH0 PUSH3 0xA8D PUSH0 NOT DUP5 PUSH1 0x8 MUL PUSH3 0xA70 JUMP JUMPDEST NOT DUP1 DUP4 AND SWAP2 POP POP SWAP3 SWAP2 POP POP JUMP JUMPDEST PUSH0 PUSH3 0xAA7 DUP4 DUP4 PUSH3 0xA7C JUMP JUMPDEST SWAP2 POP DUP3 PUSH1 0x2 MUL DUP3 OR SWAP1 POP SWAP3 SWAP2 POP POP JUMP JUMPDEST PUSH3 0xAC2 DUP3 PUSH3 0x889 JUMP JUMPDEST PUSH8 0xFFFFFFFFFFFFFFFF DUP2 GT ISZERO PUSH3 0xADE JUMPI PUSH3 0xADD PUSH3 0x66B JUMP JUMPDEST JUMPDEST PUSH3 0xAEA DUP3 SLOAD PUSH3 0x8C0 JUMP JUMPDEST PUSH3 0xAF7 DUP3 DUP3 DUP6 PUSH3 0xA20 JUMP JUMPDEST PUSH0 PUSH1 0x20 SWAP1 POP PUSH1 0x1F DUP4 GT PUSH1 0x1 DUP2 EQ PUSH3 0xB2D JUMPI PUSH0 DUP5 ISZERO PUSH3 0xB18 JUMPI DUP3 DUP8 ADD MLOAD SWAP1 POP JUMPDEST PUSH3 0xB24 DUP6 DUP3 PUSH3 0xA9A JUMP JUMPDEST DUP7 SSTORE POP PUSH3 0xB93 JUMP JUMPDEST PUSH1 0x1F NOT DUP5 AND PUSH3 0xB3D DUP7 PUSH3 0x8F4 JUMP JUMPDEST PUSH0 JUMPDEST DUP3 DUP2 LT ISZERO PUSH3 0xB66 JUMPI DUP5 DUP10 ADD MLOAD DUP3 SSTORE PUSH1 0x1 DUP3 ADD SWAP2 POP PUSH1 0x20 DUP6 ADD SWAP5 POP PUSH1 0x20 DUP2 ADD SWAP1 POP PUSH3 0xB3F JUMP JUMPDEST DUP7 DUP4 LT ISZERO PUSH3 0xB86 JUMPI DUP5 DUP10 ADD MLOAD PUSH3 0xB82 PUSH1 0x1F DUP10 AND DUP3 PUSH3 0xA7C JUMP JUMPDEST DUP4 SSTORE POP JUMPDEST PUSH1 0x1 PUSH1 0x2 DUP9 MUL ADD DUP9 SSTORE POP POP POP JUMPDEST POP POP POP POP POP POP JUMP JUMPDEST PUSH0 DUP2 SWAP1 POP SWAP3 SWAP2 POP POP JUMP JUMPDEST PUSH0 DUP2 SLOAD PUSH3 0xBB3 DUP2 PUSH3 0x8C0 JUMP JUMPDEST PUSH3 0xBBF DUP2 DUP7 PUSH3 0xB9B JUMP JUMPDEST SWAP5 POP PUSH1 0x1 DUP3 AND PUSH0 DUP2 EQ PUSH3 0xBDC JUMPI PUSH1 0x1 DUP2 EQ PUSH3 0xBF2 JUMPI PUSH3 0xC28 JUMP JUMPDEST PUSH1 0xFF NOT DUP4 AND DUP7 MSTORE DUP2 ISZERO ISZERO DUP3 MUL DUP7 ADD SWAP4 POP PUSH3 0xC28 JUMP JUMPDEST PUSH3 0xBFD DUP6 PUSH3 0x8F4 JUMP JUMPDEST PUSH0 JUMPDEST DUP4 DUP2 LT ISZERO PUSH3 0xC20 JUMPI DUP2 SLOAD DUP2 DUP10 ADD MSTORE PUSH1 0x1 DUP3 ADD SWAP2 POP PUSH1 0x20 DUP2 ADD SWAP1 POP PUSH3 0xBFF JUMP JUMPDEST DUP4 DUP9 ADD SWAP6 POP POP POP JUMPDEST POP POP POP SWAP3 SWAP2 POP POP JUMP JUMPDEST PUSH0 PUSH3 0xC3E DUP3 DUP5 PUSH3 0xBA5 JUMP JUMPDEST SWAP2 POP DUP2 SWAP1 POP SWAP3 SWAP2 POP POP JUMP JUMPDEST PUSH32 0x4E487B7100000000000000000000000000000000000000000000000000000000 PUSH0 MSTORE PUSH1 0x11 PUSH1 0x4 MSTORE PUSH1 0x24 PUSH0 REVERT JUMPDEST PUSH0 PUSH3 0xC82 DUP3 PUSH3 0x61B JUMP JUMPDEST SWAP2 POP PUSH3 0xC8F DUP4 PUSH3 0x61B JUMP JUMPDEST SWAP3 POP DUP3 DUP3 ADD SWAP1 POP DUP1 DUP3 GT ISZERO PUSH3 0xCAA JUMPI PUSH3 0xCA9 PUSH3 0xC49 JUMP JUMPDEST JUMPDEST SWAP3 SWAP2 POP POP JUMP JUMPDEST PUSH0 DUP3 DUP3 MSTORE PUSH1 0x20 DUP3 ADD SWAP1 POP SWAP3 SWAP2 POP POP JUMP JUMPDEST PUSH32 0x4E6F7420656E6F75676820746F6B656E7320617661696C61626C652E00000000 PUSH0 DUP3 ADD MSTORE POP JUMP JUMPDEST PUSH0 PUSH3 0xCF6 PUSH1 0x1C DUP4 PUSH3 0xCB0 JUMP JUMPDEST SWAP2 POP PUSH3 0xD03 DUP3 PUSH3 0xCC0 JUMP JUMPDEST PUSH1 0x20 DUP3 ADD SWAP1 POP SWAP2 SWAP1 POP JUMP JUMPDEST PUSH0 PUSH1 0x20 DUP3 ADD SWAP1 POP DUP2 DUP2 SUB PUSH0 DUP4 ADD MSTORE PUSH3 0xD27 DUP2 PUSH3 0xCE8 JUMP JUMPDEST SWAP1 POP SWAP2 SWAP1 POP JUMP JUMPDEST PUSH0 DUP2 SWAP1 POP SWAP2 SWAP1 POP JUMP JUMPDEST PUSH0 DUP2 SWAP1 POP SWAP2 SWAP1 POP JUMP JUMPDEST PUSH3 0xD55 PUSH3 0xD4F DUP3 PUSH3 0xD2E JUMP JUMPDEST PUSH3 0xD37 JUMP JUMPDEST DUP3 MSTORE POP POP JUMP JUMPDEST PUSH0 PUSH3 0xD68 DUP3 DUP5 PUSH3 0xD40 JUMP JUMPDEST PUSH1 0x20 DUP3 ADD SWAP2 POP DUP2 SWAP1 POP SWAP3 SWAP2 POP POP JUMP JUMPDEST PUSH0 PUSH3 0xD83 DUP3 PUSH3 0x889 JUMP JUMPDEST PUSH3 0xD8F DUP2 DUP6 PUSH3 0xB9B JUMP JUMPDEST SWAP4 POP PUSH3 0xDA1 DUP2 DUP6 PUSH1 0x20 DUP7 ADD PUSH3 0x721 JUMP JUMPDEST DUP1 DUP5 ADD SWAP2 POP POP SWAP3 SWAP2 POP POP JUMP JUMPDEST PUSH0 PUSH3 0xDBA DUP3 DUP8 PUSH3 0xD77 JUMP JUMPDEST SWAP2 POP PUSH3 0xDC8 DUP3 DUP7 PUSH3 0xD77 JUMP JUMPDEST SWAP2 POP PUSH3 0xDD6 DUP3 DUP6 PUSH3 0xD77 JUMP JUMPDEST SWAP2 POP PUSH3 0xDE4 DUP3 DUP5 PUSH3 0xD77 JUMP JUMPDEST SWAP2 POP DUP2 SWAP1 POP SWAP6 SWAP5 POP POP POP POP POP JUMP JUMPDEST PUSH32 0x4E487B7100000000000000000000000000000000000000000000000000000000 PUSH0 MSTORE PUSH1 0x12 PUSH1 0x4 MSTORE PUSH1 0x24 PUSH0 REVERT JUMPDEST PUSH0 PUSH3 0xE2B DUP3 PUSH3 0x61B JUMP JUMPDEST SWAP2 POP PUSH3 0xE38 DUP4 PUSH3 0x61B JUMP JUMPDEST SWAP3 POP DUP3 PUSH3 0xE4B JUMPI PUSH3 0xE4A PUSH3 0xDF2 JUMP JUMPDEST JUMPDEST DUP3 DUP3 DIV SWAP1 POP SWAP3 SWAP2 POP POP JUMP JUMPDEST PUSH0 PUSH3 0xE62 DUP3 PUSH3 0x61B JUMP JUMPDEST SWAP2 POP PUSH3 0xE6F DUP4 PUSH3 0x61B JUMP JUMPDEST SWAP3 POP DUP3 DUP3 SUB SWAP1 POP DUP2 DUP2 GT ISZERO PUSH3 0xE8A JUMPI PUSH3 0xE89 PUSH3 0xC49 JUMP JUMPDEST JUMPDEST SWAP3 SWAP2 POP POP JUMP JUMPDEST PUSH2 0xFC3 DUP1 PUSH3 0xE9E PUSH0 CODECOPY PUSH0 RETURN INVALID PUSH1 0x80 PUSH1 0x40 MSTORE CALLVALUE DUP1 ISZERO PUSH2 0xF JUMPI PUSH0 DUP1 REVERT JUMPDEST POP PUSH1 0x4 CALLDATASIZE LT PUSH2 0xCD JUMPI PUSH0 CALLDATALOAD PUSH1 0xE0 SHR DUP1 PUSH4 0x4FC8A991 GT PUSH2 0x8A JUMPI DUP1 PUSH4 0x95D89B41 GT PUSH2 0x64 JUMPI DUP1 PUSH4 0x95D89B41 EQ PUSH2 0x1F1 JUMPI DUP1 PUSH4 0xE8315742 EQ PUSH2 0x20F JUMPI DUP1 PUSH4 0xF22A195E EQ PUSH2 0x22D JUMPI DUP1 PUSH4 0xF82900B1 EQ PUSH2 0x24B JUMPI PUSH2 0xCD JUMP JUMPDEST DUP1 PUSH4 0x4FC8A991 EQ PUSH2 0x185 JUMPI DUP1 PUSH4 0x57E871E7 EQ PUSH2 0x1B5 JUMPI DUP1 PUSH4 0x6A49F979 EQ PUSH2 0x1D3 JUMPI PUSH2 0xCD JUMP JUMPDEST DUP1 PUSH4 0x572B0CC EQ PUSH2 0xD1 JUMPI DUP1 PUSH4 0x6FDDE03 EQ PUSH2 0xEF JUMPI DUP1 PUSH4 0x18160DDD EQ PUSH2 0x10D JUMPI DUP1 PUSH4 0x3BA0B9A9 EQ PUSH2 0x12B JUMPI DUP1 PUSH4 0x3E50DE30 EQ PUSH2 0x149 JUMPI DUP1 PUSH4 0x4E04067A EQ PUSH2 0x167 JUMPI JUMPDEST PUSH0 DUP1 REVERT JUMPDEST PUSH2 0xD9 PUSH2 0x269 JUMP JUMPDEST PUSH1 0x40 MLOAD PUSH2 0xE6 SWAP2 SWAP1 PUSH2 0x934 JUMP JUMPDEST PUSH1 0x40 MLOAD DUP1 SWAP2 SUB SWAP1 RETURN JUMPDEST PUSH2 0xF7 PUSH2 0x272 JUMP JUMPDEST PUSH1 0x40 MLOAD PUSH2 0x104 SWAP2 SWAP1 PUSH2 0x9D7 JUMP JUMPDEST PUSH1 0x40 MLOAD DUP1 SWAP2 SUB SWAP1 RETURN JUMPDEST PUSH2 0x115 PUSH2 0x2FE JUMP JUMPDEST PUSH1 0x40 MLOAD PUSH2 0x122 SWAP2 SWAP1 PUSH2 0x934 JUMP JUMPDEST PUSH1 0x40 MLOAD DUP1 SWAP2 SUB SWAP1 RETURN JUMPDEST PUSH2 0x133 PUSH2 0x304 JUMP JUMPDEST PUSH1 0x40 MLOAD PUSH2 0x140 SWAP2 SWAP1 PUSH2 0xA12 JUMP JUMPDEST PUSH1 0x40 MLOAD DUP1 SWAP2 SUB SWAP1 RETURN JUMPDEST PUSH2 0x151 PUSH2 0x316 JUMP JUMPDEST PUSH1 0x40 MLOAD PUSH2 0x15E SWAP2 SWAP1 PUSH2 0x934 JUMP JUMPDEST PUSH1 0x40 MLOAD DUP1 SWAP2 SUB SWAP1 RETURN JUMPDEST PUSH2 0x16F PUSH2 0x31C JUMP JUMPDEST PUSH1 0x40 MLOAD PUSH2 0x17C SWAP2 SWAP1 PUSH2 0x9D7 JUMP JUMPDEST PUSH1 0x40 MLOAD DUP1 SWAP2 SUB SWAP1 RETURN JUMPDEST PUSH2 0x19F PUSH1 0x4 DUP1 CALLDATASIZE SUB DUP2 ADD SWAP1 PUSH2 0x19A SWAP2 SWAP1 PUSH2 0xBC2 JUMP JUMPDEST PUSH2 0x476 JUMP JUMPDEST PUSH1 0x40 MLOAD PUSH2 0x1AC SWAP2 SWAP1 PUSH2 0xC36 JUMP JUMPDEST PUSH1 0x40 MLOAD DUP1 SWAP2 SUB SWAP1 RETURN JUMPDEST PUSH2 0x1BD PUSH2 0x5D2 JUMP JUMPDEST PUSH1 0x40 MLOAD PUSH2 0x1CA SWAP2 SWAP1 PUSH2 0x934 JUMP JUMPDEST PUSH1 0x40 MLOAD DUP1 SWAP2 SUB SWAP1 RETURN JUMPDEST PUSH2 0x1DB PUSH2 0x5D8 JUMP JUMPDEST PUSH1 0x40 MLOAD PUSH2 0x1E8 SWAP2 SWAP1 PUSH2 0x9D7 JUMP JUMPDEST PUSH1 0x40 MLOAD DUP1 SWAP2 SUB SWAP1 RETURN JUMPDEST PUSH2 0x1F9 PUSH2 0x664 JUMP JUMPDEST PUSH1 0x40 MLOAD PUSH2 0x206 SWAP2 SWAP1 PUSH2 0x9D7 JUMP JUMPDEST PUSH1 0x40 MLOAD DUP1 SWAP2 SUB SWAP1 RETURN JUMPDEST PUSH2 0x217 PUSH2 0x6F0 JUMP JUMPDEST PUSH1 0x40 MLOAD PUSH2 0x224 SWAP2 SWAP1 PUSH2 0x934 JUMP JUMPDEST PUSH1 0x40 MLOAD DUP1 SWAP2 SUB SWAP1 RETURN JUMPDEST PUSH2 0x235 PUSH2 0x6F5 JUMP JUMPDEST PUSH1 0x40 MLOAD PUSH2 0x242 SWAP2 SWAP1 PUSH2 0xC67 JUMP JUMPDEST PUSH1 0x40 MLOAD DUP1 SWAP2 SUB SWAP1 RETURN JUMPDEST PUSH2 0x253 PUSH2 0x6FB JUMP JUMPDEST PUSH1 0x40 MLOAD PUSH2 0x260 SWAP2 SWAP1 PUSH2 0x934 JUMP JUMPDEST PUSH1 0x40 MLOAD DUP1 SWAP2 SUB SWAP1 RETURN JUMPDEST PUSH0 PUSH1 0x9 SLOAD SWAP1 POP SWAP1 JUMP JUMPDEST PUSH1 0x3 DUP1 SLOAD PUSH2 0x27F SWAP1 PUSH2 0xCAD JUMP JUMPDEST DUP1 PUSH1 0x1F ADD PUSH1 0x20 DUP1 SWAP2 DIV MUL PUSH1 0x20 ADD PUSH1 0x40 MLOAD SWAP1 DUP2 ADD PUSH1 0x40 MSTORE DUP1 SWAP3 SWAP2 SWAP1 DUP2 DUP2 MSTORE PUSH1 0x20 ADD DUP3 DUP1 SLOAD PUSH2 0x2AB SWAP1 PUSH2 0xCAD JUMP JUMPDEST DUP1 ISZERO PUSH2 0x2F6 JUMPI DUP1 PUSH1 0x1F LT PUSH2 0x2CD JUMPI PUSH2 0x100 DUP1 DUP4 SLOAD DIV MUL DUP4 MSTORE SWAP2 PUSH1 0x20 ADD SWAP2 PUSH2 0x2F6 JUMP JUMPDEST DUP3 ADD SWAP2 SWAP1 PUSH0 MSTORE PUSH1 0x20 PUSH0 KECCAK256 SWAP1 JUMPDEST DUP2 SLOAD DUP2 MSTORE SWAP1 PUSH1 0x1 ADD SWAP1 PUSH1 0x20 ADD DUP1 DUP4 GT PUSH2 0x2D9 JUMPI DUP3 SWAP1 SUB PUSH1 0x1F AND DUP3 ADD SWAP2 JUMPDEST POP POP POP POP POP DUP2 JUMP JUMPDEST PUSH1 0x1 SLOAD DUP2 JUMP JUMPDEST PUSH1 0x4 PUSH0 SWAP1 SLOAD SWAP1 PUSH2 0x100 EXP SWAP1 DIV PUSH1 0xFF AND DUP2 JUMP JUMPDEST PUSH1 0xA SLOAD DUP2 JUMP JUMPDEST PUSH1 0x60 PUSH0 PUSH1 0xA SLOAD PUSH1 0x1 SLOAD PUSH2 0x32F SWAP2 SWAP1 PUSH2 0xD0A JUMP JUMPDEST SWAP1 POP DUP1 PUSH0 SLOAD LT ISZERO PUSH2 0x375 JUMPI PUSH1 0x40 MLOAD PUSH32 0x8C379A000000000000000000000000000000000000000000000000000000000 DUP2 MSTORE PUSH1 0x4 ADD PUSH2 0x36C SWAP1 PUSH2 0xD87 JUMP JUMPDEST PUSH1 0x40 MLOAD DUP1 SWAP2 SUB SWAP1 REVERT JUMPDEST PUSH0 PUSH2 0x380 PUSH0 SLOAD PUSH2 0x701 JUMP JUMPDEST SWAP1 POP PUSH0 PUSH2 0x38E PUSH1 0x1 SLOAD PUSH2 0x701 JUMP JUMPDEST SWAP1 POP PUSH0 PUSH1 0x3 DUP1 SLOAD PUSH2 0x39E SWAP1 PUSH2 0xCAD JUMP JUMPDEST DUP1 PUSH1 0x1F ADD PUSH1 0x20 DUP1 SWAP2 DIV MUL PUSH1 0x20 ADD PUSH1 0x40 MLOAD SWAP1 DUP2 ADD PUSH1 0x40 MSTORE DUP1 SWAP3 SWAP2 SWAP1 DUP2 DUP2 MSTORE PUSH1 0x20 ADD DUP3 DUP1 SLOAD PUSH2 0x3CA SWAP1 PUSH2 0xCAD JUMP JUMPDEST DUP1 ISZERO PUSH2 0x415 JUMPI DUP1 PUSH1 0x1F LT PUSH2 0x3EC JUMPI PUSH2 0x100 DUP1 DUP4 SLOAD DIV MUL DUP4 MSTORE SWAP2 PUSH1 0x20 ADD SWAP2 PUSH2 0x415 JUMP JUMPDEST DUP3 ADD SWAP2 SWAP1 PUSH0 MSTORE PUSH1 0x20 PUSH0 KECCAK256 SWAP1 JUMPDEST DUP2 SLOAD DUP2 MSTORE SWAP1 PUSH1 0x1 ADD SWAP1 PUSH1 0x20 ADD DUP1 DUP4 GT PUSH2 0x3F8 JUMPI DUP3 SWAP1 SUB PUSH1 0x1F AND DUP3 ADD SWAP2 JUMPDEST POP POP POP POP POP SWAP1 POP PUSH0 PUSH1 0x6 SLOAD PUSH1 0x40 MLOAD PUSH1 0x20 ADD PUSH2 0x430 SWAP2 SWAP1 PUSH2 0xDC5 JUMP JUMPDEST PUSH1 0x40 MLOAD PUSH1 0x20 DUP2 DUP4 SUB SUB DUP2 MSTORE SWAP1 PUSH1 0x40 MSTORE SWAP1 POP PUSH0 DUP3 DUP6 DUP6 DUP5 PUSH1 0x40 MLOAD PUSH1 0x20 ADD PUSH2 0x459 SWAP5 SWAP4 SWAP3 SWAP2 SWAP1 PUSH2 0xE19 JUMP JUMPDEST PUSH1 0x40 MLOAD PUSH1 0x20 DUP2 DUP4 SUB SUB DUP2 MSTORE SWAP1 PUSH1 0x40 MSTORE SWAP1 POP DUP1 SWAP7 POP POP POP POP POP POP POP SWAP1 JUMP JUMPDEST PUSH0 DUP1 PUSH1 0x7 DUP4 PUSH1 0x40 MLOAD PUSH1 0x20 ADD PUSH2 0x48C SWAP3 SWAP2 SWAP1 PUSH2 0xEE8 JUMP JUMPDEST PUSH1 0x40 MLOAD PUSH1 0x20 DUP2 DUP4 SUB SUB DUP2 MSTORE SWAP1 PUSH1 0x40 MSTORE SWAP1 POP PUSH0 DUP2 PUSH1 0x40 MLOAD PUSH1 0x20 ADD PUSH2 0x4AF SWAP2 SWAP1 PUSH2 0x9D7 JUMP JUMPDEST PUSH1 0x40 MLOAD PUSH1 0x20 DUP2 DUP4 SUB SUB DUP2 MSTORE SWAP1 PUSH1 0x40 MSTORE DUP1 MLOAD SWAP1 PUSH1 0x20 ADD KECCAK256 SWAP1 POP PUSH0 JUMPDEST PUSH1 0xB PUSH0 SWAP1 SLOAD SWAP1 PUSH2 0x100 EXP SWAP1 DIV PUSH1 0xFF AND PUSH1 0xFF AND DUP2 PUSH1 0xFF AND GT PUSH2 0x5C5 JUMPI PUSH0 DUP3 DUP3 PUSH1 0xFF AND PUSH1 0x20 DUP2 LT PUSH2 0x4FB JUMPI PUSH2 0x4FA PUSH2 0xF0B JUMP JUMPDEST JUMPDEST BYTE PUSH1 0xF8 SHL SWAP1 POP PUSH1 0xB PUSH1 0x1 SWAP1 SLOAD SWAP1 PUSH2 0x100 EXP SWAP1 DIV PUSH1 0xF8 SHL PUSH31 0xFFFFFFFFFFFFFFFFFFFFFFFFFFFFFFFFFFFFFFFFFFFFFFFFFFFFFFFFFFFFFF NOT AND DUP2 PUSH31 0xFFFFFFFFFFFFFFFFFFFFFFFFFFFFFFFFFFFFFFFFFFFFFFFFFFFFFFFFFFFFFF NOT AND SUB PUSH2 0x5B1 JUMPI PUSH1 0x9 SLOAD PUSH1 0x5 SLOAD DUP9 PUSH20 0xFFFFFFFFFFFFFFFFFFFFFFFFFFFFFFFFFFFFFFFF AND PUSH32 0x5A9EC13C12CA9563A7B3108125F74C57ED388BB313394EA50F7E4A71B01497C2 PUSH1 0x40 MLOAD PUSH1 0x40 MLOAD DUP1 SWAP2 SUB SWAP1 LOG4 PUSH1 0x1 SWAP5 POP POP POP POP POP PUSH2 0x5CC JUMP JUMPDEST POP DUP1 DUP1 PUSH2 0x5BD SWAP1 PUSH2 0xF38 JUMP JUMPDEST SWAP2 POP POP PUSH2 0x4C9 JUMP JUMPDEST POP PUSH0 SWAP3 POP POP POP JUMPDEST SWAP3 SWAP2 POP POP JUMP JUMPDEST PUSH1 0x5 SLOAD DUP2 JUMP JUMPDEST PUSH1 0x7 DUP1 SLOAD PUSH2 0x5E5 SWAP1 PUSH2 0xCAD JUMP JUMPDEST DUP1 PUSH1 0x1F ADD PUSH1 0x20 DUP1 SWAP2 DIV MUL PUSH1 0x20 ADD PUSH1 0x40 MLOAD SWAP1 DUP2 ADD PUSH1 0x40 MSTORE DUP1 SWAP3 SWAP2 SWAP1 DUP2 DUP2 MSTORE PUSH1 0x20 ADD DUP3 DUP1 SLOAD PUSH2 0x611 SWAP1 PUSH2 0xCAD JUMP JUMPDEST DUP1 ISZERO PUSH2 0x65C JUMPI DUP1 PUSH1 0x1F LT PUSH2 0x633 JUMPI PUSH2 0x100 DUP1 DUP4 SLOAD DIV MUL DUP4 MSTORE SWAP2 PUSH1 0x20 ADD SWAP2 PUSH2 0x65C JUMP JUMPDEST DUP3 ADD SWAP2 SWAP1 PUSH0 MSTORE PUSH1 0x20 PUSH0 KECCAK256 SWAP1 JUMPDEST DUP2 SLOAD DUP2 MSTORE SWAP1 PUSH1 0x1 ADD SWAP1 PUSH1 0x20 ADD DUP1 DUP4 GT PUSH2 0x63F JUMPI DUP3 SWAP1 SUB PUSH1 0x1F AND DUP3 ADD SWAP2 JUMPDEST POP POP POP POP POP DUP2 JUMP JUMPDEST PUSH1 0x2 DUP1 SLOAD PUSH2 0x671 SWAP1 PUSH2 0xCAD JUMP JUMPDEST DUP1 PUSH1 0x1F ADD PUSH1 0x20 DUP1 SWAP2 DIV MUL PUSH1 0x20 ADD PUSH1 0x40 MLOAD SWAP1 DUP2 ADD PUSH1 0x40 MSTORE DUP1 SWAP3 SWAP2 SWAP1 DUP2 DUP2 MSTORE PUSH1 0x20 ADD DUP3 DUP1 SLOAD PUSH2 0x69D SWAP1 PUSH2 0xCAD JUMP JUMPDEST DUP1 ISZERO PUSH2 0x6E8 JUMPI DUP1 PUSH1 0x1F LT PUSH2 0x6BF JUMPI PUSH2 0x100 DUP1 DUP4 SLOAD DIV MUL DUP4 MSTORE SWAP2 PUSH1 0x20 ADD SWAP2 PUSH2 0x6E8 JUMP JUMPDEST DUP3 ADD SWAP2 SWAP1 PUSH0 MSTORE PUSH1 0x20 PUSH0 KECCAK256 SWAP1 JUMPDEST DUP2 SLOAD DUP2 MSTORE SWAP1 PUSH1 0x1 ADD SWAP1 PUSH1 0x20 ADD DUP1 DUP4 GT PUSH2 0x6CB JUMPI DUP3 SWAP1 SUB PUSH1 0x1F AND DUP3 ADD SWAP2 JUMPDEST POP POP POP POP POP DUP2 JUMP JUMPDEST PUSH0 SLOAD DUP2 JUMP JUMPDEST PUSH1 0x6 SLOAD DUP2 JUMP JUMPDEST PUSH1 0x9 SLOAD DUP2 JUMP JUMPDEST PUSH1 0x60 PUSH0 PUSH1 0x1 PUSH2 0x70F DUP5 PUSH2 0x7CB JUMP JUMPDEST ADD SWAP1 POP PUSH0 DUP2 PUSH8 0xFFFFFFFFFFFFFFFF DUP2 GT ISZERO PUSH2 0x72D JUMPI PUSH2 0x72C PUSH2 0xA9E JUMP JUMPDEST JUMPDEST PUSH1 0x40 MLOAD SWAP1 DUP1 DUP3 MSTORE DUP1 PUSH1 0x1F ADD PUSH1 0x1F NOT AND PUSH1 0x20 ADD DUP3 ADD PUSH1 0x40 MSTORE DUP1 ISZERO PUSH2 0x75F JUMPI DUP2 PUSH1 0x20 ADD PUSH1 0x1 DUP3 MUL DUP1 CALLDATASIZE DUP4 CALLDATACOPY DUP1 DUP3 ADD SWAP2 POP POP SWAP1 POP JUMPDEST POP SWAP1 POP PUSH0 DUP3 PUSH1 0x20 ADD DUP3 ADD SWAP1 POP JUMPDEST PUSH1 0x1 ISZERO PUSH2 0x7C0 JUMPI DUP1 DUP1 PUSH1 0x1 SWAP1 SUB SWAP2 POP POP PUSH32 0x3031323334353637383961626364656600000000000000000000000000000000 PUSH1 0xA DUP7 MOD BYTE DUP2 MSTORE8 PUSH1 0xA DUP6 DUP2 PUSH2 0x7B5 JUMPI PUSH2 0x7B4 PUSH2 0xF60 JUMP JUMPDEST JUMPDEST DIV SWAP5 POP PUSH0 DUP6 SUB PUSH2 0x76C JUMPI JUMPDEST DUP2 SWAP4 POP POP POP POP SWAP2 SWAP1 POP JUMP JUMPDEST PUSH0 DUP1 PUSH0 SWAP1 POP PUSH27 0x184F03E93FF9F4DAA797ED6E38ED64BF6A1F010000000000000000 DUP4 LT PUSH2 0x827 JUMPI PUSH27 0x184F03E93FF9F4DAA797ED6E38ED64BF6A1F010000000000000000 DUP4 DUP2 PUSH2 0x81D JUMPI PUSH2 0x81C PUSH2 0xF60 JUMP JUMPDEST JUMPDEST DIV SWAP3 POP PUSH1 0x40 DUP2 ADD SWAP1 POP JUMPDEST PUSH14 0x4EE2D6D415B85ACEF8100000000 DUP4 LT PUSH2 0x864 JUMPI PUSH14 0x4EE2D6D415B85ACEF8100000000 DUP4 DUP2 PUSH2 0x85A JUMPI PUSH2 0x859 PUSH2 0xF60 JUMP JUMPDEST JUMPDEST DIV SWAP3 POP PUSH1 0x20 DUP2 ADD SWAP1 POP JUMPDEST PUSH7 0x2386F26FC10000 DUP4 LT PUSH2 0x893 JUMPI PUSH7 0x2386F26FC10000 DUP4 DUP2 PUSH2 0x889 JUMPI PUSH2 0x888 PUSH2 0xF60 JUMP JUMPDEST JUMPDEST DIV SWAP3 POP PUSH1 0x10 DUP2 ADD SWAP1 POP JUMPDEST PUSH4 0x5F5E100 DUP4 LT PUSH2 0x8BC JUMPI PUSH4 0x5F5E100 DUP4 DUP2 PUSH2 0x8B2 JUMPI PUSH2 0x8B1 PUSH2 0xF60 JUMP JUMPDEST JUMPDEST DIV SWAP3 POP PUSH1 0x8 DUP2 ADD SWAP1 POP JUMPDEST PUSH2 0x2710 DUP4 LT PUSH2 0x8E1 JUMPI PUSH2 0x2710 DUP4 DUP2 PUSH2 0x8D7 JUMPI PUSH2 0x8D6 PUSH2 0xF60 JUMP JUMPDEST JUMPDEST DIV SWAP3 POP PUSH1 0x4 DUP2 ADD SWAP1 POP JUMPDEST PUSH1 0x64 DUP4 LT PUSH2 0x904 JUMPI PUSH1 0x64 DUP4 DUP2 PUSH2 0x8FA JUMPI PUSH2 0x8F9 PUSH2 0xF60 JUMP JUMPDEST JUMPDEST DIV SWAP3 POP PUSH1 0x2 DUP2 ADD SWAP1 POP JUMPDEST PUSH1 0xA DUP4 LT PUSH2 0x913 JUMPI PUSH1 0x1 DUP2 ADD SWAP1 POP JUMPDEST DUP1 SWAP2 POP POP SWAP2 SWAP1 POP JUMP JUMPDEST PUSH0 DUP2 SWAP1 POP SWAP2 SWAP1 POP JUMP JUMPDEST PUSH2 0x92E DUP2 PUSH2 0x91C JUMP JUMPDEST DUP3 MSTORE POP POP JUMP JUMPDEST PUSH0 PUSH1 0x20 DUP3 ADD SWAP1 POP PUSH2 0x947 PUSH0 DUP4 ADD DUP5 PUSH2 0x925 JUMP JUMPDEST SWAP3 SWAP2 POP POP JUMP JUMPDEST PUSH0 DUP2 MLOAD SWAP1 POP SWAP2 SWAP1 POP JUMP JUMPDEST PUSH0 DUP3 DUP3 MSTORE PUSH1 0x20 DUP3 ADD SWAP1 POP SWAP3 SWAP2 POP POP JUMP JUMPDEST PUSH0 JUMPDEST DUP4 DUP2 LT ISZERO PUSH2 0x984 JUMPI DUP1 DUP3 ADD MLOAD DUP2 DUP5 ADD MSTORE PUSH1 0x20 DUP2 ADD SWAP1 POP PUSH2 0x969 JUMP JUMPDEST PUSH0 DUP5 DUP5 ADD MSTORE POP POP POP POP JUMP JUMPDEST PUSH0 PUSH1 0x1F NOT PUSH1 0x1F DUP4 ADD AND SWAP1 POP SWAP2 SWAP1 POP JUMP JUMPDEST PUSH0 PUSH2 0x9A9 DUP3 PUSH2 0x94D JUMP JUMPDEST PUSH2 0x9B3 DUP2 DUP6 PUSH2 0x957 JUMP JUMPDEST SWAP4 POP PUSH2 0x9C3 DUP2 DUP6 PUSH1 0x20 DUP7 ADD PUSH2 0x967 JUMP JUMPDEST PUSH2 0x9CC DUP2 PUSH2 0x98F JUMP JUMPDEST DUP5 ADD SWAP2 POP POP SWAP3 SWAP2 POP POP JUMP JUMPDEST PUSH0 PUSH1 0x20 DUP3 ADD SWAP1 POP DUP2 DUP2 SUB PUSH0 DUP4 ADD MSTORE PUSH2 0x9EF DUP2 DUP5 PUSH2 0x99F JUMP JUMPDEST SWAP1 POP SWAP3 SWAP2 POP POP JUMP JUMPDEST PUSH0 PUSH1 0xFF DUP3 AND SWAP1 POP SWAP2 SWAP1 POP JUMP JUMPDEST PUSH2 0xA0C DUP2 PUSH2 0x9F7 JUMP JUMPDEST DUP3 MSTORE POP POP JUMP JUMPDEST PUSH0 PUSH1 0x20 DUP3 ADD SWAP1 POP PUSH2 0xA25 PUSH0 DUP4 ADD DUP5 PUSH2 0xA03 JUMP JUMPDEST SWAP3 SWAP2 POP POP JUMP JUMPDEST PUSH0 PUSH1 0x40 MLOAD SWAP1 POP SWAP1 JUMP JUMPDEST PUSH0 DUP1 REVERT JUMPDEST PUSH0 DUP1 REVERT JUMPDEST PUSH0 PUSH20 0xFFFFFFFFFFFFFFFFFFFFFFFFFFFFFFFFFFFFFFFF DUP3 AND SWAP1 POP SWAP2 SWAP1 POP JUMP JUMPDEST PUSH0 PUSH2 0xA65 DUP3 PUSH2 0xA3C JUMP JUMPDEST SWAP1 POP SWAP2 SWAP1 POP JUMP JUMPDEST PUSH2 0xA75 DUP2 PUSH2 0xA5B JUMP JUMPDEST DUP2 EQ PUSH2 0xA7F JUMPI PUSH0 DUP1 REVERT JUMPDEST POP JUMP JUMPDEST PUSH0 DUP2 CALLDATALOAD SWAP1 POP PUSH2 0xA90 DUP2 PUSH2 0xA6C JUMP JUMPDEST SWAP3 SWAP2 POP POP JUMP JUMPDEST PUSH0 DUP1 REVERT JUMPDEST PUSH0 DUP1 REVERT JUMPDEST PUSH32 0x4E487B7100000000000000000000000000000000000000000000000000000000 PUSH0 MSTORE PUSH1 0x41 PUSH1 0x4 MSTORE PUSH1 0x24 PUSH0 REVERT JUMPDEST PUSH2 0xAD4 DUP3 PUSH2 0x98F JUMP JUMPDEST DUP2 ADD DUP2 DUP2 LT PUSH8 0xFFFFFFFFFFFFFFFF DUP3 GT OR ISZERO PUSH2 0xAF3 JUMPI PUSH2 0xAF2 PUSH2 0xA9E JUMP JUMPDEST JUMPDEST DUP1 PUSH1 0x40 MSTORE POP POP POP JUMP JUMPDEST PUSH0 PUSH2 0xB05 PUSH2 0xA2B JUMP JUMPDEST SWAP1 POP PUSH2 0xB11 DUP3 DUP3 PUSH2 0xACB JUMP JUMPDEST SWAP2 SWAP1 POP JUMP JUMPDEST PUSH0 PUSH8 0xFFFFFFFFFFFFFFFF DUP3 GT ISZERO PUSH2 0xB30 JUMPI PUSH2 0xB2F PUSH2 0xA9E JUMP JUMPDEST JUMPDEST PUSH2 0xB39 DUP3 PUSH2 0x98F JUMP JUMPDEST SWAP1 POP PUSH1 0x20 DUP2 ADD SWAP1 POP SWAP2 SWAP1 POP JUMP JUMPDEST DUP3 DUP2 DUP4 CALLDATACOPY PUSH0 DUP4 DUP4 ADD MSTORE POP POP POP JUMP JUMPDEST PUSH0 PUSH2 0xB66 PUSH2 0xB61 DUP5 PUSH2 0xB16 JUMP JUMPDEST PUSH2 0xAFC JUMP JUMPDEST SWAP1 POP DUP3 DUP2 MSTORE PUSH1 0x20 DUP2 ADD DUP5 DUP5 DUP5 ADD GT ISZERO PUSH2 0xB82 JUMPI PUSH2 0xB81 PUSH2 0xA9A JUMP JUMPDEST JUMPDEST PUSH2 0xB8D DUP5 DUP3 DUP6 PUSH2 0xB46 JUMP JUMPDEST POP SWAP4 SWAP3 POP POP POP JUMP JUMPDEST PUSH0 DUP3 PUSH1 0x1F DUP4 ADD SLT PUSH2 0xBA9 JUMPI PUSH2 0xBA8 PUSH2 0xA96 JUMP JUMPDEST JUMPDEST DUP2 CALLDATALOAD PUSH2 0xBB9 DUP5 DUP3 PUSH1 0x20 DUP7 ADD PUSH2 0xB54 JUMP JUMPDEST SWAP2 POP POP SWAP3 SWAP2 POP POP JUMP JUMPDEST PUSH0 DUP1 PUSH1 0x40 DUP4 DUP6 SUB SLT ISZERO PUSH2 0xBD8 JUMPI PUSH2 0xBD7 PUSH2 0xA34 JUMP JUMPDEST JUMPDEST PUSH0 PUSH2 0xBE5 DUP6 DUP3 DUP7 ADD PUSH2 0xA82 JUMP JUMPDEST SWAP3 POP POP PUSH1 0x20 DUP4 ADD CALLDATALOAD PUSH8 0xFFFFFFFFFFFFFFFF DUP2 GT ISZERO PUSH2 0xC06 JUMPI PUSH2 0xC05 PUSH2 0xA38 JUMP JUMPDEST JUMPDEST PUSH2 0xC12 DUP6 DUP3 DUP7 ADD PUSH2 0xB95 JUMP JUMPDEST SWAP2 POP POP SWAP3 POP SWAP3 SWAP1 POP JUMP JUMPDEST PUSH0 DUP2 ISZERO ISZERO SWAP1 POP SWAP2 SWAP1 POP JUMP JUMPDEST PUSH2 0xC30 DUP2 PUSH2 0xC1C JUMP JUMPDEST DUP3 MSTORE POP POP JUMP JUMPDEST PUSH0 PUSH1 0x20 DUP3 ADD SWAP1 POP PUSH2 0xC49 PUSH0 DUP4 ADD DUP5 PUSH2 0xC27 JUMP JUMPDEST SWAP3 SWAP2 POP POP JUMP JUMPDEST PUSH0 DUP2 SWAP1 POP SWAP2 SWAP1 POP JUMP JUMPDEST PUSH2 0xC61 DUP2 PUSH2 0xC4F JUMP JUMPDEST DUP3 MSTORE POP POP JUMP JUMPDEST PUSH0 PUSH1 0x20 DUP3 ADD SWAP1 POP PUSH2 0xC7A PUSH0 DUP4 ADD DUP5 PUSH2 0xC58 JUMP JUMPDEST SWAP3 SWAP2 POP POP JUMP JUMPDEST PUSH32 0x4E487B7100000000000000000000000000000000000000000000000000000000 PUSH0 MSTORE PUSH1 0x22 PUSH1 0x4 MSTORE PUSH1 0x24 PUSH0 REVERT JUMPDEST PUSH0 PUSH1 0x2 DUP3 DIV SWAP1 POP PUSH1 0x1 DUP3 AND DUP1 PUSH2 0xCC4 JUMPI PUSH1 0x7F DUP3 AND SWAP2 POP JUMPDEST PUSH1 0x20 DUP3 LT DUP2 SUB PUSH2 0xCD7 JUMPI PUSH2 0xCD6 PUSH2 0xC80 JUMP JUMPDEST JUMPDEST POP SWAP2 SWAP1 POP JUMP JUMPDEST PUSH32 0x4E487B7100000000000000000000000000000000000000000000000000000000 PUSH0 MSTORE PUSH1 0x11 PUSH1 0x4 MSTORE PUSH1 0x24 PUSH0 REVERT JUMPDEST PUSH0 PUSH2 0xD14 DUP3 PUSH2 0x91C JUMP JUMPDEST SWAP2 POP PUSH2 0xD1F DUP4 PUSH2 0x91C JUMP JUMPDEST SWAP3 POP DUP3 DUP3 ADD SWAP1 POP DUP1 DUP3 GT ISZERO PUSH2 0xD37 JUMPI PUSH2 0xD36 PUSH2 0xCDD JUMP JUMPDEST JUMPDEST SWAP3 SWAP2 POP POP JUMP JUMPDEST PUSH32 0x4E6F7420656E6F75676820746F6B656E7320617661696C61626C652E00000000 PUSH0 DUP3 ADD MSTORE POP JUMP JUMPDEST PUSH0 PUSH2 0xD71 PUSH1 0x1C DUP4 PUSH2 0x957 JUMP JUMPDEST SWAP2 POP PUSH2 0xD7C DUP3 PUSH2 0xD3D JUMP JUMPDEST PUSH1 0x20 DUP3 ADD SWAP1 POP SWAP2 SWAP1 POP JUMP JUMPDEST PUSH0 PUSH1 0x20 DUP3 ADD SWAP1 POP DUP2 DUP2 SUB PUSH0 DUP4 ADD MSTORE PUSH2 0xD9E DUP2 PUSH2 0xD65 JUMP JUMPDEST SWAP1 POP SWAP2 SWAP1 POP JUMP JUMPDEST PUSH0 DUP2 SWAP1 POP SWAP2 SWAP1 POP JUMP JUMPDEST PUSH2 0xDBF PUSH2 0xDBA DUP3 PUSH2 0xC4F JUMP JUMPDEST PUSH2 0xDA5 JUMP JUMPDEST DUP3 MSTORE POP POP JUMP JUMPDEST PUSH0 PUSH2 0xDD0 DUP3 DUP5 PUSH2 0xDAE JUMP JUMPDEST PUSH1 0x20 DUP3 ADD SWAP2 POP DUP2 SWAP1 POP SWAP3 SWAP2 POP POP JUMP JUMPDEST PUSH0 DUP2 SWAP1 POP SWAP3 SWAP2 POP POP JUMP JUMPDEST PUSH0 PUSH2 0xDF3 DUP3 PUSH2 0x94D JUMP JUMPDEST PUSH2 0xDFD DUP2 DUP6 PUSH2 0xDDF JUMP JUMPDEST SWAP4 POP PUSH2 0xE0D DUP2 DUP6 PUSH1 0x20 DUP7 ADD PUSH2 0x967 JUMP JUMPDEST DUP1 DUP5 ADD SWAP2 POP POP SWAP3 SWAP2 POP POP JUMP JUMPDEST PUSH0 PUSH2 0xE24 DUP3 DUP8 PUSH2 0xDE9 JUMP JUMPDEST SWAP2 POP PUSH2 0xE30 DUP3 DUP7 PUSH2 0xDE9 JUMP JUMPDEST SWAP2 POP PUSH2 0xE3C DUP3 DUP6 PUSH2 0xDE9 JUMP JUMPDEST SWAP2 POP PUSH2 0xE48 DUP3 DUP5 PUSH2 0xDE9 JUMP JUMPDEST SWAP2 POP DUP2 SWAP1 POP SWAP6 SWAP5 POP POP POP POP POP JUMP JUMPDEST PUSH0 DUP2 SWAP1 POP DUP2 PUSH0 MSTORE PUSH1 0x20 PUSH0 KECCAK256 SWAP1 POP SWAP2 SWAP1 POP JUMP JUMPDEST PUSH0 DUP2 SLOAD PUSH2 0xE74 DUP2 PUSH2 0xCAD JUMP JUMPDEST PUSH2 0xE7E DUP2 DUP7 PUSH2 0xDDF JUMP JUMPDEST SWAP5 POP PUSH1 0x1 DUP3 AND PUSH0 DUP2 EQ PUSH2 0xE98 JUMPI PUSH1 0x1 DUP2 EQ PUSH2 0xEAD JUMPI PUSH2 0xEDF JUMP JUMPDEST PUSH1 0xFF NOT DUP4 AND DUP7 MSTORE DUP2 ISZERO ISZERO DUP3 MUL DUP7 ADD SWAP4 POP PUSH2 0xEDF JUMP JUMPDEST PUSH2 0xEB6 DUP6 PUSH2 0xE56 JUMP JUMPDEST PUSH0 JUMPDEST DUP4 DUP2 LT ISZERO PUSH2 0xED7 JUMPI DUP2 SLOAD DUP2 DUP10 ADD MSTORE PUSH1 0x1 DUP3 ADD SWAP2 POP PUSH1 0x20 DUP2 ADD SWAP1 POP PUSH2 0xEB8 JUMP JUMPDEST DUP4 DUP9 ADD SWAP6 POP POP POP JUMPDEST POP POP POP SWAP3 SWAP2 POP POP JUMP JUMPDEST PUSH0 PUSH2 0xEF3 DUP3 DUP6 PUSH2 0xE68 JUMP JUMPDEST SWAP2 POP PUSH2 0xEFF DUP3 DUP5 PUSH2 0xDE9 JUMP JUMPDEST SWAP2 POP DUP2 SWAP1 POP SWAP4 SWAP3 POP POP POP JUMP JUMPDEST PUSH32 0x4E487B7100000000000000000000000000000000000000000000000000000000 PUSH0 MSTORE PUSH1 0x32 PUSH1 0x4 MSTORE PUSH1 0x24 PUSH0 REVERT JUMPDEST PUSH0 PUSH2 0xF42 DUP3 PUSH2 0x9F7 JUMP JUMPDEST SWAP2 POP PUSH1 0xFF DUP3 SUB PUSH2 0xF55 JUMPI PUSH2 0xF54 PUSH2 0xCDD JUMP JUMPDEST JUMPDEST PUSH1 0x1 DUP3 ADD SWAP1 POP SWAP2 SWAP1 POP JUMP JUMPDEST PUSH32 0x4E487B7100000000000000000000000000000000000000000000000000000000 PUSH0 MSTORE PUSH1 0x12 PUSH1 0x4 MSTORE PUSH1 0x24 PUSH0 REVERT INVALID LOG2 PUSH5 0x6970667358 0x22 SLT KECCAK256 DUP15 0xBB 0xE SDIV PUSH23 0xCAE6B3291D1F9FA26439F75763C4362B7285FC4112697D DUP14 DUP14 TSTORE 0xAB PUSH5 0x736F6C6343 STOP ADDMOD XOR STOP CALLER LOG2 PUSH5 0x6970667358 0x22 SLT KECCAK256 PUSH24 0x7A63EC66B65523014F99A37F05EC91E66B022A0552E04D48 0x4C 0x21 SWAP2 0xC7 0x2C SWAP7 0xBA PUSH5 0x736F6C6343 STOP ADDMOD XOR STOP CALLER "
		},
		"gasEstimates": {
			"creation": {
				"codeDepositCost": "4092000",
				"executionCost": "infinite",
				"totalCost": "infinite"
			},
			"external": {
				"DOMAIN_SEPARATOR()": "infinite",
				"allowance(address,address)": "infinite",
				"approve(address,uint256)": "infinite",
				"balanceOf(address)": "2918",
				"buyTokens()": "infinite",
				"buyTokensFor(address)": "infinite",
				"decimals()": "450",
				"eip712Domain()": "infinite",
				"maxTokens()": "2491",
				"mining()": "infinite",
				"mint(address,uint256)": "infinite",
				"name()": "infinite",
				"nonces(address)": "2894",
				"owner()": "2655",
				"pause()": "infinite",
				"paused()": "2563",
				"permit(address,address,uint256,uint256,uint8,bytes32,bytes32)": "infinite",
				"renounceOwnership()": "infinite",
				"symbol()": "infinite",
				"totalSupply()": "2500",
				"transfer(address,uint256)": "infinite",
				"transferFrom(address,address,uint256)": "infinite",
				"transferOwnership(address)": "infinite",
				"tryToGetBlock(string)": "infinite",
				"unpause()": "infinite",
				"withdrawTokensGetEther(address,uint256)": "infinite"
			},
			"internal": {
				"_update(address,address,uint256)": "infinite",
				"calculateExchangeRateInEther(uint256)": "infinite",
				"calculateExchangeRateInTokens(uint256)": "infinite",
				"mintTokens(address,uint256,uint256)": "infinite"
			}
		},
		"methodIdentifiers": {
			"DOMAIN_SEPARATOR()": "3644e515",
			"allowance(address,address)": "dd62ed3e",
			"approve(address,uint256)": "095ea7b3",
			"balanceOf(address)": "70a08231",
			"buyTokens()": "d0febe4c",
			"buyTokensFor(address)": "6be4cf1f",
			"decimals()": "313ce567",
			"eip712Domain()": "84b0196e",
			"maxTokens()": "e8315742",
			"mining()": "662fac39",
			"mint(address,uint256)": "40c10f19",
			"name()": "06fdde03",
			"nonces(address)": "7ecebe00",
			"owner()": "8da5cb5b",
			"pause()": "8456cb59",
			"paused()": "5c975abb",
			"permit(address,address,uint256,uint256,uint8,bytes32,bytes32)": "d505accf",
			"renounceOwnership()": "715018a6",
			"symbol()": "95d89b41",
			"totalSupply()": "18160ddd",
			"transfer(address,uint256)": "a9059cbb",
			"transferFrom(address,address,uint256)": "23b872dd",
			"transferOwnership(address)": "f2fde38b",
			"tryToGetBlock(string)": "f4f9c241",
			"unpause()": "3f4ba83a",
			"withdrawTokensGetEther(address,uint256)": "e791febd"
		}
	},
	"abi": [
		{
			"inputs": [
				{
					"internalType": "address",
					"name": "initialOwner",
					"type": "address"
				}
			],
			"stateMutability": "nonpayable",
			"type": "constructor"
		},
		{
			"inputs": [],
			"name": "ECDSAInvalidSignature",
			"type": "error"
		},
		{
			"inputs": [
				{
					"internalType": "uint256",
					"name": "length",
					"type": "uint256"
				}
			],
			"name": "ECDSAInvalidSignatureLength",
			"type": "error"
		},
		{
			"inputs": [
				{
					"internalType": "bytes32",
					"name": "s",
					"type": "bytes32"
				}
			],
			"name": "ECDSAInvalidSignatureS",
			"type": "error"
		},
		{
			"inputs": [
				{
					"internalType": "address",
					"name": "spender",
					"type": "address"
				},
				{
					"internalType": "uint256",
					"name": "allowance",
					"type": "uint256"
				},
				{
					"internalType": "uint256",
					"name": "needed",
					"type": "uint256"
				}
			],
			"name": "ERC20InsufficientAllowance",
			"type": "error"
		},
		{
			"inputs": [
				{
					"internalType": "address",
					"name": "sender",
					"type": "address"
				},
				{
					"internalType": "uint256",
					"name": "balance",
					"type": "uint256"
				},
				{
					"internalType": "uint256",
					"name": "needed",
					"type": "uint256"
				}
			],
			"name": "ERC20InsufficientBalance",
			"type": "error"
		},
		{
			"inputs": [
				{
					"internalType": "address",
					"name": "approver",
					"type": "address"
				}
			],
			"name": "ERC20InvalidApprover",
			"type": "error"
		},
		{
			"inputs": [
				{
					"internalType": "address",
					"name": "receiver",
					"type": "address"
				}
			],
			"name": "ERC20InvalidReceiver",
			"type": "error"
		},
		{
			"inputs": [
				{
					"internalType": "address",
					"name": "sender",
					"type": "address"
				}
			],
			"name": "ERC20InvalidSender",
			"type": "error"
		},
		{
			"inputs": [
				{
					"internalType": "address",
					"name": "spender",
					"type": "address"
				}
			],
			"name": "ERC20InvalidSpender",
			"type": "error"
		},
		{
			"inputs": [
				{
					"internalType": "uint256",
					"name": "deadline",
					"type": "uint256"
				}
			],
			"name": "ERC2612ExpiredSignature",
			"type": "error"
		},
		{
			"inputs": [
				{
					"internalType": "address",
					"name": "signer",
					"type": "address"
				},
				{
					"internalType": "address",
					"name": "owner",
					"type": "address"
				}
			],
			"name": "ERC2612InvalidSigner",
			"type": "error"
		},
		{
			"inputs": [],
			"name": "EnforcedPause",
			"type": "error"
		},
		{
			"inputs": [],
			"name": "ExpectedPause",
			"type": "error"
		},
		{
			"inputs": [
				{
					"internalType": "address",
					"name": "account",
					"type": "address"
				},
				{
					"internalType": "uint256",
					"name": "currentNonce",
					"type": "uint256"
				}
			],
			"name": "InvalidAccountNonce",
			"type": "error"
		},
		{
			"inputs": [],
			"name": "InvalidShortString",
			"type": "error"
		},
		{
			"inputs": [
				{
					"internalType": "address",
					"name": "owner",
					"type": "address"
				}
			],
			"name": "OwnableInvalidOwner",
			"type": "error"
		},
		{
			"inputs": [
				{
					"internalType": "address",
					"name": "account",
					"type": "address"
				}
			],
			"name": "OwnableUnauthorizedAccount",
			"type": "error"
		},
		{
			"inputs": [
				{
					"internalType": "string",
					"name": "str",
					"type": "string"
				}
			],
			"name": "StringTooLong",
			"type": "error"
		},
		{
			"anonymous": false,
			"inputs": [
				{
					"indexed": true,
					"internalType": "address",
					"name": "owner",
					"type": "address"
				},
				{
					"indexed": true,
					"internalType": "address",
					"name": "spender",
					"type": "address"
				},
				{
					"indexed": false,
					"internalType": "uint256",
					"name": "value",
					"type": "uint256"
				}
			],
			"name": "Approval",
			"type": "event"
		},
		{
			"anonymous": false,
			"inputs": [],
			"name": "EIP712DomainChanged",
			"type": "event"
		},
		{
			"anonymous": false,
			"inputs": [
				{
					"indexed": true,
					"internalType": "address",
					"name": "previousOwner",
					"type": "address"
				},
				{
					"indexed": true,
					"internalType": "address",
					"name": "newOwner",
					"type": "address"
				}
			],
			"name": "OwnershipTransferred",
			"type": "event"
		},
		{
			"anonymous": false,
			"inputs": [
				{
					"indexed": false,
					"internalType": "address",
					"name": "account",
					"type": "address"
				}
			],
			"name": "Paused",
			"type": "event"
		},
		{
			"anonymous": false,
			"inputs": [
				{
					"indexed": true,
					"internalType": "address",
					"name": "from",
					"type": "address"
				},
				{
					"indexed": true,
					"internalType": "address",
					"name": "to",
					"type": "address"
				},
				{
					"indexed": false,
					"internalType": "uint256",
					"name": "value",
					"type": "uint256"
				}
			],
			"name": "Transfer",
			"type": "event"
		},
		{
			"anonymous": false,
			"inputs": [
				{
					"indexed": false,
					"internalType": "address",
					"name": "account",
					"type": "address"
				}
			],
			"name": "Unpaused",
			"type": "event"
		},
		{
			"inputs": [],
			"name": "DOMAIN_SEPARATOR",
			"outputs": [
				{
					"internalType": "bytes32",
					"name": "",
					"type": "bytes32"
				}
			],
			"stateMutability": "view",
			"type": "function"
		},
		{
			"inputs": [
				{
					"internalType": "address",
					"name": "owner",
					"type": "address"
				},
				{
					"internalType": "address",
					"name": "spender",
					"type": "address"
				}
			],
			"name": "allowance",
			"outputs": [
				{
					"internalType": "uint256",
					"name": "",
					"type": "uint256"
				}
			],
			"stateMutability": "view",
			"type": "function"
		},
		{
			"inputs": [
				{
					"internalType": "address",
					"name": "spender",
					"type": "address"
				},
				{
					"internalType": "uint256",
					"name": "value",
					"type": "uint256"
				}
			],
			"name": "approve",
			"outputs": [
				{
					"internalType": "bool",
					"name": "",
					"type": "bool"
				}
			],
			"stateMutability": "nonpayable",
			"type": "function"
		},
		{
			"inputs": [
				{
					"internalType": "address",
					"name": "account",
					"type": "address"
				}
			],
			"name": "balanceOf",
			"outputs": [
				{
					"internalType": "uint256",
					"name": "",
					"type": "uint256"
				}
			],
			"stateMutability": "view",
			"type": "function"
		},
		{
			"inputs": [],
			"name": "buyTokens",
			"outputs": [],
			"stateMutability": "payable",
			"type": "function"
		},
		{
			"inputs": [
				{
					"internalType": "address",
					"name": "to",
					"type": "address"
				}
			],
			"name": "buyTokensFor",
			"outputs": [],
			"stateMutability": "payable",
			"type": "function"
		},
		{
			"inputs": [],
			"name": "decimals",
			"outputs": [
				{
					"internalType": "uint8",
					"name": "",
					"type": "uint8"
				}
			],
			"stateMutability": "view",
			"type": "function"
		},
		{
			"inputs": [],
			"name": "eip712Domain",
			"outputs": [
				{
					"internalType": "bytes1",
					"name": "fields",
					"type": "bytes1"
				},
				{
					"internalType": "string",
					"name": "name",
					"type": "string"
				},
				{
					"internalType": "string",
					"name": "version",
					"type": "string"
				},
				{
					"internalType": "uint256",
					"name": "chainId",
					"type": "uint256"
				},
				{
					"internalType": "address",
					"name": "verifyingContract",
					"type": "address"
				},
				{
					"internalType": "bytes32",
					"name": "salt",
					"type": "bytes32"
				},
				{
					"internalType": "uint256[]",
					"name": "extensions",
					"type": "uint256[]"
				}
			],
			"stateMutability": "view",
			"type": "function"
		},
		{
			"inputs": [],
			"name": "maxTokens",
			"outputs": [
				{
					"internalType": "uint256",
					"name": "",
					"type": "uint256"
				}
			],
			"stateMutability": "view",
			"type": "function"
		},
		{
			"inputs": [],
			"name": "mining",
			"outputs": [],
			"stateMutability": "nonpayable",
			"type": "function"
		},
		{
			"inputs": [
				{
					"internalType": "address",
					"name": "to",
					"type": "address"
				},
				{
					"internalType": "uint256",
					"name": "amount",
					"type": "uint256"
				}
			],
			"name": "mint",
			"outputs": [],
			"stateMutability": "nonpayable",
			"type": "function"
		},
		{
			"inputs": [],
			"name": "name",
			"outputs": [
				{
					"internalType": "string",
					"name": "",
					"type": "string"
				}
			],
			"stateMutability": "view",
			"type": "function"
		},
		{
			"inputs": [
				{
					"internalType": "address",
					"name": "owner",
					"type": "address"
				}
			],
			"name": "nonces",
			"outputs": [
				{
					"internalType": "uint256",
					"name": "",
					"type": "uint256"
				}
			],
			"stateMutability": "view",
			"type": "function"
		},
		{
			"inputs": [],
			"name": "owner",
			"outputs": [
				{
					"internalType": "address",
					"name": "",
					"type": "address"
				}
			],
			"stateMutability": "view",
			"type": "function"
		},
		{
			"inputs": [],
			"name": "pause",
			"outputs": [],
			"stateMutability": "nonpayable",
			"type": "function"
		},
		{
			"inputs": [],
			"name": "paused",
			"outputs": [
				{
					"internalType": "bool",
					"name": "",
					"type": "bool"
				}
			],
			"stateMutability": "view",
			"type": "function"
		},
		{
			"inputs": [
				{
					"internalType": "address",
					"name": "owner",
					"type": "address"
				},
				{
					"internalType": "address",
					"name": "spender",
					"type": "address"
				},
				{
					"internalType": "uint256",
					"name": "value",
					"type": "uint256"
				},
				{
					"internalType": "uint256",
					"name": "deadline",
					"type": "uint256"
				},
				{
					"internalType": "uint8",
					"name": "v",
					"type": "uint8"
				},
				{
					"internalType": "bytes32",
					"name": "r",
					"type": "bytes32"
				},
				{
					"internalType": "bytes32",
					"name": "s",
					"type": "bytes32"
				}
			],
			"name": "permit",
			"outputs": [],
			"stateMutability": "nonpayable",
			"type": "function"
		},
		{
			"inputs": [],
			"name": "renounceOwnership",
			"outputs": [],
			"stateMutability": "nonpayable",
			"type": "function"
		},
		{
			"inputs": [],
			"name": "symbol",
			"outputs": [
				{
					"internalType": "string",
					"name": "",
					"type": "string"
				}
			],
			"stateMutability": "view",
			"type": "function"
		},
		{
			"inputs": [],
			"name": "totalSupply",
			"outputs": [
				{
					"internalType": "uint256",
					"name": "",
					"type": "uint256"
				}
			],
			"stateMutability": "view",
			"type": "function"
		},
		{
			"inputs": [
				{
					"internalType": "address",
					"name": "to",
					"type": "address"
				},
				{
					"internalType": "uint256",
					"name": "value",
					"type": "uint256"
				}
			],
			"name": "transfer",
			"outputs": [
				{
					"internalType": "bool",
					"name": "",
					"type": "bool"
				}
			],
			"stateMutability": "nonpayable",
			"type": "function"
		},
		{
			"inputs": [
				{
					"internalType": "address",
					"name": "from",
					"type": "address"
				},
				{
					"internalType": "address",
					"name": "to",
					"type": "address"
				},
				{
					"internalType": "uint256",
					"name": "value",
					"type": "uint256"
				}
			],
			"name": "transferFrom",
			"outputs": [
				{
					"internalType": "bool",
					"name": "",
					"type": "bool"
				}
			],
			"stateMutability": "nonpayable",
			"type": "function"
		},
		{
			"inputs": [
				{
					"internalType": "address",
					"name": "newOwner",
					"type": "address"
				}
			],
			"name": "transferOwnership",
			"outputs": [],
			"stateMutability": "nonpayable",
			"type": "function"
		},
		{
			"inputs": [
				{
					"internalType": "string",
					"name": "input",
					"type": "string"
				}
			],
			"name": "tryToGetBlock",
			"outputs": [],
			"stateMutability": "nonpayable",
			"type": "function"
		},
		{
			"inputs": [],
			"name": "unpause",
			"outputs": [],
			"stateMutability": "nonpayable",
			"type": "function"
		},
		{
			"inputs": [
				{
					"internalType": "address payable",
					"name": "recipient",
					"type": "address"
				},
				{
					"internalType": "uint256",
					"name": "amount",
					"type": "uint256"
				}
			],
			"name": "withdrawTokensGetEther",
			"outputs": [],
			"stateMutability": "nonpayable",
			"type": "function"
		}
	]
}