{
	"data": {
		"bytecode": {
			"linkReferences": {
				"contracts/models/ModelLibrary.sol": {
					"ModelLibrary": [
						{
							"length": 20,
							"start": 20512
						}
					]
				}
			},
			"object": "61016060405264e8d4a51000600a556061600b5f6101000a81548160ff021916908360ff1602179055505f600c60146101000a81548160ff02191690831515021790555034801561004e575f80fd5b50604051618319380380618319833981810160405281019061007091906105a0565b6040518060400160405280601181526020017f547261646520526f75746520546f6b656e000000000000000000000000000000815250806040518060400160405280600181526020017f3100000000000000000000000000000000000000000000000000000000000000815250836040518060400160405280601181526020017f547261646520526f75746520546f6b656e0000000000000000000000000000008152506040518060400160405280600381526020017f545254000000000000000000000000000000000000000000000000000000000081525081600390816101599190610805565b5080600490816101699190610805565b5050505f60055f6101000a81548160ff0219169083151502179055505f73ffffffffffffffffffffffffffffffffffffffff168173ffffffffffffffffffffffffffffffffffffffff16036101f5575f6040517f1e4fbdf70000000000000000000000000000000000000000000000000000000081526004016101ec91906108e3565b60405180910390fd5b6102048161035b60201b60201c565b5061021960068361042060201b90919060201c565b610120818152505061023560078261042060201b90919060201c565b6101408181525050818051906020012060e08181525050808051906020012061010081815250504660a0818152505061027261046d60201b60201c565b608081815250503073ffffffffffffffffffffffffffffffffffffffff1660c08173ffffffffffffffffffffffffffffffffffffffff16815250505050508060095f6101000a81548173ffffffffffffffffffffffffffffffffffffffff021916908373ffffffffffffffffffffffffffffffffffffffff1602179055506040516102fc90610535565b604051809103905ff080158015610315573d5f803e3d5ffd5b50600c5f6101000a81548173ffffffffffffffffffffffffffffffffffffffff021916908373ffffffffffffffffffffffffffffffffffffffff16021790555050610a8d565b5f600560019054906101000a900473ffffffffffffffffffffffffffffffffffffffff16905081600560016101000a81548173ffffffffffffffffffffffffffffffffffffffff021916908373ffffffffffffffffffffffffffffffffffffffff1602179055508173ffffffffffffffffffffffffffffffffffffffff168173ffffffffffffffffffffffffffffffffffffffff167f8be0079c531659141344cd1fd0a4f28419497f9722a3daafe3b4186f6b6457e060405160405180910390a35050565b5f6020835110156104415761043a836104c760201b60201c565b9050610467565b826104518361052c60201b60201c565b5f01908161045f9190610805565b5060ff5f1b90505b92915050565b5f7f8b73c3c69bb8fe3d512ecc4cf759cc79239f7b179b0ffacaa9a75d522b39400f60e0516101005146306040516020016104ac959493929190610923565b60405160208183030381529060405280519060200120905090565b5f80829050601f8151111561051357826040517f305a27a900000000000000000000000000000000000000000000000000000000815260040161050a91906109da565b60405180910390fd5b80518161051f90610a27565b5f1c175f1b915050919050565b5f819050919050565b613eaf8061446a83390190565b5f80fd5b5f73ffffffffffffffffffffffffffffffffffffffff82169050919050565b5f61056f82610546565b9050919050565b61057f81610565565b8114610589575f80fd5b50565b5f8151905061059a81610576565b92915050565b5f602082840312156105b5576105b4610542565b5b5f6105c28482850161058c565b91505092915050565b5f81519050919050565b7f4e487b71000000000000000000000000000000000000000000000000000000005f52604160045260245ffd5b7f4e487b71000000000000000000000000000000000000000000000000000000005f52602260045260245ffd5b5f600282049050600182168061064657607f821691505b60208210810361065957610658610602565b5b50919050565b5f819050815f5260205f209050919050565b5f6020601f8301049050919050565b5f82821b905092915050565b5f600883026106bb7fffffffffffffffffffffffffffffffffffffffffffffffffffffffffffffffff82610680565b6106c58683610680565b95508019841693508086168417925050509392505050565b5f819050919050565b5f819050919050565b5f6107096107046106ff846106dd565b6106e6565b6106dd565b9050919050565b5f819050919050565b610722836106ef565b61073661072e82610710565b84845461068c565b825550505050565b5f90565b61074a61073e565b610755818484610719565b505050565b5b818110156107785761076d5f82610742565b60018101905061075b565b5050565b601f8211156107bd5761078e8161065f565b61079784610671565b810160208510156107a6578190505b6107ba6107b285610671565b83018261075a565b50505b505050565b5f82821c905092915050565b5f6107dd5f19846008026107c2565b1980831691505092915050565b5f6107f583836107ce565b9150826002028217905092915050565b61080e826105cb565b67ffffffffffffffff811115610827576108266105d5565b5b610831825461062f565b61083c82828561077c565b5f60209050601f83116001811461086d575f841561085b578287015190505b61086585826107ea565b8655506108cc565b601f19841661087b8661065f565b5f5b828110156108a25784890151825560018201915060208501945060208101905061087d565b868310156108bf57848901516108bb601f8916826107ce565b8355505b6001600288020188555050505b505050505050565b6108dd81610565565b82525050565b5f6020820190506108f65f8301846108d4565b92915050565b5f819050919050565b61090e816108fc565b82525050565b61091d816106dd565b82525050565b5f60a0820190506109365f830188610905565b6109436020830187610905565b6109506040830186610905565b61095d6060830185610914565b61096a60808301846108d4565b9695505050505050565b5f82825260208201905092915050565b8281835e5f83830152505050565b5f601f19601f8301169050919050565b5f6109ac826105cb565b6109b68185610974565b93506109c6818560208601610984565b6109cf81610992565b840191505092915050565b5f6020820190508181035f8301526109f281846109a2565b905092915050565b5f81519050919050565b5f819050602082019050919050565b5f610a1e82516108fc565b80915050919050565b5f610a31826109fa565b82610a3b84610a04565b9050610a4681610a13565b92506020821015610a8657610a817fffffffffffffffffffffffffffffffffffffffffffffffffffffffffffffffff83602003600802610680565b831692505b5050919050565b60805160a05160c05160e05161010051610120516101405161398c610ade5f395f611e6901525f611e2e01525f61217801525f61215701525f611a0b01525f611a6101525f611a8a015261398c5ff3fe6080604052600436106101e2575f3560e01c80637ecebe0011610101578063d0febe4c11610094578063e831574211610063578063e83157421461066e578063f2fde38b14610698578063f4f9c241146106c0578063ffd14d6a146106fd576101e2565b8063d0febe4c146105d8578063d505accf146105e2578063dd62ed3e1461060a578063e791febd14610646576101e2565b806395d89b41116100d057806395d89b411461051e578063a9059cbb14610548578063b62a62ec14610584578063c9116b69146105ae576101e2565b80637ecebe00146104725780638456cb59146104ae57806384b0196e146104c45780638da5cb5b146104f4576101e2565b806339b49257116101795780636be4cf1f116101485780636be4cf1f146103e857806370a0823114610404578063715018a61461044057806379e20bdc14610456576101e2565b806339b49257146103585780633f4ba83a1461038057806340c10f19146103965780635c975abb146103be576101e2565b80632b4c9bd0116101b55780632b4c9bd0146102b2578063313ce567146102da5780633296a74e146103045780633644e5151461032e576101e2565b806306fdde03146101e6578063095ea7b31461021057806318160ddd1461024c57806323b872dd14610276575b5f80fd5b3480156101f1575f80fd5b506101fa61073a565b60405161020791906128e0565b60405180910390f35b34801561021b575f80fd5b506102366004803603810190610231919061299e565b6107ca565b60405161024391906129f6565b60405180910390f35b348015610257575f80fd5b506102606107ec565b60405161026d9190612a1e565b60405180910390f35b348015610281575f80fd5b5061029c60048036038101906102979190612a37565b6107f5565b6040516102a991906129f6565b60405180910390f35b3480156102bd575f80fd5b506102d860048036038101906102d39190612a87565b610823565b005b3480156102e5575f80fd5b506102ee6109b5565b6040516102fb9190612af2565b60405180910390f35b34801561030f575f80fd5b506103186109bd565b6040516103259190612a1e565b60405180910390f35b348015610339575f80fd5b50610342610a52565b60405161034f9190612b23565b60405180910390f35b348015610363575f80fd5b5061037e60048036038101906103799190612a87565b610a60565b005b34801561038b575f80fd5b50610394610bcf565b005b3480156103a1575f80fd5b506103bc60048036038101906103b7919061299e565b610be1565b005b3480156103c9575f80fd5b506103d2610bf7565b6040516103df91906129f6565b60405180910390f35b61040260048036038101906103fd9190612b3c565b610c0c565b005b34801561040f575f80fd5b5061042a60048036038101906104259190612b3c565b610c83565b6040516104379190612a1e565b60405180910390f35b34801561044b575f80fd5b50610454610cc8565b005b610470600480360381019061046b919061299e565b610cdb565b005b34801561047d575f80fd5b5061049860048036038101906104939190612b3c565b610f0d565b6040516104a59190612a1e565b60405180910390f35b3480156104b9575f80fd5b506104c2610f1e565b005b3480156104cf575f80fd5b506104d8610f30565b6040516104eb9796959493929190612c67565b60405180910390f35b3480156104ff575f80fd5b50610508610fd5565b6040516105159190612ce9565b60405180910390f35b348015610529575f80fd5b50610532610ffe565b60405161053f91906128e0565b60405180910390f35b348015610553575f80fd5b5061056e6004803603810190610569919061299e565b61108e565b60405161057b91906129f6565b60405180910390f35b34801561058f575f80fd5b506105986110b0565b6040516105a591906128e0565b60405180910390f35b3480156105b9575f80fd5b506105c2611149565b6040516105cf9190612a1e565b60405180910390f35b6105e0611158565b005b3480156105ed575f80fd5b5061060860048036038101906106039190612d56565b6111d5565b005b348015610615575f80fd5b50610630600480360381019061062b9190612df3565b61131a565b60405161063d9190612a1e565b60405180910390f35b348015610651575f80fd5b5061066c60048036038101906106679190612e6c565b61139c565b005b348015610679575f80fd5b50610682611484565b60405161068f9190612a1e565b60405180910390f35b3480156106a3575f80fd5b506106be60048036038101906106b99190612b3c565b61148a565b005b3480156106cb575f80fd5b506106e660048036038101906106e19190612fd6565b61150e565b6040516106f492919061301d565b60405180910390f35b348015610708575f80fd5b50610723600480360381019061071e9190612fd6565b61169e565b60405161073192919061301d565b60405180910390f35b60606003805461074990613071565b80601f016020809104026020016040519081016040528092919081815260200182805461077590613071565b80156107c05780601f10610797576101008083540402835291602001916107c0565b820191905f5260205f20905b8154815290600101906020018083116107a357829003601f168201915b5050505050905090565b5f806107d4611817565b90506107e181858561181e565b600191505092915050565b5f600254905090565b5f806107ff611817565b905061080c858285611830565b6108178585856118c2565b60019150509392505050565b5f61083a828461083391906130ce565b60646119b2565b9050600181101561084a57600190505b828161085586610c83565b61085f919061310f565b10156108a0576040517f08c379a0000000000000000000000000000000000000000000000000000000008152600401610897906131b2565b60405180910390fd5b3373ffffffffffffffffffffffffffffffffffffffff168473ffffffffffffffffffffffffffffffffffffffff160361090e576040517f08c379a00000000000000000000000000000000000000000000000000000000081526004016109059061321a565b60405180910390fd5b600c5f9054906101000a900473ffffffffffffffffffffffffffffffffffffffff1673ffffffffffffffffffffffffffffffffffffffff16639a5c5e64338686866040518563ffffffff1660e01b815260040161096e9493929190613238565b6020604051808303815f875af115801561098a573d5f803e3d5ffd5b505050506040513d601f19601f820116820180604052508101906109ae91906132a5565b5050505050565b5f6012905090565b5f600b60019054906101000a900473ffffffffffffffffffffffffffffffffffffffff1673ffffffffffffffffffffffffffffffffffffffff16630572b0cc6040518163ffffffff1660e01b8152600401602060405180830381865afa158015610a29573d5f803e3d5ffd5b505050506040513d601f19601f82011682018060405250810190610a4d91906132e4565b905090565b5f610a5b611a08565b905090565b5f610a778284610a7091906130ce565b60646119b2565b90506001811015610a8757600190505b8281610a9233610c83565b610a9c919061310f565b1015610add576040517f08c379a0000000000000000000000000000000000000000000000000000000008152600401610ad4906131b2565b60405180910390fd5b600c5f9054906101000a900473ffffffffffffffffffffffffffffffffffffffff1673ffffffffffffffffffffffffffffffffffffffff1663207a296a85338686866040518663ffffffff1660e01b8152600401610b3f95949392919061330f565b6020604051808303815f875af1158015610b5b573d5f803e3d5ffd5b505050506040513d601f19601f82011682018060405250810190610b7f91906132a5565b610bbe576040517f08c379a0000000000000000000000000000000000000000000000000000000008152600401610bb5906133aa565b60405180910390fd5b610bc9338585611abe565b50505050565b610bd7611ace565b610bdf611b55565b565b610be9611ace565b610bf38282611bb6565b5050565b5f60055f9054906101000a900460ff16905090565b5f610c1634611c35565b90505f81610c226107ec565b610c2c919061310f565b905080600a541015610c73576040517f08c379a0000000000000000000000000000000000000000000000000000000008152600401610c6a90613412565b60405180910390fd5b610c7e838383611c64565b505050565b5f805f8373ffffffffffffffffffffffffffffffffffffffff1673ffffffffffffffffffffffffffffffffffffffff1681526020019081526020015f20549050919050565b610cd0611ace565b610cd95f611cb8565b565b80610ce533610c83565b1015610d26576040517f08c379a0000000000000000000000000000000000000000000000000000000008152600401610d1d906134a0565b60405180910390fd5b5f600c5f9054906101000a900473ffffffffffffffffffffffffffffffffffffffff1673ffffffffffffffffffffffffffffffffffffffff1663f5b92c733385856040518463ffffffff1660e01b8152600401610d85939291906134be565b6020604051808303815f875af1158015610da1573d5f803e3d5ffd5b505050506040513d601f19601f82011682018060405250810190610dc591906132e4565b9050600c5f9054906101000a900473ffffffffffffffffffffffffffffffffffffffff1673ffffffffffffffffffffffffffffffffffffffff16635795fe07336040518263ffffffff1660e01b8152600401610e219190612ce9565b602060405180830381865afa158015610e3c573d5f803e3d5ffd5b505050506040513d601f19601f82011682018060405250810190610e6091906132a5565b610e9757818103610e7b57610e76338484611abe565b610e92565b610e9133848385610e8c91906134f3565b611abe565b5b610f08565b818103610ecf57610eca3360095f9054906101000a900473ffffffffffffffffffffffffffffffffffffffff1684611abe565b610f07565b610f063360095f9054906101000a900473ffffffffffffffffffffffffffffffffffffffff168385610f0191906134f3565b611abe565b5b5b505050565b5f610f1782611d7d565b9050919050565b610f26611ace565b610f2e611dc3565b565b5f6060805f805f6060610f41611e25565b610f49611e60565b46305f801b5f67ffffffffffffffff811115610f6857610f67612eb2565b5b604051908082528060200260200182016040528015610f965781602001602082028036833780820191505090505b507f0f00000000000000000000000000000000000000000000000000000000000000959493929190965096509650965096509650965090919293949596565b5f600560019054906101000a900473ffffffffffffffffffffffffffffffffffffffff16905090565b60606004805461100d90613071565b80601f016020809104026020016040519081016040528092919081815260200182805461103990613071565b80156110845780601f1061105b57610100808354040283529160200191611084565b820191905f5260205f20905b81548152906001019060200180831161106757829003601f168201915b5050505050905090565b5f80611098611817565b90506110a58185856118c2565b600191505092915050565b6060600b60019054906101000a900473ffffffffffffffffffffffffffffffffffffffff1673ffffffffffffffffffffffffffffffffffffffff1663b62a62ec6040518163ffffffff1660e01b81526004015f60405180830381865afa15801561111c573d5f803e3d5ffd5b505050506040513d5f823e3d601f19601f820116820180604052508101906111449190613594565b905090565b5f61115333610c83565b905090565b5f61116234611c35565b90505f8161116e6107ec565b611178919061310f565b905080600a5410156111bf576040517f08c379a00000000000000000000000000000000000000000000000000000000081526004016111b690613412565b60405180910390fd5b6111d16111ca611817565b8383611c64565b5050565b8342111561121a57836040517f627913020000000000000000000000000000000000000000000000000000000081526004016112119190612a1e565b60405180910390fd5b5f7f6e71edae12b1b97f4d1f60370fef10105fa2faae0126114a169c64845d6126c98888886112488c611e9b565b8960405160200161125e969594939291906135db565b6040516020818303038152906040528051906020012090505f61128082611eee565b90505f61128f82878787611f07565b90508973ffffffffffffffffffffffffffffffffffffffff168173ffffffffffffffffffffffffffffffffffffffff161461130357808a6040517f4b800e460000000000000000000000000000000000000000000000000000000081526004016112fa92919061363a565b60405180910390fd5b61130e8a8a8a61181e565b50505050505050505050565b5f60015f8473ffffffffffffffffffffffffffffffffffffffff1673ffffffffffffffffffffffffffffffffffffffff1681526020019081526020015f205f8373ffffffffffffffffffffffffffffffffffffffff1673ffffffffffffffffffffffffffffffffffffffff1681526020019081526020015f2054905092915050565b806113ad6113a8611817565b610c83565b10156113ee576040517f08c379a00000000000000000000000000000000000000000000000000000000081526004016113e5906136ab565b60405180910390fd5b6113f781611f35565b90508047101561143c576040517f08c379a000000000000000000000000000000000000000000000000000000000815260040161143390613713565b60405180910390fd5b8173ffffffffffffffffffffffffffffffffffffffff166108fc8290811502906040515f60405180830381858888f1935050505015801561147f573d5f803e3d5ffd5b505050565b600a5481565b611492611ace565b5f73ffffffffffffffffffffffffffffffffffffffff168173ffffffffffffffffffffffffffffffffffffffff1603611502575f6040517f1e4fbdf70000000000000000000000000000000000000000000000000000000081526004016114f99190612ce9565b60405180910390fd5b61150b81611cb8565b50565b5f805f80600b60019054906101000a900473ffffffffffffffffffffffffffffffffffffffff1673ffffffffffffffffffffffffffffffffffffffff16634fc8a991611558611817565b876040518363ffffffff1660e01b8152600401611576929190613731565b60408051808303815f875af1158015611591573d5f803e3d5ffd5b505050506040513d601f19601f820116820180604052508101906115b59190613773565b915091508115611691575f600b60019054906101000a900473ffffffffffffffffffffffffffffffffffffffff1673ffffffffffffffffffffffffffffffffffffffff16630572b0cc6040518163ffffffff1660e01b8152600401602060405180830381865afa15801561162b573d5f803e3d5ffd5b505050506040513d601f19601f8201168201806040525081019061164f91906132e4565b905061167561165c611817565b826116656107ec565b84611670919061310f565b611c64565b5f600c60146101000a81548160ff021916908315150217905550505b8181935093505050915091565b5f805f80600c5f9054906101000a900473ffffffffffffffffffffffffffffffffffffffff1673ffffffffffffffffffffffffffffffffffffffff166335e30ae433876040518363ffffffff1660e01b81526004016116fe929190613731565b60408051808303815f875af1158015611719573d5f803e3d5ffd5b505050506040513d601f19601f8201168201806040525081019061173d9190613773565b91509150811561180a575f80600c5f9054906101000a900473ffffffffffffffffffffffffffffffffffffffff1673ffffffffffffffffffffffffffffffffffffffff166309d708536040518163ffffffff1660e01b815260040160408051808303815f875af11580156117b3573d5f803e3d5ffd5b505050506040513d601f19601f820116820180604052508101906117d791906137c5565b9150915061180760095f9054906101000a900473ffffffffffffffffffffffffffffffffffffffff168383611abe565b50505b8181935093505050915091565b5f33905090565b61182b8383836001611f64565b505050565b5f61183b848461131a565b90507fffffffffffffffffffffffffffffffffffffffffffffffffffffffffffffffff81146118bc57818110156118ad578281836040517ffb8f41b20000000000000000000000000000000000000000000000000000000081526004016118a493929190613803565b60405180910390fd5b6118bb84848484035f611f64565b5b50505050565b5f73ffffffffffffffffffffffffffffffffffffffff168373ffffffffffffffffffffffffffffffffffffffff1603611932575f6040517f96c6fd1e0000000000000000000000000000000000000000000000000000000081526004016119299190612ce9565b60405180910390fd5b5f73ffffffffffffffffffffffffffffffffffffffff168273ffffffffffffffffffffffffffffffffffffffff16036119a2575f6040517fec442f050000000000000000000000000000000000000000000000000000000081526004016119999190612ce9565b60405180910390fd5b6119ad838383611abe565b505050565b5f8082036119cd5781836119c69190613865565b9050611a02565b5f83146119fd576001826001856119e491906134f3565b6119ee9190613865565b6119f8919061310f565b6119ff565b5f5b90505b92915050565b5f7f000000000000000000000000000000000000000000000000000000000000000073ffffffffffffffffffffffffffffffffffffffff163073ffffffffffffffffffffffffffffffffffffffff16148015611a8357507f000000000000000000000000000000000000000000000000000000000000000046145b15611ab0577f00000000000000000000000000000000000000000000000000000000000000009050611abb565b611ab8612133565b90505b90565b611ac98383836121c8565b505050565b611ad6611817565b73ffffffffffffffffffffffffffffffffffffffff16611af4610fd5565b73ffffffffffffffffffffffffffffffffffffffff1614611b5357611b17611817565b6040517f118cdaa7000000000000000000000000000000000000000000000000000000008152600401611b4a9190612ce9565b60405180910390fd5b565b611b5d6121e0565b5f60055f6101000a81548160ff0219169083151502179055507f5db9ee0a495bf2e6ff9c91a7834c1ba4fdd244a5e8aa4e537bd38aeae4b073aa611b9f611817565b604051611bac9190612ce9565b60405180910390a1565b5f73ffffffffffffffffffffffffffffffffffffffff168273ffffffffffffffffffffffffffffffffffffffff1603611c26575f6040517fec442f05000000000000000000000000000000000000000000000000000000008152600401611c1d9190612ce9565b60405180910390fd5b611c315f8383611abe565b5050565b5f611c5d600b5f9054906101000a900460ff1660ff1683611c5691906130ce565b60646119b2565b9050919050565b80600a541015611ca9576040517f08c379a0000000000000000000000000000000000000000000000000000000008152600401611ca090613412565b60405180910390fd5b611cb38383611bb6565b505050565b5f600560019054906101000a900473ffffffffffffffffffffffffffffffffffffffff16905081600560016101000a81548173ffffffffffffffffffffffffffffffffffffffff021916908373ffffffffffffffffffffffffffffffffffffffff1602179055508173ffffffffffffffffffffffffffffffffffffffff168173ffffffffffffffffffffffffffffffffffffffff167f8be0079c531659141344cd1fd0a4f28419497f9722a3daafe3b4186f6b6457e060405160405180910390a35050565b5f60085f8373ffffffffffffffffffffffffffffffffffffffff1673ffffffffffffffffffffffffffffffffffffffff1681526020019081526020015f20549050919050565b611dcb612220565b600160055f6101000a81548160ff0219169083151502179055507f62e78cea01bee320cd4e420270b5ea74000d11b0c9f74754ebdbfc544b05a258611e0e611817565b604051611e1b9190612ce9565b60405180910390a1565b6060611e5b60067f000000000000000000000000000000000000000000000000000000000000000061226190919063ffffffff16565b905090565b6060611e9660077f000000000000000000000000000000000000000000000000000000000000000061226190919063ffffffff16565b905090565b5f60085f8373ffffffffffffffffffffffffffffffffffffffff1673ffffffffffffffffffffffffffffffffffffffff1681526020019081526020015f205f815480929190600101919050559050919050565b5f611f00611efa611a08565b8361230e565b9050919050565b5f805f80611f178888888861234e565b925092509250611f278282612435565b829350505050949350505050565b5f611f5d606483611f4691906130ce565b600b5f9054906101000a900460ff1660ff166119b2565b9050919050565b5f73ffffffffffffffffffffffffffffffffffffffff168473ffffffffffffffffffffffffffffffffffffffff1603611fd4575f6040517fe602df05000000000000000000000000000000000000000000000000000000008152600401611fcb9190612ce9565b60405180910390fd5b5f73ffffffffffffffffffffffffffffffffffffffff168373ffffffffffffffffffffffffffffffffffffffff1603612044575f6040517f94280d6200000000000000000000000000000000000000000000000000000000815260040161203b9190612ce9565b60405180910390fd5b8160015f8673ffffffffffffffffffffffffffffffffffffffff1673ffffffffffffffffffffffffffffffffffffffff1681526020019081526020015f205f8573ffffffffffffffffffffffffffffffffffffffff1673ffffffffffffffffffffffffffffffffffffffff1681526020019081526020015f2081905550801561212d578273ffffffffffffffffffffffffffffffffffffffff168473ffffffffffffffffffffffffffffffffffffffff167f8c5be1e5ebec7d5bd14f71427d1e84f3dd0314c0f7b2291e5b200ac8c7c3b925846040516121249190612a1e565b60405180910390a35b50505050565b5f7f8b73c3c69bb8fe3d512ecc4cf759cc79239f7b179b0ffacaa9a75d522b39400f7f00000000000000000000000000000000000000000000000000000000000000007f000000000000000000000000000000000000000000000000000000000000000046306040516020016121ad959493929190613895565b60405160208183030381529060405280519060200120905090565b6121d0612220565b6121db838383612597565b505050565b6121e8610bf7565b61221e576040517f8dfc202b00000000000000000000000000000000000000000000000000000000815260040160405180910390fd5b565b612228610bf7565b1561225f576040517fd93c066500000000000000000000000000000000000000000000000000000000815260040160405180910390fd5b565b606060ff5f1b831461227d57612276836127b0565b9050612308565b81805461228990613071565b80601f01602080910402602001604051908101604052809291908181526020018280546122b590613071565b80156123005780601f106122d757610100808354040283529160200191612300565b820191905f5260205f20905b8154815290600101906020018083116122e357829003601f168201915b505050505090505b92915050565b5f6040517f190100000000000000000000000000000000000000000000000000000000000081528360028201528260228201526042812091505092915050565b5f805f7f7fffffffffffffffffffffffffffffff5d576e7357a4501ddfe92f46681b20a0845f1c111561238a575f60038592509250925061242b565b5f6001888888886040515f81526020016040526040516123ad94939291906138e6565b6020604051602081039080840390855afa1580156123cd573d5f803e3d5ffd5b5050506020604051035190505f73ffffffffffffffffffffffffffffffffffffffff168173ffffffffffffffffffffffffffffffffffffffff160361241e575f60015f801b9350935093505061242b565b805f805f1b935093509350505b9450945094915050565b5f600381111561244857612447613929565b5b82600381111561245b5761245a613929565b5b0315612593576001600381111561247557612474613929565b5b82600381111561248857612487613929565b5b036124bf576040517ff645eedf00000000000000000000000000000000000000000000000000000000815260040160405180910390fd5b600260038111156124d3576124d2613929565b5b8260038111156124e6576124e5613929565b5b0361252a57805f1c6040517ffce698f70000000000000000000000000000000000000000000000000000000081526004016125219190612a1e565b60405180910390fd5b60038081111561253d5761253c613929565b5b8260038111156125505761254f613929565b5b0361259257806040517fd78bce0c0000000000000000000000000000000000000000000000000000000081526004016125899190612b23565b60405180910390fd5b5b5050565b5f73ffffffffffffffffffffffffffffffffffffffff168373ffffffffffffffffffffffffffffffffffffffff16036125e7578060025f8282546125db919061310f565b925050819055506126b5565b5f805f8573ffffffffffffffffffffffffffffffffffffffff1673ffffffffffffffffffffffffffffffffffffffff1681526020019081526020015f2054905081811015612670578381836040517fe450d38c00000000000000000000000000000000000000000000000000000000815260040161266793929190613803565b60405180910390fd5b8181035f808673ffffffffffffffffffffffffffffffffffffffff1673ffffffffffffffffffffffffffffffffffffffff1681526020019081526020015f2081905550505b5f73ffffffffffffffffffffffffffffffffffffffff168273ffffffffffffffffffffffffffffffffffffffff16036126fc578060025f8282540392505081905550612746565b805f808473ffffffffffffffffffffffffffffffffffffffff1673ffffffffffffffffffffffffffffffffffffffff1681526020019081526020015f205f82825401925050819055505b8173ffffffffffffffffffffffffffffffffffffffff168373ffffffffffffffffffffffffffffffffffffffff167fddf252ad1be2c89b69c2b068fc378daa952ba7f163c4a11628f55a4df523b3ef836040516127a39190612a1e565b60405180910390a3505050565b60605f6127bc83612822565b90505f602067ffffffffffffffff8111156127da576127d9612eb2565b5b6040519080825280601f01601f19166020018201604052801561280c5781602001600182028036833780820191505090505b5090508181528360208201528092505050919050565b5f8060ff835f1c169050601f811115612867576040517fb3512b0c00000000000000000000000000000000000000000000000000000000815260040160405180910390fd5b80915050919050565b5f81519050919050565b5f82825260208201905092915050565b8281835e5f83830152505050565b5f601f19601f8301169050919050565b5f6128b282612870565b6128bc818561287a565b93506128cc81856020860161288a565b6128d581612898565b840191505092915050565b5f6020820190508181035f8301526128f881846128a8565b905092915050565b5f604051905090565b5f80fd5b5f80fd5b5f73ffffffffffffffffffffffffffffffffffffffff82169050919050565b5f61293a82612911565b9050919050565b61294a81612930565b8114612954575f80fd5b50565b5f8135905061296581612941565b92915050565b5f819050919050565b61297d8161296b565b8114612987575f80fd5b50565b5f8135905061299881612974565b92915050565b5f80604083850312156129b4576129b3612909565b5b5f6129c185828601612957565b92505060206129d28582860161298a565b9150509250929050565b5f8115159050919050565b6129f0816129dc565b82525050565b5f602082019050612a095f8301846129e7565b92915050565b612a188161296b565b82525050565b5f602082019050612a315f830184612a0f565b92915050565b5f805f60608486031215612a4e57612a4d612909565b5b5f612a5b86828701612957565b9350506020612a6c86828701612957565b9250506040612a7d8682870161298a565b9150509250925092565b5f805f60608486031215612a9e57612a9d612909565b5b5f612aab86828701612957565b9350506020612abc8682870161298a565b9250506040612acd8682870161298a565b9150509250925092565b5f60ff82169050919050565b612aec81612ad7565b82525050565b5f602082019050612b055f830184612ae3565b92915050565b5f819050919050565b612b1d81612b0b565b82525050565b5f602082019050612b365f830184612b14565b92915050565b5f60208284031215612b5157612b50612909565b5b5f612b5e84828501612957565b91505092915050565b5f7fff0000000000000000000000000000000000000000000000000000000000000082169050919050565b612b9b81612b67565b82525050565b612baa81612930565b82525050565b5f81519050919050565b5f82825260208201905092915050565b5f819050602082019050919050565b612be28161296b565b82525050565b5f612bf38383612bd9565b60208301905092915050565b5f602082019050919050565b5f612c1582612bb0565b612c1f8185612bba565b9350612c2a83612bca565b805f5b83811015612c5a578151612c418882612be8565b9750612c4c83612bff565b925050600181019050612c2d565b5085935050505092915050565b5f60e082019050612c7a5f83018a612b92565b8181036020830152612c8c81896128a8565b90508181036040830152612ca081886128a8565b9050612caf6060830187612a0f565b612cbc6080830186612ba1565b612cc960a0830185612b14565b81810360c0830152612cdb8184612c0b565b905098975050505050505050565b5f602082019050612cfc5f830184612ba1565b92915050565b612d0b81612ad7565b8114612d15575f80fd5b50565b5f81359050612d2681612d02565b92915050565b612d3581612b0b565b8114612d3f575f80fd5b50565b5f81359050612d5081612d2c565b92915050565b5f805f805f805f60e0888a031215612d7157612d70612909565b5b5f612d7e8a828b01612957565b9750506020612d8f8a828b01612957565b9650506040612da08a828b0161298a565b9550506060612db18a828b0161298a565b9450506080612dc28a828b01612d18565b93505060a0612dd38a828b01612d42565b92505060c0612de48a828b01612d42565b91505092959891949750929550565b5f8060408385031215612e0957612e08612909565b5b5f612e1685828601612957565b9250506020612e2785828601612957565b9150509250929050565b5f612e3b82612911565b9050919050565b612e4b81612e31565b8114612e55575f80fd5b50565b5f81359050612e6681612e42565b92915050565b5f8060408385031215612e8257612e81612909565b5b5f612e8f85828601612e58565b9250506020612ea08582860161298a565b9150509250929050565b5f80fd5b5f80fd5b7f4e487b71000000000000000000000000000000000000000000000000000000005f52604160045260245ffd5b612ee882612898565b810181811067ffffffffffffffff82111715612f0757612f06612eb2565b5b80604052505050565b5f612f19612900565b9050612f258282612edf565b919050565b5f67ffffffffffffffff821115612f4457612f43612eb2565b5b612f4d82612898565b9050602081019050919050565b828183375f83830152505050565b5f612f7a612f7584612f2a565b612f10565b905082815260208101848484011115612f9657612f95612eae565b5b612fa1848285612f5a565b509392505050565b5f82601f830112612fbd57612fbc612eaa565b5b8135612fcd848260208601612f68565b91505092915050565b5f60208284031215612feb57612fea612909565b5b5f82013567ffffffffffffffff8111156130085761300761290d565b5b61301484828501612fa9565b91505092915050565b5f6040820190506130305f8301856129e7565b61303d6020830184612b14565b9392505050565b7f4e487b71000000000000000000000000000000000000000000000000000000005f52602260045260245ffd5b5f600282049050600182168061308857607f821691505b60208210810361309b5761309a613044565b5b50919050565b7f4e487b71000000000000000000000000000000000000000000000000000000005f52601160045260245ffd5b5f6130d88261296b565b91506130e38361296b565b92508282026130f18161296b565b91508282048414831517613108576131076130a1565b5b5092915050565b5f6131198261296b565b91506131248361296b565b925082820190508082111561313c5761313b6130a1565b5b92915050565b7f4372656469746f7227732062616c616e6365206973206e6f74206869676820655f8201527f6e6f7567682e0000000000000000000000000000000000000000000000000000602082015250565b5f61319c60268361287a565b91506131a782613142565b604082019050919050565b5f6020820190508181035f8301526131c981613190565b9050919050565b7f596f752063616e277420626520796f7572206f776e206372656469746f722e005f82015250565b5f613204601f8361287a565b915061320f826131d0565b602082019050919050565b5f6020820190508181035f830152613231816131f8565b9050919050565b5f60808201905061324b5f830187612ba1565b6132586020830186612ba1565b6132656040830185612a0f565b6132726060830184612a0f565b95945050505050565b613284816129dc565b811461328e575f80fd5b50565b5f8151905061329f8161327b565b92915050565b5f602082840312156132ba576132b9612909565b5b5f6132c784828501613291565b91505092915050565b5f815190506132de81612974565b92915050565b5f602082840312156132f9576132f8612909565b5b5f613306848285016132d0565b91505092915050565b5f60a0820190506133225f830188612ba1565b61332f6020830187612ba1565b61333c6040830186612a0f565b6133496060830185612a0f565b6133566080830184612a0f565b9695505050505050565b7f56616c69646174696f6e206f662064656274206c697374206661696c65642e005f82015250565b5f613394601f8361287a565b915061339f82613360565b602082019050919050565b5f6020820190508181035f8301526133c181613388565b9050919050565b7f4e6f7420656e6f75676820746f6b656e7320617661696c61626c652e000000005f82015250565b5f6133fc601c8361287a565b9150613407826133c8565b602082019050919050565b5f6020820190508181035f830152613429816133f0565b9050919050565b7f446562746f7227732062616c616e6365206973206e6f74206869676820656e6f5f8201527f7567682e00000000000000000000000000000000000000000000000000000000602082015250565b5f61348a60248361287a565b915061349582613430565b604082019050919050565b5f6020820190508181035f8301526134b78161347e565b9050919050565b5f6060820190506134d15f830186612ba1565b6134de6020830185612ba1565b6134eb6040830184612a0f565b949350505050565b5f6134fd8261296b565b91506135088361296b565b92508282039050818111156135205761351f6130a1565b5b92915050565b5f61353861353384612f2a565b612f10565b90508281526020810184848401111561355457613553612eae565b5b61355f84828561288a565b509392505050565b5f82601f83011261357b5761357a612eaa565b5b815161358b848260208601613526565b91505092915050565b5f602082840312156135a9576135a8612909565b5b5f82015167ffffffffffffffff8111156135c6576135c561290d565b5b6135d284828501613567565b91505092915050565b5f60c0820190506135ee5f830189612b14565b6135fb6020830188612ba1565b6136086040830187612ba1565b6136156060830186612a0f565b6136226080830185612a0f565b61362f60a0830184612a0f565b979650505050505050565b5f60408201905061364d5f830185612ba1565b61365a6020830184612ba1565b9392505050565b7f596f75722063726564697420697320746f6f206c6f772e0000000000000000005f82015250565b5f61369560178361287a565b91506136a082613661565b602082019050919050565b5f6020820190508181035f8301526136c281613689565b9050919050565b7f496e73756666696369656e742062616c616e63650000000000000000000000005f82015250565b5f6136fd60148361287a565b9150613708826136c9565b602082019050919050565b5f6020820190508181035f83015261372a816136f1565b9050919050565b5f6040820190506137445f830185612ba1565b818103602083015261375681846128a8565b90509392505050565b5f8151905061376d81612d2c565b92915050565b5f806040838503121561378957613788612909565b5b5f61379685828601613291565b92505060206137a78582860161375f565b9150509250929050565b5f815190506137bf81612941565b92915050565b5f80604083850312156137db576137da612909565b5b5f6137e8858286016137b1565b92505060206137f9858286016132d0565b9150509250929050565b5f6060820190506138165f830186612ba1565b6138236020830185612a0f565b6138306040830184612a0f565b949350505050565b7f4e487b71000000000000000000000000000000000000000000000000000000005f52601260045260245ffd5b5f61386f8261296b565b915061387a8361296b565b92508261388a57613889613838565b5b828204905092915050565b5f60a0820190506138a85f830188612b14565b6138b56020830187612b14565b6138c26040830186612b14565b6138cf6060830185612a0f565b6138dc6080830184612ba1565b9695505050505050565b5f6080820190506138f95f830187612b14565b6139066020830186612ae3565b6139136040830185612b14565b6139206060830184612b14565b95945050505050565b7f4e487b71000000000000000000000000000000000000000000000000000000005f52602160045260245ffdfea26469706673582212205d3150fcd5e11bd98a303c822f36d05b006f96c0ac07d3ea25ee18f51a92a0d864736f6c6343000819003360806040525f60045f6101000a81548160ff0219169083151502179055503480156027575f80fd5b50613e7a806100355f395ff3fe6080604052600436106100e7575f3560e01c8063768bb81f11610089578063b57161f511610058578063b57161f514610328578063d18e262e14610369578063f5b92c7314610391578063fe8ed985146103c1576100e7565b8063768bb81f1461026e5780639a5c5e6414610298578063a69e8bb9146102d4578063afe40e09146102fe576100e7565b806335e30ae4116100c557806335e30ae41461018e57806339769e08146101cb5780635795fe071461020857806360416a9c14610244576100e7565b806309d70853146100eb578063207a296a1461011657806333ecb31e14610152575b5f80fd5b3480156100f6575f80fd5b506100ff6103eb565b60405161010d929190611607565b60405180910390f35b348015610121575f80fd5b5061013c60048036038101906101379190611693565b6104de565b6040516101499190611724565b60405180910390f35b34801561015d575f80fd5b506101786004803603810190610173919061173d565b6107b8565b604051610185919061180e565b60405180910390f35b348015610199575f80fd5b506101b460048036038101906101af9190611963565b6108b5565b6040516101c29291906119d5565b60405180910390f35b3480156101d6575f80fd5b506101f160048036038101906101ec919061173d565b610987565b6040516101ff929190611607565b60405180910390f35b348015610213575f80fd5b5061022e6004803603810190610229919061173d565b610a1a565b60405161023b9190611724565b60405180910390f35b34801561024f575f80fd5b50610258610a66565b60405161026591906119fc565b60405180910390f35b348015610279575f80fd5b50610282610a6f565b60405161028f91906119fc565b60405180910390f35b3480156102a3575f80fd5b506102be60048036038101906102b99190611a15565b610a75565b6040516102cb9190611724565b60405180910390f35b3480156102df575f80fd5b506102e8610ceb565b6040516102f591906119fc565b60405180910390f35b348015610309575f80fd5b50610312610cf4565b60405161031f9190611ad4565b60405180910390f35b348015610333575f80fd5b5061034e6004803603810190610349919061173d565b610d1c565b60405161036096959493929190611aed565b60405180910390f35b348015610374575f80fd5b5061038f600480360381019061038a9190611b4c565b610d8b565b005b6103ab60048036038101906103a69190611bfb565b610ec3565b6040516103b891906119fc565b60405180910390f35b3480156103cc575f80fd5b506103d5611397565b6040516103e29190611c4b565b60405180910390f35b5f806104535f80600460019054906101000a900473ffffffffffffffffffffffffffffffffffffffff1673ffffffffffffffffffffffffffffffffffffffff1673ffffffffffffffffffffffffffffffffffffffff1681526020019081526020015f206113c0565b60055460035f8282546104669190611c91565b925050819055506104d35f80600460019054906101000a900473ffffffffffffffffffffffffffffffffffffffff1673ffffffffffffffffffffffffffffffffffffffff1673ffffffffffffffffffffffffffffffffffffffff1681526020019081526020015f206113e0565b600554915091509091565b5f806105245f808973ffffffffffffffffffffffffffffffffffffffff1673ffffffffffffffffffffffffffffffffffffffff1681526020019081526020015f2061140b565b03610564576040517f08c379a000000000000000000000000000000000000000000000000000000000815260040161055b90611d1e565b60405180910390fd5b5f84116105a6576040517f08c379a000000000000000000000000000000000000000000000000000000000815260040161059d90611dac565b60405180910390fd5b5f83116105e8576040517f08c379a00000000000000000000000000000000000000000000000000000000081526004016105df90611e3a565b60405180910390fd5b5f805f8873ffffffffffffffffffffffffffffffffffffffff1673ffffffffffffffffffffffffffffffffffffffff1681526020019081526020015f2090508573ffffffffffffffffffffffffffffffffffffffff16610647826113e0565b73ffffffffffffffffffffffffffffffffffffffff1614801561067157508461066f8261140b565b145b801561068457508361068282611418565b145b6106c3576040517f08c379a00000000000000000000000000000000000000000000000000000000081526004016106ba90611ea2565b60405180910390fd5b610711425f808a73ffffffffffffffffffffffffffffffffffffffff1673ffffffffffffffffffffffffffffffffffffffff1681526020019081526020015f2061142590919063ffffffff16565b6107555f808973ffffffffffffffffffffffffffffffffffffffff1673ffffffffffffffffffffffffffffffffffffffff1681526020019081526020015f20611432565b846001546107639190611ec0565b600181905550826003546107779190611ec0565b600381905550847f5a15159ae6cc037791b91af8bdaac630acda5e3641915b25fbcb6394ae990b9260405160405180910390a2600191505095945050505050565b6107c0611559565b5f808373ffffffffffffffffffffffffffffffffffffffff1673ffffffffffffffffffffffffffffffffffffffff1681526020019081526020015f206040518060c00160405290815f82015f9054906101000a900473ffffffffffffffffffffffffffffffffffffffff1673ffffffffffffffffffffffffffffffffffffffff1673ffffffffffffffffffffffffffffffffffffffff168152602001600182015481526020016002820154815260200160038201548152602001600482015f9054906101000a900460ff161515151581526020016004820160019054906101000a900460ff1615151515815250509050919050565b5f805f8060065f9054906101000a900473ffffffffffffffffffffffffffffffffffffffff1673ffffffffffffffffffffffffffffffffffffffff16634fc8a99187876040518363ffffffff1660e01b8152600401610915929190611f43565b60408051808303815f875af1158015610930573d5f803e3d5ffd5b505050506040513d601f19601f820116820180604052508101906109549190611fc5565b915091508115610978575f60045f6101000a81548160ff0219169083151502179055505b81819350935050509250929050565b5f806109cd5f808573ffffffffffffffffffffffffffffffffffffffff1673ffffffffffffffffffffffffffffffffffffffff1681526020019081526020015f206113e0565b610a115f808673ffffffffffffffffffffffffffffffffffffffff1673ffffffffffffffffffffffffffffffffffffffff1681526020019081526020015f2061140b565b91509150915091565b5f610a5f5f808473ffffffffffffffffffffffffffffffffffffffff1673ffffffffffffffffffffffffffffffffffffffff1681526020019081526020015f20611451565b9050919050565b5f600154905090565b60035481565b5f80610abb5f808873ffffffffffffffffffffffffffffffffffffffff1673ffffffffffffffffffffffffffffffffffffffff1681526020019081526020015f2061140b565b14610afb576040517f08c379a0000000000000000000000000000000000000000000000000000000008152600401610af29061204d565b60405180910390fd5b5f8311610b3d576040517f08c379a0000000000000000000000000000000000000000000000000000000008152600401610b3490611dac565b60405180910390fd5b5f8211610b7f576040517f08c379a0000000000000000000000000000000000000000000000000000000008152600401610b7690611e3a565b60405180910390fd5b73__$6ad00e6422a175cffb7ecfa79adae0f0ed$__6315533aa3858585425f806040518763ffffffff1660e01b8152600401610bc096959493929190612098565b60c060405180830381865af4158015610bdb573d5f803e3d5ffd5b505050506040513d601f19601f82011682018060405250810190610bff91906121c0565b5f808773ffffffffffffffffffffffffffffffffffffffff1673ffffffffffffffffffffffffffffffffffffffff1681526020019081526020015f205f820151815f015f6101000a81548173ffffffffffffffffffffffffffffffffffffffff021916908373ffffffffffffffffffffffffffffffffffffffff1602179055506020820151816001015560408201518160020155606082015181600301556080820151816004015f6101000a81548160ff02191690831515021790555060a08201518160040160016101000a81548160ff02191690831515021790555090505060019050949350505050565b5f600354905090565b5f60065f9054906101000a900473ffffffffffffffffffffffffffffffffffffffff16905090565b5f602052805f5260405f205f91509050805f015f9054906101000a900473ffffffffffffffffffffffffffffffffffffffff1690806001015490806002015490806003015490806004015f9054906101000a900460ff16908060040160019054906101000a900460ff16905086565b5f151560045f9054906101000a900460ff16151514610ddf576040517f08c379a0000000000000000000000000000000000000000000000000000000008152600401610dd690612281565b60405180910390fd5b600160045f6101000a81548160ff02191690831515021790555084600460016101000a81548173ffffffffffffffffffffffffffffffffffffffff021916908373ffffffffffffffffffffffffffffffffffffffff160217905550836005819055506005600354848484604051610e55906115a3565b610e639594939291906122e4565b604051809103905ff080158015610e7c573d5f803e3d5ffd5b5060065f6101000a81548173ffffffffffffffffffffffffffffffffffffffff021916908373ffffffffffffffffffffffffffffffffffffffff1602179055505050505050565b5f8273ffffffffffffffffffffffffffffffffffffffff16610f1f5f808773ffffffffffffffffffffffffffffffffffffffff1673ffffffffffffffffffffffffffffffffffffffff1681526020019081526020015f206113e0565b73ffffffffffffffffffffffffffffffffffffffff1614610f75576040517f08c379a0000000000000000000000000000000000000000000000000000000008152600401610f6c906123b3565b60405180910390fd5b5f610f7f8361146b565b90508083610f8d9190611c91565b92508060035f828254610fa09190611ec0565b925050819055505f610fec5f808873ffffffffffffffffffffffffffffffffffffffff1673ffffffffffffffffffffffffffffffffffffffff1681526020019081526020015f2061140b565b90505f611081826110375f808b73ffffffffffffffffffffffffffffffffffffffff1673ffffffffffffffffffffffffffffffffffffffff1681526020019081526020015f206114ad565b4261107c5f808d73ffffffffffffffffffffffffffffffffffffffff1673ffffffffffffffffffffffffffffffffffffffff1681526020019081526020015f20611418565b6114ba565b90508060015f8282546110949190611ec0565b925050819055506110f481836110aa9190611ec0565b5f808a73ffffffffffffffffffffffffffffffffffffffff1673ffffffffffffffffffffffffffffffffffffffff1681526020019081526020015f2061154c90919063ffffffff16565b5f6111395f808a73ffffffffffffffffffffffffffffffffffffffff1673ffffffffffffffffffffffffffffffffffffffff1681526020019081526020015f2061140b565b9050611189425f808b73ffffffffffffffffffffffffffffffffffffffff1673ffffffffffffffffffffffffffffffffffffffff1681526020019081526020015f2061142590919063ffffffff16565b5f86821190505f8115611275576111ef88846111a59190611c91565b5f808d73ffffffffffffffffffffffffffffffffffffffff1673ffffffffffffffffffffffffffffffffffffffff1681526020019081526020015f2061154c90919063ffffffff16565b5f886001546111fe9190611c91565b101561123f576040517f08c379a000000000000000000000000000000000000000000000000000000000815260040161123690612441565b60405180910390fd5b8760015461124d9190611c91565b600181905550876002546112619190611ec0565b600281905550879650505050505050611390565b82886112819190611c91565b90506112d15f805f8d73ffffffffffffffffffffffffffffffffffffffff1673ffffffffffffffffffffffffffffffffffffffff1681526020019081526020015f2061154c90919063ffffffff16565b5f81896112de9190611c91565b90505f816001546112ef9190611c91565b1015611330576040517f08c379a000000000000000000000000000000000000000000000000000000000815260040161132790612441565b60405180910390fd5b8060015461133e9190611c91565b600181905550806002546113529190611ec0565b600281905550807f9475536cefb174883c3cdb7fc9b15f91d30b23b31537fa0bba2cc40bae9cc67060405160405180910390a2819750505050505050505b9392505050565b5f600460019054906101000a900473ffffffffffffffffffffffffffffffffffffffff16905090565b60018160040160016101000a81548160ff02191690831515021790555050565b5f815f015f9054906101000a900473ffffffffffffffffffffffffffffffffffffffff169050919050565b5f81600101549050919050565b5f81600201549050919050565b8082600301819055505050565b6001816004015f6101000a81548160ff02191690831515021790555050565b5f8160040160019054906101000a900460ff169050919050565b5f80600190505f8161ffff16606485611484919061248c565b61148e91906124bc565b90505f81036114a2576001925050506114a8565b80925050505b919050565b5f81600301549050919050565b5f838310156114fe576040517f08c379a00000000000000000000000000000000000000000000000000000000081526004016114f59061256d565b60405180910390fd5b5f601e858561150d9190611c91565b611517919061248c565b90505f6064848861152891906124bc565b611532919061248c565b9050808261154091906124bc565b92505050949350505050565b8082600101819055505050565b6040518060c001604052805f73ffffffffffffffffffffffffffffffffffffffff1681526020015f81526020015f81526020015f81526020015f151581526020015f151581525090565b6118b98061258c83390190565b5f73ffffffffffffffffffffffffffffffffffffffff82169050919050565b5f6115d9826115b0565b9050919050565b6115e9816115cf565b82525050565b5f819050919050565b611601816115ef565b82525050565b5f60408201905061161a5f8301856115e0565b61162760208301846115f8565b9392505050565b5f604051905090565b5f80fd5b5f80fd5b611648816115cf565b8114611652575f80fd5b50565b5f813590506116638161163f565b92915050565b611672816115ef565b811461167c575f80fd5b50565b5f8135905061168d81611669565b92915050565b5f805f805f60a086880312156116ac576116ab611637565b5b5f6116b988828901611655565b95505060206116ca88828901611655565b94505060406116db8882890161167f565b93505060606116ec8882890161167f565b92505060806116fd8882890161167f565b9150509295509295909350565b5f8115159050919050565b61171e8161170a565b82525050565b5f6020820190506117375f830184611715565b92915050565b5f6020828403121561175257611751611637565b5b5f61175f84828501611655565b91505092915050565b611771816115cf565b82525050565b611780816115ef565b82525050565b61178f8161170a565b82525050565b60c082015f8201516117a95f850182611768565b5060208201516117bc6020850182611777565b5060408201516117cf6040850182611777565b5060608201516117e26060850182611777565b5060808201516117f56080850182611786565b5060a082015161180860a0850182611786565b50505050565b5f60c0820190506118215f830184611795565b92915050565b5f80fd5b5f80fd5b5f601f19601f8301169050919050565b7f4e487b71000000000000000000000000000000000000000000000000000000005f52604160045260245ffd5b6118758261182f565b810181811067ffffffffffffffff821117156118945761189361183f565b5b80604052505050565b5f6118a661162e565b90506118b2828261186c565b919050565b5f67ffffffffffffffff8211156118d1576118d061183f565b5b6118da8261182f565b9050602081019050919050565b828183375f83830152505050565b5f611907611902846118b7565b61189d565b9050828152602081018484840111156119235761192261182b565b5b61192e8482856118e7565b509392505050565b5f82601f83011261194a57611949611827565b5b813561195a8482602086016118f5565b91505092915050565b5f806040838503121561197957611978611637565b5b5f61198685828601611655565b925050602083013567ffffffffffffffff8111156119a7576119a661163b565b5b6119b385828601611936565b9150509250929050565b5f819050919050565b6119cf816119bd565b82525050565b5f6040820190506119e85f830185611715565b6119f560208301846119c6565b9392505050565b5f602082019050611a0f5f8301846115f8565b92915050565b5f805f8060808587031215611a2d57611a2c611637565b5b5f611a3a87828801611655565b9450506020611a4b87828801611655565b9350506040611a5c8782880161167f565b9250506060611a6d8782880161167f565b91505092959194509250565b5f819050919050565b5f611a9c611a97611a92846115b0565b611a79565b6115b0565b9050919050565b5f611aad82611a82565b9050919050565b5f611abe82611aa3565b9050919050565b611ace81611ab4565b82525050565b5f602082019050611ae75f830184611ac5565b92915050565b5f60c082019050611b005f8301896115e0565b611b0d60208301886115f8565b611b1a60408301876115f8565b611b2760608301866115f8565b611b346080830185611715565b611b4160a0830184611715565b979650505050505050565b5f805f805f60a08688031215611b6557611b64611637565b5b5f611b7288828901611655565b9550506020611b838882890161167f565b945050604086013567ffffffffffffffff811115611ba457611ba361163b565b5b611bb088828901611936565b935050606086013567ffffffffffffffff811115611bd157611bd061163b565b5b611bdd88828901611936565b9250506080611bee8882890161167f565b9150509295509295909350565b5f805f60608486031215611c1257611c11611637565b5b5f611c1f86828701611655565b9350506020611c3086828701611655565b9250506040611c418682870161167f565b9150509250925092565b5f602082019050611c5e5f8301846115e0565b92915050565b7f4e487b71000000000000000000000000000000000000000000000000000000005f52601160045260245ffd5b5f611c9b826115ef565b9150611ca6836115ef565b9250828203905081811115611cbe57611cbd611c64565b5b92915050565b5f82825260208201905092915050565b7f446562746f7220646f65736e27742065786973742e00000000000000000000005f82015250565b5f611d08601583611cc4565b9150611d1382611cd4565b602082019050919050565b5f6020820190508181035f830152611d3581611cfc565b9050919050565b7f416d6f756e74206f662064656274206861766520746f206265206772656174655f8201527f72207468616e20302e0000000000000000000000000000000000000000000000602082015250565b5f611d96602983611cc4565b9150611da182611d3c565b604082019050919050565b5f6020820190508181035f830152611dc381611d8a565b9050919050565b7f496e7465726573742068617320746f2062652067726561746572207468616e205f8201527f302e000000000000000000000000000000000000000000000000000000000000602082015250565b5f611e24602283611cc4565b9150611e2f82611dca565b604082019050919050565b5f6020820190508181035f830152611e5181611e18565b9050919050565b7f56616c69646174696f6e206661696c65642e00000000000000000000000000005f82015250565b5f611e8c601283611cc4565b9150611e9782611e58565b602082019050919050565b5f6020820190508181035f830152611eb981611e80565b9050919050565b5f611eca826115ef565b9150611ed5836115ef565b9250828201905080821115611eed57611eec611c64565b5b92915050565b5f81519050919050565b8281835e5f83830152505050565b5f611f1582611ef3565b611f1f8185611cc4565b9350611f2f818560208601611efd565b611f388161182f565b840191505092915050565b5f604082019050611f565f8301856115e0565b8181036020830152611f688184611f0b565b90509392505050565b611f7a8161170a565b8114611f84575f80fd5b50565b5f81519050611f9581611f71565b92915050565b611fa4816119bd565b8114611fae575f80fd5b50565b5f81519050611fbf81611f9b565b92915050565b5f8060408385031215611fdb57611fda611637565b5b5f611fe885828601611f87565b9250506020611ff985828601611fb1565b9150509250929050565b7f446562746f7220616c7265616479206861766520646562742e000000000000005f82015250565b5f612037601983611cc4565b915061204282612003565b602082019050919050565b5f6020820190508181035f8301526120648161202b565b9050919050565b612074816115cf565b82525050565b612083816115ef565b82525050565b6120928161170a565b82525050565b5f60c0820190506120ab5f83018961206b565b6120b8602083018861207a565b6120c5604083018761207a565b6120d2606083018661207a565b6120df6080830185612089565b6120ec60a0830184612089565b979650505050505050565b5f80fd5b5f815190506121098161163f565b92915050565b5f8151905061211d81611669565b92915050565b5f60c08284031215612138576121376120f7565b5b61214260c061189d565b90505f612151848285016120fb565b5f8301525060206121648482850161210f565b60208301525060406121788482850161210f565b604083015250606061218c8482850161210f565b60608301525060806121a084828501611f87565b60808301525060a06121b484828501611f87565b60a08301525092915050565b5f60c082840312156121d5576121d4611637565b5b5f6121e284828501612123565b91505092915050565b7f54616b696e67207069656365206f6620646562742066756e6420697320616c725f8201527f6561647920696e2070726f676573732e2054727920616761696e206c6174657260208201527f2e00000000000000000000000000000000000000000000000000000000000000604082015250565b5f61226b604183611cc4565b9150612276826121eb565b606082019050919050565b5f6020820190508181035f8301526122988161225f565b9050919050565b5f819050919050565b5f60ff82169050919050565b5f6122ce6122c96122c48461229f565b611a79565b6122a8565b9050919050565b6122de816122b4565b82525050565b5f60a0820190506122f75f8301886122d5565b61230460208301876115f8565b81810360408301526123168186611f0b565b9050818103606083015261232a8185611f0b565b905061233960808301846115f8565b9695505050505050565b7f446562746f722d4372656469742d5061697220697320756e7661696c61626c655f8201527f2e00000000000000000000000000000000000000000000000000000000000000602082015250565b5f61239d602183611cc4565b91506123a882612343565b604082019050919050565b5f6020820190508181035f8301526123ca81612391565b9050919050565b7f456e642063757272656e74206465627420616d6f756e742073686f756c6420625f8201527f652067726561746572207468616e20302e000000000000000000000000000000602082015250565b5f61242b603183611cc4565b9150612436826123d1565b604082019050919050565b5f6020820190508181035f8301526124588161241f565b9050919050565b7f4e487b71000000000000000000000000000000000000000000000000000000005f52601260045260245ffd5b5f612496826115ef565b91506124a1836115ef565b9250826124b1576124b061245f565b5b828204905092915050565b5f6124c6826115ef565b91506124d1836115ef565b92508282026124df816115ef565b915082820484148315176124f6576124f5611c64565b5b5092915050565b7f537461727420616e6420656e642074696d657374616d707320646f6e2774206d5f8201527f6174636800000000000000000000000000000000000000000000000000000000602082015250565b5f612557602483611cc4565b9150612562826124fd565b604082019050919050565b5f6020820190508181035f8301526125848161254b565b905091905056fe6080604052600160075f6101000a81548160ff021916908360ff1602179055505f600a5f6101000a81548160ff021916908360ff160217905550609060f81b600a60016101000a81548160ff021916908360f81c0217905550348015610063575f80fd5b506040516118b93803806118b983398181016040528101906100859190610725565b43600581905550600554406006819055508460045f6101000a81548160ff021916908360ff160217905550835f8190555082600290816100c591906109d8565b5081600390816100d591906109d8565b50806001819055506100eb61016460201b60201c565b600890816100f991906109d8565b5061010b6001546102ca60201b60201c565b60098190555060086040516101209190610b31565b60405180910390206006546005547f9f4da1eb02e98b4ab1d9b713f225d0f993b2222a21852024e9d90204be64706a60405160405180910390a45050505050610d5f565b60605f6009546001546101779190610b74565b9050805f5410156101bd576040517f08c379a00000000000000000000000000000000000000000000000000000000081526004016101b490610c01565b60405180910390fd5b5f6101ce5f546102f860201b60201c565b90505f6101e26001546102f860201b60201c565b90505f600380546101f29061080b565b80601f016020809104026020016040519081016040528092919081815260200182805461021e9061080b565b80156102695780601f1061024057610100808354040283529160200191610269565b820191905f5260205f20905b81548152906001019060200180831161024c57829003601f168201915b505050505090505f6006546040516020016102849190610c48565b60405160208183030381529060405290505f828585846040516020016102ad9493929190610c92565b604051602081830303815290604052905080965050505050505090565b5f806102ed8360045f9054906101000a900460ff1660ff166103c860201b60201c565b905080915050919050565b60605f600161030c8461041e60201b60201c565b0190505f8167ffffffffffffffff81111561032a57610329610601565b5b6040519080825280601f01601f19166020018201604052801561035c5781602001600182028036833780820191505090505b5090505f82602001820190505b6001156103bd578080600190039150507f3031323334353637383961626364656600000000000000000000000000000000600a86061a8153600a85816103b2576103b1610ccf565b5b0494505f8503610369575b819350505050919050565b5f8082036103e35781836103dc9190610cfc565b9050610418565b5f8314610413576001826001856103fa9190610d2c565b6104049190610cfc565b61040e9190610b74565b610415565b5f5b90505b92915050565b5f805f90507a184f03e93ff9f4daa797ed6e38ed64bf6a1f010000000000000000831061047a577a184f03e93ff9f4daa797ed6e38ed64bf6a1f01000000000000000083816104705761046f610ccf565b5b0492506040810190505b6d04ee2d6d415b85acef810000000083106104b7576d04ee2d6d415b85acef810000000083816104ad576104ac610ccf565b5b0492506020810190505b662386f26fc1000083106104e657662386f26fc1000083816104dc576104db610ccf565b5b0492506010810190505b6305f5e100831061050f576305f5e100838161050557610504610ccf565b5b0492506008810190505b612710831061053457612710838161052a57610529610ccf565b5b0492506004810190505b60648310610557576064838161054d5761054c610ccf565b5b0492506002810190505b600a8310610566576001810190505b80915050919050565b5f604051905090565b5f80fd5b5f80fd5b5f60ff82169050919050565b61059581610580565b811461059f575f80fd5b50565b5f815190506105b08161058c565b92915050565b5f819050919050565b6105c8816105b6565b81146105d2575f80fd5b50565b5f815190506105e3816105bf565b92915050565b5f80fd5b5f80fd5b5f601f19601f8301169050919050565b7f4e487b71000000000000000000000000000000000000000000000000000000005f52604160045260245ffd5b610637826105f1565b810181811067ffffffffffffffff8211171561065657610655610601565b5b80604052505050565b5f61066861056f565b9050610674828261062e565b919050565b5f67ffffffffffffffff82111561069357610692610601565b5b61069c826105f1565b9050602081019050919050565b8281835e5f83830152505050565b5f6106c96106c484610679565b61065f565b9050828152602081018484840111156106e5576106e46105ed565b5b6106f08482856106a9565b509392505050565b5f82601f83011261070c5761070b6105e9565b5b815161071c8482602086016106b7565b91505092915050565b5f805f805f60a0868803121561073e5761073d610578565b5b5f61074b888289016105a2565b955050602061075c888289016105d5565b945050604086015167ffffffffffffffff81111561077d5761077c61057c565b5b610789888289016106f8565b935050606086015167ffffffffffffffff8111156107aa576107a961057c565b5b6107b6888289016106f8565b92505060806107c7888289016105d5565b9150509295509295909350565b5f81519050919050565b7f4e487b71000000000000000000000000000000000000000000000000000000005f52602260045260245ffd5b5f600282049050600182168061082257607f821691505b602082108103610835576108346107de565b5b50919050565b5f819050815f5260205f209050919050565b5f6020601f8301049050919050565b5f82821b905092915050565b5f600883026108977fffffffffffffffffffffffffffffffffffffffffffffffffffffffffffffffff8261085c565b6108a1868361085c565b95508019841693508086168417925050509392505050565b5f819050919050565b5f6108dc6108d76108d2846105b6565b6108b9565b6105b6565b9050919050565b5f819050919050565b6108f5836108c2565b610909610901826108e3565b848454610868565b825550505050565b5f90565b61091d610911565b6109288184846108ec565b505050565b5b8181101561094b576109405f82610915565b60018101905061092e565b5050565b601f821115610990576109618161083b565b61096a8461084d565b81016020851015610979578190505b61098d6109858561084d565b83018261092d565b50505b505050565b5f82821c905092915050565b5f6109b05f1984600802610995565b1980831691505092915050565b5f6109c883836109a1565b9150826002028217905092915050565b6109e1826107d4565b67ffffffffffffffff8111156109fa576109f9610601565b5b610a04825461080b565b610a0f82828561094f565b5f60209050601f831160018114610a40575f8415610a2e578287015190505b610a3885826109bd565b865550610a9f565b601f198416610a4e8661083b565b5f5b82811015610a7557848901518255600182019150602085019450602081019050610a50565b86831015610a925784890151610a8e601f8916826109a1565b8355505b6001600288020188555050505b505050505050565b5f81905092915050565b5f8154610abd8161080b565b610ac78186610aa7565b9450600182165f8114610ae15760018114610af657610b28565b60ff1983168652811515820286019350610b28565b610aff8561083b565b5f5b83811015610b2057815481890152600182019150602081019050610b01565b838801955050505b50505092915050565b5f610b3c8284610ab1565b915081905092915050565b7f4e487b71000000000000000000000000000000000000000000000000000000005f52601160045260245ffd5b5f610b7e826105b6565b9150610b89836105b6565b9250828201905080821115610ba157610ba0610b47565b5b92915050565b5f82825260208201905092915050565b7f4e6f7420656e6f75676820746f6b656e7320617661696c61626c652e000000005f82015250565b5f610beb601c83610ba7565b9150610bf682610bb7565b602082019050919050565b5f6020820190508181035f830152610c1881610bdf565b9050919050565b5f819050919050565b5f819050919050565b610c42610c3d82610c1f565b610c28565b82525050565b5f610c538284610c31565b60208201915081905092915050565b5f610c6c826107d4565b610c768185610aa7565b9350610c868185602086016106a9565b80840191505092915050565b5f610c9d8287610c62565b9150610ca98286610c62565b9150610cb58285610c62565b9150610cc18284610c62565b915081905095945050505050565b7f4e487b71000000000000000000000000000000000000000000000000000000005f52601260045260245ffd5b5f610d06826105b6565b9150610d11836105b6565b925082610d2157610d20610ccf565b5b828204905092915050565b5f610d36826105b6565b9150610d41836105b6565b9250828203905081811115610d5957610d58610b47565b5b92915050565b610b4d80610d6c5f395ff3fe608060405234801561000f575f80fd5b50600436106100b2575f3560e01c80636a49f9791161006f5780636a49f9791461017d57806395d89b411461019b578063b62a62ec146101b9578063e8315742146101d7578063f22a195e146101f5578063f82900b114610213576100b2565b80630572b0cc146100b657806306fdde03146100d457806318160ddd146100f25780633ba0b9a9146101105780634fc8a9911461012e57806357e871e71461015f575b5f80fd5b6100be610231565b6040516100cb9190610609565b60405180910390f35b6100dc61023a565b6040516100e99190610692565b60405180910390f35b6100fa6102c6565b6040516101079190610609565b60405180910390f35b6101186102cc565b60405161012591906106cd565b60405180910390f35b6101486004803603810190610143919061087d565b6102de565b604051610156929190610909565b60405180910390f35b610167610432565b6040516101749190610609565b60405180910390f35b610185610438565b6040516101929190610692565b60405180910390f35b6101a36104c4565b6040516101b09190610692565b60405180910390f35b6101c1610550565b6040516101ce9190610692565b60405180910390f35b6101df6105e0565b6040516101ec9190610609565b60405180910390f35b6101fd6105e5565b60405161020a9190610930565b60405180910390f35b61021b6105eb565b6040516102289190610609565b60405180910390f35b5f600954905090565b6003805461024790610976565b80601f016020809104026020016040519081016040528092919081815260200182805461027390610976565b80156102be5780601f10610295576101008083540402835291602001916102be565b820191905f5260205f20905b8154815290600101906020018083116102a157829003601f168201915b505050505081565b60015481565b60045f9054906101000a900460ff1681565b5f805f6008846040516020016102f5929190610a72565b60405160208183030381529060405290505f816040516020016103189190610692565b6040516020818303038152906040528051906020012090505f5b60208160ff1611610421575f828260ff166020811061035457610353610a95565b5b1a60f81b9050600a60019054906101000a900460f81b7effffffffffffffffffffffffffffffffffffffffffffffffffffffffffffff1916817effffffffffffffffffffffffffffffffffffffffffffffffffffffffffffff19160361040d576009546005548973ffffffffffffffffffffffffffffffffffffffff167f5a9ec13c12ca9563a7b3108125f74c57ed388bb313394ea50f7e4a71b01497c260405160405180910390a4600183955095505050505061042b565b50808061041990610aef565b915050610332565b505f819350935050505b9250929050565b60055481565b6008805461044590610976565b80601f016020809104026020016040519081016040528092919081815260200182805461047190610976565b80156104bc5780601f10610493576101008083540402835291602001916104bc565b820191905f5260205f20905b81548152906001019060200180831161049f57829003601f168201915b505050505081565b600280546104d190610976565b80601f01602080910402602001604051908101604052809291908181526020018280546104fd90610976565b80156105485780601f1061051f57610100808354040283529160200191610548565b820191905f5260205f20905b81548152906001019060200180831161052b57829003601f168201915b505050505081565b60606008805461055f90610976565b80601f016020809104026020016040519081016040528092919081815260200182805461058b90610976565b80156105d65780601f106105ad576101008083540402835291602001916105d6565b820191905f5260205f20905b8154815290600101906020018083116105b957829003601f168201915b5050505050905090565b5f5481565b60065481565b60095481565b5f819050919050565b610603816105f1565b82525050565b5f60208201905061061c5f8301846105fa565b92915050565b5f81519050919050565b5f82825260208201905092915050565b8281835e5f83830152505050565b5f601f19601f8301169050919050565b5f61066482610622565b61066e818561062c565b935061067e81856020860161063c565b6106878161064a565b840191505092915050565b5f6020820190508181035f8301526106aa818461065a565b905092915050565b5f60ff82169050919050565b6106c7816106b2565b82525050565b5f6020820190506106e05f8301846106be565b92915050565b5f604051905090565b5f80fd5b5f80fd5b5f73ffffffffffffffffffffffffffffffffffffffff82169050919050565b5f610720826106f7565b9050919050565b61073081610716565b811461073a575f80fd5b50565b5f8135905061074b81610727565b92915050565b5f80fd5b5f80fd5b7f4e487b71000000000000000000000000000000000000000000000000000000005f52604160045260245ffd5b61078f8261064a565b810181811067ffffffffffffffff821117156107ae576107ad610759565b5b80604052505050565b5f6107c06106e6565b90506107cc8282610786565b919050565b5f67ffffffffffffffff8211156107eb576107ea610759565b5b6107f48261064a565b9050602081019050919050565b828183375f83830152505050565b5f61082161081c846107d1565b6107b7565b90508281526020810184848401111561083d5761083c610755565b5b610848848285610801565b509392505050565b5f82601f83011261086457610863610751565b5b813561087484826020860161080f565b91505092915050565b5f8060408385031215610893576108926106ef565b5b5f6108a08582860161073d565b925050602083013567ffffffffffffffff8111156108c1576108c06106f3565b5b6108cd85828601610850565b9150509250929050565b5f8115159050919050565b6108eb816108d7565b82525050565b5f819050919050565b610903816108f1565b82525050565b5f60408201905061091c5f8301856108e2565b61092960208301846108fa565b9392505050565b5f6020820190506109435f8301846108fa565b92915050565b7f4e487b71000000000000000000000000000000000000000000000000000000005f52602260045260245ffd5b5f600282049050600182168061098d57607f821691505b6020821081036109a05761099f610949565b5b50919050565b5f81905092915050565b5f819050815f5260205f209050919050565b5f81546109ce81610976565b6109d881866109a6565b9450600182165f81146109f25760018114610a0757610a39565b60ff1983168652811515820286019350610a39565b610a10856109b0565b5f5b83811015610a3157815481890152600182019150602081019050610a12565b838801955050505b50505092915050565b5f610a4c82610622565b610a5681856109a6565b9350610a6681856020860161063c565b80840191505092915050565b5f610a7d82856109c2565b9150610a898284610a42565b91508190509392505050565b7f4e487b71000000000000000000000000000000000000000000000000000000005f52603260045260245ffd5b7f4e487b71000000000000000000000000000000000000000000000000000000005f52601160045260245ffd5b5f610af9826106b2565b915060ff8203610b0c57610b0b610ac2565b5b60018201905091905056fea26469706673582212202ee99f0a55f292f0117329f20d9e897459eb6e84223f7b6467ba76b2a934f1f964736f6c63430008190033a26469706673582212206da253b8d976789eef597102709038636be2765a41b8e660174715f63cbcaba164736f6c63430008190033",
			"opcodes": "PUSH2 0x160 PUSH1 0x40 MSTORE PUSH5 0xE8D4A51000 PUSH1 0xA SSTORE PUSH1 0x61 PUSH1 0xB PUSH0 PUSH2 0x100 EXP DUP2 SLOAD DUP2 PUSH1 0xFF MUL NOT AND SWAP1 DUP4 PUSH1 0xFF AND MUL OR SWAP1 SSTORE POP PUSH0 PUSH1 0xC PUSH1 0x14 PUSH2 0x100 EXP DUP2 SLOAD DUP2 PUSH1 0xFF MUL NOT AND SWAP1 DUP4 ISZERO ISZERO MUL OR SWAP1 SSTORE POP CALLVALUE DUP1 ISZERO PUSH2 0x4E JUMPI PUSH0 DUP1 REVERT JUMPDEST POP PUSH1 0x40 MLOAD PUSH2 0x8319 CODESIZE SUB DUP1 PUSH2 0x8319 DUP4 CODECOPY DUP2 DUP2 ADD PUSH1 0x40 MSTORE DUP2 ADD SWAP1 PUSH2 0x70 SWAP2 SWAP1 PUSH2 0x5A0 JUMP JUMPDEST PUSH1 0x40 MLOAD DUP1 PUSH1 0x40 ADD PUSH1 0x40 MSTORE DUP1 PUSH1 0x11 DUP2 MSTORE PUSH1 0x20 ADD PUSH32 0x547261646520526F75746520546F6B656E000000000000000000000000000000 DUP2 MSTORE POP DUP1 PUSH1 0x40 MLOAD DUP1 PUSH1 0x40 ADD PUSH1 0x40 MSTORE DUP1 PUSH1 0x1 DUP2 MSTORE PUSH1 0x20 ADD PUSH32 0x3100000000000000000000000000000000000000000000000000000000000000 DUP2 MSTORE POP DUP4 PUSH1 0x40 MLOAD DUP1 PUSH1 0x40 ADD PUSH1 0x40 MSTORE DUP1 PUSH1 0x11 DUP2 MSTORE PUSH1 0x20 ADD PUSH32 0x547261646520526F75746520546F6B656E000000000000000000000000000000 DUP2 MSTORE POP PUSH1 0x40 MLOAD DUP1 PUSH1 0x40 ADD PUSH1 0x40 MSTORE DUP1 PUSH1 0x3 DUP2 MSTORE PUSH1 0x20 ADD PUSH32 0x5452540000000000000000000000000000000000000000000000000000000000 DUP2 MSTORE POP DUP2 PUSH1 0x3 SWAP1 DUP2 PUSH2 0x159 SWAP2 SWAP1 PUSH2 0x805 JUMP JUMPDEST POP DUP1 PUSH1 0x4 SWAP1 DUP2 PUSH2 0x169 SWAP2 SWAP1 PUSH2 0x805 JUMP JUMPDEST POP POP POP PUSH0 PUSH1 0x5 PUSH0 PUSH2 0x100 EXP DUP2 SLOAD DUP2 PUSH1 0xFF MUL NOT AND SWAP1 DUP4 ISZERO ISZERO MUL OR SWAP1 SSTORE POP PUSH0 PUSH20 0xFFFFFFFFFFFFFFFFFFFFFFFFFFFFFFFFFFFFFFFF AND DUP2 PUSH20 0xFFFFFFFFFFFFFFFFFFFFFFFFFFFFFFFFFFFFFFFF AND SUB PUSH2 0x1F5 JUMPI PUSH0 PUSH1 0x40 MLOAD PUSH32 0x1E4FBDF700000000000000000000000000000000000000000000000000000000 DUP2 MSTORE PUSH1 0x4 ADD PUSH2 0x1EC SWAP2 SWAP1 PUSH2 0x8E3 JUMP JUMPDEST PUSH1 0x40 MLOAD DUP1 SWAP2 SUB SWAP1 REVERT JUMPDEST PUSH2 0x204 DUP2 PUSH2 0x35B PUSH1 0x20 SHL PUSH1 0x20 SHR JUMP JUMPDEST POP PUSH2 0x219 PUSH1 0x6 DUP4 PUSH2 0x420 PUSH1 0x20 SHL SWAP1 SWAP2 SWAP1 PUSH1 0x20 SHR JUMP JUMPDEST PUSH2 0x120 DUP2 DUP2 MSTORE POP POP PUSH2 0x235 PUSH1 0x7 DUP3 PUSH2 0x420 PUSH1 0x20 SHL SWAP1 SWAP2 SWAP1 PUSH1 0x20 SHR JUMP JUMPDEST PUSH2 0x140 DUP2 DUP2 MSTORE POP POP DUP2 DUP1 MLOAD SWAP1 PUSH1 0x20 ADD KECCAK256 PUSH1 0xE0 DUP2 DUP2 MSTORE POP POP DUP1 DUP1 MLOAD SWAP1 PUSH1 0x20 ADD KECCAK256 PUSH2 0x100 DUP2 DUP2 MSTORE POP POP CHAINID PUSH1 0xA0 DUP2 DUP2 MSTORE POP POP PUSH2 0x272 PUSH2 0x46D PUSH1 0x20 SHL PUSH1 0x20 SHR JUMP JUMPDEST PUSH1 0x80 DUP2 DUP2 MSTORE POP POP ADDRESS PUSH20 0xFFFFFFFFFFFFFFFFFFFFFFFFFFFFFFFFFFFFFFFF AND PUSH1 0xC0 DUP2 PUSH20 0xFFFFFFFFFFFFFFFFFFFFFFFFFFFFFFFFFFFFFFFF AND DUP2 MSTORE POP POP POP POP POP DUP1 PUSH1 0x9 PUSH0 PUSH2 0x100 EXP DUP2 SLOAD DUP2 PUSH20 0xFFFFFFFFFFFFFFFFFFFFFFFFFFFFFFFFFFFFFFFF MUL NOT AND SWAP1 DUP4 PUSH20 0xFFFFFFFFFFFFFFFFFFFFFFFFFFFFFFFFFFFFFFFF AND MUL OR SWAP1 SSTORE POP PUSH1 0x40 MLOAD PUSH2 0x2FC SWAP1 PUSH2 0x535 JUMP JUMPDEST PUSH1 0x40 MLOAD DUP1 SWAP2 SUB SWAP1 PUSH0 CREATE DUP1 ISZERO DUP1 ISZERO PUSH2 0x315 JUMPI RETURNDATASIZE PUSH0 DUP1 RETURNDATACOPY RETURNDATASIZE PUSH0 REVERT JUMPDEST POP PUSH1 0xC PUSH0 PUSH2 0x100 EXP DUP2 SLOAD DUP2 PUSH20 0xFFFFFFFFFFFFFFFFFFFFFFFFFFFFFFFFFFFFFFFF MUL NOT AND SWAP1 DUP4 PUSH20 0xFFFFFFFFFFFFFFFFFFFFFFFFFFFFFFFFFFFFFFFF AND MUL OR SWAP1 SSTORE POP POP PUSH2 0xA8D JUMP JUMPDEST PUSH0 PUSH1 0x5 PUSH1 0x1 SWAP1 SLOAD SWAP1 PUSH2 0x100 EXP SWAP1 DIV PUSH20 0xFFFFFFFFFFFFFFFFFFFFFFFFFFFFFFFFFFFFFFFF AND SWAP1 POP DUP2 PUSH1 0x5 PUSH1 0x1 PUSH2 0x100 EXP DUP2 SLOAD DUP2 PUSH20 0xFFFFFFFFFFFFFFFFFFFFFFFFFFFFFFFFFFFFFFFF MUL NOT AND SWAP1 DUP4 PUSH20 0xFFFFFFFFFFFFFFFFFFFFFFFFFFFFFFFFFFFFFFFF AND MUL OR SWAP1 SSTORE POP DUP2 PUSH20 0xFFFFFFFFFFFFFFFFFFFFFFFFFFFFFFFFFFFFFFFF AND DUP2 PUSH20 0xFFFFFFFFFFFFFFFFFFFFFFFFFFFFFFFFFFFFFFFF AND PUSH32 0x8BE0079C531659141344CD1FD0A4F28419497F9722A3DAAFE3B4186F6B6457E0 PUSH1 0x40 MLOAD PUSH1 0x40 MLOAD DUP1 SWAP2 SUB SWAP1 LOG3 POP POP JUMP JUMPDEST PUSH0 PUSH1 0x20 DUP4 MLOAD LT ISZERO PUSH2 0x441 JUMPI PUSH2 0x43A DUP4 PUSH2 0x4C7 PUSH1 0x20 SHL PUSH1 0x20 SHR JUMP JUMPDEST SWAP1 POP PUSH2 0x467 JUMP JUMPDEST DUP3 PUSH2 0x451 DUP4 PUSH2 0x52C PUSH1 0x20 SHL PUSH1 0x20 SHR JUMP JUMPDEST PUSH0 ADD SWAP1 DUP2 PUSH2 0x45F SWAP2 SWAP1 PUSH2 0x805 JUMP JUMPDEST POP PUSH1 0xFF PUSH0 SHL SWAP1 POP JUMPDEST SWAP3 SWAP2 POP POP JUMP JUMPDEST PUSH0 PUSH32 0x8B73C3C69BB8FE3D512ECC4CF759CC79239F7B179B0FFACAA9A75D522B39400F PUSH1 0xE0 MLOAD PUSH2 0x100 MLOAD CHAINID ADDRESS PUSH1 0x40 MLOAD PUSH1 0x20 ADD PUSH2 0x4AC SWAP6 SWAP5 SWAP4 SWAP3 SWAP2 SWAP1 PUSH2 0x923 JUMP JUMPDEST PUSH1 0x40 MLOAD PUSH1 0x20 DUP2 DUP4 SUB SUB DUP2 MSTORE SWAP1 PUSH1 0x40 MSTORE DUP1 MLOAD SWAP1 PUSH1 0x20 ADD KECCAK256 SWAP1 POP SWAP1 JUMP JUMPDEST PUSH0 DUP1 DUP3 SWAP1 POP PUSH1 0x1F DUP2 MLOAD GT ISZERO PUSH2 0x513 JUMPI DUP3 PUSH1 0x40 MLOAD PUSH32 0x305A27A900000000000000000000000000000000000000000000000000000000 DUP2 MSTORE PUSH1 0x4 ADD PUSH2 0x50A SWAP2 SWAP1 PUSH2 0x9DA JUMP JUMPDEST PUSH1 0x40 MLOAD DUP1 SWAP2 SUB SWAP1 REVERT JUMPDEST DUP1 MLOAD DUP2 PUSH2 0x51F SWAP1 PUSH2 0xA27 JUMP JUMPDEST PUSH0 SHR OR PUSH0 SHL SWAP2 POP POP SWAP2 SWAP1 POP JUMP JUMPDEST PUSH0 DUP2 SWAP1 POP SWAP2 SWAP1 POP JUMP JUMPDEST PUSH2 0x3EAF DUP1 PUSH2 0x446A DUP4 CODECOPY ADD SWAP1 JUMP JUMPDEST PUSH0 DUP1 REVERT JUMPDEST PUSH0 PUSH20 0xFFFFFFFFFFFFFFFFFFFFFFFFFFFFFFFFFFFFFFFF DUP3 AND SWAP1 POP SWAP2 SWAP1 POP JUMP JUMPDEST PUSH0 PUSH2 0x56F DUP3 PUSH2 0x546 JUMP JUMPDEST SWAP1 POP SWAP2 SWAP1 POP JUMP JUMPDEST PUSH2 0x57F DUP2 PUSH2 0x565 JUMP JUMPDEST DUP2 EQ PUSH2 0x589 JUMPI PUSH0 DUP1 REVERT JUMPDEST POP JUMP JUMPDEST PUSH0 DUP2 MLOAD SWAP1 POP PUSH2 0x59A DUP2 PUSH2 0x576 JUMP JUMPDEST SWAP3 SWAP2 POP POP JUMP JUMPDEST PUSH0 PUSH1 0x20 DUP3 DUP5 SUB SLT ISZERO PUSH2 0x5B5 JUMPI PUSH2 0x5B4 PUSH2 0x542 JUMP JUMPDEST JUMPDEST PUSH0 PUSH2 0x5C2 DUP5 DUP3 DUP6 ADD PUSH2 0x58C JUMP JUMPDEST SWAP2 POP POP SWAP3 SWAP2 POP POP JUMP JUMPDEST PUSH0 DUP2 MLOAD SWAP1 POP SWAP2 SWAP1 POP JUMP JUMPDEST PUSH32 0x4E487B7100000000000000000000000000000000000000000000000000000000 PUSH0 MSTORE PUSH1 0x41 PUSH1 0x4 MSTORE PUSH1 0x24 PUSH0 REVERT JUMPDEST PUSH32 0x4E487B7100000000000000000000000000000000000000000000000000000000 PUSH0 MSTORE PUSH1 0x22 PUSH1 0x4 MSTORE PUSH1 0x24 PUSH0 REVERT JUMPDEST PUSH0 PUSH1 0x2 DUP3 DIV SWAP1 POP PUSH1 0x1 DUP3 AND DUP1 PUSH2 0x646 JUMPI PUSH1 0x7F DUP3 AND SWAP2 POP JUMPDEST PUSH1 0x20 DUP3 LT DUP2 SUB PUSH2 0x659 JUMPI PUSH2 0x658 PUSH2 0x602 JUMP JUMPDEST JUMPDEST POP SWAP2 SWAP1 POP JUMP JUMPDEST PUSH0 DUP2 SWAP1 POP DUP2 PUSH0 MSTORE PUSH1 0x20 PUSH0 KECCAK256 SWAP1 POP SWAP2 SWAP1 POP JUMP JUMPDEST PUSH0 PUSH1 0x20 PUSH1 0x1F DUP4 ADD DIV SWAP1 POP SWAP2 SWAP1 POP JUMP JUMPDEST PUSH0 DUP3 DUP3 SHL SWAP1 POP SWAP3 SWAP2 POP POP JUMP JUMPDEST PUSH0 PUSH1 0x8 DUP4 MUL PUSH2 0x6BB PUSH32 0xFFFFFFFFFFFFFFFFFFFFFFFFFFFFFFFFFFFFFFFFFFFFFFFFFFFFFFFFFFFFFFFF DUP3 PUSH2 0x680 JUMP JUMPDEST PUSH2 0x6C5 DUP7 DUP4 PUSH2 0x680 JUMP JUMPDEST SWAP6 POP DUP1 NOT DUP5 AND SWAP4 POP DUP1 DUP7 AND DUP5 OR SWAP3 POP POP POP SWAP4 SWAP3 POP POP POP JUMP JUMPDEST PUSH0 DUP2 SWAP1 POP SWAP2 SWAP1 POP JUMP JUMPDEST PUSH0 DUP2 SWAP1 POP SWAP2 SWAP1 POP JUMP JUMPDEST PUSH0 PUSH2 0x709 PUSH2 0x704 PUSH2 0x6FF DUP5 PUSH2 0x6DD JUMP JUMPDEST PUSH2 0x6E6 JUMP JUMPDEST PUSH2 0x6DD JUMP JUMPDEST SWAP1 POP SWAP2 SWAP1 POP JUMP JUMPDEST PUSH0 DUP2 SWAP1 POP SWAP2 SWAP1 POP JUMP JUMPDEST PUSH2 0x722 DUP4 PUSH2 0x6EF JUMP JUMPDEST PUSH2 0x736 PUSH2 0x72E DUP3 PUSH2 0x710 JUMP JUMPDEST DUP5 DUP5 SLOAD PUSH2 0x68C JUMP JUMPDEST DUP3 SSTORE POP POP POP POP JUMP JUMPDEST PUSH0 SWAP1 JUMP JUMPDEST PUSH2 0x74A PUSH2 0x73E JUMP JUMPDEST PUSH2 0x755 DUP2 DUP5 DUP5 PUSH2 0x719 JUMP JUMPDEST POP POP POP JUMP JUMPDEST JUMPDEST DUP2 DUP2 LT ISZERO PUSH2 0x778 JUMPI PUSH2 0x76D PUSH0 DUP3 PUSH2 0x742 JUMP JUMPDEST PUSH1 0x1 DUP2 ADD SWAP1 POP PUSH2 0x75B JUMP JUMPDEST POP POP JUMP JUMPDEST PUSH1 0x1F DUP3 GT ISZERO PUSH2 0x7BD JUMPI PUSH2 0x78E DUP2 PUSH2 0x65F JUMP JUMPDEST PUSH2 0x797 DUP5 PUSH2 0x671 JUMP JUMPDEST DUP2 ADD PUSH1 0x20 DUP6 LT ISZERO PUSH2 0x7A6 JUMPI DUP2 SWAP1 POP JUMPDEST PUSH2 0x7BA PUSH2 0x7B2 DUP6 PUSH2 0x671 JUMP JUMPDEST DUP4 ADD DUP3 PUSH2 0x75A JUMP JUMPDEST POP POP JUMPDEST POP POP POP JUMP JUMPDEST PUSH0 DUP3 DUP3 SHR SWAP1 POP SWAP3 SWAP2 POP POP JUMP JUMPDEST PUSH0 PUSH2 0x7DD PUSH0 NOT DUP5 PUSH1 0x8 MUL PUSH2 0x7C2 JUMP JUMPDEST NOT DUP1 DUP4 AND SWAP2 POP POP SWAP3 SWAP2 POP POP JUMP JUMPDEST PUSH0 PUSH2 0x7F5 DUP4 DUP4 PUSH2 0x7CE JUMP JUMPDEST SWAP2 POP DUP3 PUSH1 0x2 MUL DUP3 OR SWAP1 POP SWAP3 SWAP2 POP POP JUMP JUMPDEST PUSH2 0x80E DUP3 PUSH2 0x5CB JUMP JUMPDEST PUSH8 0xFFFFFFFFFFFFFFFF DUP2 GT ISZERO PUSH2 0x827 JUMPI PUSH2 0x826 PUSH2 0x5D5 JUMP JUMPDEST JUMPDEST PUSH2 0x831 DUP3 SLOAD PUSH2 0x62F JUMP JUMPDEST PUSH2 0x83C DUP3 DUP3 DUP6 PUSH2 0x77C JUMP JUMPDEST PUSH0 PUSH1 0x20 SWAP1 POP PUSH1 0x1F DUP4 GT PUSH1 0x1 DUP2 EQ PUSH2 0x86D JUMPI PUSH0 DUP5 ISZERO PUSH2 0x85B JUMPI DUP3 DUP8 ADD MLOAD SWAP1 POP JUMPDEST PUSH2 0x865 DUP6 DUP3 PUSH2 0x7EA JUMP JUMPDEST DUP7 SSTORE POP PUSH2 0x8CC JUMP JUMPDEST PUSH1 0x1F NOT DUP5 AND PUSH2 0x87B DUP7 PUSH2 0x65F JUMP JUMPDEST PUSH0 JUMPDEST DUP3 DUP2 LT ISZERO PUSH2 0x8A2 JUMPI DUP5 DUP10 ADD MLOAD DUP3 SSTORE PUSH1 0x1 DUP3 ADD SWAP2 POP PUSH1 0x20 DUP6 ADD SWAP5 POP PUSH1 0x20 DUP2 ADD SWAP1 POP PUSH2 0x87D JUMP JUMPDEST DUP7 DUP4 LT ISZERO PUSH2 0x8BF JUMPI DUP5 DUP10 ADD MLOAD PUSH2 0x8BB PUSH1 0x1F DUP10 AND DUP3 PUSH2 0x7CE JUMP JUMPDEST DUP4 SSTORE POP JUMPDEST PUSH1 0x1 PUSH1 0x2 DUP9 MUL ADD DUP9 SSTORE POP POP POP JUMPDEST POP POP POP POP POP POP JUMP JUMPDEST PUSH2 0x8DD DUP2 PUSH2 0x565 JUMP JUMPDEST DUP3 MSTORE POP POP JUMP JUMPDEST PUSH0 PUSH1 0x20 DUP3 ADD SWAP1 POP PUSH2 0x8F6 PUSH0 DUP4 ADD DUP5 PUSH2 0x8D4 JUMP JUMPDEST SWAP3 SWAP2 POP POP JUMP JUMPDEST PUSH0 DUP2 SWAP1 POP SWAP2 SWAP1 POP JUMP JUMPDEST PUSH2 0x90E DUP2 PUSH2 0x8FC JUMP JUMPDEST DUP3 MSTORE POP POP JUMP JUMPDEST PUSH2 0x91D DUP2 PUSH2 0x6DD JUMP JUMPDEST DUP3 MSTORE POP POP JUMP JUMPDEST PUSH0 PUSH1 0xA0 DUP3 ADD SWAP1 POP PUSH2 0x936 PUSH0 DUP4 ADD DUP9 PUSH2 0x905 JUMP JUMPDEST PUSH2 0x943 PUSH1 0x20 DUP4 ADD DUP8 PUSH2 0x905 JUMP JUMPDEST PUSH2 0x950 PUSH1 0x40 DUP4 ADD DUP7 PUSH2 0x905 JUMP JUMPDEST PUSH2 0x95D PUSH1 0x60 DUP4 ADD DUP6 PUSH2 0x914 JUMP JUMPDEST PUSH2 0x96A PUSH1 0x80 DUP4 ADD DUP5 PUSH2 0x8D4 JUMP JUMPDEST SWAP7 SWAP6 POP POP POP POP POP POP JUMP JUMPDEST PUSH0 DUP3 DUP3 MSTORE PUSH1 0x20 DUP3 ADD SWAP1 POP SWAP3 SWAP2 POP POP JUMP JUMPDEST DUP3 DUP2 DUP4 MCOPY PUSH0 DUP4 DUP4 ADD MSTORE POP POP POP JUMP JUMPDEST PUSH0 PUSH1 0x1F NOT PUSH1 0x1F DUP4 ADD AND SWAP1 POP SWAP2 SWAP1 POP JUMP JUMPDEST PUSH0 PUSH2 0x9AC DUP3 PUSH2 0x5CB JUMP JUMPDEST PUSH2 0x9B6 DUP2 DUP6 PUSH2 0x974 JUMP JUMPDEST SWAP4 POP PUSH2 0x9C6 DUP2 DUP6 PUSH1 0x20 DUP7 ADD PUSH2 0x984 JUMP JUMPDEST PUSH2 0x9CF DUP2 PUSH2 0x992 JUMP JUMPDEST DUP5 ADD SWAP2 POP POP SWAP3 SWAP2 POP POP JUMP JUMPDEST PUSH0 PUSH1 0x20 DUP3 ADD SWAP1 POP DUP2 DUP2 SUB PUSH0 DUP4 ADD MSTORE PUSH2 0x9F2 DUP2 DUP5 PUSH2 0x9A2 JUMP JUMPDEST SWAP1 POP SWAP3 SWAP2 POP POP JUMP JUMPDEST PUSH0 DUP2 MLOAD SWAP1 POP SWAP2 SWAP1 POP JUMP JUMPDEST PUSH0 DUP2 SWAP1 POP PUSH1 0x20 DUP3 ADD SWAP1 POP SWAP2 SWAP1 POP JUMP JUMPDEST PUSH0 PUSH2 0xA1E DUP3 MLOAD PUSH2 0x8FC JUMP JUMPDEST DUP1 SWAP2 POP POP SWAP2 SWAP1 POP JUMP JUMPDEST PUSH0 PUSH2 0xA31 DUP3 PUSH2 0x9FA JUMP JUMPDEST DUP3 PUSH2 0xA3B DUP5 PUSH2 0xA04 JUMP JUMPDEST SWAP1 POP PUSH2 0xA46 DUP2 PUSH2 0xA13 JUMP JUMPDEST SWAP3 POP PUSH1 0x20 DUP3 LT ISZERO PUSH2 0xA86 JUMPI PUSH2 0xA81 PUSH32 0xFFFFFFFFFFFFFFFFFFFFFFFFFFFFFFFFFFFFFFFFFFFFFFFFFFFFFFFFFFFFFFFF DUP4 PUSH1 0x20 SUB PUSH1 0x8 MUL PUSH2 0x680 JUMP JUMPDEST DUP4 AND SWAP3 POP JUMPDEST POP POP SWAP2 SWAP1 POP JUMP JUMPDEST PUSH1 0x80 MLOAD PUSH1 0xA0 MLOAD PUSH1 0xC0 MLOAD PUSH1 0xE0 MLOAD PUSH2 0x100 MLOAD PUSH2 0x120 MLOAD PUSH2 0x140 MLOAD PUSH2 0x398C PUSH2 0xADE PUSH0 CODECOPY PUSH0 PUSH2 0x1E69 ADD MSTORE PUSH0 PUSH2 0x1E2E ADD MSTORE PUSH0 PUSH2 0x2178 ADD MSTORE PUSH0 PUSH2 0x2157 ADD MSTORE PUSH0 PUSH2 0x1A0B ADD MSTORE PUSH0 PUSH2 0x1A61 ADD MSTORE PUSH0 PUSH2 0x1A8A ADD MSTORE PUSH2 0x398C PUSH0 RETURN INVALID PUSH1 0x80 PUSH1 0x40 MSTORE PUSH1 0x4 CALLDATASIZE LT PUSH2 0x1E2 JUMPI PUSH0 CALLDATALOAD PUSH1 0xE0 SHR DUP1 PUSH4 0x7ECEBE00 GT PUSH2 0x101 JUMPI DUP1 PUSH4 0xD0FEBE4C GT PUSH2 0x94 JUMPI DUP1 PUSH4 0xE8315742 GT PUSH2 0x63 JUMPI DUP1 PUSH4 0xE8315742 EQ PUSH2 0x66E JUMPI DUP1 PUSH4 0xF2FDE38B EQ PUSH2 0x698 JUMPI DUP1 PUSH4 0xF4F9C241 EQ PUSH2 0x6C0 JUMPI DUP1 PUSH4 0xFFD14D6A EQ PUSH2 0x6FD JUMPI PUSH2 0x1E2 JUMP JUMPDEST DUP1 PUSH4 0xD0FEBE4C EQ PUSH2 0x5D8 JUMPI DUP1 PUSH4 0xD505ACCF EQ PUSH2 0x5E2 JUMPI DUP1 PUSH4 0xDD62ED3E EQ PUSH2 0x60A JUMPI DUP1 PUSH4 0xE791FEBD EQ PUSH2 0x646 JUMPI PUSH2 0x1E2 JUMP JUMPDEST DUP1 PUSH4 0x95D89B41 GT PUSH2 0xD0 JUMPI DUP1 PUSH4 0x95D89B41 EQ PUSH2 0x51E JUMPI DUP1 PUSH4 0xA9059CBB EQ PUSH2 0x548 JUMPI DUP1 PUSH4 0xB62A62EC EQ PUSH2 0x584 JUMPI DUP1 PUSH4 0xC9116B69 EQ PUSH2 0x5AE JUMPI PUSH2 0x1E2 JUMP JUMPDEST DUP1 PUSH4 0x7ECEBE00 EQ PUSH2 0x472 JUMPI DUP1 PUSH4 0x8456CB59 EQ PUSH2 0x4AE JUMPI DUP1 PUSH4 0x84B0196E EQ PUSH2 0x4C4 JUMPI DUP1 PUSH4 0x8DA5CB5B EQ PUSH2 0x4F4 JUMPI PUSH2 0x1E2 JUMP JUMPDEST DUP1 PUSH4 0x39B49257 GT PUSH2 0x179 JUMPI DUP1 PUSH4 0x6BE4CF1F GT PUSH2 0x148 JUMPI DUP1 PUSH4 0x6BE4CF1F EQ PUSH2 0x3E8 JUMPI DUP1 PUSH4 0x70A08231 EQ PUSH2 0x404 JUMPI DUP1 PUSH4 0x715018A6 EQ PUSH2 0x440 JUMPI DUP1 PUSH4 0x79E20BDC EQ PUSH2 0x456 JUMPI PUSH2 0x1E2 JUMP JUMPDEST DUP1 PUSH4 0x39B49257 EQ PUSH2 0x358 JUMPI DUP1 PUSH4 0x3F4BA83A EQ PUSH2 0x380 JUMPI DUP1 PUSH4 0x40C10F19 EQ PUSH2 0x396 JUMPI DUP1 PUSH4 0x5C975ABB EQ PUSH2 0x3BE JUMPI PUSH2 0x1E2 JUMP JUMPDEST DUP1 PUSH4 0x2B4C9BD0 GT PUSH2 0x1B5 JUMPI DUP1 PUSH4 0x2B4C9BD0 EQ PUSH2 0x2B2 JUMPI DUP1 PUSH4 0x313CE567 EQ PUSH2 0x2DA JUMPI DUP1 PUSH4 0x3296A74E EQ PUSH2 0x304 JUMPI DUP1 PUSH4 0x3644E515 EQ PUSH2 0x32E JUMPI PUSH2 0x1E2 JUMP JUMPDEST DUP1 PUSH4 0x6FDDE03 EQ PUSH2 0x1E6 JUMPI DUP1 PUSH4 0x95EA7B3 EQ PUSH2 0x210 JUMPI DUP1 PUSH4 0x18160DDD EQ PUSH2 0x24C JUMPI DUP1 PUSH4 0x23B872DD EQ PUSH2 0x276 JUMPI JUMPDEST PUSH0 DUP1 REVERT JUMPDEST CALLVALUE DUP1 ISZERO PUSH2 0x1F1 JUMPI PUSH0 DUP1 REVERT JUMPDEST POP PUSH2 0x1FA PUSH2 0x73A JUMP JUMPDEST PUSH1 0x40 MLOAD PUSH2 0x207 SWAP2 SWAP1 PUSH2 0x28E0 JUMP JUMPDEST PUSH1 0x40 MLOAD DUP1 SWAP2 SUB SWAP1 RETURN JUMPDEST CALLVALUE DUP1 ISZERO PUSH2 0x21B JUMPI PUSH0 DUP1 REVERT JUMPDEST POP PUSH2 0x236 PUSH1 0x4 DUP1 CALLDATASIZE SUB DUP2 ADD SWAP1 PUSH2 0x231 SWAP2 SWAP1 PUSH2 0x299E JUMP JUMPDEST PUSH2 0x7CA JUMP JUMPDEST PUSH1 0x40 MLOAD PUSH2 0x243 SWAP2 SWAP1 PUSH2 0x29F6 JUMP JUMPDEST PUSH1 0x40 MLOAD DUP1 SWAP2 SUB SWAP1 RETURN JUMPDEST CALLVALUE DUP1 ISZERO PUSH2 0x257 JUMPI PUSH0 DUP1 REVERT JUMPDEST POP PUSH2 0x260 PUSH2 0x7EC JUMP JUMPDEST PUSH1 0x40 MLOAD PUSH2 0x26D SWAP2 SWAP1 PUSH2 0x2A1E JUMP JUMPDEST PUSH1 0x40 MLOAD DUP1 SWAP2 SUB SWAP1 RETURN JUMPDEST CALLVALUE DUP1 ISZERO PUSH2 0x281 JUMPI PUSH0 DUP1 REVERT JUMPDEST POP PUSH2 0x29C PUSH1 0x4 DUP1 CALLDATASIZE SUB DUP2 ADD SWAP1 PUSH2 0x297 SWAP2 SWAP1 PUSH2 0x2A37 JUMP JUMPDEST PUSH2 0x7F5 JUMP JUMPDEST PUSH1 0x40 MLOAD PUSH2 0x2A9 SWAP2 SWAP1 PUSH2 0x29F6 JUMP JUMPDEST PUSH1 0x40 MLOAD DUP1 SWAP2 SUB SWAP1 RETURN JUMPDEST CALLVALUE DUP1 ISZERO PUSH2 0x2BD JUMPI PUSH0 DUP1 REVERT JUMPDEST POP PUSH2 0x2D8 PUSH1 0x4 DUP1 CALLDATASIZE SUB DUP2 ADD SWAP1 PUSH2 0x2D3 SWAP2 SWAP1 PUSH2 0x2A87 JUMP JUMPDEST PUSH2 0x823 JUMP JUMPDEST STOP JUMPDEST CALLVALUE DUP1 ISZERO PUSH2 0x2E5 JUMPI PUSH0 DUP1 REVERT JUMPDEST POP PUSH2 0x2EE PUSH2 0x9B5 JUMP JUMPDEST PUSH1 0x40 MLOAD PUSH2 0x2FB SWAP2 SWAP1 PUSH2 0x2AF2 JUMP JUMPDEST PUSH1 0x40 MLOAD DUP1 SWAP2 SUB SWAP1 RETURN JUMPDEST CALLVALUE DUP1 ISZERO PUSH2 0x30F JUMPI PUSH0 DUP1 REVERT JUMPDEST POP PUSH2 0x318 PUSH2 0x9BD JUMP JUMPDEST PUSH1 0x40 MLOAD PUSH2 0x325 SWAP2 SWAP1 PUSH2 0x2A1E JUMP JUMPDEST PUSH1 0x40 MLOAD DUP1 SWAP2 SUB SWAP1 RETURN JUMPDEST CALLVALUE DUP1 ISZERO PUSH2 0x339 JUMPI PUSH0 DUP1 REVERT JUMPDEST POP PUSH2 0x342 PUSH2 0xA52 JUMP JUMPDEST PUSH1 0x40 MLOAD PUSH2 0x34F SWAP2 SWAP1 PUSH2 0x2B23 JUMP JUMPDEST PUSH1 0x40 MLOAD DUP1 SWAP2 SUB SWAP1 RETURN JUMPDEST CALLVALUE DUP1 ISZERO PUSH2 0x363 JUMPI PUSH0 DUP1 REVERT JUMPDEST POP PUSH2 0x37E PUSH1 0x4 DUP1 CALLDATASIZE SUB DUP2 ADD SWAP1 PUSH2 0x379 SWAP2 SWAP1 PUSH2 0x2A87 JUMP JUMPDEST PUSH2 0xA60 JUMP JUMPDEST STOP JUMPDEST CALLVALUE DUP1 ISZERO PUSH2 0x38B JUMPI PUSH0 DUP1 REVERT JUMPDEST POP PUSH2 0x394 PUSH2 0xBCF JUMP JUMPDEST STOP JUMPDEST CALLVALUE DUP1 ISZERO PUSH2 0x3A1 JUMPI PUSH0 DUP1 REVERT JUMPDEST POP PUSH2 0x3BC PUSH1 0x4 DUP1 CALLDATASIZE SUB DUP2 ADD SWAP1 PUSH2 0x3B7 SWAP2 SWAP1 PUSH2 0x299E JUMP JUMPDEST PUSH2 0xBE1 JUMP JUMPDEST STOP JUMPDEST CALLVALUE DUP1 ISZERO PUSH2 0x3C9 JUMPI PUSH0 DUP1 REVERT JUMPDEST POP PUSH2 0x3D2 PUSH2 0xBF7 JUMP JUMPDEST PUSH1 0x40 MLOAD PUSH2 0x3DF SWAP2 SWAP1 PUSH2 0x29F6 JUMP JUMPDEST PUSH1 0x40 MLOAD DUP1 SWAP2 SUB SWAP1 RETURN JUMPDEST PUSH2 0x402 PUSH1 0x4 DUP1 CALLDATASIZE SUB DUP2 ADD SWAP1 PUSH2 0x3FD SWAP2 SWAP1 PUSH2 0x2B3C JUMP JUMPDEST PUSH2 0xC0C JUMP JUMPDEST STOP JUMPDEST CALLVALUE DUP1 ISZERO PUSH2 0x40F JUMPI PUSH0 DUP1 REVERT JUMPDEST POP PUSH2 0x42A PUSH1 0x4 DUP1 CALLDATASIZE SUB DUP2 ADD SWAP1 PUSH2 0x425 SWAP2 SWAP1 PUSH2 0x2B3C JUMP JUMPDEST PUSH2 0xC83 JUMP JUMPDEST PUSH1 0x40 MLOAD PUSH2 0x437 SWAP2 SWAP1 PUSH2 0x2A1E JUMP JUMPDEST PUSH1 0x40 MLOAD DUP1 SWAP2 SUB SWAP1 RETURN JUMPDEST CALLVALUE DUP1 ISZERO PUSH2 0x44B JUMPI PUSH0 DUP1 REVERT JUMPDEST POP PUSH2 0x454 PUSH2 0xCC8 JUMP JUMPDEST STOP JUMPDEST PUSH2 0x470 PUSH1 0x4 DUP1 CALLDATASIZE SUB DUP2 ADD SWAP1 PUSH2 0x46B SWAP2 SWAP1 PUSH2 0x299E JUMP JUMPDEST PUSH2 0xCDB JUMP JUMPDEST STOP JUMPDEST CALLVALUE DUP1 ISZERO PUSH2 0x47D JUMPI PUSH0 DUP1 REVERT JUMPDEST POP PUSH2 0x498 PUSH1 0x4 DUP1 CALLDATASIZE SUB DUP2 ADD SWAP1 PUSH2 0x493 SWAP2 SWAP1 PUSH2 0x2B3C JUMP JUMPDEST PUSH2 0xF0D JUMP JUMPDEST PUSH1 0x40 MLOAD PUSH2 0x4A5 SWAP2 SWAP1 PUSH2 0x2A1E JUMP JUMPDEST PUSH1 0x40 MLOAD DUP1 SWAP2 SUB SWAP1 RETURN JUMPDEST CALLVALUE DUP1 ISZERO PUSH2 0x4B9 JUMPI PUSH0 DUP1 REVERT JUMPDEST POP PUSH2 0x4C2 PUSH2 0xF1E JUMP JUMPDEST STOP JUMPDEST CALLVALUE DUP1 ISZERO PUSH2 0x4CF JUMPI PUSH0 DUP1 REVERT JUMPDEST POP PUSH2 0x4D8 PUSH2 0xF30 JUMP JUMPDEST PUSH1 0x40 MLOAD PUSH2 0x4EB SWAP8 SWAP7 SWAP6 SWAP5 SWAP4 SWAP3 SWAP2 SWAP1 PUSH2 0x2C67 JUMP JUMPDEST PUSH1 0x40 MLOAD DUP1 SWAP2 SUB SWAP1 RETURN JUMPDEST CALLVALUE DUP1 ISZERO PUSH2 0x4FF JUMPI PUSH0 DUP1 REVERT JUMPDEST POP PUSH2 0x508 PUSH2 0xFD5 JUMP JUMPDEST PUSH1 0x40 MLOAD PUSH2 0x515 SWAP2 SWAP1 PUSH2 0x2CE9 JUMP JUMPDEST PUSH1 0x40 MLOAD DUP1 SWAP2 SUB SWAP1 RETURN JUMPDEST CALLVALUE DUP1 ISZERO PUSH2 0x529 JUMPI PUSH0 DUP1 REVERT JUMPDEST POP PUSH2 0x532 PUSH2 0xFFE JUMP JUMPDEST PUSH1 0x40 MLOAD PUSH2 0x53F SWAP2 SWAP1 PUSH2 0x28E0 JUMP JUMPDEST PUSH1 0x40 MLOAD DUP1 SWAP2 SUB SWAP1 RETURN JUMPDEST CALLVALUE DUP1 ISZERO PUSH2 0x553 JUMPI PUSH0 DUP1 REVERT JUMPDEST POP PUSH2 0x56E PUSH1 0x4 DUP1 CALLDATASIZE SUB DUP2 ADD SWAP1 PUSH2 0x569 SWAP2 SWAP1 PUSH2 0x299E JUMP JUMPDEST PUSH2 0x108E JUMP JUMPDEST PUSH1 0x40 MLOAD PUSH2 0x57B SWAP2 SWAP1 PUSH2 0x29F6 JUMP JUMPDEST PUSH1 0x40 MLOAD DUP1 SWAP2 SUB SWAP1 RETURN JUMPDEST CALLVALUE DUP1 ISZERO PUSH2 0x58F JUMPI PUSH0 DUP1 REVERT JUMPDEST POP PUSH2 0x598 PUSH2 0x10B0 JUMP JUMPDEST PUSH1 0x40 MLOAD PUSH2 0x5A5 SWAP2 SWAP1 PUSH2 0x28E0 JUMP JUMPDEST PUSH1 0x40 MLOAD DUP1 SWAP2 SUB SWAP1 RETURN JUMPDEST CALLVALUE DUP1 ISZERO PUSH2 0x5B9 JUMPI PUSH0 DUP1 REVERT JUMPDEST POP PUSH2 0x5C2 PUSH2 0x1149 JUMP JUMPDEST PUSH1 0x40 MLOAD PUSH2 0x5CF SWAP2 SWAP1 PUSH2 0x2A1E JUMP JUMPDEST PUSH1 0x40 MLOAD DUP1 SWAP2 SUB SWAP1 RETURN JUMPDEST PUSH2 0x5E0 PUSH2 0x1158 JUMP JUMPDEST STOP JUMPDEST CALLVALUE DUP1 ISZERO PUSH2 0x5ED JUMPI PUSH0 DUP1 REVERT JUMPDEST POP PUSH2 0x608 PUSH1 0x4 DUP1 CALLDATASIZE SUB DUP2 ADD SWAP1 PUSH2 0x603 SWAP2 SWAP1 PUSH2 0x2D56 JUMP JUMPDEST PUSH2 0x11D5 JUMP JUMPDEST STOP JUMPDEST CALLVALUE DUP1 ISZERO PUSH2 0x615 JUMPI PUSH0 DUP1 REVERT JUMPDEST POP PUSH2 0x630 PUSH1 0x4 DUP1 CALLDATASIZE SUB DUP2 ADD SWAP1 PUSH2 0x62B SWAP2 SWAP1 PUSH2 0x2DF3 JUMP JUMPDEST PUSH2 0x131A JUMP JUMPDEST PUSH1 0x40 MLOAD PUSH2 0x63D SWAP2 SWAP1 PUSH2 0x2A1E JUMP JUMPDEST PUSH1 0x40 MLOAD DUP1 SWAP2 SUB SWAP1 RETURN JUMPDEST CALLVALUE DUP1 ISZERO PUSH2 0x651 JUMPI PUSH0 DUP1 REVERT JUMPDEST POP PUSH2 0x66C PUSH1 0x4 DUP1 CALLDATASIZE SUB DUP2 ADD SWAP1 PUSH2 0x667 SWAP2 SWAP1 PUSH2 0x2E6C JUMP JUMPDEST PUSH2 0x139C JUMP JUMPDEST STOP JUMPDEST CALLVALUE DUP1 ISZERO PUSH2 0x679 JUMPI PUSH0 DUP1 REVERT JUMPDEST POP PUSH2 0x682 PUSH2 0x1484 JUMP JUMPDEST PUSH1 0x40 MLOAD PUSH2 0x68F SWAP2 SWAP1 PUSH2 0x2A1E JUMP JUMPDEST PUSH1 0x40 MLOAD DUP1 SWAP2 SUB SWAP1 RETURN JUMPDEST CALLVALUE DUP1 ISZERO PUSH2 0x6A3 JUMPI PUSH0 DUP1 REVERT JUMPDEST POP PUSH2 0x6BE PUSH1 0x4 DUP1 CALLDATASIZE SUB DUP2 ADD SWAP1 PUSH2 0x6B9 SWAP2 SWAP1 PUSH2 0x2B3C JUMP JUMPDEST PUSH2 0x148A JUMP JUMPDEST STOP JUMPDEST CALLVALUE DUP1 ISZERO PUSH2 0x6CB JUMPI PUSH0 DUP1 REVERT JUMPDEST POP PUSH2 0x6E6 PUSH1 0x4 DUP1 CALLDATASIZE SUB DUP2 ADD SWAP1 PUSH2 0x6E1 SWAP2 SWAP1 PUSH2 0x2FD6 JUMP JUMPDEST PUSH2 0x150E JUMP JUMPDEST PUSH1 0x40 MLOAD PUSH2 0x6F4 SWAP3 SWAP2 SWAP1 PUSH2 0x301D JUMP JUMPDEST PUSH1 0x40 MLOAD DUP1 SWAP2 SUB SWAP1 RETURN JUMPDEST CALLVALUE DUP1 ISZERO PUSH2 0x708 JUMPI PUSH0 DUP1 REVERT JUMPDEST POP PUSH2 0x723 PUSH1 0x4 DUP1 CALLDATASIZE SUB DUP2 ADD SWAP1 PUSH2 0x71E SWAP2 SWAP1 PUSH2 0x2FD6 JUMP JUMPDEST PUSH2 0x169E JUMP JUMPDEST PUSH1 0x40 MLOAD PUSH2 0x731 SWAP3 SWAP2 SWAP1 PUSH2 0x301D JUMP JUMPDEST PUSH1 0x40 MLOAD DUP1 SWAP2 SUB SWAP1 RETURN JUMPDEST PUSH1 0x60 PUSH1 0x3 DUP1 SLOAD PUSH2 0x749 SWAP1 PUSH2 0x3071 JUMP JUMPDEST DUP1 PUSH1 0x1F ADD PUSH1 0x20 DUP1 SWAP2 DIV MUL PUSH1 0x20 ADD PUSH1 0x40 MLOAD SWAP1 DUP2 ADD PUSH1 0x40 MSTORE DUP1 SWAP3 SWAP2 SWAP1 DUP2 DUP2 MSTORE PUSH1 0x20 ADD DUP3 DUP1 SLOAD PUSH2 0x775 SWAP1 PUSH2 0x3071 JUMP JUMPDEST DUP1 ISZERO PUSH2 0x7C0 JUMPI DUP1 PUSH1 0x1F LT PUSH2 0x797 JUMPI PUSH2 0x100 DUP1 DUP4 SLOAD DIV MUL DUP4 MSTORE SWAP2 PUSH1 0x20 ADD SWAP2 PUSH2 0x7C0 JUMP JUMPDEST DUP3 ADD SWAP2 SWAP1 PUSH0 MSTORE PUSH1 0x20 PUSH0 KECCAK256 SWAP1 JUMPDEST DUP2 SLOAD DUP2 MSTORE SWAP1 PUSH1 0x1 ADD SWAP1 PUSH1 0x20 ADD DUP1 DUP4 GT PUSH2 0x7A3 JUMPI DUP3 SWAP1 SUB PUSH1 0x1F AND DUP3 ADD SWAP2 JUMPDEST POP POP POP POP POP SWAP1 POP SWAP1 JUMP JUMPDEST PUSH0 DUP1 PUSH2 0x7D4 PUSH2 0x1817 JUMP JUMPDEST SWAP1 POP PUSH2 0x7E1 DUP2 DUP6 DUP6 PUSH2 0x181E JUMP JUMPDEST PUSH1 0x1 SWAP2 POP POP SWAP3 SWAP2 POP POP JUMP JUMPDEST PUSH0 PUSH1 0x2 SLOAD SWAP1 POP SWAP1 JUMP JUMPDEST PUSH0 DUP1 PUSH2 0x7FF PUSH2 0x1817 JUMP JUMPDEST SWAP1 POP PUSH2 0x80C DUP6 DUP3 DUP6 PUSH2 0x1830 JUMP JUMPDEST PUSH2 0x817 DUP6 DUP6 DUP6 PUSH2 0x18C2 JUMP JUMPDEST PUSH1 0x1 SWAP2 POP POP SWAP4 SWAP3 POP POP POP JUMP JUMPDEST PUSH0 PUSH2 0x83A DUP3 DUP5 PUSH2 0x833 SWAP2 SWAP1 PUSH2 0x30CE JUMP JUMPDEST PUSH1 0x64 PUSH2 0x19B2 JUMP JUMPDEST SWAP1 POP PUSH1 0x1 DUP2 LT ISZERO PUSH2 0x84A JUMPI PUSH1 0x1 SWAP1 POP JUMPDEST DUP3 DUP2 PUSH2 0x855 DUP7 PUSH2 0xC83 JUMP JUMPDEST PUSH2 0x85F SWAP2 SWAP1 PUSH2 0x310F JUMP JUMPDEST LT ISZERO PUSH2 0x8A0 JUMPI PUSH1 0x40 MLOAD PUSH32 0x8C379A000000000000000000000000000000000000000000000000000000000 DUP2 MSTORE PUSH1 0x4 ADD PUSH2 0x897 SWAP1 PUSH2 0x31B2 JUMP JUMPDEST PUSH1 0x40 MLOAD DUP1 SWAP2 SUB SWAP1 REVERT JUMPDEST CALLER PUSH20 0xFFFFFFFFFFFFFFFFFFFFFFFFFFFFFFFFFFFFFFFF AND DUP5 PUSH20 0xFFFFFFFFFFFFFFFFFFFFFFFFFFFFFFFFFFFFFFFF AND SUB PUSH2 0x90E JUMPI PUSH1 0x40 MLOAD PUSH32 0x8C379A000000000000000000000000000000000000000000000000000000000 DUP2 MSTORE PUSH1 0x4 ADD PUSH2 0x905 SWAP1 PUSH2 0x321A JUMP JUMPDEST PUSH1 0x40 MLOAD DUP1 SWAP2 SUB SWAP1 REVERT JUMPDEST PUSH1 0xC PUSH0 SWAP1 SLOAD SWAP1 PUSH2 0x100 EXP SWAP1 DIV PUSH20 0xFFFFFFFFFFFFFFFFFFFFFFFFFFFFFFFFFFFFFFFF AND PUSH20 0xFFFFFFFFFFFFFFFFFFFFFFFFFFFFFFFFFFFFFFFF AND PUSH4 0x9A5C5E64 CALLER DUP7 DUP7 DUP7 PUSH1 0x40 MLOAD DUP6 PUSH4 0xFFFFFFFF AND PUSH1 0xE0 SHL DUP2 MSTORE PUSH1 0x4 ADD PUSH2 0x96E SWAP5 SWAP4 SWAP3 SWAP2 SWAP1 PUSH2 0x3238 JUMP JUMPDEST PUSH1 0x20 PUSH1 0x40 MLOAD DUP1 DUP4 SUB DUP2 PUSH0 DUP8 GAS CALL ISZERO DUP1 ISZERO PUSH2 0x98A JUMPI RETURNDATASIZE PUSH0 DUP1 RETURNDATACOPY RETURNDATASIZE PUSH0 REVERT JUMPDEST POP POP POP POP PUSH1 0x40 MLOAD RETURNDATASIZE PUSH1 0x1F NOT PUSH1 0x1F DUP3 ADD AND DUP3 ADD DUP1 PUSH1 0x40 MSTORE POP DUP2 ADD SWAP1 PUSH2 0x9AE SWAP2 SWAP1 PUSH2 0x32A5 JUMP JUMPDEST POP POP POP POP POP JUMP JUMPDEST PUSH0 PUSH1 0x12 SWAP1 POP SWAP1 JUMP JUMPDEST PUSH0 PUSH1 0xB PUSH1 0x1 SWAP1 SLOAD SWAP1 PUSH2 0x100 EXP SWAP1 DIV PUSH20 0xFFFFFFFFFFFFFFFFFFFFFFFFFFFFFFFFFFFFFFFF AND PUSH20 0xFFFFFFFFFFFFFFFFFFFFFFFFFFFFFFFFFFFFFFFF AND PUSH4 0x572B0CC PUSH1 0x40 MLOAD DUP2 PUSH4 0xFFFFFFFF AND PUSH1 0xE0 SHL DUP2 MSTORE PUSH1 0x4 ADD PUSH1 0x20 PUSH1 0x40 MLOAD DUP1 DUP4 SUB DUP2 DUP7 GAS STATICCALL ISZERO DUP1 ISZERO PUSH2 0xA29 JUMPI RETURNDATASIZE PUSH0 DUP1 RETURNDATACOPY RETURNDATASIZE PUSH0 REVERT JUMPDEST POP POP POP POP PUSH1 0x40 MLOAD RETURNDATASIZE PUSH1 0x1F NOT PUSH1 0x1F DUP3 ADD AND DUP3 ADD DUP1 PUSH1 0x40 MSTORE POP DUP2 ADD SWAP1 PUSH2 0xA4D SWAP2 SWAP1 PUSH2 0x32E4 JUMP JUMPDEST SWAP1 POP SWAP1 JUMP JUMPDEST PUSH0 PUSH2 0xA5B PUSH2 0x1A08 JUMP JUMPDEST SWAP1 POP SWAP1 JUMP JUMPDEST PUSH0 PUSH2 0xA77 DUP3 DUP5 PUSH2 0xA70 SWAP2 SWAP1 PUSH2 0x30CE JUMP JUMPDEST PUSH1 0x64 PUSH2 0x19B2 JUMP JUMPDEST SWAP1 POP PUSH1 0x1 DUP2 LT ISZERO PUSH2 0xA87 JUMPI PUSH1 0x1 SWAP1 POP JUMPDEST DUP3 DUP2 PUSH2 0xA92 CALLER PUSH2 0xC83 JUMP JUMPDEST PUSH2 0xA9C SWAP2 SWAP1 PUSH2 0x310F JUMP JUMPDEST LT ISZERO PUSH2 0xADD JUMPI PUSH1 0x40 MLOAD PUSH32 0x8C379A000000000000000000000000000000000000000000000000000000000 DUP2 MSTORE PUSH1 0x4 ADD PUSH2 0xAD4 SWAP1 PUSH2 0x31B2 JUMP JUMPDEST PUSH1 0x40 MLOAD DUP1 SWAP2 SUB SWAP1 REVERT JUMPDEST PUSH1 0xC PUSH0 SWAP1 SLOAD SWAP1 PUSH2 0x100 EXP SWAP1 DIV PUSH20 0xFFFFFFFFFFFFFFFFFFFFFFFFFFFFFFFFFFFFFFFF AND PUSH20 0xFFFFFFFFFFFFFFFFFFFFFFFFFFFFFFFFFFFFFFFF AND PUSH4 0x207A296A DUP6 CALLER DUP7 DUP7 DUP7 PUSH1 0x40 MLOAD DUP7 PUSH4 0xFFFFFFFF AND PUSH1 0xE0 SHL DUP2 MSTORE PUSH1 0x4 ADD PUSH2 0xB3F SWAP6 SWAP5 SWAP4 SWAP3 SWAP2 SWAP1 PUSH2 0x330F JUMP JUMPDEST PUSH1 0x20 PUSH1 0x40 MLOAD DUP1 DUP4 SUB DUP2 PUSH0 DUP8 GAS CALL ISZERO DUP1 ISZERO PUSH2 0xB5B JUMPI RETURNDATASIZE PUSH0 DUP1 RETURNDATACOPY RETURNDATASIZE PUSH0 REVERT JUMPDEST POP POP POP POP PUSH1 0x40 MLOAD RETURNDATASIZE PUSH1 0x1F NOT PUSH1 0x1F DUP3 ADD AND DUP3 ADD DUP1 PUSH1 0x40 MSTORE POP DUP2 ADD SWAP1 PUSH2 0xB7F SWAP2 SWAP1 PUSH2 0x32A5 JUMP JUMPDEST PUSH2 0xBBE JUMPI PUSH1 0x40 MLOAD PUSH32 0x8C379A000000000000000000000000000000000000000000000000000000000 DUP2 MSTORE PUSH1 0x4 ADD PUSH2 0xBB5 SWAP1 PUSH2 0x33AA JUMP JUMPDEST PUSH1 0x40 MLOAD DUP1 SWAP2 SUB SWAP1 REVERT JUMPDEST PUSH2 0xBC9 CALLER DUP6 DUP6 PUSH2 0x1ABE JUMP JUMPDEST POP POP POP POP JUMP JUMPDEST PUSH2 0xBD7 PUSH2 0x1ACE JUMP JUMPDEST PUSH2 0xBDF PUSH2 0x1B55 JUMP JUMPDEST JUMP JUMPDEST PUSH2 0xBE9 PUSH2 0x1ACE JUMP JUMPDEST PUSH2 0xBF3 DUP3 DUP3 PUSH2 0x1BB6 JUMP JUMPDEST POP POP JUMP JUMPDEST PUSH0 PUSH1 0x5 PUSH0 SWAP1 SLOAD SWAP1 PUSH2 0x100 EXP SWAP1 DIV PUSH1 0xFF AND SWAP1 POP SWAP1 JUMP JUMPDEST PUSH0 PUSH2 0xC16 CALLVALUE PUSH2 0x1C35 JUMP JUMPDEST SWAP1 POP PUSH0 DUP2 PUSH2 0xC22 PUSH2 0x7EC JUMP JUMPDEST PUSH2 0xC2C SWAP2 SWAP1 PUSH2 0x310F JUMP JUMPDEST SWAP1 POP DUP1 PUSH1 0xA SLOAD LT ISZERO PUSH2 0xC73 JUMPI PUSH1 0x40 MLOAD PUSH32 0x8C379A000000000000000000000000000000000000000000000000000000000 DUP2 MSTORE PUSH1 0x4 ADD PUSH2 0xC6A SWAP1 PUSH2 0x3412 JUMP JUMPDEST PUSH1 0x40 MLOAD DUP1 SWAP2 SUB SWAP1 REVERT JUMPDEST PUSH2 0xC7E DUP4 DUP4 DUP4 PUSH2 0x1C64 JUMP JUMPDEST POP POP POP JUMP JUMPDEST PUSH0 DUP1 PUSH0 DUP4 PUSH20 0xFFFFFFFFFFFFFFFFFFFFFFFFFFFFFFFFFFFFFFFF AND PUSH20 0xFFFFFFFFFFFFFFFFFFFFFFFFFFFFFFFFFFFFFFFF AND DUP2 MSTORE PUSH1 0x20 ADD SWAP1 DUP2 MSTORE PUSH1 0x20 ADD PUSH0 KECCAK256 SLOAD SWAP1 POP SWAP2 SWAP1 POP JUMP JUMPDEST PUSH2 0xCD0 PUSH2 0x1ACE JUMP JUMPDEST PUSH2 0xCD9 PUSH0 PUSH2 0x1CB8 JUMP JUMPDEST JUMP JUMPDEST DUP1 PUSH2 0xCE5 CALLER PUSH2 0xC83 JUMP JUMPDEST LT ISZERO PUSH2 0xD26 JUMPI PUSH1 0x40 MLOAD PUSH32 0x8C379A000000000000000000000000000000000000000000000000000000000 DUP2 MSTORE PUSH1 0x4 ADD PUSH2 0xD1D SWAP1 PUSH2 0x34A0 JUMP JUMPDEST PUSH1 0x40 MLOAD DUP1 SWAP2 SUB SWAP1 REVERT JUMPDEST PUSH0 PUSH1 0xC PUSH0 SWAP1 SLOAD SWAP1 PUSH2 0x100 EXP SWAP1 DIV PUSH20 0xFFFFFFFFFFFFFFFFFFFFFFFFFFFFFFFFFFFFFFFF AND PUSH20 0xFFFFFFFFFFFFFFFFFFFFFFFFFFFFFFFFFFFFFFFF AND PUSH4 0xF5B92C73 CALLER DUP6 DUP6 PUSH1 0x40 MLOAD DUP5 PUSH4 0xFFFFFFFF AND PUSH1 0xE0 SHL DUP2 MSTORE PUSH1 0x4 ADD PUSH2 0xD85 SWAP4 SWAP3 SWAP2 SWAP1 PUSH2 0x34BE JUMP JUMPDEST PUSH1 0x20 PUSH1 0x40 MLOAD DUP1 DUP4 SUB DUP2 PUSH0 DUP8 GAS CALL ISZERO DUP1 ISZERO PUSH2 0xDA1 JUMPI RETURNDATASIZE PUSH0 DUP1 RETURNDATACOPY RETURNDATASIZE PUSH0 REVERT JUMPDEST POP POP POP POP PUSH1 0x40 MLOAD RETURNDATASIZE PUSH1 0x1F NOT PUSH1 0x1F DUP3 ADD AND DUP3 ADD DUP1 PUSH1 0x40 MSTORE POP DUP2 ADD SWAP1 PUSH2 0xDC5 SWAP2 SWAP1 PUSH2 0x32E4 JUMP JUMPDEST SWAP1 POP PUSH1 0xC PUSH0 SWAP1 SLOAD SWAP1 PUSH2 0x100 EXP SWAP1 DIV PUSH20 0xFFFFFFFFFFFFFFFFFFFFFFFFFFFFFFFFFFFFFFFF AND PUSH20 0xFFFFFFFFFFFFFFFFFFFFFFFFFFFFFFFFFFFFFFFF AND PUSH4 0x5795FE07 CALLER PUSH1 0x40 MLOAD DUP3 PUSH4 0xFFFFFFFF AND PUSH1 0xE0 SHL DUP2 MSTORE PUSH1 0x4 ADD PUSH2 0xE21 SWAP2 SWAP1 PUSH2 0x2CE9 JUMP JUMPDEST PUSH1 0x20 PUSH1 0x40 MLOAD DUP1 DUP4 SUB DUP2 DUP7 GAS STATICCALL ISZERO DUP1 ISZERO PUSH2 0xE3C JUMPI RETURNDATASIZE PUSH0 DUP1 RETURNDATACOPY RETURNDATASIZE PUSH0 REVERT JUMPDEST POP POP POP POP PUSH1 0x40 MLOAD RETURNDATASIZE PUSH1 0x1F NOT PUSH1 0x1F DUP3 ADD AND DUP3 ADD DUP1 PUSH1 0x40 MSTORE POP DUP2 ADD SWAP1 PUSH2 0xE60 SWAP2 SWAP1 PUSH2 0x32A5 JUMP JUMPDEST PUSH2 0xE97 JUMPI DUP2 DUP2 SUB PUSH2 0xE7B JUMPI PUSH2 0xE76 CALLER DUP5 DUP5 PUSH2 0x1ABE JUMP JUMPDEST PUSH2 0xE92 JUMP JUMPDEST PUSH2 0xE91 CALLER DUP5 DUP4 DUP6 PUSH2 0xE8C SWAP2 SWAP1 PUSH2 0x34F3 JUMP JUMPDEST PUSH2 0x1ABE JUMP JUMPDEST JUMPDEST PUSH2 0xF08 JUMP JUMPDEST DUP2 DUP2 SUB PUSH2 0xECF JUMPI PUSH2 0xECA CALLER PUSH1 0x9 PUSH0 SWAP1 SLOAD SWAP1 PUSH2 0x100 EXP SWAP1 DIV PUSH20 0xFFFFFFFFFFFFFFFFFFFFFFFFFFFFFFFFFFFFFFFF AND DUP5 PUSH2 0x1ABE JUMP JUMPDEST PUSH2 0xF07 JUMP JUMPDEST PUSH2 0xF06 CALLER PUSH1 0x9 PUSH0 SWAP1 SLOAD SWAP1 PUSH2 0x100 EXP SWAP1 DIV PUSH20 0xFFFFFFFFFFFFFFFFFFFFFFFFFFFFFFFFFFFFFFFF AND DUP4 DUP6 PUSH2 0xF01 SWAP2 SWAP1 PUSH2 0x34F3 JUMP JUMPDEST PUSH2 0x1ABE JUMP JUMPDEST JUMPDEST JUMPDEST POP POP POP JUMP JUMPDEST PUSH0 PUSH2 0xF17 DUP3 PUSH2 0x1D7D JUMP JUMPDEST SWAP1 POP SWAP2 SWAP1 POP JUMP JUMPDEST PUSH2 0xF26 PUSH2 0x1ACE JUMP JUMPDEST PUSH2 0xF2E PUSH2 0x1DC3 JUMP JUMPDEST JUMP JUMPDEST PUSH0 PUSH1 0x60 DUP1 PUSH0 DUP1 PUSH0 PUSH1 0x60 PUSH2 0xF41 PUSH2 0x1E25 JUMP JUMPDEST PUSH2 0xF49 PUSH2 0x1E60 JUMP JUMPDEST CHAINID ADDRESS PUSH0 DUP1 SHL PUSH0 PUSH8 0xFFFFFFFFFFFFFFFF DUP2 GT ISZERO PUSH2 0xF68 JUMPI PUSH2 0xF67 PUSH2 0x2EB2 JUMP JUMPDEST JUMPDEST PUSH1 0x40 MLOAD SWAP1 DUP1 DUP3 MSTORE DUP1 PUSH1 0x20 MUL PUSH1 0x20 ADD DUP3 ADD PUSH1 0x40 MSTORE DUP1 ISZERO PUSH2 0xF96 JUMPI DUP2 PUSH1 0x20 ADD PUSH1 0x20 DUP3 MUL DUP1 CALLDATASIZE DUP4 CALLDATACOPY DUP1 DUP3 ADD SWAP2 POP POP SWAP1 POP JUMPDEST POP PUSH32 0xF00000000000000000000000000000000000000000000000000000000000000 SWAP6 SWAP5 SWAP4 SWAP3 SWAP2 SWAP1 SWAP7 POP SWAP7 POP SWAP7 POP SWAP7 POP SWAP7 POP SWAP7 POP SWAP7 POP SWAP1 SWAP2 SWAP3 SWAP4 SWAP5 SWAP6 SWAP7 JUMP JUMPDEST PUSH0 PUSH1 0x5 PUSH1 0x1 SWAP1 SLOAD SWAP1 PUSH2 0x100 EXP SWAP1 DIV PUSH20 0xFFFFFFFFFFFFFFFFFFFFFFFFFFFFFFFFFFFFFFFF AND SWAP1 POP SWAP1 JUMP JUMPDEST PUSH1 0x60 PUSH1 0x4 DUP1 SLOAD PUSH2 0x100D SWAP1 PUSH2 0x3071 JUMP JUMPDEST DUP1 PUSH1 0x1F ADD PUSH1 0x20 DUP1 SWAP2 DIV MUL PUSH1 0x20 ADD PUSH1 0x40 MLOAD SWAP1 DUP2 ADD PUSH1 0x40 MSTORE DUP1 SWAP3 SWAP2 SWAP1 DUP2 DUP2 MSTORE PUSH1 0x20 ADD DUP3 DUP1 SLOAD PUSH2 0x1039 SWAP1 PUSH2 0x3071 JUMP JUMPDEST DUP1 ISZERO PUSH2 0x1084 JUMPI DUP1 PUSH1 0x1F LT PUSH2 0x105B JUMPI PUSH2 0x100 DUP1 DUP4 SLOAD DIV MUL DUP4 MSTORE SWAP2 PUSH1 0x20 ADD SWAP2 PUSH2 0x1084 JUMP JUMPDEST DUP3 ADD SWAP2 SWAP1 PUSH0 MSTORE PUSH1 0x20 PUSH0 KECCAK256 SWAP1 JUMPDEST DUP2 SLOAD DUP2 MSTORE SWAP1 PUSH1 0x1 ADD SWAP1 PUSH1 0x20 ADD DUP1 DUP4 GT PUSH2 0x1067 JUMPI DUP3 SWAP1 SUB PUSH1 0x1F AND DUP3 ADD SWAP2 JUMPDEST POP POP POP POP POP SWAP1 POP SWAP1 JUMP JUMPDEST PUSH0 DUP1 PUSH2 0x1098 PUSH2 0x1817 JUMP JUMPDEST SWAP1 POP PUSH2 0x10A5 DUP2 DUP6 DUP6 PUSH2 0x18C2 JUMP JUMPDEST PUSH1 0x1 SWAP2 POP POP SWAP3 SWAP2 POP POP JUMP JUMPDEST PUSH1 0x60 PUSH1 0xB PUSH1 0x1 SWAP1 SLOAD SWAP1 PUSH2 0x100 EXP SWAP1 DIV PUSH20 0xFFFFFFFFFFFFFFFFFFFFFFFFFFFFFFFFFFFFFFFF AND PUSH20 0xFFFFFFFFFFFFFFFFFFFFFFFFFFFFFFFFFFFFFFFF AND PUSH4 0xB62A62EC PUSH1 0x40 MLOAD DUP2 PUSH4 0xFFFFFFFF AND PUSH1 0xE0 SHL DUP2 MSTORE PUSH1 0x4 ADD PUSH0 PUSH1 0x40 MLOAD DUP1 DUP4 SUB DUP2 DUP7 GAS STATICCALL ISZERO DUP1 ISZERO PUSH2 0x111C JUMPI RETURNDATASIZE PUSH0 DUP1 RETURNDATACOPY RETURNDATASIZE PUSH0 REVERT JUMPDEST POP POP POP POP PUSH1 0x40 MLOAD RETURNDATASIZE PUSH0 DUP3 RETURNDATACOPY RETURNDATASIZE PUSH1 0x1F NOT PUSH1 0x1F DUP3 ADD AND DUP3 ADD DUP1 PUSH1 0x40 MSTORE POP DUP2 ADD SWAP1 PUSH2 0x1144 SWAP2 SWAP1 PUSH2 0x3594 JUMP JUMPDEST SWAP1 POP SWAP1 JUMP JUMPDEST PUSH0 PUSH2 0x1153 CALLER PUSH2 0xC83 JUMP JUMPDEST SWAP1 POP SWAP1 JUMP JUMPDEST PUSH0 PUSH2 0x1162 CALLVALUE PUSH2 0x1C35 JUMP JUMPDEST SWAP1 POP PUSH0 DUP2 PUSH2 0x116E PUSH2 0x7EC JUMP JUMPDEST PUSH2 0x1178 SWAP2 SWAP1 PUSH2 0x310F JUMP JUMPDEST SWAP1 POP DUP1 PUSH1 0xA SLOAD LT ISZERO PUSH2 0x11BF JUMPI PUSH1 0x40 MLOAD PUSH32 0x8C379A000000000000000000000000000000000000000000000000000000000 DUP2 MSTORE PUSH1 0x4 ADD PUSH2 0x11B6 SWAP1 PUSH2 0x3412 JUMP JUMPDEST PUSH1 0x40 MLOAD DUP1 SWAP2 SUB SWAP1 REVERT JUMPDEST PUSH2 0x11D1 PUSH2 0x11CA PUSH2 0x1817 JUMP JUMPDEST DUP4 DUP4 PUSH2 0x1C64 JUMP JUMPDEST POP POP JUMP JUMPDEST DUP4 TIMESTAMP GT ISZERO PUSH2 0x121A JUMPI DUP4 PUSH1 0x40 MLOAD PUSH32 0x6279130200000000000000000000000000000000000000000000000000000000 DUP2 MSTORE PUSH1 0x4 ADD PUSH2 0x1211 SWAP2 SWAP1 PUSH2 0x2A1E JUMP JUMPDEST PUSH1 0x40 MLOAD DUP1 SWAP2 SUB SWAP1 REVERT JUMPDEST PUSH0 PUSH32 0x6E71EDAE12B1B97F4D1F60370FEF10105FA2FAAE0126114A169C64845D6126C9 DUP9 DUP9 DUP9 PUSH2 0x1248 DUP13 PUSH2 0x1E9B JUMP JUMPDEST DUP10 PUSH1 0x40 MLOAD PUSH1 0x20 ADD PUSH2 0x125E SWAP7 SWAP6 SWAP5 SWAP4 SWAP3 SWAP2 SWAP1 PUSH2 0x35DB JUMP JUMPDEST PUSH1 0x40 MLOAD PUSH1 0x20 DUP2 DUP4 SUB SUB DUP2 MSTORE SWAP1 PUSH1 0x40 MSTORE DUP1 MLOAD SWAP1 PUSH1 0x20 ADD KECCAK256 SWAP1 POP PUSH0 PUSH2 0x1280 DUP3 PUSH2 0x1EEE JUMP JUMPDEST SWAP1 POP PUSH0 PUSH2 0x128F DUP3 DUP8 DUP8 DUP8 PUSH2 0x1F07 JUMP JUMPDEST SWAP1 POP DUP10 PUSH20 0xFFFFFFFFFFFFFFFFFFFFFFFFFFFFFFFFFFFFFFFF AND DUP2 PUSH20 0xFFFFFFFFFFFFFFFFFFFFFFFFFFFFFFFFFFFFFFFF AND EQ PUSH2 0x1303 JUMPI DUP1 DUP11 PUSH1 0x40 MLOAD PUSH32 0x4B800E4600000000000000000000000000000000000000000000000000000000 DUP2 MSTORE PUSH1 0x4 ADD PUSH2 0x12FA SWAP3 SWAP2 SWAP1 PUSH2 0x363A JUMP JUMPDEST PUSH1 0x40 MLOAD DUP1 SWAP2 SUB SWAP1 REVERT JUMPDEST PUSH2 0x130E DUP11 DUP11 DUP11 PUSH2 0x181E JUMP JUMPDEST POP POP POP POP POP POP POP POP POP POP JUMP JUMPDEST PUSH0 PUSH1 0x1 PUSH0 DUP5 PUSH20 0xFFFFFFFFFFFFFFFFFFFFFFFFFFFFFFFFFFFFFFFF AND PUSH20 0xFFFFFFFFFFFFFFFFFFFFFFFFFFFFFFFFFFFFFFFF AND DUP2 MSTORE PUSH1 0x20 ADD SWAP1 DUP2 MSTORE PUSH1 0x20 ADD PUSH0 KECCAK256 PUSH0 DUP4 PUSH20 0xFFFFFFFFFFFFFFFFFFFFFFFFFFFFFFFFFFFFFFFF AND PUSH20 0xFFFFFFFFFFFFFFFFFFFFFFFFFFFFFFFFFFFFFFFF AND DUP2 MSTORE PUSH1 0x20 ADD SWAP1 DUP2 MSTORE PUSH1 0x20 ADD PUSH0 KECCAK256 SLOAD SWAP1 POP SWAP3 SWAP2 POP POP JUMP JUMPDEST DUP1 PUSH2 0x13AD PUSH2 0x13A8 PUSH2 0x1817 JUMP JUMPDEST PUSH2 0xC83 JUMP JUMPDEST LT ISZERO PUSH2 0x13EE JUMPI PUSH1 0x40 MLOAD PUSH32 0x8C379A000000000000000000000000000000000000000000000000000000000 DUP2 MSTORE PUSH1 0x4 ADD PUSH2 0x13E5 SWAP1 PUSH2 0x36AB JUMP JUMPDEST PUSH1 0x40 MLOAD DUP1 SWAP2 SUB SWAP1 REVERT JUMPDEST PUSH2 0x13F7 DUP2 PUSH2 0x1F35 JUMP JUMPDEST SWAP1 POP DUP1 SELFBALANCE LT ISZERO PUSH2 0x143C JUMPI PUSH1 0x40 MLOAD PUSH32 0x8C379A000000000000000000000000000000000000000000000000000000000 DUP2 MSTORE PUSH1 0x4 ADD PUSH2 0x1433 SWAP1 PUSH2 0x3713 JUMP JUMPDEST PUSH1 0x40 MLOAD DUP1 SWAP2 SUB SWAP1 REVERT JUMPDEST DUP2 PUSH20 0xFFFFFFFFFFFFFFFFFFFFFFFFFFFFFFFFFFFFFFFF AND PUSH2 0x8FC DUP3 SWAP1 DUP2 ISZERO MUL SWAP1 PUSH1 0x40 MLOAD PUSH0 PUSH1 0x40 MLOAD DUP1 DUP4 SUB DUP2 DUP6 DUP9 DUP9 CALL SWAP4 POP POP POP POP ISZERO DUP1 ISZERO PUSH2 0x147F JUMPI RETURNDATASIZE PUSH0 DUP1 RETURNDATACOPY RETURNDATASIZE PUSH0 REVERT JUMPDEST POP POP POP JUMP JUMPDEST PUSH1 0xA SLOAD DUP2 JUMP JUMPDEST PUSH2 0x1492 PUSH2 0x1ACE JUMP JUMPDEST PUSH0 PUSH20 0xFFFFFFFFFFFFFFFFFFFFFFFFFFFFFFFFFFFFFFFF AND DUP2 PUSH20 0xFFFFFFFFFFFFFFFFFFFFFFFFFFFFFFFFFFFFFFFF AND SUB PUSH2 0x1502 JUMPI PUSH0 PUSH1 0x40 MLOAD PUSH32 0x1E4FBDF700000000000000000000000000000000000000000000000000000000 DUP2 MSTORE PUSH1 0x4 ADD PUSH2 0x14F9 SWAP2 SWAP1 PUSH2 0x2CE9 JUMP JUMPDEST PUSH1 0x40 MLOAD DUP1 SWAP2 SUB SWAP1 REVERT JUMPDEST PUSH2 0x150B DUP2 PUSH2 0x1CB8 JUMP JUMPDEST POP JUMP JUMPDEST PUSH0 DUP1 PUSH0 DUP1 PUSH1 0xB PUSH1 0x1 SWAP1 SLOAD SWAP1 PUSH2 0x100 EXP SWAP1 DIV PUSH20 0xFFFFFFFFFFFFFFFFFFFFFFFFFFFFFFFFFFFFFFFF AND PUSH20 0xFFFFFFFFFFFFFFFFFFFFFFFFFFFFFFFFFFFFFFFF AND PUSH4 0x4FC8A991 PUSH2 0x1558 PUSH2 0x1817 JUMP JUMPDEST DUP8 PUSH1 0x40 MLOAD DUP4 PUSH4 0xFFFFFFFF AND PUSH1 0xE0 SHL DUP2 MSTORE PUSH1 0x4 ADD PUSH2 0x1576 SWAP3 SWAP2 SWAP1 PUSH2 0x3731 JUMP JUMPDEST PUSH1 0x40 DUP1 MLOAD DUP1 DUP4 SUB DUP2 PUSH0 DUP8 GAS CALL ISZERO DUP1 ISZERO PUSH2 0x1591 JUMPI RETURNDATASIZE PUSH0 DUP1 RETURNDATACOPY RETURNDATASIZE PUSH0 REVERT JUMPDEST POP POP POP POP PUSH1 0x40 MLOAD RETURNDATASIZE PUSH1 0x1F NOT PUSH1 0x1F DUP3 ADD AND DUP3 ADD DUP1 PUSH1 0x40 MSTORE POP DUP2 ADD SWAP1 PUSH2 0x15B5 SWAP2 SWAP1 PUSH2 0x3773 JUMP JUMPDEST SWAP2 POP SWAP2 POP DUP2 ISZERO PUSH2 0x1691 JUMPI PUSH0 PUSH1 0xB PUSH1 0x1 SWAP1 SLOAD SWAP1 PUSH2 0x100 EXP SWAP1 DIV PUSH20 0xFFFFFFFFFFFFFFFFFFFFFFFFFFFFFFFFFFFFFFFF AND PUSH20 0xFFFFFFFFFFFFFFFFFFFFFFFFFFFFFFFFFFFFFFFF AND PUSH4 0x572B0CC PUSH1 0x40 MLOAD DUP2 PUSH4 0xFFFFFFFF AND PUSH1 0xE0 SHL DUP2 MSTORE PUSH1 0x4 ADD PUSH1 0x20 PUSH1 0x40 MLOAD DUP1 DUP4 SUB DUP2 DUP7 GAS STATICCALL ISZERO DUP1 ISZERO PUSH2 0x162B JUMPI RETURNDATASIZE PUSH0 DUP1 RETURNDATACOPY RETURNDATASIZE PUSH0 REVERT JUMPDEST POP POP POP POP PUSH1 0x40 MLOAD RETURNDATASIZE PUSH1 0x1F NOT PUSH1 0x1F DUP3 ADD AND DUP3 ADD DUP1 PUSH1 0x40 MSTORE POP DUP2 ADD SWAP1 PUSH2 0x164F SWAP2 SWAP1 PUSH2 0x32E4 JUMP JUMPDEST SWAP1 POP PUSH2 0x1675 PUSH2 0x165C PUSH2 0x1817 JUMP JUMPDEST DUP3 PUSH2 0x1665 PUSH2 0x7EC JUMP JUMPDEST DUP5 PUSH2 0x1670 SWAP2 SWAP1 PUSH2 0x310F JUMP JUMPDEST PUSH2 0x1C64 JUMP JUMPDEST PUSH0 PUSH1 0xC PUSH1 0x14 PUSH2 0x100 EXP DUP2 SLOAD DUP2 PUSH1 0xFF MUL NOT AND SWAP1 DUP4 ISZERO ISZERO MUL OR SWAP1 SSTORE POP POP JUMPDEST DUP2 DUP2 SWAP4 POP SWAP4 POP POP POP SWAP2 POP SWAP2 JUMP JUMPDEST PUSH0 DUP1 PUSH0 DUP1 PUSH1 0xC PUSH0 SWAP1 SLOAD SWAP1 PUSH2 0x100 EXP SWAP1 DIV PUSH20 0xFFFFFFFFFFFFFFFFFFFFFFFFFFFFFFFFFFFFFFFF AND PUSH20 0xFFFFFFFFFFFFFFFFFFFFFFFFFFFFFFFFFFFFFFFF AND PUSH4 0x35E30AE4 CALLER DUP8 PUSH1 0x40 MLOAD DUP4 PUSH4 0xFFFFFFFF AND PUSH1 0xE0 SHL DUP2 MSTORE PUSH1 0x4 ADD PUSH2 0x16FE SWAP3 SWAP2 SWAP1 PUSH2 0x3731 JUMP JUMPDEST PUSH1 0x40 DUP1 MLOAD DUP1 DUP4 SUB DUP2 PUSH0 DUP8 GAS CALL ISZERO DUP1 ISZERO PUSH2 0x1719 JUMPI RETURNDATASIZE PUSH0 DUP1 RETURNDATACOPY RETURNDATASIZE PUSH0 REVERT JUMPDEST POP POP POP POP PUSH1 0x40 MLOAD RETURNDATASIZE PUSH1 0x1F NOT PUSH1 0x1F DUP3 ADD AND DUP3 ADD DUP1 PUSH1 0x40 MSTORE POP DUP2 ADD SWAP1 PUSH2 0x173D SWAP2 SWAP1 PUSH2 0x3773 JUMP JUMPDEST SWAP2 POP SWAP2 POP DUP2 ISZERO PUSH2 0x180A JUMPI PUSH0 DUP1 PUSH1 0xC PUSH0 SWAP1 SLOAD SWAP1 PUSH2 0x100 EXP SWAP1 DIV PUSH20 0xFFFFFFFFFFFFFFFFFFFFFFFFFFFFFFFFFFFFFFFF AND PUSH20 0xFFFFFFFFFFFFFFFFFFFFFFFFFFFFFFFFFFFFFFFF AND PUSH4 0x9D70853 PUSH1 0x40 MLOAD DUP2 PUSH4 0xFFFFFFFF AND PUSH1 0xE0 SHL DUP2 MSTORE PUSH1 0x4 ADD PUSH1 0x40 DUP1 MLOAD DUP1 DUP4 SUB DUP2 PUSH0 DUP8 GAS CALL ISZERO DUP1 ISZERO PUSH2 0x17B3 JUMPI RETURNDATASIZE PUSH0 DUP1 RETURNDATACOPY RETURNDATASIZE PUSH0 REVERT JUMPDEST POP POP POP POP PUSH1 0x40 MLOAD RETURNDATASIZE PUSH1 0x1F NOT PUSH1 0x1F DUP3 ADD AND DUP3 ADD DUP1 PUSH1 0x40 MSTORE POP DUP2 ADD SWAP1 PUSH2 0x17D7 SWAP2 SWAP1 PUSH2 0x37C5 JUMP JUMPDEST SWAP2 POP SWAP2 POP PUSH2 0x1807 PUSH1 0x9 PUSH0 SWAP1 SLOAD SWAP1 PUSH2 0x100 EXP SWAP1 DIV PUSH20 0xFFFFFFFFFFFFFFFFFFFFFFFFFFFFFFFFFFFFFFFF AND DUP4 DUP4 PUSH2 0x1ABE JUMP JUMPDEST POP POP JUMPDEST DUP2 DUP2 SWAP4 POP SWAP4 POP POP POP SWAP2 POP SWAP2 JUMP JUMPDEST PUSH0 CALLER SWAP1 POP SWAP1 JUMP JUMPDEST PUSH2 0x182B DUP4 DUP4 DUP4 PUSH1 0x1 PUSH2 0x1F64 JUMP JUMPDEST POP POP POP JUMP JUMPDEST PUSH0 PUSH2 0x183B DUP5 DUP5 PUSH2 0x131A JUMP JUMPDEST SWAP1 POP PUSH32 0xFFFFFFFFFFFFFFFFFFFFFFFFFFFFFFFFFFFFFFFFFFFFFFFFFFFFFFFFFFFFFFFF DUP2 EQ PUSH2 0x18BC JUMPI DUP2 DUP2 LT ISZERO PUSH2 0x18AD JUMPI DUP3 DUP2 DUP4 PUSH1 0x40 MLOAD PUSH32 0xFB8F41B200000000000000000000000000000000000000000000000000000000 DUP2 MSTORE PUSH1 0x4 ADD PUSH2 0x18A4 SWAP4 SWAP3 SWAP2 SWAP1 PUSH2 0x3803 JUMP JUMPDEST PUSH1 0x40 MLOAD DUP1 SWAP2 SUB SWAP1 REVERT JUMPDEST PUSH2 0x18BB DUP5 DUP5 DUP5 DUP5 SUB PUSH0 PUSH2 0x1F64 JUMP JUMPDEST JUMPDEST POP POP POP POP JUMP JUMPDEST PUSH0 PUSH20 0xFFFFFFFFFFFFFFFFFFFFFFFFFFFFFFFFFFFFFFFF AND DUP4 PUSH20 0xFFFFFFFFFFFFFFFFFFFFFFFFFFFFFFFFFFFFFFFF AND SUB PUSH2 0x1932 JUMPI PUSH0 PUSH1 0x40 MLOAD PUSH32 0x96C6FD1E00000000000000000000000000000000000000000000000000000000 DUP2 MSTORE PUSH1 0x4 ADD PUSH2 0x1929 SWAP2 SWAP1 PUSH2 0x2CE9 JUMP JUMPDEST PUSH1 0x40 MLOAD DUP1 SWAP2 SUB SWAP1 REVERT JUMPDEST PUSH0 PUSH20 0xFFFFFFFFFFFFFFFFFFFFFFFFFFFFFFFFFFFFFFFF AND DUP3 PUSH20 0xFFFFFFFFFFFFFFFFFFFFFFFFFFFFFFFFFFFFFFFF AND SUB PUSH2 0x19A2 JUMPI PUSH0 PUSH1 0x40 MLOAD PUSH32 0xEC442F0500000000000000000000000000000000000000000000000000000000 DUP2 MSTORE PUSH1 0x4 ADD PUSH2 0x1999 SWAP2 SWAP1 PUSH2 0x2CE9 JUMP JUMPDEST PUSH1 0x40 MLOAD DUP1 SWAP2 SUB SWAP1 REVERT JUMPDEST PUSH2 0x19AD DUP4 DUP4 DUP4 PUSH2 0x1ABE JUMP JUMPDEST POP POP POP JUMP JUMPDEST PUSH0 DUP1 DUP3 SUB PUSH2 0x19CD JUMPI DUP2 DUP4 PUSH2 0x19C6 SWAP2 SWAP1 PUSH2 0x3865 JUMP JUMPDEST SWAP1 POP PUSH2 0x1A02 JUMP JUMPDEST PUSH0 DUP4 EQ PUSH2 0x19FD JUMPI PUSH1 0x1 DUP3 PUSH1 0x1 DUP6 PUSH2 0x19E4 SWAP2 SWAP1 PUSH2 0x34F3 JUMP JUMPDEST PUSH2 0x19EE SWAP2 SWAP1 PUSH2 0x3865 JUMP JUMPDEST PUSH2 0x19F8 SWAP2 SWAP1 PUSH2 0x310F JUMP JUMPDEST PUSH2 0x19FF JUMP JUMPDEST PUSH0 JUMPDEST SWAP1 POP JUMPDEST SWAP3 SWAP2 POP POP JUMP JUMPDEST PUSH0 PUSH32 0x0 PUSH20 0xFFFFFFFFFFFFFFFFFFFFFFFFFFFFFFFFFFFFFFFF AND ADDRESS PUSH20 0xFFFFFFFFFFFFFFFFFFFFFFFFFFFFFFFFFFFFFFFF AND EQ DUP1 ISZERO PUSH2 0x1A83 JUMPI POP PUSH32 0x0 CHAINID EQ JUMPDEST ISZERO PUSH2 0x1AB0 JUMPI PUSH32 0x0 SWAP1 POP PUSH2 0x1ABB JUMP JUMPDEST PUSH2 0x1AB8 PUSH2 0x2133 JUMP JUMPDEST SWAP1 POP JUMPDEST SWAP1 JUMP JUMPDEST PUSH2 0x1AC9 DUP4 DUP4 DUP4 PUSH2 0x21C8 JUMP JUMPDEST POP POP POP JUMP JUMPDEST PUSH2 0x1AD6 PUSH2 0x1817 JUMP JUMPDEST PUSH20 0xFFFFFFFFFFFFFFFFFFFFFFFFFFFFFFFFFFFFFFFF AND PUSH2 0x1AF4 PUSH2 0xFD5 JUMP JUMPDEST PUSH20 0xFFFFFFFFFFFFFFFFFFFFFFFFFFFFFFFFFFFFFFFF AND EQ PUSH2 0x1B53 JUMPI PUSH2 0x1B17 PUSH2 0x1817 JUMP JUMPDEST PUSH1 0x40 MLOAD PUSH32 0x118CDAA700000000000000000000000000000000000000000000000000000000 DUP2 MSTORE PUSH1 0x4 ADD PUSH2 0x1B4A SWAP2 SWAP1 PUSH2 0x2CE9 JUMP JUMPDEST PUSH1 0x40 MLOAD DUP1 SWAP2 SUB SWAP1 REVERT JUMPDEST JUMP JUMPDEST PUSH2 0x1B5D PUSH2 0x21E0 JUMP JUMPDEST PUSH0 PUSH1 0x5 PUSH0 PUSH2 0x100 EXP DUP2 SLOAD DUP2 PUSH1 0xFF MUL NOT AND SWAP1 DUP4 ISZERO ISZERO MUL OR SWAP1 SSTORE POP PUSH32 0x5DB9EE0A495BF2E6FF9C91A7834C1BA4FDD244A5E8AA4E537BD38AEAE4B073AA PUSH2 0x1B9F PUSH2 0x1817 JUMP JUMPDEST PUSH1 0x40 MLOAD PUSH2 0x1BAC SWAP2 SWAP1 PUSH2 0x2CE9 JUMP JUMPDEST PUSH1 0x40 MLOAD DUP1 SWAP2 SUB SWAP1 LOG1 JUMP JUMPDEST PUSH0 PUSH20 0xFFFFFFFFFFFFFFFFFFFFFFFFFFFFFFFFFFFFFFFF AND DUP3 PUSH20 0xFFFFFFFFFFFFFFFFFFFFFFFFFFFFFFFFFFFFFFFF AND SUB PUSH2 0x1C26 JUMPI PUSH0 PUSH1 0x40 MLOAD PUSH32 0xEC442F0500000000000000000000000000000000000000000000000000000000 DUP2 MSTORE PUSH1 0x4 ADD PUSH2 0x1C1D SWAP2 SWAP1 PUSH2 0x2CE9 JUMP JUMPDEST PUSH1 0x40 MLOAD DUP1 SWAP2 SUB SWAP1 REVERT JUMPDEST PUSH2 0x1C31 PUSH0 DUP4 DUP4 PUSH2 0x1ABE JUMP JUMPDEST POP POP JUMP JUMPDEST PUSH0 PUSH2 0x1C5D PUSH1 0xB PUSH0 SWAP1 SLOAD SWAP1 PUSH2 0x100 EXP SWAP1 DIV PUSH1 0xFF AND PUSH1 0xFF AND DUP4 PUSH2 0x1C56 SWAP2 SWAP1 PUSH2 0x30CE JUMP JUMPDEST PUSH1 0x64 PUSH2 0x19B2 JUMP JUMPDEST SWAP1 POP SWAP2 SWAP1 POP JUMP JUMPDEST DUP1 PUSH1 0xA SLOAD LT ISZERO PUSH2 0x1CA9 JUMPI PUSH1 0x40 MLOAD PUSH32 0x8C379A000000000000000000000000000000000000000000000000000000000 DUP2 MSTORE PUSH1 0x4 ADD PUSH2 0x1CA0 SWAP1 PUSH2 0x3412 JUMP JUMPDEST PUSH1 0x40 MLOAD DUP1 SWAP2 SUB SWAP1 REVERT JUMPDEST PUSH2 0x1CB3 DUP4 DUP4 PUSH2 0x1BB6 JUMP JUMPDEST POP POP POP JUMP JUMPDEST PUSH0 PUSH1 0x5 PUSH1 0x1 SWAP1 SLOAD SWAP1 PUSH2 0x100 EXP SWAP1 DIV PUSH20 0xFFFFFFFFFFFFFFFFFFFFFFFFFFFFFFFFFFFFFFFF AND SWAP1 POP DUP2 PUSH1 0x5 PUSH1 0x1 PUSH2 0x100 EXP DUP2 SLOAD DUP2 PUSH20 0xFFFFFFFFFFFFFFFFFFFFFFFFFFFFFFFFFFFFFFFF MUL NOT AND SWAP1 DUP4 PUSH20 0xFFFFFFFFFFFFFFFFFFFFFFFFFFFFFFFFFFFFFFFF AND MUL OR SWAP1 SSTORE POP DUP2 PUSH20 0xFFFFFFFFFFFFFFFFFFFFFFFFFFFFFFFFFFFFFFFF AND DUP2 PUSH20 0xFFFFFFFFFFFFFFFFFFFFFFFFFFFFFFFFFFFFFFFF AND PUSH32 0x8BE0079C531659141344CD1FD0A4F28419497F9722A3DAAFE3B4186F6B6457E0 PUSH1 0x40 MLOAD PUSH1 0x40 MLOAD DUP1 SWAP2 SUB SWAP1 LOG3 POP POP JUMP JUMPDEST PUSH0 PUSH1 0x8 PUSH0 DUP4 PUSH20 0xFFFFFFFFFFFFFFFFFFFFFFFFFFFFFFFFFFFFFFFF AND PUSH20 0xFFFFFFFFFFFFFFFFFFFFFFFFFFFFFFFFFFFFFFFF AND DUP2 MSTORE PUSH1 0x20 ADD SWAP1 DUP2 MSTORE PUSH1 0x20 ADD PUSH0 KECCAK256 SLOAD SWAP1 POP SWAP2 SWAP1 POP JUMP JUMPDEST PUSH2 0x1DCB PUSH2 0x2220 JUMP JUMPDEST PUSH1 0x1 PUSH1 0x5 PUSH0 PUSH2 0x100 EXP DUP2 SLOAD DUP2 PUSH1 0xFF MUL NOT AND SWAP1 DUP4 ISZERO ISZERO MUL OR SWAP1 SSTORE POP PUSH32 0x62E78CEA01BEE320CD4E420270B5EA74000D11B0C9F74754EBDBFC544B05A258 PUSH2 0x1E0E PUSH2 0x1817 JUMP JUMPDEST PUSH1 0x40 MLOAD PUSH2 0x1E1B SWAP2 SWAP1 PUSH2 0x2CE9 JUMP JUMPDEST PUSH1 0x40 MLOAD DUP1 SWAP2 SUB SWAP1 LOG1 JUMP JUMPDEST PUSH1 0x60 PUSH2 0x1E5B PUSH1 0x6 PUSH32 0x0 PUSH2 0x2261 SWAP1 SWAP2 SWAP1 PUSH4 0xFFFFFFFF AND JUMP JUMPDEST SWAP1 POP SWAP1 JUMP JUMPDEST PUSH1 0x60 PUSH2 0x1E96 PUSH1 0x7 PUSH32 0x0 PUSH2 0x2261 SWAP1 SWAP2 SWAP1 PUSH4 0xFFFFFFFF AND JUMP JUMPDEST SWAP1 POP SWAP1 JUMP JUMPDEST PUSH0 PUSH1 0x8 PUSH0 DUP4 PUSH20 0xFFFFFFFFFFFFFFFFFFFFFFFFFFFFFFFFFFFFFFFF AND PUSH20 0xFFFFFFFFFFFFFFFFFFFFFFFFFFFFFFFFFFFFFFFF AND DUP2 MSTORE PUSH1 0x20 ADD SWAP1 DUP2 MSTORE PUSH1 0x20 ADD PUSH0 KECCAK256 PUSH0 DUP2 SLOAD DUP1 SWAP3 SWAP2 SWAP1 PUSH1 0x1 ADD SWAP2 SWAP1 POP SSTORE SWAP1 POP SWAP2 SWAP1 POP JUMP JUMPDEST PUSH0 PUSH2 0x1F00 PUSH2 0x1EFA PUSH2 0x1A08 JUMP JUMPDEST DUP4 PUSH2 0x230E JUMP JUMPDEST SWAP1 POP SWAP2 SWAP1 POP JUMP JUMPDEST PUSH0 DUP1 PUSH0 DUP1 PUSH2 0x1F17 DUP9 DUP9 DUP9 DUP9 PUSH2 0x234E JUMP JUMPDEST SWAP3 POP SWAP3 POP SWAP3 POP PUSH2 0x1F27 DUP3 DUP3 PUSH2 0x2435 JUMP JUMPDEST DUP3 SWAP4 POP POP POP POP SWAP5 SWAP4 POP POP POP POP JUMP JUMPDEST PUSH0 PUSH2 0x1F5D PUSH1 0x64 DUP4 PUSH2 0x1F46 SWAP2 SWAP1 PUSH2 0x30CE JUMP JUMPDEST PUSH1 0xB PUSH0 SWAP1 SLOAD SWAP1 PUSH2 0x100 EXP SWAP1 DIV PUSH1 0xFF AND PUSH1 0xFF AND PUSH2 0x19B2 JUMP JUMPDEST SWAP1 POP SWAP2 SWAP1 POP JUMP JUMPDEST PUSH0 PUSH20 0xFFFFFFFFFFFFFFFFFFFFFFFFFFFFFFFFFFFFFFFF AND DUP5 PUSH20 0xFFFFFFFFFFFFFFFFFFFFFFFFFFFFFFFFFFFFFFFF AND SUB PUSH2 0x1FD4 JUMPI PUSH0 PUSH1 0x40 MLOAD PUSH32 0xE602DF0500000000000000000000000000000000000000000000000000000000 DUP2 MSTORE PUSH1 0x4 ADD PUSH2 0x1FCB SWAP2 SWAP1 PUSH2 0x2CE9 JUMP JUMPDEST PUSH1 0x40 MLOAD DUP1 SWAP2 SUB SWAP1 REVERT JUMPDEST PUSH0 PUSH20 0xFFFFFFFFFFFFFFFFFFFFFFFFFFFFFFFFFFFFFFFF AND DUP4 PUSH20 0xFFFFFFFFFFFFFFFFFFFFFFFFFFFFFFFFFFFFFFFF AND SUB PUSH2 0x2044 JUMPI PUSH0 PUSH1 0x40 MLOAD PUSH32 0x94280D6200000000000000000000000000000000000000000000000000000000 DUP2 MSTORE PUSH1 0x4 ADD PUSH2 0x203B SWAP2 SWAP1 PUSH2 0x2CE9 JUMP JUMPDEST PUSH1 0x40 MLOAD DUP1 SWAP2 SUB SWAP1 REVERT JUMPDEST DUP2 PUSH1 0x1 PUSH0 DUP7 PUSH20 0xFFFFFFFFFFFFFFFFFFFFFFFFFFFFFFFFFFFFFFFF AND PUSH20 0xFFFFFFFFFFFFFFFFFFFFFFFFFFFFFFFFFFFFFFFF AND DUP2 MSTORE PUSH1 0x20 ADD SWAP1 DUP2 MSTORE PUSH1 0x20 ADD PUSH0 KECCAK256 PUSH0 DUP6 PUSH20 0xFFFFFFFFFFFFFFFFFFFFFFFFFFFFFFFFFFFFFFFF AND PUSH20 0xFFFFFFFFFFFFFFFFFFFFFFFFFFFFFFFFFFFFFFFF AND DUP2 MSTORE PUSH1 0x20 ADD SWAP1 DUP2 MSTORE PUSH1 0x20 ADD PUSH0 KECCAK256 DUP2 SWAP1 SSTORE POP DUP1 ISZERO PUSH2 0x212D JUMPI DUP3 PUSH20 0xFFFFFFFFFFFFFFFFFFFFFFFFFFFFFFFFFFFFFFFF AND DUP5 PUSH20 0xFFFFFFFFFFFFFFFFFFFFFFFFFFFFFFFFFFFFFFFF AND PUSH32 0x8C5BE1E5EBEC7D5BD14F71427D1E84F3DD0314C0F7B2291E5B200AC8C7C3B925 DUP5 PUSH1 0x40 MLOAD PUSH2 0x2124 SWAP2 SWAP1 PUSH2 0x2A1E JUMP JUMPDEST PUSH1 0x40 MLOAD DUP1 SWAP2 SUB SWAP1 LOG3 JUMPDEST POP POP POP POP JUMP JUMPDEST PUSH0 PUSH32 0x8B73C3C69BB8FE3D512ECC4CF759CC79239F7B179B0FFACAA9A75D522B39400F PUSH32 0x0 PUSH32 0x0 CHAINID ADDRESS PUSH1 0x40 MLOAD PUSH1 0x20 ADD PUSH2 0x21AD SWAP6 SWAP5 SWAP4 SWAP3 SWAP2 SWAP1 PUSH2 0x3895 JUMP JUMPDEST PUSH1 0x40 MLOAD PUSH1 0x20 DUP2 DUP4 SUB SUB DUP2 MSTORE SWAP1 PUSH1 0x40 MSTORE DUP1 MLOAD SWAP1 PUSH1 0x20 ADD KECCAK256 SWAP1 POP SWAP1 JUMP JUMPDEST PUSH2 0x21D0 PUSH2 0x2220 JUMP JUMPDEST PUSH2 0x21DB DUP4 DUP4 DUP4 PUSH2 0x2597 JUMP JUMPDEST POP POP POP JUMP JUMPDEST PUSH2 0x21E8 PUSH2 0xBF7 JUMP JUMPDEST PUSH2 0x221E JUMPI PUSH1 0x40 MLOAD PUSH32 0x8DFC202B00000000000000000000000000000000000000000000000000000000 DUP2 MSTORE PUSH1 0x4 ADD PUSH1 0x40 MLOAD DUP1 SWAP2 SUB SWAP1 REVERT JUMPDEST JUMP JUMPDEST PUSH2 0x2228 PUSH2 0xBF7 JUMP JUMPDEST ISZERO PUSH2 0x225F JUMPI PUSH1 0x40 MLOAD PUSH32 0xD93C066500000000000000000000000000000000000000000000000000000000 DUP2 MSTORE PUSH1 0x4 ADD PUSH1 0x40 MLOAD DUP1 SWAP2 SUB SWAP1 REVERT JUMPDEST JUMP JUMPDEST PUSH1 0x60 PUSH1 0xFF PUSH0 SHL DUP4 EQ PUSH2 0x227D JUMPI PUSH2 0x2276 DUP4 PUSH2 0x27B0 JUMP JUMPDEST SWAP1 POP PUSH2 0x2308 JUMP JUMPDEST DUP2 DUP1 SLOAD PUSH2 0x2289 SWAP1 PUSH2 0x3071 JUMP JUMPDEST DUP1 PUSH1 0x1F ADD PUSH1 0x20 DUP1 SWAP2 DIV MUL PUSH1 0x20 ADD PUSH1 0x40 MLOAD SWAP1 DUP2 ADD PUSH1 0x40 MSTORE DUP1 SWAP3 SWAP2 SWAP1 DUP2 DUP2 MSTORE PUSH1 0x20 ADD DUP3 DUP1 SLOAD PUSH2 0x22B5 SWAP1 PUSH2 0x3071 JUMP JUMPDEST DUP1 ISZERO PUSH2 0x2300 JUMPI DUP1 PUSH1 0x1F LT PUSH2 0x22D7 JUMPI PUSH2 0x100 DUP1 DUP4 SLOAD DIV MUL DUP4 MSTORE SWAP2 PUSH1 0x20 ADD SWAP2 PUSH2 0x2300 JUMP JUMPDEST DUP3 ADD SWAP2 SWAP1 PUSH0 MSTORE PUSH1 0x20 PUSH0 KECCAK256 SWAP1 JUMPDEST DUP2 SLOAD DUP2 MSTORE SWAP1 PUSH1 0x1 ADD SWAP1 PUSH1 0x20 ADD DUP1 DUP4 GT PUSH2 0x22E3 JUMPI DUP3 SWAP1 SUB PUSH1 0x1F AND DUP3 ADD SWAP2 JUMPDEST POP POP POP POP POP SWAP1 POP JUMPDEST SWAP3 SWAP2 POP POP JUMP JUMPDEST PUSH0 PUSH1 0x40 MLOAD PUSH32 0x1901000000000000000000000000000000000000000000000000000000000000 DUP2 MSTORE DUP4 PUSH1 0x2 DUP3 ADD MSTORE DUP3 PUSH1 0x22 DUP3 ADD MSTORE PUSH1 0x42 DUP2 KECCAK256 SWAP2 POP POP SWAP3 SWAP2 POP POP JUMP JUMPDEST PUSH0 DUP1 PUSH0 PUSH32 0x7FFFFFFFFFFFFFFFFFFFFFFFFFFFFFFF5D576E7357A4501DDFE92F46681B20A0 DUP5 PUSH0 SHR GT ISZERO PUSH2 0x238A JUMPI PUSH0 PUSH1 0x3 DUP6 SWAP3 POP SWAP3 POP SWAP3 POP PUSH2 0x242B JUMP JUMPDEST PUSH0 PUSH1 0x1 DUP9 DUP9 DUP9 DUP9 PUSH1 0x40 MLOAD PUSH0 DUP2 MSTORE PUSH1 0x20 ADD PUSH1 0x40 MSTORE PUSH1 0x40 MLOAD PUSH2 0x23AD SWAP5 SWAP4 SWAP3 SWAP2 SWAP1 PUSH2 0x38E6 JUMP JUMPDEST PUSH1 0x20 PUSH1 0x40 MLOAD PUSH1 0x20 DUP2 SUB SWAP1 DUP1 DUP5 SUB SWAP1 DUP6 GAS STATICCALL ISZERO DUP1 ISZERO PUSH2 0x23CD JUMPI RETURNDATASIZE PUSH0 DUP1 RETURNDATACOPY RETURNDATASIZE PUSH0 REVERT JUMPDEST POP POP POP PUSH1 0x20 PUSH1 0x40 MLOAD SUB MLOAD SWAP1 POP PUSH0 PUSH20 0xFFFFFFFFFFFFFFFFFFFFFFFFFFFFFFFFFFFFFFFF AND DUP2 PUSH20 0xFFFFFFFFFFFFFFFFFFFFFFFFFFFFFFFFFFFFFFFF AND SUB PUSH2 0x241E JUMPI PUSH0 PUSH1 0x1 PUSH0 DUP1 SHL SWAP4 POP SWAP4 POP SWAP4 POP POP PUSH2 0x242B JUMP JUMPDEST DUP1 PUSH0 DUP1 PUSH0 SHL SWAP4 POP SWAP4 POP SWAP4 POP POP JUMPDEST SWAP5 POP SWAP5 POP SWAP5 SWAP2 POP POP JUMP JUMPDEST PUSH0 PUSH1 0x3 DUP2 GT ISZERO PUSH2 0x2448 JUMPI PUSH2 0x2447 PUSH2 0x3929 JUMP JUMPDEST JUMPDEST DUP3 PUSH1 0x3 DUP2 GT ISZERO PUSH2 0x245B JUMPI PUSH2 0x245A PUSH2 0x3929 JUMP JUMPDEST JUMPDEST SUB ISZERO PUSH2 0x2593 JUMPI PUSH1 0x1 PUSH1 0x3 DUP2 GT ISZERO PUSH2 0x2475 JUMPI PUSH2 0x2474 PUSH2 0x3929 JUMP JUMPDEST JUMPDEST DUP3 PUSH1 0x3 DUP2 GT ISZERO PUSH2 0x2488 JUMPI PUSH2 0x2487 PUSH2 0x3929 JUMP JUMPDEST JUMPDEST SUB PUSH2 0x24BF JUMPI PUSH1 0x40 MLOAD PUSH32 0xF645EEDF00000000000000000000000000000000000000000000000000000000 DUP2 MSTORE PUSH1 0x4 ADD PUSH1 0x40 MLOAD DUP1 SWAP2 SUB SWAP1 REVERT JUMPDEST PUSH1 0x2 PUSH1 0x3 DUP2 GT ISZERO PUSH2 0x24D3 JUMPI PUSH2 0x24D2 PUSH2 0x3929 JUMP JUMPDEST JUMPDEST DUP3 PUSH1 0x3 DUP2 GT ISZERO PUSH2 0x24E6 JUMPI PUSH2 0x24E5 PUSH2 0x3929 JUMP JUMPDEST JUMPDEST SUB PUSH2 0x252A JUMPI DUP1 PUSH0 SHR PUSH1 0x40 MLOAD PUSH32 0xFCE698F700000000000000000000000000000000000000000000000000000000 DUP2 MSTORE PUSH1 0x4 ADD PUSH2 0x2521 SWAP2 SWAP1 PUSH2 0x2A1E JUMP JUMPDEST PUSH1 0x40 MLOAD DUP1 SWAP2 SUB SWAP1 REVERT JUMPDEST PUSH1 0x3 DUP1 DUP2 GT ISZERO PUSH2 0x253D JUMPI PUSH2 0x253C PUSH2 0x3929 JUMP JUMPDEST JUMPDEST DUP3 PUSH1 0x3 DUP2 GT ISZERO PUSH2 0x2550 JUMPI PUSH2 0x254F PUSH2 0x3929 JUMP JUMPDEST JUMPDEST SUB PUSH2 0x2592 JUMPI DUP1 PUSH1 0x40 MLOAD PUSH32 0xD78BCE0C00000000000000000000000000000000000000000000000000000000 DUP2 MSTORE PUSH1 0x4 ADD PUSH2 0x2589 SWAP2 SWAP1 PUSH2 0x2B23 JUMP JUMPDEST PUSH1 0x40 MLOAD DUP1 SWAP2 SUB SWAP1 REVERT JUMPDEST JUMPDEST POP POP JUMP JUMPDEST PUSH0 PUSH20 0xFFFFFFFFFFFFFFFFFFFFFFFFFFFFFFFFFFFFFFFF AND DUP4 PUSH20 0xFFFFFFFFFFFFFFFFFFFFFFFFFFFFFFFFFFFFFFFF AND SUB PUSH2 0x25E7 JUMPI DUP1 PUSH1 0x2 PUSH0 DUP3 DUP3 SLOAD PUSH2 0x25DB SWAP2 SWAP1 PUSH2 0x310F JUMP JUMPDEST SWAP3 POP POP DUP2 SWAP1 SSTORE POP PUSH2 0x26B5 JUMP JUMPDEST PUSH0 DUP1 PUSH0 DUP6 PUSH20 0xFFFFFFFFFFFFFFFFFFFFFFFFFFFFFFFFFFFFFFFF AND PUSH20 0xFFFFFFFFFFFFFFFFFFFFFFFFFFFFFFFFFFFFFFFF AND DUP2 MSTORE PUSH1 0x20 ADD SWAP1 DUP2 MSTORE PUSH1 0x20 ADD PUSH0 KECCAK256 SLOAD SWAP1 POP DUP2 DUP2 LT ISZERO PUSH2 0x2670 JUMPI DUP4 DUP2 DUP4 PUSH1 0x40 MLOAD PUSH32 0xE450D38C00000000000000000000000000000000000000000000000000000000 DUP2 MSTORE PUSH1 0x4 ADD PUSH2 0x2667 SWAP4 SWAP3 SWAP2 SWAP1 PUSH2 0x3803 JUMP JUMPDEST PUSH1 0x40 MLOAD DUP1 SWAP2 SUB SWAP1 REVERT JUMPDEST DUP2 DUP2 SUB PUSH0 DUP1 DUP7 PUSH20 0xFFFFFFFFFFFFFFFFFFFFFFFFFFFFFFFFFFFFFFFF AND PUSH20 0xFFFFFFFFFFFFFFFFFFFFFFFFFFFFFFFFFFFFFFFF AND DUP2 MSTORE PUSH1 0x20 ADD SWAP1 DUP2 MSTORE PUSH1 0x20 ADD PUSH0 KECCAK256 DUP2 SWAP1 SSTORE POP POP JUMPDEST PUSH0 PUSH20 0xFFFFFFFFFFFFFFFFFFFFFFFFFFFFFFFFFFFFFFFF AND DUP3 PUSH20 0xFFFFFFFFFFFFFFFFFFFFFFFFFFFFFFFFFFFFFFFF AND SUB PUSH2 0x26FC JUMPI DUP1 PUSH1 0x2 PUSH0 DUP3 DUP3 SLOAD SUB SWAP3 POP POP DUP2 SWAP1 SSTORE POP PUSH2 0x2746 JUMP JUMPDEST DUP1 PUSH0 DUP1 DUP5 PUSH20 0xFFFFFFFFFFFFFFFFFFFFFFFFFFFFFFFFFFFFFFFF AND PUSH20 0xFFFFFFFFFFFFFFFFFFFFFFFFFFFFFFFFFFFFFFFF AND DUP2 MSTORE PUSH1 0x20 ADD SWAP1 DUP2 MSTORE PUSH1 0x20 ADD PUSH0 KECCAK256 PUSH0 DUP3 DUP3 SLOAD ADD SWAP3 POP POP DUP2 SWAP1 SSTORE POP JUMPDEST DUP2 PUSH20 0xFFFFFFFFFFFFFFFFFFFFFFFFFFFFFFFFFFFFFFFF AND DUP4 PUSH20 0xFFFFFFFFFFFFFFFFFFFFFFFFFFFFFFFFFFFFFFFF AND PUSH32 0xDDF252AD1BE2C89B69C2B068FC378DAA952BA7F163C4A11628F55A4DF523B3EF DUP4 PUSH1 0x40 MLOAD PUSH2 0x27A3 SWAP2 SWAP1 PUSH2 0x2A1E JUMP JUMPDEST PUSH1 0x40 MLOAD DUP1 SWAP2 SUB SWAP1 LOG3 POP POP POP JUMP JUMPDEST PUSH1 0x60 PUSH0 PUSH2 0x27BC DUP4 PUSH2 0x2822 JUMP JUMPDEST SWAP1 POP PUSH0 PUSH1 0x20 PUSH8 0xFFFFFFFFFFFFFFFF DUP2 GT ISZERO PUSH2 0x27DA JUMPI PUSH2 0x27D9 PUSH2 0x2EB2 JUMP JUMPDEST JUMPDEST PUSH1 0x40 MLOAD SWAP1 DUP1 DUP3 MSTORE DUP1 PUSH1 0x1F ADD PUSH1 0x1F NOT AND PUSH1 0x20 ADD DUP3 ADD PUSH1 0x40 MSTORE DUP1 ISZERO PUSH2 0x280C JUMPI DUP2 PUSH1 0x20 ADD PUSH1 0x1 DUP3 MUL DUP1 CALLDATASIZE DUP4 CALLDATACOPY DUP1 DUP3 ADD SWAP2 POP POP SWAP1 POP JUMPDEST POP SWAP1 POP DUP2 DUP2 MSTORE DUP4 PUSH1 0x20 DUP3 ADD MSTORE DUP1 SWAP3 POP POP POP SWAP2 SWAP1 POP JUMP JUMPDEST PUSH0 DUP1 PUSH1 0xFF DUP4 PUSH0 SHR AND SWAP1 POP PUSH1 0x1F DUP2 GT ISZERO PUSH2 0x2867 JUMPI PUSH1 0x40 MLOAD PUSH32 0xB3512B0C00000000000000000000000000000000000000000000000000000000 DUP2 MSTORE PUSH1 0x4 ADD PUSH1 0x40 MLOAD DUP1 SWAP2 SUB SWAP1 REVERT JUMPDEST DUP1 SWAP2 POP POP SWAP2 SWAP1 POP JUMP JUMPDEST PUSH0 DUP2 MLOAD SWAP1 POP SWAP2 SWAP1 POP JUMP JUMPDEST PUSH0 DUP3 DUP3 MSTORE PUSH1 0x20 DUP3 ADD SWAP1 POP SWAP3 SWAP2 POP POP JUMP JUMPDEST DUP3 DUP2 DUP4 MCOPY PUSH0 DUP4 DUP4 ADD MSTORE POP POP POP JUMP JUMPDEST PUSH0 PUSH1 0x1F NOT PUSH1 0x1F DUP4 ADD AND SWAP1 POP SWAP2 SWAP1 POP JUMP JUMPDEST PUSH0 PUSH2 0x28B2 DUP3 PUSH2 0x2870 JUMP JUMPDEST PUSH2 0x28BC DUP2 DUP6 PUSH2 0x287A JUMP JUMPDEST SWAP4 POP PUSH2 0x28CC DUP2 DUP6 PUSH1 0x20 DUP7 ADD PUSH2 0x288A JUMP JUMPDEST PUSH2 0x28D5 DUP2 PUSH2 0x2898 JUMP JUMPDEST DUP5 ADD SWAP2 POP POP SWAP3 SWAP2 POP POP JUMP JUMPDEST PUSH0 PUSH1 0x20 DUP3 ADD SWAP1 POP DUP2 DUP2 SUB PUSH0 DUP4 ADD MSTORE PUSH2 0x28F8 DUP2 DUP5 PUSH2 0x28A8 JUMP JUMPDEST SWAP1 POP SWAP3 SWAP2 POP POP JUMP JUMPDEST PUSH0 PUSH1 0x40 MLOAD SWAP1 POP SWAP1 JUMP JUMPDEST PUSH0 DUP1 REVERT JUMPDEST PUSH0 DUP1 REVERT JUMPDEST PUSH0 PUSH20 0xFFFFFFFFFFFFFFFFFFFFFFFFFFFFFFFFFFFFFFFF DUP3 AND SWAP1 POP SWAP2 SWAP1 POP JUMP JUMPDEST PUSH0 PUSH2 0x293A DUP3 PUSH2 0x2911 JUMP JUMPDEST SWAP1 POP SWAP2 SWAP1 POP JUMP JUMPDEST PUSH2 0x294A DUP2 PUSH2 0x2930 JUMP JUMPDEST DUP2 EQ PUSH2 0x2954 JUMPI PUSH0 DUP1 REVERT JUMPDEST POP JUMP JUMPDEST PUSH0 DUP2 CALLDATALOAD SWAP1 POP PUSH2 0x2965 DUP2 PUSH2 0x2941 JUMP JUMPDEST SWAP3 SWAP2 POP POP JUMP JUMPDEST PUSH0 DUP2 SWAP1 POP SWAP2 SWAP1 POP JUMP JUMPDEST PUSH2 0x297D DUP2 PUSH2 0x296B JUMP JUMPDEST DUP2 EQ PUSH2 0x2987 JUMPI PUSH0 DUP1 REVERT JUMPDEST POP JUMP JUMPDEST PUSH0 DUP2 CALLDATALOAD SWAP1 POP PUSH2 0x2998 DUP2 PUSH2 0x2974 JUMP JUMPDEST SWAP3 SWAP2 POP POP JUMP JUMPDEST PUSH0 DUP1 PUSH1 0x40 DUP4 DUP6 SUB SLT ISZERO PUSH2 0x29B4 JUMPI PUSH2 0x29B3 PUSH2 0x2909 JUMP JUMPDEST JUMPDEST PUSH0 PUSH2 0x29C1 DUP6 DUP3 DUP7 ADD PUSH2 0x2957 JUMP JUMPDEST SWAP3 POP POP PUSH1 0x20 PUSH2 0x29D2 DUP6 DUP3 DUP7 ADD PUSH2 0x298A JUMP JUMPDEST SWAP2 POP POP SWAP3 POP SWAP3 SWAP1 POP JUMP JUMPDEST PUSH0 DUP2 ISZERO ISZERO SWAP1 POP SWAP2 SWAP1 POP JUMP JUMPDEST PUSH2 0x29F0 DUP2 PUSH2 0x29DC JUMP JUMPDEST DUP3 MSTORE POP POP JUMP JUMPDEST PUSH0 PUSH1 0x20 DUP3 ADD SWAP1 POP PUSH2 0x2A09 PUSH0 DUP4 ADD DUP5 PUSH2 0x29E7 JUMP JUMPDEST SWAP3 SWAP2 POP POP JUMP JUMPDEST PUSH2 0x2A18 DUP2 PUSH2 0x296B JUMP JUMPDEST DUP3 MSTORE POP POP JUMP JUMPDEST PUSH0 PUSH1 0x20 DUP3 ADD SWAP1 POP PUSH2 0x2A31 PUSH0 DUP4 ADD DUP5 PUSH2 0x2A0F JUMP JUMPDEST SWAP3 SWAP2 POP POP JUMP JUMPDEST PUSH0 DUP1 PUSH0 PUSH1 0x60 DUP5 DUP7 SUB SLT ISZERO PUSH2 0x2A4E JUMPI PUSH2 0x2A4D PUSH2 0x2909 JUMP JUMPDEST JUMPDEST PUSH0 PUSH2 0x2A5B DUP7 DUP3 DUP8 ADD PUSH2 0x2957 JUMP JUMPDEST SWAP4 POP POP PUSH1 0x20 PUSH2 0x2A6C DUP7 DUP3 DUP8 ADD PUSH2 0x2957 JUMP JUMPDEST SWAP3 POP POP PUSH1 0x40 PUSH2 0x2A7D DUP7 DUP3 DUP8 ADD PUSH2 0x298A JUMP JUMPDEST SWAP2 POP POP SWAP3 POP SWAP3 POP SWAP3 JUMP JUMPDEST PUSH0 DUP1 PUSH0 PUSH1 0x60 DUP5 DUP7 SUB SLT ISZERO PUSH2 0x2A9E JUMPI PUSH2 0x2A9D PUSH2 0x2909 JUMP JUMPDEST JUMPDEST PUSH0 PUSH2 0x2AAB DUP7 DUP3 DUP8 ADD PUSH2 0x2957 JUMP JUMPDEST SWAP4 POP POP PUSH1 0x20 PUSH2 0x2ABC DUP7 DUP3 DUP8 ADD PUSH2 0x298A JUMP JUMPDEST SWAP3 POP POP PUSH1 0x40 PUSH2 0x2ACD DUP7 DUP3 DUP8 ADD PUSH2 0x298A JUMP JUMPDEST SWAP2 POP POP SWAP3 POP SWAP3 POP SWAP3 JUMP JUMPDEST PUSH0 PUSH1 0xFF DUP3 AND SWAP1 POP SWAP2 SWAP1 POP JUMP JUMPDEST PUSH2 0x2AEC DUP2 PUSH2 0x2AD7 JUMP JUMPDEST DUP3 MSTORE POP POP JUMP JUMPDEST PUSH0 PUSH1 0x20 DUP3 ADD SWAP1 POP PUSH2 0x2B05 PUSH0 DUP4 ADD DUP5 PUSH2 0x2AE3 JUMP JUMPDEST SWAP3 SWAP2 POP POP JUMP JUMPDEST PUSH0 DUP2 SWAP1 POP SWAP2 SWAP1 POP JUMP JUMPDEST PUSH2 0x2B1D DUP2 PUSH2 0x2B0B JUMP JUMPDEST DUP3 MSTORE POP POP JUMP JUMPDEST PUSH0 PUSH1 0x20 DUP3 ADD SWAP1 POP PUSH2 0x2B36 PUSH0 DUP4 ADD DUP5 PUSH2 0x2B14 JUMP JUMPDEST SWAP3 SWAP2 POP POP JUMP JUMPDEST PUSH0 PUSH1 0x20 DUP3 DUP5 SUB SLT ISZERO PUSH2 0x2B51 JUMPI PUSH2 0x2B50 PUSH2 0x2909 JUMP JUMPDEST JUMPDEST PUSH0 PUSH2 0x2B5E DUP5 DUP3 DUP6 ADD PUSH2 0x2957 JUMP JUMPDEST SWAP2 POP POP SWAP3 SWAP2 POP POP JUMP JUMPDEST PUSH0 PUSH32 0xFF00000000000000000000000000000000000000000000000000000000000000 DUP3 AND SWAP1 POP SWAP2 SWAP1 POP JUMP JUMPDEST PUSH2 0x2B9B DUP2 PUSH2 0x2B67 JUMP JUMPDEST DUP3 MSTORE POP POP JUMP JUMPDEST PUSH2 0x2BAA DUP2 PUSH2 0x2930 JUMP JUMPDEST DUP3 MSTORE POP POP JUMP JUMPDEST PUSH0 DUP2 MLOAD SWAP1 POP SWAP2 SWAP1 POP JUMP JUMPDEST PUSH0 DUP3 DUP3 MSTORE PUSH1 0x20 DUP3 ADD SWAP1 POP SWAP3 SWAP2 POP POP JUMP JUMPDEST PUSH0 DUP2 SWAP1 POP PUSH1 0x20 DUP3 ADD SWAP1 POP SWAP2 SWAP1 POP JUMP JUMPDEST PUSH2 0x2BE2 DUP2 PUSH2 0x296B JUMP JUMPDEST DUP3 MSTORE POP POP JUMP JUMPDEST PUSH0 PUSH2 0x2BF3 DUP4 DUP4 PUSH2 0x2BD9 JUMP JUMPDEST PUSH1 0x20 DUP4 ADD SWAP1 POP SWAP3 SWAP2 POP POP JUMP JUMPDEST PUSH0 PUSH1 0x20 DUP3 ADD SWAP1 POP SWAP2 SWAP1 POP JUMP JUMPDEST PUSH0 PUSH2 0x2C15 DUP3 PUSH2 0x2BB0 JUMP JUMPDEST PUSH2 0x2C1F DUP2 DUP6 PUSH2 0x2BBA JUMP JUMPDEST SWAP4 POP PUSH2 0x2C2A DUP4 PUSH2 0x2BCA JUMP JUMPDEST DUP1 PUSH0 JUMPDEST DUP4 DUP2 LT ISZERO PUSH2 0x2C5A JUMPI DUP2 MLOAD PUSH2 0x2C41 DUP9 DUP3 PUSH2 0x2BE8 JUMP JUMPDEST SWAP8 POP PUSH2 0x2C4C DUP4 PUSH2 0x2BFF JUMP JUMPDEST SWAP3 POP POP PUSH1 0x1 DUP2 ADD SWAP1 POP PUSH2 0x2C2D JUMP JUMPDEST POP DUP6 SWAP4 POP POP POP POP SWAP3 SWAP2 POP POP JUMP JUMPDEST PUSH0 PUSH1 0xE0 DUP3 ADD SWAP1 POP PUSH2 0x2C7A PUSH0 DUP4 ADD DUP11 PUSH2 0x2B92 JUMP JUMPDEST DUP2 DUP2 SUB PUSH1 0x20 DUP4 ADD MSTORE PUSH2 0x2C8C DUP2 DUP10 PUSH2 0x28A8 JUMP JUMPDEST SWAP1 POP DUP2 DUP2 SUB PUSH1 0x40 DUP4 ADD MSTORE PUSH2 0x2CA0 DUP2 DUP9 PUSH2 0x28A8 JUMP JUMPDEST SWAP1 POP PUSH2 0x2CAF PUSH1 0x60 DUP4 ADD DUP8 PUSH2 0x2A0F JUMP JUMPDEST PUSH2 0x2CBC PUSH1 0x80 DUP4 ADD DUP7 PUSH2 0x2BA1 JUMP JUMPDEST PUSH2 0x2CC9 PUSH1 0xA0 DUP4 ADD DUP6 PUSH2 0x2B14 JUMP JUMPDEST DUP2 DUP2 SUB PUSH1 0xC0 DUP4 ADD MSTORE PUSH2 0x2CDB DUP2 DUP5 PUSH2 0x2C0B JUMP JUMPDEST SWAP1 POP SWAP9 SWAP8 POP POP POP POP POP POP POP POP JUMP JUMPDEST PUSH0 PUSH1 0x20 DUP3 ADD SWAP1 POP PUSH2 0x2CFC PUSH0 DUP4 ADD DUP5 PUSH2 0x2BA1 JUMP JUMPDEST SWAP3 SWAP2 POP POP JUMP JUMPDEST PUSH2 0x2D0B DUP2 PUSH2 0x2AD7 JUMP JUMPDEST DUP2 EQ PUSH2 0x2D15 JUMPI PUSH0 DUP1 REVERT JUMPDEST POP JUMP JUMPDEST PUSH0 DUP2 CALLDATALOAD SWAP1 POP PUSH2 0x2D26 DUP2 PUSH2 0x2D02 JUMP JUMPDEST SWAP3 SWAP2 POP POP JUMP JUMPDEST PUSH2 0x2D35 DUP2 PUSH2 0x2B0B JUMP JUMPDEST DUP2 EQ PUSH2 0x2D3F JUMPI PUSH0 DUP1 REVERT JUMPDEST POP JUMP JUMPDEST PUSH0 DUP2 CALLDATALOAD SWAP1 POP PUSH2 0x2D50 DUP2 PUSH2 0x2D2C JUMP JUMPDEST SWAP3 SWAP2 POP POP JUMP JUMPDEST PUSH0 DUP1 PUSH0 DUP1 PUSH0 DUP1 PUSH0 PUSH1 0xE0 DUP9 DUP11 SUB SLT ISZERO PUSH2 0x2D71 JUMPI PUSH2 0x2D70 PUSH2 0x2909 JUMP JUMPDEST JUMPDEST PUSH0 PUSH2 0x2D7E DUP11 DUP3 DUP12 ADD PUSH2 0x2957 JUMP JUMPDEST SWAP8 POP POP PUSH1 0x20 PUSH2 0x2D8F DUP11 DUP3 DUP12 ADD PUSH2 0x2957 JUMP JUMPDEST SWAP7 POP POP PUSH1 0x40 PUSH2 0x2DA0 DUP11 DUP3 DUP12 ADD PUSH2 0x298A JUMP JUMPDEST SWAP6 POP POP PUSH1 0x60 PUSH2 0x2DB1 DUP11 DUP3 DUP12 ADD PUSH2 0x298A JUMP JUMPDEST SWAP5 POP POP PUSH1 0x80 PUSH2 0x2DC2 DUP11 DUP3 DUP12 ADD PUSH2 0x2D18 JUMP JUMPDEST SWAP4 POP POP PUSH1 0xA0 PUSH2 0x2DD3 DUP11 DUP3 DUP12 ADD PUSH2 0x2D42 JUMP JUMPDEST SWAP3 POP POP PUSH1 0xC0 PUSH2 0x2DE4 DUP11 DUP3 DUP12 ADD PUSH2 0x2D42 JUMP JUMPDEST SWAP2 POP POP SWAP3 SWAP6 SWAP9 SWAP2 SWAP5 SWAP8 POP SWAP3 SWAP6 POP JUMP JUMPDEST PUSH0 DUP1 PUSH1 0x40 DUP4 DUP6 SUB SLT ISZERO PUSH2 0x2E09 JUMPI PUSH2 0x2E08 PUSH2 0x2909 JUMP JUMPDEST JUMPDEST PUSH0 PUSH2 0x2E16 DUP6 DUP3 DUP7 ADD PUSH2 0x2957 JUMP JUMPDEST SWAP3 POP POP PUSH1 0x20 PUSH2 0x2E27 DUP6 DUP3 DUP7 ADD PUSH2 0x2957 JUMP JUMPDEST SWAP2 POP POP SWAP3 POP SWAP3 SWAP1 POP JUMP JUMPDEST PUSH0 PUSH2 0x2E3B DUP3 PUSH2 0x2911 JUMP JUMPDEST SWAP1 POP SWAP2 SWAP1 POP JUMP JUMPDEST PUSH2 0x2E4B DUP2 PUSH2 0x2E31 JUMP JUMPDEST DUP2 EQ PUSH2 0x2E55 JUMPI PUSH0 DUP1 REVERT JUMPDEST POP JUMP JUMPDEST PUSH0 DUP2 CALLDATALOAD SWAP1 POP PUSH2 0x2E66 DUP2 PUSH2 0x2E42 JUMP JUMPDEST SWAP3 SWAP2 POP POP JUMP JUMPDEST PUSH0 DUP1 PUSH1 0x40 DUP4 DUP6 SUB SLT ISZERO PUSH2 0x2E82 JUMPI PUSH2 0x2E81 PUSH2 0x2909 JUMP JUMPDEST JUMPDEST PUSH0 PUSH2 0x2E8F DUP6 DUP3 DUP7 ADD PUSH2 0x2E58 JUMP JUMPDEST SWAP3 POP POP PUSH1 0x20 PUSH2 0x2EA0 DUP6 DUP3 DUP7 ADD PUSH2 0x298A JUMP JUMPDEST SWAP2 POP POP SWAP3 POP SWAP3 SWAP1 POP JUMP JUMPDEST PUSH0 DUP1 REVERT JUMPDEST PUSH0 DUP1 REVERT JUMPDEST PUSH32 0x4E487B7100000000000000000000000000000000000000000000000000000000 PUSH0 MSTORE PUSH1 0x41 PUSH1 0x4 MSTORE PUSH1 0x24 PUSH0 REVERT JUMPDEST PUSH2 0x2EE8 DUP3 PUSH2 0x2898 JUMP JUMPDEST DUP2 ADD DUP2 DUP2 LT PUSH8 0xFFFFFFFFFFFFFFFF DUP3 GT OR ISZERO PUSH2 0x2F07 JUMPI PUSH2 0x2F06 PUSH2 0x2EB2 JUMP JUMPDEST JUMPDEST DUP1 PUSH1 0x40 MSTORE POP POP POP JUMP JUMPDEST PUSH0 PUSH2 0x2F19 PUSH2 0x2900 JUMP JUMPDEST SWAP1 POP PUSH2 0x2F25 DUP3 DUP3 PUSH2 0x2EDF JUMP JUMPDEST SWAP2 SWAP1 POP JUMP JUMPDEST PUSH0 PUSH8 0xFFFFFFFFFFFFFFFF DUP3 GT ISZERO PUSH2 0x2F44 JUMPI PUSH2 0x2F43 PUSH2 0x2EB2 JUMP JUMPDEST JUMPDEST PUSH2 0x2F4D DUP3 PUSH2 0x2898 JUMP JUMPDEST SWAP1 POP PUSH1 0x20 DUP2 ADD SWAP1 POP SWAP2 SWAP1 POP JUMP JUMPDEST DUP3 DUP2 DUP4 CALLDATACOPY PUSH0 DUP4 DUP4 ADD MSTORE POP POP POP JUMP JUMPDEST PUSH0 PUSH2 0x2F7A PUSH2 0x2F75 DUP5 PUSH2 0x2F2A JUMP JUMPDEST PUSH2 0x2F10 JUMP JUMPDEST SWAP1 POP DUP3 DUP2 MSTORE PUSH1 0x20 DUP2 ADD DUP5 DUP5 DUP5 ADD GT ISZERO PUSH2 0x2F96 JUMPI PUSH2 0x2F95 PUSH2 0x2EAE JUMP JUMPDEST JUMPDEST PUSH2 0x2FA1 DUP5 DUP3 DUP6 PUSH2 0x2F5A JUMP JUMPDEST POP SWAP4 SWAP3 POP POP POP JUMP JUMPDEST PUSH0 DUP3 PUSH1 0x1F DUP4 ADD SLT PUSH2 0x2FBD JUMPI PUSH2 0x2FBC PUSH2 0x2EAA JUMP JUMPDEST JUMPDEST DUP2 CALLDATALOAD PUSH2 0x2FCD DUP5 DUP3 PUSH1 0x20 DUP7 ADD PUSH2 0x2F68 JUMP JUMPDEST SWAP2 POP POP SWAP3 SWAP2 POP POP JUMP JUMPDEST PUSH0 PUSH1 0x20 DUP3 DUP5 SUB SLT ISZERO PUSH2 0x2FEB JUMPI PUSH2 0x2FEA PUSH2 0x2909 JUMP JUMPDEST JUMPDEST PUSH0 DUP3 ADD CALLDATALOAD PUSH8 0xFFFFFFFFFFFFFFFF DUP2 GT ISZERO PUSH2 0x3008 JUMPI PUSH2 0x3007 PUSH2 0x290D JUMP JUMPDEST JUMPDEST PUSH2 0x3014 DUP5 DUP3 DUP6 ADD PUSH2 0x2FA9 JUMP JUMPDEST SWAP2 POP POP SWAP3 SWAP2 POP POP JUMP JUMPDEST PUSH0 PUSH1 0x40 DUP3 ADD SWAP1 POP PUSH2 0x3030 PUSH0 DUP4 ADD DUP6 PUSH2 0x29E7 JUMP JUMPDEST PUSH2 0x303D PUSH1 0x20 DUP4 ADD DUP5 PUSH2 0x2B14 JUMP JUMPDEST SWAP4 SWAP3 POP POP POP JUMP JUMPDEST PUSH32 0x4E487B7100000000000000000000000000000000000000000000000000000000 PUSH0 MSTORE PUSH1 0x22 PUSH1 0x4 MSTORE PUSH1 0x24 PUSH0 REVERT JUMPDEST PUSH0 PUSH1 0x2 DUP3 DIV SWAP1 POP PUSH1 0x1 DUP3 AND DUP1 PUSH2 0x3088 JUMPI PUSH1 0x7F DUP3 AND SWAP2 POP JUMPDEST PUSH1 0x20 DUP3 LT DUP2 SUB PUSH2 0x309B JUMPI PUSH2 0x309A PUSH2 0x3044 JUMP JUMPDEST JUMPDEST POP SWAP2 SWAP1 POP JUMP JUMPDEST PUSH32 0x4E487B7100000000000000000000000000000000000000000000000000000000 PUSH0 MSTORE PUSH1 0x11 PUSH1 0x4 MSTORE PUSH1 0x24 PUSH0 REVERT JUMPDEST PUSH0 PUSH2 0x30D8 DUP3 PUSH2 0x296B JUMP JUMPDEST SWAP2 POP PUSH2 0x30E3 DUP4 PUSH2 0x296B JUMP JUMPDEST SWAP3 POP DUP3 DUP3 MUL PUSH2 0x30F1 DUP2 PUSH2 0x296B JUMP JUMPDEST SWAP2 POP DUP3 DUP3 DIV DUP5 EQ DUP4 ISZERO OR PUSH2 0x3108 JUMPI PUSH2 0x3107 PUSH2 0x30A1 JUMP JUMPDEST JUMPDEST POP SWAP3 SWAP2 POP POP JUMP JUMPDEST PUSH0 PUSH2 0x3119 DUP3 PUSH2 0x296B JUMP JUMPDEST SWAP2 POP PUSH2 0x3124 DUP4 PUSH2 0x296B JUMP JUMPDEST SWAP3 POP DUP3 DUP3 ADD SWAP1 POP DUP1 DUP3 GT ISZERO PUSH2 0x313C JUMPI PUSH2 0x313B PUSH2 0x30A1 JUMP JUMPDEST JUMPDEST SWAP3 SWAP2 POP POP JUMP JUMPDEST PUSH32 0x4372656469746F7227732062616C616E6365206973206E6F7420686967682065 PUSH0 DUP3 ADD MSTORE PUSH32 0x6E6F7567682E0000000000000000000000000000000000000000000000000000 PUSH1 0x20 DUP3 ADD MSTORE POP JUMP JUMPDEST PUSH0 PUSH2 0x319C PUSH1 0x26 DUP4 PUSH2 0x287A JUMP JUMPDEST SWAP2 POP PUSH2 0x31A7 DUP3 PUSH2 0x3142 JUMP JUMPDEST PUSH1 0x40 DUP3 ADD SWAP1 POP SWAP2 SWAP1 POP JUMP JUMPDEST PUSH0 PUSH1 0x20 DUP3 ADD SWAP1 POP DUP2 DUP2 SUB PUSH0 DUP4 ADD MSTORE PUSH2 0x31C9 DUP2 PUSH2 0x3190 JUMP JUMPDEST SWAP1 POP SWAP2 SWAP1 POP JUMP JUMPDEST PUSH32 0x596F752063616E277420626520796F7572206F776E206372656469746F722E00 PUSH0 DUP3 ADD MSTORE POP JUMP JUMPDEST PUSH0 PUSH2 0x3204 PUSH1 0x1F DUP4 PUSH2 0x287A JUMP JUMPDEST SWAP2 POP PUSH2 0x320F DUP3 PUSH2 0x31D0 JUMP JUMPDEST PUSH1 0x20 DUP3 ADD SWAP1 POP SWAP2 SWAP1 POP JUMP JUMPDEST PUSH0 PUSH1 0x20 DUP3 ADD SWAP1 POP DUP2 DUP2 SUB PUSH0 DUP4 ADD MSTORE PUSH2 0x3231 DUP2 PUSH2 0x31F8 JUMP JUMPDEST SWAP1 POP SWAP2 SWAP1 POP JUMP JUMPDEST PUSH0 PUSH1 0x80 DUP3 ADD SWAP1 POP PUSH2 0x324B PUSH0 DUP4 ADD DUP8 PUSH2 0x2BA1 JUMP JUMPDEST PUSH2 0x3258 PUSH1 0x20 DUP4 ADD DUP7 PUSH2 0x2BA1 JUMP JUMPDEST PUSH2 0x3265 PUSH1 0x40 DUP4 ADD DUP6 PUSH2 0x2A0F JUMP JUMPDEST PUSH2 0x3272 PUSH1 0x60 DUP4 ADD DUP5 PUSH2 0x2A0F JUMP JUMPDEST SWAP6 SWAP5 POP POP POP POP POP JUMP JUMPDEST PUSH2 0x3284 DUP2 PUSH2 0x29DC JUMP JUMPDEST DUP2 EQ PUSH2 0x328E JUMPI PUSH0 DUP1 REVERT JUMPDEST POP JUMP JUMPDEST PUSH0 DUP2 MLOAD SWAP1 POP PUSH2 0x329F DUP2 PUSH2 0x327B JUMP JUMPDEST SWAP3 SWAP2 POP POP JUMP JUMPDEST PUSH0 PUSH1 0x20 DUP3 DUP5 SUB SLT ISZERO PUSH2 0x32BA JUMPI PUSH2 0x32B9 PUSH2 0x2909 JUMP JUMPDEST JUMPDEST PUSH0 PUSH2 0x32C7 DUP5 DUP3 DUP6 ADD PUSH2 0x3291 JUMP JUMPDEST SWAP2 POP POP SWAP3 SWAP2 POP POP JUMP JUMPDEST PUSH0 DUP2 MLOAD SWAP1 POP PUSH2 0x32DE DUP2 PUSH2 0x2974 JUMP JUMPDEST SWAP3 SWAP2 POP POP JUMP JUMPDEST PUSH0 PUSH1 0x20 DUP3 DUP5 SUB SLT ISZERO PUSH2 0x32F9 JUMPI PUSH2 0x32F8 PUSH2 0x2909 JUMP JUMPDEST JUMPDEST PUSH0 PUSH2 0x3306 DUP5 DUP3 DUP6 ADD PUSH2 0x32D0 JUMP JUMPDEST SWAP2 POP POP SWAP3 SWAP2 POP POP JUMP JUMPDEST PUSH0 PUSH1 0xA0 DUP3 ADD SWAP1 POP PUSH2 0x3322 PUSH0 DUP4 ADD DUP9 PUSH2 0x2BA1 JUMP JUMPDEST PUSH2 0x332F PUSH1 0x20 DUP4 ADD DUP8 PUSH2 0x2BA1 JUMP JUMPDEST PUSH2 0x333C PUSH1 0x40 DUP4 ADD DUP7 PUSH2 0x2A0F JUMP JUMPDEST PUSH2 0x3349 PUSH1 0x60 DUP4 ADD DUP6 PUSH2 0x2A0F JUMP JUMPDEST PUSH2 0x3356 PUSH1 0x80 DUP4 ADD DUP5 PUSH2 0x2A0F JUMP JUMPDEST SWAP7 SWAP6 POP POP POP POP POP POP JUMP JUMPDEST PUSH32 0x56616C69646174696F6E206F662064656274206C697374206661696C65642E00 PUSH0 DUP3 ADD MSTORE POP JUMP JUMPDEST PUSH0 PUSH2 0x3394 PUSH1 0x1F DUP4 PUSH2 0x287A JUMP JUMPDEST SWAP2 POP PUSH2 0x339F DUP3 PUSH2 0x3360 JUMP JUMPDEST PUSH1 0x20 DUP3 ADD SWAP1 POP SWAP2 SWAP1 POP JUMP JUMPDEST PUSH0 PUSH1 0x20 DUP3 ADD SWAP1 POP DUP2 DUP2 SUB PUSH0 DUP4 ADD MSTORE PUSH2 0x33C1 DUP2 PUSH2 0x3388 JUMP JUMPDEST SWAP1 POP SWAP2 SWAP1 POP JUMP JUMPDEST PUSH32 0x4E6F7420656E6F75676820746F6B656E7320617661696C61626C652E00000000 PUSH0 DUP3 ADD MSTORE POP JUMP JUMPDEST PUSH0 PUSH2 0x33FC PUSH1 0x1C DUP4 PUSH2 0x287A JUMP JUMPDEST SWAP2 POP PUSH2 0x3407 DUP3 PUSH2 0x33C8 JUMP JUMPDEST PUSH1 0x20 DUP3 ADD SWAP1 POP SWAP2 SWAP1 POP JUMP JUMPDEST PUSH0 PUSH1 0x20 DUP3 ADD SWAP1 POP DUP2 DUP2 SUB PUSH0 DUP4 ADD MSTORE PUSH2 0x3429 DUP2 PUSH2 0x33F0 JUMP JUMPDEST SWAP1 POP SWAP2 SWAP1 POP JUMP JUMPDEST PUSH32 0x446562746F7227732062616C616E6365206973206E6F74206869676820656E6F PUSH0 DUP3 ADD MSTORE PUSH32 0x7567682E00000000000000000000000000000000000000000000000000000000 PUSH1 0x20 DUP3 ADD MSTORE POP JUMP JUMPDEST PUSH0 PUSH2 0x348A PUSH1 0x24 DUP4 PUSH2 0x287A JUMP JUMPDEST SWAP2 POP PUSH2 0x3495 DUP3 PUSH2 0x3430 JUMP JUMPDEST PUSH1 0x40 DUP3 ADD SWAP1 POP SWAP2 SWAP1 POP JUMP JUMPDEST PUSH0 PUSH1 0x20 DUP3 ADD SWAP1 POP DUP2 DUP2 SUB PUSH0 DUP4 ADD MSTORE PUSH2 0x34B7 DUP2 PUSH2 0x347E JUMP JUMPDEST SWAP1 POP SWAP2 SWAP1 POP JUMP JUMPDEST PUSH0 PUSH1 0x60 DUP3 ADD SWAP1 POP PUSH2 0x34D1 PUSH0 DUP4 ADD DUP7 PUSH2 0x2BA1 JUMP JUMPDEST PUSH2 0x34DE PUSH1 0x20 DUP4 ADD DUP6 PUSH2 0x2BA1 JUMP JUMPDEST PUSH2 0x34EB PUSH1 0x40 DUP4 ADD DUP5 PUSH2 0x2A0F JUMP JUMPDEST SWAP5 SWAP4 POP POP POP POP JUMP JUMPDEST PUSH0 PUSH2 0x34FD DUP3 PUSH2 0x296B JUMP JUMPDEST SWAP2 POP PUSH2 0x3508 DUP4 PUSH2 0x296B JUMP JUMPDEST SWAP3 POP DUP3 DUP3 SUB SWAP1 POP DUP2 DUP2 GT ISZERO PUSH2 0x3520 JUMPI PUSH2 0x351F PUSH2 0x30A1 JUMP JUMPDEST JUMPDEST SWAP3 SWAP2 POP POP JUMP JUMPDEST PUSH0 PUSH2 0x3538 PUSH2 0x3533 DUP5 PUSH2 0x2F2A JUMP JUMPDEST PUSH2 0x2F10 JUMP JUMPDEST SWAP1 POP DUP3 DUP2 MSTORE PUSH1 0x20 DUP2 ADD DUP5 DUP5 DUP5 ADD GT ISZERO PUSH2 0x3554 JUMPI PUSH2 0x3553 PUSH2 0x2EAE JUMP JUMPDEST JUMPDEST PUSH2 0x355F DUP5 DUP3 DUP6 PUSH2 0x288A JUMP JUMPDEST POP SWAP4 SWAP3 POP POP POP JUMP JUMPDEST PUSH0 DUP3 PUSH1 0x1F DUP4 ADD SLT PUSH2 0x357B JUMPI PUSH2 0x357A PUSH2 0x2EAA JUMP JUMPDEST JUMPDEST DUP2 MLOAD PUSH2 0x358B DUP5 DUP3 PUSH1 0x20 DUP7 ADD PUSH2 0x3526 JUMP JUMPDEST SWAP2 POP POP SWAP3 SWAP2 POP POP JUMP JUMPDEST PUSH0 PUSH1 0x20 DUP3 DUP5 SUB SLT ISZERO PUSH2 0x35A9 JUMPI PUSH2 0x35A8 PUSH2 0x2909 JUMP JUMPDEST JUMPDEST PUSH0 DUP3 ADD MLOAD PUSH8 0xFFFFFFFFFFFFFFFF DUP2 GT ISZERO PUSH2 0x35C6 JUMPI PUSH2 0x35C5 PUSH2 0x290D JUMP JUMPDEST JUMPDEST PUSH2 0x35D2 DUP5 DUP3 DUP6 ADD PUSH2 0x3567 JUMP JUMPDEST SWAP2 POP POP SWAP3 SWAP2 POP POP JUMP JUMPDEST PUSH0 PUSH1 0xC0 DUP3 ADD SWAP1 POP PUSH2 0x35EE PUSH0 DUP4 ADD DUP10 PUSH2 0x2B14 JUMP JUMPDEST PUSH2 0x35FB PUSH1 0x20 DUP4 ADD DUP9 PUSH2 0x2BA1 JUMP JUMPDEST PUSH2 0x3608 PUSH1 0x40 DUP4 ADD DUP8 PUSH2 0x2BA1 JUMP JUMPDEST PUSH2 0x3615 PUSH1 0x60 DUP4 ADD DUP7 PUSH2 0x2A0F JUMP JUMPDEST PUSH2 0x3622 PUSH1 0x80 DUP4 ADD DUP6 PUSH2 0x2A0F JUMP JUMPDEST PUSH2 0x362F PUSH1 0xA0 DUP4 ADD DUP5 PUSH2 0x2A0F JUMP JUMPDEST SWAP8 SWAP7 POP POP POP POP POP POP POP JUMP JUMPDEST PUSH0 PUSH1 0x40 DUP3 ADD SWAP1 POP PUSH2 0x364D PUSH0 DUP4 ADD DUP6 PUSH2 0x2BA1 JUMP JUMPDEST PUSH2 0x365A PUSH1 0x20 DUP4 ADD DUP5 PUSH2 0x2BA1 JUMP JUMPDEST SWAP4 SWAP3 POP POP POP JUMP JUMPDEST PUSH32 0x596F75722063726564697420697320746F6F206C6F772E000000000000000000 PUSH0 DUP3 ADD MSTORE POP JUMP JUMPDEST PUSH0 PUSH2 0x3695 PUSH1 0x17 DUP4 PUSH2 0x287A JUMP JUMPDEST SWAP2 POP PUSH2 0x36A0 DUP3 PUSH2 0x3661 JUMP JUMPDEST PUSH1 0x20 DUP3 ADD SWAP1 POP SWAP2 SWAP1 POP JUMP JUMPDEST PUSH0 PUSH1 0x20 DUP3 ADD SWAP1 POP DUP2 DUP2 SUB PUSH0 DUP4 ADD MSTORE PUSH2 0x36C2 DUP2 PUSH2 0x3689 JUMP JUMPDEST SWAP1 POP SWAP2 SWAP1 POP JUMP JUMPDEST PUSH32 0x496E73756666696369656E742062616C616E6365000000000000000000000000 PUSH0 DUP3 ADD MSTORE POP JUMP JUMPDEST PUSH0 PUSH2 0x36FD PUSH1 0x14 DUP4 PUSH2 0x287A JUMP JUMPDEST SWAP2 POP PUSH2 0x3708 DUP3 PUSH2 0x36C9 JUMP JUMPDEST PUSH1 0x20 DUP3 ADD SWAP1 POP SWAP2 SWAP1 POP JUMP JUMPDEST PUSH0 PUSH1 0x20 DUP3 ADD SWAP1 POP DUP2 DUP2 SUB PUSH0 DUP4 ADD MSTORE PUSH2 0x372A DUP2 PUSH2 0x36F1 JUMP JUMPDEST SWAP1 POP SWAP2 SWAP1 POP JUMP JUMPDEST PUSH0 PUSH1 0x40 DUP3 ADD SWAP1 POP PUSH2 0x3744 PUSH0 DUP4 ADD DUP6 PUSH2 0x2BA1 JUMP JUMPDEST DUP2 DUP2 SUB PUSH1 0x20 DUP4 ADD MSTORE PUSH2 0x3756 DUP2 DUP5 PUSH2 0x28A8 JUMP JUMPDEST SWAP1 POP SWAP4 SWAP3 POP POP POP JUMP JUMPDEST PUSH0 DUP2 MLOAD SWAP1 POP PUSH2 0x376D DUP2 PUSH2 0x2D2C JUMP JUMPDEST SWAP3 SWAP2 POP POP JUMP JUMPDEST PUSH0 DUP1 PUSH1 0x40 DUP4 DUP6 SUB SLT ISZERO PUSH2 0x3789 JUMPI PUSH2 0x3788 PUSH2 0x2909 JUMP JUMPDEST JUMPDEST PUSH0 PUSH2 0x3796 DUP6 DUP3 DUP7 ADD PUSH2 0x3291 JUMP JUMPDEST SWAP3 POP POP PUSH1 0x20 PUSH2 0x37A7 DUP6 DUP3 DUP7 ADD PUSH2 0x375F JUMP JUMPDEST SWAP2 POP POP SWAP3 POP SWAP3 SWAP1 POP JUMP JUMPDEST PUSH0 DUP2 MLOAD SWAP1 POP PUSH2 0x37BF DUP2 PUSH2 0x2941 JUMP JUMPDEST SWAP3 SWAP2 POP POP JUMP JUMPDEST PUSH0 DUP1 PUSH1 0x40 DUP4 DUP6 SUB SLT ISZERO PUSH2 0x37DB JUMPI PUSH2 0x37DA PUSH2 0x2909 JUMP JUMPDEST JUMPDEST PUSH0 PUSH2 0x37E8 DUP6 DUP3 DUP7 ADD PUSH2 0x37B1 JUMP JUMPDEST SWAP3 POP POP PUSH1 0x20 PUSH2 0x37F9 DUP6 DUP3 DUP7 ADD PUSH2 0x32D0 JUMP JUMPDEST SWAP2 POP POP SWAP3 POP SWAP3 SWAP1 POP JUMP JUMPDEST PUSH0 PUSH1 0x60 DUP3 ADD SWAP1 POP PUSH2 0x3816 PUSH0 DUP4 ADD DUP7 PUSH2 0x2BA1 JUMP JUMPDEST PUSH2 0x3823 PUSH1 0x20 DUP4 ADD DUP6 PUSH2 0x2A0F JUMP JUMPDEST PUSH2 0x3830 PUSH1 0x40 DUP4 ADD DUP5 PUSH2 0x2A0F JUMP JUMPDEST SWAP5 SWAP4 POP POP POP POP JUMP JUMPDEST PUSH32 0x4E487B7100000000000000000000000000000000000000000000000000000000 PUSH0 MSTORE PUSH1 0x12 PUSH1 0x4 MSTORE PUSH1 0x24 PUSH0 REVERT JUMPDEST PUSH0 PUSH2 0x386F DUP3 PUSH2 0x296B JUMP JUMPDEST SWAP2 POP PUSH2 0x387A DUP4 PUSH2 0x296B JUMP JUMPDEST SWAP3 POP DUP3 PUSH2 0x388A JUMPI PUSH2 0x3889 PUSH2 0x3838 JUMP JUMPDEST JUMPDEST DUP3 DUP3 DIV SWAP1 POP SWAP3 SWAP2 POP POP JUMP JUMPDEST PUSH0 PUSH1 0xA0 DUP3 ADD SWAP1 POP PUSH2 0x38A8 PUSH0 DUP4 ADD DUP9 PUSH2 0x2B14 JUMP JUMPDEST PUSH2 0x38B5 PUSH1 0x20 DUP4 ADD DUP8 PUSH2 0x2B14 JUMP JUMPDEST PUSH2 0x38C2 PUSH1 0x40 DUP4 ADD DUP7 PUSH2 0x2B14 JUMP JUMPDEST PUSH2 0x38CF PUSH1 0x60 DUP4 ADD DUP6 PUSH2 0x2A0F JUMP JUMPDEST PUSH2 0x38DC PUSH1 0x80 DUP4 ADD DUP5 PUSH2 0x2BA1 JUMP JUMPDEST SWAP7 SWAP6 POP POP POP POP POP POP JUMP JUMPDEST PUSH0 PUSH1 0x80 DUP3 ADD SWAP1 POP PUSH2 0x38F9 PUSH0 DUP4 ADD DUP8 PUSH2 0x2B14 JUMP JUMPDEST PUSH2 0x3906 PUSH1 0x20 DUP4 ADD DUP7 PUSH2 0x2AE3 JUMP JUMPDEST PUSH2 0x3913 PUSH1 0x40 DUP4 ADD DUP6 PUSH2 0x2B14 JUMP JUMPDEST PUSH2 0x3920 PUSH1 0x60 DUP4 ADD DUP5 PUSH2 0x2B14 JUMP JUMPDEST SWAP6 SWAP5 POP POP POP POP POP JUMP JUMPDEST PUSH32 0x4E487B7100000000000000000000000000000000000000000000000000000000 PUSH0 MSTORE PUSH1 0x21 PUSH1 0x4 MSTORE PUSH1 0x24 PUSH0 REVERT INVALID LOG2 PUSH5 0x6970667358 0x22 SLT KECCAK256 TSTORE BALANCE POP 0xFC 0xD5 0xE1 SHL 0xD9 DUP11 ADDRESS EXTCODECOPY DUP3 0x2F CALLDATASIZE 0xD0 JUMPDEST STOP PUSH16 0x96C0AC07D3EA25EE18F51A92A0D86473 PUSH16 0x6C6343000819003360806040525F6004 PUSH0 PUSH2 0x100 EXP DUP2 SLOAD DUP2 PUSH1 0xFF MUL NOT AND SWAP1 DUP4 ISZERO ISZERO MUL OR SWAP1 SSTORE POP CALLVALUE DUP1 ISZERO PUSH1 0x27 JUMPI PUSH0 DUP1 REVERT JUMPDEST POP PUSH2 0x3E7A DUP1 PUSH2 0x35 PUSH0 CODECOPY PUSH0 RETURN INVALID PUSH1 0x80 PUSH1 0x40 MSTORE PUSH1 0x4 CALLDATASIZE LT PUSH2 0xE7 JUMPI PUSH0 CALLDATALOAD PUSH1 0xE0 SHR DUP1 PUSH4 0x768BB81F GT PUSH2 0x89 JUMPI DUP1 PUSH4 0xB57161F5 GT PUSH2 0x58 JUMPI DUP1 PUSH4 0xB57161F5 EQ PUSH2 0x328 JUMPI DUP1 PUSH4 0xD18E262E EQ PUSH2 0x369 JUMPI DUP1 PUSH4 0xF5B92C73 EQ PUSH2 0x391 JUMPI DUP1 PUSH4 0xFE8ED985 EQ PUSH2 0x3C1 JUMPI PUSH2 0xE7 JUMP JUMPDEST DUP1 PUSH4 0x768BB81F EQ PUSH2 0x26E JUMPI DUP1 PUSH4 0x9A5C5E64 EQ PUSH2 0x298 JUMPI DUP1 PUSH4 0xA69E8BB9 EQ PUSH2 0x2D4 JUMPI DUP1 PUSH4 0xAFE40E09 EQ PUSH2 0x2FE JUMPI PUSH2 0xE7 JUMP JUMPDEST DUP1 PUSH4 0x35E30AE4 GT PUSH2 0xC5 JUMPI DUP1 PUSH4 0x35E30AE4 EQ PUSH2 0x18E JUMPI DUP1 PUSH4 0x39769E08 EQ PUSH2 0x1CB JUMPI DUP1 PUSH4 0x5795FE07 EQ PUSH2 0x208 JUMPI DUP1 PUSH4 0x60416A9C EQ PUSH2 0x244 JUMPI PUSH2 0xE7 JUMP JUMPDEST DUP1 PUSH4 0x9D70853 EQ PUSH2 0xEB JUMPI DUP1 PUSH4 0x207A296A EQ PUSH2 0x116 JUMPI DUP1 PUSH4 0x33ECB31E EQ PUSH2 0x152 JUMPI JUMPDEST PUSH0 DUP1 REVERT JUMPDEST CALLVALUE DUP1 ISZERO PUSH2 0xF6 JUMPI PUSH0 DUP1 REVERT JUMPDEST POP PUSH2 0xFF PUSH2 0x3EB JUMP JUMPDEST PUSH1 0x40 MLOAD PUSH2 0x10D SWAP3 SWAP2 SWAP1 PUSH2 0x1607 JUMP JUMPDEST PUSH1 0x40 MLOAD DUP1 SWAP2 SUB SWAP1 RETURN JUMPDEST CALLVALUE DUP1 ISZERO PUSH2 0x121 JUMPI PUSH0 DUP1 REVERT JUMPDEST POP PUSH2 0x13C PUSH1 0x4 DUP1 CALLDATASIZE SUB DUP2 ADD SWAP1 PUSH2 0x137 SWAP2 SWAP1 PUSH2 0x1693 JUMP JUMPDEST PUSH2 0x4DE JUMP JUMPDEST PUSH1 0x40 MLOAD PUSH2 0x149 SWAP2 SWAP1 PUSH2 0x1724 JUMP JUMPDEST PUSH1 0x40 MLOAD DUP1 SWAP2 SUB SWAP1 RETURN JUMPDEST CALLVALUE DUP1 ISZERO PUSH2 0x15D JUMPI PUSH0 DUP1 REVERT JUMPDEST POP PUSH2 0x178 PUSH1 0x4 DUP1 CALLDATASIZE SUB DUP2 ADD SWAP1 PUSH2 0x173 SWAP2 SWAP1 PUSH2 0x173D JUMP JUMPDEST PUSH2 0x7B8 JUMP JUMPDEST PUSH1 0x40 MLOAD PUSH2 0x185 SWAP2 SWAP1 PUSH2 0x180E JUMP JUMPDEST PUSH1 0x40 MLOAD DUP1 SWAP2 SUB SWAP1 RETURN JUMPDEST CALLVALUE DUP1 ISZERO PUSH2 0x199 JUMPI PUSH0 DUP1 REVERT JUMPDEST POP PUSH2 0x1B4 PUSH1 0x4 DUP1 CALLDATASIZE SUB DUP2 ADD SWAP1 PUSH2 0x1AF SWAP2 SWAP1 PUSH2 0x1963 JUMP JUMPDEST PUSH2 0x8B5 JUMP JUMPDEST PUSH1 0x40 MLOAD PUSH2 0x1C2 SWAP3 SWAP2 SWAP1 PUSH2 0x19D5 JUMP JUMPDEST PUSH1 0x40 MLOAD DUP1 SWAP2 SUB SWAP1 RETURN JUMPDEST CALLVALUE DUP1 ISZERO PUSH2 0x1D6 JUMPI PUSH0 DUP1 REVERT JUMPDEST POP PUSH2 0x1F1 PUSH1 0x4 DUP1 CALLDATASIZE SUB DUP2 ADD SWAP1 PUSH2 0x1EC SWAP2 SWAP1 PUSH2 0x173D JUMP JUMPDEST PUSH2 0x987 JUMP JUMPDEST PUSH1 0x40 MLOAD PUSH2 0x1FF SWAP3 SWAP2 SWAP1 PUSH2 0x1607 JUMP JUMPDEST PUSH1 0x40 MLOAD DUP1 SWAP2 SUB SWAP1 RETURN JUMPDEST CALLVALUE DUP1 ISZERO PUSH2 0x213 JUMPI PUSH0 DUP1 REVERT JUMPDEST POP PUSH2 0x22E PUSH1 0x4 DUP1 CALLDATASIZE SUB DUP2 ADD SWAP1 PUSH2 0x229 SWAP2 SWAP1 PUSH2 0x173D JUMP JUMPDEST PUSH2 0xA1A JUMP JUMPDEST PUSH1 0x40 MLOAD PUSH2 0x23B SWAP2 SWAP1 PUSH2 0x1724 JUMP JUMPDEST PUSH1 0x40 MLOAD DUP1 SWAP2 SUB SWAP1 RETURN JUMPDEST CALLVALUE DUP1 ISZERO PUSH2 0x24F JUMPI PUSH0 DUP1 REVERT JUMPDEST POP PUSH2 0x258 PUSH2 0xA66 JUMP JUMPDEST PUSH1 0x40 MLOAD PUSH2 0x265 SWAP2 SWAP1 PUSH2 0x19FC JUMP JUMPDEST PUSH1 0x40 MLOAD DUP1 SWAP2 SUB SWAP1 RETURN JUMPDEST CALLVALUE DUP1 ISZERO PUSH2 0x279 JUMPI PUSH0 DUP1 REVERT JUMPDEST POP PUSH2 0x282 PUSH2 0xA6F JUMP JUMPDEST PUSH1 0x40 MLOAD PUSH2 0x28F SWAP2 SWAP1 PUSH2 0x19FC JUMP JUMPDEST PUSH1 0x40 MLOAD DUP1 SWAP2 SUB SWAP1 RETURN JUMPDEST CALLVALUE DUP1 ISZERO PUSH2 0x2A3 JUMPI PUSH0 DUP1 REVERT JUMPDEST POP PUSH2 0x2BE PUSH1 0x4 DUP1 CALLDATASIZE SUB DUP2 ADD SWAP1 PUSH2 0x2B9 SWAP2 SWAP1 PUSH2 0x1A15 JUMP JUMPDEST PUSH2 0xA75 JUMP JUMPDEST PUSH1 0x40 MLOAD PUSH2 0x2CB SWAP2 SWAP1 PUSH2 0x1724 JUMP JUMPDEST PUSH1 0x40 MLOAD DUP1 SWAP2 SUB SWAP1 RETURN JUMPDEST CALLVALUE DUP1 ISZERO PUSH2 0x2DF JUMPI PUSH0 DUP1 REVERT JUMPDEST POP PUSH2 0x2E8 PUSH2 0xCEB JUMP JUMPDEST PUSH1 0x40 MLOAD PUSH2 0x2F5 SWAP2 SWAP1 PUSH2 0x19FC JUMP JUMPDEST PUSH1 0x40 MLOAD DUP1 SWAP2 SUB SWAP1 RETURN JUMPDEST CALLVALUE DUP1 ISZERO PUSH2 0x309 JUMPI PUSH0 DUP1 REVERT JUMPDEST POP PUSH2 0x312 PUSH2 0xCF4 JUMP JUMPDEST PUSH1 0x40 MLOAD PUSH2 0x31F SWAP2 SWAP1 PUSH2 0x1AD4 JUMP JUMPDEST PUSH1 0x40 MLOAD DUP1 SWAP2 SUB SWAP1 RETURN JUMPDEST CALLVALUE DUP1 ISZERO PUSH2 0x333 JUMPI PUSH0 DUP1 REVERT JUMPDEST POP PUSH2 0x34E PUSH1 0x4 DUP1 CALLDATASIZE SUB DUP2 ADD SWAP1 PUSH2 0x349 SWAP2 SWAP1 PUSH2 0x173D JUMP JUMPDEST PUSH2 0xD1C JUMP JUMPDEST PUSH1 0x40 MLOAD PUSH2 0x360 SWAP7 SWAP6 SWAP5 SWAP4 SWAP3 SWAP2 SWAP1 PUSH2 0x1AED JUMP JUMPDEST PUSH1 0x40 MLOAD DUP1 SWAP2 SUB SWAP1 RETURN JUMPDEST CALLVALUE DUP1 ISZERO PUSH2 0x374 JUMPI PUSH0 DUP1 REVERT JUMPDEST POP PUSH2 0x38F PUSH1 0x4 DUP1 CALLDATASIZE SUB DUP2 ADD SWAP1 PUSH2 0x38A SWAP2 SWAP1 PUSH2 0x1B4C JUMP JUMPDEST PUSH2 0xD8B JUMP JUMPDEST STOP JUMPDEST PUSH2 0x3AB PUSH1 0x4 DUP1 CALLDATASIZE SUB DUP2 ADD SWAP1 PUSH2 0x3A6 SWAP2 SWAP1 PUSH2 0x1BFB JUMP JUMPDEST PUSH2 0xEC3 JUMP JUMPDEST PUSH1 0x40 MLOAD PUSH2 0x3B8 SWAP2 SWAP1 PUSH2 0x19FC JUMP JUMPDEST PUSH1 0x40 MLOAD DUP1 SWAP2 SUB SWAP1 RETURN JUMPDEST CALLVALUE DUP1 ISZERO PUSH2 0x3CC JUMPI PUSH0 DUP1 REVERT JUMPDEST POP PUSH2 0x3D5 PUSH2 0x1397 JUMP JUMPDEST PUSH1 0x40 MLOAD PUSH2 0x3E2 SWAP2 SWAP1 PUSH2 0x1C4B JUMP JUMPDEST PUSH1 0x40 MLOAD DUP1 SWAP2 SUB SWAP1 RETURN JUMPDEST PUSH0 DUP1 PUSH2 0x453 PUSH0 DUP1 PUSH1 0x4 PUSH1 0x1 SWAP1 SLOAD SWAP1 PUSH2 0x100 EXP SWAP1 DIV PUSH20 0xFFFFFFFFFFFFFFFFFFFFFFFFFFFFFFFFFFFFFFFF AND PUSH20 0xFFFFFFFFFFFFFFFFFFFFFFFFFFFFFFFFFFFFFFFF AND PUSH20 0xFFFFFFFFFFFFFFFFFFFFFFFFFFFFFFFFFFFFFFFF AND DUP2 MSTORE PUSH1 0x20 ADD SWAP1 DUP2 MSTORE PUSH1 0x20 ADD PUSH0 KECCAK256 PUSH2 0x13C0 JUMP JUMPDEST PUSH1 0x5 SLOAD PUSH1 0x3 PUSH0 DUP3 DUP3 SLOAD PUSH2 0x466 SWAP2 SWAP1 PUSH2 0x1C91 JUMP JUMPDEST SWAP3 POP POP DUP2 SWAP1 SSTORE POP PUSH2 0x4D3 PUSH0 DUP1 PUSH1 0x4 PUSH1 0x1 SWAP1 SLOAD SWAP1 PUSH2 0x100 EXP SWAP1 DIV PUSH20 0xFFFFFFFFFFFFFFFFFFFFFFFFFFFFFFFFFFFFFFFF AND PUSH20 0xFFFFFFFFFFFFFFFFFFFFFFFFFFFFFFFFFFFFFFFF AND PUSH20 0xFFFFFFFFFFFFFFFFFFFFFFFFFFFFFFFFFFFFFFFF AND DUP2 MSTORE PUSH1 0x20 ADD SWAP1 DUP2 MSTORE PUSH1 0x20 ADD PUSH0 KECCAK256 PUSH2 0x13E0 JUMP JUMPDEST PUSH1 0x5 SLOAD SWAP2 POP SWAP2 POP SWAP1 SWAP2 JUMP JUMPDEST PUSH0 DUP1 PUSH2 0x524 PUSH0 DUP1 DUP10 PUSH20 0xFFFFFFFFFFFFFFFFFFFFFFFFFFFFFFFFFFFFFFFF AND PUSH20 0xFFFFFFFFFFFFFFFFFFFFFFFFFFFFFFFFFFFFFFFF AND DUP2 MSTORE PUSH1 0x20 ADD SWAP1 DUP2 MSTORE PUSH1 0x20 ADD PUSH0 KECCAK256 PUSH2 0x140B JUMP JUMPDEST SUB PUSH2 0x564 JUMPI PUSH1 0x40 MLOAD PUSH32 0x8C379A000000000000000000000000000000000000000000000000000000000 DUP2 MSTORE PUSH1 0x4 ADD PUSH2 0x55B SWAP1 PUSH2 0x1D1E JUMP JUMPDEST PUSH1 0x40 MLOAD DUP1 SWAP2 SUB SWAP1 REVERT JUMPDEST PUSH0 DUP5 GT PUSH2 0x5A6 JUMPI PUSH1 0x40 MLOAD PUSH32 0x8C379A000000000000000000000000000000000000000000000000000000000 DUP2 MSTORE PUSH1 0x4 ADD PUSH2 0x59D SWAP1 PUSH2 0x1DAC JUMP JUMPDEST PUSH1 0x40 MLOAD DUP1 SWAP2 SUB SWAP1 REVERT JUMPDEST PUSH0 DUP4 GT PUSH2 0x5E8 JUMPI PUSH1 0x40 MLOAD PUSH32 0x8C379A000000000000000000000000000000000000000000000000000000000 DUP2 MSTORE PUSH1 0x4 ADD PUSH2 0x5DF SWAP1 PUSH2 0x1E3A JUMP JUMPDEST PUSH1 0x40 MLOAD DUP1 SWAP2 SUB SWAP1 REVERT JUMPDEST PUSH0 DUP1 PUSH0 DUP9 PUSH20 0xFFFFFFFFFFFFFFFFFFFFFFFFFFFFFFFFFFFFFFFF AND PUSH20 0xFFFFFFFFFFFFFFFFFFFFFFFFFFFFFFFFFFFFFFFF AND DUP2 MSTORE PUSH1 0x20 ADD SWAP1 DUP2 MSTORE PUSH1 0x20 ADD PUSH0 KECCAK256 SWAP1 POP DUP6 PUSH20 0xFFFFFFFFFFFFFFFFFFFFFFFFFFFFFFFFFFFFFFFF AND PUSH2 0x647 DUP3 PUSH2 0x13E0 JUMP JUMPDEST PUSH20 0xFFFFFFFFFFFFFFFFFFFFFFFFFFFFFFFFFFFFFFFF AND EQ DUP1 ISZERO PUSH2 0x671 JUMPI POP DUP5 PUSH2 0x66F DUP3 PUSH2 0x140B JUMP JUMPDEST EQ JUMPDEST DUP1 ISZERO PUSH2 0x684 JUMPI POP DUP4 PUSH2 0x682 DUP3 PUSH2 0x1418 JUMP JUMPDEST EQ JUMPDEST PUSH2 0x6C3 JUMPI PUSH1 0x40 MLOAD PUSH32 0x8C379A000000000000000000000000000000000000000000000000000000000 DUP2 MSTORE PUSH1 0x4 ADD PUSH2 0x6BA SWAP1 PUSH2 0x1EA2 JUMP JUMPDEST PUSH1 0x40 MLOAD DUP1 SWAP2 SUB SWAP1 REVERT JUMPDEST PUSH2 0x711 TIMESTAMP PUSH0 DUP1 DUP11 PUSH20 0xFFFFFFFFFFFFFFFFFFFFFFFFFFFFFFFFFFFFFFFF AND PUSH20 0xFFFFFFFFFFFFFFFFFFFFFFFFFFFFFFFFFFFFFFFF AND DUP2 MSTORE PUSH1 0x20 ADD SWAP1 DUP2 MSTORE PUSH1 0x20 ADD PUSH0 KECCAK256 PUSH2 0x1425 SWAP1 SWAP2 SWAP1 PUSH4 0xFFFFFFFF AND JUMP JUMPDEST PUSH2 0x755 PUSH0 DUP1 DUP10 PUSH20 0xFFFFFFFFFFFFFFFFFFFFFFFFFFFFFFFFFFFFFFFF AND PUSH20 0xFFFFFFFFFFFFFFFFFFFFFFFFFFFFFFFFFFFFFFFF AND DUP2 MSTORE PUSH1 0x20 ADD SWAP1 DUP2 MSTORE PUSH1 0x20 ADD PUSH0 KECCAK256 PUSH2 0x1432 JUMP JUMPDEST DUP5 PUSH1 0x1 SLOAD PUSH2 0x763 SWAP2 SWAP1 PUSH2 0x1EC0 JUMP JUMPDEST PUSH1 0x1 DUP2 SWAP1 SSTORE POP DUP3 PUSH1 0x3 SLOAD PUSH2 0x777 SWAP2 SWAP1 PUSH2 0x1EC0 JUMP JUMPDEST PUSH1 0x3 DUP2 SWAP1 SSTORE POP DUP5 PUSH32 0x5A15159AE6CC037791B91AF8BDAAC630ACDA5E3641915B25FBCB6394AE990B92 PUSH1 0x40 MLOAD PUSH1 0x40 MLOAD DUP1 SWAP2 SUB SWAP1 LOG2 PUSH1 0x1 SWAP2 POP POP SWAP6 SWAP5 POP POP POP POP POP JUMP JUMPDEST PUSH2 0x7C0 PUSH2 0x1559 JUMP JUMPDEST PUSH0 DUP1 DUP4 PUSH20 0xFFFFFFFFFFFFFFFFFFFFFFFFFFFFFFFFFFFFFFFF AND PUSH20 0xFFFFFFFFFFFFFFFFFFFFFFFFFFFFFFFFFFFFFFFF AND DUP2 MSTORE PUSH1 0x20 ADD SWAP1 DUP2 MSTORE PUSH1 0x20 ADD PUSH0 KECCAK256 PUSH1 0x40 MLOAD DUP1 PUSH1 0xC0 ADD PUSH1 0x40 MSTORE SWAP1 DUP2 PUSH0 DUP3 ADD PUSH0 SWAP1 SLOAD SWAP1 PUSH2 0x100 EXP SWAP1 DIV PUSH20 0xFFFFFFFFFFFFFFFFFFFFFFFFFFFFFFFFFFFFFFFF AND PUSH20 0xFFFFFFFFFFFFFFFFFFFFFFFFFFFFFFFFFFFFFFFF AND PUSH20 0xFFFFFFFFFFFFFFFFFFFFFFFFFFFFFFFFFFFFFFFF AND DUP2 MSTORE PUSH1 0x20 ADD PUSH1 0x1 DUP3 ADD SLOAD DUP2 MSTORE PUSH1 0x20 ADD PUSH1 0x2 DUP3 ADD SLOAD DUP2 MSTORE PUSH1 0x20 ADD PUSH1 0x3 DUP3 ADD SLOAD DUP2 MSTORE PUSH1 0x20 ADD PUSH1 0x4 DUP3 ADD PUSH0 SWAP1 SLOAD SWAP1 PUSH2 0x100 EXP SWAP1 DIV PUSH1 0xFF AND ISZERO ISZERO ISZERO ISZERO DUP2 MSTORE PUSH1 0x20 ADD PUSH1 0x4 DUP3 ADD PUSH1 0x1 SWAP1 SLOAD SWAP1 PUSH2 0x100 EXP SWAP1 DIV PUSH1 0xFF AND ISZERO ISZERO ISZERO ISZERO DUP2 MSTORE POP POP SWAP1 POP SWAP2 SWAP1 POP JUMP JUMPDEST PUSH0 DUP1 PUSH0 DUP1 PUSH1 0x6 PUSH0 SWAP1 SLOAD SWAP1 PUSH2 0x100 EXP SWAP1 DIV PUSH20 0xFFFFFFFFFFFFFFFFFFFFFFFFFFFFFFFFFFFFFFFF AND PUSH20 0xFFFFFFFFFFFFFFFFFFFFFFFFFFFFFFFFFFFFFFFF AND PUSH4 0x4FC8A991 DUP8 DUP8 PUSH1 0x40 MLOAD DUP4 PUSH4 0xFFFFFFFF AND PUSH1 0xE0 SHL DUP2 MSTORE PUSH1 0x4 ADD PUSH2 0x915 SWAP3 SWAP2 SWAP1 PUSH2 0x1F43 JUMP JUMPDEST PUSH1 0x40 DUP1 MLOAD DUP1 DUP4 SUB DUP2 PUSH0 DUP8 GAS CALL ISZERO DUP1 ISZERO PUSH2 0x930 JUMPI RETURNDATASIZE PUSH0 DUP1 RETURNDATACOPY RETURNDATASIZE PUSH0 REVERT JUMPDEST POP POP POP POP PUSH1 0x40 MLOAD RETURNDATASIZE PUSH1 0x1F NOT PUSH1 0x1F DUP3 ADD AND DUP3 ADD DUP1 PUSH1 0x40 MSTORE POP DUP2 ADD SWAP1 PUSH2 0x954 SWAP2 SWAP1 PUSH2 0x1FC5 JUMP JUMPDEST SWAP2 POP SWAP2 POP DUP2 ISZERO PUSH2 0x978 JUMPI PUSH0 PUSH1 0x4 PUSH0 PUSH2 0x100 EXP DUP2 SLOAD DUP2 PUSH1 0xFF MUL NOT AND SWAP1 DUP4 ISZERO ISZERO MUL OR SWAP1 SSTORE POP JUMPDEST DUP2 DUP2 SWAP4 POP SWAP4 POP POP POP SWAP3 POP SWAP3 SWAP1 POP JUMP JUMPDEST PUSH0 DUP1 PUSH2 0x9CD PUSH0 DUP1 DUP6 PUSH20 0xFFFFFFFFFFFFFFFFFFFFFFFFFFFFFFFFFFFFFFFF AND PUSH20 0xFFFFFFFFFFFFFFFFFFFFFFFFFFFFFFFFFFFFFFFF AND DUP2 MSTORE PUSH1 0x20 ADD SWAP1 DUP2 MSTORE PUSH1 0x20 ADD PUSH0 KECCAK256 PUSH2 0x13E0 JUMP JUMPDEST PUSH2 0xA11 PUSH0 DUP1 DUP7 PUSH20 0xFFFFFFFFFFFFFFFFFFFFFFFFFFFFFFFFFFFFFFFF AND PUSH20 0xFFFFFFFFFFFFFFFFFFFFFFFFFFFFFFFFFFFFFFFF AND DUP2 MSTORE PUSH1 0x20 ADD SWAP1 DUP2 MSTORE PUSH1 0x20 ADD PUSH0 KECCAK256 PUSH2 0x140B JUMP JUMPDEST SWAP2 POP SWAP2 POP SWAP2 POP SWAP2 JUMP JUMPDEST PUSH0 PUSH2 0xA5F PUSH0 DUP1 DUP5 PUSH20 0xFFFFFFFFFFFFFFFFFFFFFFFFFFFFFFFFFFFFFFFF AND PUSH20 0xFFFFFFFFFFFFFFFFFFFFFFFFFFFFFFFFFFFFFFFF AND DUP2 MSTORE PUSH1 0x20 ADD SWAP1 DUP2 MSTORE PUSH1 0x20 ADD PUSH0 KECCAK256 PUSH2 0x1451 JUMP JUMPDEST SWAP1 POP SWAP2 SWAP1 POP JUMP JUMPDEST PUSH0 PUSH1 0x1 SLOAD SWAP1 POP SWAP1 JUMP JUMPDEST PUSH1 0x3 SLOAD DUP2 JUMP JUMPDEST PUSH0 DUP1 PUSH2 0xABB PUSH0 DUP1 DUP9 PUSH20 0xFFFFFFFFFFFFFFFFFFFFFFFFFFFFFFFFFFFFFFFF AND PUSH20 0xFFFFFFFFFFFFFFFFFFFFFFFFFFFFFFFFFFFFFFFF AND DUP2 MSTORE PUSH1 0x20 ADD SWAP1 DUP2 MSTORE PUSH1 0x20 ADD PUSH0 KECCAK256 PUSH2 0x140B JUMP JUMPDEST EQ PUSH2 0xAFB JUMPI PUSH1 0x40 MLOAD PUSH32 0x8C379A000000000000000000000000000000000000000000000000000000000 DUP2 MSTORE PUSH1 0x4 ADD PUSH2 0xAF2 SWAP1 PUSH2 0x204D JUMP JUMPDEST PUSH1 0x40 MLOAD DUP1 SWAP2 SUB SWAP1 REVERT JUMPDEST PUSH0 DUP4 GT PUSH2 0xB3D JUMPI PUSH1 0x40 MLOAD PUSH32 0x8C379A000000000000000000000000000000000000000000000000000000000 DUP2 MSTORE PUSH1 0x4 ADD PUSH2 0xB34 SWAP1 PUSH2 0x1DAC JUMP JUMPDEST PUSH1 0x40 MLOAD DUP1 SWAP2 SUB SWAP1 REVERT JUMPDEST PUSH0 DUP3 GT PUSH2 0xB7F JUMPI PUSH1 0x40 MLOAD PUSH32 0x8C379A000000000000000000000000000000000000000000000000000000000 DUP2 MSTORE PUSH1 0x4 ADD PUSH2 0xB76 SWAP1 PUSH2 0x1E3A JUMP JUMPDEST PUSH1 0x40 MLOAD DUP1 SWAP2 SUB SWAP1 REVERT JUMPDEST PUSH20 0x0 PUSH4 0x15533AA3 DUP6 DUP6 DUP6 TIMESTAMP PUSH0 DUP1 PUSH1 0x40 MLOAD DUP8 PUSH4 0xFFFFFFFF AND PUSH1 0xE0 SHL DUP2 MSTORE PUSH1 0x4 ADD PUSH2 0xBC0 SWAP7 SWAP6 SWAP5 SWAP4 SWAP3 SWAP2 SWAP1 PUSH2 0x2098 JUMP JUMPDEST PUSH1 0xC0 PUSH1 0x40 MLOAD DUP1 DUP4 SUB DUP2 DUP7 GAS DELEGATECALL ISZERO DUP1 ISZERO PUSH2 0xBDB JUMPI RETURNDATASIZE PUSH0 DUP1 RETURNDATACOPY RETURNDATASIZE PUSH0 REVERT JUMPDEST POP POP POP POP PUSH1 0x40 MLOAD RETURNDATASIZE PUSH1 0x1F NOT PUSH1 0x1F DUP3 ADD AND DUP3 ADD DUP1 PUSH1 0x40 MSTORE POP DUP2 ADD SWAP1 PUSH2 0xBFF SWAP2 SWAP1 PUSH2 0x21C0 JUMP JUMPDEST PUSH0 DUP1 DUP8 PUSH20 0xFFFFFFFFFFFFFFFFFFFFFFFFFFFFFFFFFFFFFFFF AND PUSH20 0xFFFFFFFFFFFFFFFFFFFFFFFFFFFFFFFFFFFFFFFF AND DUP2 MSTORE PUSH1 0x20 ADD SWAP1 DUP2 MSTORE PUSH1 0x20 ADD PUSH0 KECCAK256 PUSH0 DUP3 ADD MLOAD DUP2 PUSH0 ADD PUSH0 PUSH2 0x100 EXP DUP2 SLOAD DUP2 PUSH20 0xFFFFFFFFFFFFFFFFFFFFFFFFFFFFFFFFFFFFFFFF MUL NOT AND SWAP1 DUP4 PUSH20 0xFFFFFFFFFFFFFFFFFFFFFFFFFFFFFFFFFFFFFFFF AND MUL OR SWAP1 SSTORE POP PUSH1 0x20 DUP3 ADD MLOAD DUP2 PUSH1 0x1 ADD SSTORE PUSH1 0x40 DUP3 ADD MLOAD DUP2 PUSH1 0x2 ADD SSTORE PUSH1 0x60 DUP3 ADD MLOAD DUP2 PUSH1 0x3 ADD SSTORE PUSH1 0x80 DUP3 ADD MLOAD DUP2 PUSH1 0x4 ADD PUSH0 PUSH2 0x100 EXP DUP2 SLOAD DUP2 PUSH1 0xFF MUL NOT AND SWAP1 DUP4 ISZERO ISZERO MUL OR SWAP1 SSTORE POP PUSH1 0xA0 DUP3 ADD MLOAD DUP2 PUSH1 0x4 ADD PUSH1 0x1 PUSH2 0x100 EXP DUP2 SLOAD DUP2 PUSH1 0xFF MUL NOT AND SWAP1 DUP4 ISZERO ISZERO MUL OR SWAP1 SSTORE POP SWAP1 POP POP PUSH1 0x1 SWAP1 POP SWAP5 SWAP4 POP POP POP POP JUMP JUMPDEST PUSH0 PUSH1 0x3 SLOAD SWAP1 POP SWAP1 JUMP JUMPDEST PUSH0 PUSH1 0x6 PUSH0 SWAP1 SLOAD SWAP1 PUSH2 0x100 EXP SWAP1 DIV PUSH20 0xFFFFFFFFFFFFFFFFFFFFFFFFFFFFFFFFFFFFFFFF AND SWAP1 POP SWAP1 JUMP JUMPDEST PUSH0 PUSH1 0x20 MSTORE DUP1 PUSH0 MSTORE PUSH1 0x40 PUSH0 KECCAK256 PUSH0 SWAP2 POP SWAP1 POP DUP1 PUSH0 ADD PUSH0 SWAP1 SLOAD SWAP1 PUSH2 0x100 EXP SWAP1 DIV PUSH20 0xFFFFFFFFFFFFFFFFFFFFFFFFFFFFFFFFFFFFFFFF AND SWAP1 DUP1 PUSH1 0x1 ADD SLOAD SWAP1 DUP1 PUSH1 0x2 ADD SLOAD SWAP1 DUP1 PUSH1 0x3 ADD SLOAD SWAP1 DUP1 PUSH1 0x4 ADD PUSH0 SWAP1 SLOAD SWAP1 PUSH2 0x100 EXP SWAP1 DIV PUSH1 0xFF AND SWAP1 DUP1 PUSH1 0x4 ADD PUSH1 0x1 SWAP1 SLOAD SWAP1 PUSH2 0x100 EXP SWAP1 DIV PUSH1 0xFF AND SWAP1 POP DUP7 JUMP JUMPDEST PUSH0 ISZERO ISZERO PUSH1 0x4 PUSH0 SWAP1 SLOAD SWAP1 PUSH2 0x100 EXP SWAP1 DIV PUSH1 0xFF AND ISZERO ISZERO EQ PUSH2 0xDDF JUMPI PUSH1 0x40 MLOAD PUSH32 0x8C379A000000000000000000000000000000000000000000000000000000000 DUP2 MSTORE PUSH1 0x4 ADD PUSH2 0xDD6 SWAP1 PUSH2 0x2281 JUMP JUMPDEST PUSH1 0x40 MLOAD DUP1 SWAP2 SUB SWAP1 REVERT JUMPDEST PUSH1 0x1 PUSH1 0x4 PUSH0 PUSH2 0x100 EXP DUP2 SLOAD DUP2 PUSH1 0xFF MUL NOT AND SWAP1 DUP4 ISZERO ISZERO MUL OR SWAP1 SSTORE POP DUP5 PUSH1 0x4 PUSH1 0x1 PUSH2 0x100 EXP DUP2 SLOAD DUP2 PUSH20 0xFFFFFFFFFFFFFFFFFFFFFFFFFFFFFFFFFFFFFFFF MUL NOT AND SWAP1 DUP4 PUSH20 0xFFFFFFFFFFFFFFFFFFFFFFFFFFFFFFFFFFFFFFFF AND MUL OR SWAP1 SSTORE POP DUP4 PUSH1 0x5 DUP2 SWAP1 SSTORE POP PUSH1 0x5 PUSH1 0x3 SLOAD DUP5 DUP5 DUP5 PUSH1 0x40 MLOAD PUSH2 0xE55 SWAP1 PUSH2 0x15A3 JUMP JUMPDEST PUSH2 0xE63 SWAP6 SWAP5 SWAP4 SWAP3 SWAP2 SWAP1 PUSH2 0x22E4 JUMP JUMPDEST PUSH1 0x40 MLOAD DUP1 SWAP2 SUB SWAP1 PUSH0 CREATE DUP1 ISZERO DUP1 ISZERO PUSH2 0xE7C JUMPI RETURNDATASIZE PUSH0 DUP1 RETURNDATACOPY RETURNDATASIZE PUSH0 REVERT JUMPDEST POP PUSH1 0x6 PUSH0 PUSH2 0x100 EXP DUP2 SLOAD DUP2 PUSH20 0xFFFFFFFFFFFFFFFFFFFFFFFFFFFFFFFFFFFFFFFF MUL NOT AND SWAP1 DUP4 PUSH20 0xFFFFFFFFFFFFFFFFFFFFFFFFFFFFFFFFFFFFFFFF AND MUL OR SWAP1 SSTORE POP POP POP POP POP POP JUMP JUMPDEST PUSH0 DUP3 PUSH20 0xFFFFFFFFFFFFFFFFFFFFFFFFFFFFFFFFFFFFFFFF AND PUSH2 0xF1F PUSH0 DUP1 DUP8 PUSH20 0xFFFFFFFFFFFFFFFFFFFFFFFFFFFFFFFFFFFFFFFF AND PUSH20 0xFFFFFFFFFFFFFFFFFFFFFFFFFFFFFFFFFFFFFFFF AND DUP2 MSTORE PUSH1 0x20 ADD SWAP1 DUP2 MSTORE PUSH1 0x20 ADD PUSH0 KECCAK256 PUSH2 0x13E0 JUMP JUMPDEST PUSH20 0xFFFFFFFFFFFFFFFFFFFFFFFFFFFFFFFFFFFFFFFF AND EQ PUSH2 0xF75 JUMPI PUSH1 0x40 MLOAD PUSH32 0x8C379A000000000000000000000000000000000000000000000000000000000 DUP2 MSTORE PUSH1 0x4 ADD PUSH2 0xF6C SWAP1 PUSH2 0x23B3 JUMP JUMPDEST PUSH1 0x40 MLOAD DUP1 SWAP2 SUB SWAP1 REVERT JUMPDEST PUSH0 PUSH2 0xF7F DUP4 PUSH2 0x146B JUMP JUMPDEST SWAP1 POP DUP1 DUP4 PUSH2 0xF8D SWAP2 SWAP1 PUSH2 0x1C91 JUMP JUMPDEST SWAP3 POP DUP1 PUSH1 0x3 PUSH0 DUP3 DUP3 SLOAD PUSH2 0xFA0 SWAP2 SWAP1 PUSH2 0x1EC0 JUMP JUMPDEST SWAP3 POP POP DUP2 SWAP1 SSTORE POP PUSH0 PUSH2 0xFEC PUSH0 DUP1 DUP9 PUSH20 0xFFFFFFFFFFFFFFFFFFFFFFFFFFFFFFFFFFFFFFFF AND PUSH20 0xFFFFFFFFFFFFFFFFFFFFFFFFFFFFFFFFFFFFFFFF AND DUP2 MSTORE PUSH1 0x20 ADD SWAP1 DUP2 MSTORE PUSH1 0x20 ADD PUSH0 KECCAK256 PUSH2 0x140B JUMP JUMPDEST SWAP1 POP PUSH0 PUSH2 0x1081 DUP3 PUSH2 0x1037 PUSH0 DUP1 DUP12 PUSH20 0xFFFFFFFFFFFFFFFFFFFFFFFFFFFFFFFFFFFFFFFF AND PUSH20 0xFFFFFFFFFFFFFFFFFFFFFFFFFFFFFFFFFFFFFFFF AND DUP2 MSTORE PUSH1 0x20 ADD SWAP1 DUP2 MSTORE PUSH1 0x20 ADD PUSH0 KECCAK256 PUSH2 0x14AD JUMP JUMPDEST TIMESTAMP PUSH2 0x107C PUSH0 DUP1 DUP14 PUSH20 0xFFFFFFFFFFFFFFFFFFFFFFFFFFFFFFFFFFFFFFFF AND PUSH20 0xFFFFFFFFFFFFFFFFFFFFFFFFFFFFFFFFFFFFFFFF AND DUP2 MSTORE PUSH1 0x20 ADD SWAP1 DUP2 MSTORE PUSH1 0x20 ADD PUSH0 KECCAK256 PUSH2 0x1418 JUMP JUMPDEST PUSH2 0x14BA JUMP JUMPDEST SWAP1 POP DUP1 PUSH1 0x1 PUSH0 DUP3 DUP3 SLOAD PUSH2 0x1094 SWAP2 SWAP1 PUSH2 0x1EC0 JUMP JUMPDEST SWAP3 POP POP DUP2 SWAP1 SSTORE POP PUSH2 0x10F4 DUP2 DUP4 PUSH2 0x10AA SWAP2 SWAP1 PUSH2 0x1EC0 JUMP JUMPDEST PUSH0 DUP1 DUP11 PUSH20 0xFFFFFFFFFFFFFFFFFFFFFFFFFFFFFFFFFFFFFFFF AND PUSH20 0xFFFFFFFFFFFFFFFFFFFFFFFFFFFFFFFFFFFFFFFF AND DUP2 MSTORE PUSH1 0x20 ADD SWAP1 DUP2 MSTORE PUSH1 0x20 ADD PUSH0 KECCAK256 PUSH2 0x154C SWAP1 SWAP2 SWAP1 PUSH4 0xFFFFFFFF AND JUMP JUMPDEST PUSH0 PUSH2 0x1139 PUSH0 DUP1 DUP11 PUSH20 0xFFFFFFFFFFFFFFFFFFFFFFFFFFFFFFFFFFFFFFFF AND PUSH20 0xFFFFFFFFFFFFFFFFFFFFFFFFFFFFFFFFFFFFFFFF AND DUP2 MSTORE PUSH1 0x20 ADD SWAP1 DUP2 MSTORE PUSH1 0x20 ADD PUSH0 KECCAK256 PUSH2 0x140B JUMP JUMPDEST SWAP1 POP PUSH2 0x1189 TIMESTAMP PUSH0 DUP1 DUP12 PUSH20 0xFFFFFFFFFFFFFFFFFFFFFFFFFFFFFFFFFFFFFFFF AND PUSH20 0xFFFFFFFFFFFFFFFFFFFFFFFFFFFFFFFFFFFFFFFF AND DUP2 MSTORE PUSH1 0x20 ADD SWAP1 DUP2 MSTORE PUSH1 0x20 ADD PUSH0 KECCAK256 PUSH2 0x1425 SWAP1 SWAP2 SWAP1 PUSH4 0xFFFFFFFF AND JUMP JUMPDEST PUSH0 DUP7 DUP3 GT SWAP1 POP PUSH0 DUP2 ISZERO PUSH2 0x1275 JUMPI PUSH2 0x11EF DUP9 DUP5 PUSH2 0x11A5 SWAP2 SWAP1 PUSH2 0x1C91 JUMP JUMPDEST PUSH0 DUP1 DUP14 PUSH20 0xFFFFFFFFFFFFFFFFFFFFFFFFFFFFFFFFFFFFFFFF AND PUSH20 0xFFFFFFFFFFFFFFFFFFFFFFFFFFFFFFFFFFFFFFFF AND DUP2 MSTORE PUSH1 0x20 ADD SWAP1 DUP2 MSTORE PUSH1 0x20 ADD PUSH0 KECCAK256 PUSH2 0x154C SWAP1 SWAP2 SWAP1 PUSH4 0xFFFFFFFF AND JUMP JUMPDEST PUSH0 DUP9 PUSH1 0x1 SLOAD PUSH2 0x11FE SWAP2 SWAP1 PUSH2 0x1C91 JUMP JUMPDEST LT ISZERO PUSH2 0x123F JUMPI PUSH1 0x40 MLOAD PUSH32 0x8C379A000000000000000000000000000000000000000000000000000000000 DUP2 MSTORE PUSH1 0x4 ADD PUSH2 0x1236 SWAP1 PUSH2 0x2441 JUMP JUMPDEST PUSH1 0x40 MLOAD DUP1 SWAP2 SUB SWAP1 REVERT JUMPDEST DUP8 PUSH1 0x1 SLOAD PUSH2 0x124D SWAP2 SWAP1 PUSH2 0x1C91 JUMP JUMPDEST PUSH1 0x1 DUP2 SWAP1 SSTORE POP DUP8 PUSH1 0x2 SLOAD PUSH2 0x1261 SWAP2 SWAP1 PUSH2 0x1EC0 JUMP JUMPDEST PUSH1 0x2 DUP2 SWAP1 SSTORE POP DUP8 SWAP7 POP POP POP POP POP POP POP PUSH2 0x1390 JUMP JUMPDEST DUP3 DUP9 PUSH2 0x1281 SWAP2 SWAP1 PUSH2 0x1C91 JUMP JUMPDEST SWAP1 POP PUSH2 0x12D1 PUSH0 DUP1 PUSH0 DUP14 PUSH20 0xFFFFFFFFFFFFFFFFFFFFFFFFFFFFFFFFFFFFFFFF AND PUSH20 0xFFFFFFFFFFFFFFFFFFFFFFFFFFFFFFFFFFFFFFFF AND DUP2 MSTORE PUSH1 0x20 ADD SWAP1 DUP2 MSTORE PUSH1 0x20 ADD PUSH0 KECCAK256 PUSH2 0x154C SWAP1 SWAP2 SWAP1 PUSH4 0xFFFFFFFF AND JUMP JUMPDEST PUSH0 DUP2 DUP10 PUSH2 0x12DE SWAP2 SWAP1 PUSH2 0x1C91 JUMP JUMPDEST SWAP1 POP PUSH0 DUP2 PUSH1 0x1 SLOAD PUSH2 0x12EF SWAP2 SWAP1 PUSH2 0x1C91 JUMP JUMPDEST LT ISZERO PUSH2 0x1330 JUMPI PUSH1 0x40 MLOAD PUSH32 0x8C379A000000000000000000000000000000000000000000000000000000000 DUP2 MSTORE PUSH1 0x4 ADD PUSH2 0x1327 SWAP1 PUSH2 0x2441 JUMP JUMPDEST PUSH1 0x40 MLOAD DUP1 SWAP2 SUB SWAP1 REVERT JUMPDEST DUP1 PUSH1 0x1 SLOAD PUSH2 0x133E SWAP2 SWAP1 PUSH2 0x1C91 JUMP JUMPDEST PUSH1 0x1 DUP2 SWAP1 SSTORE POP DUP1 PUSH1 0x2 SLOAD PUSH2 0x1352 SWAP2 SWAP1 PUSH2 0x1EC0 JUMP JUMPDEST PUSH1 0x2 DUP2 SWAP1 SSTORE POP DUP1 PUSH32 0x9475536CEFB174883C3CDB7FC9B15F91D30B23B31537FA0BBA2CC40BAE9CC670 PUSH1 0x40 MLOAD PUSH1 0x40 MLOAD DUP1 SWAP2 SUB SWAP1 LOG2 DUP2 SWAP8 POP POP POP POP POP POP POP POP JUMPDEST SWAP4 SWAP3 POP POP POP JUMP JUMPDEST PUSH0 PUSH1 0x4 PUSH1 0x1 SWAP1 SLOAD SWAP1 PUSH2 0x100 EXP SWAP1 DIV PUSH20 0xFFFFFFFFFFFFFFFFFFFFFFFFFFFFFFFFFFFFFFFF AND SWAP1 POP SWAP1 JUMP JUMPDEST PUSH1 0x1 DUP2 PUSH1 0x4 ADD PUSH1 0x1 PUSH2 0x100 EXP DUP2 SLOAD DUP2 PUSH1 0xFF MUL NOT AND SWAP1 DUP4 ISZERO ISZERO MUL OR SWAP1 SSTORE POP POP JUMP JUMPDEST PUSH0 DUP2 PUSH0 ADD PUSH0 SWAP1 SLOAD SWAP1 PUSH2 0x100 EXP SWAP1 DIV PUSH20 0xFFFFFFFFFFFFFFFFFFFFFFFFFFFFFFFFFFFFFFFF AND SWAP1 POP SWAP2 SWAP1 POP JUMP JUMPDEST PUSH0 DUP2 PUSH1 0x1 ADD SLOAD SWAP1 POP SWAP2 SWAP1 POP JUMP JUMPDEST PUSH0 DUP2 PUSH1 0x2 ADD SLOAD SWAP1 POP SWAP2 SWAP1 POP JUMP JUMPDEST DUP1 DUP3 PUSH1 0x3 ADD DUP2 SWAP1 SSTORE POP POP POP JUMP JUMPDEST PUSH1 0x1 DUP2 PUSH1 0x4 ADD PUSH0 PUSH2 0x100 EXP DUP2 SLOAD DUP2 PUSH1 0xFF MUL NOT AND SWAP1 DUP4 ISZERO ISZERO MUL OR SWAP1 SSTORE POP POP JUMP JUMPDEST PUSH0 DUP2 PUSH1 0x4 ADD PUSH1 0x1 SWAP1 SLOAD SWAP1 PUSH2 0x100 EXP SWAP1 DIV PUSH1 0xFF AND SWAP1 POP SWAP2 SWAP1 POP JUMP JUMPDEST PUSH0 DUP1 PUSH1 0x1 SWAP1 POP PUSH0 DUP2 PUSH2 0xFFFF AND PUSH1 0x64 DUP6 PUSH2 0x1484 SWAP2 SWAP1 PUSH2 0x248C JUMP JUMPDEST PUSH2 0x148E SWAP2 SWAP1 PUSH2 0x24BC JUMP JUMPDEST SWAP1 POP PUSH0 DUP2 SUB PUSH2 0x14A2 JUMPI PUSH1 0x1 SWAP3 POP POP POP PUSH2 0x14A8 JUMP JUMPDEST DUP1 SWAP3 POP POP POP JUMPDEST SWAP2 SWAP1 POP JUMP JUMPDEST PUSH0 DUP2 PUSH1 0x3 ADD SLOAD SWAP1 POP SWAP2 SWAP1 POP JUMP JUMPDEST PUSH0 DUP4 DUP4 LT ISZERO PUSH2 0x14FE JUMPI PUSH1 0x40 MLOAD PUSH32 0x8C379A000000000000000000000000000000000000000000000000000000000 DUP2 MSTORE PUSH1 0x4 ADD PUSH2 0x14F5 SWAP1 PUSH2 0x256D JUMP JUMPDEST PUSH1 0x40 MLOAD DUP1 SWAP2 SUB SWAP1 REVERT JUMPDEST PUSH0 PUSH1 0x1E DUP6 DUP6 PUSH2 0x150D SWAP2 SWAP1 PUSH2 0x1C91 JUMP JUMPDEST PUSH2 0x1517 SWAP2 SWAP1 PUSH2 0x248C JUMP JUMPDEST SWAP1 POP PUSH0 PUSH1 0x64 DUP5 DUP9 PUSH2 0x1528 SWAP2 SWAP1 PUSH2 0x24BC JUMP JUMPDEST PUSH2 0x1532 SWAP2 SWAP1 PUSH2 0x248C JUMP JUMPDEST SWAP1 POP DUP1 DUP3 PUSH2 0x1540 SWAP2 SWAP1 PUSH2 0x24BC JUMP JUMPDEST SWAP3 POP POP POP SWAP5 SWAP4 POP POP POP POP JUMP JUMPDEST DUP1 DUP3 PUSH1 0x1 ADD DUP2 SWAP1 SSTORE POP POP POP JUMP JUMPDEST PUSH1 0x40 MLOAD DUP1 PUSH1 0xC0 ADD PUSH1 0x40 MSTORE DUP1 PUSH0 PUSH20 0xFFFFFFFFFFFFFFFFFFFFFFFFFFFFFFFFFFFFFFFF AND DUP2 MSTORE PUSH1 0x20 ADD PUSH0 DUP2 MSTORE PUSH1 0x20 ADD PUSH0 DUP2 MSTORE PUSH1 0x20 ADD PUSH0 DUP2 MSTORE PUSH1 0x20 ADD PUSH0 ISZERO ISZERO DUP2 MSTORE PUSH1 0x20 ADD PUSH0 ISZERO ISZERO DUP2 MSTORE POP SWAP1 JUMP JUMPDEST PUSH2 0x18B9 DUP1 PUSH2 0x258C DUP4 CODECOPY ADD SWAP1 JUMP JUMPDEST PUSH0 PUSH20 0xFFFFFFFFFFFFFFFFFFFFFFFFFFFFFFFFFFFFFFFF DUP3 AND SWAP1 POP SWAP2 SWAP1 POP JUMP JUMPDEST PUSH0 PUSH2 0x15D9 DUP3 PUSH2 0x15B0 JUMP JUMPDEST SWAP1 POP SWAP2 SWAP1 POP JUMP JUMPDEST PUSH2 0x15E9 DUP2 PUSH2 0x15CF JUMP JUMPDEST DUP3 MSTORE POP POP JUMP JUMPDEST PUSH0 DUP2 SWAP1 POP SWAP2 SWAP1 POP JUMP JUMPDEST PUSH2 0x1601 DUP2 PUSH2 0x15EF JUMP JUMPDEST DUP3 MSTORE POP POP JUMP JUMPDEST PUSH0 PUSH1 0x40 DUP3 ADD SWAP1 POP PUSH2 0x161A PUSH0 DUP4 ADD DUP6 PUSH2 0x15E0 JUMP JUMPDEST PUSH2 0x1627 PUSH1 0x20 DUP4 ADD DUP5 PUSH2 0x15F8 JUMP JUMPDEST SWAP4 SWAP3 POP POP POP JUMP JUMPDEST PUSH0 PUSH1 0x40 MLOAD SWAP1 POP SWAP1 JUMP JUMPDEST PUSH0 DUP1 REVERT JUMPDEST PUSH0 DUP1 REVERT JUMPDEST PUSH2 0x1648 DUP2 PUSH2 0x15CF JUMP JUMPDEST DUP2 EQ PUSH2 0x1652 JUMPI PUSH0 DUP1 REVERT JUMPDEST POP JUMP JUMPDEST PUSH0 DUP2 CALLDATALOAD SWAP1 POP PUSH2 0x1663 DUP2 PUSH2 0x163F JUMP JUMPDEST SWAP3 SWAP2 POP POP JUMP JUMPDEST PUSH2 0x1672 DUP2 PUSH2 0x15EF JUMP JUMPDEST DUP2 EQ PUSH2 0x167C JUMPI PUSH0 DUP1 REVERT JUMPDEST POP JUMP JUMPDEST PUSH0 DUP2 CALLDATALOAD SWAP1 POP PUSH2 0x168D DUP2 PUSH2 0x1669 JUMP JUMPDEST SWAP3 SWAP2 POP POP JUMP JUMPDEST PUSH0 DUP1 PUSH0 DUP1 PUSH0 PUSH1 0xA0 DUP7 DUP9 SUB SLT ISZERO PUSH2 0x16AC JUMPI PUSH2 0x16AB PUSH2 0x1637 JUMP JUMPDEST JUMPDEST PUSH0 PUSH2 0x16B9 DUP9 DUP3 DUP10 ADD PUSH2 0x1655 JUMP JUMPDEST SWAP6 POP POP PUSH1 0x20 PUSH2 0x16CA DUP9 DUP3 DUP10 ADD PUSH2 0x1655 JUMP JUMPDEST SWAP5 POP POP PUSH1 0x40 PUSH2 0x16DB DUP9 DUP3 DUP10 ADD PUSH2 0x167F JUMP JUMPDEST SWAP4 POP POP PUSH1 0x60 PUSH2 0x16EC DUP9 DUP3 DUP10 ADD PUSH2 0x167F JUMP JUMPDEST SWAP3 POP POP PUSH1 0x80 PUSH2 0x16FD DUP9 DUP3 DUP10 ADD PUSH2 0x167F JUMP JUMPDEST SWAP2 POP POP SWAP3 SWAP6 POP SWAP3 SWAP6 SWAP1 SWAP4 POP JUMP JUMPDEST PUSH0 DUP2 ISZERO ISZERO SWAP1 POP SWAP2 SWAP1 POP JUMP JUMPDEST PUSH2 0x171E DUP2 PUSH2 0x170A JUMP JUMPDEST DUP3 MSTORE POP POP JUMP JUMPDEST PUSH0 PUSH1 0x20 DUP3 ADD SWAP1 POP PUSH2 0x1737 PUSH0 DUP4 ADD DUP5 PUSH2 0x1715 JUMP JUMPDEST SWAP3 SWAP2 POP POP JUMP JUMPDEST PUSH0 PUSH1 0x20 DUP3 DUP5 SUB SLT ISZERO PUSH2 0x1752 JUMPI PUSH2 0x1751 PUSH2 0x1637 JUMP JUMPDEST JUMPDEST PUSH0 PUSH2 0x175F DUP5 DUP3 DUP6 ADD PUSH2 0x1655 JUMP JUMPDEST SWAP2 POP POP SWAP3 SWAP2 POP POP JUMP JUMPDEST PUSH2 0x1771 DUP2 PUSH2 0x15CF JUMP JUMPDEST DUP3 MSTORE POP POP JUMP JUMPDEST PUSH2 0x1780 DUP2 PUSH2 0x15EF JUMP JUMPDEST DUP3 MSTORE POP POP JUMP JUMPDEST PUSH2 0x178F DUP2 PUSH2 0x170A JUMP JUMPDEST DUP3 MSTORE POP POP JUMP JUMPDEST PUSH1 0xC0 DUP3 ADD PUSH0 DUP3 ADD MLOAD PUSH2 0x17A9 PUSH0 DUP6 ADD DUP3 PUSH2 0x1768 JUMP JUMPDEST POP PUSH1 0x20 DUP3 ADD MLOAD PUSH2 0x17BC PUSH1 0x20 DUP6 ADD DUP3 PUSH2 0x1777 JUMP JUMPDEST POP PUSH1 0x40 DUP3 ADD MLOAD PUSH2 0x17CF PUSH1 0x40 DUP6 ADD DUP3 PUSH2 0x1777 JUMP JUMPDEST POP PUSH1 0x60 DUP3 ADD MLOAD PUSH2 0x17E2 PUSH1 0x60 DUP6 ADD DUP3 PUSH2 0x1777 JUMP JUMPDEST POP PUSH1 0x80 DUP3 ADD MLOAD PUSH2 0x17F5 PUSH1 0x80 DUP6 ADD DUP3 PUSH2 0x1786 JUMP JUMPDEST POP PUSH1 0xA0 DUP3 ADD MLOAD PUSH2 0x1808 PUSH1 0xA0 DUP6 ADD DUP3 PUSH2 0x1786 JUMP JUMPDEST POP POP POP POP JUMP JUMPDEST PUSH0 PUSH1 0xC0 DUP3 ADD SWAP1 POP PUSH2 0x1821 PUSH0 DUP4 ADD DUP5 PUSH2 0x1795 JUMP JUMPDEST SWAP3 SWAP2 POP POP JUMP JUMPDEST PUSH0 DUP1 REVERT JUMPDEST PUSH0 DUP1 REVERT JUMPDEST PUSH0 PUSH1 0x1F NOT PUSH1 0x1F DUP4 ADD AND SWAP1 POP SWAP2 SWAP1 POP JUMP JUMPDEST PUSH32 0x4E487B7100000000000000000000000000000000000000000000000000000000 PUSH0 MSTORE PUSH1 0x41 PUSH1 0x4 MSTORE PUSH1 0x24 PUSH0 REVERT JUMPDEST PUSH2 0x1875 DUP3 PUSH2 0x182F JUMP JUMPDEST DUP2 ADD DUP2 DUP2 LT PUSH8 0xFFFFFFFFFFFFFFFF DUP3 GT OR ISZERO PUSH2 0x1894 JUMPI PUSH2 0x1893 PUSH2 0x183F JUMP JUMPDEST JUMPDEST DUP1 PUSH1 0x40 MSTORE POP POP POP JUMP JUMPDEST PUSH0 PUSH2 0x18A6 PUSH2 0x162E JUMP JUMPDEST SWAP1 POP PUSH2 0x18B2 DUP3 DUP3 PUSH2 0x186C JUMP JUMPDEST SWAP2 SWAP1 POP JUMP JUMPDEST PUSH0 PUSH8 0xFFFFFFFFFFFFFFFF DUP3 GT ISZERO PUSH2 0x18D1 JUMPI PUSH2 0x18D0 PUSH2 0x183F JUMP JUMPDEST JUMPDEST PUSH2 0x18DA DUP3 PUSH2 0x182F JUMP JUMPDEST SWAP1 POP PUSH1 0x20 DUP2 ADD SWAP1 POP SWAP2 SWAP1 POP JUMP JUMPDEST DUP3 DUP2 DUP4 CALLDATACOPY PUSH0 DUP4 DUP4 ADD MSTORE POP POP POP JUMP JUMPDEST PUSH0 PUSH2 0x1907 PUSH2 0x1902 DUP5 PUSH2 0x18B7 JUMP JUMPDEST PUSH2 0x189D JUMP JUMPDEST SWAP1 POP DUP3 DUP2 MSTORE PUSH1 0x20 DUP2 ADD DUP5 DUP5 DUP5 ADD GT ISZERO PUSH2 0x1923 JUMPI PUSH2 0x1922 PUSH2 0x182B JUMP JUMPDEST JUMPDEST PUSH2 0x192E DUP5 DUP3 DUP6 PUSH2 0x18E7 JUMP JUMPDEST POP SWAP4 SWAP3 POP POP POP JUMP JUMPDEST PUSH0 DUP3 PUSH1 0x1F DUP4 ADD SLT PUSH2 0x194A JUMPI PUSH2 0x1949 PUSH2 0x1827 JUMP JUMPDEST JUMPDEST DUP2 CALLDATALOAD PUSH2 0x195A DUP5 DUP3 PUSH1 0x20 DUP7 ADD PUSH2 0x18F5 JUMP JUMPDEST SWAP2 POP POP SWAP3 SWAP2 POP POP JUMP JUMPDEST PUSH0 DUP1 PUSH1 0x40 DUP4 DUP6 SUB SLT ISZERO PUSH2 0x1979 JUMPI PUSH2 0x1978 PUSH2 0x1637 JUMP JUMPDEST JUMPDEST PUSH0 PUSH2 0x1986 DUP6 DUP3 DUP7 ADD PUSH2 0x1655 JUMP JUMPDEST SWAP3 POP POP PUSH1 0x20 DUP4 ADD CALLDATALOAD PUSH8 0xFFFFFFFFFFFFFFFF DUP2 GT ISZERO PUSH2 0x19A7 JUMPI PUSH2 0x19A6 PUSH2 0x163B JUMP JUMPDEST JUMPDEST PUSH2 0x19B3 DUP6 DUP3 DUP7 ADD PUSH2 0x1936 JUMP JUMPDEST SWAP2 POP POP SWAP3 POP SWAP3 SWAP1 POP JUMP JUMPDEST PUSH0 DUP2 SWAP1 POP SWAP2 SWAP1 POP JUMP JUMPDEST PUSH2 0x19CF DUP2 PUSH2 0x19BD JUMP JUMPDEST DUP3 MSTORE POP POP JUMP JUMPDEST PUSH0 PUSH1 0x40 DUP3 ADD SWAP1 POP PUSH2 0x19E8 PUSH0 DUP4 ADD DUP6 PUSH2 0x1715 JUMP JUMPDEST PUSH2 0x19F5 PUSH1 0x20 DUP4 ADD DUP5 PUSH2 0x19C6 JUMP JUMPDEST SWAP4 SWAP3 POP POP POP JUMP JUMPDEST PUSH0 PUSH1 0x20 DUP3 ADD SWAP1 POP PUSH2 0x1A0F PUSH0 DUP4 ADD DUP5 PUSH2 0x15F8 JUMP JUMPDEST SWAP3 SWAP2 POP POP JUMP JUMPDEST PUSH0 DUP1 PUSH0 DUP1 PUSH1 0x80 DUP6 DUP8 SUB SLT ISZERO PUSH2 0x1A2D JUMPI PUSH2 0x1A2C PUSH2 0x1637 JUMP JUMPDEST JUMPDEST PUSH0 PUSH2 0x1A3A DUP8 DUP3 DUP9 ADD PUSH2 0x1655 JUMP JUMPDEST SWAP5 POP POP PUSH1 0x20 PUSH2 0x1A4B DUP8 DUP3 DUP9 ADD PUSH2 0x1655 JUMP JUMPDEST SWAP4 POP POP PUSH1 0x40 PUSH2 0x1A5C DUP8 DUP3 DUP9 ADD PUSH2 0x167F JUMP JUMPDEST SWAP3 POP POP PUSH1 0x60 PUSH2 0x1A6D DUP8 DUP3 DUP9 ADD PUSH2 0x167F JUMP JUMPDEST SWAP2 POP POP SWAP3 SWAP6 SWAP2 SWAP5 POP SWAP3 POP JUMP JUMPDEST PUSH0 DUP2 SWAP1 POP SWAP2 SWAP1 POP JUMP JUMPDEST PUSH0 PUSH2 0x1A9C PUSH2 0x1A97 PUSH2 0x1A92 DUP5 PUSH2 0x15B0 JUMP JUMPDEST PUSH2 0x1A79 JUMP JUMPDEST PUSH2 0x15B0 JUMP JUMPDEST SWAP1 POP SWAP2 SWAP1 POP JUMP JUMPDEST PUSH0 PUSH2 0x1AAD DUP3 PUSH2 0x1A82 JUMP JUMPDEST SWAP1 POP SWAP2 SWAP1 POP JUMP JUMPDEST PUSH0 PUSH2 0x1ABE DUP3 PUSH2 0x1AA3 JUMP JUMPDEST SWAP1 POP SWAP2 SWAP1 POP JUMP JUMPDEST PUSH2 0x1ACE DUP2 PUSH2 0x1AB4 JUMP JUMPDEST DUP3 MSTORE POP POP JUMP JUMPDEST PUSH0 PUSH1 0x20 DUP3 ADD SWAP1 POP PUSH2 0x1AE7 PUSH0 DUP4 ADD DUP5 PUSH2 0x1AC5 JUMP JUMPDEST SWAP3 SWAP2 POP POP JUMP JUMPDEST PUSH0 PUSH1 0xC0 DUP3 ADD SWAP1 POP PUSH2 0x1B00 PUSH0 DUP4 ADD DUP10 PUSH2 0x15E0 JUMP JUMPDEST PUSH2 0x1B0D PUSH1 0x20 DUP4 ADD DUP9 PUSH2 0x15F8 JUMP JUMPDEST PUSH2 0x1B1A PUSH1 0x40 DUP4 ADD DUP8 PUSH2 0x15F8 JUMP JUMPDEST PUSH2 0x1B27 PUSH1 0x60 DUP4 ADD DUP7 PUSH2 0x15F8 JUMP JUMPDEST PUSH2 0x1B34 PUSH1 0x80 DUP4 ADD DUP6 PUSH2 0x1715 JUMP JUMPDEST PUSH2 0x1B41 PUSH1 0xA0 DUP4 ADD DUP5 PUSH2 0x1715 JUMP JUMPDEST SWAP8 SWAP7 POP POP POP POP POP POP POP JUMP JUMPDEST PUSH0 DUP1 PUSH0 DUP1 PUSH0 PUSH1 0xA0 DUP7 DUP9 SUB SLT ISZERO PUSH2 0x1B65 JUMPI PUSH2 0x1B64 PUSH2 0x1637 JUMP JUMPDEST JUMPDEST PUSH0 PUSH2 0x1B72 DUP9 DUP3 DUP10 ADD PUSH2 0x1655 JUMP JUMPDEST SWAP6 POP POP PUSH1 0x20 PUSH2 0x1B83 DUP9 DUP3 DUP10 ADD PUSH2 0x167F JUMP JUMPDEST SWAP5 POP POP PUSH1 0x40 DUP7 ADD CALLDATALOAD PUSH8 0xFFFFFFFFFFFFFFFF DUP2 GT ISZERO PUSH2 0x1BA4 JUMPI PUSH2 0x1BA3 PUSH2 0x163B JUMP JUMPDEST JUMPDEST PUSH2 0x1BB0 DUP9 DUP3 DUP10 ADD PUSH2 0x1936 JUMP JUMPDEST SWAP4 POP POP PUSH1 0x60 DUP7 ADD CALLDATALOAD PUSH8 0xFFFFFFFFFFFFFFFF DUP2 GT ISZERO PUSH2 0x1BD1 JUMPI PUSH2 0x1BD0 PUSH2 0x163B JUMP JUMPDEST JUMPDEST PUSH2 0x1BDD DUP9 DUP3 DUP10 ADD PUSH2 0x1936 JUMP JUMPDEST SWAP3 POP POP PUSH1 0x80 PUSH2 0x1BEE DUP9 DUP3 DUP10 ADD PUSH2 0x167F JUMP JUMPDEST SWAP2 POP POP SWAP3 SWAP6 POP SWAP3 SWAP6 SWAP1 SWAP4 POP JUMP JUMPDEST PUSH0 DUP1 PUSH0 PUSH1 0x60 DUP5 DUP7 SUB SLT ISZERO PUSH2 0x1C12 JUMPI PUSH2 0x1C11 PUSH2 0x1637 JUMP JUMPDEST JUMPDEST PUSH0 PUSH2 0x1C1F DUP7 DUP3 DUP8 ADD PUSH2 0x1655 JUMP JUMPDEST SWAP4 POP POP PUSH1 0x20 PUSH2 0x1C30 DUP7 DUP3 DUP8 ADD PUSH2 0x1655 JUMP JUMPDEST SWAP3 POP POP PUSH1 0x40 PUSH2 0x1C41 DUP7 DUP3 DUP8 ADD PUSH2 0x167F JUMP JUMPDEST SWAP2 POP POP SWAP3 POP SWAP3 POP SWAP3 JUMP JUMPDEST PUSH0 PUSH1 0x20 DUP3 ADD SWAP1 POP PUSH2 0x1C5E PUSH0 DUP4 ADD DUP5 PUSH2 0x15E0 JUMP JUMPDEST SWAP3 SWAP2 POP POP JUMP JUMPDEST PUSH32 0x4E487B7100000000000000000000000000000000000000000000000000000000 PUSH0 MSTORE PUSH1 0x11 PUSH1 0x4 MSTORE PUSH1 0x24 PUSH0 REVERT JUMPDEST PUSH0 PUSH2 0x1C9B DUP3 PUSH2 0x15EF JUMP JUMPDEST SWAP2 POP PUSH2 0x1CA6 DUP4 PUSH2 0x15EF JUMP JUMPDEST SWAP3 POP DUP3 DUP3 SUB SWAP1 POP DUP2 DUP2 GT ISZERO PUSH2 0x1CBE JUMPI PUSH2 0x1CBD PUSH2 0x1C64 JUMP JUMPDEST JUMPDEST SWAP3 SWAP2 POP POP JUMP JUMPDEST PUSH0 DUP3 DUP3 MSTORE PUSH1 0x20 DUP3 ADD SWAP1 POP SWAP3 SWAP2 POP POP JUMP JUMPDEST PUSH32 0x446562746F7220646F65736E27742065786973742E0000000000000000000000 PUSH0 DUP3 ADD MSTORE POP JUMP JUMPDEST PUSH0 PUSH2 0x1D08 PUSH1 0x15 DUP4 PUSH2 0x1CC4 JUMP JUMPDEST SWAP2 POP PUSH2 0x1D13 DUP3 PUSH2 0x1CD4 JUMP JUMPDEST PUSH1 0x20 DUP3 ADD SWAP1 POP SWAP2 SWAP1 POP JUMP JUMPDEST PUSH0 PUSH1 0x20 DUP3 ADD SWAP1 POP DUP2 DUP2 SUB PUSH0 DUP4 ADD MSTORE PUSH2 0x1D35 DUP2 PUSH2 0x1CFC JUMP JUMPDEST SWAP1 POP SWAP2 SWAP1 POP JUMP JUMPDEST PUSH32 0x416D6F756E74206F662064656274206861766520746F20626520677265617465 PUSH0 DUP3 ADD MSTORE PUSH32 0x72207468616E20302E0000000000000000000000000000000000000000000000 PUSH1 0x20 DUP3 ADD MSTORE POP JUMP JUMPDEST PUSH0 PUSH2 0x1D96 PUSH1 0x29 DUP4 PUSH2 0x1CC4 JUMP JUMPDEST SWAP2 POP PUSH2 0x1DA1 DUP3 PUSH2 0x1D3C JUMP JUMPDEST PUSH1 0x40 DUP3 ADD SWAP1 POP SWAP2 SWAP1 POP JUMP JUMPDEST PUSH0 PUSH1 0x20 DUP3 ADD SWAP1 POP DUP2 DUP2 SUB PUSH0 DUP4 ADD MSTORE PUSH2 0x1DC3 DUP2 PUSH2 0x1D8A JUMP JUMPDEST SWAP1 POP SWAP2 SWAP1 POP JUMP JUMPDEST PUSH32 0x496E7465726573742068617320746F2062652067726561746572207468616E20 PUSH0 DUP3 ADD MSTORE PUSH32 0x302E000000000000000000000000000000000000000000000000000000000000 PUSH1 0x20 DUP3 ADD MSTORE POP JUMP JUMPDEST PUSH0 PUSH2 0x1E24 PUSH1 0x22 DUP4 PUSH2 0x1CC4 JUMP JUMPDEST SWAP2 POP PUSH2 0x1E2F DUP3 PUSH2 0x1DCA JUMP JUMPDEST PUSH1 0x40 DUP3 ADD SWAP1 POP SWAP2 SWAP1 POP JUMP JUMPDEST PUSH0 PUSH1 0x20 DUP3 ADD SWAP1 POP DUP2 DUP2 SUB PUSH0 DUP4 ADD MSTORE PUSH2 0x1E51 DUP2 PUSH2 0x1E18 JUMP JUMPDEST SWAP1 POP SWAP2 SWAP1 POP JUMP JUMPDEST PUSH32 0x56616C69646174696F6E206661696C65642E0000000000000000000000000000 PUSH0 DUP3 ADD MSTORE POP JUMP JUMPDEST PUSH0 PUSH2 0x1E8C PUSH1 0x12 DUP4 PUSH2 0x1CC4 JUMP JUMPDEST SWAP2 POP PUSH2 0x1E97 DUP3 PUSH2 0x1E58 JUMP JUMPDEST PUSH1 0x20 DUP3 ADD SWAP1 POP SWAP2 SWAP1 POP JUMP JUMPDEST PUSH0 PUSH1 0x20 DUP3 ADD SWAP1 POP DUP2 DUP2 SUB PUSH0 DUP4 ADD MSTORE PUSH2 0x1EB9 DUP2 PUSH2 0x1E80 JUMP JUMPDEST SWAP1 POP SWAP2 SWAP1 POP JUMP JUMPDEST PUSH0 PUSH2 0x1ECA DUP3 PUSH2 0x15EF JUMP JUMPDEST SWAP2 POP PUSH2 0x1ED5 DUP4 PUSH2 0x15EF JUMP JUMPDEST SWAP3 POP DUP3 DUP3 ADD SWAP1 POP DUP1 DUP3 GT ISZERO PUSH2 0x1EED JUMPI PUSH2 0x1EEC PUSH2 0x1C64 JUMP JUMPDEST JUMPDEST SWAP3 SWAP2 POP POP JUMP JUMPDEST PUSH0 DUP2 MLOAD SWAP1 POP SWAP2 SWAP1 POP JUMP JUMPDEST DUP3 DUP2 DUP4 MCOPY PUSH0 DUP4 DUP4 ADD MSTORE POP POP POP JUMP JUMPDEST PUSH0 PUSH2 0x1F15 DUP3 PUSH2 0x1EF3 JUMP JUMPDEST PUSH2 0x1F1F DUP2 DUP6 PUSH2 0x1CC4 JUMP JUMPDEST SWAP4 POP PUSH2 0x1F2F DUP2 DUP6 PUSH1 0x20 DUP7 ADD PUSH2 0x1EFD JUMP JUMPDEST PUSH2 0x1F38 DUP2 PUSH2 0x182F JUMP JUMPDEST DUP5 ADD SWAP2 POP POP SWAP3 SWAP2 POP POP JUMP JUMPDEST PUSH0 PUSH1 0x40 DUP3 ADD SWAP1 POP PUSH2 0x1F56 PUSH0 DUP4 ADD DUP6 PUSH2 0x15E0 JUMP JUMPDEST DUP2 DUP2 SUB PUSH1 0x20 DUP4 ADD MSTORE PUSH2 0x1F68 DUP2 DUP5 PUSH2 0x1F0B JUMP JUMPDEST SWAP1 POP SWAP4 SWAP3 POP POP POP JUMP JUMPDEST PUSH2 0x1F7A DUP2 PUSH2 0x170A JUMP JUMPDEST DUP2 EQ PUSH2 0x1F84 JUMPI PUSH0 DUP1 REVERT JUMPDEST POP JUMP JUMPDEST PUSH0 DUP2 MLOAD SWAP1 POP PUSH2 0x1F95 DUP2 PUSH2 0x1F71 JUMP JUMPDEST SWAP3 SWAP2 POP POP JUMP JUMPDEST PUSH2 0x1FA4 DUP2 PUSH2 0x19BD JUMP JUMPDEST DUP2 EQ PUSH2 0x1FAE JUMPI PUSH0 DUP1 REVERT JUMPDEST POP JUMP JUMPDEST PUSH0 DUP2 MLOAD SWAP1 POP PUSH2 0x1FBF DUP2 PUSH2 0x1F9B JUMP JUMPDEST SWAP3 SWAP2 POP POP JUMP JUMPDEST PUSH0 DUP1 PUSH1 0x40 DUP4 DUP6 SUB SLT ISZERO PUSH2 0x1FDB JUMPI PUSH2 0x1FDA PUSH2 0x1637 JUMP JUMPDEST JUMPDEST PUSH0 PUSH2 0x1FE8 DUP6 DUP3 DUP7 ADD PUSH2 0x1F87 JUMP JUMPDEST SWAP3 POP POP PUSH1 0x20 PUSH2 0x1FF9 DUP6 DUP3 DUP7 ADD PUSH2 0x1FB1 JUMP JUMPDEST SWAP2 POP POP SWAP3 POP SWAP3 SWAP1 POP JUMP JUMPDEST PUSH32 0x446562746F7220616C7265616479206861766520646562742E00000000000000 PUSH0 DUP3 ADD MSTORE POP JUMP JUMPDEST PUSH0 PUSH2 0x2037 PUSH1 0x19 DUP4 PUSH2 0x1CC4 JUMP JUMPDEST SWAP2 POP PUSH2 0x2042 DUP3 PUSH2 0x2003 JUMP JUMPDEST PUSH1 0x20 DUP3 ADD SWAP1 POP SWAP2 SWAP1 POP JUMP JUMPDEST PUSH0 PUSH1 0x20 DUP3 ADD SWAP1 POP DUP2 DUP2 SUB PUSH0 DUP4 ADD MSTORE PUSH2 0x2064 DUP2 PUSH2 0x202B JUMP JUMPDEST SWAP1 POP SWAP2 SWAP1 POP JUMP JUMPDEST PUSH2 0x2074 DUP2 PUSH2 0x15CF JUMP JUMPDEST DUP3 MSTORE POP POP JUMP JUMPDEST PUSH2 0x2083 DUP2 PUSH2 0x15EF JUMP JUMPDEST DUP3 MSTORE POP POP JUMP JUMPDEST PUSH2 0x2092 DUP2 PUSH2 0x170A JUMP JUMPDEST DUP3 MSTORE POP POP JUMP JUMPDEST PUSH0 PUSH1 0xC0 DUP3 ADD SWAP1 POP PUSH2 0x20AB PUSH0 DUP4 ADD DUP10 PUSH2 0x206B JUMP JUMPDEST PUSH2 0x20B8 PUSH1 0x20 DUP4 ADD DUP9 PUSH2 0x207A JUMP JUMPDEST PUSH2 0x20C5 PUSH1 0x40 DUP4 ADD DUP8 PUSH2 0x207A JUMP JUMPDEST PUSH2 0x20D2 PUSH1 0x60 DUP4 ADD DUP7 PUSH2 0x207A JUMP JUMPDEST PUSH2 0x20DF PUSH1 0x80 DUP4 ADD DUP6 PUSH2 0x2089 JUMP JUMPDEST PUSH2 0x20EC PUSH1 0xA0 DUP4 ADD DUP5 PUSH2 0x2089 JUMP JUMPDEST SWAP8 SWAP7 POP POP POP POP POP POP POP JUMP JUMPDEST PUSH0 DUP1 REVERT JUMPDEST PUSH0 DUP2 MLOAD SWAP1 POP PUSH2 0x2109 DUP2 PUSH2 0x163F JUMP JUMPDEST SWAP3 SWAP2 POP POP JUMP JUMPDEST PUSH0 DUP2 MLOAD SWAP1 POP PUSH2 0x211D DUP2 PUSH2 0x1669 JUMP JUMPDEST SWAP3 SWAP2 POP POP JUMP JUMPDEST PUSH0 PUSH1 0xC0 DUP3 DUP5 SUB SLT ISZERO PUSH2 0x2138 JUMPI PUSH2 0x2137 PUSH2 0x20F7 JUMP JUMPDEST JUMPDEST PUSH2 0x2142 PUSH1 0xC0 PUSH2 0x189D JUMP JUMPDEST SWAP1 POP PUSH0 PUSH2 0x2151 DUP5 DUP3 DUP6 ADD PUSH2 0x20FB JUMP JUMPDEST PUSH0 DUP4 ADD MSTORE POP PUSH1 0x20 PUSH2 0x2164 DUP5 DUP3 DUP6 ADD PUSH2 0x210F JUMP JUMPDEST PUSH1 0x20 DUP4 ADD MSTORE POP PUSH1 0x40 PUSH2 0x2178 DUP5 DUP3 DUP6 ADD PUSH2 0x210F JUMP JUMPDEST PUSH1 0x40 DUP4 ADD MSTORE POP PUSH1 0x60 PUSH2 0x218C DUP5 DUP3 DUP6 ADD PUSH2 0x210F JUMP JUMPDEST PUSH1 0x60 DUP4 ADD MSTORE POP PUSH1 0x80 PUSH2 0x21A0 DUP5 DUP3 DUP6 ADD PUSH2 0x1F87 JUMP JUMPDEST PUSH1 0x80 DUP4 ADD MSTORE POP PUSH1 0xA0 PUSH2 0x21B4 DUP5 DUP3 DUP6 ADD PUSH2 0x1F87 JUMP JUMPDEST PUSH1 0xA0 DUP4 ADD MSTORE POP SWAP3 SWAP2 POP POP JUMP JUMPDEST PUSH0 PUSH1 0xC0 DUP3 DUP5 SUB SLT ISZERO PUSH2 0x21D5 JUMPI PUSH2 0x21D4 PUSH2 0x1637 JUMP JUMPDEST JUMPDEST PUSH0 PUSH2 0x21E2 DUP5 DUP3 DUP6 ADD PUSH2 0x2123 JUMP JUMPDEST SWAP2 POP POP SWAP3 SWAP2 POP POP JUMP JUMPDEST PUSH32 0x54616B696E67207069656365206F6620646562742066756E6420697320616C72 PUSH0 DUP3 ADD MSTORE PUSH32 0x6561647920696E2070726F676573732E2054727920616761696E206C61746572 PUSH1 0x20 DUP3 ADD MSTORE PUSH32 0x2E00000000000000000000000000000000000000000000000000000000000000 PUSH1 0x40 DUP3 ADD MSTORE POP JUMP JUMPDEST PUSH0 PUSH2 0x226B PUSH1 0x41 DUP4 PUSH2 0x1CC4 JUMP JUMPDEST SWAP2 POP PUSH2 0x2276 DUP3 PUSH2 0x21EB JUMP JUMPDEST PUSH1 0x60 DUP3 ADD SWAP1 POP SWAP2 SWAP1 POP JUMP JUMPDEST PUSH0 PUSH1 0x20 DUP3 ADD SWAP1 POP DUP2 DUP2 SUB PUSH0 DUP4 ADD MSTORE PUSH2 0x2298 DUP2 PUSH2 0x225F JUMP JUMPDEST SWAP1 POP SWAP2 SWAP1 POP JUMP JUMPDEST PUSH0 DUP2 SWAP1 POP SWAP2 SWAP1 POP JUMP JUMPDEST PUSH0 PUSH1 0xFF DUP3 AND SWAP1 POP SWAP2 SWAP1 POP JUMP JUMPDEST PUSH0 PUSH2 0x22CE PUSH2 0x22C9 PUSH2 0x22C4 DUP5 PUSH2 0x229F JUMP JUMPDEST PUSH2 0x1A79 JUMP JUMPDEST PUSH2 0x22A8 JUMP JUMPDEST SWAP1 POP SWAP2 SWAP1 POP JUMP JUMPDEST PUSH2 0x22DE DUP2 PUSH2 0x22B4 JUMP JUMPDEST DUP3 MSTORE POP POP JUMP JUMPDEST PUSH0 PUSH1 0xA0 DUP3 ADD SWAP1 POP PUSH2 0x22F7 PUSH0 DUP4 ADD DUP9 PUSH2 0x22D5 JUMP JUMPDEST PUSH2 0x2304 PUSH1 0x20 DUP4 ADD DUP8 PUSH2 0x15F8 JUMP JUMPDEST DUP2 DUP2 SUB PUSH1 0x40 DUP4 ADD MSTORE PUSH2 0x2316 DUP2 DUP7 PUSH2 0x1F0B JUMP JUMPDEST SWAP1 POP DUP2 DUP2 SUB PUSH1 0x60 DUP4 ADD MSTORE PUSH2 0x232A DUP2 DUP6 PUSH2 0x1F0B JUMP JUMPDEST SWAP1 POP PUSH2 0x2339 PUSH1 0x80 DUP4 ADD DUP5 PUSH2 0x15F8 JUMP JUMPDEST SWAP7 SWAP6 POP POP POP POP POP POP JUMP JUMPDEST PUSH32 0x446562746F722D4372656469742D5061697220697320756E7661696C61626C65 PUSH0 DUP3 ADD MSTORE PUSH32 0x2E00000000000000000000000000000000000000000000000000000000000000 PUSH1 0x20 DUP3 ADD MSTORE POP JUMP JUMPDEST PUSH0 PUSH2 0x239D PUSH1 0x21 DUP4 PUSH2 0x1CC4 JUMP JUMPDEST SWAP2 POP PUSH2 0x23A8 DUP3 PUSH2 0x2343 JUMP JUMPDEST PUSH1 0x40 DUP3 ADD SWAP1 POP SWAP2 SWAP1 POP JUMP JUMPDEST PUSH0 PUSH1 0x20 DUP3 ADD SWAP1 POP DUP2 DUP2 SUB PUSH0 DUP4 ADD MSTORE PUSH2 0x23CA DUP2 PUSH2 0x2391 JUMP JUMPDEST SWAP1 POP SWAP2 SWAP1 POP JUMP JUMPDEST PUSH32 0x456E642063757272656E74206465627420616D6F756E742073686F756C642062 PUSH0 DUP3 ADD MSTORE PUSH32 0x652067726561746572207468616E20302E000000000000000000000000000000 PUSH1 0x20 DUP3 ADD MSTORE POP JUMP JUMPDEST PUSH0 PUSH2 0x242B PUSH1 0x31 DUP4 PUSH2 0x1CC4 JUMP JUMPDEST SWAP2 POP PUSH2 0x2436 DUP3 PUSH2 0x23D1 JUMP JUMPDEST PUSH1 0x40 DUP3 ADD SWAP1 POP SWAP2 SWAP1 POP JUMP JUMPDEST PUSH0 PUSH1 0x20 DUP3 ADD SWAP1 POP DUP2 DUP2 SUB PUSH0 DUP4 ADD MSTORE PUSH2 0x2458 DUP2 PUSH2 0x241F JUMP JUMPDEST SWAP1 POP SWAP2 SWAP1 POP JUMP JUMPDEST PUSH32 0x4E487B7100000000000000000000000000000000000000000000000000000000 PUSH0 MSTORE PUSH1 0x12 PUSH1 0x4 MSTORE PUSH1 0x24 PUSH0 REVERT JUMPDEST PUSH0 PUSH2 0x2496 DUP3 PUSH2 0x15EF JUMP JUMPDEST SWAP2 POP PUSH2 0x24A1 DUP4 PUSH2 0x15EF JUMP JUMPDEST SWAP3 POP DUP3 PUSH2 0x24B1 JUMPI PUSH2 0x24B0 PUSH2 0x245F JUMP JUMPDEST JUMPDEST DUP3 DUP3 DIV SWAP1 POP SWAP3 SWAP2 POP POP JUMP JUMPDEST PUSH0 PUSH2 0x24C6 DUP3 PUSH2 0x15EF JUMP JUMPDEST SWAP2 POP PUSH2 0x24D1 DUP4 PUSH2 0x15EF JUMP JUMPDEST SWAP3 POP DUP3 DUP3 MUL PUSH2 0x24DF DUP2 PUSH2 0x15EF JUMP JUMPDEST SWAP2 POP DUP3 DUP3 DIV DUP5 EQ DUP4 ISZERO OR PUSH2 0x24F6 JUMPI PUSH2 0x24F5 PUSH2 0x1C64 JUMP JUMPDEST JUMPDEST POP SWAP3 SWAP2 POP POP JUMP JUMPDEST PUSH32 0x537461727420616E6420656E642074696D657374616D707320646F6E2774206D PUSH0 DUP3 ADD MSTORE PUSH32 0x6174636800000000000000000000000000000000000000000000000000000000 PUSH1 0x20 DUP3 ADD MSTORE POP JUMP JUMPDEST PUSH0 PUSH2 0x2557 PUSH1 0x24 DUP4 PUSH2 0x1CC4 JUMP JUMPDEST SWAP2 POP PUSH2 0x2562 DUP3 PUSH2 0x24FD JUMP JUMPDEST PUSH1 0x40 DUP3 ADD SWAP1 POP SWAP2 SWAP1 POP JUMP JUMPDEST PUSH0 PUSH1 0x20 DUP3 ADD SWAP1 POP DUP2 DUP2 SUB PUSH0 DUP4 ADD MSTORE PUSH2 0x2584 DUP2 PUSH2 0x254B JUMP JUMPDEST SWAP1 POP SWAP2 SWAP1 POP JUMP INVALID PUSH1 0x80 PUSH1 0x40 MSTORE PUSH1 0x1 PUSH1 0x7 PUSH0 PUSH2 0x100 EXP DUP2 SLOAD DUP2 PUSH1 0xFF MUL NOT AND SWAP1 DUP4 PUSH1 0xFF AND MUL OR SWAP1 SSTORE POP PUSH0 PUSH1 0xA PUSH0 PUSH2 0x100 EXP DUP2 SLOAD DUP2 PUSH1 0xFF MUL NOT AND SWAP1 DUP4 PUSH1 0xFF AND MUL OR SWAP1 SSTORE POP PUSH1 0x90 PUSH1 0xF8 SHL PUSH1 0xA PUSH1 0x1 PUSH2 0x100 EXP DUP2 SLOAD DUP2 PUSH1 0xFF MUL NOT AND SWAP1 DUP4 PUSH1 0xF8 SHR MUL OR SWAP1 SSTORE POP CALLVALUE DUP1 ISZERO PUSH2 0x63 JUMPI PUSH0 DUP1 REVERT JUMPDEST POP PUSH1 0x40 MLOAD PUSH2 0x18B9 CODESIZE SUB DUP1 PUSH2 0x18B9 DUP4 CODECOPY DUP2 DUP2 ADD PUSH1 0x40 MSTORE DUP2 ADD SWAP1 PUSH2 0x85 SWAP2 SWAP1 PUSH2 0x725 JUMP JUMPDEST NUMBER PUSH1 0x5 DUP2 SWAP1 SSTORE POP PUSH1 0x5 SLOAD BLOCKHASH PUSH1 0x6 DUP2 SWAP1 SSTORE POP DUP5 PUSH1 0x4 PUSH0 PUSH2 0x100 EXP DUP2 SLOAD DUP2 PUSH1 0xFF MUL NOT AND SWAP1 DUP4 PUSH1 0xFF AND MUL OR SWAP1 SSTORE POP DUP4 PUSH0 DUP2 SWAP1 SSTORE POP DUP3 PUSH1 0x2 SWAP1 DUP2 PUSH2 0xC5 SWAP2 SWAP1 PUSH2 0x9D8 JUMP JUMPDEST POP DUP2 PUSH1 0x3 SWAP1 DUP2 PUSH2 0xD5 SWAP2 SWAP1 PUSH2 0x9D8 JUMP JUMPDEST POP DUP1 PUSH1 0x1 DUP2 SWAP1 SSTORE POP PUSH2 0xEB PUSH2 0x164 PUSH1 0x20 SHL PUSH1 0x20 SHR JUMP JUMPDEST PUSH1 0x8 SWAP1 DUP2 PUSH2 0xF9 SWAP2 SWAP1 PUSH2 0x9D8 JUMP JUMPDEST POP PUSH2 0x10B PUSH1 0x1 SLOAD PUSH2 0x2CA PUSH1 0x20 SHL PUSH1 0x20 SHR JUMP JUMPDEST PUSH1 0x9 DUP2 SWAP1 SSTORE POP PUSH1 0x8 PUSH1 0x40 MLOAD PUSH2 0x120 SWAP2 SWAP1 PUSH2 0xB31 JUMP JUMPDEST PUSH1 0x40 MLOAD DUP1 SWAP2 SUB SWAP1 KECCAK256 PUSH1 0x6 SLOAD PUSH1 0x5 SLOAD PUSH32 0x9F4DA1EB02E98B4AB1D9B713F225D0F993B2222A21852024E9D90204BE64706A PUSH1 0x40 MLOAD PUSH1 0x40 MLOAD DUP1 SWAP2 SUB SWAP1 LOG4 POP POP POP POP POP PUSH2 0xD5F JUMP JUMPDEST PUSH1 0x60 PUSH0 PUSH1 0x9 SLOAD PUSH1 0x1 SLOAD PUSH2 0x177 SWAP2 SWAP1 PUSH2 0xB74 JUMP JUMPDEST SWAP1 POP DUP1 PUSH0 SLOAD LT ISZERO PUSH2 0x1BD JUMPI PUSH1 0x40 MLOAD PUSH32 0x8C379A000000000000000000000000000000000000000000000000000000000 DUP2 MSTORE PUSH1 0x4 ADD PUSH2 0x1B4 SWAP1 PUSH2 0xC01 JUMP JUMPDEST PUSH1 0x40 MLOAD DUP1 SWAP2 SUB SWAP1 REVERT JUMPDEST PUSH0 PUSH2 0x1CE PUSH0 SLOAD PUSH2 0x2F8 PUSH1 0x20 SHL PUSH1 0x20 SHR JUMP JUMPDEST SWAP1 POP PUSH0 PUSH2 0x1E2 PUSH1 0x1 SLOAD PUSH2 0x2F8 PUSH1 0x20 SHL PUSH1 0x20 SHR JUMP JUMPDEST SWAP1 POP PUSH0 PUSH1 0x3 DUP1 SLOAD PUSH2 0x1F2 SWAP1 PUSH2 0x80B JUMP JUMPDEST DUP1 PUSH1 0x1F ADD PUSH1 0x20 DUP1 SWAP2 DIV MUL PUSH1 0x20 ADD PUSH1 0x40 MLOAD SWAP1 DUP2 ADD PUSH1 0x40 MSTORE DUP1 SWAP3 SWAP2 SWAP1 DUP2 DUP2 MSTORE PUSH1 0x20 ADD DUP3 DUP1 SLOAD PUSH2 0x21E SWAP1 PUSH2 0x80B JUMP JUMPDEST DUP1 ISZERO PUSH2 0x269 JUMPI DUP1 PUSH1 0x1F LT PUSH2 0x240 JUMPI PUSH2 0x100 DUP1 DUP4 SLOAD DIV MUL DUP4 MSTORE SWAP2 PUSH1 0x20 ADD SWAP2 PUSH2 0x269 JUMP JUMPDEST DUP3 ADD SWAP2 SWAP1 PUSH0 MSTORE PUSH1 0x20 PUSH0 KECCAK256 SWAP1 JUMPDEST DUP2 SLOAD DUP2 MSTORE SWAP1 PUSH1 0x1 ADD SWAP1 PUSH1 0x20 ADD DUP1 DUP4 GT PUSH2 0x24C JUMPI DUP3 SWAP1 SUB PUSH1 0x1F AND DUP3 ADD SWAP2 JUMPDEST POP POP POP POP POP SWAP1 POP PUSH0 PUSH1 0x6 SLOAD PUSH1 0x40 MLOAD PUSH1 0x20 ADD PUSH2 0x284 SWAP2 SWAP1 PUSH2 0xC48 JUMP JUMPDEST PUSH1 0x40 MLOAD PUSH1 0x20 DUP2 DUP4 SUB SUB DUP2 MSTORE SWAP1 PUSH1 0x40 MSTORE SWAP1 POP PUSH0 DUP3 DUP6 DUP6 DUP5 PUSH1 0x40 MLOAD PUSH1 0x20 ADD PUSH2 0x2AD SWAP5 SWAP4 SWAP3 SWAP2 SWAP1 PUSH2 0xC92 JUMP JUMPDEST PUSH1 0x40 MLOAD PUSH1 0x20 DUP2 DUP4 SUB SUB DUP2 MSTORE SWAP1 PUSH1 0x40 MSTORE SWAP1 POP DUP1 SWAP7 POP POP POP POP POP POP POP SWAP1 JUMP JUMPDEST PUSH0 DUP1 PUSH2 0x2ED DUP4 PUSH1 0x4 PUSH0 SWAP1 SLOAD SWAP1 PUSH2 0x100 EXP SWAP1 DIV PUSH1 0xFF AND PUSH1 0xFF AND PUSH2 0x3C8 PUSH1 0x20 SHL PUSH1 0x20 SHR JUMP JUMPDEST SWAP1 POP DUP1 SWAP2 POP POP SWAP2 SWAP1 POP JUMP JUMPDEST PUSH1 0x60 PUSH0 PUSH1 0x1 PUSH2 0x30C DUP5 PUSH2 0x41E PUSH1 0x20 SHL PUSH1 0x20 SHR JUMP JUMPDEST ADD SWAP1 POP PUSH0 DUP2 PUSH8 0xFFFFFFFFFFFFFFFF DUP2 GT ISZERO PUSH2 0x32A JUMPI PUSH2 0x329 PUSH2 0x601 JUMP JUMPDEST JUMPDEST PUSH1 0x40 MLOAD SWAP1 DUP1 DUP3 MSTORE DUP1 PUSH1 0x1F ADD PUSH1 0x1F NOT AND PUSH1 0x20 ADD DUP3 ADD PUSH1 0x40 MSTORE DUP1 ISZERO PUSH2 0x35C JUMPI DUP2 PUSH1 0x20 ADD PUSH1 0x1 DUP3 MUL DUP1 CALLDATASIZE DUP4 CALLDATACOPY DUP1 DUP3 ADD SWAP2 POP POP SWAP1 POP JUMPDEST POP SWAP1 POP PUSH0 DUP3 PUSH1 0x20 ADD DUP3 ADD SWAP1 POP JUMPDEST PUSH1 0x1 ISZERO PUSH2 0x3BD JUMPI DUP1 DUP1 PUSH1 0x1 SWAP1 SUB SWAP2 POP POP PUSH32 0x3031323334353637383961626364656600000000000000000000000000000000 PUSH1 0xA DUP7 MOD BYTE DUP2 MSTORE8 PUSH1 0xA DUP6 DUP2 PUSH2 0x3B2 JUMPI PUSH2 0x3B1 PUSH2 0xCCF JUMP JUMPDEST JUMPDEST DIV SWAP5 POP PUSH0 DUP6 SUB PUSH2 0x369 JUMPI JUMPDEST DUP2 SWAP4 POP POP POP POP SWAP2 SWAP1 POP JUMP JUMPDEST PUSH0 DUP1 DUP3 SUB PUSH2 0x3E3 JUMPI DUP2 DUP4 PUSH2 0x3DC SWAP2 SWAP1 PUSH2 0xCFC JUMP JUMPDEST SWAP1 POP PUSH2 0x418 JUMP JUMPDEST PUSH0 DUP4 EQ PUSH2 0x413 JUMPI PUSH1 0x1 DUP3 PUSH1 0x1 DUP6 PUSH2 0x3FA SWAP2 SWAP1 PUSH2 0xD2C JUMP JUMPDEST PUSH2 0x404 SWAP2 SWAP1 PUSH2 0xCFC JUMP JUMPDEST PUSH2 0x40E SWAP2 SWAP1 PUSH2 0xB74 JUMP JUMPDEST PUSH2 0x415 JUMP JUMPDEST PUSH0 JUMPDEST SWAP1 POP JUMPDEST SWAP3 SWAP2 POP POP JUMP JUMPDEST PUSH0 DUP1 PUSH0 SWAP1 POP PUSH27 0x184F03E93FF9F4DAA797ED6E38ED64BF6A1F010000000000000000 DUP4 LT PUSH2 0x47A JUMPI PUSH27 0x184F03E93FF9F4DAA797ED6E38ED64BF6A1F010000000000000000 DUP4 DUP2 PUSH2 0x470 JUMPI PUSH2 0x46F PUSH2 0xCCF JUMP JUMPDEST JUMPDEST DIV SWAP3 POP PUSH1 0x40 DUP2 ADD SWAP1 POP JUMPDEST PUSH14 0x4EE2D6D415B85ACEF8100000000 DUP4 LT PUSH2 0x4B7 JUMPI PUSH14 0x4EE2D6D415B85ACEF8100000000 DUP4 DUP2 PUSH2 0x4AD JUMPI PUSH2 0x4AC PUSH2 0xCCF JUMP JUMPDEST JUMPDEST DIV SWAP3 POP PUSH1 0x20 DUP2 ADD SWAP1 POP JUMPDEST PUSH7 0x2386F26FC10000 DUP4 LT PUSH2 0x4E6 JUMPI PUSH7 0x2386F26FC10000 DUP4 DUP2 PUSH2 0x4DC JUMPI PUSH2 0x4DB PUSH2 0xCCF JUMP JUMPDEST JUMPDEST DIV SWAP3 POP PUSH1 0x10 DUP2 ADD SWAP1 POP JUMPDEST PUSH4 0x5F5E100 DUP4 LT PUSH2 0x50F JUMPI PUSH4 0x5F5E100 DUP4 DUP2 PUSH2 0x505 JUMPI PUSH2 0x504 PUSH2 0xCCF JUMP JUMPDEST JUMPDEST DIV SWAP3 POP PUSH1 0x8 DUP2 ADD SWAP1 POP JUMPDEST PUSH2 0x2710 DUP4 LT PUSH2 0x534 JUMPI PUSH2 0x2710 DUP4 DUP2 PUSH2 0x52A JUMPI PUSH2 0x529 PUSH2 0xCCF JUMP JUMPDEST JUMPDEST DIV SWAP3 POP PUSH1 0x4 DUP2 ADD SWAP1 POP JUMPDEST PUSH1 0x64 DUP4 LT PUSH2 0x557 JUMPI PUSH1 0x64 DUP4 DUP2 PUSH2 0x54D JUMPI PUSH2 0x54C PUSH2 0xCCF JUMP JUMPDEST JUMPDEST DIV SWAP3 POP PUSH1 0x2 DUP2 ADD SWAP1 POP JUMPDEST PUSH1 0xA DUP4 LT PUSH2 0x566 JUMPI PUSH1 0x1 DUP2 ADD SWAP1 POP JUMPDEST DUP1 SWAP2 POP POP SWAP2 SWAP1 POP JUMP JUMPDEST PUSH0 PUSH1 0x40 MLOAD SWAP1 POP SWAP1 JUMP JUMPDEST PUSH0 DUP1 REVERT JUMPDEST PUSH0 DUP1 REVERT JUMPDEST PUSH0 PUSH1 0xFF DUP3 AND SWAP1 POP SWAP2 SWAP1 POP JUMP JUMPDEST PUSH2 0x595 DUP2 PUSH2 0x580 JUMP JUMPDEST DUP2 EQ PUSH2 0x59F JUMPI PUSH0 DUP1 REVERT JUMPDEST POP JUMP JUMPDEST PUSH0 DUP2 MLOAD SWAP1 POP PUSH2 0x5B0 DUP2 PUSH2 0x58C JUMP JUMPDEST SWAP3 SWAP2 POP POP JUMP JUMPDEST PUSH0 DUP2 SWAP1 POP SWAP2 SWAP1 POP JUMP JUMPDEST PUSH2 0x5C8 DUP2 PUSH2 0x5B6 JUMP JUMPDEST DUP2 EQ PUSH2 0x5D2 JUMPI PUSH0 DUP1 REVERT JUMPDEST POP JUMP JUMPDEST PUSH0 DUP2 MLOAD SWAP1 POP PUSH2 0x5E3 DUP2 PUSH2 0x5BF JUMP JUMPDEST SWAP3 SWAP2 POP POP JUMP JUMPDEST PUSH0 DUP1 REVERT JUMPDEST PUSH0 DUP1 REVERT JUMPDEST PUSH0 PUSH1 0x1F NOT PUSH1 0x1F DUP4 ADD AND SWAP1 POP SWAP2 SWAP1 POP JUMP JUMPDEST PUSH32 0x4E487B7100000000000000000000000000000000000000000000000000000000 PUSH0 MSTORE PUSH1 0x41 PUSH1 0x4 MSTORE PUSH1 0x24 PUSH0 REVERT JUMPDEST PUSH2 0x637 DUP3 PUSH2 0x5F1 JUMP JUMPDEST DUP2 ADD DUP2 DUP2 LT PUSH8 0xFFFFFFFFFFFFFFFF DUP3 GT OR ISZERO PUSH2 0x656 JUMPI PUSH2 0x655 PUSH2 0x601 JUMP JUMPDEST JUMPDEST DUP1 PUSH1 0x40 MSTORE POP POP POP JUMP JUMPDEST PUSH0 PUSH2 0x668 PUSH2 0x56F JUMP JUMPDEST SWAP1 POP PUSH2 0x674 DUP3 DUP3 PUSH2 0x62E JUMP JUMPDEST SWAP2 SWAP1 POP JUMP JUMPDEST PUSH0 PUSH8 0xFFFFFFFFFFFFFFFF DUP3 GT ISZERO PUSH2 0x693 JUMPI PUSH2 0x692 PUSH2 0x601 JUMP JUMPDEST JUMPDEST PUSH2 0x69C DUP3 PUSH2 0x5F1 JUMP JUMPDEST SWAP1 POP PUSH1 0x20 DUP2 ADD SWAP1 POP SWAP2 SWAP1 POP JUMP JUMPDEST DUP3 DUP2 DUP4 MCOPY PUSH0 DUP4 DUP4 ADD MSTORE POP POP POP JUMP JUMPDEST PUSH0 PUSH2 0x6C9 PUSH2 0x6C4 DUP5 PUSH2 0x679 JUMP JUMPDEST PUSH2 0x65F JUMP JUMPDEST SWAP1 POP DUP3 DUP2 MSTORE PUSH1 0x20 DUP2 ADD DUP5 DUP5 DUP5 ADD GT ISZERO PUSH2 0x6E5 JUMPI PUSH2 0x6E4 PUSH2 0x5ED JUMP JUMPDEST JUMPDEST PUSH2 0x6F0 DUP5 DUP3 DUP6 PUSH2 0x6A9 JUMP JUMPDEST POP SWAP4 SWAP3 POP POP POP JUMP JUMPDEST PUSH0 DUP3 PUSH1 0x1F DUP4 ADD SLT PUSH2 0x70C JUMPI PUSH2 0x70B PUSH2 0x5E9 JUMP JUMPDEST JUMPDEST DUP2 MLOAD PUSH2 0x71C DUP5 DUP3 PUSH1 0x20 DUP7 ADD PUSH2 0x6B7 JUMP JUMPDEST SWAP2 POP POP SWAP3 SWAP2 POP POP JUMP JUMPDEST PUSH0 DUP1 PUSH0 DUP1 PUSH0 PUSH1 0xA0 DUP7 DUP9 SUB SLT ISZERO PUSH2 0x73E JUMPI PUSH2 0x73D PUSH2 0x578 JUMP JUMPDEST JUMPDEST PUSH0 PUSH2 0x74B DUP9 DUP3 DUP10 ADD PUSH2 0x5A2 JUMP JUMPDEST SWAP6 POP POP PUSH1 0x20 PUSH2 0x75C DUP9 DUP3 DUP10 ADD PUSH2 0x5D5 JUMP JUMPDEST SWAP5 POP POP PUSH1 0x40 DUP7 ADD MLOAD PUSH8 0xFFFFFFFFFFFFFFFF DUP2 GT ISZERO PUSH2 0x77D JUMPI PUSH2 0x77C PUSH2 0x57C JUMP JUMPDEST JUMPDEST PUSH2 0x789 DUP9 DUP3 DUP10 ADD PUSH2 0x6F8 JUMP JUMPDEST SWAP4 POP POP PUSH1 0x60 DUP7 ADD MLOAD PUSH8 0xFFFFFFFFFFFFFFFF DUP2 GT ISZERO PUSH2 0x7AA JUMPI PUSH2 0x7A9 PUSH2 0x57C JUMP JUMPDEST JUMPDEST PUSH2 0x7B6 DUP9 DUP3 DUP10 ADD PUSH2 0x6F8 JUMP JUMPDEST SWAP3 POP POP PUSH1 0x80 PUSH2 0x7C7 DUP9 DUP3 DUP10 ADD PUSH2 0x5D5 JUMP JUMPDEST SWAP2 POP POP SWAP3 SWAP6 POP SWAP3 SWAP6 SWAP1 SWAP4 POP JUMP JUMPDEST PUSH0 DUP2 MLOAD SWAP1 POP SWAP2 SWAP1 POP JUMP JUMPDEST PUSH32 0x4E487B7100000000000000000000000000000000000000000000000000000000 PUSH0 MSTORE PUSH1 0x22 PUSH1 0x4 MSTORE PUSH1 0x24 PUSH0 REVERT JUMPDEST PUSH0 PUSH1 0x2 DUP3 DIV SWAP1 POP PUSH1 0x1 DUP3 AND DUP1 PUSH2 0x822 JUMPI PUSH1 0x7F DUP3 AND SWAP2 POP JUMPDEST PUSH1 0x20 DUP3 LT DUP2 SUB PUSH2 0x835 JUMPI PUSH2 0x834 PUSH2 0x7DE JUMP JUMPDEST JUMPDEST POP SWAP2 SWAP1 POP JUMP JUMPDEST PUSH0 DUP2 SWAP1 POP DUP2 PUSH0 MSTORE PUSH1 0x20 PUSH0 KECCAK256 SWAP1 POP SWAP2 SWAP1 POP JUMP JUMPDEST PUSH0 PUSH1 0x20 PUSH1 0x1F DUP4 ADD DIV SWAP1 POP SWAP2 SWAP1 POP JUMP JUMPDEST PUSH0 DUP3 DUP3 SHL SWAP1 POP SWAP3 SWAP2 POP POP JUMP JUMPDEST PUSH0 PUSH1 0x8 DUP4 MUL PUSH2 0x897 PUSH32 0xFFFFFFFFFFFFFFFFFFFFFFFFFFFFFFFFFFFFFFFFFFFFFFFFFFFFFFFFFFFFFFFF DUP3 PUSH2 0x85C JUMP JUMPDEST PUSH2 0x8A1 DUP7 DUP4 PUSH2 0x85C JUMP JUMPDEST SWAP6 POP DUP1 NOT DUP5 AND SWAP4 POP DUP1 DUP7 AND DUP5 OR SWAP3 POP POP POP SWAP4 SWAP3 POP POP POP JUMP JUMPDEST PUSH0 DUP2 SWAP1 POP SWAP2 SWAP1 POP JUMP JUMPDEST PUSH0 PUSH2 0x8DC PUSH2 0x8D7 PUSH2 0x8D2 DUP5 PUSH2 0x5B6 JUMP JUMPDEST PUSH2 0x8B9 JUMP JUMPDEST PUSH2 0x5B6 JUMP JUMPDEST SWAP1 POP SWAP2 SWAP1 POP JUMP JUMPDEST PUSH0 DUP2 SWAP1 POP SWAP2 SWAP1 POP JUMP JUMPDEST PUSH2 0x8F5 DUP4 PUSH2 0x8C2 JUMP JUMPDEST PUSH2 0x909 PUSH2 0x901 DUP3 PUSH2 0x8E3 JUMP JUMPDEST DUP5 DUP5 SLOAD PUSH2 0x868 JUMP JUMPDEST DUP3 SSTORE POP POP POP POP JUMP JUMPDEST PUSH0 SWAP1 JUMP JUMPDEST PUSH2 0x91D PUSH2 0x911 JUMP JUMPDEST PUSH2 0x928 DUP2 DUP5 DUP5 PUSH2 0x8EC JUMP JUMPDEST POP POP POP JUMP JUMPDEST JUMPDEST DUP2 DUP2 LT ISZERO PUSH2 0x94B JUMPI PUSH2 0x940 PUSH0 DUP3 PUSH2 0x915 JUMP JUMPDEST PUSH1 0x1 DUP2 ADD SWAP1 POP PUSH2 0x92E JUMP JUMPDEST POP POP JUMP JUMPDEST PUSH1 0x1F DUP3 GT ISZERO PUSH2 0x990 JUMPI PUSH2 0x961 DUP2 PUSH2 0x83B JUMP JUMPDEST PUSH2 0x96A DUP5 PUSH2 0x84D JUMP JUMPDEST DUP2 ADD PUSH1 0x20 DUP6 LT ISZERO PUSH2 0x979 JUMPI DUP2 SWAP1 POP JUMPDEST PUSH2 0x98D PUSH2 0x985 DUP6 PUSH2 0x84D JUMP JUMPDEST DUP4 ADD DUP3 PUSH2 0x92D JUMP JUMPDEST POP POP JUMPDEST POP POP POP JUMP JUMPDEST PUSH0 DUP3 DUP3 SHR SWAP1 POP SWAP3 SWAP2 POP POP JUMP JUMPDEST PUSH0 PUSH2 0x9B0 PUSH0 NOT DUP5 PUSH1 0x8 MUL PUSH2 0x995 JUMP JUMPDEST NOT DUP1 DUP4 AND SWAP2 POP POP SWAP3 SWAP2 POP POP JUMP JUMPDEST PUSH0 PUSH2 0x9C8 DUP4 DUP4 PUSH2 0x9A1 JUMP JUMPDEST SWAP2 POP DUP3 PUSH1 0x2 MUL DUP3 OR SWAP1 POP SWAP3 SWAP2 POP POP JUMP JUMPDEST PUSH2 0x9E1 DUP3 PUSH2 0x7D4 JUMP JUMPDEST PUSH8 0xFFFFFFFFFFFFFFFF DUP2 GT ISZERO PUSH2 0x9FA JUMPI PUSH2 0x9F9 PUSH2 0x601 JUMP JUMPDEST JUMPDEST PUSH2 0xA04 DUP3 SLOAD PUSH2 0x80B JUMP JUMPDEST PUSH2 0xA0F DUP3 DUP3 DUP6 PUSH2 0x94F JUMP JUMPDEST PUSH0 PUSH1 0x20 SWAP1 POP PUSH1 0x1F DUP4 GT PUSH1 0x1 DUP2 EQ PUSH2 0xA40 JUMPI PUSH0 DUP5 ISZERO PUSH2 0xA2E JUMPI DUP3 DUP8 ADD MLOAD SWAP1 POP JUMPDEST PUSH2 0xA38 DUP6 DUP3 PUSH2 0x9BD JUMP JUMPDEST DUP7 SSTORE POP PUSH2 0xA9F JUMP JUMPDEST PUSH1 0x1F NOT DUP5 AND PUSH2 0xA4E DUP7 PUSH2 0x83B JUMP JUMPDEST PUSH0 JUMPDEST DUP3 DUP2 LT ISZERO PUSH2 0xA75 JUMPI DUP5 DUP10 ADD MLOAD DUP3 SSTORE PUSH1 0x1 DUP3 ADD SWAP2 POP PUSH1 0x20 DUP6 ADD SWAP5 POP PUSH1 0x20 DUP2 ADD SWAP1 POP PUSH2 0xA50 JUMP JUMPDEST DUP7 DUP4 LT ISZERO PUSH2 0xA92 JUMPI DUP5 DUP10 ADD MLOAD PUSH2 0xA8E PUSH1 0x1F DUP10 AND DUP3 PUSH2 0x9A1 JUMP JUMPDEST DUP4 SSTORE POP JUMPDEST PUSH1 0x1 PUSH1 0x2 DUP9 MUL ADD DUP9 SSTORE POP POP POP JUMPDEST POP POP POP POP POP POP JUMP JUMPDEST PUSH0 DUP2 SWAP1 POP SWAP3 SWAP2 POP POP JUMP JUMPDEST PUSH0 DUP2 SLOAD PUSH2 0xABD DUP2 PUSH2 0x80B JUMP JUMPDEST PUSH2 0xAC7 DUP2 DUP7 PUSH2 0xAA7 JUMP JUMPDEST SWAP5 POP PUSH1 0x1 DUP3 AND PUSH0 DUP2 EQ PUSH2 0xAE1 JUMPI PUSH1 0x1 DUP2 EQ PUSH2 0xAF6 JUMPI PUSH2 0xB28 JUMP JUMPDEST PUSH1 0xFF NOT DUP4 AND DUP7 MSTORE DUP2 ISZERO ISZERO DUP3 MUL DUP7 ADD SWAP4 POP PUSH2 0xB28 JUMP JUMPDEST PUSH2 0xAFF DUP6 PUSH2 0x83B JUMP JUMPDEST PUSH0 JUMPDEST DUP4 DUP2 LT ISZERO PUSH2 0xB20 JUMPI DUP2 SLOAD DUP2 DUP10 ADD MSTORE PUSH1 0x1 DUP3 ADD SWAP2 POP PUSH1 0x20 DUP2 ADD SWAP1 POP PUSH2 0xB01 JUMP JUMPDEST DUP4 DUP9 ADD SWAP6 POP POP POP JUMPDEST POP POP POP SWAP3 SWAP2 POP POP JUMP JUMPDEST PUSH0 PUSH2 0xB3C DUP3 DUP5 PUSH2 0xAB1 JUMP JUMPDEST SWAP2 POP DUP2 SWAP1 POP SWAP3 SWAP2 POP POP JUMP JUMPDEST PUSH32 0x4E487B7100000000000000000000000000000000000000000000000000000000 PUSH0 MSTORE PUSH1 0x11 PUSH1 0x4 MSTORE PUSH1 0x24 PUSH0 REVERT JUMPDEST PUSH0 PUSH2 0xB7E DUP3 PUSH2 0x5B6 JUMP JUMPDEST SWAP2 POP PUSH2 0xB89 DUP4 PUSH2 0x5B6 JUMP JUMPDEST SWAP3 POP DUP3 DUP3 ADD SWAP1 POP DUP1 DUP3 GT ISZERO PUSH2 0xBA1 JUMPI PUSH2 0xBA0 PUSH2 0xB47 JUMP JUMPDEST JUMPDEST SWAP3 SWAP2 POP POP JUMP JUMPDEST PUSH0 DUP3 DUP3 MSTORE PUSH1 0x20 DUP3 ADD SWAP1 POP SWAP3 SWAP2 POP POP JUMP JUMPDEST PUSH32 0x4E6F7420656E6F75676820746F6B656E7320617661696C61626C652E00000000 PUSH0 DUP3 ADD MSTORE POP JUMP JUMPDEST PUSH0 PUSH2 0xBEB PUSH1 0x1C DUP4 PUSH2 0xBA7 JUMP JUMPDEST SWAP2 POP PUSH2 0xBF6 DUP3 PUSH2 0xBB7 JUMP JUMPDEST PUSH1 0x20 DUP3 ADD SWAP1 POP SWAP2 SWAP1 POP JUMP JUMPDEST PUSH0 PUSH1 0x20 DUP3 ADD SWAP1 POP DUP2 DUP2 SUB PUSH0 DUP4 ADD MSTORE PUSH2 0xC18 DUP2 PUSH2 0xBDF JUMP JUMPDEST SWAP1 POP SWAP2 SWAP1 POP JUMP JUMPDEST PUSH0 DUP2 SWAP1 POP SWAP2 SWAP1 POP JUMP JUMPDEST PUSH0 DUP2 SWAP1 POP SWAP2 SWAP1 POP JUMP JUMPDEST PUSH2 0xC42 PUSH2 0xC3D DUP3 PUSH2 0xC1F JUMP JUMPDEST PUSH2 0xC28 JUMP JUMPDEST DUP3 MSTORE POP POP JUMP JUMPDEST PUSH0 PUSH2 0xC53 DUP3 DUP5 PUSH2 0xC31 JUMP JUMPDEST PUSH1 0x20 DUP3 ADD SWAP2 POP DUP2 SWAP1 POP SWAP3 SWAP2 POP POP JUMP JUMPDEST PUSH0 PUSH2 0xC6C DUP3 PUSH2 0x7D4 JUMP JUMPDEST PUSH2 0xC76 DUP2 DUP6 PUSH2 0xAA7 JUMP JUMPDEST SWAP4 POP PUSH2 0xC86 DUP2 DUP6 PUSH1 0x20 DUP7 ADD PUSH2 0x6A9 JUMP JUMPDEST DUP1 DUP5 ADD SWAP2 POP POP SWAP3 SWAP2 POP POP JUMP JUMPDEST PUSH0 PUSH2 0xC9D DUP3 DUP8 PUSH2 0xC62 JUMP JUMPDEST SWAP2 POP PUSH2 0xCA9 DUP3 DUP7 PUSH2 0xC62 JUMP JUMPDEST SWAP2 POP PUSH2 0xCB5 DUP3 DUP6 PUSH2 0xC62 JUMP JUMPDEST SWAP2 POP PUSH2 0xCC1 DUP3 DUP5 PUSH2 0xC62 JUMP JUMPDEST SWAP2 POP DUP2 SWAP1 POP SWAP6 SWAP5 POP POP POP POP POP JUMP JUMPDEST PUSH32 0x4E487B7100000000000000000000000000000000000000000000000000000000 PUSH0 MSTORE PUSH1 0x12 PUSH1 0x4 MSTORE PUSH1 0x24 PUSH0 REVERT JUMPDEST PUSH0 PUSH2 0xD06 DUP3 PUSH2 0x5B6 JUMP JUMPDEST SWAP2 POP PUSH2 0xD11 DUP4 PUSH2 0x5B6 JUMP JUMPDEST SWAP3 POP DUP3 PUSH2 0xD21 JUMPI PUSH2 0xD20 PUSH2 0xCCF JUMP JUMPDEST JUMPDEST DUP3 DUP3 DIV SWAP1 POP SWAP3 SWAP2 POP POP JUMP JUMPDEST PUSH0 PUSH2 0xD36 DUP3 PUSH2 0x5B6 JUMP JUMPDEST SWAP2 POP PUSH2 0xD41 DUP4 PUSH2 0x5B6 JUMP JUMPDEST SWAP3 POP DUP3 DUP3 SUB SWAP1 POP DUP2 DUP2 GT ISZERO PUSH2 0xD59 JUMPI PUSH2 0xD58 PUSH2 0xB47 JUMP JUMPDEST JUMPDEST SWAP3 SWAP2 POP POP JUMP JUMPDEST PUSH2 0xB4D DUP1 PUSH2 0xD6C PUSH0 CODECOPY PUSH0 RETURN INVALID PUSH1 0x80 PUSH1 0x40 MSTORE CALLVALUE DUP1 ISZERO PUSH2 0xF JUMPI PUSH0 DUP1 REVERT JUMPDEST POP PUSH1 0x4 CALLDATASIZE LT PUSH2 0xB2 JUMPI PUSH0 CALLDATALOAD PUSH1 0xE0 SHR DUP1 PUSH4 0x6A49F979 GT PUSH2 0x6F JUMPI DUP1 PUSH4 0x6A49F979 EQ PUSH2 0x17D JUMPI DUP1 PUSH4 0x95D89B41 EQ PUSH2 0x19B JUMPI DUP1 PUSH4 0xB62A62EC EQ PUSH2 0x1B9 JUMPI DUP1 PUSH4 0xE8315742 EQ PUSH2 0x1D7 JUMPI DUP1 PUSH4 0xF22A195E EQ PUSH2 0x1F5 JUMPI DUP1 PUSH4 0xF82900B1 EQ PUSH2 0x213 JUMPI PUSH2 0xB2 JUMP JUMPDEST DUP1 PUSH4 0x572B0CC EQ PUSH2 0xB6 JUMPI DUP1 PUSH4 0x6FDDE03 EQ PUSH2 0xD4 JUMPI DUP1 PUSH4 0x18160DDD EQ PUSH2 0xF2 JUMPI DUP1 PUSH4 0x3BA0B9A9 EQ PUSH2 0x110 JUMPI DUP1 PUSH4 0x4FC8A991 EQ PUSH2 0x12E JUMPI DUP1 PUSH4 0x57E871E7 EQ PUSH2 0x15F JUMPI JUMPDEST PUSH0 DUP1 REVERT JUMPDEST PUSH2 0xBE PUSH2 0x231 JUMP JUMPDEST PUSH1 0x40 MLOAD PUSH2 0xCB SWAP2 SWAP1 PUSH2 0x609 JUMP JUMPDEST PUSH1 0x40 MLOAD DUP1 SWAP2 SUB SWAP1 RETURN JUMPDEST PUSH2 0xDC PUSH2 0x23A JUMP JUMPDEST PUSH1 0x40 MLOAD PUSH2 0xE9 SWAP2 SWAP1 PUSH2 0x692 JUMP JUMPDEST PUSH1 0x40 MLOAD DUP1 SWAP2 SUB SWAP1 RETURN JUMPDEST PUSH2 0xFA PUSH2 0x2C6 JUMP JUMPDEST PUSH1 0x40 MLOAD PUSH2 0x107 SWAP2 SWAP1 PUSH2 0x609 JUMP JUMPDEST PUSH1 0x40 MLOAD DUP1 SWAP2 SUB SWAP1 RETURN JUMPDEST PUSH2 0x118 PUSH2 0x2CC JUMP JUMPDEST PUSH1 0x40 MLOAD PUSH2 0x125 SWAP2 SWAP1 PUSH2 0x6CD JUMP JUMPDEST PUSH1 0x40 MLOAD DUP1 SWAP2 SUB SWAP1 RETURN JUMPDEST PUSH2 0x148 PUSH1 0x4 DUP1 CALLDATASIZE SUB DUP2 ADD SWAP1 PUSH2 0x143 SWAP2 SWAP1 PUSH2 0x87D JUMP JUMPDEST PUSH2 0x2DE JUMP JUMPDEST PUSH1 0x40 MLOAD PUSH2 0x156 SWAP3 SWAP2 SWAP1 PUSH2 0x909 JUMP JUMPDEST PUSH1 0x40 MLOAD DUP1 SWAP2 SUB SWAP1 RETURN JUMPDEST PUSH2 0x167 PUSH2 0x432 JUMP JUMPDEST PUSH1 0x40 MLOAD PUSH2 0x174 SWAP2 SWAP1 PUSH2 0x609 JUMP JUMPDEST PUSH1 0x40 MLOAD DUP1 SWAP2 SUB SWAP1 RETURN JUMPDEST PUSH2 0x185 PUSH2 0x438 JUMP JUMPDEST PUSH1 0x40 MLOAD PUSH2 0x192 SWAP2 SWAP1 PUSH2 0x692 JUMP JUMPDEST PUSH1 0x40 MLOAD DUP1 SWAP2 SUB SWAP1 RETURN JUMPDEST PUSH2 0x1A3 PUSH2 0x4C4 JUMP JUMPDEST PUSH1 0x40 MLOAD PUSH2 0x1B0 SWAP2 SWAP1 PUSH2 0x692 JUMP JUMPDEST PUSH1 0x40 MLOAD DUP1 SWAP2 SUB SWAP1 RETURN JUMPDEST PUSH2 0x1C1 PUSH2 0x550 JUMP JUMPDEST PUSH1 0x40 MLOAD PUSH2 0x1CE SWAP2 SWAP1 PUSH2 0x692 JUMP JUMPDEST PUSH1 0x40 MLOAD DUP1 SWAP2 SUB SWAP1 RETURN JUMPDEST PUSH2 0x1DF PUSH2 0x5E0 JUMP JUMPDEST PUSH1 0x40 MLOAD PUSH2 0x1EC SWAP2 SWAP1 PUSH2 0x609 JUMP JUMPDEST PUSH1 0x40 MLOAD DUP1 SWAP2 SUB SWAP1 RETURN JUMPDEST PUSH2 0x1FD PUSH2 0x5E5 JUMP JUMPDEST PUSH1 0x40 MLOAD PUSH2 0x20A SWAP2 SWAP1 PUSH2 0x930 JUMP JUMPDEST PUSH1 0x40 MLOAD DUP1 SWAP2 SUB SWAP1 RETURN JUMPDEST PUSH2 0x21B PUSH2 0x5EB JUMP JUMPDEST PUSH1 0x40 MLOAD PUSH2 0x228 SWAP2 SWAP1 PUSH2 0x609 JUMP JUMPDEST PUSH1 0x40 MLOAD DUP1 SWAP2 SUB SWAP1 RETURN JUMPDEST PUSH0 PUSH1 0x9 SLOAD SWAP1 POP SWAP1 JUMP JUMPDEST PUSH1 0x3 DUP1 SLOAD PUSH2 0x247 SWAP1 PUSH2 0x976 JUMP JUMPDEST DUP1 PUSH1 0x1F ADD PUSH1 0x20 DUP1 SWAP2 DIV MUL PUSH1 0x20 ADD PUSH1 0x40 MLOAD SWAP1 DUP2 ADD PUSH1 0x40 MSTORE DUP1 SWAP3 SWAP2 SWAP1 DUP2 DUP2 MSTORE PUSH1 0x20 ADD DUP3 DUP1 SLOAD PUSH2 0x273 SWAP1 PUSH2 0x976 JUMP JUMPDEST DUP1 ISZERO PUSH2 0x2BE JUMPI DUP1 PUSH1 0x1F LT PUSH2 0x295 JUMPI PUSH2 0x100 DUP1 DUP4 SLOAD DIV MUL DUP4 MSTORE SWAP2 PUSH1 0x20 ADD SWAP2 PUSH2 0x2BE JUMP JUMPDEST DUP3 ADD SWAP2 SWAP1 PUSH0 MSTORE PUSH1 0x20 PUSH0 KECCAK256 SWAP1 JUMPDEST DUP2 SLOAD DUP2 MSTORE SWAP1 PUSH1 0x1 ADD SWAP1 PUSH1 0x20 ADD DUP1 DUP4 GT PUSH2 0x2A1 JUMPI DUP3 SWAP1 SUB PUSH1 0x1F AND DUP3 ADD SWAP2 JUMPDEST POP POP POP POP POP DUP2 JUMP JUMPDEST PUSH1 0x1 SLOAD DUP2 JUMP JUMPDEST PUSH1 0x4 PUSH0 SWAP1 SLOAD SWAP1 PUSH2 0x100 EXP SWAP1 DIV PUSH1 0xFF AND DUP2 JUMP JUMPDEST PUSH0 DUP1 PUSH0 PUSH1 0x8 DUP5 PUSH1 0x40 MLOAD PUSH1 0x20 ADD PUSH2 0x2F5 SWAP3 SWAP2 SWAP1 PUSH2 0xA72 JUMP JUMPDEST PUSH1 0x40 MLOAD PUSH1 0x20 DUP2 DUP4 SUB SUB DUP2 MSTORE SWAP1 PUSH1 0x40 MSTORE SWAP1 POP PUSH0 DUP2 PUSH1 0x40 MLOAD PUSH1 0x20 ADD PUSH2 0x318 SWAP2 SWAP1 PUSH2 0x692 JUMP JUMPDEST PUSH1 0x40 MLOAD PUSH1 0x20 DUP2 DUP4 SUB SUB DUP2 MSTORE SWAP1 PUSH1 0x40 MSTORE DUP1 MLOAD SWAP1 PUSH1 0x20 ADD KECCAK256 SWAP1 POP PUSH0 JUMPDEST PUSH1 0x20 DUP2 PUSH1 0xFF AND GT PUSH2 0x421 JUMPI PUSH0 DUP3 DUP3 PUSH1 0xFF AND PUSH1 0x20 DUP2 LT PUSH2 0x354 JUMPI PUSH2 0x353 PUSH2 0xA95 JUMP JUMPDEST JUMPDEST BYTE PUSH1 0xF8 SHL SWAP1 POP PUSH1 0xA PUSH1 0x1 SWAP1 SLOAD SWAP1 PUSH2 0x100 EXP SWAP1 DIV PUSH1 0xF8 SHL PUSH31 0xFFFFFFFFFFFFFFFFFFFFFFFFFFFFFFFFFFFFFFFFFFFFFFFFFFFFFFFFFFFFFF NOT AND DUP2 PUSH31 0xFFFFFFFFFFFFFFFFFFFFFFFFFFFFFFFFFFFFFFFFFFFFFFFFFFFFFFFFFFFFFF NOT AND SUB PUSH2 0x40D JUMPI PUSH1 0x9 SLOAD PUSH1 0x5 SLOAD DUP10 PUSH20 0xFFFFFFFFFFFFFFFFFFFFFFFFFFFFFFFFFFFFFFFF AND PUSH32 0x5A9EC13C12CA9563A7B3108125F74C57ED388BB313394EA50F7E4A71B01497C2 PUSH1 0x40 MLOAD PUSH1 0x40 MLOAD DUP1 SWAP2 SUB SWAP1 LOG4 PUSH1 0x1 DUP4 SWAP6 POP SWAP6 POP POP POP POP POP PUSH2 0x42B JUMP JUMPDEST POP DUP1 DUP1 PUSH2 0x419 SWAP1 PUSH2 0xAEF JUMP JUMPDEST SWAP2 POP POP PUSH2 0x332 JUMP JUMPDEST POP PUSH0 DUP2 SWAP4 POP SWAP4 POP POP POP JUMPDEST SWAP3 POP SWAP3 SWAP1 POP JUMP JUMPDEST PUSH1 0x5 SLOAD DUP2 JUMP JUMPDEST PUSH1 0x8 DUP1 SLOAD PUSH2 0x445 SWAP1 PUSH2 0x976 JUMP JUMPDEST DUP1 PUSH1 0x1F ADD PUSH1 0x20 DUP1 SWAP2 DIV MUL PUSH1 0x20 ADD PUSH1 0x40 MLOAD SWAP1 DUP2 ADD PUSH1 0x40 MSTORE DUP1 SWAP3 SWAP2 SWAP1 DUP2 DUP2 MSTORE PUSH1 0x20 ADD DUP3 DUP1 SLOAD PUSH2 0x471 SWAP1 PUSH2 0x976 JUMP JUMPDEST DUP1 ISZERO PUSH2 0x4BC JUMPI DUP1 PUSH1 0x1F LT PUSH2 0x493 JUMPI PUSH2 0x100 DUP1 DUP4 SLOAD DIV MUL DUP4 MSTORE SWAP2 PUSH1 0x20 ADD SWAP2 PUSH2 0x4BC JUMP JUMPDEST DUP3 ADD SWAP2 SWAP1 PUSH0 MSTORE PUSH1 0x20 PUSH0 KECCAK256 SWAP1 JUMPDEST DUP2 SLOAD DUP2 MSTORE SWAP1 PUSH1 0x1 ADD SWAP1 PUSH1 0x20 ADD DUP1 DUP4 GT PUSH2 0x49F JUMPI DUP3 SWAP1 SUB PUSH1 0x1F AND DUP3 ADD SWAP2 JUMPDEST POP POP POP POP POP DUP2 JUMP JUMPDEST PUSH1 0x2 DUP1 SLOAD PUSH2 0x4D1 SWAP1 PUSH2 0x976 JUMP JUMPDEST DUP1 PUSH1 0x1F ADD PUSH1 0x20 DUP1 SWAP2 DIV MUL PUSH1 0x20 ADD PUSH1 0x40 MLOAD SWAP1 DUP2 ADD PUSH1 0x40 MSTORE DUP1 SWAP3 SWAP2 SWAP1 DUP2 DUP2 MSTORE PUSH1 0x20 ADD DUP3 DUP1 SLOAD PUSH2 0x4FD SWAP1 PUSH2 0x976 JUMP JUMPDEST DUP1 ISZERO PUSH2 0x548 JUMPI DUP1 PUSH1 0x1F LT PUSH2 0x51F JUMPI PUSH2 0x100 DUP1 DUP4 SLOAD DIV MUL DUP4 MSTORE SWAP2 PUSH1 0x20 ADD SWAP2 PUSH2 0x548 JUMP JUMPDEST DUP3 ADD SWAP2 SWAP1 PUSH0 MSTORE PUSH1 0x20 PUSH0 KECCAK256 SWAP1 JUMPDEST DUP2 SLOAD DUP2 MSTORE SWAP1 PUSH1 0x1 ADD SWAP1 PUSH1 0x20 ADD DUP1 DUP4 GT PUSH2 0x52B JUMPI DUP3 SWAP1 SUB PUSH1 0x1F AND DUP3 ADD SWAP2 JUMPDEST POP POP POP POP POP DUP2 JUMP JUMPDEST PUSH1 0x60 PUSH1 0x8 DUP1 SLOAD PUSH2 0x55F SWAP1 PUSH2 0x976 JUMP JUMPDEST DUP1 PUSH1 0x1F ADD PUSH1 0x20 DUP1 SWAP2 DIV MUL PUSH1 0x20 ADD PUSH1 0x40 MLOAD SWAP1 DUP2 ADD PUSH1 0x40 MSTORE DUP1 SWAP3 SWAP2 SWAP1 DUP2 DUP2 MSTORE PUSH1 0x20 ADD DUP3 DUP1 SLOAD PUSH2 0x58B SWAP1 PUSH2 0x976 JUMP JUMPDEST DUP1 ISZERO PUSH2 0x5D6 JUMPI DUP1 PUSH1 0x1F LT PUSH2 0x5AD JUMPI PUSH2 0x100 DUP1 DUP4 SLOAD DIV MUL DUP4 MSTORE SWAP2 PUSH1 0x20 ADD SWAP2 PUSH2 0x5D6 JUMP JUMPDEST DUP3 ADD SWAP2 SWAP1 PUSH0 MSTORE PUSH1 0x20 PUSH0 KECCAK256 SWAP1 JUMPDEST DUP2 SLOAD DUP2 MSTORE SWAP1 PUSH1 0x1 ADD SWAP1 PUSH1 0x20 ADD DUP1 DUP4 GT PUSH2 0x5B9 JUMPI DUP3 SWAP1 SUB PUSH1 0x1F AND DUP3 ADD SWAP2 JUMPDEST POP POP POP POP POP SWAP1 POP SWAP1 JUMP JUMPDEST PUSH0 SLOAD DUP2 JUMP JUMPDEST PUSH1 0x6 SLOAD DUP2 JUMP JUMPDEST PUSH1 0x9 SLOAD DUP2 JUMP JUMPDEST PUSH0 DUP2 SWAP1 POP SWAP2 SWAP1 POP JUMP JUMPDEST PUSH2 0x603 DUP2 PUSH2 0x5F1 JUMP JUMPDEST DUP3 MSTORE POP POP JUMP JUMPDEST PUSH0 PUSH1 0x20 DUP3 ADD SWAP1 POP PUSH2 0x61C PUSH0 DUP4 ADD DUP5 PUSH2 0x5FA JUMP JUMPDEST SWAP3 SWAP2 POP POP JUMP JUMPDEST PUSH0 DUP2 MLOAD SWAP1 POP SWAP2 SWAP1 POP JUMP JUMPDEST PUSH0 DUP3 DUP3 MSTORE PUSH1 0x20 DUP3 ADD SWAP1 POP SWAP3 SWAP2 POP POP JUMP JUMPDEST DUP3 DUP2 DUP4 MCOPY PUSH0 DUP4 DUP4 ADD MSTORE POP POP POP JUMP JUMPDEST PUSH0 PUSH1 0x1F NOT PUSH1 0x1F DUP4 ADD AND SWAP1 POP SWAP2 SWAP1 POP JUMP JUMPDEST PUSH0 PUSH2 0x664 DUP3 PUSH2 0x622 JUMP JUMPDEST PUSH2 0x66E DUP2 DUP6 PUSH2 0x62C JUMP JUMPDEST SWAP4 POP PUSH2 0x67E DUP2 DUP6 PUSH1 0x20 DUP7 ADD PUSH2 0x63C JUMP JUMPDEST PUSH2 0x687 DUP2 PUSH2 0x64A JUMP JUMPDEST DUP5 ADD SWAP2 POP POP SWAP3 SWAP2 POP POP JUMP JUMPDEST PUSH0 PUSH1 0x20 DUP3 ADD SWAP1 POP DUP2 DUP2 SUB PUSH0 DUP4 ADD MSTORE PUSH2 0x6AA DUP2 DUP5 PUSH2 0x65A JUMP JUMPDEST SWAP1 POP SWAP3 SWAP2 POP POP JUMP JUMPDEST PUSH0 PUSH1 0xFF DUP3 AND SWAP1 POP SWAP2 SWAP1 POP JUMP JUMPDEST PUSH2 0x6C7 DUP2 PUSH2 0x6B2 JUMP JUMPDEST DUP3 MSTORE POP POP JUMP JUMPDEST PUSH0 PUSH1 0x20 DUP3 ADD SWAP1 POP PUSH2 0x6E0 PUSH0 DUP4 ADD DUP5 PUSH2 0x6BE JUMP JUMPDEST SWAP3 SWAP2 POP POP JUMP JUMPDEST PUSH0 PUSH1 0x40 MLOAD SWAP1 POP SWAP1 JUMP JUMPDEST PUSH0 DUP1 REVERT JUMPDEST PUSH0 DUP1 REVERT JUMPDEST PUSH0 PUSH20 0xFFFFFFFFFFFFFFFFFFFFFFFFFFFFFFFFFFFFFFFF DUP3 AND SWAP1 POP SWAP2 SWAP1 POP JUMP JUMPDEST PUSH0 PUSH2 0x720 DUP3 PUSH2 0x6F7 JUMP JUMPDEST SWAP1 POP SWAP2 SWAP1 POP JUMP JUMPDEST PUSH2 0x730 DUP2 PUSH2 0x716 JUMP JUMPDEST DUP2 EQ PUSH2 0x73A JUMPI PUSH0 DUP1 REVERT JUMPDEST POP JUMP JUMPDEST PUSH0 DUP2 CALLDATALOAD SWAP1 POP PUSH2 0x74B DUP2 PUSH2 0x727 JUMP JUMPDEST SWAP3 SWAP2 POP POP JUMP JUMPDEST PUSH0 DUP1 REVERT JUMPDEST PUSH0 DUP1 REVERT JUMPDEST PUSH32 0x4E487B7100000000000000000000000000000000000000000000000000000000 PUSH0 MSTORE PUSH1 0x41 PUSH1 0x4 MSTORE PUSH1 0x24 PUSH0 REVERT JUMPDEST PUSH2 0x78F DUP3 PUSH2 0x64A JUMP JUMPDEST DUP2 ADD DUP2 DUP2 LT PUSH8 0xFFFFFFFFFFFFFFFF DUP3 GT OR ISZERO PUSH2 0x7AE JUMPI PUSH2 0x7AD PUSH2 0x759 JUMP JUMPDEST JUMPDEST DUP1 PUSH1 0x40 MSTORE POP POP POP JUMP JUMPDEST PUSH0 PUSH2 0x7C0 PUSH2 0x6E6 JUMP JUMPDEST SWAP1 POP PUSH2 0x7CC DUP3 DUP3 PUSH2 0x786 JUMP JUMPDEST SWAP2 SWAP1 POP JUMP JUMPDEST PUSH0 PUSH8 0xFFFFFFFFFFFFFFFF DUP3 GT ISZERO PUSH2 0x7EB JUMPI PUSH2 0x7EA PUSH2 0x759 JUMP JUMPDEST JUMPDEST PUSH2 0x7F4 DUP3 PUSH2 0x64A JUMP JUMPDEST SWAP1 POP PUSH1 0x20 DUP2 ADD SWAP1 POP SWAP2 SWAP1 POP JUMP JUMPDEST DUP3 DUP2 DUP4 CALLDATACOPY PUSH0 DUP4 DUP4 ADD MSTORE POP POP POP JUMP JUMPDEST PUSH0 PUSH2 0x821 PUSH2 0x81C DUP5 PUSH2 0x7D1 JUMP JUMPDEST PUSH2 0x7B7 JUMP JUMPDEST SWAP1 POP DUP3 DUP2 MSTORE PUSH1 0x20 DUP2 ADD DUP5 DUP5 DUP5 ADD GT ISZERO PUSH2 0x83D JUMPI PUSH2 0x83C PUSH2 0x755 JUMP JUMPDEST JUMPDEST PUSH2 0x848 DUP5 DUP3 DUP6 PUSH2 0x801 JUMP JUMPDEST POP SWAP4 SWAP3 POP POP POP JUMP JUMPDEST PUSH0 DUP3 PUSH1 0x1F DUP4 ADD SLT PUSH2 0x864 JUMPI PUSH2 0x863 PUSH2 0x751 JUMP JUMPDEST JUMPDEST DUP2 CALLDATALOAD PUSH2 0x874 DUP5 DUP3 PUSH1 0x20 DUP7 ADD PUSH2 0x80F JUMP JUMPDEST SWAP2 POP POP SWAP3 SWAP2 POP POP JUMP JUMPDEST PUSH0 DUP1 PUSH1 0x40 DUP4 DUP6 SUB SLT ISZERO PUSH2 0x893 JUMPI PUSH2 0x892 PUSH2 0x6EF JUMP JUMPDEST JUMPDEST PUSH0 PUSH2 0x8A0 DUP6 DUP3 DUP7 ADD PUSH2 0x73D JUMP JUMPDEST SWAP3 POP POP PUSH1 0x20 DUP4 ADD CALLDATALOAD PUSH8 0xFFFFFFFFFFFFFFFF DUP2 GT ISZERO PUSH2 0x8C1 JUMPI PUSH2 0x8C0 PUSH2 0x6F3 JUMP JUMPDEST JUMPDEST PUSH2 0x8CD DUP6 DUP3 DUP7 ADD PUSH2 0x850 JUMP JUMPDEST SWAP2 POP POP SWAP3 POP SWAP3 SWAP1 POP JUMP JUMPDEST PUSH0 DUP2 ISZERO ISZERO SWAP1 POP SWAP2 SWAP1 POP JUMP JUMPDEST PUSH2 0x8EB DUP2 PUSH2 0x8D7 JUMP JUMPDEST DUP3 MSTORE POP POP JUMP JUMPDEST PUSH0 DUP2 SWAP1 POP SWAP2 SWAP1 POP JUMP JUMPDEST PUSH2 0x903 DUP2 PUSH2 0x8F1 JUMP JUMPDEST DUP3 MSTORE POP POP JUMP JUMPDEST PUSH0 PUSH1 0x40 DUP3 ADD SWAP1 POP PUSH2 0x91C PUSH0 DUP4 ADD DUP6 PUSH2 0x8E2 JUMP JUMPDEST PUSH2 0x929 PUSH1 0x20 DUP4 ADD DUP5 PUSH2 0x8FA JUMP JUMPDEST SWAP4 SWAP3 POP POP POP JUMP JUMPDEST PUSH0 PUSH1 0x20 DUP3 ADD SWAP1 POP PUSH2 0x943 PUSH0 DUP4 ADD DUP5 PUSH2 0x8FA JUMP JUMPDEST SWAP3 SWAP2 POP POP JUMP JUMPDEST PUSH32 0x4E487B7100000000000000000000000000000000000000000000000000000000 PUSH0 MSTORE PUSH1 0x22 PUSH1 0x4 MSTORE PUSH1 0x24 PUSH0 REVERT JUMPDEST PUSH0 PUSH1 0x2 DUP3 DIV SWAP1 POP PUSH1 0x1 DUP3 AND DUP1 PUSH2 0x98D JUMPI PUSH1 0x7F DUP3 AND SWAP2 POP JUMPDEST PUSH1 0x20 DUP3 LT DUP2 SUB PUSH2 0x9A0 JUMPI PUSH2 0x99F PUSH2 0x949 JUMP JUMPDEST JUMPDEST POP SWAP2 SWAP1 POP JUMP JUMPDEST PUSH0 DUP2 SWAP1 POP SWAP3 SWAP2 POP POP JUMP JUMPDEST PUSH0 DUP2 SWAP1 POP DUP2 PUSH0 MSTORE PUSH1 0x20 PUSH0 KECCAK256 SWAP1 POP SWAP2 SWAP1 POP JUMP JUMPDEST PUSH0 DUP2 SLOAD PUSH2 0x9CE DUP2 PUSH2 0x976 JUMP JUMPDEST PUSH2 0x9D8 DUP2 DUP7 PUSH2 0x9A6 JUMP JUMPDEST SWAP5 POP PUSH1 0x1 DUP3 AND PUSH0 DUP2 EQ PUSH2 0x9F2 JUMPI PUSH1 0x1 DUP2 EQ PUSH2 0xA07 JUMPI PUSH2 0xA39 JUMP JUMPDEST PUSH1 0xFF NOT DUP4 AND DUP7 MSTORE DUP2 ISZERO ISZERO DUP3 MUL DUP7 ADD SWAP4 POP PUSH2 0xA39 JUMP JUMPDEST PUSH2 0xA10 DUP6 PUSH2 0x9B0 JUMP JUMPDEST PUSH0 JUMPDEST DUP4 DUP2 LT ISZERO PUSH2 0xA31 JUMPI DUP2 SLOAD DUP2 DUP10 ADD MSTORE PUSH1 0x1 DUP3 ADD SWAP2 POP PUSH1 0x20 DUP2 ADD SWAP1 POP PUSH2 0xA12 JUMP JUMPDEST DUP4 DUP9 ADD SWAP6 POP POP POP JUMPDEST POP POP POP SWAP3 SWAP2 POP POP JUMP JUMPDEST PUSH0 PUSH2 0xA4C DUP3 PUSH2 0x622 JUMP JUMPDEST PUSH2 0xA56 DUP2 DUP6 PUSH2 0x9A6 JUMP JUMPDEST SWAP4 POP PUSH2 0xA66 DUP2 DUP6 PUSH1 0x20 DUP7 ADD PUSH2 0x63C JUMP JUMPDEST DUP1 DUP5 ADD SWAP2 POP POP SWAP3 SWAP2 POP POP JUMP JUMPDEST PUSH0 PUSH2 0xA7D DUP3 DUP6 PUSH2 0x9C2 JUMP JUMPDEST SWAP2 POP PUSH2 0xA89 DUP3 DUP5 PUSH2 0xA42 JUMP JUMPDEST SWAP2 POP DUP2 SWAP1 POP SWAP4 SWAP3 POP POP POP JUMP JUMPDEST PUSH32 0x4E487B7100000000000000000000000000000000000000000000000000000000 PUSH0 MSTORE PUSH1 0x32 PUSH1 0x4 MSTORE PUSH1 0x24 PUSH0 REVERT JUMPDEST PUSH32 0x4E487B7100000000000000000000000000000000000000000000000000000000 PUSH0 MSTORE PUSH1 0x11 PUSH1 0x4 MSTORE PUSH1 0x24 PUSH0 REVERT JUMPDEST PUSH0 PUSH2 0xAF9 DUP3 PUSH2 0x6B2 JUMP JUMPDEST SWAP2 POP PUSH1 0xFF DUP3 SUB PUSH2 0xB0C JUMPI PUSH2 0xB0B PUSH2 0xAC2 JUMP JUMPDEST JUMPDEST PUSH1 0x1 DUP3 ADD SWAP1 POP SWAP2 SWAP1 POP JUMP INVALID LOG2 PUSH5 0x6970667358 0x22 SLT KECCAK256 0x2E 0xE9 SWAP16 EXP SSTORE CALLCODE SWAP3 CREATE GT PUSH20 0x29F20D9E897459EB6E84223F7B6467BA76B2A934 CALL 0xF9 PUSH5 0x736F6C6343 STOP ADDMOD NOT STOP CALLER LOG2 PUSH5 0x6970667358 0x22 SLT KECCAK256 PUSH14 0xA253B8D976789EEF597102709038 PUSH4 0x6BE2765A COINBASE 0xB8 0xE6 PUSH1 0x17 SELFBALANCE ISZERO 0xF6 EXTCODECOPY 0xBC 0xAB LOG1 PUSH5 0x736F6C6343 STOP ADDMOD NOT STOP CALLER "
		},
		"gasEstimates": {
			"creation": {
				"codeDepositCost": "2946400",
				"executionCost": "infinite",
				"totalCost": "infinite"
			},
			"external": {
				"DOMAIN_SEPARATOR()": "infinite",
				"allowance(address,address)": "infinite",
				"approve(address,uint256)": "infinite",
				"balanceOf(address)": "2896",
				"buyTokens()": "infinite",
				"buyTokensFor(address)": "infinite",
				"createNewDebtList(address,uint256,uint256)": "infinite",
				"decimals()": "406",
				"eip712Domain()": "infinite",
				"getMiningRewards()": "infinite",
				"getMiningTask()": "infinite",
				"maxTokens()": "2469",
				"mint(address,uint256)": "infinite",
				"myBalance()": "2672",
				"name()": "infinite",
				"nonces(address)": "2917",
				"owner()": "2678",
				"pause()": "infinite",
				"paused()": "2585",
				"permit(address,address,uint256,uint256,uint8,bytes32,bytes32)": "infinite",
				"renounceOwnership()": "infinite",
				"repayDebt(address,uint256)": "infinite",
				"symbol()": "infinite",
				"totalSupply()": "2523",
				"transfer(address,uint256)": "infinite",
				"transferFrom(address,address,uint256)": "infinite",
				"transferOwnership(address)": "infinite",
				"tryToGetBlock(string)": "infinite",
				"tryToGetDebtBlock(string)": "infinite",
				"unpause()": "infinite",
				"validateDebtList(address,uint256,uint256)": "infinite",
				"withdrawTokensGetEther(address,uint256)": "infinite"
			},
			"internal": {
				"_update(address,address,uint256)": "infinite",
				"calculateExchangeRateInEther(uint256)": "infinite",
				"calculateExchangeRateInTokens(uint256)": "infinite",
				"mining()": "infinite",
				"mintTokens(address,uint256,uint256)": "infinite"
			}
		},
		"methodIdentifiers": {
			"DOMAIN_SEPARATOR()": "3644e515",
			"allowance(address,address)": "dd62ed3e",
			"approve(address,uint256)": "095ea7b3",
			"balanceOf(address)": "70a08231",
			"buyTokens()": "d0febe4c",
			"buyTokensFor(address)": "6be4cf1f",
			"createNewDebtList(address,uint256,uint256)": "2b4c9bd0",
			"decimals()": "313ce567",
			"eip712Domain()": "84b0196e",
			"getMiningRewards()": "3296a74e",
			"getMiningTask()": "b62a62ec",
			"maxTokens()": "e8315742",
			"mint(address,uint256)": "40c10f19",
			"myBalance()": "c9116b69",
			"name()": "06fdde03",
			"nonces(address)": "7ecebe00",
			"owner()": "8da5cb5b",
			"pause()": "8456cb59",
			"paused()": "5c975abb",
			"permit(address,address,uint256,uint256,uint8,bytes32,bytes32)": "d505accf",
			"renounceOwnership()": "715018a6",
			"repayDebt(address,uint256)": "79e20bdc",
			"symbol()": "95d89b41",
			"totalSupply()": "18160ddd",
			"transfer(address,uint256)": "a9059cbb",
			"transferFrom(address,address,uint256)": "23b872dd",
			"transferOwnership(address)": "f2fde38b",
			"tryToGetBlock(string)": "f4f9c241",
			"tryToGetDebtBlock(string)": "ffd14d6a",
			"unpause()": "3f4ba83a",
			"validateDebtList(address,uint256,uint256)": "39b49257",
			"withdrawTokensGetEther(address,uint256)": "e791febd"
		}
	},
	"abi": [
		{
			"inputs": [
				{
					"internalType": "address",
					"name": "initialOwner",
					"type": "address"
				}
			],
			"stateMutability": "nonpayable",
			"type": "constructor"
		},
		{
			"inputs": [],
			"name": "ECDSAInvalidSignature",
			"type": "error"
		},
		{
			"inputs": [
				{
					"internalType": "uint256",
					"name": "length",
					"type": "uint256"
				}
			],
			"name": "ECDSAInvalidSignatureLength",
			"type": "error"
		},
		{
			"inputs": [
				{
					"internalType": "bytes32",
					"name": "s",
					"type": "bytes32"
				}
			],
			"name": "ECDSAInvalidSignatureS",
			"type": "error"
		},
		{
			"inputs": [
				{
					"internalType": "address",
					"name": "spender",
					"type": "address"
				},
				{
					"internalType": "uint256",
					"name": "allowance",
					"type": "uint256"
				},
				{
					"internalType": "uint256",
					"name": "needed",
					"type": "uint256"
				}
			],
			"name": "ERC20InsufficientAllowance",
			"type": "error"
		},
		{
			"inputs": [
				{
					"internalType": "address",
					"name": "sender",
					"type": "address"
				},
				{
					"internalType": "uint256",
					"name": "balance",
					"type": "uint256"
				},
				{
					"internalType": "uint256",
					"name": "needed",
					"type": "uint256"
				}
			],
			"name": "ERC20InsufficientBalance",
			"type": "error"
		},
		{
			"inputs": [
				{
					"internalType": "address",
					"name": "approver",
					"type": "address"
				}
			],
			"name": "ERC20InvalidApprover",
			"type": "error"
		},
		{
			"inputs": [
				{
					"internalType": "address",
					"name": "receiver",
					"type": "address"
				}
			],
			"name": "ERC20InvalidReceiver",
			"type": "error"
		},
		{
			"inputs": [
				{
					"internalType": "address",
					"name": "sender",
					"type": "address"
				}
			],
			"name": "ERC20InvalidSender",
			"type": "error"
		},
		{
			"inputs": [
				{
					"internalType": "address",
					"name": "spender",
					"type": "address"
				}
			],
			"name": "ERC20InvalidSpender",
			"type": "error"
		},
		{
			"inputs": [
				{
					"internalType": "uint256",
					"name": "deadline",
					"type": "uint256"
				}
			],
			"name": "ERC2612ExpiredSignature",
			"type": "error"
		},
		{
			"inputs": [
				{
					"internalType": "address",
					"name": "signer",
					"type": "address"
				},
				{
					"internalType": "address",
					"name": "owner",
					"type": "address"
				}
			],
			"name": "ERC2612InvalidSigner",
			"type": "error"
		},
		{
			"inputs": [],
			"name": "EnforcedPause",
			"type": "error"
		},
		{
			"inputs": [],
			"name": "ExpectedPause",
			"type": "error"
		},
		{
			"inputs": [
				{
					"internalType": "address",
					"name": "account",
					"type": "address"
				},
				{
					"internalType": "uint256",
					"name": "currentNonce",
					"type": "uint256"
				}
			],
			"name": "InvalidAccountNonce",
			"type": "error"
		},
		{
			"inputs": [],
			"name": "InvalidShortString",
			"type": "error"
		},
		{
			"inputs": [
				{
					"internalType": "address",
					"name": "owner",
					"type": "address"
				}
			],
			"name": "OwnableInvalidOwner",
			"type": "error"
		},
		{
			"inputs": [
				{
					"internalType": "address",
					"name": "account",
					"type": "address"
				}
			],
			"name": "OwnableUnauthorizedAccount",
			"type": "error"
		},
		{
			"inputs": [
				{
					"internalType": "string",
					"name": "str",
					"type": "string"
				}
			],
			"name": "StringTooLong",
			"type": "error"
		},
		{
			"anonymous": false,
			"inputs": [
				{
					"indexed": true,
					"internalType": "address",
					"name": "owner",
					"type": "address"
				},
				{
					"indexed": true,
					"internalType": "address",
					"name": "spender",
					"type": "address"
				},
				{
					"indexed": false,
					"internalType": "uint256",
					"name": "value",
					"type": "uint256"
				}
			],
			"name": "Approval",
			"type": "event"
		},
		{
			"anonymous": false,
			"inputs": [],
			"name": "EIP712DomainChanged",
			"type": "event"
		},
		{
			"anonymous": false,
			"inputs": [
				{
					"indexed": true,
					"internalType": "address",
					"name": "previousOwner",
					"type": "address"
				},
				{
					"indexed": true,
					"internalType": "address",
					"name": "newOwner",
					"type": "address"
				}
			],
			"name": "OwnershipTransferred",
			"type": "event"
		},
		{
			"anonymous": false,
			"inputs": [
				{
					"indexed": false,
					"internalType": "address",
					"name": "account",
					"type": "address"
				}
			],
			"name": "Paused",
			"type": "event"
		},
		{
			"anonymous": false,
			"inputs": [
				{
					"indexed": true,
					"internalType": "address",
					"name": "from",
					"type": "address"
				},
				{
					"indexed": true,
					"internalType": "address",
					"name": "to",
					"type": "address"
				},
				{
					"indexed": false,
					"internalType": "uint256",
					"name": "value",
					"type": "uint256"
				}
			],
			"name": "Transfer",
			"type": "event"
		},
		{
			"anonymous": false,
			"inputs": [
				{
					"indexed": false,
					"internalType": "address",
					"name": "account",
					"type": "address"
				}
			],
			"name": "Unpaused",
			"type": "event"
		},
		{
			"inputs": [],
			"name": "DOMAIN_SEPARATOR",
			"outputs": [
				{
					"internalType": "bytes32",
					"name": "",
					"type": "bytes32"
				}
			],
			"stateMutability": "view",
			"type": "function"
		},
		{
			"inputs": [
				{
					"internalType": "address",
					"name": "owner",
					"type": "address"
				},
				{
					"internalType": "address",
					"name": "spender",
					"type": "address"
				}
			],
			"name": "allowance",
			"outputs": [
				{
					"internalType": "uint256",
					"name": "",
					"type": "uint256"
				}
			],
			"stateMutability": "view",
			"type": "function"
		},
		{
			"inputs": [
				{
					"internalType": "address",
					"name": "spender",
					"type": "address"
				},
				{
					"internalType": "uint256",
					"name": "value",
					"type": "uint256"
				}
			],
			"name": "approve",
			"outputs": [
				{
					"internalType": "bool",
					"name": "",
					"type": "bool"
				}
			],
			"stateMutability": "nonpayable",
			"type": "function"
		},
		{
			"inputs": [
				{
					"internalType": "address",
					"name": "account",
					"type": "address"
				}
			],
			"name": "balanceOf",
			"outputs": [
				{
					"internalType": "uint256",
					"name": "",
					"type": "uint256"
				}
			],
			"stateMutability": "view",
			"type": "function"
		},
		{
			"inputs": [],
			"name": "buyTokens",
			"outputs": [],
			"stateMutability": "payable",
			"type": "function"
		},
		{
			"inputs": [
				{
					"internalType": "address",
					"name": "to",
					"type": "address"
				}
			],
			"name": "buyTokensFor",
			"outputs": [],
			"stateMutability": "payable",
			"type": "function"
		},
		{
			"inputs": [
				{
					"internalType": "address",
					"name": "creditor",
					"type": "address"
				},
				{
					"internalType": "uint256",
					"name": "amount",
					"type": "uint256"
				},
				{
					"internalType": "uint256",
					"name": "interest",
					"type": "uint256"
				}
			],
			"name": "createNewDebtList",
			"outputs": [],
			"stateMutability": "nonpayable",
			"type": "function"
		},
		{
			"inputs": [],
			"name": "decimals",
			"outputs": [
				{
					"internalType": "uint8",
					"name": "",
					"type": "uint8"
				}
			],
			"stateMutability": "view",
			"type": "function"
		},
		{
			"inputs": [],
			"name": "eip712Domain",
			"outputs": [
				{
					"internalType": "bytes1",
					"name": "fields",
					"type": "bytes1"
				},
				{
					"internalType": "string",
					"name": "name",
					"type": "string"
				},
				{
					"internalType": "string",
					"name": "version",
					"type": "string"
				},
				{
					"internalType": "uint256",
					"name": "chainId",
					"type": "uint256"
				},
				{
					"internalType": "address",
					"name": "verifyingContract",
					"type": "address"
				},
				{
					"internalType": "bytes32",
					"name": "salt",
					"type": "bytes32"
				},
				{
					"internalType": "uint256[]",
					"name": "extensions",
					"type": "uint256[]"
				}
			],
			"stateMutability": "view",
			"type": "function"
		},
		{
			"inputs": [],
			"name": "getMiningRewards",
			"outputs": [
				{
					"internalType": "uint256",
					"name": "",
					"type": "uint256"
				}
			],
			"stateMutability": "view",
			"type": "function"
		},
		{
			"inputs": [],
			"name": "getMiningTask",
			"outputs": [
				{
					"internalType": "string",
					"name": "",
					"type": "string"
				}
			],
			"stateMutability": "view",
			"type": "function"
		},
		{
			"inputs": [],
			"name": "maxTokens",
			"outputs": [
				{
					"internalType": "uint256",
					"name": "",
					"type": "uint256"
				}
			],
			"stateMutability": "view",
			"type": "function"
		},
		{
			"inputs": [
				{
					"internalType": "address",
					"name": "to",
					"type": "address"
				},
				{
					"internalType": "uint256",
					"name": "amount",
					"type": "uint256"
				}
			],
			"name": "mint",
			"outputs": [],
			"stateMutability": "nonpayable",
			"type": "function"
		},
		{
			"inputs": [],
			"name": "myBalance",
			"outputs": [
				{
					"internalType": "uint256",
					"name": "",
					"type": "uint256"
				}
			],
			"stateMutability": "view",
			"type": "function"
		},
		{
			"inputs": [],
			"name": "name",
			"outputs": [
				{
					"internalType": "string",
					"name": "",
					"type": "string"
				}
			],
			"stateMutability": "view",
			"type": "function"
		},
		{
			"inputs": [
				{
					"internalType": "address",
					"name": "owner",
					"type": "address"
				}
			],
			"name": "nonces",
			"outputs": [
				{
					"internalType": "uint256",
					"name": "",
					"type": "uint256"
				}
			],
			"stateMutability": "view",
			"type": "function"
		},
		{
			"inputs": [],
			"name": "owner",
			"outputs": [
				{
					"internalType": "address",
					"name": "",
					"type": "address"
				}
			],
			"stateMutability": "view",
			"type": "function"
		},
		{
			"inputs": [],
			"name": "pause",
			"outputs": [],
			"stateMutability": "nonpayable",
			"type": "function"
		},
		{
			"inputs": [],
			"name": "paused",
			"outputs": [
				{
					"internalType": "bool",
					"name": "",
					"type": "bool"
				}
			],
			"stateMutability": "view",
			"type": "function"
		},
		{
			"inputs": [
				{
					"internalType": "address",
					"name": "owner",
					"type": "address"
				},
				{
					"internalType": "address",
					"name": "spender",
					"type": "address"
				},
				{
					"internalType": "uint256",
					"name": "value",
					"type": "uint256"
				},
				{
					"internalType": "uint256",
					"name": "deadline",
					"type": "uint256"
				},
				{
					"internalType": "uint8",
					"name": "v",
					"type": "uint8"
				},
				{
					"internalType": "bytes32",
					"name": "r",
					"type": "bytes32"
				},
				{
					"internalType": "bytes32",
					"name": "s",
					"type": "bytes32"
				}
			],
			"name": "permit",
			"outputs": [],
			"stateMutability": "nonpayable",
			"type": "function"
		},
		{
			"inputs": [],
			"name": "renounceOwnership",
			"outputs": [],
			"stateMutability": "nonpayable",
			"type": "function"
		},
		{
			"inputs": [
				{
					"internalType": "address",
					"name": "creditor",
					"type": "address"
				},
				{
					"internalType": "uint256",
					"name": "amount",
					"type": "uint256"
				}
			],
			"name": "repayDebt",
			"outputs": [],
			"stateMutability": "payable",
			"type": "function"
		},
		{
			"inputs": [],
			"name": "symbol",
			"outputs": [
				{
					"internalType": "string",
					"name": "",
					"type": "string"
				}
			],
			"stateMutability": "view",
			"type": "function"
		},
		{
			"inputs": [],
			"name": "totalSupply",
			"outputs": [
				{
					"internalType": "uint256",
					"name": "",
					"type": "uint256"
				}
			],
			"stateMutability": "view",
			"type": "function"
		},
		{
			"inputs": [
				{
					"internalType": "address",
					"name": "to",
					"type": "address"
				},
				{
					"internalType": "uint256",
					"name": "value",
					"type": "uint256"
				}
			],
			"name": "transfer",
			"outputs": [
				{
					"internalType": "bool",
					"name": "",
					"type": "bool"
				}
			],
			"stateMutability": "nonpayable",
			"type": "function"
		},
		{
			"inputs": [
				{
					"internalType": "address",
					"name": "from",
					"type": "address"
				},
				{
					"internalType": "address",
					"name": "to",
					"type": "address"
				},
				{
					"internalType": "uint256",
					"name": "value",
					"type": "uint256"
				}
			],
			"name": "transferFrom",
			"outputs": [
				{
					"internalType": "bool",
					"name": "",
					"type": "bool"
				}
			],
			"stateMutability": "nonpayable",
			"type": "function"
		},
		{
			"inputs": [
				{
					"internalType": "address",
					"name": "newOwner",
					"type": "address"
				}
			],
			"name": "transferOwnership",
			"outputs": [],
			"stateMutability": "nonpayable",
			"type": "function"
		},
		{
			"inputs": [
				{
					"internalType": "string",
					"name": "input",
					"type": "string"
				}
			],
			"name": "tryToGetBlock",
			"outputs": [
				{
					"internalType": "bool",
					"name": "",
					"type": "bool"
				},
				{
					"internalType": "bytes32",
					"name": "",
					"type": "bytes32"
				}
			],
			"stateMutability": "nonpayable",
			"type": "function"
		},
		{
			"inputs": [
				{
					"internalType": "string",
					"name": "input",
					"type": "string"
				}
			],
			"name": "tryToGetDebtBlock",
			"outputs": [
				{
					"internalType": "bool",
					"name": "",
					"type": "bool"
				},
				{
					"internalType": "bytes32",
					"name": "",
					"type": "bytes32"
				}
			],
			"stateMutability": "nonpayable",
			"type": "function"
		},
		{
			"inputs": [],
			"name": "unpause",
			"outputs": [],
			"stateMutability": "nonpayable",
			"type": "function"
		},
		{
			"inputs": [
				{
					"internalType": "address",
					"name": "debtor",
					"type": "address"
				},
				{
					"internalType": "uint256",
					"name": "amount",
					"type": "uint256"
				},
				{
					"internalType": "uint256",
					"name": "interest",
					"type": "uint256"
				}
			],
			"name": "validateDebtList",
			"outputs": [],
			"stateMutability": "nonpayable",
			"type": "function"
		},
		{
			"inputs": [
				{
					"internalType": "address payable",
					"name": "recipient",
					"type": "address"
				},
				{
					"internalType": "uint256",
					"name": "amount",
					"type": "uint256"
				}
			],
			"name": "withdrawTokensGetEther",
			"outputs": [],
			"stateMutability": "nonpayable",
			"type": "function"
		}
	]
}